:100000000C94ED060C9415070C9415070C94150729
:100010000C9415070C9415070C9415070C941507F0
:100020000C9415070C9415070C9415070C94E41701
:100030000C9415070C9415070C9415070C941507D0
:100040000C949A170C9415070C9415070C9415072B
:100050000C9415070C9415070C9415070C941507B0
:100060000C9415070C941507F62BF82BFE2B002C7F
:10007000062C0C2C0E2C142C1A2C1C2C05A84CCD48
:10008000B2D44EB93836A9020C50B9918688083CD2
:10009000A6AAAA2ABE000000803F0101FF030101B9
:1000A000F7039E009A0000000000240027002A00A9
:1000B00000000000250028002B0005008930080200
:1000C00038024978681400000580C1816401640128
:1000D00064010000080500F048F00008050000F881
:1000E00000000805C0704870C045809188418208B2
:1000F0000600000803E0E0E0418205805C01FC01AD
:100100005801FC015001FC014801FC0140080000BD
:10011000418205808C02880280027802700800000B
:10012000418205805C01FC055C01FC015C01FC076F
:100130004001FC054001FC014001FC070000418238
:1001400005805C02640240044808400250025804E2
:100150005C08000003000100050007000900010021
:1001600005000B000D000F0011000F0013000F0021
:100170001100FFFF0000020004000600080002005A
:1001800004000A000C000E0010000E0012000E0009
:100190001000FFFF058001812C04FC022C02FC08EA
:1001A0004004FC024002FC080000058001815C065E
:1001B0006C0678046C0678068004000005800181D6
:1001C0002C04FC022C02FC083404FC023402FC085F
:1001D0000000058001815C066C06780464066C06EC
:1001E00058040000058001811004FC021002FC0884
:1001F0001804FC023C02FC08000005800181400656
:1002000050065C044806580664040000058001811D
:100210004001FC034001FC033C01FC033C01FC03E6
:100220004801FC034801FC035C01FC033C01FC03A6
:1002300000000580018170086C04700478085C047B
:100240008C040000058001812C01FC052C01FC01BF
:100250002C01FC034001FC033401FC053401FC01CA
:100260003C01FC03EC01FC030000058001815C0CF7
:100270005802500264086C080000058001813C01AE
:10028000FC053C01FC013C01FC032001FC033401A2
:10029000FC053401FC013401FC031801FC030000DF
:1002A000058001816C1064066C065804000005800E
:1002B00001812C01FC052C01FC012C01FC034001F7
:1002C000FC033C01FC053C01FC013C01FC031C015E
:1002D000FC030000058001815C0C580264026C087C
:1002E00070080000058001813C01FC053C01FC0117
:1002F0003C01FC031C01FC033C01FC053C01FC012E
:100300003C01FC031C01FC030000058001816C1012
:1003100064065C065804000005800181400C3C0224
:1003200040023C0640064804500C3C02400248068D
:10033000500658040000058001815C0C50025802F0
:100340005C0870080000058001812C01FC052C016F
:10035000FC012C01FC034001FC032C01FC052C01D9
:10036000FC012C01FC034001FC030000058001811D
:100370001004FC021002FC021002FC040C02FC043B
:100380001002FC041802FC022004FC022002FC04FF
:100390002002FC021804FC022002FC0220022804B5
:1003A000000017534400161378001613140015109C
:1003B000200015201000540A03E181867F3E186D4D
:1003C000830F0F0E0183866033186DC3198F1803D6
:1003D000C38E6033186DE330CF1803C39E60363090
:1003E000CDE360CF3006C79E7E3E30CDB360CF30C8
:1003F0000CC6F6603330D9B660CF33CFCCF660612F
:10040000B0DB1E60CF30D86CE6C061B0DB1E618F00
:1004100019986CC6C063B19B0E330F0FB078C6FF3E
:100420007E1F1B061E0F6C034603360318030A03C8
:10043000E402D402AE02A0027A026A02440232024C
:100440000C02FA01E401D201BC01AA0194013E01AF
:1004500020011001F800401E1E3FE0780000070058
:100460003EFFF8F800001C007EF8F9F8C0003F00DD
:10047000FEF8FBF873803F00DEF8FB78483F1C0075
:100480001EF8F878738C073F1EF8F878C01E000C31
:100490001EF8F878001E001E1EFFF878000C001EE3
:1004A0001E7FF078003F000C000000000000003FBD
:1004B0000000600000C0C0000000600000C000003C
:1004C000001EF3CF9EF8DF1E0030606E30CCD9B036
:1004D0000030606C30CCD9B0001C63EC1CCCD99CD3
:1004E0000006666C06CCD9860006666C06CCD986FA
:1004F000003C33EC3CCCDF3C000000000000180066
:1005000000000000000018000000000000000000D3
:10051000000000000004000400000000700400045B
:10052000000015542775467600001DDC45554564CE
:1005300000001DDD7775D577000000000010000079
:10054000000000000070000020202000050202BE14
:10055000915A7D8C7D82011112C80A0202BE915A05
:1005600073647382011213C8320300BE915A6896F5
:100570005E7801131332140300BE915A7C647278C2
:1005800001121232320300BE915A91647364021058
:1005900013280A0300BE915A916473640210132851
:1005A000320202BE915A868C8478011414320202FF
:1005B00002BE915A6E647078011010321E0300BEA4
:1005C000915A736E737801111132020300BE915A71
:1005D0008186817801131332320300BE915A8278EA
:1005E0007264030F1419140300BE915A8278726466
:1005F000030F14193C0202C3AF916EB4466402109B
:100600001432140202C3AF91823CAA640210142D6A
:100610000A0202C3AF916EB446640211133214028F
:1006200002C3AF91823CAA640211132D320300BEB3
:10063000915A7278726402111314140300BE915A15
:100640007278726402111314220300BE915A788CDE
:10065000875A031117280F0300BE915A788C875AC6
:10066000031117280F0300BE915A788C875A031183
:1006700017281E0300BE915A6E917C5A0211131E58
:100680000F0300BE915A8C5F735A0211131E500261
:1006900002C8AF7D78A5555A040F15280A0202C872
:1006A000AF7D78A5555A041014280A0202C8AF7D00
:1006B00078A5555A04101428460701BEAA5A827814
:1006C0007378060F1519460300BE915A676C625085
:1006D000020E101E0A0300BE915A676C6250020E91
:1006E000101E020300BE915A88838D500214161EFC
:1006F0000A0300BE915A88838D500216141E3C02D4
:1007000002BEA5787D509650020F1514080202BE55
:10071000A5787D50965001111128080202BEA578D7
:100720007D50965001101028080202BEA5787D5019
:100730009650020F1514080202BEA5787D509650FF
:1007400001111128080202BEA5787D5096500110B3
:100750001028280202BEA57873A05050030F151967
:100760000A0202BEA57873A05050031014190A02A1
:1007700002BEA57873A05050031014190A0202BEDD
:10078000A57873A05050030F1519280300BE915A85
:1007900078646E5A030D13190F0300BE915A7864E2
:1007A0006E5A030D13190F0300BE915A78646E5AE6
:1007B000030D13193C0202BE915A735F6E46020E7E
:1007C0001028010202BE915A7D9182460214162819
:1007D0001E0202BE915A735F6E46020E102801027D
:1007E00002BE915A7D91824602141628500501BE20
:1007F000AA5A6E78696E040E1623050501BEAA5A20
:100800008278876E040E1623500300C3A55F788C90
:100810008250031317280F0300C3A55F788C825002
:10082000031317280F0300C3A55F788C82500311B0
:1008300015280A0300C3A55F78646E50030D1128C4
:100840000F0300C3A55F78646E50030D11280F03DA
:1008500000C3A55F78646E5A030F1328280202BEF6
:10086000915A87878B6E02101419020202BE915AA8
:100870007D7D7F6E02101419020202BE915A7373BD
:10088000716E02101419020202BE915A6969656EF6
:1008900002101419140202BE915A8282806E021054
:1008A0001419020202BE915A7878786E0210141957
:1008B000020202BE915A6E6E706E02101419460743
:1008C00001BEAA5A82787378060F1519320300BE4A
:1008D000A55A788C8250031317280F0300BEA55A1F
:1008E000788C8250031317280F0300BEA55A788C0A
:1008F0008250031115280A0300BEA55A78646E5071
:10090000030D11280F0300BEA55A78646E50030D25
:1009100011280F0300BEA55A78646E5A030F1328DE
:10092000500202C3AF916EAA4646030F151414027B
:1009300002C3AF918246AA46030F150F0A0202C3F3
:10094000AF916EAA464603101414140202C3AF916D
:100950008246AA46030F150F140300BE915A6E91EA
:100960007C5A0210140F0A0300BE915A8C5F735A0E
:100970000210140F460501BEAA5A6E78696E040E65
:100980001623050501BEAA5A8278876E040E162327
:100990001E0701BEAA5A78787850060F151964020E
:1009A00002BE915A765D7150030D1128010202BEFC
:1009B000915A7D96825003131728140202BE915A51
:1009C000765D7150030D1128010202BE915A7D9689
:1009D000825003131728140202BE915A765D71509B
:1009E000030D1128010202BE915A7D968250031315
:1009F00017283C0300BE915A828C808C0314161970
:100A0000020300BE915A6E64708C03100E190A0323
:100A100000BE915A736E738C03110F19020300BE4E
:100A2000915A7D827D8C031315195A0501BEAA5A6D
:100A300082787364040F151E140300BEA55A788CC7
:100A40008250031317280A0300BEA55A788C8250DF
:100A5000031317280A0300BEA55A788C825003118D
:100A600015280A0300BEA55A78646E50030D11289C
:100A70000A0300BEA55A78646E50030D11280A03BC
:100A800000BEA55A78646E5A030F1328640701BE8E
:100A9000AA5A6E786978030E1619050701BEAA5A7C
:100AA00082788778030E16190A0501BEAA5A6E7855
:100AB0006982040C1819050501BEAA5A827887823A
:100AC000040C1819781E03C2BCB27A7A7A14000C8E
:100AD00018FF4580518841823805000005804D8807
:100AE000C181500200000580C18108010000080694
:100AF000FC30787830FC100D20007FE02FC007809C
:100B000033001F80F9801F80330007802FC07FE0F3
:100B1000200008061C70FCFC701C080618FC383805
:100B2000FC18050068013801000005003801680163
:100B300000000A0A153A49676E6F7265006D560A21
:100B40000A504C45415345205455524E204F46467D
:100B500020004C4F57204241545445525921200007
:100B600003053F213F1208120A100A0E1C0E0C1E2C
:100B70000C141A14161F161E131E1E1B1E1E1F1EDB
:100B80003F213F3A2F3A173D173F213F181F0204DC
:100B90000A041F0E04040E1F0A1F0A0E0E1F041162
:100BA0000E2E252E2F2A2E262929021F02081F0865
:100BB000150E04040E150E15151B151B0406040452
:100BC0000C040000000017000300031F0A1F163763
:100BD0001A1904130A153A000300000E11110E0031
:100BE0000A040A040E040030000404040010001873
:100BF00004031F111F121F101D151711151F0704C5
:100C00001F17151D1F151D01011F1F151F17151F6C
:100C1000000A00003200040A110A0A0A110A04013B
:100C200015020E11171E051E1F150A0E110A1F119F
:100C30000E1F15111F05010E111D1F041F111F117D
:100C400008100F1F041B1F10101F061F1E040F0E7D
:100C5000110E1F09060E112E1F051A121509011F6C
:100C6000011F101F0F180F1F0C1F1B041B031C0359
:100C7000191513001F11030418111F00020102208F
:100C800020200001020C121E1F120C0C12120C125A
:100C90001F0C1A14041E05242A1E1F021C141D10EA
:100CA00020201D1F0814111F101E041E1E021C0CE4
:100CB000120C3E0A040C123E1E040214160A020F05
:100CC000120E101E0E100E1E081E120C1226281ECA
:100CD000322A26041E21001F00211E040102013FAA
:100CE000213FF6E8DBCFC3B8AEA49B928A827B7427
:100CF0006E68625C57524E4945413E3A3734312E58
:100D00002C29272523211F1D1C1A1917161514130A
:100D10001211100F0E0D0C0B0A09080706172B15E0
:100D20002010204C4F4144455200172B162013141D
:100D3000000A4E6F2053442063617264206F720A70
:100D40006E6F204C4F414445522E4845580A0A15B3
:100D50003A45786974001D20466C617368696E6756
:100D60000A20206C6F616465722E2E2E0A0A444F91
:100D70004E2754205455524E204F464621000580A0
:100D800041814C0154010000450068010000000051
:100D900000002300260029000404040404040404C1
:100DA0000202020202020303030303030102040816
:100DB00010204080010204081020010204081020C5
:100DC000000000080002010000030407000000000A
:100DD000000000000801C000C12D11241FBECFEF8C
:100DE000D8E0DEBFCDBF12E0A0E0B1E0EAEEF8E669
:100DF00002C005900D92AA32B107D9F727E0AAE206
:100E0000B2E001C01D92AF3AB207E1F716E0CDEEB5
:100E1000D6E004C02197FE010E947E33CC3ED1076C
:100E2000C9F70E947C1F0C9473340C94000080E07E
:100E300090E008952F923F924F925F926F927F922F
:100E40008F929F92AF92BF92CF92DF92EF92FF92DA
:100E50000F931F93CF93DF93CDB7DEB72C970FB6C9
:100E6000F894DEBF0FBECDBF809186048111109231
:100E7000610332EC232E32E0332EF101808188238E
:100E800009F41BC4F1E0F0936103F10184858F5FE5
:100E90008487F481F987F33029F4F1019385981759
:100EA00008F49487F101648570E080E090E00E948E
:100EB000D02F6B017C01F101638570E080E090E050
:100EC0000E94D02F9B01AC01C701B6010E941132D4
:100ED0006D837E838F8398879B01AC0160E070E017
:100EE00080E89FE30E949F316B017C019B01AC0174
:100EF0000E9431304B015C012D813E814F8158852C
:100F0000CA01B9010E94A031A70196010E943130A7
:100F10006B017C012D813E814F815885CA01B90149
:100F20000E94313069837A838B839C83F1016581D0
:100F300070E080E090E00E94D22FA50194010E9411
:100F400031302B013C01F101668170E080E090E0DE
:100F50000E94D22FA70196010E9431309B01AC0163
:100F6000C301B2010E94A0312B013C01F101678154
:100F700070E080E090E00E94D22F29813A814B817D
:100F80005C810E9431309B01AC01C301B2010E941F
:100F9000A0310E948A32162FF1016183608570E0D2
:100FA00080E090E00E94D22FA50194010E94313090
:100FB0004B015C01F101618570E080E090E00E94EE
:100FC000D22FA70196010E9431309B01AC01C501CF
:100FD000B4010E94A0316B017C01F101628570E0D7
:100FE00080E090E00E94D22F29813A814B815C8180
:100FF0000E9431309B01AC01C701B6010E94A031B3
:101000000E948A32F10162839CE9C92EC10E2CE94B
:10101000D22ED60E20E030E040E85FE36D817E8185
:101020008F8198850E94F83287FD31C1F985F330B0
:1010300009F02DC180915A03811109C080915D038F
:1010400090915E03019690935E0380935D032091DF
:101050005C032F5F298320935C0380915B038F5F88
:1010600080935B0360915D0370915E03072E000C1B
:10107000880B990B0E94D22F20E030E040EC50E426
:101080000E9411320E94FD3220E030E040E851E43D
:101090000E94313020E030E048EA51E40E94A03163
:1010A0000E948332D62E39813C3108F46FC0809182
:1010B0008504843108F06AC087ED90E09C878B87B7
:1010C0008D2D0D2C000C990BFC013497FA83E983CC
:1010D000EC2C0C2C000CFF08F4E0EF1AF1089C013A
:1010E0002C5F3F4F3A87298734E13D153CF0EB8573
:1010F000FC85BF01FF0F880B990B0AC068E671E001
:101100002B853C85621B730B072E000C880B990BFB
:101110000E94D22F22E73AE84EE85CE30E94313089
:101120004B015C010E940C3220E030E040EA51E4C7
:101130000E9431300E9483322B013C01C501B40171
:101140000E94FD3220E030E040EA51E40E9431305C
:101150000E9483329B01AC0184E1A2018D151CF039
:1011600069857A8502C069817A81C7010E949C1ACB
:10117000EB85FC853D97FC87EB87EF36F10509F0A1
:10118000B3CF80915C038C5180935C0380915B03AF
:10119000843638F08DEE8D0D853018F4F1E0F09343
:1011A0005A0380915A03882309F471C010925C039A
:1011B00010925B038F5F80935A0369E00E945E3355
:1011C000992341F080915A03833308F460C0109250
:1011D0005A035DC0809185048431A0F720E730E098
:1011E0003A872987ED2C0D2C000CFF088C2D0C2C38
:1011F000000C990BFC013397FA83E98380915A0321
:10120000F9E38F9F812D1124869569857A8523E0E6
:10121000829F600D711D1124072E000C880B990B05
:101220000E94D22F22E73AE84EE85CE30E94313078
:101230004B015C010E940C322B013C01C501B40141
:101240000E94FD3220E030E040EA51E40E9431305B
:101250000E9483324B015C0120E030E040EA51E41F
:10126000C301B2010E9431300E9483329401AB016C
:10127000B70189819A810E949C1A89859A85419635
:101280009A8789878930914009F0B8CF9BCFF101C7
:10129000828981111EC1B480ED2C0D2C000CFF0839
:1012A0002C2D0C2C000C330B3A83298332E0B3161F
:1012B00061F083E0B81609F455C04EEF4D0D6AE9B0
:1012C000610F91E0B91273C029C06AE9610F2AE188
:1012D0003BE04EEF4D0D82E797E00E94D31A00915C
:1012E000820410E02091810430E04AE15BE0B70124
:1012F0006250710989819A8102970E94171C882384
:1013000009F4B3C2809183048111AFC28091850436
:101310008111ABC291E0909383049AC222E13BE039
:1013200082E797E00E94D31A0091820410E0209196
:10133000810430E042E15BE0B701625071098981CC
:101340009A8102970E94171C882309F48EC280910B
:10135000830481118AC280918504811186C2B09272
:10136000830476C267E9610F26EF3AE04AEF4D0D3C
:1013700082E797E00E94D31A0091820410E0209146
:10138000810430E046EF5AE0B70166507109898167
:101390009A8105970E94171C8823C1F180918304CC
:1013A000811134C080918504882331F12FC02EEE45
:1013B0003AE082E797E00E94D31A0091820410E09D
:1013C0002091810430E04EEE5AE0B701625071097D
:1013D00089819A8102970E94171C882309F445C2CB
:1013E00080918304811141C28091850481113DC2A5
:1013F00021E0209383042CC2F1E0F093830440E0C9
:1014000069EE70E087ED96E00E94FE1885E09BEFA4
:1014100006E312E089809A80E4E08E1A9108570171
:10142000A90EB11C97FDBA94F1E0AF1AB108298159
:101430003A812D5F3F4F3A832983E80EF11C3FEF3D
:10144000E31AF30AF10180818823D1F1F801808148
:101450008823B1F1818192816AE070E00E946A3351
:101460009B016815790564F1838194816AE070E0DD
:101470000E946A336A157B051CF189819A81821763
:101480009307F4F0E616F706DCF0F10183811816F5
:101490005CF48150838380917D0490917E04C29698
:1014A00090937E0480937D04F801108221E0F10185
:1014B000228B40E066EE7AE087ED96E00E94FE180F
:1014C000095F1F4F82EC92E08017910709F0BACFB5
:1014D00002C0F101128AF10181898F5F818B9089AD
:1014E000891708F4AAC0118A00E010E02D2D0D2CF8
:1014F000000C330B3A832983EC2C0C2C000CFF08D6
:10150000F1018585282F30E03A87298702171307D4
:101510000CF093C08230E8F0B801012E000C880B6B
:10152000990B0E94D22F4B015C0189859A85019706
:101530009A878987BC01990F880B990B0E94D22F3B
:101540009B01AC01C501B4010E9411324B015C0149
:1015500005C0812C912CA12C8FE3B82EF101678559
:1015600070E080E090E00E94D22F2B013C01A501A9
:10157000940160E070E080E89FE30E949F319B014E
:10158000AC01C301B2010E94313020E030E040E202
:1015900051E40E9431302B013C01F101668570E07D
:1015A00080E090E00E94D22FA50194010E9431308A
:1015B00020E030E040E251E40E9431309B01AC0178
:1015C000C301B2010E94A03122E73AE84EE85CE391
:1015D0000E9431304B015C010E940C322B013C0116
:1015E000C501B4010E94FD3220918504243110F51B
:1015F00020E030E048E851E40E9431300E9483321C
:101600004B015C0120E030E048E851E4C301B20145
:101610000E9431300E9483329401AB0169817A814A
:10162000C7010E949C1A40E06CED7AE087ED96E0DD
:101630000E94FE180F5F1F4F63CFF10183811816C0
:1016400034F16D2D8C2D0E94811A809179048F5F69
:101650008093790440E062ED7AE087ED96E00E94A5
:10166000FE18F101248180917D0490917E04213047
:1016700029F0233031F488519C4F05C088539F4F87
:1016800002C08C599F4F90937E0480937D04F1019A
:101690008381181684F420E030E040E85FE36D8138
:1016A0007E818F8198850E94F832181634F4F101FA
:1016B0008481833011F0F1011082F3E12F0E311C8F
:1016C0002AE533E02215330509F0D7CB40917504A4
:1016D00050917604209173043091740460917104E8
:1016E000109186047FEF421753070CF492C06536C1
:1016F00008F08FC0112309F48CC0A0E083E18A9F19
:10170000F0011124EE53FD4F8081882311F0AF5F6B
:10171000F5CFA83008F0A0E093E19A9FD001112402
:10172000AE53BD4FE1E0EC9311967C931197129666
:101730007C9312971C961C921C9751961C92519761
:10174000FEE06F9FC0011124FC01E35BFA4FE491BE
:101750001396EC931397FC01E25BFA4FE491149615
:10176000EC931497FC01E15BFA4FE4911596EC932E
:101770001597FC01E05BFA4FE4911696EC931697EF
:10178000FC01EF5AFA4FE4911796EC931797FC017E
:10179000EE5AFA4FE4911896EC931897FC01ED5A23
:1017A000FA4FE4911996EC931997FC01EC5AFA4F11
:1017B000E4911A96EC931A97FC01EB5AFA4FE491D4
:1017C0001B96EC931B97FC01EA5AFA4FE4911D9685
:1017D000EC931D97FC01E95AFA4FE4911E96EC93A5
:1017E0001E97FC01E85AFA4FE4911F96EC931F975D
:1017F000FC01E75AFA4FE4915096EC936F5F8EE04C
:10180000689FF0011124E45BFA4FE4912E0F311D23
:101810006ACF3093740420937304609371042C9600
:101820000FB6F894DEBF0FBECDBFDF91CF911F91F1
:101830000F91FF90EF90DF90CF90BF90AF909F906F
:101840008F907F906F905F904F903F902F90089572
:1018500040E069EE70E087ED96E00E94FE18F1012D
:1018600010826D2D8C2D0E94811A83E09EEFD0CDC9
:101870008F929F92AF92BF92CF92DF92EF92FF92A0
:101880000F931F93CF93DF938111C6C0809194076C
:10189000882309F4C1C081E080937A071092790708
:1018A000109278071092CA0680939207809393074C
:1018B000C8E4D5E01CE00E94900F8823E1F3FE010C
:1018C0008491882319F00091770701C000E026EB8E
:1018D00033E040E060E082E797E00E94D31A4CE0FA
:1018E000400F26E534E060E082E797E00E94D31ADB
:1018F00010927B0710937C0788E495E00E94591DA5
:1019000080917607982F990F890F81958D5A809332
:101910007B0780917707982F990F890F8195835DB9
:1019200080937C078091950784FF03C082EB93E04E
:1019300002C08EEA93E00E943C1F80917607982FA8
:10194000990F890F81958D5A80937B0780917C0731
:101950008F5F80937C078091E806882319F08AEADC
:1019600093E002C086EA93E00E943C1F80917607D4
:10197000982F990F890F81958D5A80937B078091BD
:101980007C078F5F80937C0782EA93E00E943C1F74
:101990008091C8068130B1F48091E8068F5F609134
:1019A000E90687FD09C0082E000C990B70E06F5FF7
:1019B0007F4F0E946A33682F6093E80687ED96E0B8
:1019C0000E942D198091C7068130B9F0809194074B
:1019D000482F50E060E070E0C0909507D0909607E7
:1019E000E0909707F0909807C416D506E606F7062C
:1019F00008F424C18F3F09F421C18FEF809394072D
:101A000060E087ED96E00E94D01887ED96E00E9496
:101A10007F1481E08093CA0680E090E00E94EF305E
:101A2000C82FD0E0D0937C04C0937B0481E090E089
:101A30000E94EF3090E0982F8827C80FD91FC13639
:101A4000FAEEDF0728F4D0937C04C0937B0404C033
:101A500010927C0410927B0486E294E09093F90645
:101A60008093F8069093FB068093FA0681E00E942B
:101A7000F21C1092F30684E791E09093ED068093B8
:101A8000EC06C1E0C093D80682E00E94F21C1092DE
:101A9000F40684E591E09093EF068093EE06C09300
:101AA000D906C090CC06D090CD06C094D094E12C3D
:101AB000F12C0E943B174B015C010E943B17A501D2
:101AC000940120953095409550956095709580953E
:101AD00090950E944E339B01AC01C701B6010E9454
:101AE0004E336B017C016091B3067091B4064B01DB
:101AF000A12CB12C0E943B17DC01CB01880D991D54
:101B0000AA1DBB1DBC01CD016C0D7D1D8E1D9F1D31
:101B1000611571058105910511F00E94862F1092C3
:101B2000CA068AE08093810488E18093820482E37C
:101B30008093850483E0809386041092830410923E
:101B40008704109288041092760410927504109203
:101B50007E0410927D041092600310925F03109235
:101B6000790410928B041092780410926103109201
:101B70005E0310925D0310925C0310925B0310925F
:101B80005A0381E0809377041092720410926F04DC
:101B9000109270041092800410927F0410927A04C4
:101BA000E6E3F2E082EC92E0108237968E179F0710
:101BB000D9F7E2ECF2E08AE593E0108273968E1793
:101BC0009F07D9F7E2E6F3E01082379684E0E73525
:101BD000F807D1F710922A0210922E0210923202C8
:101BE00010927104ECE4F5E0E491F0E0F0937404F9
:101BF000E093730407E514E0C4E68AE0882E912C94
:101C0000A12CB12C90E3C92ED12CE12CF12C0E94F7
:101C1000382FA50194010E9405316C0FF8016083F3
:101C20000E94382FA70196010E940531F8016183B7
:101C3000C95F0E5F1F4FC83B51F708C08091C906AE
:101C4000813009F038CE0E94140F35CEDF91CF914C
:101C50001F910F91FF90EF90DF90CF90BF90AF90CA
:101C60009F908F900895FC01643508F053C0403375
:101C700008F050C090A1742F759575957595262F15
:101C8000062E000C330B542F57709230A1F4F9013B
:101C900084E57802E00DF11D1124EE54FB4F8081A4
:101CA00090E0052E02C0959587950A94E2F78095FD
:101CB000982F91700AC0933041F484858170462733
:101CC00040954170841303C014C0911112C084E583
:101CD0007802200D311D1124F901EE54FB4F81E0F3
:101CE00090E001C0880F5A95EAF78095908189238A
:101CF00010C084E57802200D311D1124F901EE5445
:101D0000FB4F81E090E001C0880F5A95EAF790817F
:101D1000892B808308958F929F92AF92BF92CF922A
:101D2000DF92EF92FF920F931F93CF93DF93CDB784
:101D3000DEB7A8970FB6F894DEBF0FBECDBF942EC6
:101D4000822E21E020937A071CA21BA21EA21DA2B4
:101D500018A61FA22AE0AE014F5F5F4F7A010E94D2
:101D60008F2FF70101900020E9F73197AF014E194D
:101D70005F09B701CE0183960E94911510E08FA1F3
:101D800098A58017910768F56EE172E0C7010E947F
:101D9000CE158FA198A5ABA0BCA0A114B10409F4E5
:101DA0003FC00097A9F0CD80DE80C80ED91EB601D5
:101DB000C7010E945815882399F129813A818D81A4
:101DC0009E81B501820F931F0E946C34DE82CD820A
:101DD000B701CE0183960E94B215C7010E94C915B2
:101DE000CECF90927B0780927C07CE0183960E9493
:101DF000CA1ACE0183960E94C915A8960FB6F89408
:101E0000DEBF0FBECDBFDF91CF911F910F91FF902D
:101E1000EF90DF90CF90BF90AF909F908F900895FC
:101E2000C7010E947F15D4CF88EF91E0E2EBF4E088
:101E3000DF019C011D9221503040E1F710927B0799
:101E400010927C0786E59DE00E94591D0E941E1D90
:101E50008CB583608CBD8DB58E7F8DBD80E292E0A8
:101E6000EEEFFFE309951092780781E39DE00E9471
:101E70003C1F0E941E1D0E94F11E8091C7068130EA
:101E800039F062E370E080E090E00E946017F3CFE9
:101E90000895CF93C091D6068C2F8F71E1F583E41E
:101EA00080937C0080917A00806480937A00809196
:101EB0007A0086FDFCCF609178008091790070E017
:101EC000782B072E000C880B990B0E94D22F26EE40
:101ED0003FE34EEC50E40E9431300E948A329B0175
:101EE0007093CD066093CC06672B91F084E08093CD
:101EF000CB06EEECF6E080E04191519124173507D6
:101F000018F48093CB060AC08F5F8430A9F703C012
:101F10008FEF8093CB06CF5FC093D606CF91089505
:101F20002F923F924F925F926F927F928F929F92E9
:101F3000AF92BF92CF92DF92EF92FF920F931F93D7
:101F4000CF93DF93CDB7DEB72E970FB6F894DEBFF1
:101F50000FBECDBF4091A4075091A5076091A60781
:101F60007091A7072FB7F8948091A5049091A604CB
:101F7000A091A704B091A8042FBF481B590B6A0B6E
:101F80007B0B8091A30790E0A0E0B0E000919F0759
:101F90001091A0072091A1073091A20784179507FF
:101FA000A607B70730F4011511052105310509F021
:101FB00021C4012B022B032B09F01AC48091C906FE
:101FC00081508E3F18F58091C8068130F9F48091D8
:101FD000E8068F5F6091E90687FD09C0082E000CB6
:101FE000990B70E06F5F7F4F0E946A33682F609398
:101FF000E8068AE29DE09093A9078093A80788E409
:102000008093AA0787ED96E00E942D198091C9065A
:1020100081508E3F70F48091C706813009F050C422
:102020008DE19DE09093A9078093A80788E48093B1
:10203000AA0780E00E946D1E81E00E946D1E82E072
:102040000E946D1E83E00E946D1E22EB36E03887F1
:102050002F83B1EACB2EB4E0DB2E06E117E082E05D
:10206000E82E87E0F82E59013E872D87512C442415
:102070004394AD85BE8599968C919997882309F4F0
:10208000EDC04D01B0E78B0E911CF40180818111F0
:10209000E5C0D7018D919C91D801ED91FC91EE0F97
:1020A000FF1FE80FF91F259134912115310521F506
:1020B000ED85FE85E05AFF4F2081222329F0F801AB
:1020C00011821082FC0116C0AD85BE8599961C92C6
:1020D000999795968C918823C1F1852D0E946D1E4C
:1020E000D801ED91FC91EE0FFF1FD7018D919C91CE
:1020F000E80FF91F25913491ED85FE85E058FF4FDB
:10210000FE83ED838D859E858C579F4F9A838983AF
:10211000AD85BE85A857BF4FBC83AB83ED85FE85DB
:10212000E457FF4FFA87E9878D859E8580579F4F3B
:102130009C878B872D843E8494E9290E311C6D8405
:102140007E84A4E76A0E711C2DC0652D87ED96E094
:102150000E94A71883C0C90156E0969587955A95A5
:10216000E1F78F71932F96959695969590514F70B4
:102170004230A1F128F541111DC08B3008F08AE0F2
:10218000F3018083D801ED91FC9111973196ED9385
:10219000FC93EE0FFF1FD7018D919C91E80FF91F63
:1021A00025913491A901569547955695479520FD5F
:1021B000D2CF2BC0413031F7652D0E94B61EE2CF41
:1021C0004330B9F04430F1F62091E706289F802D86
:1021D0001124AB85BC858C93F10115C02091E706D5
:1021E000289F802D1124AD81BE818C93E981FA81D5
:1021F0000AC02091E706289F802D1124AB81BC8165
:102200008C93E985FA859083BDCFED85FE85E459F1
:10221000FF4F4F7340838091E706839F802D1124E9
:10222000F4018083ED85FE85E055FF4F1082F501B6
:10223000E855FF4F11821082ED85FE85E858FF4F6B
:102240004082D6014C92ED85FE85E458FF4F108206
:10225000F8018081918101969183808353942D852B
:102260003E852F5F3F4F3E872D8732E0A30EB11C86
:102270008FEFC81AD80A0E5F1F4F92E0E90EF11CCB
:10228000A4E05A12F6CEA9E9AA2EA4E0BA2EB5E926
:10229000CB2EB4E0DB2E11E9612E14E0712E02E6A4
:1022A00017E08AE5E82E87E0F82E9DE9492E94E0B4
:1022B000592EE2EBF6E0FA83E983312CE981FA81C9
:1022C000E858FF4F8081882309F42EC1E981FA8103
:1022D000E059FF4F8081811106C0632D87ED96E0A4
:1022E0000E94A71821C181508083D8018C91E98177
:1022F000FA81EC54FF4FFE83ED8329813A81285403
:102300003F4F490181114EC0D7018D919C9101969B
:102310009C01220F331FEF81F885E856FF4F019093
:10232000F081E02DE20FF31F45915491242F277087
:10233000ED81FE812083BA01E3E076956795EA9509
:10234000E1F79B0136952795352F36953695D401C3
:102350003C932F733091E706239F202D1124F80121
:1023600020836170D2016C93F70191838083E981AE
:10237000FA81E056FF4F208130E08217930790F0FA
:10238000E981FA81EC55FF4F8081882331F0281BC9
:102390003109D7012D933C9305C0632D87ED96E05D
:1023A0000E94A718F801808181508083E981FA8119
:1023B000E458FF4F808121E0280F2083E981FA81D2
:1023C000E459FF4F4081D4013C91340FE981FA81F7
:1023D000E45BFF4F8081380FE981FA8135A7E85728
:1023E000FF4F6081662399F070E0822F022E000C6F
:1023F000990B0E946A33E981FA81E457FF4F80818B
:10240000869F300D1124A981BA819D963C93E98164
:10241000FA8185A590E0CB966BE370E00E946A3369
:1024200085A7EC58FF4F3081A981BA81D1963C93A2
:10243000D197FD01E058FF4F60816623A1F0062E81
:10244000000C770B822F022E000C990B0E946A332E
:10245000E981FA81EC57FF4F8081869F300D11246E
:10246000E981FA8131ABE981FA81E057FF4F608160
:102470006623D1F0822F220F990B70E00E946A33FD
:10248000CB0162E070E00E946A33E981FA81EC5688
:10249000FF4F2081A981BA81D1969C91D197289F25
:1024A000900D1124D1969C93E981FA814F3359F014
:1024B00081A98A300CF089E087FD80E0A981BA818A
:1024C000D1968C9301C011AAF894A981BA819D96E6
:1024D000EC91F0E0EE51F34FE491D501EC93E981FA
:1024E000FA8131A9E454FF4F2081AD81BE814C9126
:1024F0003203900111244203C001439F900D112427
:102500000090E80602C0880F991F0A94E2F797FF2F
:1025100002C081589F4F880F892F881F990BF601A1
:102520008083D3018C9378943394E981FA81319636
:10253000FA83E983FFEFAF1ABF0A2FEFC21AD20A5C
:102540003FEF631A730A0F5F1F4F82E0E80EF11C22
:10255000AF81B8851296B887AF83BFEF4B1A5B0A7D
:10256000E4E03E12ABCE8091AA07882309F485C02F
:102570008C3020F4FCE0F81BF98301C01982FF24A1
:10258000F394F0927A071092920710929307209199
:1025900077072B831981121B022F0D5F4DE2410F2C
:1025A0002EE463E082E797E00E944E193B813450AD
:1025B0003B83105D232F41E0612F80E50E94111EB7
:1025C0002B8142E0612F83E00E94111EF09292075E
:1025D000F0929307009177071981101B8DE2810F0C
:1025E0008B832EE4482F63E082E797E00E94321944
:1025F00083E0800F9B81980F9B83492F41502EE4ED
:1026000063E082E797E00E9432190350105D402F8B
:10261000612F80E00E94F91D402F612F83E50E9409
:10262000F91D41E0612F83E00E947A1D42E0612F95
:1026300080E50E947A1DAB81A450AB8344E06A2FF1
:1026400080E50E947A1D48E06B8183E00E947A1D3C
:1026500084E080937B0780917707B981B81BB15DD7
:10266000B0937C078091A8079091A9070E94591DFB
:102670008091AA0781508093AA078091CE069091FD
:10268000CF06892B09F48CC081E0809392071092C9
:1026900093079091760785E5891B80937B071092BD
:1026A0007C076091CB06613009F45BC030F080910B
:1026B000CA06653008F06DC068C01982698187ED6F
:1026C00096E00E94D018E981EF5FE983E430B1F72A
:1026D00081E080937A07E0E6FBE0E491EF5FE0932E
:1026E0007607E1E6FBE0E491EF5FE093770782E6AF
:1026F0009BE090939107809390071092CF061092E1
:10270000CE0610927807F8EAF9830E94900F88238A
:10271000E1F382E59BE00E94591D4091CC06509167
:10272000CD0660E070E02AE082E797E00E94FF15A6
:102730008DE39BE00E94591D498142954F7050E006
:1027400060E070E02AE082E797E00E94FF1582E3F4
:102750009BE00E94591D8091C706813009F094C00A
:102760001FC08091950790919607A0919707B0910F
:1027700098078F709927AA27BB270897A105B1054D
:1027800010F467E009C068E707C0882349F06B5F71
:1027900003C0882329F06FE282E797E00E94E315E7
:1027A0000E941E1D8091780781110EC088EF91E074
:1027B000E2EBF4E0DF019C011D9221503040E1F793
:1027C00010927B0710927C070E943B1760939F0733
:1027D0007093A0078093A1079093A20720919B0775
:1027E00030919C07621B730B70939A076093990753
:1027F00080E06CC02FB7F8948091A5049091A60456
:10280000A091A704B091A8042FBF2091A307820F25
:10281000911DA11DB11D8093A4079093A507A093BE
:10282000A607B093A7078091950790919607A0916E
:102830009707B09198070196A11DB11D8093950748
:1028400090939607A0939707B093980710929F07CD
:102850001092A0071092A1071092A2070E943B17A6
:1028600060939B0770939C0780939D0790939E07AE
:102870000E94F11E8091CE069091CF06892B11F017
:102880000E94490F81E022C03981315039833111D2
:102890003CCF60E070E08FEF0E94DC1683B7817F51
:1028A000846083BF83B7816083BF83B7816083BF48
:1028B000889583B78E7F83BF83B78E7F83BF25CFF5
:1028C000893209F0B6CB0E94140FB3CB2E960FB607
:1028D000F894DEBF0FBECDBFDF91CF911F910F9156
:1028E000FF90EF90DF90CF90BF90AF909F908F9030
:1028F0007F906F905F904F903F902F90089540E0B1
:102900006AE27BE00C94FE1840E062E27BE087ED37
:1029100096E00C94FE180F931F93CF93DF938C01D6
:10292000EB01FC01808191810097B1F06881798190
:102930006115710579F0428153812C813D814217E7
:10294000530740F00E946C348C819D81F80195837F
:10295000848313C00E94642E88819981F801918339
:1029600080838A819B81938382838C819D819583DF
:102970008483198218821B821A821D821C82DF9135
:10298000CF911F910F910895CF92DF92EF92FF9216
:102990000F931F93CF93DF938C017B016A0169E250
:1029A00072E00E94CE15D70114968D919C911597D7
:1029B000009739F1E6018C159D0508F4EC01D7016B
:1029C000ED91FC911197EC0FFD1FD08010826D915D
:1029D0007C916115710561F0FB0101900020E9F720
:1029E0003197AF01461B570BC8010E94911503C0D8
:1029F000C8010E947F15F70180819181C80FD91FFE
:102A0000D882C801DF91CF911F910F91FF90EF9075
:102A1000DF90CF9008950895CF92DF92EF92FF92CA
:102A20000F931F93CF93DF936C017A018B01C0E06A
:102A3000D0E0CE15DF0581F0D8016D918D01D60172
:102A4000ED91FC910190F081E02DC6010995892B53
:102A500011F02196EECF7E01C701DF91CF911F913A
:102A60000F91FF90EF90DF90CF9008958091A10497
:102A7000882319F08091910401C080E09091A20414
:102A8000992319F090919204890F9091A3049923AE
:102A900019F090919304890F9091A404992319F04F
:102AA00090919404890F8093B40008950E945E343D
:102AB0000F931F93CF93DF93EC0188819981009747
:102AC00029F02A813B812617370788F48B016F5F35
:102AD0007F4F0E949833009761F0998388831B830E
:102AE0000A832C813D81232B11F4FC01108281E0AB
:102AF00001C080E0DF91CF911F910F910895CF9396
:102B0000DF93EC0188819981009711F00E94642E77
:102B1000198218821D821C821B821A82DF91CF913A
:102B20000895EF92FF920F931F93CF93DF93EC01E1
:102B30007B018A01BA010E945815811104C0CE019F
:102B40000E947F1507C01D830C83B701888199817E
:102B50000E946C34CE01DF91CF911F910F91FF90B5
:102B6000EF900895CF93DF93EC01FB018617970751
:102B700061F0608171816115710529F04481558191
:102B80000E94911502C00E947F15CE01DF91CF9166
:102B90000895FC01808191810C94642EFC011182C6
:102BA000108213821282158214826115710551F010
:102BB000FB0101900020E9F73197AF01461B570B4D
:102BC0000C9491150895DC01ED91FC910190F08138
:102BD000E02D09946115710579F0FB010190002049
:102BE000E9F73197AF01461B570BDC01ED91FC91E2
:102BF0000280F381E02D099480E090E008958F92A7
:102C00009F92AF92BF92EF92FF920F931F93CF9339
:102C1000DF93CDB7DEB7A1970FB6F894DEBF0FBE36
:102C2000CDBF7C01FA01CB0119A2223008F42AE0C1
:102C30008E010F5D1F4F822E912CA12CB12CBF0154
:102C4000A50194010E946E31F901CA0101501109D8
:102C50006A3014F4605D01C0695CD8016C93232B69
:102C6000242B252B61F7B801C7010E94EA15A19614
:102C70000FB6F894DEBF0FBECDBFDF91CF911F918D
:102C80000F91FF90EF90BF90AF909F908F9008951D
:102C9000833081F028F4813099F08230A1F00895DA
:102CA0008730A9F08830B9F08430D1F48091800069
:102CB0008F7D03C0809180008F778093800008957E
:102CC00084B58F7702C084B58F7D84BD08958091CF
:102CD000B0008F7703C08091B0008F7D8093B000EB
:102CE00008951F93CF93DF93282F30E0F901E0542C
:102CF000F24F8491F901E455F24FD491F901E8566D
:102D0000F24FC491CC23C1F0162F81110E944816B6
:102D1000EC2FF0E0EE0FFF1FE055FF4FA591B491AF
:102D20009FB7F894111104C08C91D095D82302C09C
:102D3000EC91DE2BDC939FBFDF91CF911F91089523
:102D4000CF93DF9390E0FC01E455F24F2491FC0116
:102D5000E856F24F8491882361F190E0880F991F23
:102D6000FC01EA55FF4FC591D491FC01E055FF4F9E
:102D7000A591B491611109C09FB7F89488812095FD
:102D800082238883EC912E230BC0623061F49FB7BD
:102D9000F8948881322F309583238883EC912E2BF1
:102DA0002C939FBF06C08FB7F894E8812E2B288301
:102DB0008FBFDF91CF9108951F93CF93DF93182F8B
:102DC000EB0161E00E94A016209711F460E004C0BE
:102DD000CF3FD10539F461E0812FDF91CF911F9171
:102DE0000C947116E12FF0E0E054F24FE491E330DF
:102DF000F9F048F4E130B9F0E230A1F584B5806231
:102E000084BDC8BD34C0E730E9F0E83019F1E430E2
:102E100049F580918000806280938000D0938B0080
:102E2000C0938A0024C084B5806884BDC7BD1FC01C
:102E300080918000806880938000D0938900C09347
:102E4000880015C08091B00080688093B000C09366
:102E5000B3000DC08091B00080628093B000C09339
:102E6000B40005C0C038D1050CF0B5CFAFCFDF91AD
:102E7000CF911F9108953FB7F8948091AE0490913F
:102E8000AF04A091B004B091B10426B5A89B05C0D1
:102E90002F3F19F00196A11DB11D3FBFBA2FA92FD9
:102EA000982F8827820F911DA11DB11DBC01CD0156
:102EB00042E0660F771F881F991F4A95D1F7089542
:102EC0008F929F92AF92BF92CF92DF92EF92FF923A
:102ED0006B017C010E943B174B015C01C114D104C2
:102EE000E104F104F1F00E943B17DC01CB018819E9
:102EF0009909AA09BB09883E9340A105B10570F361
:102F000021E0C21AD108E108F10888EE880E83E0BA
:102F1000981EA11CB11CC114D104E104F10419F7DD
:102F2000DDCFFF90EF90DF90CF90BF90AF909F905C
:102F30008F9008951F920F920FB60F9211242F9326
:102F40003F938F939F93AF93BF938091A5049091EC
:102F5000A604A091A704B091A8043091AD0423E089
:102F6000230F2D3720F40196A11DB11D05C026E8C1
:102F7000230F0296A11DB11D2093AD048093A504DB
:102F80009093A604A093A704B093A8048091AE04E4
:102F90009091AF04A091B004B091B1040196A11D2D
:102FA000B11D8093AE049093AF04A093B004B0938E
:102FB000B104BF91AF919F918F913F912F910F904D
:102FC0000FBE0F901F9018951F920F920FB60F9281
:102FD00011242F933F934F935F936F937F938F931E
:102FE0009F93AF93BF93EF93FF936091950461110B
:102FF00002C080E023C08091A9048F5F8093A90460
:10300000909199048917A8F39091A10481E08927F0
:103010008093A1041092A90480919D04882369F0F3
:103020008091000193E4899F802D1124895B809316
:1030300000010E945E339093910481E060919604B8
:10304000662319F19091AA049F5F9093AA0420919E
:103050009A049217D0F09091A20481E0892780937E
:10306000A2041092AA0480919E04882369F08091A2
:10307000000193E4899F802D1124895B80930001D6
:103080000E945E339093920481E0609197046623DE
:1030900019F19091AB049F5F9093AB0420919B0436
:1030A0009217D0F09091A30481E089278093A30424
:1030B0001092AB0480919F04882369F080910001F5
:1030C00093E4899F802D1124895B809300010E94E5
:1030D0005E339093930481E060919804662319F124
:1030E0009091AC049F5F9093AC0420919C04921744
:1030F000D0F09091A40481E089278093A4041092D9
:10310000AC048091A004882379F08091000193E4BD
:10311000899F802D1124895B809300010E945E337A
:103120009093940401C081110E943615FF91EF9194
:10313000BF91AF919F918F917F916F915F914F91CF
:103140003F912F910F900FBE0F901F9018956430F4
:1031500030F570E09C01260F371FF901ED5AFF4F43
:10316000108238971082AB01440F551FFC01E40F09
:10317000F51FED57FF4F11821082F901E95AFF4FF9
:103180001082FB01EF56FB4F1082FB01EB56FB4F09
:103190001082FB01EF55FB4F10820C9436150895F9
:1031A000CF93DF93643038F5FC0170E0EC01C60F7B
:1031B000D71FDE01AD5ABF4F1C9218971C929B017E
:1031C000220F331FE20FF31FED57FF4F11821082C2
:1031D000FE01E95AFF4F1082FB01EF56FB4F1082B0
:1031E000FB01EB56FB4F1082FB01EF55FB4F1082AA
:1031F0000E9436151C82DF91CF910895EF92FF92C5
:103200000F931F93CF938C017B01C42F642F0E94D7
:10321000D018EC2FF0E0DF01AA0FBB1FA00FB11FE9
:103220009C96FC92EE929B97DF961D921C92E00F6B
:10323000F11F81E08483DF01A15BBF4F89E08C93A4
:103240001C961C9218961C92E559FF4F1082CF9144
:103250001F910F91FF90EF90089540E068E87DE0A6
:103260000C94FE18EF92FF920F931F93CF93DF936E
:103270008C01F62ED42FE22EC0E0CE1544F46F2D33
:103280006C0F4D2FC8010E94330ECF5FF6CFDF9138
:10329000CF911F910F91FF90EF900895DF92EF92E1
:1032A000FF920F931F93CF93DF937C01D62FD22EE3
:1032B000C42F002E000C110B040F111D47FD1A9591
:1032C0008C2F0C2E000C990B8017910744F42D2D98
:1032D0004C2F6D2FC7010E943219CF5FF1CFDF91C4
:1032E000CF911F910F91FF90EF90DF9008956F9213
:1032F0007F928F929F92AF92BF92CF92DF92EF9286
:10330000FF920F931F93CF93DF93EC016A3011F478
:103310002885A3C06D3009F4A7C0A98483E58A1568
:103320000CF485C0BA848FE28B150CF480C0D8846D
:103330008C8190E00197D89E9001D99E300D112488
:10334000C9018A0D911DA7FC9A95181619060CF053
:103350006EC02D818B2D0B2C000C990BD29E800DF5
:10336000911D1124181619060CF061C088A09A2C22
:10337000CA2CE62EF12CEC2DEA190E2E000CFF0BB8
:103380008C8190E0E817F9070CF050C00197E8171E
:10339000F90779F0E89E9001E99E300DF89E300D16
:1033A0001124E20FF31F8E8D9F8DE80FF91F1491EA
:1033B00001C010E06B2C7B2C272D2B19022E000C4A
:1033C000330B8D8190E0281739076CF510FF11C081
:1033D00081E0D81206C0472D6C2DCE010E94330E1D
:1033E0001EC00D2D2D2D462D692DCE010E944E198A
:1033F00016C089A198A1891791F088A381E0D812FD
:1034000006C0472D6C2DCE010E94330E07C00D2D36
:103410002D2D462D692DCE010E944E1988A216959C
:1034200073946D0CC9CFC3949D0CA5CF88A2288539
:103430003C818985239F800D112489879F81992351
:1034400099F0082E000C990B44E550E0239F401999
:1034500051091124481759073CF49D818A85299FF9
:10346000800D11248A87198681E090E0DF91CF9149
:103470001F910F91FF90EF90DF90CF90BF90AF9092
:103480009F908F907F906F900895E0E097E09E9FCF
:10349000D0011124AA5CBD4F2C91222311F0EF5FC3
:1034A000F6CFE43108F0E0E097E0E99FF001112465
:1034B000EA5CFD4F91E090832091810430E021503F
:1034C00031099AE0929FD001939FB00D1124B283ED
:1034D000A1832091820430E0241B350B929FA00130
:1034E000939F500D11249A01260F371F3483238395
:1034F0008583668340E06EE77DE087ED96E00C947F
:10350000FE18E0E094E0E99FD0011124A65DBD4FD4
:103510009C91913011F4EF5FF5CFE33008F0E0E0DB
:1035200094E0E99FF0011124E65DFD4F91E0908366
:103530008183628313820895CF93DF93EC01E0E0EF
:1035400087E08E9FD0011124AE59BC4F9C919923E6
:1035500011F0EF5FF6CFE33208F0E0E087E0E89F9C
:10356000F0011124EE59FC4F81E080839AE09C9F8A
:10357000D0019D9FB00D1124B283A183969FD001ED
:10358000979FB00D1124B483A38345832683DF91D5
:10359000CF910895FC01448155816081718182E75A
:1035A00097E00C940C152F923F925F926F927F924E
:1035B0008F929F92AF92BF92CF92DF92EF92FF9243
:1035C0000F931F93CF93DF93EC01F901E4903196B1
:1035D000849164350CF019C10E2C000CFF08062FE5
:1035E000062E000C110BF701E00FF11F1E161F062F
:1035F0000CF00BC140330CF008C1A82FC42E042ED0
:10360000000CDD085601A80EB11C87FDBA941A14EF
:103610001B040CF0FAC02E5F3F4F570197E0A90E34
:10362000B11CB7FE04C05701BEE0AB0EB11CB3E045
:10363000B594A794BA95E1F747FF0AC0A42FA80F45
:10364000AC9CC001AD9C900D1124281B390B40E0AF
:103650008A2F0A2E000C990B840F911D47FD9A9515
:10366000C19714F0A0E3A41BF8A067FD60E0E53566
:10367000F10514F0E4E5F0E09E2FCC85C427C62EBA
:10368000062E000CDD08F601E01BF10B8F014F0147
:10369000F7E08F229924E0E8F0E002C0F595E79585
:1036A0008A94E2F77E2F17FF02C0095F1F4FF3E0F5
:1036B00015950795FA95E1F7200F311F542F577094
:1036C00081E001C0880F5A95EAF7459545954595E3
:1036D000F601B4E54B02E00DF11D1124AF014E548B
:1036E0005B4FD0E02A2EAA0F3308EE24E394BB24CC
:1036F000ED2FF0E0E215F3050CF087C0F9015490CE
:10370000F1E0FF121AC0962E8A01E72F690199167F
:1037100008F072C08E2E852021F0D8018C90882A66
:103720008C92E69531F4BFEFCB1ADB0AF601549088
:10373000E0E893940F5F1F4FEACFF1101CC0782E82
:103740007094962E8A01E72F6901991608F054C0EB
:103750008E2E852021F0D8018C9087208C92E695C2
:1037600031F4BFEFCB1ADB0AF6015490E0E89394F2
:103770000F5F1F4FEACFF3E0FF1629F0962E8A0164
:10378000E72F690137C0682E6094862E8A01972E34
:1037900069018916D8F4E92DE52159F0D801EC9199
:1037A000782C7C2670FE02C0E82B02C0E621D801EE
:1037B000EC93969439F4BFEFCB1ADB0AF6015490E0
:1037C000E0E89E2E83940F5F1F4FE3CFCE2514C0F9
:1037D0008E2E852021F0D8018C9088268C92E6953B
:1037E00031F4BFEFCB1ADB0AF6015490E0E8939472
:1037F0000F5F1F4F991660F3880F19F44C5A5F4FF3
:1038000081E0DF5F2A0D3B1D73CFDF91CF911F91C8
:103810000F91FF90EF90DF90CF90BF90AF909F906F
:103820008F907F906F905F903F902F9008954F9270
:103830005F926F927F928F929F92AF92BF92CF9240
:10384000DF92EF92FF920F931F93CF93DF93FA01D2
:10385000C491D0E03196A491E4ED6E2EEDE07E2E81
:10386000F301B491E5EDFDE0E4914E01880E991E5F
:10387000281539059CF47901EB0EF11C8E159F0576
:103880006CF4B0E05D01A60EB71E0A151B0534F4FA
:103890006801CE0ED11C6C157D0514F080E091C03E
:1038A000821793070CF088C02901481A590A60173B
:1038B000710724F4F801E61BF70B02C0E0E0F0E02A
:1038C0008E149F041CF0E701C81BD90BAC14BD0477
:1038D0001CF0D601A61BB70BDE2E10E8E12EF12C52
:1038E000882E821A962E901A2D2D30E02A173B072B
:1038F000ACF6C42CA92CAD0CB12C8C2D90E08C17FF
:103900009D070CF057C0FA01649170E0695F7F4F2A
:10391000E3E075956795EA95E1F7629F8001639F03
:10392000100D729F100D1124F3E095958795FA956F
:10393000E1F70296F801E80FF91FE40FF51FE49193
:103940008C2D8770B70102C0759567958A95E2F74F
:10395000F0E0E623F723EF2B91F1F301649170E09F
:10396000695F7F4F83E0759567958A95E1F7A69E1D
:10397000C001A79E900DB69E900D1124682D6C0D70
:10398000E62FF0E073E0F595E7957A95E1F7E80F1B
:10399000F91FEA52F24FE4916770C70102C0959592
:1039A00087956A95E2F7F0E0E823F923EF2B39F0E9
:1039B00081E007C0D39498CF412C512C78CFC39489
:1039C0009CCFDF91CF911F910F91FF90EF90DF90EF
:1039D000CF90BF90AF909F908F907F906F905F90AF
:1039E0004F900895843050F4E82FF0E0EE54F94FF2
:1039F00015A2682F87ED96E00C94D0180895CF9308
:103A0000C82FF89460E0809181070E947116809120
:103A1000820718161CF460E00E947116CEBD0000EB
:103A20000DB407FEFDCF8EB58091820718161CF4E9
:103A300061E00E9471167894CF9108950F931F93BF
:103A4000CF9380917E078F5F80937E0702EB14E017
:103A5000C0E08C2F80640E94FF1C80E80E94FF1C45
:103A600061E0809181070E9471168091820718168B
:103A70001CF460E00E947116F80184E591919EBDEE
:103A800000000DB407FEFDCF9EB58150B9F78091BF
:103A9000820718161CF461E00E947116CF5F0C5A61
:103AA0001F4FC630B1F680E4CF911F910F910C9457
:103AB000FF1C0F931F93CF93DF938C01C0E0D0E0E6
:103AC000F801EC0FFD1F6491662371F0E09172071D
:103AD000F09173070190F081E02D82E797E009955E
:103AE000892B11F02196ECCFCE01DF91CF911F9160
:103AF0000F910895AF92BF92CF92DF92EF92FF9213
:103B00000F931F93CF93DF93182F062FC1E0D3E0BD
:103B10008AEFD82E9EEFE92E842F8470C82E842F32
:103B20008270B82E842F8870A82E4170F42E8C2FAE
:103B3000880F8F5FE80ECC2081F0402F4D0F612F52
:103B40006C0F82E797E00E94330E402F4C0F6D2FD1
:103B5000610F82E797E00E94330EBB2081F0402F77
:103B60004D1B612F6C0F82E797E00E94330E402FB0
:103B70004C1B6D2F610F82E797E00E94330EAA2045
:103B800081F0402F4C0F612F6D1B82E797E00E9460
:103B9000330E402F4D0F612F6C1B82E797E00E9480
:103BA000330EF1100AC0CD17CCF4E7FC04C0D1509D
:103BB000D394D394ED0CCF5FBACF402F4C1B612F21
:103BC0006D1B82E797E00E94330E402F4D1B612F43
:103BD0006C1B82E797E00E94330EE5CFDF91CF9117
:103BE0001F910F91FF90EF90DF90CF90BF90AF901B
:103BF00008950F931F93CF93DF93D82F162F042F81
:103C0000C0E0C0174CF4412F4C0F6D2F82E797E0B6
:103C10000E94330ECF5FF5CFDF91CF911F910F91AF
:103C200008959F92AF92BF92CF92DF92EF92FF9250
:103C30000F931F93CF93DF93F82EE62EB22E13E04F
:103C4000120FD0E0C3E08AEFC82E0EEF842F8170F0
:103C5000982EAA24A394A20E4270D42EDF5F812F47
:103C60008B19080F992081F04C2F440F4A0D6E2DAF
:103C70006C1B8D2F8F0D0E94F91D412F6E2D6D1B1A
:103C80008C2F8F0D0E94F91DD1100AC0DC17CCF4C7
:103C900007FD04C0C150C394C3940C0D1E5FDECF5A
:103CA0004C2F440F4A0D6E2D6C1B8F2D8D1B0E94C7
:103CB000F91D412F6E2D6D1B8F2D8C1B0E94F91D40
:103CC000E5CFDF91CF911F910F91FF90EF90DF90A3
:103CD000CF90BF90AF909F900895CF93DF93A82F80
:103CE000B0E0ED01CE54D94F9DA1992309F43BC01A
:103CF00099A5911138C0FE01E05CFF4F9081AA0F99
:103D0000BB1FAE54B94FD8963C91D897D9962C91F9
:103D1000D997E32FF22FE90FF11DE90FF11D25913E
:103D200034912F3F9FEF390711F41DA21CC0FE01F3
:103D3000E45BFF4F30835F963327220F331F959646
:103D4000ED91FC919697E20FF31F65917491843089
:103D500028F4482F87ED96E00E94FE18C05CDF4FE4
:103D600088818F5F8883DF91CF91089570E09B01F8
:103D7000220F331F2E54394FF901F39645A196A116
:103D8000E42FF92FE80FF11DE80FF11D4591549133
:103D9000F901ED58FF4F56A345A3FA01859194917F
:103DA0009091E706989F802D11246E54794FFB0166
:103DB000E056FF4F8083FA01A591B4912B2F30E09C
:103DC000E82FF0E02E173F0720F4FA0125913491F7
:103DD000832FFB01EC55FF4F989F802D112480838A
:103DE0000895DF92EF92FF920F931F93CF93DF938B
:103DF000C2EBD6E009EB16E0EE24EA9462E08A8595
:103E00000E94A0162A8530E0F901E054F24F849117
:103E1000F901E455F24FF490F901E856F24FD490CD
:103E2000DD2071F081110E944816ED2DF0E0EE0FBB
:103E3000FF1FE257F24FA591B491EC91FE2299F445
:103E400089898F5F898B60E08A850E94A016219600
:103E50000C171D0799F6DF91CF911F910F91FF90DD
:103E6000EF90DF9008958989882389F38F3F11F4BB
:103E7000198AE9CFE98AE7CFCF93DF930E94591DD2
:103E8000EC0167E272E082E797E00E94EA158C0F8E
:103E90009D1FDF91CF9108950F931F93CF93DF93D1
:103EA00000D000D000D0CDB7DEB7062F142F1A8275
:103EB00019821C821B821E821D82BC01CE010196CA
:103EC0000E94B21500937B0710937C0781E08093DA
:103ED0007A07CE0101960E94CA1ACE0101960E946D
:103EE000C91526960FB6F894DEBF0FBECDBFDF9181
:103EF000CF911F910F910895CF93DF93CDB7DEB788
:103F00002E970FB6F894DEBF0FBECDBF789484B560
:103F1000826084BD84B5816084BD85B5826085BDC5
:103F200085B5816085BD80916E00816080936E0053
:103F30001092810080918100826080938100809145
:103F400081008160809381008091800081608093F6
:103F500080008091B10084608093B1008091B000B6
:103F600081608093B00080917A00846080937A00B1
:103F700080917A00826080937A0080917A008160DB
:103F800080937A0080917A00806880937A00109202
:103F9000C10082E38093A30781E090E0A0E0B0E05D
:103FA00080939F079093A007A093A107B093A207C7
:103FB0008FEF80939407E0E8F7E725913491213063
:103FC000304C09F049C0E6E9F7E7E491E0937D075A
:103FD000E7E9F7E7E491E093B606E8E9F7E7E4916B
:103FE000E093B706E9E9F7E7859194919093B906D4
:103FF0008093B806EBE9F7E7859194919093BB061F
:104000008093BA0687E08093E906EEE9F7E7E4914A
:10401000E093E806EFE9F7E7E491E0939407E0EA3C
:10402000F7E7859194919093CF068093CE06E2EACC
:10403000F7E7859194919093D1068093D006E4EAB6
:10404000F7E7859194919093D3068093D206E6EAA0
:10405000F7E7859194912CC09CE390937D07109293
:10406000B6068093B70680E293E09093B9068093FA
:10407000B80684ED93E09093BB068093BA0687E080
:104080008093E9068093E8068CEA9DE09093CF0642
:104090008093CE068EED9DE09093D1068093D0065E
:1040A00084E79EE09093D3068093D2068CE39FE052
:1040B0009093D5068093D4066FEF70E08FEF0E9447
:1040C000DC1688E08093BC0689E08093BD0687E01B
:1040D0008093BE0686E08093BF0614E01093C0066E
:1040E00082E08093C10685E08093C2060E94F11EA3
:1040F0008CE39FE09093CD068093CC061093CB0683
:1041000081E08093D6069BE0909380079DE090939A
:104110007F0790E1909381079EE0909383079FE053
:104120009093820780937A07809392071092930767
:1041300080937907E0E6FBE0E491EF5FE093760798
:10414000E1E6FBE0E491EF5FE093770782E69BE036
:1041500090939107809390071FB7F89480918C04F7
:10416000811127C0E2EAFDE08491E6EBFDE0949145
:10417000E82FF0E0EE0FFF1FEA55FF4FA591B49135
:10418000EC91E92321F461E08AE00E94711661E07C
:104190008AE00E94A0168CB580618CBD8CB58064CD
:1041A0008CBD61E08DE00E94A01661E08BE00E9472
:1041B000A01680918C048F5F80938C041FBF8CB5F8
:1041C0008F7D8CBD8CB58C7F81608CBD8DB5816001
:1041D0008DBD8CB58C608CBD61E0809180070E94A4
:1041E000A01661E080917F070E94A01661E0809197
:1041F00081070E94A0168091830718161CF461E0C5
:104200000E94A0168091820718161CF461E00E949B
:10421000A01680918307181674F460E00E9471164E
:104220006AE070E080E090E00E94601761E08091B9
:1042300083070E94711680917F07082E000C990B4E
:10424000FC01E856F24FE491F0E0EE0FFF1FE0555D
:10425000FF4F259134913093870720938607FC0107
:10426000E455F24FE491E0938D0780918007082E8A
:10427000000C990BFC01E856F24FE491F0E0EE0FD0
:10428000FF1FE055FF4F2591349130938507209310
:104290008407FC01E455F24FE491E0938C07809190
:1042A0008207082E000C990BFC01E856F24FE491AE
:1042B000F0E0EE0FFF1FE055FF4F25913491309352
:1042C000890720938807FC01E455F24FE491E093BD
:1042D0008E0780918107082E000C990BFC01E8568F
:1042E000F24FE491F0E0EE0FFF1FE055FF4F2591F4
:1042F000349130938B0720938A07FC01E455F24FE9
:10430000E491E0938F0781E20E94FF1C84E10E9408
:10431000FF1C80917D0787FF03C08FE780937D0797
:1043200080917D0780680E94FF1C80E20E94FF1C34
:104330008CE00E94FF1C0E941E1D81E08093E70616
:104340004EE6C42E47E0D42E5AE0E52E57E0F52E77
:1043500010E001E062EAA62E60E0B62EF6010193BD
:104360006F01F701A192B1927F01612F80E00E945D
:10437000B61E1F5F143091F761E070E083E00E9489
:10438000DC168091B100887F81608093B100F89441
:10439000109280001092810010928500109284008B
:1043A00088E191E09093890080938800809181005A
:1043B000886080938100809181008160809381007A
:1043C00080916F00826080936F0078948091CE0618
:1043D0009091CF06892B11F00E94490F8091C80659
:1043E000813011F00C94AC2C1092E80680E00E9411
:1043F000380C3AE0232E312C0E94900F882311F4C0
:104400000C94A22C80918B0481110C94E12A809150
:10441000D806811123C0809187048A30F8F48091F6
:1044200086048823D9F081E00E94F21C1092F306E2
:1044300084E791E09093ED068093EC0611E01093F1
:10444000D80682E00E94F21C1092F40684E591E006
:104450009093EF068093EE061093D906809178042E
:1044600081110C94CE2AD090770487E594E09E8742
:104470008D872FE6E22E24E0F22E8C01F801808158
:104480008D19843610F080830DC08C5AF80180831A
:104490000E94382F20E330E040E050E00E940531D8
:1044A000F8016183F80160816456418182E797E0F9
:1044B0000E94330E0E5F1F4FE016F106F9F6809151
:1044C0007504909176040F9714F482E001C081E0A6
:1044D000809377040E941A0712E6A12E13E0B12EF2
:1044E00007E5802E04E0902E850177247394F8016F
:1044F0008081882309F460C0709261038581C18046
:10450000D280C80ED11C87FDDA94D282C182868106
:10451000E380F480E80EF11C87FDFA94F482E382D4
:10452000C701B1010E946A334FEF460FC601B101C6
:104530000E946A33615023EF30E082E797E00E94E7
:10454000D31A80918304811125C06091810421E0F8
:10455000260FC60166EF7FEF0E946A33620F643058
:10456000C8F4C70166EF7FEF0E946A33809182042E
:10457000680F62307CF46F3F6CF08091850481118C
:1045800009C07092830440E069EE70E087ED96E028
:104590000E94FE18FDE1CF0ED11C83E8C81683E00F
:1045A000D80640F49DE1E90EF11CEBECEE16E1E0DB
:1045B000FE0610F0F8011082095F1F4F8016910669
:1045C00009F095CFF0908704F9E0FF15F8F080919D
:1045D000C5068150DD24D3948E3F08F0D12C809104
:1045E000C3068150EE24E3948E3F08F0E12C8091C5
:1045F000C406815001E08E3F08F000E08091C606BD
:10460000815011E08E3F58F110E029C08091820462
:10461000883130F411E0843108F010E000E002C08D
:1046200001E010E0809181048C3020F4E12C88308E
:1046300028F002C0EE24E394D12C02C0DD24D394F0
:104640008850843018F48AE0809381048AE0F8125C
:1046500006C081E00E94F21C82E00E94F21C809160
:1046600083048111CEC191E39F1508F45AC0809153
:10467000810490918204DD20A1F0E11024C0112377
:1046800011F09D5F0AC0002351F0292F30E0233044
:10469000310514F0935001C090E0909382048D5F37
:1046A0000FC0E1100C94AC2D0EC001110C94B22D72
:1046B000282F30E02330310514F40C94BE2D8350A4
:1046C0008093810410C0112311F09D5F0AC0002364
:1046D00051F0292F30E02330310514F0935001C000
:1046E00090E09093820480918104823018F482E0FB
:1046F0008093810480918204823018F482E0809358
:10470000820480918104823518F081E580938104D0
:1047100080918204883208F45FC087E2809382042B
:104720005BC00F2D10E0B801012E000C880B990B17
:104730000E94D22F20E030E048E452E40E949F31F2
:1047400020E030E04CE852E40E9411322B013C01A1
:1047500020E030E04AEA52E40E943130A3019201A5
:104760000E94313020E030E040E251E40E94A0316C
:104770002B013C0120E030E048EC52E40E94F8328A
:1047800018162CF0C301B2010E948A3201C064E6FF
:10479000609381046C3070F0E7E7EF1570F0862FBE
:1047A00090E00B97B1010E946A33809177048F5F8C
:1047B000680F10C0F7E7FF1578F485E98F1548F00A
:1047C000C801885791096BEF7FEF0E946A336B5FD6
:1047D00001C060E060937704109185041431C0F14A
:1047E00085E180938204612F70E080E090E00E9478
:1047F000D02F20E030E040EF51E40E949F3120E0D4
:1048000030E040E751E40E9411329B01AC010E946C
:10481000313020E030E040EF51E40E9431309B0124
:10482000AC0160E070E088EC91E40E949F310E944E
:104830008A3260938104143310F00C94CA2CE2E69F
:10484000F3E0108237968E169F06D9F70C94CA2C87
:1048500011110C94CA2CF0908504F0FE0DC08091CB
:104860008604833029F01092890410928A0441C092
:10487000809180048111F7CF109181041250009132
:104880008204025093E19F1528F0809187048035BF
:10489000B8F41CC08F2D90E0449787709927823020
:1048A000910514F00C94D12C22EE30E0402F612FB2
:1048B00082E797E00E94D31A80918704803598F2AE
:1048C00090E087709927823091051CF422EE30E049
:1048D00008C00497029718F42BED30E002C024EDD5
:1048E00030E0402F612F82E797E00E94D31AF11049
:1048F000BACF809189048E3171F48091C7068150BE
:104900008E3F48F4809187048A3028F485E08093B4
:104910008A0410928904809189048D3139F440E031
:1049200068EC70E087ED96E00E94FE1810918A0412
:10493000153021F0812F8D7F813041F54FEF5FEFF2
:104940006BEF7FEF8DE290E00E94451A41E050E06E
:1049500065E070E08DE290E00E94451A40E050E092
:1049600060E070E087E390E00E94451A4FEF5FEF50
:1049700060E070E082E390E00E94451A41E050E080
:1049800060E070E082E390E00E94451A112329F074
:10499000115010938A04109289048091C7068150A7
:1049A0008E3F48F480918404811105C0E3E1EF1546
:1049B00010F00C94DC2C80918404882329F0815021
:1049C000809384041092890480918404811107C02B
:1049D000809189048E3118F48F5F809389048091CF
:1049E00089048A30A8F180917104853688F5809118
:1049F0007D0490917E04059690937E0480937D04BF
:104A000027C01092890480918604823078F09CE35C
:104A10009093850481508093860410928304609162
:104A20008204809181040E94811A12C0882341F07F
:104A300060918204809181040E94811A10928804FE
:104A40001092860481E00E94F21C82E00E94F21C17
:104A500080918604882331F080916103882309F4D2
:104A6000EAC0F2C0809188048F5F809388048A3006
:104A700098F310929207109293070AE02CE24AE012
:104A800064E182E797E00E944E190CE02CE24DE1D0
:104A900064E182E797E00E944E1911E010939207BB
:104AA0001093930767E171E0CE0101960E94CE1545
:104AB00086E180937B078AE080937C0710937A07D6
:104AC000CE0101960E94CA1ACE0101960E94C91514
:104AD0002091880482ED90E0821B9109883C910529
:104AE0004CF464E170E00E946A33072E000C880BDE
:104AF000990B04C069E070E080E090E001E02AE0FA
:104B00004CE30E948B0E61E271E0CE0101960E949F
:104B1000CE154DE164E1CE0101960E944C1FCE01FD
:104B200001960E94C9156EE271E0CE0101960E94C5
:104B3000CE1544E268E1CE0101960E944C1FCE01E1
:104B400001960E94C9158091880464E10E945E3339
:104B50009A3021F487ED96E00E942D198091C806C5
:104B6000813009F449C78091C906813009F04AC7EC
:104B700087ED96E00E947F1483E08093860482E3B1
:104B80008093850410927E0410927D04109260033D
:104B900010925F031092830481E0809380048091DF
:104BA0006F04809371048091750490917604C2968D
:104BB0009093740480937304109272041092790499
:104BC0001092610310925E0310925D0310925C03D9
:104BD00010925B0310925A03E2ECF2E0108273969B
:104BE00083E0EA35F807D1F7F5011082F7E0AF0E60
:104BF000B11C8A149B04C1F714E60E94382F2AE0E6
:104C000030E040E050E00E940531610FED85FE8507
:104C100060830E94382F20E330E040E050E00E94A3
:104C20000531ED85FE856183195F3296FE87ED873C
:104C3000183B19F711CF80917104853628F08091C7
:104C400087048F5F8093870406E312E0B2ECAB2EFB
:104C5000B2E0BB2EF8018081882379F18581C18083
:104C6000D280C80ED11C87FDDA94D282C18286819F
:104C7000E380F480E80EF11C87FDFA94F482E3826D
:104C8000C701B1010E946A33462FC601B1010E94DB
:104C90006A3323E082E797E00E943219FCE0CF16E6
:104CA000F3E0DF0644F489E0E80EF11C99EEE91622
:104CB00091E0F90610F0F8011082095F1F4FA0166D
:104CC000B10641F60AE212E0A6E3CA2EA2E0DA2E0D
:104CD000F8018081813009F033C2B380F2E0BF1661
:104CE00009F48EC1FB1508F49DC0BB2009F4CAC0AD
:104CF000B8121FC2F801F280882483948F0CE180DF
:104D0000482D6E2D82E797E00E94330E99249A94E5
:104D10009E0C482D692D82E797E00E94330EAA244D
:104D2000A394AE0C482D6A2D82E797E00E94330EC3
:104D300088248A948F0C482D6E2D82E797E00E947C
:104D4000330E482D692D82E797E00E94330E482DDF
:104D50006A2D82E797E00E94330E4F2D692D82E77E
:104D600097E00E94330E4F2D6A2D82E797E00E9454
:104D7000330EEEEFAE2EAE0C4F2D6A2D82E797E08C
:104D80000E94330E6DEF6E0D4F2D82E797E00E946B
:104D9000330EF2E08F2E8E0C4F2D682D82E797E0B8
:104DA0000E94330E63E06E0D4F2D82E797E00E9464
:104DB000330EA2E07A2E7F0C472D6E2D82E797E00E
:104DC0000E94330E43E04F0D6E2D82E797E00E9464
:104DD000330EBEEF9B2E9F0C492D6E2D82E797E080
:104DE0000E94330E4DEF4F0D6E2D82E797E00E942B
:104DF000330E472D682D82E797E00E94330E472D32
:104E00006A2D82E797E00E94330E492D682D82E7D4
:104E100097E00E94330E492D6A2D82E797E00E94A9
:104E2000330EB9C094E0B91609F451C0B91608F4AC
:104E3000B2C0E5E0BE127DC1F801E280F1804E2DE6
:104E40006F2D82E797E00E94330EE6E0AE2EAE0CA7
:104E5000F6E09F2E9F0C4A2D692D82E797E00E9475
:104E6000330EFAEFEF0EFF0E4E2D6F2D82E797E017
:104E70000E94330E4E2D692D82E797E00E94330E7B
:104E80004A2D52C1F801E280F1804E2D6F2D82E74C
:104E900097E00E94330E41E04E0D6F2D82E797E0C0
:104EA0000E94330E4FEF4E0D6F2D82E797E00E9468
:104EB000330E61E06F0D4E2D82E797E00E94330EB6
:104EC0006FEF6F0D4E2D82E797E00E94330EF801D1
:104ED000F28083E0982E9F0CE18093E0892E8E0C67
:104EE000492D682D82E797E00E94330E2DEFA22E08
:104EF000AE0C492D6A2D82E797E00E94330E3DEFFC
:104F0000932E9F0C492D682D82E797E00E94330E67
:104F1000492D6A2D82E797E00E94330E45E0942EDA
:104F20009F0C55E0852E8E0C492D682D82E797E069
:104F30000E94330E6BEFA62EAE0C492D6A2D82E730
:104F400097E00E94330E7BEF972E9F0C492D682D22
:104F500082E797E00E94330E492D6A2D82E797E0A1
:104F60000E94330E6CEF6E0D4F2D82E797E00E948A
:104F7000330E64E06E0D4F2D82E797E00E94330EF2
:104F800044E04F0D6E2D82E797E00E94330E4CEF08
:104F90004F0D6E2DCAC0F801E280F1806BEF6F0DEE
:104FA0004E2D82E797E00E94330E65E06F0D4E2D87
:104FB00082E797E00E94330E45E04E0D6F2D82E7A9
:104FC00097E00E94330E4BEF4E0D6F2D82E797E076
:104FD0000E94330E64E0962E9E0C74E0A72EAF0C58
:104FE000492D6A2D82E797E00E94330EFCEFFF0EF9
:104FF000492D6F2D82E797E00E94330E8CEF8CC015
:10500000F801E280882483948E0CF180482D6F2D66
:1050100082E797E00E94330E99249A949F0C482DC2
:10502000692D82E797E00E94330EAA24A394AF0C67
:10503000482D6A2D82E797E00E94330E88248A94D7
:105040008E0C482D6F2D82E797E00E94330E482D7D
:10505000692D82E797E00E94330E482D6A2D82E782
:1050600097E00E94330E4E2D692D82E797E00E9453
:10507000330E4E2D6A2D82E797E00E94330E6EEFBD
:105080006F0D4E2D82E797E00E94330E6CEF6F0D8F
:105090004E2D82E797E00E94330E62E06F0D4E2D99
:1050A00082E797E00E94330E64E06F0D4E2D82E799
:1050B00097E00E94330E42E04E0D6F2D82E797E09D
:1050C0000E94330E44E04E0D6F2D82E797E00E9460
:1050D000330E4EEF4E0D6F2D82E797E00E94330E98
:1050E0004CEF4E0D6F2D82E797E00E94330E43E0A8
:1050F000942E9E0C53E0A52EAF0C492D6A2D82E70D
:1051000097E00E94330EFDEFFF0E492D6F2D82E7D1
:1051100097E00E94330E8DEFE80E4E2D6A2D82E748
:1051200097E00E94330E4E2D6F2D82E797E00E948C
:10513000330E81E08B0DF8018383863008F01082F6
:105140000C5F1F4FC016D10609F0C2CD1092920716
:105150001092930706E024E54AE260E082E797E0D8
:105160000E944E1981E0809392078093930780916B
:1051700075049091760489970CF4BBC02091890442
:10518000220F245103E04CE260E182E797E00E94A5
:105190004E1920915F033091600380917D049091BE
:1051A0007E04A9014E5C5F4F4817590730F4235D18
:1051B0003F4F3093600320935F0320915F03309152
:1051C0006003275E3F4F2817390720F430936003B0
:1051D00020935F0320915F03309160032817390704
:1051E00068F4821B930B8630910510F085E090E007
:1051F000820F931F9093600380935F0360915F031E
:105200007091600380E090E006E02BE24CE30E94A6
:105210008B0E8BE280937C0788E080937B07409124
:10522000860450E060E070E02AE082E797E00E94A8
:10523000FF15E2EEF0E00491E3EEF0E0E491602E81
:10524000712C5301F7E0AF0EB11C33E0B594A79475
:105250003A95E1F710E0CE2ED12C095D812F012E79
:10526000000C990B861597050CF05EC0812F17FF77
:1052700002C087E0810FE82EE594E594E594812F44
:10528000877887FF03C08150886F8F5F20E8822E68
:10529000912C02C0959487948A95E2F7512C0E2C9C
:1052A000000CFF0882E0E80EF11C402E411A852D0B
:1052B000052C000C990B8C159D05CCF4A89EF001D3
:1052C000A99EF00DB89EF00D1124EE0DFF1DEE51BC
:1052D000FF4FE491F0E0E821F9215394EF2B39F3EB
:1052E000442D652D82E797E00E94330EE0CF1F5FCB
:1052F000B5CF69E371E0CE0101960E94CE154BE275
:1053000061E0CE0101960E944C1FCE0101960E94E1
:10531000C91560917B0470917C0480E090E006E008
:105320002BE24CE30E948B0E8091750490917604E1
:1053300001969093760480937504209173043091C4
:105340007404245131098217930794F180918604E3
:10535000882371F180917204811105C090917104CC
:105360009230E0F425C0813029F490917104973196
:10537000A8F41EC0823029F490917104903370F427
:1053800017C0833029F490917104963438F410C01A
:10539000843071F490917104903650F08F5F809357
:1053A000720488E2809370048091710480936F048A
:1053B00080917004882309F4A0C081508093700408
:1053C00080917204853008F04FC064E471E0CE0132
:1053D00007960E94CE158091700448E250E0481B69
:1053E000510957FF02C04F5F5F4F55954795BE016A
:1053F000695F7F4FCE0101960E94C414BE016F5FAA
:105400007F4FCE0107960E948B14CE0101960E9419
:10541000C9151A8219821C821B821E821D82BE013E
:10542000695F7F4FCE0101960E94B21540E060E3B4
:10543000CE0101960E944C1FCE0101960E94C91513
:10544000809170048C3150F46091720470E080E0BF
:1054500090E001E020E048E40E948B0E809170040F
:10546000873108F446C03FC06EE471E0CE01079674
:105470000E94CE158091700448E250E0481B51090B
:1054800057FF02C04F5F5F4F55954795BE01695F5B
:105490007F4FCE0101960E94C414BE016F5F7F4F03
:1054A000CE0107960E948B14CE0101960E94C91569
:1054B0001A8219821C821B821E821D82BE01695FB4
:1054C0007F4FCE0101960E94B21540E068E2CE0106
:1054D00001960E944C1FCE0101960E94C915809131
:1054E0007004833130F080FD04C087ED96E00E94A7
:1054F0002D19CE0107960E94C9151091C9061130C9
:1055000049F480918604882329F0809187048A30A9
:1055100008F47EC2809186048823F1F0809187048C
:10552000853B08F40FC280918B0481110BC281E08E
:1055300080938B04109290040E94F21C82E00E94DF
:10554000F21C41E06EE371E087ED96E00E94FE18E8
:1055500042E060E271E01DC080918804833D08F460
:10556000F1C180918B048111EDC181E080938B04A6
:10557000109290040E94F21C82E00E94F21C41E012
:1055800060E171E087ED96E00E94FE1842E068EF6E
:1055900070E087ED96E00E94FE18D4C18091C906A4
:1055A000813009F0B7C21092780487ED96E00E942E
:1055B0007F14109278078091C806813009F0C2C12B
:1055C000AFC280918604811103C06AE971E002C014
:1055D00064EA71E0CE0101960E94CE1588E08093C6
:1055E0007B0710927C0782E080937A07CE010196B8
:1055F0000E94CA1ACE0101960E94C915809190049A
:10560000811115C04091860420ED37E0429FC00112
:10561000439F900D112490938F0480938E0480916A
:105620008004882321F010928F0410928E048091C0
:105630008E0490918F04892B09F042C080917F04E1
:1056400081113EC011E010937F0460917D04709140
:105650007E0480917B0490917C048617970780F4E8
:1056600070937C0460937B0480E090E00E94F730AC
:1056700060917C0481E090E00E94F73010937A04FE
:1056800000917D0410917E0480E060E774E98A3027
:1056900031F0FF24F394F80E0617170718F08093E3
:1056A0008D040EC080E090E00E94D02F20E030E01A
:1056B00040E45FE30E9431300E948A328F2DE7CFB1
:1056C0006EEA71E0CE0101960E94CE154EE061E0D7
:1056D000CE0101960E944C1FCE0101960E94C91571
:1056E0006091790470E080E090E003E02EE048E40F
:1056F0000E948B0E80918604882359F160EC71E042
:10570000CE0101960E94CE1544E161E0CE010196E2
:105710000E944C1FCE0101960E94C91580E580931E
:105720007B074091860450E060E070E02AE082E769
:1057300097E00E94FF1560918E0470918F046115AF
:10574000710539F080E090E004E02AE144E40E9431
:105750008B0E80917A04882321F08091900485310A
:1057600018F462ED71E007C06AE00E945E33973082
:1057700080F460EE71E0CE0101960E94CE1544E205
:1057800061E0CE0101960E944C1FCE0101960E945D
:10579000C91560917D0470917E0480E090E006E080
:1057A00024E24CE30E948B0E80918E0490918F0432
:1057B000892B09F050C081E080937B078EE18093B4
:1057C0007C076CEE71E082E797E00E94EA1580E5C5
:1057D00080937B07E0918D048E2F90E08A309105B5
:1057E000A8F5FC01EC5CFF4F0C947E3363E52FC001
:1057F0008CE480937B0763EF71E023C061E427C0F2
:105800008CE480937B0766EF71E01BC08CE480938F
:105810007B0769EF71E015C062E419C08CE48093E6
:105820007B076CEF71E00DC08CE480937B076FEF1A
:1058300071E007C063E40BC08CE480937B0762E0F7
:1058400072E082E797E00E94EA1505C064E482E70F
:1058500097E00E94E31580918E0490918F04892B2C
:1058600029F580919004853108F190E044976CE32C
:1058700070E00E946A334E974CF465E072E0CE010E
:1058800001960E94CE154AE26EE108C06DE072E01A
:10589000CE0101960E94CE154AE26CE0CE0101963F
:1058A0000E944C1FCE0101960E94C91580918E0462
:1058B00090918F040097C9F4809190048531B0F1E4
:1058C0008091C706813009F439C18091C8068130C2
:1058D00009F03CC10E94841480E00E94380C809141
:1058E0008E0490918F04009709F120919004253146
:1058F000E8F08C018236910510F001E610E0801B83
:10590000910B90938F0480938E0487ED96E00E9414
:105910002D1980917D0490917E04080F191F10931A
:105920007E0400937D0484E1809390048091900430
:1059300091E0980F913518F49093900403C08B5325
:105940008093900480E090E0892B11F40C94FC216A
:105950000E9400000C94FC2140E06AEB70E087EDAF
:1059600096E00E94FE1841E06AEB70E087ED96E059
:105970000E94FE1842E06AEB70E087ED96E00E941C
:10598000FE1843E06AEB70E087ED96E00E94FE1897
:105990000C94F621115010938504109287040C94F6
:1059A0002B240497029720F42BED30E00C9456241E
:1059B00024ED30E00C94562480918A0481110C94DB
:1059C000DB24809187048A3010F00C94DB244FEFA5
:1059D0005FEF60E070E082E390E00E94451A41E0F2
:1059E00050E060E070E082E390E00E94451A86E0BB
:1059F000809384040C94DB2486EE809388040E94B8
:105A00008414B1C88091C706813009F025C8B0C898
:105A1000809185048D3208F07DCD109378040E942A
:105A200084141093780710929207109293070AE05B
:105A300020E340E060E182E797E00E944E190BE02E
:105A400024E54CE060E082E797E00E944E190CE00C
:105A500024E34DE160E182E797E00E944E19109344
:105A60009207109393076AE571E0CE0101960E94B8
:105A7000CE1580E180937B0710927C0782E08093B3
:105A80007A07CE0101960E94CA1ACE0101960E94A1
:105A9000C91561E671E0CE0101960E94CE154CE079
:105AA00060E0CE0101960E944C1FCE0101960E943B
:105AB000C91565E771E0CE0101960E94CE1542E15D
:105AC00060E0CE0101960E944C1FCE0101960E941B
:105AD000C91561E271E0CE0101960E94CE154DE13B
