:100000000C943E030C9466030C9466030C946603F4
:100010000C9466030C9466030C9466030C946603BC
:100020000C9466030C9466030C9466030C94430CC6
:100030000C9466030C9466030C9466030C9466039C
:100040000C94BD0B0C9466030C9466030C9466032D
:100050000C9466030C9466030C9466030C9466037C
:100060000C9466030C9466030101FF030101F7037E
:100070006C00680000000000240027002A00000037
:100080000000250028002B000500893008023802F6
:1000900049786814000020202020596F646127737C
:1000A00000596F646127730007051028FE44380764
:1000B0000520D87000000A0A3600490080804040C0
:1000C000204040408040808041003E000A0A1100EC
:1000D0002A804440808080408040804040802100D1
:1000E0001E000A0A1E0021004080804080404040DF
:1000F00040408880550022000A0A1F0020804040AE
:100100008040808081008080404024801B000A0A5B
:10011000000000001C002200110021002A00140031
:10012000000000000A0A000000001600290022005A
:10013000210012000C00000000000A0A000000006C
:100140000C0012002100110025001A000000000020
:100150000A0A000000000C00120021002200290001
:100160001600000000000A0A000000000000040061
:100170000A0012000C000000000000000A0A000043
:10018000000000000800140012000C000000000035
:1001900000000A0A0000000000000C0012000A0023
:1001A00004000000000000000A0A00000000000037
:1001B0000C001200140008000000000000000303FF
:1001C00040E04020202020596F646127730007071A
:1001D00010102828447C0007070C142444681800D9
:1001E0000707061A64442818000707001E624428FF
:1001F00030000707006058465860000707003028A5
:1002000044621E00070700182844641A0607070006
:1002100018684424140C0707007C44282810100791
:100220000700302C444850600707003028444CB089
:10023000C00707001828448CF0000707000C34C4DE
:10024000340C00070700F08C442818000707C0B0E2
:100250004C442830000707605048442C3000070702
:10026000002028444C3808070700404C82084830DA
:1002700007074084020008482007078002000000AA
:1002800004400A0A153A49676E6F7265006D560A96
:100290000A504C45415345205455524E204F464636
:1002A00020004C4F572042415454455259212000C0
:1002B00003053F213F1208120A100A0E1C0E0C1EE5
:1002C0000C141A14161F161E131E1E1B1E1E1F1E94
:1002D0003F213F3A2F3A173D173F213F181F020495
:1002E0000A041F0E04040E1F0A1F0A0E0E1F04111B
:1002F0000E2E252E2F2A2E262929021F02081F081E
:10030000150E04040E150E15151B151B040604040A
:100310000C040000000017000300031F0A1F16371B
:100320001A1904130A153A000300000E11110E00E9
:100330000A040A040E04003000040404001000182B
:1003400004031F111F121F101D151711151F07047D
:100350001F17151D1F151D01011F1F151F17151F25
:10036000000A00003200040A110A0A0A110A0401F4
:1003700015020E11171E051E1F150A0E110A1F1158
:100380000E1F15111F05010E111D1F041F111F1136
:1003900008100F1F041B1F10101F061F1E040F0E36
:1003A000110E1F09060E112E1F051A121509011F25
:1003B000011F101F0F180F1F0C1F1B041B031C0312
:1003C000191513001F11030418111F000201022048
:1003D00020200001020C121E1F120C0C12120C1213
:1003E0001F0C1A14041E05242A1E1F021C141D10A3
:1003F00020201D1F0814111F101E041E1E021C0C9D
:10040000120C3E0A040C123E1E040214160A020FBD
:10041000120E101E0E100E1E081E120C1226281E82
:10042000322A26041E21001F00211E040102013F62
:10043000213FF6E8DBCFC3B8AEA49B928A827B74DF
:100440006E68625C57524E4945413E3A3734312E10
:100450002C29272523211F1D1C1A191716151413C3
:100460001211100F0E0D0C0B0A0908070645006843
:10047000010000172B152010204C4F41444552001D
:10048000172B16201314000A4E6F2053442063616B
:100490007264206F720A6E6F204C4F414445522E99
:1004A0004845580A0A153A45786974001D20466C7B
:1004B000617368696E670A20206C6F616465722ED3
:1004C0002E2E0A0A444F4E2754205455524E204F88
:1004D00046462100000000002300260029000404F5
:1004E00004040404040402020202020203030303DC
:1004F00003030102040810204080010204081020B8
:10050000010204081020000000080002010000039E
:100510000407000000000000000005003801680129
:100520000000401AFFFFFFFFFFFFFFFF0000000079
:1005300000000000383DF7DF0707771E7C7DF7DFFE
:100540008F8F773EFEFDF7DFDFDF777EFEFDF7DF83
:10055000DFDF777EEEE0E71DDDDC7770EEE0E71DA4
:10056000DDDC7E70EEE0E79DDDDC7C70FEF8E79F71
:100570009DDC787CFE7CE79F1DDC7C3EFE3EE71F19
:100580009DDC7E1FEE0EE71DDDDC7707EE0EE71D1E
:10059000DDDC7707EEFEE7DDDFDF777FEEFEE7DD10
:1005A000DFDF777FEEFCE7DDCF8F777EEEF8E7DDEC
:1005B000C707777C0000000000000000FFFFFFFF7E
:1005C000FFFFFFFF0000000000000000A6C66AEC6D
:1005D000E66E66CEAAAA8A4A8AAA8AA8AAAEEA4A79
:1005E000CAEC8EAC4AAA2A4A8AAA8AA84ECAE4EC65
:1005F000EEAAEACE1753440016137800161314001F
:100600001510200015201000540A03E181867F3E5A
:10061000186D830F0F0E0183866033186DC3198F19
:100620001803C38E6033186DE330CF1803C39E6088
:100630003630CDE360CF3006C79E7E3E30CDB3600E
:10064000CF300CC6F6603330D9B660CF33CFCCF69E
:100650006061B0DB1E60CF30D86CE6C061B0DB1EDD
:10066000618F19986CC6C063B19B0E330F0FB078C1
:10067000C6FF7E1F1B061E0F8623802311241FBE6C
:10068000CFEFD8E0DEBFCDBF12E0A0E0B1E0E8EAF6
:10069000F1E502C005900D92A83AB107D9F727E01D
:1006A000A8EAB2E001C01D92A630B207E1F713E05C
:1006B000CDE3D3E004C02197FE010E94DD27CC33B7
:1006C000D107C9F70E9474130C94C7280C9400003A
:1006D0002F923F924F925F926F927F928F929F9252
:1006E000AF92BF92CF92DF92EF92FF920F931F9340
:1006F000CF93DF93CDB7DEB72E970FB6F894DEBF5A
:100700000FBECDBF4091F5065091F6066091F706F9
:100710007091F8062FB7F8948091F6039091F70343
:10072000A091F803B091F9032FBF481B590B6A0B36
:100730007B0B8091F40690E0A0E0B0E00091F00621
:100740001091F1062091F2063091F3068417950777
:10075000A607B70730F4011511052105310509F089
:100760003CC4012B022B032B09F035C480911A06DF
:1007700081508E3F30F580911906813011F58091BE
:1007800039068F5F60913A0687FD09C0082E000C7C
:10079000990B70E06F5F7F4F0E94B527682F6093C1
:1007A000390680E894E09093FA068093F90688E48D
:1007B0008093FB0640E06DE674E088E296E00E94DC
:1007C0002F0D80911A0681508E3F70F4809118068B
:1007D000813009F068C483E794E09093FA0680932F
:1007E000F90688E48093FB0680E00E94561181E0C0
:1007F0000E94561182E00E94561183E00E94561119
:1008000023E036E038872F8372EFC72E73E0D72EB0
:1008100007E616E0E3E5EE2EE6E0FE2E59013E8700
:100820002D87512C44244394AD85BE8599968C9197
:100830009997882309F4EEC04D01B0E78B0E911C07
:10084000F40180818111E6C0D7012D913C91D8013E
:10085000ED91FC91EE0FFF1FE20FF31F8591949134
:10086000009721F5ED85FE85E05AFF4F80818823B2
:1008700029F0F80111821082F90116C0AD85BE85FC
:1008800099961C92999795968C918823C1F1852D04
:100890000E945611D801ED91FC91EE0FFF1FD70178
:1008A0008D919C91E80FF91F85919491ED85FE85BE
:1008B000E058FF4FFE83ED832D853E852C573F4F3B
:1008C0003A832983AD85BE85A857BF4FBC83AB83D0
:1008D000ED85FE85E457FF4FFA87E9872D853E8534
:1008E00020573F4F3C872B872D843E8434E9230ECD
:1008F000311C6D847E84A4E76A0E711C2DC0652DA9
:1009000088E296E00E94060D85C0BC0136E076952F
:1009100067953A95E1F76F71892F8695869586954B
:1009200080512F702230B1F138F521111DC06B308C
:1009300008F06AE0F3016083D801ED91FC91119712
:100940003196ED93FC93EE0FFF1FD7018D919C9193
:10095000E80FF91F859194919C013695279536955E
:10096000279580FDD2CF2DC0213031F7452D88E26B
:1009700096E00E94070CE0CF2330B9F02430E1F676
:1009800090913806969F602D1124AB85BC856C93A1
:10099000F10115C090913806969F602D1124AD810C
:1009A000BE816C93E981FA810AC090913806969FC6
:1009B000602D1124AB81BC816C93E985FA8580831D
:1009C000BBCFED85FE85E459FF4F2F7320838091C7
:1009D0003806899F802D1124F4018083ED85FE85E2
:1009E000E055FF4F1082F501E855FF4F118210824C
:1009F000ED85FE85E858FF4F4082D6014C92ED858B
:100A0000FE85E458FF4F1082F801808191810196A4
:100A10009183808353942D853E852F5F3F4F3E8782
:100A20002D8732E0A30EB11C8FEFC81AD80A0E5FD3
:100A30001F4F92E0E90EF11CA4E05A12F5CEAAEE87
:100A4000AA2EA3E0BA2EB6EECB2EB3E0DB2E12EE2A
:100A5000612E13E0712E03EB16E08BEAE82E86E0A0
:100A6000F82E9EEE492E93E0592EE3E0F6E0FA834D
:100A7000E983312CE981FA81E858FF4F808188238E
:100A800009F42EC1E981FA81E059FF4F808181117B
:100A900006C0632D88E296E00E94060D21C18150B8
:100AA0008083D8018C91E981FA81EC54FF4FFE8359
:100AB000ED8329813A8128543F4F490181114EC06D
:100AC000D7018D919C9101969C01220F331FEF81DC
:100AD000F885E856FF4F0190F081E02DE20FF31FFB
:100AE00045915491242F2770ED81FE812083BA0116
:100AF000E3E076956795EA95E1F79B0136952795B2
:100B0000352F36953695D4013C932F7330913806A6
:100B1000239F202D1124F80120836170D2016C9352
:100B2000F70191838083E981FA81E056FF4F2081AC
:100B300030E08217930790F0E981FA81EC55FF4F7E
:100B40008081882331F0281B3109D7012D933C93F4
:100B500005C0632D88E296E00E94060DF8018081B1
:100B600081508083E981FA81E458FF4F808121E040
:100B7000280F2083E981FA81E459FF4F4081D40195
:100B80003C91340FE981FA81E45BFF4F8081380F9B
:100B9000E981FA8135A7E857FF4F6081662399F014
:100BA00070E0822F022E000C990B0E94B527E9817C
:100BB000FA81E457FF4F8081869F300D1124A9816F
:100BC000BA819D963C93E981FA8185A590E0CB9608
:100BD0006BE370E00E94B52785A7EC58FF4F30818A
:100BE000A981BA81D1963C93D197FD01E058FF4F7E
:100BF00060816623A1F0062E000C770B822F022E57
:100C0000000C990B0E94B527E981FA81EC57FF4F40
:100C10008081869F300D1124E981FA8131ABE98111
:100C2000FA81E057FF4F60816623D1F0822F220FB7
:100C3000990B70E00E94B527CB0162E070E00E9442
:100C4000B527E981FA81EC56FF4F2081A981BA814D
:100C5000D1969C91D197289F900D1124D1969C9369
:100C6000E981FA814F3359F081A98A300CF089E08B
:100C700087FD80E0A981BA81D1968C9301C011AA29
:100C8000F894A981BA819D96EC91F0E0EE5CFB4F5F
:100C9000E491D501EC93E981FA8131A9E454FF4F45
:100CA0002081AD81BE814C91320390011124420319
:100CB000C001439F900D11240090390602C0880F97
:100CC000991F0A94E2F797FF02C081589F4F880F3F
:100CD000892F881F990BF6018083D3018C93789418
:100CE0003394E981FA813196FA83E983FFEFAF1AF1
:100CF000BF0A2FEFC21AD20A3FEF631A730A0F5FBF
:100D00001F4F82E0E80EF11CAF81B8851296B887BC
:100D1000AF83BFEF4B1A5B0AE4E03E12ABCE80918B
:100D2000FB06882309F49AC08C3020F4FCE0F81B01
:100D3000F98301C0198281E08093CB061092E3060B
:100D40001092E4062091C8062B83822F8D5F1981B3
:100D5000121B0DE2010FE82E880FFF08E00EF11CB8
:100D600007FDFA94802F002E000C990B8E159F051D
:100D70004CF42EE4402F63E083EC96E00E94BC0D1F
:100D80000F5FF0CF3B8134503B83105D232F41E058
:100D9000612F80E50E94F2102B8142E0612F83E0F9
:100DA0000E94F21081E08093E3068093E4060091B4
:100DB000C8061981101B8DE2810F8B832EE4482F0A
:100DC00063E083EC96E00E94BC0D83E0800F9B8182
:100DD000980F9B83492F41502EE463E083EC96E00B
:100DE0000E94BC0D0350105D202F412F60E083EC6A
:100DF00096E00E94CC0E202F412F63E583EC96E015
:100E00000E94CC0E41E0612F83E00E94731042E00B
:100E1000612F80E50E947310AB81A450AB8344E046
:100E20006A2F80E50E94731048E06B8183E00E9486
:100E3000731084E08093CC068091C806B981B81BFA
:100E4000B15DB093CD068091F9069091FA060E94AB
:100E50001C108091FB0681508093FB0680911F0639
:100E600090912006892B09F48EC081E08093E306DF
:100E70001092E4069091C70685E5891B8093CC0605
:100E80001092CD0660911C06613009F45DC030F00F
:100E900080911B06653008F06FC06AC00CE216E056
:100EA0001982698188E296E00E94060DF80111928C
:100EB0008F01F981FF5FF983F43099F781E0809326
:100EC000CB06E0EBF2E0E491EF5FE093C706E1EBE5
:100ED000F2E0E491EF5FE093C80682EB92E090933A
:100EE000E2068093E1061092200610921F061092EF
:100EF000C90628EA29830E9468038823E1F382EA6D
:100F000092E00E941C1040911D0650911E0660E068
:100F100070E02AE083EC96E00E94220A8DE892E0DD
:100F20000E941C10698162956F7070E083EC96E0FE
:100F30000E943D1082E892E00E941C1080911806E9
:100F4000813009F094C01FC08091E6069091E706B9
:100F5000A091E806B091E9068F709927AA27BB27D0
:100F60000897A105B10510F467E009C068E707C05C
:100F7000882349F06B5F03C0882329F06FE283EC7C
:100F800096E00E94060A0E94E10F8091C906811135
:100F90000EC088EF91E0E3E0F4E0DF019C011D92D8
:100FA00021503040E1F71092CC061092CD060E94FD
:100FB0005E0B6093F0067093F1068093F2069093B7
:100FC000F3062091EC063091ED06621B730B7093D3
:100FD000EB066093EA0680E06CC02FB7F89480912E
:100FE000F6039091F703A091F803B091F9032FBF96
:100FF0002091F406820F911DA11DB11D8093F5066D
:101000009093F606A093F706B093F8068091E60653
:101010009091E706A091E806B091E9060196A11D1E
:10102000B11D8093E6069093E706A093E806B0937F
:10103000E9061092F0061092F1061092F206109254
:10104000F3060E945E0B6093EC067093ED068093AE
:10105000EE069093EF060E949F1180911F069091DB
:101060002006892B11F00E942F1281E022C03981C5
:101070003150398331113FCF60E070E08FEF0E9433
:10108000FF0A83B7817F846083BF83B7816083BF9A
:1010900083B7816083BF889583B78E7F83BF83B713
:1010A0008E7F83BF28CF893209F09ECB0E94FA1130
:1010B0009BCB2E960FB6F894DEBF0FBECDBFDF914F
:1010C000CF911F910F91FF90EF90DF90CF90BF9045
:1010D000AF909F908F907F906F905F904F903F90D8
:1010E0002F9008952F923F925F926F927F928F92EE
:1010F0009F92AF92BF92CF92DF92EF92FF920F93A7
:101100001F93CF93DF93EC01F901E4903196849122
:1011100064350CF019C10E2C000CFF08062F062EAA
:10112000000C110BF701E00FF11F1E161F060CF04B
:101130000BC140330CF008C1A82FC42E042E000CA4
:10114000DD085601A80EB11C87FDBA941A141B04C1
:101150000CF0FAC02E5F3F4F570197E0A90EB11C6B
:10116000B7FE04C05701BEE0AB0EB11CB3E0B594AE
:10117000A794BA95E1F747FF0AC0A42FA80FAC9C2B
:10118000C001AD9C900D1124281B390B40E08A2F23
:101190000A2E000C990B840F911D47FD9A95C1975B
:1011A00014F0A0E3A41BF8A067FD60E0E535F105AD
:1011B00014F0E4E5F0E09E2FCC85C427C62E062E61
:1011C000000CDD08F601E01BF10B8F014F01F7E089
:1011D0008F229924E0E8F0E002C0F595E7958A9423
:1011E000E2F77E2F17FF02C0095F1F4FF3E015954E
:1011F0000795FA95E1F7200F311F542F577081E0C2
:1012000001C0880F5A95EAF7459545954595F60131
:10121000B4E54B02E00DF11D1124AF014D5F5B4FB2
:10122000D0E02A2EAA0F3308EE24E394BB24ED2F3E
:10123000F0E0E215F3050CF087C0F9015490F1E0FD
:10124000FF121AC0962E8A01E72F6901991608F03D
:1012500072C08E2E852021F0D8018C90882A8C9225
:10126000E69531F4BFEFCB1ADB0AF6015490E0E8C3
:1012700093940F5F1F4FEACFF1101CC0782E70942B
:10128000962E8A01E72F6901991608F054C08E2E18
:10129000852021F0D8018C9087208C92E69531F43E
:1012A000BFEFCB1ADB0AF6015490E0E893940F5F8E
:1012B0001F4FEACFF3E0FF1629F0962E8A01E72FA1
:1012C000690137C0682E6094862E8A01972E6901C5
:1012D0008916D8F4E92DE52159F0D801EC91782C44
:1012E0007C2670FE02C0E82B02C0E621D801EC93F8
:1012F000969439F4BFEFCB1ADB0AF6015490E0E87C
:101300009E2E83940F5F1F4FE3CFCE2514C08E2EE9
:10131000852021F0D8018C9088268C92E69531F4B6
:10132000BFEFCB1ADB0AF6015490E0E893940F5F0D
:101330001F4F991660F3880F19F44C5A5F4F81E0E4
:10134000DF5F2A0D3B1D73CFDF91CF911F910F916E
:10135000FF90EF90DF90CF90BF90AF909F908F90D5
:101360007F906F905F903F902F900895CF92DF9283
:10137000EF92FF920F931F93CF93DF936C017A014B
:101380008B01C0E0D0E0CE15DF0581F0D8016D9172
:101390008D01D601ED91FC910190F081E02DC60107
:1013A0000995892B11F02196EECF7E01C701DF91BF
:1013B000CF911F910F91FF90EF90DF90CF90089504
:1013C0008091F203882319F08091E20301C080E04C
:1013D0009091F303992319F09091E303890F909171
:1013E000F403992319F09091E403890F9091F50388
:1013F000992319F09091E503890F8093B400089523
:10140000089580E090E008950E94A928DC01ED9104
:10141000FC910190F081E02D09946115710579F03E
:10142000FB0101900020E9F73197AF01461B570BF4
:10143000DC01ED91FC910280F381E02D099480E0C4
:1014400090E008958F929F92AF92BF92EF92FF9299
:101450000F931F93CF93DF93CDB7DEB7A1970FB64E
:10146000F894DEBF0FBECDBF7C01FA01CB0119A2FB
:10147000223008F42AE08E010F5D1F4F822E912C3E
:10148000A12CB12CBF01A50194010E94C526F90130
:10149000CA01015011096A3014F4605D01C0695C31
:1014A000D8016C93232B242B252B61F7B801C7019E
:1014B0000E940D0AA1960FB6F894DEBF0FBECDBFF5
:1014C000DF91CF911F910F91FF90EF90BF90AF9060
:1014D0009F908F900895833081F028F4813099F0A7
:1014E0008230A1F008958730A9F08830B9F08430B7
:1014F000D1F4809180008F7D03C0809180008F7730
:1015000080938000089584B58F7702C084B58F7D65
:1015100084BD08958091B0008F7703C08091B000A2
:101520008F7D8093B00008951F93CF93DF93282F72
:1015300030E0F901EA5FFA4F8491F901EE50FB4F78
:10154000D491F901E252FB4FC491CC23C1F0162F84
:1015500081110E946B0AEC2FF0E0EE0FFF1FE258A2
:10156000FF4FA591B4919FB7F894111104C08C91CD
:10157000D095D82302C0EC91DE2BDC939FBFDF9186
:10158000CF911F910895CF93DF9390E0FC01EE502F
:10159000FB4F2491FC01E252FB4F8491882361F1BF
:1015A00090E0880F991FFC01EC58FF4FC591D49132
:1015B000FC01E258FF4FA591B491611109C09FB79A
:1015C000F8948881209582238883EC912E230BC088
:1015D000623061F49FB7F8948881322F309583236D
:1015E0008883EC912E2B2C939FBF06C08FB7F89465
:1015F000E8812E2B28838FBFDF91CF9108951F9311
:10160000CF93DF93182FEB0161E00E94C30A20976C
:1016100011F460E004C0CF3FD10539F461E0812FBF
:10162000DF91CF911F910C94940AE12FF0E0EA5FD3
:10163000FA4FE491E330F9F048F4E130B9F0E230E8
:10164000A1F584B5806284BDC8BD34C0E730E9F03F
:10165000E83019F1E43049F5809180008062809390
:101660008000D0938B00C0938A0024C084B580682A
:1016700084BDC7BD1FC080918000806880938000BA
:10168000D0938900C093880015C08091B000806815
:101690008093B000C093B3000DC08091B000806211
:1016A0008093B000C093B40005C0C038D1050CF0E1
:1016B000B5CFAFCFDF91CF911F9108953FB7F89489
:1016C0008091FF0390910004A0910104B091020465
:1016D00026B5A89B05C02F3F19F00196A11DB11D8D
:1016E0003FBFBA2FA92F982F8827820F911DA11DC8
:1016F000B11DBC01CD0142E0660F771F881F991F05
:101700004A95D1F708958F929F92AF92BF92CF9250
:10171000DF92EF92FF926B017C010E945E0B4B0106
:101720005C01C114D104E104F104F1F00E945E0BEC
:10173000DC01CB0188199909AA09BB09883E9340AD
:10174000A105B10570F321E0C21AD108E108F10842
:1017500088EE880E83E0981EA11CB11CC114D10430
:10176000E104F10419F7DDCFFF90EF90DF90CF9007
:10177000BF90AF909F908F9008951F920F920FB6D9
:101780000F9211242F933F938F939F93AF93BF9307
:101790008091F6039091F703A091F803B091F903BB
:1017A0003091FE0323E0230F2D3720F40196A11D75
:1017B000B11D05C026E8230F0296A11DB11D20937F
:1017C000FE038093F6039093F703A093F803B0937E
:1017D000F9038091FF0390910004A0910104B0915E
:1017E00002040196A11DB11D8093FF039093000494
:1017F000A0930104B0930204BF91AF919F918F9188
:101800003F912F910F900FBE0F901F90189550E0B1
:10181000DA01AA0FBB1FA80FB91FD3963C91D3972B
:10182000D4962C91D497E32FF22FE60FF11DE60FFB
:10183000F11D25913491AD58BF4F2D933C93F90183
:1018400065917491FC017089769F602D1124840F3D
:10185000951FFC01E558FF4F6083F901A591B491F4
:101860004B2F50E0E62FF0E04E175F0720F4F90110
:1018700025913491632FFC01E158FF4F769F602D35
:101880001124608308951F920F920FB60F921124B6
:101890002F933F934F935F936F937F938F939F9378
:1018A000AF93BF93EF93FF936091E603611102C082
:1018B00080E023C08091FA038F5F8093FA039091B8
:1018C000EA038917A8F39091F20381E089278093B6
:1018D000F2031092FA038091EE03882369F080915D
:1018E000000193E4899F802D1124895B809300017E
:1018F0000E94A9279093E20381E06091E7036623A9
:1019000019F19091FB039F5F9093FB032091EB03F0
:101910009217D0F09091F30381E089278093F3032D
:101920001092FB038091EF03882369F080910001FE
:1019300093E4899F802D1124895B809300010E948C
:10194000A9279093E30381E06091E803662319F1EE
:101950009091FC039F5F9093FC032091EC039217FE
:10196000D0F09091F40381E089278093F4031092E2
:10197000FC038091F003882369F08091000193E4D7
:10198000899F802D1124895B809300010E94A927E3
:101990009093E40381E06091E903662319F190914B
:1019A000FD039F5F9093FD032091ED039217D0F00C
:1019B0009091F50381E089278093F5031092FD0350
:1019C0008091F103882379F08091000193E4899F4D
:1019D000802D1124895B809300010E94A927909398
:1019E000E50301C081110E94E009FF91EF91BF91D1
:1019F000AF919F918F917F916F915F914F913F91A7
:101A00002F910F900FBE0F901F901895643030F5F6
:101A100070E09C01260F371FF901ED5AFF4F10822D
:101A200038971082AB01440F551FFC01E40FF51FDE
:101A3000ED57FF4F11821082F901E95AFF4F1082D2
:101A4000FB01EE51FC4F1082FB01EA51FC4F10826A
:101A5000FB01EE50FC4F10820C94E0090895EF92C8
:101A6000FF920F931F93CF93DF938C017B01C42FC1
:101A7000D0E0443038F4642F0E94060DF801EC0FDA
:101A8000FD1F1482FE01EE0FFF1FE00FF11FF4A6F1
:101A9000E3A6FF9611821082F801EC0FFD1F81E092
:101AA0008483DF01A15BBF4F89E08C931C961C925D
:101AB00018961C92E559FF4F1082DF91CF911F912C
:101AC0000F91FF90EF900895FC01643508F053C02A
:101AD000403308F050C090A1742F75957595759599
:101AE000262F062E000C330B542F57709230A1F482
:101AF000F90184E57802E00DF11D1124ED5FFB4F43
:101B0000808190E0052E02C0959587950A94E2F7B2
:101B10008095982F91700AC0933041F4848581702C
:101B2000462740954170841303C014C0911112C020
:101B300084E57802200D311D1124F901ED5FFB4F82
:101B400081E090E001C0880F5A95EAF78095908176
:101B5000892310C084E57802200D311D1124F9017C
:101B6000ED5FFB4F81E090E001C0880F5A95EAF7E6
:101B70009081892B80830895EF92FF920F931F939A
:101B8000CF93DF938C01F62ED42FE22EC0E0CE153A
:101B900044F46F2D6C0F4D2FC8010E94640DCF5F70
:101BA000F6CFDF91CF911F910F91FF90EF900895A5
:101BB0002F923F924F925F926F927F928F929F925D
:101BC000AF92BF92CF92DF92EF92FF920F931F934B
:101BD000CF93DF93EC016A3011F42885C1C06D30DA
:101BE00009F4C5C0698483E586150CF4A3C07A8422
:101BF0008FE287150CF49EC008858C8190E00197D8
:101C0000089F9001099F300D1124C901860D911D77
:101C100067FC9A95181619060CF08CC02D81872D3B
:101C2000072C000C990B029F800D911D1124181692
:101C300019060CF07FC038A0462CC62CE62EF12CDD
:101C4000A02E002E000CBB08EC2DE6190E2E000C69
:101C5000FF0B8C8190E0E817F9070CF06AC0019740
:101C6000E817F90779F0E89E9001E99E300DF89E9B
:101C7000300D1124E20FF31F8E8D9F8DE80FF91F99
:101C8000149101C010E0D72C572C252D2719022EB6
:101C9000000C330B8D8190E0281739070CF046C0FB
:101CA00010FF1DC0013031F4452D6C2DCE010E9476
:101CB000640D38C02D2C45018D0C911CD7FC9A94D5
:101CC000822D022C000C990B881599055CF5202FAC
:101CD000422D642DCE010E94BC0D2394F1CF89A129
:101CE00098A18917F9F088A3013031F4452D6C2DA6
:101CF000CE010E94640D15C02D2C45018D0C911C48
:101D0000D7FC9A94822D022C000C990B881599050A
:101D100044F4202F422D642DCE010E94BC0D23944B
:101D2000F1CF38A216955394D00EAFCFC394400E86
:101D30008BCF38A228853C818985239F800D112473
:101D400089879F81992399F0082E000C990B44E50F
:101D500050E0239F401951091124481759073CF4BA
:101D60009D818A85299F800D11248A87198681E0AB
:101D700090E0DF91CF911F910F91FF90EF90DF9056
:101D8000CF90BF90AF909F908F907F906F905F901B
:101D90004F903F902F900895EF92FF920F931F93D3
:101DA000CF93DF938C01D62FF42EE22EC0E0CE1518
:101DB00044F44F2D4C0F6D2FC8010E94640DCF5F6E
:101DC000F6CFDF91CF911F910F91FF90EF90089583
:101DD0000F931F93CF93DF93643008F058C08B01AB
:101DE0001127F801E958F94FEC0134E0CC0FDD1F61
:101DF0003A95E1F7DE01A558BE4F1C969C91908361
:101E00009B3008F09AE0AB019083C558DE4F6881A3
:101E100088E296E00E94070C3885C8018D5F994FD3
:101E2000FC01E058FF4F4A8520913806429F402D23
:101E3000112440833496319530833C8134964E8111
:101E4000429F402D1124408334963A5330833E857F
:101E5000B0974A8140833496239F202D11242083FC
:101E6000E05CFF4F1082F801EE0FFF1FEA57F94FB9
:101E700016A215A2FC01E858FF4F21E02083F801CB
:101E8000EE50FC4F2083FC01E458FF4F1082DF919D
:101E9000CF911F910F9108950F931F93CF93DF93CD
:101EA0008C01EB018091FC069091FD06009739F0C2
:101EB0002091FE063091FF062617370768F5BE0110
:101EC0006F5F7F4F0E94E327009789F09093FD0694
:101ED0008093FC06D093FF06C093FE062091000776
:101EE00030910107232BC1F4FC01108215C08091B1
:101EF000FC069091FD06009711F00E943624109286
:101F0000FD061092FC061092010710920007109235
:101F1000FF061092FE060BC0D0930107C093000786
:101F2000B8018091FC069091FD060E94C0288CEFBC
:101F300096E0DF91CF911F910F910895009759F08E
:101F4000FC0101900020E9F73197BF01681B790B74
:101F50000E944C0F14C08091FC069091FD060097E2
:101F600011F00E9436241092FD061092FC06109289
:101F70000107109200071092FF061092FE068CEFE8
:101F800096E00895CF93C82FF89460E08091D20630
:101F90000E94940A8091D30618161CF460E00E94F7
:101FA000940ACEBD00000DB407FEFDCF8EB5809122
:101FB000D30618161CF461E00E94940A7894CF911D
:101FC00008950F931F93CF938091CF068F5F8093D7
:101FD000CF0603E014E0C0E08C2F80640E94C20FA3
:101FE00080E80E94C20F61E08091D2060E94940AAC
:101FF0008091D30618161CF460E00E94940AF80140
:1020000084E591919EBD00000DB407FEFDCF9EB505
:102010008150B9F78091D30618161CF461E00E9434
:10202000940ACF5F0C5A1F4FC630B1F680E4CF91AF
:102030001F910F910C94C20F0F931F93CF93DF93B7
:102040008C01C0E0D0E0F801EC0FFD1F6491662325
:1020500071F0E091C306F091C4060190F081E02D8B
:1020600083EC96E00995892B11F02196ECCFCE01F7
:10207000DF91CF911F910F910895CF92DF92EF9250
:10208000FF920F931F93CF93DF936B01770FEE08AF
:10209000FF08F7FE1BC0EC016DE20E94060A8C01EE
:1020A00044275527BA014C195D096E097F092AE0BA
:1020B000CE010E94220A800F911FDF91CF911F91C4
:1020C0000F91FF90EF90DF90CF9008952AE0B70135
:1020D000A601DF91CF911F910F91FF90EF90DF90BC
:1020E000CF900C94220AAF92BF92CF92DF92EF92E0
:1020F000FF920F931F93CF93DF93182F062FC1E00A
:10210000D3E08AEFD82E9EEFE92E842F8470C82E5C
:10211000842F8270B82E842F8870A82E4170F42EE0
:102120008C2F880F8F5FE80ECC2081F0402F4D0F51
:10213000612F6C0F83EC96E00E94640D402F4C0FD2
:102140006D2F610F83EC96E00E94640DBB2081F03F
:10215000402F4D1B612F6C0F83EC96E00E94640DA5
:10216000402F4C1B6D2F610F83EC96E00E94640D95
:10217000AA2081F0402F4C0F612F6D1B83EC96E05D
:102180000E94640D402F4D0F612F6C1B83EC96E075
:102190000E94640DF1100AC0CD17CCF4E7FC04C016
:1021A000D150D394D394ED0CCF5FBACF402F4C1BBA
:1021B000612F6D1B83EC96E00E94640D402F4D1B38
:1021C000612F6C1B83EC96E00E94640DE5CFDF91DC
:1021D000CF911F910F91FF90EF90DF90CF90BF9024
:1021E000AF9008959F92AF92BF92CF92DF92EF92FD
:1021F000FF920F931F93CF93DF93F82EE62EB22E0C
:1022000013E0120FD0E0C3E08AEFC82E0EEF842F48
:102210008170982EAA24A394A20E4270D42EDF5F60
:10222000812F8B19080F9920A1F02C2F220F2A0D36
:102230004E2D4C1B6D2F6F0D83EC96E00E94CC0E43
:10224000212F4E2D4D1B6C2F6F0D83EC96E00E94BD
:10225000CC0ED1100AC0DC17ECF407FD04C0C1504D
:10226000C394C3940C0D1E5FDACF2C2F220F2A0DBE
:102270004E2D4C1B6F2D6D1B83EC96E00E94CC0EF7
:10228000212F4E2D4D1B6F2D6C1B83EC96E00E9471
:10229000CC0EE1CFDF91CF911F910F91FF90EF9086
:1022A000DF90CF90BF90AF909F900895CF93DF9332
:1022B000A82FB0E0ED01CD5FD94F9DA1992309F47E
:1022C0003BC099A5911138C0FE01E05CFF4F9081A1
:1022D000AA0FBB1FAD5FB94FD8963C91D897D9963E
:1022E0002C91D997E32FF22FE90FF11DE90FF11D82
:1022F000259134912F3F9FEF390711F41DA21CC087
:10230000FE01E45BFF4F30835F963327220F331FBC
:102310009596ED91FC919697E20FF31F659174915C
:10232000843028F4482F88E296E00E942F0DC05C8C
:10233000DF4F88818F5F8883DF91CF910895DF928F
:10234000EF92FF920F931F93CF93DF93C3E0D6E0FA
:102350000AE016E0EE24EA9462E08A850E94C30A4D
:102360002A8530E0F901EA5FFA4F8491F901EE50D5
:10237000FB4FF490F901E252FB4FD490DD2071F055
:1023800081110E946B0AED2DF0E0EE0FFF1FEC5261
:10239000FB4FA591B491EC91FE2299F489898F5F4E
:1023A000898B60E08A850E94C30A21960C171D075D
:1023B00099F6DF91CF911F910F91FF90EF90DF90F1
:1023C00008958989882389F38F3F11F4198AE9CF09
:1023D000E98AE7CFCF93DF930E941C10EC016EE9EE
:1023E00072E083EC96E00E940D0A8C0F9D1FDF9136
:1023F000CF91089588EF91E0E3E0F4E0DF019C01E4
:102400001D9221503040E1F71092CC061092CD067B
:102410008CEA94E00E941C100E94E10F8CB583604E
:102420008CBD8DB58E7F8DBD81EA92E0EEEFFFE32E
:1024300009951092C90687E894E00E94EA110E946B
:10244000E10F0E949F1180911806813039F062E3FC
:1024500070E080E090E00E94830BF3CF0895CF936B
:10246000C09127068C2F8F71E1F583E480937C0067
:1024700080917A00806480937A0080917A0086FD52
:10248000FCCF609178008091790070E0782B072E66
:10249000000C880B990B0E94632526EE3FE34EEC5F
:1024A00050E40E949E250E946A279B0170931E069D
:1024B00060931D06672B91F084E080931C06EFE18A
:1024C000F6E080E0419151912417350718F480938C
:1024D0001C060AC08F5F8430A9F703C08FEF80937A
:1024E0001C06CF5FC0932706CF910895CF92DF924D
:1024F000EF92FF920F931F93CF93DF93EC0181E054
:102500008093CB061092CA061092C90610921B0641
:102510008093E3068093E4061CE00E94680388230E
:10252000E1F3FE018491882319F00091C80601C0EF
:1025300000E028E036E040E060E083EC96E00E94B6
:1025400072084CE0400F22E235E060E083EC96E058
:102550000E9472081092CC061093CD06CE010E9404
:102560001C108091C706982F990F890F81958D5A5D
:102570008093CC068091C806982F990F890F81957A
:10258000835D8093CD068091E60684FF03C084E0DE
:1025900096E002C080E096E00E94EA118091C706B2
:1025A000982F990F890F81958D5A8093CC06809131
:1025B000CD068F5F8093CD0680913906882319F070
:1025C0008CEF95E002C088EF95E00E94EA118091BF
:1025D000C706982F990F890F81958D5A8093CC0645
:1025E0008091CD068F5F8093CD0684EF95E00E94A9
:1025F000EA11809119068130C9F4809139068F5F04
:1026000060913A0687FD09C0082E000C990B70E016
:102610006F5F7F4F0E94B527682F6093390640E0B7
:102620006DE674E088E296E00E942F0D8091180616
:102630008130A9F08091E506482F50E060E070E01D
:10264000C090E606D090E706E090E806F090E90634
:10265000C416D506E606F706F8F08F3FE9F08FEFCF
:102660008093E50660E088E296E00E94060D1092F5
:102670002C0640E06AE175E088E296E00E942F0DAA
:1026800081E080931B06DF91CF911F910F91FF9006
:10269000EF90DF90CF90089580911A06813009F075
:1026A0003CCF0E94FA1139CFFC0180910007909134
:1026B0000107892B21F421E0309749F413C0809160
:1026C000FC069091FD06309731F421E0FC018081F9
:1026D000882341F006C0BF010E94B72821E0892B62
:1026E00009F020E0822F0895CF93DF93CDB7DEB7B6
:1026F0002F970FB6F894DEBF0FBECDBF789484B588
:10270000826084BD84B5816084BD85B5826085BDED
:1027100085B5816085BD80916E00816080936E007B
:10272000109281008091810082608093810080916D
:10273000810081608093810080918000816080931E
:1027400080008091B10084608093B1008091B000DE
:1027500081608093B00080917A00846080937A00D9
:1027600080917A00826080937A0080917A00816003
:1027700080937A0080917A00806880937A0010922A
:10278000C10082E38093F40681E090E0A0E0B0E035
:102790008093F0069093F106A093F206B093F306AF
:1027A0008FEF8093E506E0E8F7E72591349121303B
:1027B000304C09F049C0E6E9F7E7E491E093CE0632
:1027C000E7E9F7E7E491E0930706E8E9F7E7E49142
:1027D000E0930806E9E9F7E78591949190930A065A
:1027E00080930906EBE9F7E78591949190930C06A5
:1027F00080930B0687E080933A06EEE9F7E7E491D1
:10280000E0933906EFE9F7E7E491E093E506E0EAC3
:10281000F7E7859194919093200680931F06E2EA52
:10282000F7E7859194919093220680932106E4EA3C
:10283000F7E7859194919093240680932306E6EA26
:10284000F7E7859194912CC09CE39093CE0610926B
:1028500007068093080680E293E090930A0680932F
:10286000090684ED93E090930C0680930B0687E0B5
:1028700080933A06809339068CEA9DE09093200677
:1028800080931F068EED9DE0909322068093210693
:1028900084E79EE090932406809323068CE39FE0D8
:1028A00090932606809325066FEF70E08FEF0E94CD
:1028B000FF0A88E080930D0689E080930E0687E08A
:1028C00080930F0686E08093100654E05093110623
:1028D00082E08093120685E0809313060E949F1188
:1028E0008CE39FE090931E0680931D0664E0609346
:1028F0001C0681E0809327069BE09093D1069DE023
:102900009093D00690E19093D2069EE09093D406E7
:102910009FE09093D3068093CB068093E3061092BA
:10292000E4068093CA06E0EBF2E0E491EF5FE09307
:10293000C706E1EBF2E0E491EF5FE093C80682EBBB
:1029400092E09093E2068093E1067FB77983F89452
:102950008091A802811127C0E8EEF4E08491ECEFA9
:10296000F4E09491E82FF0E0EE0FFF1FEC58FF4FDA
:10297000A591B491EC91E92321F461E08AE00E94F1
:10298000940A61E08AE00E94C30A8CB580618CBD24
:102990008CB580648CBD61E08DE00E94C30A61E06B
:1029A0008BE00E94C30A8091A8028F5F8093A802E7
:1029B00089818FBF8CB58F7D8CBD8CB58C7F8160FC
:1029C0008CBD8DB581608DBD8CB58C608CBD61E09A
:1029D0008091D1060E94C30A61E08091D0060E94D6
:1029E000C30A61E08091D2060E94C30A8091D40696
:1029F00018161CF461E00E94C30A8091D3061816D1
:102A00001CF461E00E94C30A8091D406181674F485
:102A100060E00E94940A6AE070E080E090E00E942A
:102A2000830B61E08091D4060E94940A8091D006C5
:102A3000082E000C990BFC01E252FB4FE491F0E0F0
:102A4000EE0FFF1FE258FF4F259134913093D806C7
:102A50002093D706FC01EE50FB4FE491E093DE0695
:102A60008091D106082E000C990BFC01E252FB4F1D
:102A7000E491F0E0EE0FFF1FE258FF4F25913491F3
:102A80003093D6062093D506FC01EE50FB4FE4911F
:102A9000E093DD068091D306082E000C990BFC0113
:102AA000E252FB4FE491F0E0EE0FFF1FE258FF4FC0
:102AB000259134913093DA062093D906FC01EE502B
:102AC000FB4FE491E093DF068091D206082E000CC4
:102AD000990BFC01E252FB4FE491F0E0EE0FFF1F77
:102AE000E258FF4F259134913093DC062093DB06AA
:102AF000FC01EE50FB4FE491E093E00681E20E947E
:102B0000C20F84E10E94C20F8091CE0687FF03C0EE
:102B10008FE78093CE068091CE0680680E94C20F18
:102B200080E20E94C20F8CE00E94C20F0E94E10F5F
:102B300081E080933806BFEBEB2EB6E0FB2E0BE571
:102B400016E0198280E7C82E80E0D82ED701E1E098
:102B5000ED937D01D801CD92DD928D01498160E038
:102B600088E296E00E94070CB981BF5FB983B43058
:102B700069F761E070E083E00E94FF0A8091B10094
:102B8000887F81608093B100F89410928000109249
:102B90008100109285001092840088E191E090936A
:102BA00089008093880080918100886080938100F3
:102BB0008091810081608093810080916F008260AC
:102BC00080936F00789480911F0690912006892B46
:102BD00011F00E942F1280911906813011F00C948F
:102BE00035221092390688E28093F40681E08093C2
:102BF00038068091E506882321F086E990E00E945E
:102C00007612C0901D06D0901E06C094D094E12C80
:102C1000F12C0E945E0B4B015C010E945E0BA50132
:102C200094012095309540955095609570958095CC
:102C300090950E9499279B01AC01C701B6010E94A3
:102C400099276B017C0160910406709105064B0188
:102C5000A12CB12C0E945E0BDC01CB01880D991DCB
:102C6000AA1DBB1DBC01CD016C0D7D1D8E1D9F1DC0
:102C7000611571058105910511F00E94582587E2C3
:102C800092E00E949E0F10921B06ACE08A2E912CBF
:102C9000A12CB12C0E946803882311F40C942B22E0
:102CA0008DE292E00E9454138823F9F01092E10320
:102CB0001092E00383E08093DF031092DE03109212
:102CC000DD038FEF9FEF9093DC038093DB03109283
:102CD000DA031092D90380E197E29093D8038093AE
:102CE000D70385E392E00E949E0F85E392E00E9465
:102CF0005413882309F490C08091DE03880F8C5F01
:102D0000813408F080E48093D60366E9C62E63E040
:102D1000D62E76E5472E73E0572EE6E16E2EE3E0E1
:102D20007E2EF6EFEF2EF2E0FF2EE6E3F3E0FA83DD
:102D3000E9838091D60390E029813A81265333407C
:102D4000281739070CF05CC00E940A2520E431E006
:102D500040E050E00E945C268B01613A710514F05E
:102D600000541E4F0E940A25D6010D931D936D013C
:102D700020E830E040E050E00E945C26F2016193E0
:102D800071932F010E940A2524E030E040E050E0DA
:102D90000E945C26A981BA816D93BA83A9830E949F
:102DA0000A2524E030E040E050E00E945C26660FF7
:102DB000771FFB01ED59FE4F8081918197FD0396AE
:102DC0009595879595958795885FF30181933F0148
:102DD0000E940A25A50194010E945C26660F771FB8
:102DE000FB01E55BFE4F8081918197FD03969595F0
:102DF000879595958795885FD7018D937D0199CFAC
:102E000082E08093F5028EE392E00E949E0F88E2BA
:102E10008093F4021092F3028EE392E00E94541326
:102E2000882381F11092F2021092F1028FEF9FEF4E
:102E30009093F0028093EF0280E491E09093EE0291
:102E40008093ED0280EB90E09093EC028093EB0294
:102E50001092EA021092E9021092E8021092E70240
:102E60008091F502813039F41092F5021092DA0364
:102E70001092D90303C081E08093F50286E492E0CA
:102E80000E949E0F86E492E00E945413882311F45E
:102E90000C944C218091F502813009F042C1E091FF
:102EA000EF02F091F002FA83E983319609F0D0C085
:102EB000E090E902F090EA026091ED027091EE027A
:102EC0006E0D7F1D7093EE026093ED020091E7029C
:102ED0001091E8024091EB025091EC02400F511F1B
:102EE0005093EC024093EB028091D9039091DA0366
:102EF0009A83898389E0A981BA818A9F90018B9FF7
:102F0000300D112422533E4F57FF02C0495F5F4FDF
:102F100093E0559547959A95E1F777FF02C0695F71
:102F20007F4F83E0759567958A95E1F783EC96E08E
:102F30000E9472088091190681508E3F08F05EC091
:102F400060E070E088E090E00E94E80E69817A819C
:102F5000660F771F7A836983FB01E55DFE4F8081F1
:102F6000918197FD0796B3E095958795BA95E1F71E
:102F7000E80EF91EF092EA02E092E90289819A8154
:102F8000855F9E4FDC018D919C9197FD0796A3E094
:102F900095958795AA95E1F7800F911F9093E80288
:102FA0008093E702B9E0EB16F10434F028E030E05A
:102FB0003093EA022093E9022091E9023091EA027B
:102FC000283F3F4F34F428EF3FEF3093EA0220933D
:102FD000E902099734F088E090E09093E80280934A
:102FE000E7028091E7029091E802883F9F4F34F416
:102FF00088EF9FEF9093E8028093E7028091170695
:1030000081508E3F10F40C9453228091140681500D
:103010008E3F80F48091D9039091DA039C01215076
:10302000310937FD02C00C9479220F969093DA0390
:103030008093D9038091160681508E3F10F40C9432
:103040007F2280911806813009F062C00C948E2294
:10305000E981FA813197FA83E983F093F002E093F2
:10306000EF02CF0165E070E00E94B527892B31F4B3
:1030700060E070E081E090E00E94E80E89819A8132
:1030800066EF7FEF0E94B5276D5E7F4F7093C102A0
:103090006093C00289E0869F9001879F300D1124C4
:1030A00022533E4F4091EB025091EC0257FF02C079
:1030B000495F5F4FF3E055954795FA95E1F76091C9
:1030C000ED027091EE0277FF02C0695F7F4FE3E08F
:1030D00075956795EA95E1F783EC96E00E94720892
:1030E00029813A81232BA1F48FEF9FEF9093F00277
:1030F0008093EF028091DF0381508093DF03811181
:1031000003C08EE492E002C08EE392E00E949E0F24
:103110008091C0029091C10201969093C102809368
:10312000C0028091ED029091EE02883C3FEF930740
:1031300034F488569D4F9093EE028093ED02809177
:10314000ED029091EE02893942E0940734F08859FB
:1031500092409093EE028093ED028091EB02909169
:10316000EC02883C5FEF950734F488589E4F9093AB
:10317000EC028093EB028091EB029091EC02893794
:1031800061E0960734F0885791409093EC02809369
:10319000EB028091BF02813011F48093F50280919F
:1031A0001A06813061F48091E506882321F083ECD2
:1031B00091E00E94761287E292E00E949E0F1092A8
:1031C000C1021092C002D090E6020D2D10E0E090F6
:1031D000C002F090C102E016F1060CF0B6C0270163
:1031E000440C551CF201E253FD4FD201A252BD4FD7
:1031F000208131818D919C91280F391F318320834B
:10320000B2016A537D4FC2018A529D4FDB014D913D
:103210005C91DC018D919C91840F951FDB018D9356
:103220009C9337FF04C028563D4F31832083F20121
:10323000E253FD4F208131812939B2E03B0724F070
:10324000285932403183208397FF07C0F201EA53A7
:10325000FD4F88589E4F91838083F201EA53FD4FC2
:1032600080819181893721E0920724F0885791402D
:1032700091838083A7014E535D4F3A01DA01CC90D0
:10328000C394CC92F201EA53FD4F4081518157FF24
:1032900002C0495F5F4F63E0559547956A95E1F736
:1032A000F201E253FD4F6081718177FF02C0695FD7
:1032B0007F4F33E0759567953A95E1F72EEB31E056
:1032C00083EC96E00E947208BEE1BC15B0F5015097
:1032D0001109C801880F991FFC01E253FD4F20819D
:1032E0003181F201E253FD4F31832083FC01EA5327
:1032F000FD4F20813181F201EA53FD4F318320835C
:10330000FC01E252FD4F20813181F201E252FD4F7A
:1033100031832083FC01EA52FD4F80819181F201CB
:10332000EA52FD4F91838083F801EE53FD4F808177
:10333000D3018C93DA94D092E602BFEFEB1AFB0A2A
:10334000F092C102E092C0023ECF81E08093BF02C2
:103350001092C1021092C002E091D603EB832E2F8F
:1033600030E03D832C834091C0025091C1025A83CA
:103370004983421753070CF0C0C34A505D4F598729
:103380004887DA016C9170E068507109072E000CD3
:10339000880B990B0E9463252B013C01E981FA817E
:1033A000EA5EFC4F608170E068507109072E000CE6
:1033B000880B990B0E9463256B017C0129803A8060
:1033C000220C331CF101EA56FC4FFF83EE8360812F
:1033D0007181072E000C880B990B0E9463259B01BD
:1033E000AC01C701B6010E94F7260E9463277B014A
:1033F000AE81BF816D937C9381010A5A1C4FF80105
:1034000060817181072E000C880B990B0E94632547
:10341000A30192010E94F7260E946327AB01D80105
:103420006D937C93B0EBEB16BFEFFB0634F428E909
:1034300032E0EE81FF8131832083F101EA56FC4FB7
:10344000208131812939324024F080EB9FEF918334
:103450008083403B5F4F3CF4F101EA5AFC4FA8E700
:10346000B1E0B183A083F101EA5AFC4F80819181E0
:103470008937914024F020EB3FEF3183208349814D
:103480005A814A5C5C4F5B874A87DA011C91F101E3
:10349000EA5AFC4F208131813D872C87F101EA56A1
:1034A000FC4F4080518046E1149F900111242A5422
:1034B0003F4F4C855D8557FF02C0495F5F4F83E0FA
:1034C000559547958A95E1F7B20157FE02C0695FAD
:1034D0007F4F03E0759567950A95E1F783EC96E0D9
:1034E0000E947208143020F088E1183020F401C0E6
:1034F00088E090E001C098E0890F8093BE0214300C
:1035000020F028E3183020F401C028E490E001C046
:1035100098E0291B2093BD024091ED025091EE02EC
:1035200030E06201C20ED31EBA01685F7F4F90E0A7
:103530006C157D058CF5495D5F4FB201680F791FF1
:10354000461757074CF14091EB025091EC02FA01FB
:1035500038966C857D85620F731FE617F707E4F4D4
:10356000495D5F4F6C857D85680F791F461757074A
:103570009CF06091F502613079F44091EF02509136
:10358000F0024F3F5F4F41F4A8E2B0E0B093F00289
:10359000A093EF026093BC023201680E791E609125
:1035A000BA027091BB02FB01B0960091DD030130BD
:1035B00019F040E050E002C040E150E04E0F5F1FC4
:1035C00064167506D4F56C157D05BCF5EC85FD8596
:1035D000E80FF91F6091B8027091B902DB015096B3
:1035E000013019F040E050E002C040E150E04A0FE5
:1035F0005B1FE417F5070CF54C855D85420F531FE3
:1036000064177507D4F40023C1F04091E003509192
:10361000E10348535F4F023019F060E070E002C0F0
:1036200060E273E0460F571F5093E1034093E003BD
:1036300041E04093BC021092DD036091DB03709186
:10364000DC036C157D052CF5AB01415F5F4F461522
:103650005705FCF04091B6025091B702EC85FD850C
:10366000E20FF31F4E175F07A4F4415F5F4FEC8535
:10367000FD85E80FF91F4E175F075CF077FD09C065
:1036800041E04093BC02EFEFFFEFF093DC03E093E7
:10369000DB03E090E602F12C0091BC02E2ECF2E0E8
:1036A0004EEC52E05F834E8366EC72E07F876E875C
:1036B00040E050E0AC85BD852A0F3B1F8A0F9B1F61
:1036C0004E155F0554F5AE81BF816D917D91BF832D
:1036D000AE836C157D05BCF4615F7F4F6615770581
:1036E00094F0AE85BF856D917C91621773075CF491
:1036F000615F7F4F6817790734F06081623318F497
:10370000B2E3B08301E04F5F5F4F31966E857F85F6
:103710006E5F7F4F7F876E87D3CF5093B502409304
:10372000B4020093BC02013009F0B1C18091F402EF
:10373000863010F490E001C092E0891B8093F4027F
:10374000143018F481E090E002C082E090E021E0C3
:1037500030E0183010F420E030E062E070E0820FDA
:10376000931F0E94E80E1092BC022091E00330915A
:10377000E103C9014496143018F420E030E002C09F
:103780002EE130E0280F391F183018F082E390E066
:1037900002C080E090E0280F391F3093E1032093AE
:1037A000E003183008F037C18C819D81880F991F84
:1037B000FC01EA56FC4F70E1470E511C51824082D9
:1037C000FC01EA5AFC4F8C859D854096918380834D
:1037D000F101EA56FC4F808191814096918380836C
:1037E000F101EA5AFC4F8081918140969183808358
:1037F0000E940A2524E030E040E050E00E945C2670
:10380000E091C002F091C102EA5CFC4F80818430FB
:1038100010F480E001C084E0EC81FD81EA5CFC4FA3
:103820006C5F860F80830E940A2524E030E040E030
:1038300050E00E945C26E091C002F091C102EA5C77
:10384000FC4F8081843010F480E001C084E06C5F24
:10385000860F80839091D603A92FB0E0BA83A98305
:103860000E940A25E981FA81EA5EFC4FFA83E98326
:10387000A50194010E945C26660F771FFB01ED599C
:10388000FE4F8081918197FD03969595879595953B
:103890008795885FA981BA818C93B091D603EB2F6D
:1038A000F0E0FA83E9830E940A2529813A812A50AF
:1038B0003D4F3A832983A50194010E945C26660F3F
:1038C000771FFB01E55BFE4F8081918197FD039699
:1038D0009595879595958795885FA981BA818C93F1
:1038E000E091C002F091C102FA83E9830E940A25A7
:1038F00029813A812A5E3C4F3A832983A5019401AC
:103900000E945C26660F771FFB01ED59FE4F8081F8
:10391000918197FD019695958795885FA981BA81D8
:103920008C93E091C002F091C102FA83E9830E9476
:103930000A2529813A812A503D4F3A832983A501DE
:1039400094010E945C26660F771FFB01E55BFE4F2A
:103950008081918197FD019695958795885FA981D2
:10396000BA818C93E091C002F091C102BF016A5EFE
:103970007C4FDB012C918091D60390E08C010A5E94
:103980001C4FD8013C9123130FC0EA50FD4F3081EA
:103990008C010A501D4FD8014C91341305C021955C
:1039A000DB012C9331953083FC01EA5CFC4F808174
:1039B000883008F005C60E940A2522E030E040E089
:1039C00050E00E945C26613071058105910509F483
:1039D000F7C5E091C002F091C102EA5CFC4F808122
:1039E000883008F030C60E940A2522E030E040E02E
:1039F00050E00E945C26613071058105910509F453
:103A000022C68091D60391E0803208F090E0890FC1
:103A10008093D6033CC06B8161506093D603862FA0
:103A200090E09C01220F331FF901EA56FC4F4081C0
:103A30005181F101EA56FC4F51834083F901EA5A62
:103A4000FC4F20813181F101EA5AFC4F3183208300
:103A5000FC01EA5CFC4F2081EA85FB852083FC01A8
:103A6000EA5EFC4F2081E981FA81EA5EFC4F208307
:103A7000FC01EA50FD4F8081A885B9858C936111C6
:103A800006C08CE390E09093F2028093F1022091C3
:103A9000C0023091C102B901660F771FFB01EA56DF
:103AA000FC4F0190F081E02D8091BD0290E0AF01CC
:103AB000480F591F493B5105CCF04091BE0250E0E0
:103AC000E40FF51FE83EF1408CF4FB01EA5AFC4F8D
:103AD00060817181860F971F893491053CF0460FF4
:103AE000571F4833514014F41092BF022F5F3F4FCD
:103AF0003093C1022093C0022FCC8091F1029091AB
:103B0000F2021816190684F401979093F20280933A
:103B1000F102892B49F48091DE038F5F8093DE03ED
:103B200085E392E00E949E0FFB81F83008F0A8C068
:103B30008091E0039091E103853F91400CF4A0C097
:103B40008091DD03882361F12091BA023091BB029C
:103B50008091B2029091B302820F931F9093BB02A7
:103B60008093BA024091B8025091B9022091B002FC
:103B70003091B102420F531F5A8349835093B902C7
:103B80004093B80265E070E00E94B527892B09F0E8
:103B90007CC063E070E084E090E00E94E80E75C0B5
:103BA0000E940A252AEF30E040E050E00E945C26A7
:103BB00062307105810591050CF062C0C090DE0392
:103BC000D12CB4E0CB0ED11C0D2C000CEE08FF085C
:103BD0000E940A25A70196010E945C2663307105A8
:103BE000810591050CF072C581E08093DD0388ECBE
:103BF0009FEF9093BB028093BA0283E090E0909392
:103C0000B3028093B2020E940A2522E030E040E035
:103C100050E00E945C26672B682B692B61F480EAD8
:103C200092E09093BB028093BA028DEF9FEF909346
:103C3000B3028093B2020E940A2520E431E040E002
:103C400050E00E945C26605E7F4F7093B9026093E3
:103C5000B8020E940A2523E030E040E050E00E94D4
:103C60005C26DC01CB010197A109B1099C01220F5F
:103C7000331FB901680F791F7093B1026093B002CE
:103C80008091DD03811160CFC8C069817A81683D70
:103C90007F4F34F480E891E09093B9028093B802AA
:103CA0008091B8029091B9028138914034F088ED4A
:103CB0009FEF9093B9028093B8020E940A2522E3F5
:103CC00030E040E050E00E945C26623071058105E2
:103CD0009105BCF40E940A2523E030E040E050E06A
:103CE0000E945C26DC01CB010197A109B1099C016E
:103CF000220F331FB901680F791F7093B1026093CF
:103D0000B002E091BA02F091BB02FA83E983CF01DD
:103D1000C896893D924010F01092DD03F090DD03CB
:103D20000091B8021091B9028F2D90E0019747E001
:103D3000489F9001499F300D112428553F4FA801FD
:103D400017FF02C0495F5F4FF3E055954795FA951D
:103D5000E1F769817A8177FF02C0695F7F4FE3E015
:103D600075956795EA95E1F783EC96E00E947208F5
:103D70008091ED029091EE029C01295D3F4F4981B7
:103D80005A81241735070CF448C0405E5F4F5A83B0
:103D9000498351E0F51619F020E030E002C020E13F
:103DA00030E069817A81620F731F08968617970742
:103DB000A4F58091EB029091EC029C01295D3F4FAC
:103DC0002017310754F1005F1F4F71E0F71619F00B
:103DD00020E030E002C020E130E0020F131F08961F
:103DE00080179107D4F4FF20C1F08091F502813053
:103DF000A1F48091EF029091F002019671F410927B
:103E0000DD0388E290E09093F0028093EF0262E09D
:103E100070E081E090E00E94E80E1092B5021092EE
:103E2000B40202E3E091B402F091B502FA83E983AF
:103E30008091E60290E01091DD03E817F9070CF09D
:103E40006FC0CF01880F991FFC01E253FD4F208105
:103E500031816091BA027091BB02FB01B0961130C2
:103E600019F040E050E002C040E150E04E0F5F1F0B
:103E7000241735070CF04BC0215F3F4F261737073B
:103E80000CF445C0FC01EA53FD4F808191814091C3
:103E9000B8025091B902BA01605F7F4F113019F03A
:103EA00020E030E002C020E130E0260F371F82170B
:103EB00093076CF50F96841795074CF129813A8189
:103EC0002E533D4F7901D9018C91823300F5112396
:103ED000F1F060E070E083E090E00E94E80E8091F5
:103EE000E0039091E1039C0128533F4F123019F0F9
:103EF00080E090E002C080E293E0820F931F9093F5
:103F0000E1038093E0031092DD03F7010083298130
:103F10003A812F5F3F4F3093B5022093B40282CF96
:103F2000112309F497C04091DB035091DC035A83BD
:103F300049834F3F5F4F09F097C08091BA0290913B
:103F4000BB029A83898389978733924008F013C113
:103F500060E070E089E090E00E94E80EE981FA817B
:103F60007896F093DC03E093DB038091B8029091A4
:103F7000B90240969093B7028093B6020E940A2538
:103F800023E030E040E050E00E945C26DC01CB0101
:103F90000197A109B109BC0133E0660F771F3A957B
:103FA000E1F77093AF026093AE020E940A2523E00E
:103FB00030E040E050E00E945C26DC01CB0101973C
:103FC000A109B109BC0143E0660F771F4A95E1F7EB
:103FD0007093AD026093AC028091DD03823041F5B5
:103FE0002091BA023091BB028091ED029091EE02D5
:103FF000281739071CF088EF9FEF02C088E090E097
:104000009093AF028093AE022091B8023091B90232
:104010008091EB029091EC02281739071CF088EF91
:104020009FEF02C088E090E09093AD028093AC02D5
:104030008091AE029091AF02892B61F48091AC0225
:104040009091AD02892B31F488E090E09093AF021B
:104050008093AE022091DB033091DC033A83298305
:104060002F3F3F4F09F487C08091AE029091AF027D
:1040700069817A81680F791F7A8369837093DC0381
:104080006093DB030091B6021091B7028091AC02FD
:104090009091AD02080F191F1093B7020093B6025A
:1040A000A80117FF02C0495F5F4F23E05595479570
:1040B0002A95E1F769817A8177FF02C0695F7F4FB6
:1040C00093E0759567959A95E1F72EEB31E083ECD7
:1040D00096E00E94720889819A818939924020F481
:1040E0000937B1E01B0730F08FEF9FEF9093DC03AF
:1040F0008093DB032091ED023091EE028091DB038F
:104100009091DC03A901495D5F4F481759079CF165
:10411000AC01495F5F4F421753076CF12091EB02EE
:104120003091EC02A901495D5F4F401751071CF126
:10413000095F1F4F02171307F4F097FD1CC0809111
:10414000F5028130C1F48091EF029091F0028F3F2F
:10415000EFEF9E0781F49093DC038093DB0388E20A
:1041600090E09093F0028093EF0262E070E081E0D3
:1041700090E00E94E80E2091E0033091E1033A8341
:1041800029830091D7031091D803201731078CF0B1
:1041900063E070E085E090E00E94E80E8091DF032C
:1041A0008F5F8093DF03005F184D1093D803009357
:1041B000D70381E090E09093C1028093C002009108
:1041C000C0021091C1028091DF0390E00817190727
:1041D000ACF4B80161507109862F880F680F660F23
:1041E0002EEC31E040E083EC96E00E9472080F5F15
:1041F0001F4F1093C1020093C002E1CF49815A8141
:104200004A3051052CF086E24436510524F401C0B1
:1042100088E290E001C092E0891B69817A81683E62
:10422000734014F490E001C092E0891BA981BA8127
:10423000A031B74214F490E001C092E0891B809352
:10424000CC061092CD0669817A8183EC96E00E94BB
:104250003D108CE48093CC066091DE0370E06F5FCC
:104260007F4F83EC96E00E943D108091AB028F5F00
:104270008093AB029091F402981770F41092AB0205
:104280008091F3028F5F81708093F30290E061E090
:1042900070E006960E94E80E87E292E00E945413B6
:1042A000882309F481C08091E0039091E10320917B
:1042B000A9023091AA022817390724F49093AA0280
:1042C0008093A9021092CC061092CD0667E572E0A9
:1042D00083EC96E00E940D0A6091E0037091E10387
:1042E0006A3071052CF08CE06436710524F401C04D
:1042F0008EE090E001C092E0891B683EF3E07F070A
:1043000014F490E001C092E0891B8093CC0686E013
:104310008093CD0683EC96E00E943D106091A90247
:104320007091AA026A3071052CF080E46436710540
:1043300024F401C082E490E001C092E0891B683E51
:1043400023E0720714F490E001C092E0891B80938F
:10435000CC0686E08093CD0683EC96E00E943D106B
:1043600022E235E04DE06AE083EC96E00E947208BC
:104370001092CC068AE28093CD066BE672E083EC65
:1043800096E00E940D0A80911806813009F4A0C1C0
:1043900080911A06813041F48091E506882321F04E
:1043A00081EA90E00E9476128EE492E00E9454131B
:1043B000882309F450C01092E3061092E40630E11D
:1043C000398327E2498166E183EC96E00E94BC0DC7
:1043D00049814F5F49834931A1F781E08093E3062A
:1043E0008093E40688E18093CC0682E18093CD0639
:1043F00060E872E083EC96E00E940D0A27E240E15B
:1044000066E183EC96E00E94BC0D27E248E166E19C
:1044100083EC96E00E94BC0D29E040E166E183EC6C
:1044200096E00E94CC0E29E040E16CE383EC96E03C
:104430000E94CC0E84E08093CC068AE28093CD0665
:104440006AE872E083EC96E00E940D0A80911906FA
:10445000813009F449C180E090E0892B11F40C947B
:104460004A160E9400000C944A1640E068E870E08A
:1044700088E296E00E942F0D41E068E870E088E253
:1044800096E00E942F0D42E068E870E088E296E036
:104490000E942F0D43E068E870E088E296E00E94F9
:1044A0002F0D0C94F3150E940A2520E532E040E020
:1044B00050E00E945C26685D7F4F7093EE0260932F
:1044C000ED020E940A2520E331E040E050E00E9426
:1044D0005C26685D7F4F7093EC026093EB02109254
:1044E000EA021092E9021092E8021092E7020C949C
:1044F00005183093DA032093D9030C941A1880918D
:10450000D9039091DA03019660E170E00E94B5272B
:104510009093DA038093D9030C9421184091E6021A
:10452000443010F00C948818642F70E02091D90367
:104530003091DA03220F331FF901E55DFE4FA081B0
:10454000B181CB01880F991FFC01E252FD4FB1836D
:10455000A083F901E55FFE4F008111819C012A5281
:104560003D4FF901118300839C0122533D4F790196
:104570002091ED023091EE02205F3F4F2A0F3B1F4A
:10458000D7012D933C93DC01AA53BD4F2091EB0240
:104590003091EC02205F3F4FF801E20FF31FED93E3
:1045A000FC93FB01EE53FD4F10824F5F4093E602F8
:1045B00060E070E080E090E00E94E80E0C948818C3
:1045C000E091D6032E2F30E03A8329830E940A25FA
:1045D00049815A814A5E5C4F5A834983A5019401FF
:1045E0000E945C26660F771FFB01ED59FE4F80810C
:1045F000918197FD019695958795885FA981BA81EC
:104600008C93B091D603EB2FF0E0FA83E9830E94FC
:104610000A2529813A812A503D4F3A832983A501F1
:1046200094010E945C26660F771FFB01E55BFE4F3D
:104630008081918197FD019695958795885FA981E5
:10464000BA818C93C6C9E091C002F091C102FA838D
:10465000E9830E940A2529813A812A5E3C4F3A83E8
:104660002983A50194010E945C26660F771FFB0138
:10467000ED59FE4F8081918197FD01969595879523
:10468000885FA981BA818C93E091C002F091C10248
:10469000FA83E9830E940A2529813A812A503D4FF5
:1046A0003A832983A50194010E945C26660F771F37
:1046B000FB01E55BFE4F8081918197FD0196959509
:1046C0008795885FA981BA818C939BC982E08DCA46
:1046D0008DE292E00E949E0F40E06AE175E088E280
:1046E00096E00E942F0D54CE87E292E00E949E0F2A
:1046F00040E06AE175E088E296E00E942F0DABCEC3
:104700008091FC069091FD060C9436241092C6060A
:104710001092C5068FE192E09093C4068093C30681
:10472000ECEFF6E01182108213821282158214825D
:1047300060E070E080EA92E00C944C0F0F931F93BE
:10474000CF93DF938230910510F482E090E0E09106
:104750000407F091050720E030E0A0E0B0E03097DA
:1047600019F1408151810281138148175907C8F01E
:104770008417950769F4109731F012960C931297ED
:1047800013961C9327C0009304071093050722C0BB
:104790002115310519F04217530718F49A01BD018C
:1047A000EF01DF01F801DBCF21153105F9F0281BFE
:1047B000390B2430310580F48A819B8161157105A4
:1047C00021F0FB019383828304C0909305078093BB
:1047D0000407FE01329644C0FE01E20FF31F8193ED
:1047E000919322503109398328833AC020910207DE
:1047F00030910307232B41F42091030130910401F0
:1048000030930307209302072091010130910201A8
:104810002115310541F42DB73EB740910501509166
:104820000601241B350BE0910207F0910307E21704
:10483000F307A0F42E1B3F0B2817390778F0AC01C3
:104840004E5F5F4F2417350748F04E0F5F1F5093A0
:104850000307409302078193919302C0E0E0F0E0E8
:10486000CF01DF91CF911F910F910895CF93DF93E7
:10487000009709F481C0FC01329713821282A09143
:104880000407B0910507109781F420813181820FD0
:10489000931F20910207309103072817390751F51C
:1048A000F0930307E093020767C0ED0120E030E0DA
:1048B000CE17DF0740F44A815B819E014115510507
:1048C000F1F0EA01F5CFD383C28340815181840F97
:1048D000951FC817D90759F488819981840F951FAE
:1048E0000296918380838A819B81938382832115A1
:1048F000310529F4F0930507E09304073DC0E90171
:10490000FB83EA8349915991C40FD51FEC17FD072A
:1049100061F480819181840F951F0296E90199834A
:104920008883828193819B838A83E0E0F0E0129602
:104930008D919C911397009719F0FD01DC01F7CF41
:104940008D919C9111979D012E5F3F4F820F931F78
:1049500020910207309103072817390769F430972F
:1049600029F4109205071092040702C013821282E4
:10497000B0930307A0930207DF91CF9108958F9220
:104980009F92AF92BF92CF92DF92EF92FF92CF931E
:10499000DF93EC01688179818A819B8161157105C2
:1049A0008105910521F464E279ED8BE597E02DE135
:1049B00033EF41E050E00E945C2649015A019B011F
:1049C000AC01A7EAB1E40E947B266B017C01ACEE4E
:1049D000B4EFA50194010E948926DC01CB018C0D66
:1049E0009D1DAE1DBF1DB7FF03C00197A109B048B3
:1049F00088839983AA83BB83BC01CD019F77DF9114
:104A0000CF91FF90EF90DF90CF90BF90AF909F90AD
:104A10008F9008958F929F92AF92BF92CF92DF9224
:104A2000EF92FF9260910701709108018091090156
:104A300090910A01611571058105910521F464E2E7
:104A400079ED8BE597E02DE133EF41E050E00E94F6
:104A50005C2649015A019B01AC01A7EAB1E40E941E
:104A60007B266B017C01ACEEB4EFA50194010E94A2
:104A70008926DC01CB018C0D9D1DAE1DBF1DB7FF2E
:104A800003C00197A109B0488093070190930801E2
:104A9000A0930901B0930A01BC01CD019F77FF905B
:104AA000EF90DF90CF90BF90AF909F908F90089540
:104AB00060930701709308018093090190930A01A4
:104AC0000895E89409C097FB3EF490958095709501
:104AD00061957F4F8F4F9F4F9923A9F0F92F96E94A
:104AE000BB279395F695879577956795B795F111BF
:104AF000F8CFFAF4BB0F11F460FF1BC06F5F7F4F5C
:104B00008F4F9F4F16C0882311F096E911C077236D
:104B100021F09EE8872F762F05C0662371F096E876
:104B2000862F70E060E02AF09A95660F771F881F45
:104B3000DAF7880F9695879597F908950E94B12521
:104B40000C9422260E94142638F00E941B2620F086
:104B5000952311F00C940B260C94112611240C941F
:104B600056260E94332670F3959FC1F3950F50E0AF
:104B7000551F629FF001729FBB27F00DB11D639F0F
:104B8000AA27F00DB11DAA1F649F6627B00DA11DB5
:104B9000661F829F2227B00DA11D621F739FB00D5B
:104BA000A11D621F839FA00D611D221F749F3327CB
:104BB000A00D611D231F849F600D211D822F762F64
:104BC0006A2F11249F5750409AF0F1F088234AF041
:104BD000EE0FFF1FBB1F661F771F881F91505040AD
:104BE000A9F79E3F510580F00C940B260C94562695
:104BF0005F3FE4F3983ED4F3869577956795B79534
:104C0000F795E7959F5FC1F7FE2B880F911D96954D
:104C1000879597F9089597F99F6780E870E060E0BD
:104C200008959FEF80EC089500240A941616170645
:104C300018060906089500240A941216130614068D
:104C400005060895092E0394000C11F4882352F0F0
:104C5000BB0F40F4BF2B11F460FF04C06F5F7F4FA8
:104C60008F4F9F4F089557FD9058440F551F59F08F
:104C70005F3F71F04795880F97FB991F61F09F3F49
:104C800079F087950895121613061406551FF2CF72
:104C90004695F1DF08C0161617061806991FF1CFC2
:104CA00086957105610508940895E894BB276627E9
:104CB0007727CB0197F90895052E97FB1EF40094F2
:104CC0000E94732657FD07D00E94C52607FC03D01B
:104CD0004EF40C94732650954095309521953F4F96
:104CE0004F4F5F4F089590958095709561957F4FD8
:104CF0008F4F9F4F08950E94E726A59F900DB49F68
:104D0000900DA49F800D911D11240895B7FF0C9460
:104D10007B260E947B26821B930B08952F923F9245
:104D20004F925F926F927F928F929F92AF92BF92BB
:104D3000CF92DF92EF92FF920F931F93CF93DF9367
:104D4000CDB7DEB7CA1BDB0B0FB6F894DEBF0FBEC4
:104D5000CDBF09942A88398848885F846E847D8411
:104D60008C849B84AA84B984C884DF80EE80FD8013
:104D70000C811B81AA81B981CE0FD11D0FB6F89489
:104D8000DEBF0FBECDBFED010895A1E21A2EAA1B12
:104D9000BB1BFD010DC0AA1FBB1FEE1FFF1FA217EB
:104DA000B307E407F50720F0A21BB30BE40BF50BE8
:104DB000661F771F881F991F1A9469F76095709571
:104DC000809590959B01AC01BD01CF010895A29FF4
:104DD000B001B39FC001A39F700D811D1124911DCF
:104DE000B29F700D811D1124911D08955058BB274D
:104DF000AA270E940E270C9422260E94142638F01F
:104E00000E941B2620F039F49F3F19F426F40C94DD
:104E100011260EF4E095E7FB0C940B26E92F0E9477
:104E2000332658F3BA17620773078407950720F0F3
:104E300079F4A6F50C9455260EF4E0950B2EBA2FB6
:104E4000A02D0B01B90190010C01CA01A001112490
:104E5000FF27591B99F0593F50F4503E68F11A163C
:104E6000F040A22F232F342F4427585FF3CF4695CD
:104E700037952795A795F0405395C9F77EF41F16EF
:104E8000BA0B620B730B840BBAF09150A1F0FF0FB9
:104E9000BB1F661F771F881FC2F70EC0BA0F621FA5
:104EA000731F841F48F4879577956795B795F79595
:104EB0009E3F08F0B0CF9395880F08F09927EE0F2A
:104EC0009795879508950E946A276894B1110C946C
:104ED000562608950E943B2688F09F5798F0B92FD8
:104EE0009927B751B0F0E1F0660F771F881F991F1F
:104EF0001AF0BA95C9F714C0B13091F00E94552646
:104F0000B1E008950C945526672F782F8827B85F55
:104F100039F0B93FCCF3869577956795B395D9F776
:104F20003EF490958095709561957F4F8F4F9F4F80
:104F30000895DB018F939F930E947B26BF91AF91D1
:104F4000A29F800D911DA39F900DB29F900D1124E3
:104F50000895991B79E004C0991F961708F0961BD5
:104F6000881F7A95C9F78095089597FB072E16F448
:104F7000009407D077FD09D00E94C92707FC05D00F
:104F80003EF4909581959F4F0895709561957F4F60
:104F90000895AA1BBB1B51E107C0AA1FBB1FA61780
:104FA000B70710F0A61BB70B881F991F5A95A9F7D2
:104FB00080959095BC01CD010895EE0FFF1F0590DF
:104FC000F491E02D0994A0E0B0E0E9EEF7E20C9452
:104FD0009226EC01009721F4CB010E949E23B4C0DD
:104FE000FC01E60FF71F9C0122503109E217F3077D
:104FF00008F4A8C0D9010D911C9111970617170745
:10500000B0F00530110508F49BC0C801049786175D
:10501000970708F495C002501109061B170B01935E
:1050200011936D937C93CF010E94362489C05B015C
:10503000A01AB10A4C01800E911EA0910407B091F4
:105040000507612C712CE12CF12C109709F446C056
:105050008D919C911197A815B905B1F56C0142E0AD
:10506000C40ED11CCA14DB0478F14C018A189B08C9
:10507000640142E0C40ED11C1296BC9012971396A4
:10508000AC91B5E0CB16D10440F0B282A3839182FB
:105090008082D9016D937C9309C00E5F1F4F800FF2
:1050A000911FF90191838083EB2DFA2FE114F10414
:1050B00031F0D7011396FC93EE93129741C0F09311
:1050C0000507E09304073CC06816790608F43C0124
:1050D0007D0112960D90BC91A02DB7CF8091020753
:1050E0009091030788169906E1F466167706C8F4CE
:1050F0008091010190910201009741F48DB79EB714
:105100004091050150910601841B950BE817F907A2
:10511000C8F4F0930307E0930207F90171836083F9
:105120000FC0CB010E949E237C01009759F0A8017B
:10513000BE010E94AE28CE010E943624C70104C0E1
:10514000CE0102C080E090E0CDB7DEB7EEE00C9477
:10515000AE2681E090E0F8940C94C728FB01DC01B6
:1051600002C001900D9241505040D8F70895FB01C4
:10517000DC018D91019080190110D9F3990B0895EC
:10518000FB01DC0101900D920020E1F7089513E08E
:10519000CDE3D3E004C0FE010E94DD272196CE338B
:0851A000D107C9F7F894FFCF15
:1051A8000100000607800001000000F8FFF8FFF882
:1051B800FFFCFF00000400080008000800080008C1
:1051C8000004000000FCFFF8FFF8FF0000040008DE
:1051D80000080008000800080004000000FCFFF8B0
:1051E800FFF8FFF8FFF8FFF8FFFCFFF8FF0800F8EA
:1051F800FF0800F8FFFCFF0400080008000400FC9A
:10520800FFF8FF04000400FCFFFCFF08000800088A
:10521800000800F8FFF8FFF8FFF8FF000024003945
:10522800000100010001000500060001000F00391F
:105238000001000100020007000800010014003905
:1052480000010001000200070008000100190039F0
:105258000001000100020007000800000000000231
:10526800000100000000000400050000003A0000F2
:105278000000000000000007000800000000000017
:105288000000000200010007000300000002000007
:10529800000000020001000700030001000C003AB2
:1052A800000000000000000700020000002800398C
:1052B800000100010001000600060000000000D8FF
:1052C8000DB609010A000A7469746C65006E657789
:1052D80067616D65006E65776C6576656C006E65F7
:1052E800776C6966650072756E6E696E67006761D6
:1052F8006D656F7665720020204C41535420202044
:10530800202020202020484947480020413A2050AA
:105318004C41592020202020433A2051554954001F
:1053280047414D45204F5645520050524553532052
:105338004220544F20434F4E54494E5545000D0AC4
:08534800004C4F4144455200A6
:00000001FF
