:100000000C94DB060C9403070C9403070C94030771
:100010000C9403070C9403070C9403070C94030738
:100020000C9403070C9403070C9403070C943018EA
:100030000C9403070C9403070C9403070C94030718
:100040000C943D160C9403070C9403070C940307BF
:100050000C9403070C9403070C9403070C940307F8
:100060000C9487160C9403070101FF030101F703A9
:100070004A6F696E2028736C6176652900486F733A
:100080007420286D617374657229005369676C650B
:1000900020706C61796572006C00680000000000DF
:1000A000240027002A0000000000250028002B0063
:1000B000050089300802380249786814000050723F
:1000C00065737320616E79206B657900581B0000A1
:1000D0000000000000001100000008800030180C33
:1000E000FF22220004444F80381C0CC1D445000A72
:1000F00022B840681C1CC0088880111100204C1ECA
:1001000014C045524024AA20204C1A24C0A2292001
:1001100049445000C41A24FD1004909200880086BF
:100120001B24C0A22920494451E1FE1944C0455274
:100130004024AA2021821944C00C88801113002178
:100140000319C4C01245000A248023011884C0A9E1
:10015000220004495E62019884FF4480000012215D
:100160008000000000000000000880040000000083
:1001700011000004444F8900DFE3F9A222000A22A3
:10018000B9D18090020A54450011110940819002B2
:100190000408888024AA2130C190020245524049B7
:1001A00044511841100202A22920920089F8431FED
:1001B000E20D100490494450F8621003F8A229207F
:1001C00024AA20F826100230455240111300F034C2
:1001D0001002180C88800A248FE01410020F1245B8
:1001E00000044953C818100204A922000012200478
:1001F000081FE202448000080570F8702070583033
:10020000000000000000000000000060000000008E
:100210000000000000C09FC0000000000000007F40
:100220002090200000000000000081206017FFFFE8
:10023000FFFFFFFFFD00C020F60C10410410000579
:10024000E080215514975D55D5266550802154A531
:10025000914555150225508020F444974D75D6627E
:1002600025E0801024A494451455222481000FC554
:1002700015D75D15D577747E000CC60C104104109F
:10028000000466000CC7FFFFFFFFFFFFFC66000BCA
:1002900044041041041000045A000484E410410492
:1002A00010000424000705141041041000041C0071
:1002B0000005B41041041000040000800D541041EA
:1002C0000410000600204795B41041041000051EDC
:1002D000402FC404104104100004BF000BE7FFFFCF
:1002E000FFFFFFFFFC2F8033F404104104100004D3
:1002F000CFC063F4E41041041000058FC07E35B414
:10030000104104100005F8C04035141041041000DD
:100310000500C040255410410410000500807224DF
:10032000A4104104100005C88025140410410410D5
:1003300000049440288FFFFFFFFFFFFFFCA2204531
:1003400014041041041000051440A224E4104104D8
:1003500010000688801055541041041000044140DC
:1003600028CDF4104104100004A3204525F41041C9
:100370000410000514808894E41041041000062243
:1003800040104C04104104100004412028A7FFFF36
:10039000FFFFFFFFFCA2804514041041041000057C
:1003A00014400884E4104104100004220015455450
:1003B00010410410000455002225F41041041000DF
:1003C0000488804895F4104104100005224025243B
:1003D000E4104104100004948012440410410410FD
:1003E000000449000887FFFFFFFFFFFFFC22000514
:1003F00000000000000000001400020000000000E7
:1004000000000008000000000000000000000000E4
:10041000050068013801000005003801680100008E
:100420008B007D007000080420C030A00101010194
:1004300001010101010101010101010101010101AC
:10044000010100000002020000000002020202029C
:10045000020200000001010001020102010200028B
:100460000102010201020102010001010200020178
:100470000201020002010201020102010201020165
:10048000010201000000010200020102000201025B
:100490000002010201010201020002010201020147
:1004A0000201020002010201020101020002010236
:1004B0000002010201020102000201020102010127
:1004C0000201020102010200020102000200020018
:1004D0000201020101020102010201020102010204
:1004E00001020102010201020101000102010201F7
:1004F00002010201020102010201020100010100E8
:1005000000000202020202000000000202020200D9
:1005100000000101010101010101010101010101CD
:1005200001010101010101010101010101010101BB
:1005300001010101010101010101010101010000AD
:100540000001020202020202020202020201000093
:10055000000101000102020200020200000002028A
:100560000102020201000101000202020202020273
:100570000202020202020202020200010101020260
:100580000102010202010101020202020102020152
:100590000101020202020202020202000002020241
:1005A0000102010201010101020102010202020035
:1005B0000002020202020202020201010102020121
:1005C0000201020201010102020202010202020111
:1005D00001000202020202020202020202020202FE
:1005E00002020200010100010202020102020000F7
:1005F00000020201020202010001010000000102EA
:1006000002020202020202020202010000000101D3
:1006100001010101010101010101010101010101CA
:1006200001010101010101010101010101010101BA
:1006300001010101010101010101000000020202AA
:100640000202020202020202020200000001010094
:10065000020202020200020202020202000202027E
:10066000020001010202020202020202020202026E
:10067000020202020202020101020202010202025D
:100680000201010102020202010202020101020250
:100690000202000202020100000202020202020241
:1006A0000201010202020202020202000001020231
:1006B000020202020202010102020201020202021D
:1006C0000101010202020201020202010102020210
:1006D00002000202020202020200020202020202FE
:1006E00001010002020202020202020202020202EE
:1006F00002020202000101000000020202020202E4
:1007000002020202020202000000010101010101D5
:1007100001010101010101010101010101010101C9
:1007200001010101010101010101010101010101B9
:1007300001010101010100000002020202020202A5
:100740000202020202020000000101000102010295
:100750000102000200020102010201020100010186
:100760000202020202020202020202020202020269
:100770000202020101020102000201020102010261
:100780000002010201020102010102020202020250
:10079000020202020201020202020202020101023C
:1007A000020200020202010202020202020002022E
:1007B0000202010102010201020102000201020122
:1007C000020102000201020101020202020202020F
:1007D00002020202020202020202020201010001FE
:1007E00002010201020102000201020102010201F2
:1007F00000010100000002020202020202020202E3
:1008000002020200000001010101010101010101D8
:1008100001010101010101010101010101010101C8
:1008200001010101010101010101010101010101B8
:1008300001010000000202020202020202020202A0
:10084000020200000001010002010201000000009C
:100850000001020202020201020001010202020280
:10086000020202020202020202020002020202016B
:10087000010202010202010202020202020102005E
:100880000102020201010201000000000102020255
:10089000020202020002020202010102020202003E
:1008A0000202020202020100000000010202010134
:1008B000020201020001020202020202010202011E
:1008C000020202010102020202000202020202020C
:1008D00002020202020202020101000201020201FE
:1008E00002020100000000000202010200010100FA
:1008F00000000202020202020202020202020200DE
:1009000000000101010101010101010101010101D9
:100910000101010101010101080570A8F8F8700842
:100920000570D888A85008057088D8A8D831206DDF
:100930006173746572206D617800536C6176652017
:1009400070617573656400536C61766520646973CA
:10095000636F6E6E6563746564004E6F206D6173C6
:1009600074657200626F6F6D00476574206120626C
:100970006F6D626500175344001613780016131448
:10098000001510200015201000540A03E181867F15
:100990003E186D830F0F0E0183866033186DC319E7
:1009A0008F1803C38E6033186DE330CF1803C39ED6
:1009B000603630CDE360CF3006C79E7E3E30CDB38B
:1009C00060CF300CC6F6603330D9B660CF33CFCCB1
:1009D000F66061B0DB1E60CF30D86CE6C061B0DB82
:1009E0001E618F19986CC6C063B19B0E330F0FB098
:1009F00078C6FF7E1F1B061E0F004024000000006B
:100A0000000000000000000000000000FF000000E7
:100A100018000000FF00000018000000C0C3E6003E
:100A200018000000C0C67A0018000000C0CE54F3C1
:100A300019E0FC67C0D9CCF319E0FC67FF11C6CC04
:100A4000DE1B0378FF13FECCDE1B0378C0DFFECC79
:100A5000D81BFF60C0DFFECCD81BFF60C0CFFCCC32
:100A6000DE1B0060C0C7F8CCDE1B0060FF03F0CCCB
:100A7000D9E0FC60FF01E0CCD9E0FC6000000000A0
:100A800000000000206000000008800420900000AA
:100A900004444F8823FC00000A22B9D0240200003D
:100AA000111109400801000024AA213029F9000091
:100AB000494451180A950000920089F80A950000EF
:100AC000494450F809F9000024AA20F80402000063
:100AD000111300F00FFF00000A248FE0130C8000B8
:100AE000044953C812948000001220040F0F000024
:100AF0000000000004F2000000000000039C8000E1
:100B0000000001000000B29D1DDD9D007FFFB911B6
:100B100011D149FE0000B11DDD5D49000A0A153AF8
:100B200049676E6F7265006D560A0A504C45415315
:100B300045205455524E204F464620004C4F5720DA
:100B40004241545445525921200003053F213F1290
:100B500008120A100A0E1C0E0C1E0C141A14161F72
:100B6000161E131E1E1B1E1E1F1E3F213F3A2F3A2C
:100B7000173D173F213F181F02040A041F0E0404EB
:100B80000E1F0A1F0A0E0E1F04110E2E252E2F2ACD
:100B90002E262929021F02081F08150E04040E150F
:100BA0000E15151B151B040604040C0400000000A0
:100BB00017000300031F0A1F16371A1904130A151A
:100BC0003A000300000E11110E000A040A040E047C
:100BD0000030000404040010001804031F111F1249
:100BE0001F101D151711151F07041F17151D1F15A1
:100BF0001D01011F1F151F17151F000A00003200DD
:100C0000040A110A0A0A110A040115020E11171E1C
:100C1000051E1F150A0E110A1F110E1F15111F05A3
:100C2000010E111D1F041F111F1108100F1F041B9F
:100C30001F10101F061F1E040F0E110E1F09060E97
:100C4000112E1F051A121509011F011F101F0F1861
:100C50000F1F0C1F1B041B031C03191513001F116E
:100C6000030418111F000201022020200001020CC1
:100C7000121E1F120C0C12120C121F0C1A14041E3E
:100C800005242A1E1F021C141D1020201D1F0814DD
:100C9000111F101E041E1E021C0C120C3E0A040C16
:100CA000123E1E040214160A020F120E101E0E101F
:100CB0000E1E081E120C1226281E322A26041E2181
:100CC000001F00211E040102013F213FF6E8DBCF97
:100CD000C3B8AEA49B928A827B746E68625C5752E2
:100CE0004E4945413E3A3734312E2C2927252321C0
:100CF0001F1D1C1A1917161514131211100F0E0DA3
:100D00000C0B0A09080706172B152010204C4F4121
:100D100044455200172B16201314004500680100AB
:100D2000000A4E6F2053442063617264206F720A80
:100D30006E6F204C4F414445522E4845580A0A15C3
:100D40003A45786974001D20466C617368696E6766
:100D50000A20206C6F616465722E2E2E0A0A444FA1
:100D60004E2754205455524E204F46462100000035
:100D700000002300260029000404040404040404E1
:100D80000202020202020303030303030102040836
:100D900010204080010204081020010204081020E5
:100DA000000000080002010000030407000000002A
:100DB000000000004B2A11241FBECFEFD8E0DEBF99
:100DC000CDBF12E0A0E0B1E0ECEAF9E502C0059089
:100DD0000D92AC33B107D9F726E0ACE3B2E001C025
:100DE0001D92A63CB207E1F716E0CBEDD6E004C0B9
:100DF0002197FE010E94C92CCA3DD107C9F70E9464
:100E000029240C94D42C0C94000020E030E0D9016B
:100E1000A050BF4F40E050E0F901E40FF51FE80F8C
:100E2000F91FE491ED934F5F5F4F45315105A1F7F5
:100E30002B5E3F4F2C3F310551F70895E82FF0E02E
:100E400085E1689FE00DF11D1124E050FF4F808186
:100E5000813011F092E190839FEF980F81E0923002
:100E600008F080E00895089580E090E008950F93E1
:100E7000CF93DF93CDB7DEB727970FB6F894DEBFD9
:100E80000FBECDBF29833A838F837723D9F0622F9A
:100E9000432F811108C0002319F026E239E005C074
:100EA0002FE139E002C028E139E08DE896E027968D
:100EB0000FB6F894DEBF0FBECDBFDF91CF910F917B
:100EC0000C94072127960FB6F894DEBF0FBECDBF56
:100ED000DF91CF910F9108951F93CF93DF93FC0182
:100EE00012818081082E000C990B44E014029001BD
:100EF00011248217930799F463818181082E000CD5
:100F0000990B44E06402900111248217930739F48D
:100F1000EF011F5F812F0E94991281111A83DF91C7
:100F2000CF911F9108951F93CF93DF93FC011281FE
:100F30008081082E000C990B44E0140290011124CA
:100F40008217930799F463818181082E000C990B15
:100F500044E06402900111248217930739F4EF01F1
:100F60001150812F0E94991281111A83DF91CF9124
:100F70001F9108951F93CF93DF93FC0182812081FD
:100F8000022E000C330B94E08902A00111242417D7
:100F9000350799F413812181022E000C330B94E064
:100FA0001902A00111242417350739F4EF011F5F3E
:100FB000612F0E94991281111B83DF91CF911F91A4
:100FC00008951F93CF93DF93FC0182812081022E2D
:100FD000000C330B94E08902A0011124241735077B
:100FE00099F413812181022E000C330B94E0190235
:100FF000A00111242417350739F4EF011150612F96
:101000000E94991281111B83DF91CF911F91089546
:10101000FC0185818823B1F18081482F082E000CC6
:10102000550B928164E0960290011124A38142172E
:10103000530769F48181482F082E000C550B64E09A
:10104000A602900111244217530749F40FC042171A
:10105000530714F48F5F01C08150808307C042178B
:10106000530714F48F5F01C08150818385E1A89FED
:10107000D0011124A050BF4FA90FB11D8C918B300E
:1010800008F0158208950F9301E02091CE0230916F
:10109000CF024091D0025091D1026091D202709162
:1010A000D3028091D4020E9437078091D50281112A
:1010B00011C000E02091C7023091C8024091C902DE
:1010C0005091CA026091CB027091CC028091CD0206
:1010D0000E94370700E02091C0023091C102409188
:1010E000C2025091C3026091C4027091C502809106
:1010F000C6020E9437072091B9023091BA0240918E
:10110000BB025091BC026091BD027091BE02809101
:10111000BF020E9437070F910895CF93DF93282FC6
:10112000E5E9F2E0CDE4D2E0A1E7B2E084818823F2
:1011300071F0908197FD9D5F95959595291307C056
:10114000918197FD9D5F95959595691779F1149615
:101150008C911497882381F09C9197FD9D5F9595C4
:101160009595921309C011969C91119797FD9D5FDB
:10117000959595959617D1F08C81882371F098817B
:1011800097FD9D5F95959595291307C0998197FDCA
:101190009D5F95959595691749F036962696169612
:1011A00082E0E93BF80709F0C1CF80E0DF91CF9101
:1011B0000895CF93C42F0E948D08882381F00E9448
:1011C000B12A2AE030E040E050E00E94082B25E3FD
:1011D00030E02C1B3109C901860F971F09C00E94FE
:1011E000B12A2AE030E040E050E00E94082BCB0119
:1011F000CF910895CF92DF92FF920F931F93CF93D9
:10120000DF93082FF62E25E1629FC001112410E024
:10121000C0E0D0E09C0120503F4F6901802F810F3A
:10122000F601E80FF11D90819150923010F410E01A
:1012300013C0412F6F2D0E94D908C80FD91F1F5FFF
:10124000133061F7F4CF412F6F2D0E94D908C80FDA
:10125000D91F1F5F133049F0802F811BF601E80F63
:10126000F11D90819150923070F710E0802F90E046
:101270009C0120503F4F690109C0412F802F0E94DF
:10128000D908C80FD91F1F5F133061F06F2D610F90
:10129000F60135E1639FE00DF11D1124808181503D
:1012A000823058F710E009C0412F802F0E94D908E2
:1012B000C80FD91F1F5F133061F06F2D611BF6013E
:1012C00085E1689FE00DF11D1124808181508230FD
:1012D00058F7CE01DF91CF911F910F91FF90DF90D2
:1012E000CF900895823089F02CF4882341F081302A
:1012F00049F00895833061F0843069F008958CE1FD
:1013000098E00BC080E297E008C084E296E005C058
:1013100088E295E002C08CE294E00C9405078F927D
:101320009F92AF92BF92CF92DF92EF92FF920F9374
:101330001F93CF93DF938091E002882309F478C054
:1013400081508093E002C090DF02D12C8824992440
:101350008C189D08092C000CAA08BB088FEFC81A2E
:10136000D80A0D2C000CEE08FF08C818D908EA08A6
:10137000FB080E94B12AA70196010E94082B860E45
:10138000971EA81EB91E6091E1027091E202860EBE
:10139000971E9092E2028092E102C090DF02D12C6F
:1013A000882499248C189D08092C000CAA08BB08D5
:1013B000EFEFCE1ADE0A0D2C000CEE08FF08C8185D
:1013C000D908EA08FB080E94B12AA70196010E94E9
:1013D000082B860E971EA81EB91E6091E30270911D
:1013E000E402860E971E9092E4028092E3028091BE
:1013F000D20586958695C091D0059091DF02899F90
:10140000C00111246C01092E000CEE08FF08892B85
:1014100039F00E94B12AA70196010E94082B01C051
:1014200060E0C61B6C2F70E08FEF0E947F1508C034
:101430001092E2021092E1021092E4021092E30292
:1014400090E0C92E91E0D92ED0E0BB24B394BD0E1C
:1014500082E0A82EAD0E760110E0F701C081CC230A
:1014600009F441C0C13079F48091E3024D2F481B4B
:101470008091E102612F681B04E024E08DE896E092
:101480000E94671930C0CB3078F026E234E04D2F4F
:10149000612F8DE896E00E940721C150CA3009F4FF
:1014A000C0E0F701C0831FC022E04B2DC1E0C10F97
:1014B0006C2F8DE896E00E944B1922E04A2D6C2F8C
:1014C0008DE896E00E944B1922E04B2D6C2F8DE8A1
:1014D00096E00E945E1A22E04B2D62E0610F8DE8DB
:1014E00096E00E945E1AFFEFEF1AFF0A1C5F1435A8
:1014F00009F0B3CF85E1C80ED11CDC5FD03309F011
:10150000A4CFDF91CF911F910F91FF90EF90DF90CB
:10151000CF90BF90AF909F908F9008951F93CF93DF
:10152000DF93EC0180E00E94A52082E08093DF023F
:1015300083E08093E00281E08D8310E08B811817B7
:1015400010F010E021C0698167FD6D5F65956595BC
:10155000888187FD8D5F85958595810F0E941E0787
:101560008111EFCF1F5FEACF698167FD6D5F6595E0
:101570006595888187FD8D5F85958595811B0E9486
:101580001E07811104C01F5F8B81181768F310E0DC
:1015900010C0698167FD6D5F65956595610F8881F4
:1015A00087FD8D5F859585950E941E07811104C07A
:1015B0001F5F8B81181768F310E010C0698167FD09
:1015C0006D5F65956595611B888187FD8D5F85954C
:1015D00085950E941E07811104C01F5F8B8118171B
:1015E00068F3DF91CF911F910895DF92EF92FF9200
:1015F0000F931F93CF93DF93C5E9D2E08DE4E82EDC
:1016000082E0F82E01E712E094E1D92E8C81882344
:1016100061F08A816D2D0E94952C963030F06981A1
:101620006E5F88818E5F0E94EB20F80184818823A1
:1016300061F082816D2D0E94952C963030F0618191
:101640006E5F80818E5F0E94EB20F701848188238A
:1016500061F082816D2D0E94952C963030F0618171
:101660006E5F80818E5F0E94EB202696F6E0EF0E83
:10167000F11C0A5F1F4F82E0C93BD80739F6DF91A2
:10168000CF911F910F91FF90EF90DF900895FA0195
:101690009A012C5D3F4F948191110CC090E592838B
:1016A0009091DE02938391E094838083618381E053
:1016B0000C94A5203696E217F30769F70895AF92C8
:1016C000BF92CF92DF92EF92FF920F931F93CF932F
:1016D000DF93CDB7DEB728970FB6F894DEBF0FBE05
:1016E000CDBFFC018091FD01811171C185818823ED
:1016F00009F46DC182812081022E000C330B94E02D
:101700008902A00111242417350709F060C1638103
:101710002181022E000C330BA4E06A02A0011124E7
:101720002417350709F053C18F012FE037E23A83C0
:1017300029833C832B833E832D8338872F836F5FE0
:10174000B5E16B9FF0011124E050FF4FE80FF11D50
:101750009081911104C00E94FA089A838983F8014C
:10176000638182818F5F25E1629FF0011124E05047
:10177000FF4FE80FF11D9081911104C00E94FA08FB
:101780009C838B83D80113966C91139761501296AA
:101790008C91B5E16B9FF0011124E050FF4FE80FF1
:1017A000F11D9081911104C00E94FA089E838D83DF
:1017B000F80163818281815025E1629FF00111244B
:1017C000E050FF4FE80FF11D9081911104C00E947D
:1017D000FA0898878F83FE01319680E090E026E931
:1017E000E22EF12C2FE037E241915191421753073D
:1017F00014F49A017C01019684309105A9F72333F2
:1018000031055CF0D80113966C91139712968C9168
:101810000E94FA08C2970CF4DAC0F1E0EF16F10466
:1018200009F092C0D8011396EC91139712968C91FF
:101830008F5F0BC093E0E916F104A1F4D801139671
:10184000EC91139712968C918150B5E1EB9FF001CA
:101850001124E050FF4FE80FF11D9081911102C05B
:10186000F8018283D80114968C91149718160CF401
:10187000A7C01296FC9012971396EC906E2D8F2DA8
:101880000E948D0881119CC0AA24AA94AF0C6E2DD1
:101890008A2D0E94FA08C3970CF092C0BB24B3941F
:1018A000BF0C6E2D8B2D0E94FA08C3970CF088C0D8
:1018B000CC24CA94CE0C6C2D8F2D0E94FA08C397AD
:1018C0000CF07EC0DD24D394DE0C6D2D8F2D0E9494
:1018D000FA08C3970CF074C00E94B12A2EE130E0E0
:1018E00040E050E00E94082B672B682B692B09F41D
:1018F00055C0B5E1EB9EB001112460507F4FFB0154
:10190000EA0DF11D8081823009F448C0FB01EB0D26
:10191000F11D8081823009F441C08F2D90E080500C
:101920009F4FFC0125E1C29EE00DF11D1124208195
:101930002230A1F1FC01A5E1DA9EE00DF11D112498
:1019400080818230E9F52AC022E0E216F1045CF4DD
:10195000EF2809F087CFF80183818F5F25E1829F0F
:10196000F00111240DC082E0E816F10409F062CF05
:10197000D80113968C918150B5E18B9FF001112411
:10198000D80112969C911297E050FF4FE90FF11D7C
:101990009081911167CF13968C9364CFD8011396E1
:1019A0006C911397660F660F12968C914DE452E07E
:1019B000880F880F0E94470B82E1F801848307C0DB
:1019C000D80114968C91181614F48150F6CF2896ED
:1019D0000FB6F894DEBF0FBECDBFDF91CF911F9140
:1019E0000F91FF90EF90DF90CF90BF90AF90089550
:1019F0008091D50281110AC08091D602882321F0FE
:101A00000E94D3120C9468100C9448100895CF9340
:101A1000DF931092E50294E09093CE029093CF0270
:101A200081E08093D0028093D1028093D302109200
:101A3000D4023CE43093C70258E25093C80223E139
:101A40002093C9024AE04093CA028093CC021092CC
:101A5000CD029093C0025093C1028093C202409382
:101A6000C3028093C5028093C6023093B90290935B
:101A7000BA022093BB028093BC028093BE02809383
:101A8000BF0283E08093DE02E5E9F2E0C1E7D2E045
:101A9000ADE4B2E014821C8214961C921497369620
:101AA0002696169682E0E93BF807A1F7DF91CF91E1
:101AB00008956115710579F0FB0101900020E9F7A7
:101AC0003197AF01461B570BDC01ED91FC91028071
:101AD000F381E02D099480E090E008955F926F9289
:101AE0007F928F929F92AF92BF92CF92DF92EF92AE
:101AF000FF920F931F93CF93DF936624639489E63D
:101B0000E82E89E0F82E01E190E5592E16E024E652
:101B1000C22E29E0D22E9091420280914302981762
:101B200009F42AC181EC95E00E944D14803209F439
:101B30008DC04CF5843109F469C0A4F48A3009F4ED
:101B40004CC04CF4833039F781EC95E00E944D1481
:101B50008093FE01E0CF8B3009F446C08C3009F44D
:101B60004AC0D9CF863109F45FC00CF456C08E311B
:101B700009F465C08F3179F681EC95E00E944D142F
:101B80008093C102C8CF863409F497C0ACF489327F
:101B900009F467C054F4883209F0BDCF81EC95E0B8
:101BA0000E944D148093B902B6CF8A3209F460C006
:101BB000823309F468C0AFCF883409F478C00CF4DC
:101BC000A6C0893409F4D2C08A3409F0A4CF81ECCC
:101BD00095E00E944D14982E9ECF81EC95E00E94D6
:101BE0004D148093CE0297CF81EC95E00E944D1466
:101BF0008093CF0290CF81EC95E00E944D1421E0BC
:101C0000C19709F020E02093D30285CF81EC95E0C5
:101C10000E944D148093C7027ECF81EC95E00E9414
:101C20004D148093C80277CF81EC95E00E944D144B
:101C300021E0C19709F020E02093CC026CCF81EC29
:101C400095E00E944D148093C00265CF81EC95E031
:101C50000E944D1421E0C19709F020E02093C502B5
:101C60005ACF81EC95E00E944D148093BA0253CF75
:101C700081EC95E00E944D1421E0C19709F020E02D
:101C80002093BE0248CF81EC95E00E944D14209134
:101C9000FC01022E000C330BAC015527241735072D
:101CA00009F439CF8093FC010E94720934CF81EC92
:101CB00095E00E944D14882E2ECFF092C406E0923B
:101CC000C3060093C50681EC95E00E944D148A304E
:101CD00030F4819FE0011124CB56DD4F13C08431D5
:101CE00040F4C6EFC80F1C9FE0011124CF58DD4F10
:101CF00009C08E3138F4CCEEC80F1C9FE0011124CE
:101D0000C35BDD4F5A826C827882998204CFD09275
:101D1000C406C092C3060093C50681EC95E00E94FC
:101D20004D148A3038F4819FC00111249C012B5638
:101D30003D4F14C0843148F48A50189FC0011124CB
:101D4000FC01EF58FD4F5F010AC08E3140F4845111
:101D5000189FC00111249C01235B3D4F5901F501DF
:101D600014828382C5010E948E0AD5CE81EC95E053
:101D70000E944D14782ECFCE81E08093F402DF9143
:101D8000CF911F910F91FF90EF90DF90CF90BF9078
:101D9000AF909F908F907F906F905F9008958DE3AC
:101DA0008093E80280914A02811102C080E301C061
:101DB00081E38093E9028EE38093EA0280914902F5
:101DC000811102C080E301C081E38093EB028FE3C5
:101DD0008093EC0280914B02811102C080E301C02C
:101DE00081E38093ED0280E48093EE0280914C02C7
:101DF000811102C080E301C081E38093EF0281E49E
:101E00008093F00280914802811102C080E301C0FA
:101E100081E38093F10282E48093F2028091E702F1
:101E2000811102C080E301C081E38093F3028091BD
:101E3000FD018823C9F081E08093E8028093E902E4
:101E40008093EA028093EB028093EC028093ED0290
:101E50008093EE028093EF028093F0028093F10270
:101E60008093F2028093F3028091D6028823C9F016
:101E700082E08093E8028093E9028093EA028093F3
:101E8000EB028093EC028093ED028093EE0280934C
:101E9000EF028093F0028093F1028093F20280932C
:101EA000F30210924A021092490210924B021092D1
:101EB0004C02109248021092E70268EE72E081EC48
:101EC00095E00C94590DCF92DF92EF92FF920F9311
:101ED0001F93CF93DF938091AF06882309F4C0C08E
:101EE00081E08093950610929406109293061092CA
:101EF000E5058093AD068093AE06C9EFD9E01CE0FE
:101F00000E94631B8823E1F3FE018491882319F06A
:101F10000091920601C000E029E839E040E060E06D
:101F20008DE896E00E9407214CE0400F2AEF39E04F
:101F300060E08DE896E00E940721109296061093CB
:101F4000970669EF79E08DE896E00E94C7148091CA
:101F50009106982F990F890F81958D5A8093960637
:101F600080919206982F990F890F8195835D8093B8
:101F700097068091B00684FF03C085E899E002C00F
:101F800081E899E00E94162480919106982F990F7C
:101F9000890F81958D5A80939606809197068F5F61
:101FA0008093970680910306882319F08DE799E0C6
:101FB00002C089E799E00E94162480919106982F2B
:101FC000990F890F81958D5A809396068091970677
:101FD0008F5F8093970685E799E00E941624809191
:101FE000E3058130A1F4809103068F5F60910406C0
:101FF00087FD09C0082E000C990B70E06F5F7F4FC2
:102000000E94A12C682F609303060E94171B8091E9
:10201000E2058130A9F08091AF06482F50E060E0E2
:1020200070E0C090B006D090B106E090B206F0909B
:10203000B306C416D506E606F70610F18F3F01F188
:102040008FEF8093AF0680E00E94A5221092F605E4
:1020500060E088E194E00E94522381E08093E505EE
:102060008FEF8093FC0184E18093FE01DF91CF919B
:102070001F910F91FF90EF90DF90CF900C94070D80
:102080008091E405813009F03BCF0E94E01A38CFFF
:10209000CF931092FD01C4E18091F402811114C02C
:1020A00061E070E080E090E00E940316C150A1F76B
:1020B0008AE599E09093C4068093C3068EE08093EE
:1020C000C50681E08093FD011092F402CF9108953E
:1020D0008F929F92AF92BF92CF92DF92EF92FF9238
:1020E0000F931F93CF93DF9381E08093150382E0DA
:1020F0008093E6021092410210924002C5E9D2E0BC
:102100009DE4E92E92E0F92E01E712E02AE0A22EEA
:10211000B12C34E1C32ED12C44E1942E8CEE882EC8
:102120008C0C8C81882319F18A81692D0E94952C51
:102130009630E8F089E490E00E94A0208881082E83
:10214000000C990B0E94A0208AE490E00E94A0203D
:102150008981082E000C990B0E94A02086E490E053
:102160000E94A020682D81EC95E00E9496148D813C
:10217000882399F01D8288E490E00E94A0206B8162
:1021800081EC95E00E94961487E490E00E94A020E4
:10219000682D81EC95E00E949614F80184818823D3
:1021A00019F18A81692D0E94952C9630E8F089E416
:1021B00090E00E94A020F8018081082E000C990B6D
:1021C0000E94A0208AE490E00E94A020F801818172
:1021D000082E000C990B0E94A02086E490E00E943B
:1021E000A020C5010E94A020F8018581882391F0DC
:1021F000158288E490E00E94A020F801638181ECC0
:1022000095E00E94961487E490E00E94A020C5010A
:102210000E94A020F7018481882319F18A81692D09
:102220000E94952C9630E8F089E490E00E94A0206E
:10223000F7018081082E000C990B0E94A0208AE4EF
:1022400090E00E94A020F7018181082E000C990BDC
:102250000E94A02086E490E00E94A020C6010E9477
:10226000A020F7018581882391F0158288E490E011
:102270000E94A020F701638181EC95E00E949614F2
:1022800087E490E00E94A020C6010E94A02026962C
:10229000F6E0EF0EF11C8FEFC81AD80A0A5F1F4F45
:1022A000EFEFAE1ABE0AFAE1CF16D10409F036CF2D
:1022B00083E090E00E94A0206091FE0181EC95E017
:1022C0000E94961482E390E00E94A0208091FC017D
:1022D000082E000C990B0E94A0208AE090E00E943A
:1022E000A0208091CE02082E000C990B0E94A02005
:1022F0008BE090E00E94A0208091CF02082E000C7D
:10230000990B0E94A0208CE090E00E94A020809178
:10231000D302811103C080E390E002C081E390E02A
:102320000E94A02084E190E00E94A0208091C7023A
:10233000082E000C990B0E94A02085E190E00E94DD
:10234000A0208091C802082E000C990B0E94A020AA
:1023500086E190E00E94A0208091CC02811103C010
:1023600080E390E002C081E390E00E94A0208EE133
:1023700090E00E94A0208091C002082E000C990BD2
:102380000E94A0208FE190E00E94A0208091C102D5
:10239000082E000C990B0E94A02080E290E00E9481
:1023A000A0208091C502811103C080E390E002C0AB
:1023B00081E390E00E94A02088E290E00E94A020AB
:1023C0008091B902082E000C990B0E94A02089E28E
:1023D00090E00E94A0208091BA02082E000C990B78
:1023E0000E94A0208AE290E00E94A0208091BE027C
:1023F000811103C080E390E002C081E390E00E947D
:10240000A02090914002913208F044C0809137039F
:102410008111FCCF82E08093370381E08093390300
:102420008FEF8093360310925B0390935A03E5EF8E
:10243000F2E0AAE3B3E080E0981721F021912D9318
:102440008F5FFACF10925C0380915C03846080936D
:102450005C0380913803813061F4109238038091DD
:102460005C038093BB008091BC0083FDF8CF85ECBA
:1024700001C085EE8093BC00809137038230E1F388
:10248000809136038F3F31F080913603803211F016
:10249000809136031092410210924002109215036F
:1024A000DF91CF911F910F91FF90EF90DF90CF9030
:1024B000BF90AF909F908F9008950F93CF93DF932D
:1024C0000E948F090E9443080E94F50A1092AD06EF
:1024D0001092AE06C091E502DC2FDD0F00E32D2F38
:1024E00040E060E08DE896E00E9467196AE270E0E3
:1024F0006C1B7109C7FD7395660F2D2F40E08DE8A9
:1025000096E00E94671981E08093AD061092AE06B6
:102510009CE09093960680939706CF5FC093E50268
:10252000CF3119F48BE08093FE01DF91CF910F91B1
:102530000895CF93DF93D82FC62F0E948D08811165
:102540000DC085E1C89FF0011124E050FF4FED0F51
:10255000F11D9081915081E09A3008F480E0DF9184
:10256000CF910895CF93DF93FC01D381C2816D2F6A
:102570008C2F0E948D08811113C09091D6026D2F6F
:10258000660F660F8C2F880F880F992319F045E985
:1025900052E002C041E752E0DF91CF910C94470B2B
:1025A000DF91CF910895EF92FF920F931F93CF93F6
:1025B000DF93809137038111FCCF81E08093370353
:1025C000809339039FEF9093360310925B039BE057
:1025D00090935A0380935C0380915C0384608093A2
:1025E0005C0380913803813061F41092380380914C
:1025F0005C038093BB008091BC0083FDF8CF85EC29
:1026000001C085EE8093BC00809137038130E1F3F7
:1026100080915B038C3018F490915B0301C09CE0C7
:10262000EAE3F3E0A6E1B3E080E0891721F021912D
:102630002D938F5FFACF109243028093420288233A
:1026400009F477C01092FD010DE219E0CEE0D1E06F
:102650008AE3E82E89E0F82E9091420280914302AD
:10266000981709F472C081EC95E00E944D148E33E6
:1026700041F184F4823009F453C08D33B9F08130D4
:1026800059F7F092C406E092C306C093C506809342
:10269000FD01E2CF803461F1FCF08134A9F1823494
:1026A000D9F681EC95E00E944D14D6CF81EC95E0EF
:1026B0000E944D14C19781F687EC92E00E94E107D9
:1026C000CBCF81EC95E00E944D14C19729F687ECA1
:1026D00092E00E94BA07C0CF81EC95E00E944D14B1
:1026E000C19709F0B9CF87EC92E00E949307B4CF6D
:1026F00081EC95E00E944D14C19709F0ADCF87ECB5
:1027000092E00E946C07A8CF81EC95E00E944D14E6
:10271000C19709F0A1CF87EC92E00E94B2129CCF42
:102720001093C4060093C306C093C506D093FD0161
:1027300093CF87E499E09093C4068093C3068EE01C
:102740008093C50681E08093FD01DF91CF911F91B9
:102750000F91FF90EF900895CF92DF92EF92FF924A
:102760000F931F93CF93DF936C017A018B01C0E02D
:10277000D0E0CE15DF0581F0D8016D918D01D60135
:10278000ED91FC910190F081E02DC6010995892B16
:1027900011F02196EECF7E01C701DF91CF911F91FD
:1027A0000F91FF90EF90DF90CF90089585ED80938B
:1027B000BC008091BC0084FDFCCF109237030895CB
:1027C00040918103262F30E0240F311D2132310545
:1027D000DCF4209137032430C9F4FC0180E090E060
:1027E000861758F4309181032191DC01AF59BC4F19
:1027F000A30FB11D2C930196F3CF80918103680F35
:102800006093810380E0089581E0089582E0089557
:10281000E0914602F0914702309729F01092410270
:102820001092400209940895CF93DF93EC01E09158
:102830004402F09145023097F1F09091430280916B
:1028400042029817C0F090E0292F30E02617370792
:1028500054F4DE01A20FB31F4C91D901AA5EBC4F04
:102860004C939F5FF1CF1092430260934202CB01E1
:10287000DF91CF910994DF91CF910895E0914302C8
:1028800080914202E81730F4F0E0EA5EFC4F80816C
:1028900090E008958FEF9FEF08959091430280910B
:1028A0004202981750F4E92FF0E0EA5EFC4F2081D5
:1028B00030E09F5F9093430202C02FEF3FEFC901CA
:1028C00008958091420290E020914302821B910979
:1028D0000895CF92DF92EF92FF920F931F93CF93C1
:1028E000DF937C01CB018A0120911503222389F01B
:1028F000EB016B01C40ED51ECC15DD0569F06991A5
:10290000D701ED91FC910190F081E02DC70109956F
:10291000F3CF642F0E94E013C801DF91CF911F9184
:102920000F91FF90EF90DF90CF900895CF93DF93BA
:102930001F92CDB7DEB76983209115032223D1F012
:1029400020914002203240F021E030E0FC0133834E
:10295000228380E090E015C080914102E82FF0E0F2
:10296000EB50FD4F998190838F5F8093410280935C
:10297000400205C061E0CE0101960E94E01381E0B3
:1029800090E00F90DF91CF9108950E94CF2CEF92AD
:10299000FF920F931F93CF93DF938C017B01C0E0D5
:1029A000D0E0F701EC0FFD1F6491662361F0D801C0
:1029B000ED91FC910190F081E02DC8010995892BE2
:1029C00011F02196EECFCE01DF91CF911F910F91A3
:1029D000FF90EF900895833081F028F4813099F0D2
:1029E0008230A1F008958730A9F08830B9F08430A2
:1029F000D1F4809180008F7D03C0809180008F771B
:102A000080938000089584B58F7702C084B58F7D50
:102A100084BD08958091B0008F7703C08091B0008D
:102A20008F7D8093B00008951F93CF93DF93282F5D
:102A300030E0F901E056F24F8491F901E457F24F8A
:102A4000D491F901E858F24FC491CC23C1F0162F6C
:102A500081110E94EB14EC2FF0E0EE0FFF1FEA55FE
:102A6000FF4FA591B4919FB7F894111104C08C91B8
:102A7000D095D82302C0EC91DE2BDC939FBFDF9171
:102A8000CF911F910895CF93DF9390E0FC01E4571D
:102A9000F24F2491FC01E858F24F8491882361F1B0
:102AA00090E0880F991FFC01E456FF4FC591D49127
:102AB000FC01EA55FF4FA591B491611109C09FB780
:102AC000F8948881209582238883EC912E230BC073
:102AD000623061F49FB7F8948881322F3095832358
:102AE0008883EC912E2B2C939FBF06C08FB7F89450
:102AF000E8812E2B28838FBFDF91CF9108951F93FC
:102B0000CF93DF93182FEB0161E00E9443152097CC
:102B100011F460E004C0CF3FD10539F461E0812FAA
:102B2000DF91CF911F910C941415E12FF0E0E05646
:102B3000F24FE491E330F9F048F4E130B9F0E230DB
:102B4000A1F584B5806284BDC8BD34C0E730E9F02A
:102B5000E83019F1E43049F580918000806280937B
:102B60008000D0938B00C0938A0024C084B5806815
:102B700084BDC7BD1FC080918000806880938000A5
:102B8000D0938900C093880015C08091B000806800
:102B90008093B000C093B3000DC08091B0008062FC
:102BA0008093B000C093B40005C0C038D1050CF0CC
:102BB000B5CFAFCFDF91CF911F9108953FB7F89474
:102BC0008091A5039091A603A091A703B091A803BB
:102BD00026B5A89B05C02F3F19F00196A11DB11D78
:102BE0003FBFBA2FA92F982F8827820F911DA11DB3
:102BF000B11DBC01CD0142E0660F771F881F991FF0
:102C00004A95D1F708958F929F92AF92BF92CF923B
:102C1000DF92EF92FF926B017C010E94DE154B0167
:102C20005C01C114D104E104F104F1F00E94DE154D
:102C3000DC01CB0188199909AA09BB09883E934098
:102C4000A105B10570F321E0C21AD108E108F1082D
:102C500088EE880E83E0981EA11CB11CC114D1041B
:102C6000E104F10419F7DDCFFF90EF90DF90CF90F2
:102C7000BF90AF909F908F9008951F920F920FB6C4
:102C80000F9211242F933F938F939F93AF93BF93F2
:102C90008091B1039091B203A091B303B091B403BA
:102CA0003091A40323E0230F2D3720F40196A11DBA
:102CB000B11D05C026E8230F0296A11DB11D20936A
:102CC000A4038093B1039093B203A093B303B09392
:102CD000B4038091A5039091A603A091A703B0919E
:102CE000A8030196A11DB11D8093A5039093A6038F
:102CF000A093A703B093A803BF91AF919F918F9129
:102D00003F912F910F900FBE0F901F9018951F921B
:102D10000F920FB60F9211242F933F934F935F930F
:102D20006F937F938F939F93AF93BF93EF93FF9393
:102D30008091B900887F803609F49CC068F588329C
:102D400009F45BC090F4803109F454C038F488234E
:102D500009F4F6C0883009F44DC0F6C0883109F492
:102D60004CC0803209F45DC0EFC0803409F468C003
:102D700048F4803309F455C0883309F0E5C08093E6
:102D80003603D8C0803509F44FC0883509F45DC0DA
:102D9000883409F0D9C0D6C0883909F4C7C0A8F46E
:102DA000883709F467C038F4883609F463C080377F
:102DB00009F460C0C9C0883809F4B8C0803909F482
:102DC0005FC0803809F0C0C05BC0803B09F486C09A
:102DD00038F4803A09F466C0883A09F47FC0B4C078
:102DE000803C09F4A7C0883C09F4A4C0883B09F4DE
:102DF0008AC0AAC080915C0310C090915B0380914F
:102E00005A03981770F5E0915B0381E08E0F809371
:102E10005B03F0E0E65CFC4F80818093BB0085ECB7
:102E200086C0809336038EC0E0915B0381E08E0FF5
:102E300080935B038091BB00F0E0E65CFC4F8083F5
:102E400090915B0380915A036EC0E0915B0381E037
:102E50008E0F80935B038091BB00F0E0E65CFC4F3B
:102E600080838091390381116DC081E080933803A4
:102E700084EA61C083E0809337031092A303CFCF2D
:102E80008091A303803208F051C0E091A30381E058
:102E90008E0F8093A3038091BB00F0E0ED57FC4FB1
:102EA0008083BDCF85EC8093BC0010923703809166
:102EB000A303803230F4E091A303F0E0ED57FC4F20
:102EC00010826091A30370E0E0913E02F0913F0216
:102ED00083E893E009951092A30336C084E08093C1
:102EE00037031092820310928103E0913C02F0912B
:102EF0003D02099580918103811105C081E0809395
:102F0000810310926103E091820381E08E0F809330
:102F10008203F0E0EF59FC4F80818093BB009091D9
:102F2000820380918103981708F479CF85E8809314
:102F3000BC000AC085EC8093BC001092370304C02B
:102F4000109236030E94D613FF91EF91BF91AF917B
:102F50009F918F917F916F915F914F913F912F91B1
:102F60000F900FBE0F901F9018951092370381E0BD
:102F7000809339031092380361E082E10E941415B6
:102F800061E083E10E941415E9EBF0E080818E7F1F
:102F9000808380818D7F808388E48093B80085E47E
:102FA0008093BC000895089550E0DA01AA0FBB1F7A
:102FB000A80FB91FD3963C91D397D4962C91D49750
:102FC000E32FF22FE60FF11DE60FF11D259134914D
:102FD000AD58BF4F2D933C93F90165917491FC015D
:102FE0007089769F602D1124840F951FFC01E55890
:102FF000FF4F6083F901A591B4914B2F50E0E62F6C
:10300000F0E04E175F0720F4F90125913491632F0A
:10301000FC01E158FF4F769F602D112460830895D5
:103020008091BD05882319F08091B90301C080E02B
:103030009091BE05992319F09091BA03890F909150
:10304000BF05992319F09091BB03890F9091C0059A
:10305000992319F09091BC03890F8093B4000895CF
:103060001F920F920FB60F9211242F933F934F93FD
:103070005F936F937F938F939F93AF93BF93EF93E0
:10308000FF936091B503611102C080E023C080917D
:103090005D038F5F80935D039091A9038917A8F367
:1030A0009091BD0581E089278093BD0510925D0355
:1030B0008091AD03882369F08091FF0193E4899F9B
:1030C000802D1124895B8093FF010E94952C9093A1
:1030D000B90381E06091B603662319F190915E0314
:1030E0009F5F90935E032091AA039217D0F0909176
:1030F000BE0581E089278093BE0510925E03809112
:10310000AE03882369F08091FF0193E4899F802DAD
:103110001124895B8093FF010E94952C9093BA0340
:1031200081E06091B703662319F190915F039F5F7F
:1031300090935F032091AB039217D0F09091BF055D
:1031400081E089278093BF0510925F038091AF03D0
:10315000882369F08091FF0193E4899F802D1124D9
:10316000895B8093FF010E94952C9093BB0381E0C3
:103170006091B803662319F1909160039F5F90936B
:1031800060032091AC039217D0F09091C00581E0CC
:1031900089278093C005109260038091B003882333
:1031A00079F08091FF0193E4899F802D1124895B40
:1031B0008093FF010E94952C9093BC0301C0811164
:1031C0000E941018FF91EF91BF91AF919F918F9145
:1031D0007F916F915F914F913F912F910F900FBE13
:1031E0000F901F901895FC01643508F053C04033D0
:1031F00008F050C090A1742F759575957595262F80
:10320000062E000C330B542F57709230A1F4F901A5
:1032100084E57802E00DF11D1124E354FC4F808118
:1032200090E0052E02C0959587950A94E2F7809567
:10323000982F91700AC0933041F48485817046279D
:1032400040954170841303C014C0911112C084E5ED
:103250007802200D311D1124F901E354FC4F81E067
:1032600090E001C0880F5A95EAF7809590818923F4
:1032700010C084E57802200D311D1124F901E354BA
:10328000FC4F81E090E001C0880F5A95EAF79081E9
:10329000892B80830895EF92FF920F931F93CF9312
:1032A000DF938C01F62ED42FE22EC0E0CE1544F42D
:1032B0006F2D6C0F4D2FC8010E94F318CF5FF6CF12
:1032C000DF91CF911F910F91FF90EF900895DF92C2
:1032D000EF92FF920F931F93CF93DF937C01D62F32
:1032E000D22EC42F002E000C110B040F111D47FD10
:1032F0001A958C2F0C2E000C990B8017910744F413
:103300002D2D4C2F6D2FC7010E944B19CF5FF1CF90
:10331000DF91CF911F910F91FF90EF90DF90089573
:103320006F927F928F929F92AF92BF92CF92DF92D5
:10333000EF92FF920F931F93CF93DF93EC016A30CC
:1033400011F42885A3C06D3009F4A7C0A98483E5D2
:103350008A150CF485C0BA848FE28B150CF480C0FA
:10336000D8848C8190E00197D89E9001D99E300D31
:103370001124C9018A0D911DA7FC9A9518161906EA
:103380000CF06EC02D818B2D0B2C000C990BD29E56
:10339000800D911D1124181619060CF061C088A02B
:1033A0009A2CCA2CE62EF12CEC2DEA190E2E000CCC
:1033B000FF0B8C8190E0E817F9070CF050C00197E3
:1033C000E817F90779F0E89E9001E99E300DF89E24
:1033D000300D1124E20FF31F8E8D9F8DE80FF91F22
:1033E000149101C010E06B2C7B2C272D2B19022E81
:1033F000000C330B8D8190E0281739076CF510FF16
:1034000011C081E0D81206C0472D6C2DCE010E945C
:10341000F3181EC00D2D2D2D462D692DCE010E94B5
:10342000671916C089A198A1891791F088A381E036
:10343000D81206C0472D6C2DCE010E94F31807C08C
:103440000D2D2D2D462D692DCE010E94671988A2C4
:10345000169573946D0CC9CFC3949D0CA5CF88A20B
:1034600028853C818985239F800D112489879F8130
:10347000992399F0082E000C990B44E550E0239F06
:10348000401951091124481759073CF49D818A8538
:10349000299F800D11248A87198681E090E0DF91B1
:1034A000CF911F910F91FF90EF90DF90CF90BF9041
:1034B000AF909F908F907F906F900895EF92FF92C2
:1034C0000F931F93CF93DF938C01D62FF42EE22E10
:1034D000C0E0CE1544F44F2D4C0F6D2FC8010E9453
:1034E000F318CF5FF6CFDF91CF911F910F91FF902F
:1034F000EF9008958F929F92AF92BF92CF92DF92FA
:10350000EF92FF920F931F93CF93DF936C01A62E40
:10351000942EC22F11E0121BF22EF194FF0C83E0C7
:10352000B82EBE0CD1E0802F8170882EE3940270FB
:103530008FEF8D0F8C17BCF517FD04C0C150F394AD
:10354000F3941F0D8D2F880F8F5F180F882091F037
:103550002C2F220F2E0D492D4C1B6D2F6A0DC601ED
:103560000E945E1A2B2D492D4D1B6C2F6A0DC60132
:103570000E945E1A011104C0DF5FB394B394D8CFE8
:103580002C2F220F2E0D492D4C1B6A2D6D1BC601B1
:103590000E945E1A2B2D492D4D1B6A2D6C1BC601F6
:1035A0000E945E1AE9CFDF91CF911F910F91FF909A
:1035B000EF90DF90CF90BF90AF909F908F90089545
:1035C00088EF91E0EDEBF3E0DF019C011D922150CB
:1035D0003040E1F7109296061092970666E47DE07F
:1035E0008DE896E00E94C7140E946A228CB5836021
:1035F0008CBD8DB58E7F8DBD82E392E0EEEFFFE353
:1036000009951092930681E29DE00E9416240E9483
:103610006A220E94CB238091E205813039F062E377
:1036200070E080E090E00E940316F3CF089560E020
:103630008BE19DE00C945223CF93C091F1058C2F28
:103640008F71E1F583E480937C0080917A0080643F
:1036500080937A0080917A0086FDFCCF609178009B
:103660008091790070E0782B072E000C880B990B65
:103670000E949C2B26EE3FE34EEC50E40E94002C6F
:103680000E946B2B9B017093E8056093E705672B05
:1036900091F084E08093E605E9EEF5E080E0419169
:1036A00051912417350718F48093E6050AC08F5FFF
:1036B0008430A9F703C08FEF8093E605CF5FC093F6
:1036C000F105CF9108952F923F924F925F926F92A2
:1036D0007F928F929F92AF92BF92CF92DF92EF92A2
:1036E000FF920F931F93CF93DF93CDB7DEB72E9743
:1036F0000FB6F894DEBF0FBECDBF4091BF0650910C
:10370000C0066091C1067091C2062FB7F8948091EF
:10371000B1039091B203A091B303B091B4032FBF52
:10372000481B590B6A0B7B0B8091BE0690E0A0E012
:10373000B0E00091BA061091BB062091BC06309112
:10374000BD0684179507A607B70730F401151105C4
:103750002105310509F0F0C3012B022B032B09F0E1
:10376000E9C38091E40581508E3F08F58091E3051F
:103770008130E9F4809103068F5F6091040687FD34
:1037800009C0082E000C990B70E06F5F7F4F0E94FC
:10379000A12C682F6093030684E19DE09093C406FA
:1037A0008093C30688E48093C5060E94171B80910E
:1037B000E40581508E3F70F48091E205813009F07C
:1037C00021C487E09DE09093C4068093C30688E4FB
:1037D0008093C50680E00E94842381E00E948423B8
:1037E00082E00E94842383E00E9484232DEC35E054
:1037F00038872F837DEBC72E75E0D72E01E316E0C7
:10380000EDE1EE2EE6E0FE2E59013E872D87912C4C
:1038100088248394AD85BE8599968C919997882349
:1038200009F4ECC02D01B0E74B0E511CF201808170
:103830008111E4C0D7012D913C91D801ED91FC910B
:10384000EE0FFF1FE20FF31F85919491009721F572
:10385000ED85FE85E05AFF4F8081882329F0F8012D
:1038600011821082F90116C0AD85BE8599961C9211
:10387000999795968C918823C1F1892D0E94842374
:10388000D801ED91FC91EE0FFF1FD7018D919C9116
:10389000E80FF91F85919491ED85FE85E058FF4F63
:1038A000FE83ED832D853E852C573F4F3A83298338
:1038B0004D855E8548575F4F5C834B83AD85BE85E4
:1038C000A457BF4FBA87A987ED85FE85E057FF4F04
:1038D000FC87EB876D847E84F4E96F0E711C2D8468
:1038E0003E8424E7220E311C2BC0892D0E94A52284
:1038F00085C0BC0136E0769567953A95E1F76F7122
:10390000892F86958695869580512F702230B1F14A
:1039100038F521111DC06B3008F06AE0D1016C93BD
:10392000D801ED91FC9111973196ED93FC93EE0F38
:10393000FF1FD7018D919C91E80FF91F85919491FC
:103940009C01369527953695279580FDD2CF2DC0C1
:10395000213031F7492D82EF95E00E94D417E0CF56
:103960002330B9F02430E1F690910206969F602D45
:103970001124EB85FC856083D30115C0909102066C
:10398000969F602D1124ED81FE816083A981BA810B
:103990000AC090910206969F602D1124EB81FC8154
:1039A0006083A985BA858C93BBCFED85FE85E459EC
:1039B000FF4F2F73208380910206899F802D112451
:1039C000F2018083ED85FE85E055FF4F1082F50101
:1039D000E855FF4F11821082ED85FE85E858FF4FB4
:1039E0008082D6018C92ED85FE85E458FF4F1082CF
:1039F000F8018081918101969183808393942D8534
:103A00003E852F5F3F4F3E872D8732E0A30EB11CCE
:103A10004FEFC41AD40A0E5F1F4F52E0E50EF11C9F
:103A200084E09812F7CEA9EAAA2EA3E0BA2EB5EB4D
:103A3000CB2EB3E0DB2E19EB412E13E0512E0DE718
:103A400016E085E7E82E86E0F82E9DEA292E93E021
:103A5000392EADECB5E0BA83A983712CE981FA81E6
:103A6000E858FF4F8081882309F429C1E981FA8150
:103A7000E059FF4F8081811104C0872D0E94A5224B
:103A80001EC181508083F801808129813A812C54A4
:103A90003F4F3E832D8349815A8148545F4F4A01ED
:103AA00081114CC0D7018D919C9101969C01220FF0
:103AB000331FAF81B885A856BF4FED91FC91E20F3F
:103AC000F31F45915491242F2770ED81FE812083AF
:103AD000BA01E3E076956795EA95E1F79B013695A3
:103AE0002795352F36953695D4013C932F73309119
:103AF0000206239F202D1124F80120836170D1013B
:103B00006C93F70191838083E981FA81E056FF4F3E
:103B1000208130E08217930788F0E981FA81EC5523
:103B2000FF4F8081882339F0A901481B5109D70133
:103B30004D935C9303C0872D0E94A522F8018081DC
:103B400081508083E981FA81E458FF4F20812F5F03
:103B50002083E981FA81E459FF4F3081D4014C91EF
:103B6000430FE981FA81E45BFF4F8081480FE981CF
:103B7000FA8145A7E857FF4F6081662399F070E00E
:103B8000822F022E000C990B0E94A12CE981FA8150
:103B9000E457FF4F8081869F400D1124A981BA818F
:103BA0009D964C93E981FA8185A590E0CB966BE3D5
:103BB00070E00E94A12C85A7EC58FF4F4081A9819D
:103BC000BA81D1964C93D197FD01E058FF4F6081A7
:103BD0006623A1F0062E000C770B822F022E000C1C
:103BE000990B0E94A12CE981FA81EC57FF4F80814B
:103BF000869F400D1124E981FA8141ABE981FA8168
:103C0000E057FF4F60816623D1F0822F220F990B7E
:103C100070E00E94A12CCB0162E070E00E94A12C18
:103C2000E981FA81EC56FF4F2081A981BA81D196B2
:103C30009C91D197289F900D1124D1969C93E98156
:103C4000FA813F3359F081A98A300CF089E087FD71
:103C500080E0A981BA81D1968C9301C011AAF89411
:103C6000A981BA819D96EC91F0E0E453F34FE49181
:103C7000D501EC93E981FA8131A9E454FF4F208109
:103C8000AD81BE814C913203900111244203C001E9
:103C9000439F900D11240090030602C0880F991FC6
:103CA0000A94E2F797FF02C081589F4F880F892F2F
:103CB000881F990BF6018083D2018C9378947394BA
:103CC000E981FA813196FA83E983FFEFAF1ABF0ADF
:103CD0002FEFC21AD20A3FEF431A530A0F5F1F4F4A
:103CE00042E0E40EF11C8F819885029698878F83BD
:103CF0009FEF291A390AA4E07A12B0CE8091C50646
:103D0000882309F459C08C3020F4BCE0B81BB98377
:103D100001C01982FF24F394F09295061092AD062B
:103D20001092AE06E0919206EB8319811E1B0E2FB6
:103D30000D5F4DE2410F2EE463E08DE896E00E94B6
:103D40006719FB81F450FB83105DEF2E01E023E047
:103D5000412F60E58DE896E00E947A1AEB8002E040
:103D600023E0412F63E08DE896E00E947A1AF092FA
:103D7000AD06F092AE068091920663E0680F29814D
:103D8000281B822F835D0E94132384E08093960674
:103D9000809192063981381B315D3093970660918E
:103DA000C3067091C4068DE896E00E94C714809106
:103DB000C50681508093C5068091E9059091EA057A
:103DC000892B09F48FC081E08093AD061092AE0676
:103DD0009091910685E5891B80939606109297062F
:103DE0008091E605813009F460C030F09091E505DE
:103DF000853008F072C06DC006EF15E01982898128
:103E00000E94A522D8011D928D01B981BF5FB9839F
:103E1000B430A9F781E080939506EAE4FBE0E491F1
:103E2000EF5FE0939106EBE4FBE0E491EF5FE0935A
:103E300092068CE49BE09093AC068093AB061092C4
:103E4000EA051092E90510929306E8EAE9830E94D8
:103E5000631B8823E1F36CE37BE08DE896E00E942E
:103E6000C7146091E7057091E80580E090E04AE0B2
:103E70000E94CB2267E27BE08DE896E00E94C714A7
:103E8000698162956F7070E080E090E04AE00E9486
:103E9000CB226CE17BE08DE896E00E94C714809114
:103EA000E205813009F092C01DC08091B00690916A
:103EB000B106A091B206B091B3068F709927AA27D8
:103EC000BB270897A105B10510F487E009C088E772
:103ED00007C0992339F08B5F03C0992319F08FE253
:103EE0000E940E230E946A228091930681110EC0C7
:103EF00088EF91E0EDEBF3E0DF019C011D92215092
:103F00003040E1F710929606109297060E94DE1557
:103F10006093BA067093BB068093BC069093BD066F
:103F20002091B6063091B706621B730B7093B506ED
:103F30006093B40680E06CC02FB7F8948091B10311
:103F40009091B203A091B303B091B4032FBF20911D
:103F5000BE06820F911DA11DB11D8093BF069093D7
:103F6000C006A093C106B093C2068091B00690919E
:103F7000B106A091B206B091B3060196A11DB11D84
:103F80008093B0069093B106A093B206B093B306A7
:103F90001092BA061092BB061092BC061092BD0693
:103FA0000E94DE156093B6067093B7068093B8063C
:103FB0009093B9060E94CB238091E9059091EA0580
:103FC000892B11F00E941C1B81E022C039813150E5
:103FD000398331113CCF60E070E08FEF0E947F1594
:103FE00083B7817F846083BF83B7816083BF83B7DA
:103FF000816083BF889583B78E7F83BF83B78E7FB1
:1040000083BF25CF893209F0E5CB0E94E01AE2CBCD
:104010002E960FB6F894DEBF0FBECDBFDF91CF91C5
:104020001F910F91FF90EF90DF90CF90BF90AF90D6
:104030009F908F907F906F905F904F903F902F90C8
:104040000895AF92BF92CF92DF92EF92FF920F93BB
:104050001F93CF93DF93182F062FC1E0D3E08AEF91
:10406000D82E9EEFE92E842F8470C82E842F827064
:10407000B82E842F8870A82E4170F42E8C2F880FB4
:104080008F5FE80ECC2081F0402F4D0F612F6C0F19
:104090008DE896E00E94F318402F4C0F6D2F610FB2
:1040A0008DE896E00E94F318BB2081F0402F4D1B55
:1040B000612F6C0F8DE896E00E94F318402F4C1B87
:1040C0006D2F610F8DE896E00E94F318AA2081F011
:1040D000402F4C0F612F6D1B8DE896E00E94F31866
:1040E000402F4D0F612F6C1B8DE896E00E94F31856
:1040F000F1100AC0CD17CCF4E7FC04C0D150D39422
:10410000D394ED0CCF5FBACF402F4C1B612F6D1BAA
:104110008DE896E00E94F318402F4D1B612F6C1B19
:104120008DE896E00E94F318E5CFDF91CF911F91C3
:104130000F91FF90EF90DF90CF90BF90AF900895D8
:10414000682F81EC95E00C949614CF93DF9398E060
:10415000899FE0011124FE01EC5FFD4F96819B30A9
:1041600008F09AE090934106CC5FDD4F40E0688113
:1041700082EF95E00E94D4178C8181959091020680
:104180002D81299F202D112420934D0680935106C7
:104190008A818A532B81299F202D11242093550633
:1041A000809359068F81298120933906899F802D1C
:1041B000112480933D0610927D061092760610928F
:1041C000750681E0809345068093BD0510924906EF
:1041D000DF91CF910895EF920F93CF93DF93C82F84
:1041E000D62F4FEF460F23E0682F8DE896E00E9410
:1041F0005E1AE12C03E021E04D2F6C2F8DE896E054
:104200000E947A1ADF91CF910F91EF9008952F922B
:104210003F925F926F927F928F929F92AF92BF92E6
:10422000CF92DF92EF92FF920F931F93CF93DF9382
:10423000EC01F901E4903196849164350CF019C1D8
:104240000E2C000CFF08062F062E000C110BF70198
:10425000E00FF11F1E161F060CF00BC140330CF0CF
:1042600008C1A82FC42E042E000CDD085601A80E8C
:10427000B11C87FDBA941A141B040CF0FAC02E5F0F
:104280003F4F570197E0A90EB11CB7FE04C057017C
:10429000BEE0AB0EB11CB3E0B594A794BA95E1F7BC
:1042A00047FF0AC0A42FA80FAC9CC001AD9C900D85
:1042B0001124281B390B40E08A2F0A2E000C990B81
:1042C000840F911D47FD9A95C19714F0A0E3A41B9C
:1042D000F8A067FD60E0E535F10514F0E4E5F0E0F5
:1042E0009E2FCC85C427C62E062E000CDD08F601B5
:1042F000E01BF10B8F014F01F7E08F229924E0E8DA
:10430000F0E002C0F595E7958A94E2F77E2F17FF5B
:1043100002C0095F1F4FF3E015950795FA95E1F785
:10432000200F311F542F577081E001C0880F5A951C
:10433000EAF7459545954595F601B4E54B02E00D44
:10434000F11D1124AF0143545C4FD0E02A2EAA0F77
:104350003308EE24E394BB24ED2FF0E0E215F305DF
:104360000CF087C0F9015490F1E0FF121AC0962EAC
:104370008A01E72F6901991608F072C08E2E8520F8
:1043800021F0D8018C90882A8C92E69531F4BFEF09
:10439000CB1ADB0AF6015490E0E893940F5F1F4FAD
:1043A000EACFF1101CC0782E7094962E8A01E72F68
:1043B0006901991608F054C08E2E852021F0D8018D
:1043C0008C9087208C92E69531F4BFEFCB1ADB0AF4
:1043D000F6015490E0E893940F5F1F4FEACFF3E0AB
:1043E000FF1629F0962E8A01E72F690137C0682E43
:1043F0006094862E8A01972E69018916D8F4E92DDA
:10440000E52159F0D801EC91782C7C2670FE02C091
:10441000E82B02C0E621D801EC93969439F4BFEF63
:10442000CB1ADB0AF6015490E0E89E2E83940F5FCE
:104430001F4FE3CFCE2514C08E2E852021F0D8014A
:104440008C9088268C92E69531F4BFEFCB1ADB0A6C
:10445000F6015490E0E893940F5F1F4F991660F3B4
:10446000880F19F44C5A5F4F81E0DF5F2A0D3B1D26
:1044700073CFDF91CF911F910F91FF90EF90DF905D
:10448000CF90BF90AF909F908F907F906F905F90F4
:104490003F902F900895CF93C82FF89460E08091BB
:1044A0009C060E94141580919D0618161CF460E06D
:1044B0000E941415CEBD00000DB407FEFDCF8EB5D1
:1044C00080919D0618161CF461E00E9414157894E2
:1044D000CF9108950F931F93CF93809199068F5F8B
:1044E000809399060DEB13E0C0E08C2F80640E944E
:1044F0004B2280E80E944B2261E080919C060E9442
:10450000141580919D0618161CF460E00E94141585
:10451000F80184E591919EBD00000DB407FEFDCF2A
:104520009EB58150B9F780919D0618161CF461E084
:104530000E941415CF5F0C5A1F4FC630B1F680E4AD
:10454000CF911F910F910C944B22843018F590E07D
:104550009C0123533A4FF901E858FF4F10823897D6
:104560001082FC01EE0FFF1FE05BF94F16A215A2AF
:10457000F901E458FF4F1082FC01E754FC4F108210
:10458000FC01EB54FC4F1082FC01E354FA4F108203
:104590000C94101808958F929F92AF92BF920F9330
:1045A0001F93CF93DF93CDB7DEB7A1970FB6F894E3
:1045B000DEBF0FBECDBF19A2423008F44AE08E0123
:1045C0000F5D1F4F842E912CA12CB12CA5019401BD
:1045D0000E943A2BE62FB901CA0101501109EA30B5
:1045E00014F4E05D01C0E95CD801EC93232B242B8B
:1045F000252B61F7B8018DE896E00E94590DA19630
:104600000FB6F894DEBF0FBECDBFDF91CF911F91E3
:104610000F91BF90AF909F908F900895682F8DE875
:1046200096E00C9490191F93CF93DF93C82F162F09
:104630002EE4482F63E08DE896E00E944B19DC2FB2
:10464000D10F4FEF4D0F2EE463E08DE896E00E940E
:104650004B191650CD5F212F4C2F60E08DE896E06E
:104660000E945E1A212F4C2F63E58DE896E00E9490
:104670005E1A41E06C2F83E00E94212042E06C2F03
:1046800080E50E942120CCEFCD0F44E06C2F80E527
:104690000E94212048E06C2F83E0DF91CF911F9191
:1046A0000C9421200F931F93CF93DF938C01862FBF
:1046B000C62FD0E0643030F40E94A522FE01E353FF
:1046C000FA4F11A6CE01880F991F83539A4FFC0110
:1046D000BB9616A305A3749616A215A2FE01E3537A
:1046E000FA4F81E081A7DF01AC58BF4F89E08C937E
:1046F0001C961C9218961C92E057FF4F1082DF9177
:10470000CF911F910F910895CF93DF93682FA82F1A
:10471000B0E0ED01C353DA4F8DA1882309F438C00E
:1047200089A5811135C0FE01E05CFF4F8081AA0F91
:10473000BB1FA353BA4FD8962C91D897D9969C916A
:10474000D997E22FF92FE80FF11DE80FF11D259100
:1047500034912F3F8FEF380711F41DA219C0FE01CD
:10476000E45BFF4F30835F963327220F331F95960C
:10477000ED91FC919697E20FF31F8591949164302F
:1047800010F40E945223C05CDF4F88818F5F8883C2
:10479000DF91CF910895DF92EF92FF920F931F93D5
:1047A000CF93DF93CDECD5E004ED15E0EE24EA9451
:1047B00062E08A850E9443152A8530E0F901E056BF
:1047C000F24F8491F901E457F24FF490F901E8585F
:1047D000F24FD490DD2071F081110E94EB14ED2D89
:1047E000F0E0EE0FFF1FE259F24FA591B491EC916A
:1047F000FE2299F489898F5F898B60E08A850E9407
:10480000431521960C171D0799F6DF91CF911F9143
:104810000F91FF90EF90DF9008958989882389F3A5
:104820008F3F11F4198AE9CFE98AE7CFCF93DF935D
:10483000BC018DE896E00E94C714EC0169E372E0C8
:104840008DE896E00E94590D8C0F9D1FDF91CF914E
:104850000895CF93DF9300D0CDB7DEB7789484B5B9
:10486000826084BD84B5816084BD85B5826085BD6C
:1048700085B5816085BD80916E00816080936E00FA
:1048800010928100809181008260809381008091EC
:10489000810081608093810080918000816080939D
:1048A00080008091B10084608093B1008091B0005D
:1048B00081608093B00080917A00846080937A0058
:1048C00080917A00826080937A0080917A00816082
:1048D00080937A0080917A00806880937A001092A9
:1048E000C10082E38093BE0681E090E0A0E0B0E0EA
:1048F0008093BA069093BB06A093BC06B093BD0606
:104900008FEF8093AF06E0E8F7E7259134912130EF
:10491000304C09F049C0E6E9F7E7E491E0939806E6
:10492000E7E9F7E7E491E093D105E8E9F7E7E491F7
:10493000E093D205E9E9F7E7859194919093D40546
:104940008093D305EBE9F7E7859194919093D60591
:104950008093D50587E080930406EEE9F7E7E491BC
:10496000E0930306EFE9F7E7E491E093AF06E0EAAE
:10497000F7E7859194919093EA058093E905E2EA3F
:10498000F7E7859194919093EC058093EB05E4EA29
:10499000F7E7859194919093EE058093ED05E6EA13
:1049A000F7E7859194912CC09CE390939806109220
:1049B000D1058093D20580E293E09093D405809353
:1049C000D30584ED93E09093D6058093D50587E0D9
:1049D00080930406809303068CEA9DE09093EA0599
:1049E0008093E9058EED9DE09093EC058093EB05B7
:1049F00084E79EE09093EE058093ED058CE39FE0C5
:104A00009093F0058093EF056FEF70E08FEF0E94B9
:104A10007F1588E08093D70589E08093D80587E0EB
:104A20008093D90586E08093DA05A4E0A093DB05A6
:104A300082E08093DC0585E08093DD050E94CB2336
:104A40008CE39FE09093E8058093E705B4E0B09392
:104A5000E60581E08093F1059BE090939B069DE045
:104A600090939A0690E190939C069EE090939E0608
:104A70009FE090939D06809395068093AD061092DB
:104A8000AE0680939406EAE4FBE0E491EF5FE093E6
:104A90009106EBE4FBE0E491EF5FE09392068CE497
:104AA0009BE09093AC068093AB06EFB7E983F89454
:104AB0008091D802811127C0E2E8FDE08491E6E907
:104AC000FDE09491E82FF0E0EE0FFF1FE456FF4F5A
:104AD000A591B491EC91E92321F461E08AE00E9470
:104AE000141561E08AE00E9443158CB580618CBD8D
:104AF0008CB580648CBD61E08DE00E94431561E05F
:104B00008BE00E9443158091D8028F5F8093D8027A
:104B1000F981FFBF8CB58F7D8CBD8CB58C7F81609A
:104B20008CBD8DB581608DBD8CB58C608CBD61E018
:104B300080919B060E94431561E080919A060E9435
:104B4000431561E080919C060E94431580919E066A
:104B500018161CF461E00E94431580919D061816FA
:104B60001CF461E00E94431580919E06181674F4AF
:104B700060E00E9414156AE070E080E090E00E941E
:104B8000031661E080919E060E94141580919A069A
:104B9000082E000C990BFC01E858F24FE491F0E06C
:104BA000EE0FFF1FEA55FF4F259134913093A20677
:104BB0002093A106FC01E457F24FE491E093A8068C
:104BC00080919B06082E000C990BFC01E858F24FCF
:104BD000E491F0E0EE0FFF1FEA55FF4F259134916D
:104BE0003093A00620939F06FC01E457F24FE49116
:104BF000E093A70680919D06082E000C990BFC01FE
:104C0000E858F24FE491F0E0EE0FFF1FEA55FF4F36
:104C1000259134913093A4062093A306FC01E45718
:104C2000F24FE491E093A90680919C06082E000CB7
:104C3000990BFC01E858F24FE491F0E0EE0FFF1FF2
:104C4000EA55FF4F259134913093A6062093A5068F
:104C5000FC01E457F24FE491E093AA0681E20E943E
:104C60004B2284E10E944B228091980687FF03C06B
:104C70008FE7809398068091980680680E944B2267
:104C800080E20E944B228CE00E944B220E946A220A
:104C900081E08093020679E8E72E76E0F72E05E2C0
:104CA00016E01982E8E9CE2EE0E0DE2ED701E1E041
:104CB000ED937D01D801CD92DD928D01498160E0B7
:104CC00082EF95E00E94D417B981BF5FB983B430F9
:104CD00069F761E070E083E00E947F158091B10088
:104CE000887F81608093B100F894109280001092C8
:104CF0008100109285001092840088E191E09093E9
:104D00008900809388008091810088608093810071
:104D10008091810081608093810080916F0082602A
:104D200080936F0078948091E9059091EA05892B32
:104D300011F00E941C1B8091E305813009F031C203
:104D4000109203060E94630F1092E5051092430231
:104D50001092420210924102109240020E94B51736
:104D600088E094E190933D0280933C0284E194E1D9
:104D700090933F0280933E020E94B51784E0809397
:104D8000BA008EE69DE090934502809344028FEC3A
:104D90009EE0909347028093460262E0462E512C9B
:104DA000612C712C0E94631B882309F4F2C180914D
:104DB000FE018431B1F4E1E0E093FD01109293062D
:104DC00099249A94312CD12C50E3852EC12C0E9429
:104DD000631B8823E1F32091E205213009F0F6C13D
:104DE00022C2811157C18091E405813009F4CBC200
:104DF0008091D602882309F4C7C08091D30288230A
:104E000099F08091FD0181110FC08091E0058150E2
:104E10008E3F08F0BCC28EEC92E00E946C0780913D
:104E2000E205813009F4D2C280EC92E00E945F0B6F
:104E300089EB92E00E945F0B8091D502811108C03E
:104E40000E94D3120E94681087EC92E00E9408082A
:104E50008EEC92E00E94080880EC92E00E94080824
:104E600089EB92E00E94080805E912E08DE4E82E43
:104E700082E0F82E91E7C92E92E0D92ED80114963F
:104E80008C911497882311F112968C911297882394
:104E900009F4A1C211968C9187FD8D5F859585954A
:104EA000D801EC91E7FDED5FE595E595F0E0E05088
:104EB000FF4FB5E18B9FE00DF11D11248081833000
:104EC00008F089C2F801828181508283D60114964C
:104ED0008C911497882311F112968C911297882344
:104EE00009F483C211968C9187FD8D5F8595859518
:104EF000D601EC91E7FDED5FE595E595F0E0E0503A
:104F0000FF4FB5E18B9FE00DF11D112480818330AF
:104F100008F06BC2F601828181508283D70114961A
:104F20008C911497882311F112968C9112978823F3
:104F300009F462C211968C9187FD8D5F85958595E8
:104F4000D701EC91E7FDED5FE595E595F0E0E050E8
:104F5000FF4FB5E18B9FE00DF11D1124808183305F
:104F600008F04AC2F7018281815082830A5F1F4F95
:104F7000F6E0EF0EF11C86E0C80ED11C92E0093B72
:104F8000190709F07BCF1CC08091D502811118C090
:104F90008091CC02882391F08091FD0181110EC097
:104FA0008091E00581508E3F08F030C2B1E0B093AF
:104FB0004C028091E205813009F444C20E944810FD
:104FC0000E948F090E9443080E94F50A8091D30233
:104FD0008823D9F08091CC02882369F08091D50292
:104FE000882309F4D6C08091C5028111D2C0809176
:104FF000BE028111CEC0E091FC010E2E000CFF0B11
:10500000E752FD4FA1E0A08341C08091D5028111FC
:105010000EC08091CC02882351F0E091FC010E2E4D
:10502000000CFF0BE752FD4FB2E0B0832FC0909110
:10503000C5028091BE029923F1F0E091FC01882322
:1050400091F00E2FEE0F110B0E94B12A07521D4F47
:10505000A30192010E94082BDC01CB010396A11D44
:10506000B11DF80106C00E2E000CFF0BE752FD4FDC
:1050700083E080830BC0882349F0E091FC010E2E71
:10508000000CFF0BE752FD4F94E09083AAE0A09341
:10509000FE017FC08B30C9F50E94F80C2EEF31E085
:1050A00040E060E08DE896E00E94072109ED12E003
:1050B000B6E1B983F80141918F01442359F0440FBF
:1050C000440F440F4A5F27EF31E069818DE896E095
:1050D0000E940721F981FA5FF983F43359F780912F
:1050E000E205813009F0B1C18091FC01853024F4E2
:1050F00081E08093FE0103C092E39093FE018091D2
:10510000E405813009F045C0A6C18A3029F40E9427
:10511000F80C0E945D123DC08C30C9F3813091F4CF
:105120000E94F80C8091D602882399F10E94070D05
:105130001092FE018091FC018F5F8093FC010E9420
:10514000720927C08233F9F40E94F80C2CEC30E08D
:1051500040E060E08DE896E00E940721AAE0A0937D
:105160009606BAE2B09397066EEB70E08DE896E093
:105170000E94C7148091E205813009F070C1E3E319
:10518000E093FE0106C0833321F40E94F80C0E94D4
:10519000630F80E090E0892B09F404CE0E940000A8
:1051A00001CE60E080EB90E00E94522361E080EB52
:1051B00090E00E94522362E080EB90E00E94522334
:1051C00063E080EB90E00E945223BCCD8091E30528
:1051D000813049F18091E405813009F44BC13110EF
:1051E00036C08091E1058F3F21F08370813009F452
:1051F000C2C08091DF058F3F21F08370813009F4B8
:10520000BEC0F3E0CF1629F0C7FE04C042E0C42EB2
:1052100001C0C12C8091920694E0980FD92E8C9DEC
:10522000D018112434C08091920690E09195819518
:105230009109D82EDD0CD80EDA94DA94213009F0D9
:1052400024C160E088E194E00E9452239C2C882DC8
:10525000082C000C990B8D199109D7FC9395029796
:10526000A4F481E0981609F476C092E0991609F446
:105270007BC091108CCF1092FD0181E08093D6020B
:105280008093D5028093FE0184CF332433948D2DF7
:105290000D2C000C990B880D911D87FC9A9597FD9C
:1052A00001965C01B594A7942A2C8A2C109296063C
:1052B000A0929706A1E0A09395061092940630E282
:1052C000E32E34E0F32E00E010E0EC2D0C2C000C6B
:1052D000FF0BFA83E98389819A818017910759F43A
:1052E00093E09093960680919206A22DC89EA00D01
:1052F0001124A0939706F701859194910E9416249A
:105300000F5F1F4FB2E0EB0EF11C0330110519F7D0
:105310001092AD061092AE06809192064A2DC89E5C
:10532000400D1124415024E560E08DE896E00E9494
:105330004B19E1E0E093AD06E093AE068091920652
:1053400063E0680FFA2DC89EF00D11248F2F825054
:105350000E9413233CCD1092FD019092D602109230
:10536000D5029092FE0115CF1092FD011092D60247
:105370001092D5020ECFC3940E94171B3ACFCA9445
:105380000E94171B3ECF93E39093FE0131CD809195
:10539000DE0581508E3F28F48EEC92E00E94930748
:1053A0003ECD8091DF0581508E3F28F48EEC92E057
:1053B0000E94E10734CD8091E10581508E3F08F0D5
:1053C0002ECD8EEC92E00E94BA0729CD8EEC92E0B1
:1053D0000E94B21229CDD80112961C9212971496EF
:1053E0001C92C8010E948E0A6DCDF60112821482B1
:1053F000C6010E948E0A8ECDD70112961C9212977A
:1054000014961C92C7010E948E0AACCD8091DE05D5
:1054100081508E3F20F4E1E0E0934B02CACD8091B1
:10542000DF0581508E3F20F4F1E0F0934A02C1CDB8
:105430008091E10581508E3F08F0BBCD81E08093E3
:105440004902B7CD80934802B9CD8091E305813000
:1054500009F055CE49CE92E39093FE019ACE809109
:10546000E305813009F48BCE8091E405813009F0A9
:1054700090CE85CE8091920690E09195819591098C
:10548000D82EDD0CD80EDA94DA9460E080E194E056
:105490000E945223DCCEE1ECF5E01382128288EE0A
:1054A00093E0A0E0B0E084839583A683B78388E18E
:1054B00092E0918380831092900610928F068AE288
:1054C00092E090938E0680938D0608958F929F921E
:1054D000AF92BF92CF92DF92EF92FF92CF93DF9382
:1054E000EC01688179818A819B8161157105810553
:1054F000910521F464E279ED8BE597E02DE133EF3E
:1055000041E050E00E94082B49015A019B01AC0187
:10551000A7EAB1E40E94272B6B017C01ACEEB4EF4B
:10552000A50194010E94352BDC01CB018C0D9D1D42
:10553000AE1DBF1DB7FF03C00197A109B048888306
:105540009983AA83BB83BC01CD019F77DF91CF9163
:10555000FF90EF90DF90CF90BF90AF909F908F9093
:1055600008958F929F92AF92BF92CF92DF92EF9267
:10557000FF9260910002709101028091020290916D
:105580000302611571058105910521F464E279ED4D
:105590008BE597E02DE133EF41E050E00E94082BCE
:1055A00049015A019B01AC01A7EAB1E40E94272BF3
:1055B0006B017C01ACEEB4EFA50194010E94352B88
:1055C000DC01CB018C0D9D1DAE1DBF1DB7FF03C0BF
:1055D0000197A109B0488093000290930102A09323
:1055E0000202B0930302BC01CD019F77FF90EF90C0
:1055F000DF90CF90BF90AF909F908F900895609371
:1056000000027093010280930202909303020895B6
:10561000052E97FB1EF400940E941F2B57FD07D008
:105620000E943A2B07FC03D04EF40C941F2B50958C
:105630004095309521953F4F4F4F5F4F089590957E
:105640008095709561957F4F8F4F9F4F08950E9471
:105650005C2BA59F900DB49F900DA49F800D911D74
:1056600011240895B7FF0C94272B0E94272B821B2F
:10567000930B0895A1E21A2EAA1BBB1BFD010DC0BE
:10568000AA1FBB1FEE1FFF1FA217B307E407F507F2
:1056900020F0A21BB30BE40BF50B661F771F881FCE
:1056A000991F1A9469F760957095809590959B0164
:1056B000AC01BD01CF010895A29FB001B39FC0010D
:1056C000A39F700D811D1124911DB29F700D811D2E
:1056D0001124911D08950E94DF2B88F09F5798F0A8
:1056E000B92F9927B751B0F0E1F0660F771F881FE7
:1056F000991F1AF0BA95C9F714C0B13091F00E9401
:10570000F92BB1E008950C94F92B672F782F882797
:10571000B85F39F0B93FCCF3869577956795B39527
:10572000D9F73EF490958095709561957F4F8F4F96
:105730009F4F0895E89409C097FB3EF4909580959B
:10574000709561957F4F8F4F9F4F9923A9F0F92F47
:1057500096E9BB279395F695879577956795B795C5
:10576000F111F8CFFAF4BB0F11F460FF1BC06F5FAB
:105770007F4F8F4F9F4F16C0882311F096E911C0BD
:10578000772321F09EE8872F762F05C0662371F0DE
:1057900096E8862F70E060E02AF09A95660F771FF2
:1057A000881FDAF7880F9695879597F9089557FD22
:1057B0009058440F551F59F05F3F71F04795880F7F
:1057C00097FB991F61F09F3F79F087950895121616
:1057D00013061406551FF2CF4695F1DF08C01616C2
:1057E00017061806991FF1CF869571056105089473
:1057F0000895E894BB2766277727CB0197F908958A
:105800000E94132C0C94842C0E94762C38F00E9459
:105810007D2C20F0952311F00C946D2C0C94732C9E
:1058200011240C94FA2B0E94D72B70F3959FC1F38F
:10583000950F50E0551F629FF001729FBB27F00D3E
:10584000B11D639FAA27F00DB11DAA1F649F662793
:10585000B00DA11D661F829F2227B00DA11D621FE2
:10586000739FB00DA11D621F839FA00D611D221F9C
:10587000749F3327A00D611D231F849F600D211D80
:10588000822F762F6A2F11249F5750409AF0F1F003
:1058900088234AF0EE0FFF1FBB1F661F771F881F6C
:1058A00091505040A9F79E3F510580F00C946D2C0B
:1058B0000C94FA2B5F3FE4F3983ED4F386957795EA
:1058C0006795B795F795E7959F5FC1F7FE2B880F12
:1058D000911D9695879597F9089597F99F6780E8A8
:1058E00070E060E008959FEF80EC089500240A9432
:1058F0001616170618060906089500240A941216AB
:105900001306140605060895092E0394000C11F4DD
:10591000882352F0BB0F40F4BF2B11F460FF04C08A
:105920006F5F7F4F8F4F9F4F0895991B79E004C0A1
:10593000991F961708F0961B881F7A95C9F78095CE
:10594000089597FB072E16F4009407D077FD09D031
:105950000E94B52C07FC05D03EF4909581959F4F91
:105960000895709561957F4F0895AA1BBB1B51E167
:1059700007C0AA1FBB1FA617B70710F0A61BB70BBF
:10598000881F991F5A95A9F780959095BC01CD0164
:105990000895EE0FFF1F0590F491E02D099481E02A
:0C59A00090E0F8940C94D42CF894FFCF05
:1059AC0001010101010101010101010101010101DB
:1059BC0001010101010100000002020202020202C7
:1059CC0002020202020200000001010002010201B7
:1059DC0000000000000102020202020102000101AB
:1059EC00020202020202020202020202020200028D
:1059FC00020202010102020102020102020202027F
:105A0C000201020001020202010102010000000079
:105A1C00010202020202020200020202020101025F
:105A2C000202020002020202020201000000000156
:105A3C000202010102020102000102020202020240
:105A4C000102020102020201010202020200020230
:105A5C00020202020202020202020202010100021E
:105A6C000102020102020100000000000202010218
:105A7C000001010000000202020202020202020204
:105A8C0002020200000001010101010101010101FA
:105A9C00010101010101010101010101FF011401D9
:105AAC00010000000104710A0713073400130901F7
:105ABC00070F070400000000961469143407D3176D
:105ACC0061144D143E14000000009019AC133407FF
