:100000000C94C9080C94F1080C94F1080C94F108B4
:100010000C94F1080C94F1080C94F1080C94F1087C
:100020000C94F1080C94F1080C94F1080C94121D36
:100030000C94F1080C94F1080C94F1080C94F1085C
:100040000C946C1C0C94F1080C94F1080C94F108BD
:100050000C94F1080C94F1080C94F1080C94F1083C
:100060000C94F1080C94F108D12BD42BD72BDA2B5C
:10007000DF2BE42BEC2BEF2BAA2CC62CE22CFD2C37
:10008000192D372D572D762DC42ED62EE92EFB2E69
:10009000132F252F3B2F4D2F1D332033233329338F
:1000A000313338333B334133B334BE34C934D434C1
:1000B000E434F134FC34073510151F0035F06AAC18
:1000C00055562AAA355E0FE00640034E01D57DCA7B
:1000D000ABFC57E039C00DC007C003C001C001C070
:1000E00001C003E010110F0035C06AB0D550AAA8B6
:1000F000D554AAAC5554BAACDDD46FA837501FE024
:100100000780070007000F80080E182C342C366A71
:1001100054ACD46C54381010080805A240000A04EE
:1001200050200E090C001E0017002B8037E06BF0EA
:10013000D5F8AAFCFFFC080C04048CA8F8606870D1
:10014000206070F80808020040040020040008093C
:1001500010181858DAFB7F1E1808052592623C100B
:10016000100E02180230026007C00A7E163F103DD2
:1001700010793FF37FE6FFCCFF98FFF071C0100EBF
:10018000008000800FF81F7C1F7C1E3C1C5C1C5CE8
:100190001E3C1FFC1FFC1FFC13E41E3C100E020043
:1001A0003FF83DF83C783838383839383D783EF8F3
:1001B0003EF83EF83EF827C83C78100E02000200D8
:1001C000020003E0FE10FC08BC689E38CFEC67F626
:1001D00033FB19FF0FFF038E100E08000800098083
:1001E000067F0820383C3FFE3FFE3FFE20021554AC
:1001F0000FF800000000080A00000020704468D4D6
:100200007AFE1016101010105410AA0054008A889C
:1002100014449280500E00000000000000400000D6
:10022000400020141080000012008A128290ECFE20
:100230002020000000000600005009000212055CAA
:1002400001000914000071AA400C41550A207EFFEC
:1002500081045580401250912000519521E44A912B
:100260001AB84D800D506EFFFABE160187565A031C
:1002700062BC9701C1501A813AB0158003503EFE0E
:100280000EF80155F50401AAAB240F57D51435F724
:10029000FF286B1F8148D519E1E4AB3FF15CD563C2
:1002A000D124791FD14449F7FF24C11401147F0CD4
:1002B00001FC48290000000000000000000A0000C6
:1002C0000005200000000600000018B0000924040A
:1002D000200000086014049204140000064008097D
:1002E000242678000002C00005963BC02800038049
:1002F00040092C0F8010000380440492030000008A
:1003000003815509FC030000000380FF8DFA030000
:100310000002000081092400000006000CAD049ECC
:100320000000000A0002AD0F260002101AA800A269
:100330006C9200412012AA10FC092400195823FFD6
:10034000060200000906002A022480000000BFE423
:100350006ADA0000000000E020EADA000000000194
:10036000A431AA028000000A283FEAFFFE400000F4
:1003700004106180400000000000008C461404005E
:10038000206000000510900200326800001081E338
:10039000C0002DFC0000100084202820220803301B
:1003A000800BD0102DAF1001E4800BD0002DAE805B
:1003B0000187800C30002C2E9C01C3000BD001BFA4
:1003C000FF8000E600042141000000007E0003C31E
:1003D000C0008058003C014007E006608A003C00F5
:1003E0008007F0480286003C00000208800184007B
:1003F0003C0000029E0000CC003E000001AA00006C
:10040000681455000022828014380800000073FE32
:100410002008300000000000000000300000000054
:100420000000000000482980000000000007F8FFDD
:10043000000007C000000110110080046000000FE0
:10044000FCFF100985E000001110110881257000E3
:10045000401000010000051820E012800130000764
:100460008C2040128028025864EC20E013C028033E
:10047000FFFD7C206113C07826C1643C0060114000
:10048000786630758C20E01060510E98258420E449
:100490000000C14200E58420E210000107FFE7FCF4
:1004A00020E007820015000000006011C3C10002B7
:1004B000000000001780F100096400000011E1C194
:1004C0000800000000001020F10C02001E000010C7
:1004D00000010800802100000F9C3F0C00005E809E
:1004E000000150110C00005E80033FFE1F1C000045
:1004F0006180001111111C00005E80000000001CD2
:1005000000002100000000001C1C1E1E0000000056
:10051000001C22220000000000000C5FFB00000015
:1005200000000000A7E500000002000000A6E200B5
:1005300000001E000000FE3C0000003E00000083A2
:100540008801060066102000A2A8010001EE30100C
:100550000880380000039E003000337E7000037274
:10056000007806BB79502003CA009410B0FF4958A8
:100570009B82613200FFF831EF02C2003A000000B6
:1005800007D582C21C3810080026C682C206180091
:10059000000003FF03FE0018281800000030202090
:1005A0000040586020004068A05000A058E0A8011A
:1005B000506CB05000A0D550F801F0A9B0204C41CB
:1005C000595000EC01A9B0215C00D95032AC00A810
:1005D000E05513007040B60CC02040D633202100F7
:1005E000B230E10080DACD6142A0AACD400140DA0C
:1005F0000C4FFD40ABFFD55640D8002AABC0A80831
:10060000555560700AAAAAB0202CD557E0201C7F4F
:10061000FC0028180000C000000003B8000000051E
:10062000540000000AAA000000155500000019AB94
:10063000000000117500000801B300000A01290044
:10064000002C402800001C5028000000002800005A
:100650003FFE3000005555C0FC00AAAAA14200D5BB
:100660005562A1006AFAA490801F07CC9FC0003099
:1006700017F4A00114000000039E000000011E00FA
:100680000000028A000000000A000000080A7CFE48
:10069000447C7C446C546C4410161010383854540C
:1006A0009292AAAAC6C692929292FEFE0000000002
:1006B000000000001010383854549292AAAAC6C6FE
:1006C00082828282FEFE2020080000203E0000F888
:1006D0004900012441FFFF04E155550E41AAAB0436
:1006E000415555047EFFFEFC558003545A9112B4C7
:1006F000559113545A9112B4558003547AFFFEBC9D
:10070000158003501A8002B0158003501A8002B081
:10071000158003503EFFFEF84155550441AAAB0435
:10072000E155550E41FFFF04490001247F0FE1FC14
:100730004917D1244117D1044917D12449FFFF2477
:10074000410001047F0001FC48290E0000080FE071
:100750000000001BC0001C155000000015700008B0
:100760002AB00009242AA8000835501404925558CC
:10077000001C2AB00809246AAC001C155000049221
:100780003554283E0FE07E09241AB8103E0380FF3E
:10079000049207C0007F0381FF89240300007F03C8
:1007A00081FF8492030000220000810924001E00C2
:1007B000220000AD0492003F002A0000AD09240091
:1007C00073802BFC00A10492006DE023FE00FF0962
:1007D00024002DF023FF000000000020202A02004A
:1007E000000000002DA02ADA001FC000002DB02A52
:1007F000DA003FE000002C282A02007FF00A283FA0
:10080000F43FFE007FF004100000000000202000F4
:100810000000000000002DA000007C000000002D62
:10082000BF8001AA0003C000203FC0015580042002
:10083000282020C002AA800BD0102DAE8003554086
:100840000BD0002DAE8002AAC00C30002C2E8003ED
:1008500055400BD0003FFFB802AAC00421FC0000A5
:100860005601558003C3FE0001AB00FF014007FFA6
:10087000000155003C008007FF0002AB003C000077
:100880000202000355003C000002BA0002AB003E29
:10089000000002BA0001561455000002820014FC48
:1008A0000800000003FE0008300000000000000007
:1008B0000030000000000000000000482980000017
:1008C0000000001FFFFF03FFE7FC000011111102F1
:1008D00000240600181FFFFF02FFA5F500EE11110E
:1008E000110280A516C15510C0010280A51562AA8B
:1008F00090500D03FFE7FEA555507829020024050E
:1009000066ACD0787902AAA556A574502879020061
:100910002405666C10285102CC2584E5A4100051F2
:1009200002CC258420A010000102C0258420A01044
:10093000330103FFE7FC20A010A1410000000000EC
:100940006011E1E103000000000011E1E11DC000C1
:100950000000001140A12AB0000000001140A15584
:1009600050001E0000100001AAA8802100001FFFF7
:10097000FFD598005E8000111111AE88005E8000E6
:100980001FFFFFCD80006180001111119480005E77
:10099000800000000014000021000000000014FF8F
:1009A000FE1E000000000014800200000000000095
:1009B0000CBFFF00000000000000A00103FE03FECA
:1009C00000C000A0010202020203B800FFFF02FB08
:1009D0008EFA0554008009028B768A0AAA00AAAF13
:1009E000028AAA8A155500800903FF57FE19AB0039
:1009F000B30F0202AA02117500B30902AB56AA0195
:100A0000B300B00F0203AE02012900FFF802C27268
:100A1000C2002800000002C202C200280008000232
:100A2000C202C2002800000003FE03FE0030201AAC
:100A300003E000000C180000100400002202000077
:100A4000401100004001000083E08000AC188000ED
:100A50009004BF80AFFABD80D7F5BC80D7F5BB80CE
:100A600097F4A78097F4B78097F4BF80FFFFA0802A
:100A700000000000000000000006000003880000E5
:100A80000250000002600000FFBC7000B032E000C5
:100A9000C84A7000CFCCE000201D003F800000D588
:100AA00040001FABE00075D60000AABC0000DD6B63
:100AB0000000A7D58000CB7EC00095403FFC1D40C4
:100AC00040020B40FFFF0D4090090940A5690280DC
:100AD000B5490280A6250480FFFF07864002006911
:100AE0004EFA009F4EAA00E54EFA00BD4E0260A5E8
:100AF0007FFE96660000F9180E38A7000B2CBD008B
:100B00000EBAA5000F3C66000E3818000000180F42
:100B100001F00003F80007FC000208003E4F807E51
:100B2000AFC0FC47E04000405CE74054E5405CE774
:100B30004040E04043F8407C07C007FC001009AA91
:100B4000A800008D880D808F880D808D880000AAF8
:100B5000A8080B0000000000000000001C2A080B81
:100B600000000000000000001C3E3E080B000000DA
:100B7000000000003E7F7F7F080B00000000003E69
:100B80007F7F7F7F1C080B0000003E7F7F7F7F1CE4
:100B90001C3E080B003E7F7F7F7F1C08081C3E0820
:100BA0000B3E7F7F7F7F00000000081C080B1C3E6F
:100BB0007F7F36000000000008080B001C3E360056
:100BC000000000000000080B00081C0000000000EE
:100BD000000000080B0000080000000000000000FA
:100BE000080B00000000000000000000000F071CC0
:100BF000003E003600F380BE801C00220010090079
:100C00007802F805F203FC07F80DC05800680030C0
:100C1000001009007803F807FE03FC07F80DC05820
:100C200000780030000F071C0022002200F780BE71
:100C3000801C00220010071C003E003E00FF80BE0A
:100C4000801C002200100E8000C000C000A00070B8
:100C50000018000E000F000F80FE607E7027481302
:100C6000C001C0100E8000C000C000E0007000187D
:100C7000000E000F000F80FFE07FF037D81BC0018F
:100C8000C010068040C1F0BFE847E4033A01FE10FF
:100C9000068040C1F0FFF847FC03FE01FE0F030091
:100CA0007003801C000F030000FFFE00000F031CF8
:100CB00000038000700F030100038001000805009D
:100CC00050A850002804DBFFC5FFE0FA00490020CF
:100CD00072004D002023FFC9FFE00808000000005B
:100CE00000081C0008080000000008221400080882
:100CF00000000000220844000606E0E05CF0E0A0EE
:100D00000A0A153A49676E6F7265006D560A0A50F5
:100D10004C45415345205455524E204F46462000E5
:100D20004C4F57204241545445525921200003054D
:100D30003F213F1208120A100A0E1C0E0C1E0C1442
:100D40001A14161F161E131E1E1B1E1E1F1E3F21C9
:100D50003F3A2F3A173D173F213F181F02040A045C
:100D60001F0E04040E1F0A1F0A0E0E1F04110E2E62
:100D7000252E2F2A2E262929021F02081F08150EAC
:100D800004040E150E15151B151B040604040C0493
:100D90000000000017000300031F0A1F16371A196E
:100DA00004130A153A000300000E11110E000A0484
:100DB0000A040E04003000040404001000180403A8
:100DC0001F111F121F101D151711151F07041F17C4
:100DD000151D1F151D01011F1F151F17151F000AC7
:100DE00000003200040A110A0A0A110A040115025D
:100DF0000E11171E051E1F150A0E110A1F110E1FB8
:100E000015111F05010E111D1F041F111F110810C0
:100E10000F1F041B1F10101F061F1E040F0E110EA4
:100E20001F09060E112E1F051A121509011F011F99
:100E3000101F0F180F1F0C1F1B041B031C03191579
:100E400013001F11030418111F00020102202020AB
:100E50000001020C121E1F120C0C12120C121F0C9D
:100E60001A14041E05242A1E1F021C141D10202003
:100E70001D1F0814111F101E041E1E021C0C120C34
:100E80003E0A040C123E1E040214160A020F120E31
:100E9000101E0E100E1E081E120C1226281E322ABC
:100EA00026041E21001F00211E040102013F213FD4
:100EB000F6E8DBCFC3B8AEA49B928A827B746E68DF
:100EC000625C57524E4945413E3A3734312E2C2907
:100ED000272523211F1D1C1A19171615141312116B
:100EE000100F0E0D0C0B0A090807064500680100DB
:100EF00000172B152010204C4F4144455200172B52
:100F000016201314000A4E6F20534420636172644C
:100F1000206F720A6E6F204C4F414445522E484557
:100F2000580A0A153A45786974001D20466C6173A9
:100F300068696E670A20206C6F616465722E2E2EC0
:100F40000A0A444F4E2754205455524E204F4646CD
:100F500021000101FF030101F703560F520F0000AA
:100F60000000240027002A000000000025002800BF
:100F70002B00050089300802380249786814000007
:100F8000050038016801000048230000000000004F
:100F90000000000000000018000000010000000038
:100FA00007C000003E00000000007C0201E00000DD
:100FB00000000007F27F000000000000003DE0009C
:100FC000008020000003DFDF00011B36C0001E028E
:100FD00001E0012AA48001F007003E00B31280075F
:100FE00000020001000200001800070000000000DD
:100FF0000000000D800000005000000018C000003C
:10100000501000000018C000009B558000003FE019
:1010100000005259000000EFB800008A548000011F
:10102000EFBC00000000000001FFFC000000000019
:101030000001FFFC000000800000FFFFFFF807FB3D
:10104000EFF0007FFFFFF00001C00000221FC22070
:1010500000794F0000771FC7700000000000720F7A
:1010600082700000000000350705600000000000ED
:1010700000FFF8000000000000007FF0000000000A
:10108000000000020000000000000000020000005C
:101090000000000000000000000000000000000050
:1010A000000080000000000000000100002100029C
:1010B000000400C56310A1444420C502FFFFFFFFE8
:1010C000FFFFFFFFFF0017534400161378001613AD
:1010D00014001510200015201000540A03E1818629
:1010E0007F3E186D830F0F0E0183866033186DC32A
:1010F000198F1803C38E6033186DE330CF1803C304
:101100009E603630CDE360CF3006C79E7E3E30CD48
:10111000B360CF300CC6F6603330D9B660CF33CF72
:10112000CCF66061B0DB1E60CF30D86CE6C061B039
:10113000DB1E618F19986CC6C063B19B0E330F0F15
:10114000B078C6FF7E1F1B061E0F000000002300A4
:101150002600290004040404040404040202020218
:10116000020203030303030301020408102040806A
:1011700001020408102001020408102000000008E9
:10118000000201000003040700000000000000004E
:101190007F3811241FBECFEFD8E0DEBFCDBF11E0F6
:1011A000A0E0B1E0EEE2F4E702C005900D92A83CA9
:1011B000B107D9F728E0A8ECB1E001C01D92A83230
:1011C000B207E1F718E0C9ECD8E004C02197FE01AE
:1011D0000E94F639C83CD107C9F70E9463280C94D5
:1011E000153A0C940000089580E090E008958F92E5
:1011F0009F92AF92BF92CF92DF92EF92FF920F93A6
:101200001F93CF93DF9380910405813029F08230C2
:1012100009F46BC50C94111580914205813009F4D5
:101220008FC590914005913031F48091C9018111B1
:1012300090C59093C90180914305813009F48EC512
:1012400080914105813039F480910305811191C568
:1012500082E08093030530914405313009F03FC5A9
:1012600022E0209304051092CC011092CB01109241
:10127000CA019091C901892E9111C7C565E0D62E8A
:10128000D092C80179E0972E9092980485E18093DE
:10129000460446E150E0509314024093130260E18B
:1012A00070E0709316026093150283E0809317023A
:1012B000EEE1EE2EF12CF0921902E0921802E5E137
:1012C000F0E0F0931B02E0931A0280931C0250930B
:1012D0001E0240931D024AE150E0509320024093C9
:1012E0001F0280932102ADE4B0E0B0932302A093EB
:1012F0002202EBE0F0E0F0932502E09324028093D9
:101300002602EBE2F0E0F0932802E0932702EDE200
:10131000F0E0F0932A02E093290280932B02E2E5A9
:10132000F0E0F0932D02E0932C02E0E3F0E0F09384
:101330002F02E0932E02809330020BE110E0109315
:10134000320200933102E1E5F0E0F0933402E093E1
:10135000330280933502E4E2F0E0F0933702E09349
:101360003602E5E5F0E0F0933902E093380280932D
:101370003A02ECE1F0E0F0933C02E0933B02EBE553
:10138000F0E0F0933E02E0933D0280933F02C7E617
:10139000D0E0D0934102C0934002E4E7F0E0F09344
:1013A0004302E093420280934402E0E4F0E0F093D1
:1013B0004602E0934502F0924802E0924702109202
:1013C00049020F2EFEE0EF2EF12CF02DF0924B0291
:1013D000E0924A02F0934D02E0934C0210924E02CA
:1013E000E5E3F0E0F0935002E0934F02E7E7F0E02E
:1013F000F0935202E093510210925302E4E0F0E0C5
:10140000F0935502E0935402E3E0F0E0F0935702CA
:10141000E093560230935802E9E5F0E0F0935A0267
:10142000E0935902E9E4F0E0F0935C02E0935B02A0
:1014300030935D020F2EF2E6EF2EF12CF02DF0929C
:101440005F02E0925E020F2EF0E5EF2EF12CF02D00
:10145000F0926102E0926002309362020F2EF4E596
:10146000EF2EF12CF02DF0926402E0926302F092E4
:101470006602E0926502D09267020F2EF7E0EF2E2F
:10148000F12CF02DF0926902E09268020F2EFDE639
:10149000EF2EF12CF02DF0926B02E0926A0268942C
:1014A000DD24D2F8D0926C020F2EFEE6EF2EF12C46
:1014B000F02DF0926E02E0926D0250937002409314
:1014C0006F02D09271020F2EFCE3EF2EF12CF02D63
:1014D000F0929A04E09299040F2EF8E2EF2EF12C8C
:1014E000F02DF0929C04E0929B040F2EFDE0AF2EB5
:1014F000F02DA0929D040F2EF7E0BF2EF02DB0929C
:101500009E0410929F040F2EF1E5EF2EF2E0FF2EC5
:10151000F02DF092A104E092A0040F2EF9E3EF2E3B
:10152000F12CF02DF092A304E092A204A092A40466
:10153000B092A5041092A6040F2EFBE8CF2EDD2456
:10154000D394F02DD092A804C092A7040F2EF5E8F2
:10155000CF2ED12CF02DD092AA04C092A904A09233
:10156000AB04B092AC041092AD046894CC24C1F8E2
:10157000DD24D394D092AF04C092AE040F2EF6E2D5
:10158000CF2EDD24D394F02DD092B104C092B004BC
:10159000A092B204B092B3041092B4040F2EFEE2F3
:1015A000CF2ED12CF02DD092B604C092B5040F2EC0
:1015B000F7E3CF2EF2E0DF2EF02DD092B804C092E8
:1015C000B704A092B904B092BA041092BB04F0928E
:1015D000BD04E092BC040F2EF3E1EF2EF12CF02DB0
:1015E000F092BF04E092BE040F2EF3E1FF2EF02D27
:1015F000F092C0040F2EFFE0FF2EF02DF092C104F8
:101600003093C20438E1E32EF12CF092C404E0924E
:10161000C3041093C6040093C50410E2F12EF092A7
:10162000C7043DE13093C8042093C9040AE010E0E8
:101630001093CB040093CA0406E212E01093CD0489
:101640000093CC04F092CE043093CF042093D004C6
:1016500001E811E01093D2040093D104D093D40494
:10166000C093D304F092D5043093D6042093D704CA
:10167000B093D904A093D80421E230E03093DB0486
:101680002093DA0439E13093DC042AE12093DD046D
:101690008093DE04ADE4B2E0B093E004A093DF04F5
:1016A0005093E2044093E1043093E3042093E40474
:1016B0008093E50442E151E05093E7044093E6044F
:1016C0004FE151E05093E9044093E8043093EA0479
:1016D0002093EB048093EC042DEF30E03093EE0484
:1016E0002093ED042FE930E03093F0042093EF04D1
:1016F00024E22093F10488E18093F2049092F304B1
:1017000048E950E05093F5044093F4044EE951E069
:101710005093F7044093F6042093F8048093F9045F
:101720009092FA044EE052E05093FC044093FB0484
:101730004CE151E05093FE044093FD042093FF04DC
:1017400080930005909201052FE130E0309348042A
:101750002093470428E430E030934A04209349045E
:101760002AE132E03093510420935004F093530463
:10177000E093520470935A046093590424E432E0D5
:1017800030935C0420935B0421E231E030936304E6
:101790002093620424EA30E03093650420936404CB
:1017A00028E332E030936C0420936B0424E131E0B1
:1017B00030936E0420936D042DE731E0309375046F
:1017C0002093740428EC31E030937704209376045E
:1017D00028E532E030937E0420937D0445E052E01A
:1017E0005093800440937F0445E152E05093870476
:1017F0004093860444E152E0509389044093880466
:101800004FEF51E05093900440938F043093920433
:101810002093910480E029E030E146E157E064E163
:1018200078E4A9E2B4E0C0E5893009F0A9C22FE567
:1018300030E030937503209374032EE131E0309350
:101840007703209376034DE450E050937F03409359
:101850007E0324E431E0309381032093800325E765
:1018600030E0309389032093880328E531E03093FA
:101870008B0320938A0326E830E030939303209370
:10188000920320E331E030939503209394032DE7F6
:1018900031E030939D0320939C0326E230E03093A7
:1018A0009F0320939E0324EB31E03093A703209302
:1018B000A60365E170E07093A9036093A80361EA51
:1018C00071E07093B1036093B0035093B3034093FE
:1018D000B2034DE851E05093BB034093BA034CE888
:1018E00051E05093BD034093BC034AE751E050934D
:1018F000C5034093C4034CEA51E05093C70340939F
:10190000C6034DE951E05093CF034093CE0348EC1A
:1019100051E05093D1034093D00343EC51E05093F6
:10192000D9034093D80348EA51E05093DB03409336
:10193000DA033093E3032093E2032FE831E030939E
:10194000E5032093E40320E632E03093ED03209397
:10195000EC0328E232E03093EF032093EE032AE415
:1019600032E03093F7032093F6032AE232E030931B
:10197000F9032093F8032CE232E030930104209322
:10198000000424E332E0309303042093020426E2AF
:1019900032E030930B0420930A0429E432E03093C0
:1019A0000D0420930C0423E232E0309315042093BD
:1019B000140421E632E030931704209316042EE538
:1019C00030E030931F0420931E042EE231E0309368
:1019D00021042093200421E931E03093290420934D
:1019E000280444E250E050932B0440932A0430939F
:1019F0003304209332042BE931E0309335042093F3
:101A0000340421E432E030933D0420933C0428E484
:101A100032E030933F0420933E0480E02AE030E23D
:101A200046E050E567E078E0A4E1853109F0BBC10C
:101A300080910305882309F4DFC12CE332E0309361
:101A40008502209384022BE730E0309387022093B5
:101A5000860225E331E0309391022093900226EA3A
:101A600030E0309393022093920283E080939B02B4
:101A700026E231E030939D0220939C022FEB30E070
:101A800030939F0220939E028093A7024AE452E083
:101A90005093A9024093A80223E131E03093AB02B6
:101AA0002093AA0284E08093B30223E432E03093CF
:101AB000B5022093B4022CE231E03093B7022093B8
:101AC000B6028093BF022EE631E03093C10220932C
:101AD000C00227EC31E03093C3022093C20285E0BC
:101AE0008093CB0225E831E03093CD022093CC02E5
:101AF00023EE31E03093CF022093CE028093D702C1
:101B000029E632E03093D9022093D80228E032E06F
:101B10003093DB022093DA0286E08093E30222E630
:101B200032E03093E5022093E4022DE132E030937D
:101B3000E7022093E6028093EF0226E232E0309340
:101B4000F1022093F00227E132E03093F302209378
:101B5000F20287E08093FB0220E232E03093FD0244
:101B60002093FC026EE272E07093FF026093FE022B
:101B70008093070367E072E07093090360930803A2
:101B800060E572E070930B0360930A0388E0809332
:101B9000130360E172E070931503609314036BE527
:101BA00072E0709317036093160380931F036DE533
:101BB00070E07093210360932003509323034093BC
:101BC000220382E080932B0349E551E050932D03DB
:101BD00040932C034CE152E050932F0340932E038B
:101BE000809337034BE751E0509339034093380318
:101BF00047E150E050933B0340933A0349E450E0FF
:101C000050934503409344034CE151E05093470304
:101C1000409346034BE951E05093510340935003E6
:101C20004EE851E0509353034093520347E151E093
:101C300050935D0340935C0330935F0320935E03F6
:101C400084E180938F0220E432E030936903209393
:101C5000680323E132E030936B0320936A032CE0A6
:101C600034E040E15EE061E07EE186E0A5E09431B1
:101C700009F0ADC0882009F4BFC081E0881609F4DE
:101C800084C5109279021092760210927802109216
:101C9000770281E080937A0210927F0294E1909320
:101CA0007E0280937C0210927D0210927B02109241
:101CB0008002109281021092830280E097E0989F48
:101CC000F0011124E353FE4F128211821482138219
:101CD000158216828F5F8A3091F78093020580917A
:101CE0004605813009F09DC699C580914605813031
:101CF00009F4A7C590914505913031F48091830294
:101D00008111A2C590938302309144053150909186
:101D10007A023E3F18F4992309F49CC510927B0285
:101D200091117FC680917E02882309F47AC62091A2
:101D300042052150809178022E3F08F0A2C593C53C
:101D40008091C90190E00196817099278093C90123
:101D500068CA817081508093C9016DCA8091030562
:101D600090E0019663E070E00E94E2398093030501
:101D700067CA63E00E94D6399150909303056BCAFD
:101D8000289FF0011124E95BFB4F1086833028F473
:101D90007483A583B683C78304C034834583568385
:101DA00067838F5F41CD289FF0011124EC58FC4FD1
:101DB00010861186813128F4648325837683A78376
:101DC00004C034833583468357838F5F2ECE299F8B
:101DD000F0011124EC57FD4F1086118632879F3099
:101DE00028F4848385831682A78304C044835583A3
:101DF000668377839F5F3BCF81E490E0909373028B
:101E0000809372028BE290E0C8C4913009F032CF27
:101E100035E03093C80149E04093980485E1809310
:101E2000460407E310E0109314020093130268E2E3
:101E300070E0709316026093150286E0809317029B
:101E40006EE470E0709319026093180265E270E02E
:101E500070931B0260931A0280931C0258E4E52ED3
:101E6000F12CF0921E02E0921D02EAE3F0E0F09302
:101E70002002E0931F028093210264E370E07093DC
:101E8000230260932202ACE5B0E0B0932502A09358
:101E9000240280932602C9E6D0E0D0932802C093A2
:101EA00027026CE670E070932A0260932902809307
:101EB0002B0263E170E070932D0260932C0260E1CD
:101EC00070E070932F0260932E023093300269E528
:101ED00070E0709332026093310267E170E07093BA
:101EE0003402609333023093350284E0C82ED12C43
:101EF000D0923702C09236025FE6C52ED12CD09226
:101F00003902C092380230933A0285E0C82ED12CB3
:101F1000D0923C02C0923B02F0923E02E0923D021F
:101F200087E080933F02D0934102C0934002C0E417
:101F3000D0E0D0934302C093420280934402C1E3B5
:101F4000D0E0D0934602C0934502CBE0D0E0D093DE
:101F50004802C093470238E03093490252E0E52E30
:101F6000F12CF0924B02E0924A0251E2E52EF12C64
:101F7000F0924D02E0924C0230934E0257E6C52E8D
:101F8000D12CD0925002C0924F0257E2C52ED12CD4
:101F9000D0925202C09251023093530252E2C52EA7
:101FA000D12CD0925502C092540210935702009344
:101FB0005602309358020BE410E010935A0200933B
:101FC000590202E510E010935C0200935B0230932B
:101FD0005D020AE110E010935F0200935E020FE5DC
:101FE00010E010936102009360023093620203E0FC
:101FF00010E0109364020093630209E010E0109374
:1020000066020093650240936702F0926902E092D3
:1020100068020DE110E010936B0200936A02409396
:102020006C02D0936E02C0936D02C3E3D0E0D093F4
:102030007002C0936F024093710247E352E05093E5
:102040009A04409399044EE452E050939C044093C8
:102050009B043DE030939D0480939E0441E151E058
:102060005093A1044093A004B093A304A093A204AE
:102070003093A4048093A50449E352E05093A8044C
:102080004093A7044FE150E05093AA044093A90461
:102090003093AB048093AC045093AF044093AE04F0
:1020A00048E551E05093B1044093B0043093B2043A
:1020B0008093B304F093B604E093B50448E552E08E
:1020C0005093B8044093B7043093B9048093BA0492
:1020D00045E352E05093BD044093BC044BE352E00F
:1020E0005093BF044093BE0483E18093C0048FE00B
:1020F0008093C1049093C20480E292E09093C40460
:102100008093C30483E592E09093C6048093C50452
:1021100090E29093C7048DE18093C8042093C90492
:1021200048E152E05093CB044093CA0442E150E0AE
:102130005093CD044093CC049093CE048093CF046D
:102140002093D0047093D2046093D10448E452E009
:102150005093D4044093D3049093D5048093D60431
:102160002093D70489E492E09093D9048093D80413
:1021700085E592E09093DB048093DA0429E12093D3
:10218000DC049AE19093DD0483E08093DE0444E272
:1021900051E05093E0044093DF0445E550E0509354
:1021A000E2044093E1042093E3049093E4048093D9
:1021B000E5044FE250E05093E7044093E60440E525
:1021C00051E05093E9044093E8042093EA0490938B
:1021D000EB048093EC0489EA90E09093EE04809302
:1021E000ED0481ED91E09093F0048093EF0424E2FC
:1021F0002093F10498E19093F2048AE08093F30431
:1022000043E950E05093F5044093F40443ED50E06B
:102210005093F7044093F6042093F8049093F90444
:102220008093FA044AE851E05093FC044093FB0485
:1022300043E551E05093FE044093FD042093FF04D6
:1022400090930005809301058BE891E090934804FA
:102250008093470481E492E090934A048093490478
:1022600084E290E0909351048093500481E590E0E3
:10227000909353048093520487E192E090935A0420
:10228000809359048BE590E090935C0480935B0409
:102290008AE790E0909363048093620488E090E082
:1022A000909365048093640484E791E090936C04B8
:1022B00080936B0427E030E030936E0420936D042C
:1022C000909375048093740425E830E0309377048C
:1022D0002093760427EF30E030937E0420937D0432
:1022E00021E031E03093800420937F0490938704B1
:1022F000809386048EE791E090938904809388040C
:102300008BE790E09093900480938F048BEF91E0A3
:10231000909392048093910480E099E020E136E16B
:1023200047E054E168E479E2A5E0B0E5893009F0DE
:1023300039C283E090E0909375038093740380E149
:1023400090E090937703809376038BE290E09093F4
:102350007F0380937E0382E090E0909381038093DB
:1023600080038BE390E0909389038093880383E359
:1023700090E090938B0380938A0389E490E090939C
:1023800093038093920383E290E09093950380936C
:10239000940381EB90E090939D0380939C0381E6EE
:1023A00090E090939F0380939E0386E991E0909341
:1023B000A7038093A60386E590E09093A9038093FA
:1023C000A80387EA91E09093B1038093B00386E479
:1023D00090E09093B3038093B2038FEC91E09093DD
:1023E000BB038093BA038BE690E09093BD03809388
:1023F000BC0383EB91E09093C5038093C40381EE0B
:1024000090E09093C7038093C60384E890E0909394
:10241000CF038093CE0387E191E09093D103809323
:10242000D00380E191E09093D9038093D80380E6B4
:1024300091E09093DB038093DA038AE391E0909339
:10244000E3038093E20385E491E09093E5038093B6
:10245000E4038FE491E09093ED038093EC038AE62C
:1024600091E09093EF038093EE0381E190E09093ED
:10247000F7038093F60381EB91E09093F903809347
:10248000F8038EE790E0909301048093000485E8C0
:1024900091E0909303048093020482E690E090938D
:1024A0000B0480930A0485EC91E090930D048093D3
:1024B0000C0484E090E0909315048093140483E06E
:1024C00092E0909317048093160484E290E0909336
:1024D0001F0480931E048EE090E09093210480936B
:1024E00020048EE290E090932904809328048EECDF
:1024F00091E090932B0480932A048AE291E09093D8
:1025000033048093320481E591E090933504809305
:10251000340486EA91E090933D0480933C0485E581
:1025200090E090933F0480933E0480E09AE020E2A4
:1025300036E040E557E068E074E1853109F045C1D7
:1025400080910305882309F420C18AE990E09093E3
:102550008502809384028CE190E0909387028093BF
:10256000860283E890E0909391028093900281E349
:1025700090E0909393028093920283E080939B0279
:1025800085E790E090939D0280939C028FE490E019
:1025900090939F0280939E0281E08093A70221E4A2
:1025A00030E03093A9022093A80228E730E030936E
:1025B000AB022093AA028093B30225E931E0309365
:1025C000B5022093B40280E290E09093B70280932A
:1025D000B60284E08093BF028AE492E09093C10245
:1025E0008093C00286E490E09093C3028093C2027D
:1025F00082E08093CB0249E052E05093CD024093B9
:10260000CC0244E650E05093CF024093CE02809338
:10261000D7024EE452E05093D9024093D80248E8E2
:1026200050E05093DB024093DA028093E3028BE5A3
:1026300091E09093E5028093E40280E890E090932B
:10264000E7028093E60285E08093EF0246E951E0DD
:102650005093F1024093F0024BE950E05093F302A3
:102660004093F2028093FB0282EE90E09093FD0291
:102670008093FC028CEF90E09093FF028093FE0227
:1026800086E08093070347E151E0509309034093AC
:10269000080348E151E050930B0340930A038093F1
:1026A000130384E991E0909315038093140330930E
:1026B00017032093160387E080931F0385E690E0BD
:1026C000909321038093200386E192E0909323036B
:1026D0008093220388E080932B0321E930E030933C
:1026E0002D0320932C0325E532E030932F03209314
:1026F0002E038093370384E290E090933903809314
:1027000038038FE290E090933B0380933A0384E593
:1027100090E090934503809344038FED91E0909374
:102720004703809346038CE291E09093510380939A
:10273000500385E791E090935303809352038EEC0E
:1027400091E090935D0380935C0384E490E0909328
:102750005F0380935E0383EB91E090936903809322
:1027600068038BED91E090936B0380936A0381E1A2
:1027700080938F0280E02CE034E040E15EE061E095
:102780007EE196E0A5E08431A1F58CE392E09093A0
:1027900073028093720281E592E0909375028093B8
:1027A00074026FCA989FF0011124E95BFB4F1086F9
:1027B000833028F464837583A683B78304C024839D
:1027C0003583468357838F5FB1CD989FF0011124E5
:1027D000EC58FC4F10861186813128F45483958380
:1027E0006683778304C024832583368347838F5F82
:1027F000A4CE289FF0011124EC57FD4F10861186BE
:1028000032878F3028F4948395831682A78304C07F
:1028100044835583668377838F5FB5CF809111069C
:10282000882309F4FEC0DF91CF911F910F91FF9093
:10283000EF90DF90CF90BF90AF909F908F900C94CF
:10284000CD1F8093040556CA813009F05DCA1092ED
:1028500083025ACA80917902883009F05FCA81E008
:1028600080937B025DCA83301CF48F5F8093780273
:10287000209143052150809177022E3F08F0A4C09B
:102880000EC02091400521502E3F20F48E3F84F34E
:102890008150ECCF1816E4F3882351F3E6CF833050
:1028A0001CF48F5F80937702209178021216B4F4A3
:1028B000409172025091730280E0622F022E000C50
:1028C000770BE82FF0E0E617F7070CF54637E2E064
:1028D0005E0714F44F5F5F4F8F5FF3CF2223E9F061
:1028E000409172025091730280E0E22FFF27E19540
:1028F0000CF4F095BF01E82FF0E0E617F7073CF481
:102900001416150614F4415051098F5FF4CF8093CB
:102910000205509373024093720280917702181659
:10292000ACF44091740250917502682F082E000C8F
:10293000770BE92FF0E0E617F70704F54637F2E0EA
:102940005F0714F44F5F5F4F9F5FF3CF8823E1F081
:102950004091740250917502E82FFF27E1950CF425
:10296000F095BF01E92FF0E0E617F7073CF44E3091
:10297000510514F0415051099F5FF4CF9093020527
:1029800050937502409374023E3F70F110927B02A7
:1029900090918302911145C012162CF481112CC024
:1029A000109276023EC0211104C018165CF582E038
:1029B00008C018161CF493E09093760281112AC087
:1029C00084E0809376022DC02091410521502E3F56
:1029D00028F48E3F0CF468CF815064CF1816E4F3CE
:1029E000882309F461CF5DCF90917902983071F618
:1029F00091E090937B02CCCF181644F491E0909331
:102A0000760204C087FF0DC086E0DBCF87FF09C0D8
:102A100087E0D7CF87FF05C085E080937602121646
:102A2000BCF3DF91CF911F910F91FF90EF90DF905A
:102A3000CF90BF90AF909F908F90089588EF91E0D6
:102A4000E8E2F6E0DF019C011D9221503040E1F701
:102A50001092F8051092F9058AE29FE00E9455262F
:102A60000E94F4258CB583608CBD8DB58E7F8DBDA5
:102A70008DEB91E0EEEFFFE309951092F50585E00F
:102A80009FE00E9453280E94F4250E94082880910C
:102A90004405813039F062E370E080E090E00E940C
:102AA000321CF3CF0895CF93C09153058C2F8F71B3
:102AB000E1F583E480937C0080917A0080648093C8
:102AC0007A0080917A0086FDFCCF60917800809139
:102AD000790070E0782B072E000C880B990B0E9470
:102AE000DD3826EE3FE34EEC50E40E9441390E946F
:102AF000AC389B0170934A0560934905672B91F0B0
:102B000084E080934805EBE4F5E080E04191519149
:102B10002417350718F4809348050AC08F5F843066
:102B2000A9F703C08FEF80934805CF5FC09353058B
:102B3000CF9108952F923F924F925F926F927F9222
:102B40008F929F92AF92BF92CF92DF92EF92FF92BD
:102B50000F931F93CF93DF93CDB7DEB72E970FB6AA
:102B6000F894DEBF0FBECDBF4091210650912206E2
:102B700060912306709124062FB7F8948091150573
:102B800090911605A0911705B09118052FBF481B0D
:102B9000590B6A0B7B0B8091200690E0A0E0B0E01F
:102BA00000911C0610911D0620911E0630911F06F3
:102BB00084179507A607B70730F4011511052105FD
:102BC000310509F021C4012B022B032B09F01AC493
:102BD0008091460581508E3F20F5809145058130DA
:102BE00001F5809165058F5F6091660587FD09C0DD
:102BF000082E000C990B70E06F5F7F4F0E94E23946
:102C0000682F609365058EEF9EE090932606809373
:102C1000250688E48093270660E08BEE9EE00E9404
:102C20008F278091460581508E3F70F48091440536
:102C3000813009F04FC481EF9EE090932606809387
:102C4000250688E48093270680E00E94C12781E062
:102C50000E94C12782E00E94C12783E00E94C12711
:102C60002FE235E038872F8373E2C72E75E0D72E29
:102C700003E915E0EFE7EE2EE5E0FE2E59013E8771
:102C80002D87512C44244394AD85BE8599968C9113
:102C90009997882309F4ECC04D01B0E78B0E911C85
:102CA000F40180818111E4C0D7012D913C91D801BC
:102CB000ED91FC91EE0FFF1FE20FF31F85919491B0
:102CC000009721F5ED85FE85E05AFF4F808188232E
:102CD00029F0F80111821082F90116C0AD85BE8578
:102CE00099961C92999795968C918823C1F1852D80
:102CF0000E94C127D801ED91FC91EE0FFF1FD70173
:102D00008D919C91E80FF91F85919491ED85FE8539
:102D1000E058FF4FFE83ED832D853E852C573F4FB6
:102D20003A832983AD85BE85A857BF4FBC83AB834B
:102D3000ED85FE85E457FF4FFA87E9872D853E85AF
:102D400020573F4F3C872B872D843E8434E9230E48
:102D5000311C6D847E84A4E76A0E711C2BC0852D06
:102D60000E942F2685C0BC0136E0769567953A957E
:102D7000E1F76F71892F86958695869580512F7022
:102D80002230B1F138F521111DC06B3008F06AE036
:102D9000F3016083D801ED91FC9111973196ED9389
:102DA000FC93EE0FFF1FD7018D919C91E80FF91F47
:102DB000859194919C01369527953695279580FDB0
:102DC000D2CF2DC0213031F7452D84E595E00E940A
:102DD000B61CE0CF2330B9F02430E1F690916405C1
:102DE000969F602D1124AB85BC856C93F10115C0B5
:102DF00090916405969F602D1124AD81BE816C93E6
:102E0000E981FA810AC090916405969F602D112492
:102E1000AB81BC816C93E985FA858083BBCFED855E
:102E2000FE85E459FF4F2F73208380916405899FAD
:102E3000802D1124F4018083ED85FE85E055FF4F40
:102E40001082F501E855FF4F11821082ED85FE8555
:102E5000E858FF4F4082D6014C92ED85FE85E4583C
:102E6000FF4F1082F80180819181019691838083C8
:102E700053942D853E852F5F3F4F3E872D8732E04F
:102E8000A30EB11C8FEFC81AD80A0E5F1F4F92E035
:102E9000E90EF11CA4E05A12F7CEADE0AA2EA5E08F
:102EA000BA2EB7E2CB2EB5E0DB2E1BE2612E15E089
:102EB000712E0FED15E087EDE82E85E0F82E91E1FB
:102EC000492E95E0592EEFE2F5E0FA83E983312CA3
:102ED000E981FA81E858FF4F8081882309F42AC1EB
:102EE000E981FA81E059FF4F8081811104C0832D6F
:102EF0000E942F261FC181508083D8018C91E981C7
:102F0000FA81EC54FF4FFE83ED8329813A812854E6
:102F10003F4F490181114CC0D7018D919C91019681
:102F20009C01220F331FEF81F885E856FF4F019077
:102F3000F081E02DE20FF31F45915491242F27706B
:102F4000ED81FE812083BA01E3E076956795EA95ED
:102F5000E1F79B0136952795352F36953695D401A7
:102F60003C932F7330916405239F202D1124F80189
:102F700020836170D2016C93F70191838083E98192
:102F8000FA81E056FF4F208130E08217930780F0EE
:102F9000E981FA81EC55FF4F8081882331F0281BAD
:102FA0003109D7012D933C9303C0832D0E942F2616
:102FB000F801808181508083E981FA81E458FF4FD4
:102FC000808121E0280F2083E981FA81E459FF4FB5
:102FD0004081D4013C91340FE981FA81E45BFF4FD9
:102FE0008081380FE981FA8135A7E857FF4F60816A
:102FF000662399F070E0822F022E000C990B0E943C
:10300000E239E981FA81E457FF4F8081869F300DD4
:103010001124A981BA819D963C93E981FA8185A505
:1030200090E0CB966BE370E00E94E23985A7EC5804
:10303000FF4F3081A981BA81D1963C93D197FD0190
:10304000E058FF4F60816623A1F0062E000C770B3D
:10305000822F022E000C990B0E94E239E981FA813D
:10306000EC57FF4F8081869F300D1124E981FA8152
:1030700031ABE981FA81E057FF4F60816623D1F0DF
:10308000822F220F990B70E00E94E239CB0162E09F
:1030900070E00E94E239E981FA81EC56FF4F20810D
:1030A000A981BA81D1969C91D197289F900D112426
:1030B000D1969C93E981FA814F3359F081A98A30E6
:1030C0000CF089E087FD80E0A981BA81D1968C93CC
:1030D00001C011AAF894A981BA819D96EC91F0E003
:1030E000E055F14FE491D501EC93E981FA8131A9E2
:1030F000E454FF4F2081AD81BE814C913203900199
:1031000011244203C001439F900D112400906505D6
:1031100002C0880F991F0A94E2F797FF02C08158F6
:103120009F4F880F892F881F990BF6018083D30149
:103130008C9378943394E981FA813196FA83E98308
:10314000FFEFAF1ABF0A2FEFC21AD20A3FEF631A7E
:10315000730A0F5F1F4F82E0E80EF11CAF81B88544
:103160001296B887AF83BFEF4B1A5B0AE4E03E12BA
:10317000AFCE80912706882309F489C08C3020F4D3
:10318000FCE0F81BF98301C01982FF24F394F0924C
:10319000F70510920F06109210062091F4052B836C
:1031A0001981121B022F0D5F4DE2410F2EE463E0E7
:1031B0008FEE95E00E94491E3B8134503B83105DA9
:1031C000232F41E0612F80E50E942B272B8142E0D5
:1031D000612F83E00E942B27F0920F06F0921006D9
:1031E0000091F4051981101B8DE2810F8B832EE471
:1031F000482F63E08FEE95E00E942D1E83E0800F44
:103200009B81980F9B83492F41502EE463E08FEE02
:1032100095E00E942D1E0350105D202F412F60E08D
:103220008FEE95E00E94401F202F412F63E58FEE27
:1032300095E00E94401F41E0612F83E00E94AC2690
:1032400042E0612F80E50E94AC26AB81A450AB83A5
:1032500044E06A2F80E50E94AC2648E06B8183E061
:103260000E94AC2684E08093F8058091F405B98132
:10327000B81BB15DB093F9058091250690912606A3
:103280000E945526809127068150809327068091C1
:103290004B0590914C05892B09F48CC081E08093FB
:1032A0000F06109210069091F30585E5891B809317
:1032B000F8051092F90560914805613009F45BC08A
:1032C00030F080914705653008F06DC068C008E5B2
:1032D00015E0198289810E942F26F80111928F0131
:1032E000F981FF5FF983F430A9F781E08093F70556
:1032F000EEE2FDE0E491EF5FE093F305EFE2FDE045
:10330000E491EF5FE093F40580E39DE090930E0677
:1033100080930D0610924C0510924B051092F50506
:1033200028EA29830E949A158823E1F380E29DE030
:103330000E9455264091490550914A0560E070E091
:103340002AE08FEE95E00E94D11A8BE09DE00E946A
:103350005526698162956F7070E08FEE95E00E944E
:10336000762680E09DE00E945526809144058130BC
:1033700009F094C01FC08091120690911306A0918D
:103380001406B09115068F709927AA27BB270897B6
:10339000A105B10510F467E009C068E707C08823FC
:1033A00049F06B5F03C0882329F06FE28FEE95E050
:1033B0000E94B51A0E94F4258091F50581110EC076
:1033C00088EF91E0E8E2F6E0DF019C011D922150D8
:1033D0003040E1F71092F8051092F9050E940D1C9B
:1033E00060931C0670931D0680931E0690931F0623
:1033F0002091180630911906621B730B7093170603
:103400006093160680E06CC02FB7F8948091150584
:1034100090911605A0911705B09118052FBF209126
:103420002006820F911DA11DB11D8093210690934E
:103430002206A0932306B093240680911206909151
:103440001306A0911406B09115060196A11DB11D99
:103450008093120690931306A0931406B09315065A
:1034600010921C0610921D0610921E0610921F0646
:103470000E940D1C609318067093190680931A061B
:1034800090931B060E94082880914B0590914C0553
:10349000892B11F00E94531581E022C039813150EF
:1034A000398331113FCF60E070E08FEF0E94AE1B97
:1034B00083B7817F846083BF83B7816083BF83B715
:1034C000816083BF889583B78E7F83BF83B78E7FEC
:1034D00083BF28CF893209F0B7CB0E941E15B4CB29
:1034E0002E960FB6F894DEBF0FBECDBFDF91CF9101
:1034F0001F910F91FF90EF90DF90CF90BF90AF9012
:103500009F908F907F906F905F904F903F902F9003
:103510000895CF92DF92EF92FF920F931F93CF9374
:10352000DF936C017A018B01C0E0D0E0CE15DF059E
:1035300081F0D8016D918D01D601ED91FC91019042
:10354000F081E02DC6010995892B11F02196EECF6F
:103550007E01C701DF91CF911F910F91FF90EF90F6
:10356000DF90CF9008950E94103ADC01ED91FC911C
:103570000190F081E02D09946115710579F0FB014E
:1035800001900020E9F73197AF01461B570BDC0192
:10359000ED91FC910280F381E02D099480E090E0B0
:1035A00008958F929F92AF92BF92EF92FF920F93E6
:1035B0001F93CF93DF93CDB7DEB7A1970FB6F894E3
:1035C000DEBF0FBECDBF7C01FA01CB0119A22230B4
:1035D00008F42AE08E010F5D1F4F822E912CA12C42
:1035E000B12CBF01A50194010E948A38F901CA01DA
:1035F000015011096A3014F4605D01C0695CD801A2
:103600006C93232B242B252B61F7B801C7010E9453
:10361000BC1AA1960FB6F894DEBF0FBECDBFDF91E6
:10362000CF911F910F91FF90EF90BF90AF909F901F
:103630008F900895833081F028F4813099F08230A2
:10364000A1F008958730A9F08830B9F08430D1F422
:10365000809180008F7D03C0809180008F77809360
:103660008000089584B58F7702C084B58F7D84BDB6
:1036700008958091B0008F7703C08091B0008F7D56
:103680008093B00008951F93CF93DF93282F30E0ED
:10369000F901E458FE4E8491F901E859FE4ED491A7
:1036A000F901EC5AFE4EC491CC23C1F0162F8111C2
:1036B0000E941A1BEC2FF0E0EE0FFF1FE859F04FAD
:1036C000A591B4919FB7F894111104C08C91D09535
:1036D000D82302C0EC91DE2BDC939FBFDF91CF910A
:1036E0001F910895CF93DF9390E0FC01E859FE4EBF
:1036F0002491FC01EC5AFE4E8491882361F190E004
:10370000880F991FFC01E25AF04FC591D491FC013A
:10371000E859F04FA591B491611109C09FB7F89491
:103720008881209582238883EC912E230BC0623000
:1037300061F49FB7F8948881322F30958323888372
:10374000EC912E2B2C939FBF06C08FB7F894E88185
:103750002E2B28838FBFDF91CF9108951F93CF9396
:10376000DF93182FEB0161E00E94721B209711F488
:1037700060E004C0CF3FD10539F461E0812FDF91D3
:10378000CF911F910C94431BE12FF0E0E458FE4EC3
:10379000E491E330F9F048F4E130B9F0E230A1F51A
:1037A00084B5806284BDC8BD34C0E730E9F0E8303C
:1037B00019F1E43049F580918000806280938000A7
:1037C000D0938B00C0938A0024C084B5806884BDE8
:1037D000C7BD1FC080918000806880938000D09317
:1037E0008900C093880015C08091B00080688093E4
:1037F000B000C093B3000DC08091B0008062809390
:10380000B000C093B40005C0C038D1050CF0B5CFEE
:10381000AFCFDF91CF911F9108953FB7F89480917A
:103820001E0590911F05A0912005B091210526B598
:10383000A89B05C02F3F19F00196A11DB11D3FBFE8
:10384000BA2FA92F982F8827820F911DA11DB11D76
:10385000BC01CD0142E0660F771F881F991F4A9572
:10386000D1F708958F929F92AF92BF92CF92DF923D
:10387000EF92FF926B017C010E940D1C4B015C01D9
:10388000C114D104E104F104F1F00E940D1CDC012B
:10389000CB0188199909AA09BB09883E9340A10563
:1038A000B10570F321E0C21AD108E108F10888EEF1
:1038B000880E83E0981EA11CB11CC114D104E10440
:1038C000F10419F7DDCFFF90EF90DF90CF90BF901C
:1038D000AF909F908F9008951F920F920FB60F9206
:1038E00011242F933F938F939F93AF93BF93809116
:1038F000150590911605A0911705B0911805309106
:103900001D0523E0230F2D3720F40196A11DB11DC5
:1039100005C026E8230F0296A11DB11D20931D05A9
:103920008093150590931605A0931705B09318057D
:1039300080911E0590911F05A0912005B091210551
:103940000196A11DB11D80931E0590931F05A093A4
:103950002005B0932105BF91AF919F918F913F9129
:103960002F910F900FBE0F901F90189550E0DA0125
:10397000AA0FBB1FA80FB91FD3963C91D397D4961B
:103980002C91D497E32FF22FE60FF11DE60FF11DD6
:1039900025913491AD58BF4F2D933C93F90165911A
:1039A0007491FC017089769F602D1124840F951FFE
:1039B000FC01E558FF4F6083F901A591B4914B2FAD
:1039C00050E0E62FF0E04E175F0720F4F901259153
:1039D0003491632FFC01E158FF4F769F602D112435
:1039E0006083089580912305882319F080912B0529
:1039F00001C080E090912405992319F090912C0545
:103A0000890F90912505992319F090912D05890F23
:103A100090912605992319F090912E05890F809396
:103A2000B40008951F920F920FB60F9211242F9396
:103A30003F934F935F936F937F938F939F93AF9336
:103A4000BF93EF93FF9360912705611102C080E05F
:103A500023C0809119058F5F8093190590910D0502
:103A60008917A8F39091230581E089278093230586
:103A70001092190580911105882369F08091000149
:103A800093E4899F802D1124895B809300010E941B
:103A9000D63990932B0581E060912805662319F1B2
:103AA00090911A059F5F90931A0520910E05921729
:103AB000D0F09091240581E089278093240510920D
:103AC0001A0580911205882369F08091000193E422
:103AD000899F802D1124895B809300010E94D63933
:103AE00090932C0581E060912905662319F190914E
:103AF0001B059F5F90931B0520910F059217D0F037
:103B00009091250581E089278093250510921B055A
:103B100080911305882369F08091000193E4899FC7
:103B2000802D1124895B809300010E94D6399093E7
:103B30002D0581E060912A05662319F190911C05FD
:103B40009F5F90931C05209110059217D0F09091E3
:103B5000260581E089278093260510921C05809117
:103B60001405882379F08091000193E4899F802DCA
:103B70001124895B809300010E94D63990932E0511
:103B800001C081110E94F21CFF91EF91BF91AF9192
:103B90009F918F917F916F915F914F913F912F9165
:103BA0000F900FBE0F901F901895FC01643508F020
:103BB00053C0403308F050C090A1742F759575958F
:103BC0007595262F062E000C330B542F577092300C
:103BD000A1F4F90184E57802E00DF11D1124E85DFE
:103BE000F94F808190E0052E02C0959587950A9443
:103BF000E2F78095982F91700AC0933041F4848544
:103C00008170462740954170841303C014C0911100
:103C100012C084E57802200D311D1124F901E85D00
:103C2000F94F81E090E001C0880F5A95EAF780953E
:103C30009081892310C084E57802200D311D112464
:103C4000F901E85DF94F81E090E001C0880F5A95D5
:103C5000EAF79081892B80830895EF92FF920F936A
:103C60001F93CF93DF938C01F62ED42FE22EC0E06A
:103C7000CE1544F46F2D6C0F4D2FC8010E94D51D39
:103C8000CF5FF6CFDF91CF911F910F91FF90EF9013
:103C90000895DF92EF92FF920F931F93CF93DF93DC
:103CA0007C01D62FD22EC42F002E000C110B040F36
:103CB000111D47FD1A958C2F0C2E000C990B8017A7
:103CC000910744F42D2D4C2F6D2FC7010E942D1EFE
:103CD000CF5FF1CFDF91CF911F910F91FF90EF90C8
:103CE000DF9008956F927F928F929F92AF92BF92D2
:103CF000CF92DF92EF92FF920F931F93CF93DF93B8
:103D0000EC016A3011F42885A3C06D3009F4A7C016
:103D1000A98483E58A150CF485C0BA848FE28B15DB
:103D20000CF480C0D8848C8190E00197D89E9001DB
:103D3000D99E300D1124C9018A0D911DA7FC9A95B9
:103D4000181619060CF06EC02D818B2D0B2C000C53
:103D5000990BD29E800D911D1124181619060CF096
:103D600061C088A09A2CCA2CE62EF12CEC2DEA1901
:103D70000E2E000CFF0B8C8190E0E817F9070CF079
:103D800050C00197E817F90779F0E89E9001E99E85
:103D9000300DF89E300D1124E20FF31F8E8D9F8D94
:103DA000E80FF91F149101C010E06B2C7B2C272D1C
:103DB0002B19022E000C330B8D8190E02817390748
:103DC0006CF510FF11C081E0D81206C0472D6C2D94
:103DD000CE010E94D51D1EC00D2D2D2D462D692D05
:103DE000CE010E94491E16C089A198A1891791F0A1
:103DF00088A381E0D81206C0472D6C2DCE010E9409
:103E0000D51D07C00D2D2D2D462D692DCE010E94EB
:103E1000491E88A2169573946D0CC9CFC3949D0C4E
:103E2000A5CF88A228853C818985239F800D1124F8
:103E300089879F81992399F0082E000C990B44E5FE
:103E400050E0239F401951091124481759073CF4A9
:103E50009D818A85299F800D11248A87198681E09A
:103E600090E0DF91CF911F910F91FF90EF90DF9045
:103E7000CF90BF90AF909F908F907F906F9008955C
:103E8000EF92FF920F931F93CF93DF938C01D62F66
:103E9000F42EE22EC0E0CE1544F44F2D4C0F6D2FC2
:103EA000C8010E94D51DCF5FF6CFDF91CF911F9142
:103EB0000F91FF90EF900895882321F0813029F42D
:103EC0008AE001C083E08093A30540E061E084E5DF
:103ED00095E00E94B61C1092AF0589EF8093B30560
:103EE0001092B70588EF8093BB0581E180939B0515
:103EF00080916405982F990F890F80939F051092E8
:103F0000DF051092D8051092D70581E08093A705B0
:103F1000809323051092AB0508952091740230918F
:103F20007502223231055CF022523109273442E019
:103F3000340718F4821B930B089586549240089519
:103F400020917202309173022A3231055CF02A52BC
:103F50003109233242E0340718F4821B930B089591
:103F6000825292400895823291054CF09C01225277
:103F700031092734324010F08654089582E20895C2
:103F80008A3291054CF09C012A5231092332324089
:103F900010F0825208958AE20895CF92DF92EF9254
:103FA000FF920F931F93CF93DF9381E08093F705E8
:103FB0001092F6051092F5051092470580930F06B2
:103FC00080931006C5ECD0E11CE00E949A1588236E
:103FD000E1F3FE018491882319F00091F40501C0FA
:103FE00000E02AED30E140E060E08FEE95E00E94D5
:103FF00076234CE0400F28E83FE060E08FEE95E04C
:104000000E9476231092F8051093F90585EC90E153
:104010000E9455268091F305982F990F890F81955D
:104020008D5A8093F8058091F405982F990F890F88
:104030008195835D8093F9058091120684FF03C00A
:1040400086ED90E102C082ED90E10E9453288091BC
:10405000F305982F990F890F81958D5A8093F80554
:104060008091F9058F5F8093F9058091650588231C
:1040700019F08EEC90E102C08AEC90E10E94532886
:104080008091F305982F990F890F81958D5A809310
:10409000F8058091F9058F5F8093F90586EC90E132
:1040A0000E945328809145058130B9F480916505BF
:1040B0008F5F6091660587FD09C0082E000C990B83
:1040C00070E06F5F7F4F0E94E239682F6093650553
:1040D00060E08BEE9EE00E948F2780914405813046
:1040E000A9F080911106482F50E060E070E0C09088
:1040F0001206D0901306E0901406F0901506C41630
:10410000D506E606F706D8F08F3FC9F08FEF80930B
:10411000110680E00E942F261092580560E080E88A
:104120009FE00E948F2781E080934705DF91CF9128
:104130001F910F91FF90EF90DF90CF9008958091A5
:104140004605813009F041CF0E941E153ECFCF9227
:10415000DF92EF92FF920F931F93CF93DF9382E34F
:104160008093200681E090E0A0E0B0E080931C0600
:1041700090931D06A0931E06B0931F068FEF8093A9
:104180001106E0E8F7E7259134912130304C09F031
:1041900049C0E6E9F7E7E491E093FA05E7E9F7E7D4
:1041A000E491E0933305E8E9F7E7E491E09334051F
:1041B000E9E9F7E785919491909336058093350569
:1041C000EBE9F7E785919491909338058093370553
:1041D00087E080936605EEE9F7E7E491E0936505F3
:1041E000EFE9F7E7E491E0931106E0EAF7E785915C
:1041F000949190934C0580934B05E2EAF7E7859103
:10420000949190934E0580934D05E4EAF7E78591EC
:1042100094919093500580934F05E6EAF7E78591D6
:1042200094912CC09CE39093FA05109233058093EF
:10423000340580E293E0909336058093350584ED54
:1042400093E0909338058093370587E08093660567
:10425000809365058CEA9DE090934C0580934B0517
:104260008EED9DE090934E0580934D0584E79EE092
:104270009093500580934F058CE39FE090935205F7
:10428000809351056FEF70E08FEF0E94AE1B88E0C6
:104290008093390589E080933A0587E080933B0558
:1042A00086E080933C05C4E0C0933D0582E08093A6
:1042B0003E0585E080933F050E9408288CE39FE03F
:1042C00090934A0580934905C093480581E0809307
:1042D00053059BE09093FD059DE09093FC0590E1D4
:1042E0009093FE059EE0909300069FE09093FF055B
:1042F0008093F70580930F06109210068093F605C1
:10430000EEE2FDE0E491EF5FE093F305EFE2FDE024
:10431000E491EF5FE093F40580E39DE090930E0657
:1043200080930D06CFB7F89480912205811127C0A4
:10433000EEE5F1E18491E2E7F1E19491E82FF0E01C
:10434000EE0FFF1FE25AF04FA591B491EC91E923D3
:1043500021F461E08AE00E94431B61E08AE00E9450
:10436000721B8CB580618CBD8CB580648CBD61E0A6
:104370008DE00E94721B61E08BE00E94721B8091B5
:1043800022058F5F80932205CFBF8CB58F7D8CBDBA
:104390008CB58C7F81608CBD8DB581608DBD8CB5F9
:1043A0008C608CBD61E08091FD050E94721B61E014
:1043B0008091FC050E94721B61E08091FE050E94C5
:1043C000721B8091000618161CF461E00E94721B9B
:1043D0008091FF0518161CF461E00E94721B809109
:1043E0000006181674F460E00E94431B6AE070E057
:1043F00080E090E00E94321C61E0809100060E9403
:10440000431B8091FC05082E000C990BFC01EC5A13
:10441000FE4EE491F0E0EE0FFF1FE859F04F2591BA
:1044200034913093040620930306FC01E859FE4EB4
:10443000E491E0930A068091FD05082E000C990B8B
:10444000FC01EC5AFE4EE491F0E0EE0FFF1FE8593C
:10445000F04F259134913093020620930106FC0120
:10446000E859FE4EE491E09309068091FF05082E7D
:10447000000C990BFC01EC5AFE4EE491F0E0EE0FBB
:10448000FF1FE859F04F2591349130930606209391
:104490000506FC01E859FE4EE491E0930B0680917D
:1044A000FE05082E000C990BFC01EC5AFE4EE4911F
:1044B000F0E0EE0FFF1FE859F04F25913491309353
:1044C000080620930706FC01E859FE4EE491E093AC
:1044D0000C0681E20E94D52584E10E94D5258091B9
:1044E000FA0587FF03C08FE78093FA058091FA05EC
:1044F00080680E94D52580E20E94D5258CE00E942C
:10450000D5250E94F42581E0809364058BEEE82E8A
:1045100085E0F82E07E815E0C0E0D1E09AE5C92E65
:104520009FE0D92EF701D1937F01F801C192D1927A
:104530008F014C2F60E084E595E00E94B61CCF5FB0
:10454000C43081F761E070E083E00E94AE1B80918F
:10455000B100887F81608093B100F8941092800050
:1045600010928100109285001092840088E191E001
:104570009093890080938800809181008860809367
:1045800081008091810081608093810080916F0023
:10459000826080936F00789480914B0590914C05D8
:1045A000892B11F00E94531580914505813059F4F3
:1045B00010926505DF91CF911F910F91FF90EF90C1
:1045C000DF90CF90089560E082E79FE00E948F2700
:1045D00061E082E79FE00E948F2762E082E79FE030
:1045E0000E948F2763E082E79FE0DF91CF911F91C8
:1045F0000F91FF90EF90DF90CF900C948F279F92B8
:10460000AF92BF92CF92DF92EF92FF920F931F93E0
:10461000CF93DF93C82FD62F042FE22E022E000C4B
:10462000FF08E61AF10867FDF394F7FE03C0F19462
:10463000E194F108C02E002E000CDD08CC1AD10840
:10464000C7FDD394D7FE03C0D194C194D108CE1432
:10465000DF0434F4802F022F282F8C2FCD2FD82F5A
:104660000C1734F48D2FD22F282F8C2FC02F082F0A
:10467000A02EAC1A822F022E000C990B8D1B9109D3
:10468000D7FD939597FF03C0919581959109B82E19
:104690001A2DA7FE02C011E01A0D1595D2171CF0B5
:1046A00099249A9402C0992493940C179CF0CE14E8
:1046B000DF041CF44C2F6D2F02C04D2F6C2F8FEE9A
:1046C00095E00E94D51D1B1917FF02C0D90D1A0DC8
:1046D000CF5FEBCFDF91CF911F910F91FF90EF90C4
:1046E000DF90CF90BF90AF909F9008952F923F9210
:1046F0005F926F927F928F929F92AF92BF92CF9272
:10470000DF92EF92FF920F931F93CF93DF93EC0111
:10471000F901E4903196849164350CF019C10E2CA6
:10472000000CFF08062F062E000C110BF701E00FFE
:10473000F11F1E161F060CF00BC140330CF008C110
:10474000A82FC42E042E000CDD085601A80EB11CA3
:1047500087FDBA941A141B040CF0FAC02E5F3F4F69
:10476000570197E0A90EB11CB7FE04C05701BEE087
:10477000AB0EB11CB3E0B594A794BA95E1F747FF2F
:104780000AC0A42FA80FAC9CC001AD9C900D1124B1
:10479000281B390B40E08A2F0A2E000C990B840F3E
:1047A000911D47FD9A95C19714F0A0E3A41BF8A0B2
:1047B00067FD60E0E535F10514F0E4E5F0E09E2FDB
:1047C000CC85C427C62E062E000CDD08F601E01BA2
:1047D000F10B8F014F01F7E08F229924E0E8F0E020
:1047E00002C0F595E7958A94E2F77E2F17FF02C085
:1047F000095F1F4FF3E015950795FA95E1F7200F34
:10480000311F542F577081E001C0880F5A95EAF785
:10481000459545954595F601B4E54B02E00DF11D32
:104820001124AF01485D594FD0E02A2EAA0F33085A
:10483000EE24E394BB24ED2FF0E0E215F3050CF039
:1048400087C0F9015490F1E0FF121AC0962E8A0138
:10485000E72F6901991608F072C08E2E852021F08D
:10486000D8018C90882A8C92E69531F4BFEFCB1A50
:10487000DB0AF6015490E0E893940F5F1F4FEACFF4
:10488000F1101CC0782E7094962E8A01E72F6901D2
:10489000991608F054C08E2E852021F0D8018C90F6
:1048A00087208C92E69531F4BFEFCB1ADB0AF60134
:1048B0005490E0E893940F5F1F4FEACFF3E0FF16A8
:1048C00029F0962E8A01E72F690137C0682E60947F
:1048D000862E8A01972E69018916D8F4E92DE521E3
:1048E00059F0D801EC91782C7C2670FE02C0E82BA0
:1048F00002C0E621D801EC93969439F4BFEFCB1AAD
:10490000DB0AF6015490E0E89E2E83940F5F1F4F60
:10491000E3CFCE2514C08E2E852021F0D8018C90B7
:1049200088268C92E69531F4BFEFCB1ADB0AF601AC
:104930005490E0E893940F5F1F4F991660F3880F2F
:1049400019F44C5A5F4F81E0DF5F2A0D3B1D73CF96
:10495000DF91CF911F910F91FF90EF90DF90CF905B
:10496000BF90AF909F908F907F906F905F903F909F
:104970002F9008952F923F924F925F926F927F9265
:104980008F929F92AF92BF92CF92DF92EF92FF925F
:104990000F931F93CF93DF9300D000D000D0CDB7FB
:1049A000DEB7382E262E7A01802F211121C0011169
:1049B0001FC09A01462F632D8FEE95E026960FB605
:1049C000F894DEBF0FBECDBFDF91CF911F910F9145
:1049D000FF90EF90DF90CF90BF90AF909F908F901F
:1049E0007F906F905F904F903F902F900C94762324
:1049F000F70194913196B490C92ED12CA601495F4C
:104A00005F4FBA0133E0759567953A95E1F77C837E
:104A10006B8323702983AA24AA94A90E4A2C10E040
:104A20008B2C912C212F012E000C330B2C153D05C6
:104A30000CF071C01A8317FF03C077E0710F7A83FF
:104A40009A819595959595959A83912F977897FF4B
:104A500003C09150986F9F5F20E8622E712C02C0B6
:104A6000759467949A95E2F70FEF0B0D512CEA813C
:104A70000E2E000CFF0B3296FE83ED83252D052CA8
:104A8000000C330B281539050CF042C04B815C81BA
:104A9000429FF001439FF00D529FF00D11246D8154
:104AA0007E81E60FF71FEE0DFF1DE491F0E0E62199
:104AB000F721EF2B51F17981723039F0733041F0E9
:104AC000713049F4442D652D08C0642D402F05C078
:104AD000602F412F02C0452D612F882371F0982F40
:104AE00093709A8380FF03C0EA2DE61B6E2F81FF2F
:104AF00005C0FB2DF41B4F2F01C01A82630D420D20
:104B00008FEE95E00E94D51D8A8153940150B6CF57
:104B10001F5F4A9487CF26960FB6F894DEBF0FBE6C
:104B2000CDBFDF91CF911F910F91FF90EF90DF905C
:104B3000CF90BF90AF909F908F907F906F905F903D
:104B40004F903F902F9008950F931F93CF93DF9333
:104B5000C82F162FD42F022F242F462F682F8FEE09
:104B600095E00E942D1E4FEF400F410F2D2F6C2F0F
:104B70008FEE95E00E942D1E202F412F6C2F8FEE7F
:104B800095E00E94401F6FEF6D0F6C0F202F412F9B
:104B90008FEE95E0DF91CF911F910F910C94401F04
:104BA000BC018FEE95E00C94BC1ACF93C82FF894FB
:104BB00060E08091FE050E94431B8091FF0518165E
:104BC0001CF460E00E94431BCEBD00000DB407FE44
:104BD000FDCF8EB58091FF0518161CF461E00E9490
:104BE000431B7894CF9108950F931F93CF93809197
:104BF000FB058F5F8093FB0508E216E0C0E08C2F79
:104C000080640E94D52580E80E94D52561E08091CE
:104C1000FE050E94431B8091FF0518161CF460E0FE
:104C20000E94431BF80184E591919EBD00000DB4E4
:104C300007FEFDCF9EB58150B9F78091FF0518168C
:104C40001CF461E00E94431BCF5F0C5A1F4FC6301B
:104C5000B1F680E4CF911F910F910C94D52584304B
:104C600018F590E09C01215D3A4FF901E858FF4F9B
:104C7000108238971082FC01EE0FFF1FEE54FA4F9E
:104C800016A215A2F901E458FF4F1082FC01E55D60
:104C9000FA4F1082FC01E95DFA4F1082FC01ED5DD4
:104CA000FA4F10820C94F21C08950F931F93CF9328
:104CB000DF938C01C0E0D0E0F801EC0FFD1F6491A0
:104CC000662371F0E091EF05F091F0050190F0811D
:104CD000E02D8FEE95E00995892B11F02196ECCF10
:104CE000CE01DF91CF911F910F910895CF92DF9266
:104CF000EF92FF920F931F93CF93DF936B01770F88
:104D0000EE08FF08F7FE1BC0EC016DE20E94B51A29
:104D10008C0144275527BA014C195D096E097F099A
:104D20002AE0CE010E94D11A800F911FDF91CF910E
:104D30001F910F91FF90EF90DF90CF9008952AE0A0
:104D4000B701A601DF91CF911F910F91FF90EF90D6
:104D5000DF90CF900C94D11AAF92BF92CF92DF9296
:104D6000EF92FF920F931F93CF93DF93182F062F8D
:104D7000C1E0D3E08AEFD82E9EEFE92E842F847015
:104D8000C82E842F8270B82E842F8870A82E417070
:104D9000F42E8C2F880F8F5FE80ECC2081F0402FEF
:104DA0004D0F612F6C0F8FEE95E00E94D51D402FA7
:104DB0004C0F6D2F610F8FEE95E00E94D51DBB202B
:104DC00081F0402F4D1B612F6C0F8FEE95E00E94FC
:104DD000D51D402F4C1B6D2F610F8FEE95E00E946B
:104DE000D51DAA2081F0402F4C0F612F6D1B8FEE37
:104DF00095E00E94D51D402F4D0F612F6C1B8FEE4B
:104E000095E00E94D51DF1100AC0CD17CCF4E7FC47
:104E100004C0D150D394D394ED0CCF5FBACF402FC0
:104E20004C1B612F6D1B8FEE95E00E94D51D402F0E
:104E30004D1B612F6C1B8FEE95E00E94D51DE5CFB9
:104E4000DF91CF911F910F91FF90EF90DF90CF9066
:104E5000BF90AF9008959F92AF92BF92CF92DF9292
:104E6000EF92FF920F931F93CF93DF93F82EE62ECE
:104E7000B22E13E0120FD0E0C3E08AEFC82E0EEF7F
:104E8000842F8170982EAA24A394A20E4270D42E4F
:104E9000DF5F812F8B19080F9920A1F02C2F220F93
:104EA0002A0D4E2D4C1B6D2F6F0D8FEE95E00E943D
:104EB000401F212F4E2D4D1B6C2F6F0D8FEE95E057
:104EC0000E94401FD1100AC0DC17ECF407FD04C09B
:104ED000C150C394C3940C0D1E5FDACF2C2F220F48
:104EE0002A0D4E2D4C1B6F2D6D1B8FEE95E00E94F1
:104EF000401F212F4E2D4D1B6F2D6C1B8FEE95E00B
:104F00000E94401FE1CFDF91CF911F910F91FF9041
:104F1000EF90DF90CF90BF90AF909F9008950F9348
:104F20001F93CF93DF938C01862FC62FD0E0643080
:104F300030F40E942F26FE01E15DFA4F11A6CE014A
:104F4000880F991F815D9A4FFC01BB9616A305A39C
:104F5000749616A215A2FE01E15DFA4F81E081A7C9
:104F6000DF01AC58BF4F89E08C931C961C921896B9
:104F70001C92E057FF4F1082DF91CF911F910F914C
:104F80000895CF93DF93682FA82FB0E0ED01C15DA6
:104F9000DA4F8DA1882309F438C089A5811135C065
:104FA000FE01E05CFF4F8081AA0FBB1FA15DBA4FDD
:104FB000D8962C91D897D9969C91D997E22FF92F12
:104FC000E80FF11DE80FF11D259134912F3F8FEF70
:104FD000380711F41DA219C0FE01E45BFF4F3083B6
:104FE0005F963327220F331F9596ED91FC9196978C
:104FF000E20FF31F85919491643010F40E948F2783
:10500000C05CDF4F88818F5F8883DF91CF910895E7
:10501000DF92EF92FF920F931F93CF93DF93CFE234
:10502000D5E006E315E0EE24EA9462E08A850E946A
:10503000721B2A8530E0F901E458FE4E8491F90193
:10504000E859FE4EF490F901EC5AFE4ED490DD2062
:1050500071F081110E941A1BED2DF0E0EE0FFF1F81
:10506000E65BFE4EA591B491EC91FE2299F48989FC
:105070008F5F898B60E08A850E94721B21960C17D6
:105080001D0799F6DF91CF911F910F91FF90EF903F
:10509000DF9008958989882389F38F3F11F4198A55
:1050A000E9CFE98AE7CFCF93DF930E945526EC0141
:1050B00064EC71E08FEE95E00E94BC1A8C0F9D1F8E
:1050C000DF91CF910895CF93DF93CDB7DEB760978F
:1050D0000FB6F894DEBF0FBECDBF789484B5826062
:1050E00084BD84B5816084BD85B5826085BD85B58C
:1050F000816085BD80916E00816080936E0010920A
:105100008100809181008260809381008091810084
:105110008160809381008091800081608093800015
:105120008091B10084608093B1008091B000816073
:105130008093B00080917A00846080937A0080919F
:105140007A00826080937A0080917A0081608093F7
:105150007A0080917A00806880937A001092C10072
:105160000E94A72081E0809304051092C90110924B
:1051700003051092CB011092CA011092070580918D
:10518000110681110E94CD1F109247057DE7272E41
:10519000312CE3E06E2E65E0762E0E949A1588236E
:1051A00011F40C94DE3780910405813049F082308F
:1051B00011F00C94DE371092020547E0E42EB8C0DF
:1051C0008091C901882329F0813039F48EE591E07E
:1051D00002C08BE491E00E94D02523E14EE167E01C
:1051E0008AE00E94A42524E431E041E166E18FEEEB
:1051F00095E00E94762324E431E043E16DE18FEEF7
:1052000095E00E94762329E531E049E06EE18FEEDA
:1052100095E00E9476232EE431E049E06CE08FEEC9
:1052200095E00E94762323E14EE167E082E30E944D
:10523000A42528E031E049E064E38FEE95E00E9488
:10524000762322E231E04FE06AE38FEE95E00E94A0
:10525000762328E131E049E064E48FEE95E00E9496
:1052600076238091C90198E2899F802D112425E140
:1052700040E266E0875F0E94A42553E2C52EC092FB
:10528000F8058EE18093F90581E791E00E94D02531
:10529000C092F80584E28093F90586E791E00E94C8
:1052A000D025C092F8058AE28093F9058DE791E058
:1052B0000E94D025D09003054D2D440FD40EDD0C57
:1052C000D9824D2D435E21E83CE06FE08FEE95E002
:1052D0000E9476234981455E25EA3CE061E18FEE3C
:1052E00095E00E9476230E94F7080C94DE37EF9C2D
:1052F0009001112427563B4F3A832983D9018D9180
:105300009C910E94A01F8C0190930C0580930B052B
:10531000E981FA81828193810E948D1F90930A0511
:1053200080930905043511054CF0F394F0920205C1
:10533000F09002050EE00F15D0F629C0A981BA81C0
:1053400014962C91149730E031952195310920174E
:1053500031075CF78033910544F715962C9115972A
:1053600030E031952195310928173907F4F6169662
:10537000EC91F0E0EE0FFF1FE75DFE4F20813181E1
:10538000482F602F8FEE95E00E947623CECF1092AB
:10539000020529E0C22ED090020580919804D8160B
:1053A00008F05EC0ED2CF12CCE9CF001CF9CF00DEE
:1053B0001124E95BFB4FFA83E983808191810E948C
:1053C000A01F8C0190930C0580930B05A981BA81D5
:1053D00012968D919C9113970E948D1F90930A05B0
:1053E0008093090504351105BCF5E981FA81248112
:1053F00030E0319521953109201731076CF5803364
:10540000910554F5258130E0319521953109281712
:10541000390714F5278121110AC02085263038F07C
:10542000E681F0E0EE0FFF1FE95EFE4F0DC0CE9C5F
:10543000F001CF9CF00D1124E95BFB4FE681F0E019
:10544000EE0FFF1FE75DFE4F20813181482F602F57
:105450008FEE95E00E947623D394D09202059BCFE5
:1054600010920205BAE0CB2ED0900205A09046041F
:10547000DA1408F067C0ED2CF12CCE9C8001CF9C93
:10548000100D11240C581C4F1A830983D8018D91DB
:105490009C910E94A01F8C0190930C0580930B059A
:1054A000E981FA81828193810E948D1F90930A0580
:1054B00080930905043511050CF040C0A981BA811B
:1054C00014962C91149730E03195219531092017CD
:1054D0003107A4F5803391058CF515962C9115971D
:1054E00030E0319521953109281739073CF5179699
:1054F0002C91179721110DC018962C9118972630D2
:1055000040F01696EC91F0E0EE0FFF1FE95EFE4FC3
:105510000DC0CE9CF001CF9CF00D1124EC58FC4F37
:10552000E681F0E0EE0FFF1FE75DFE4F2081318145
:10553000482F602F8FEE95E00E947623D394D0926F
:10554000020592CF80910305882309F454C110927B
:1055500002056CE0F62EE0900205B3E1BE1508F4FA
:105560004AC18E2C912CF89CF001F99CF00D11246D
:10557000EC57FD4FB780B1100AC08085883038F0F5
:10558000883108F034C18370823009F030C1F89C52
:105590008001F99C100D11240C571D4FF801C0809B
:1055A000D180C6010E94A01F9D838C8390930C051F
:1055B00080930B05D80112964D905C901397C20111
:1055C0000E948D1FBC0190930A0580930905EC8110
:1055D000FD81E836F1050CF00AC1D80114962C9132
:1055E0001497E22FF0E0FA83E9838CEE9FEF8E1B95
:1055F0009F0B4C815D81841795070CF090C064343B
:1056000071050CF08CC01596AC918CEE9FEF8A1B47
:105610009109861797070CF082C0BB2009F47FC060
:1056200058E050930805269530E0809172029091E1
:105630007302F601E20FF31FAC01465F5F4F4E1796
:105640005F075CF4B1E0CB1AD108F801D182C082C7
:1056500054E0C52EC286C0920805F89CF001F99C62
:10566000F00D1124EC57FD4F40815181240F351F5F
:105670000A97281739073CF44F5F5F4F51834083E7
:10568000128610920805A695B0E080917402909160
:105690007502A2014A0F5B1F9C0128503109421775
:1056A0005307DCF4F89CF001F99CF00D1124EC5741
:1056B000FD4F0FEF401A500A538242822091080595
:1056C000243039F0283039F0211107C021E0228739
:1056D00004C0628602C012E01287F89CF001F99CB7
:1056E000F00D1124EC57FD4F22813381A20FB31F1F
:1056F00008968A179B079CF4215031093383228333
:1057000080910805843039F0883039F0811107C064
:1057100027E0228704C0728602C036E032874C81BF
:105720005D81443551050CF062C089819A81919563
:1057300081959109841795070CF059C06033710564
:105740000CF055C0F89CF001F99CF00D1124EC57B9
:10575000FD4F858190E09195819591098617970776
:105760000CF045C08681811111C082858250BB201A
:1057700041F0843018F401E020E005C028EF3CE05F
:1057800030C000E021E048EF5CE022C0E2858E2FCF
:1057900090E08830910558F5FC01EC5CFF4F0C94CB
:1057A000F63928ED31E01DC02AEB31E01AC02CE9B2
:1057B00031E017C001E020E04AEB51E009C001E010
:1057C00020E048ED51E004C001E020E040E651E077
:1057D0008C810E94BA240BC02EE731E002C020E683
:1057E00031E0462F6C818FEE95E00E947623E394A2
:1057F000E0920205B0CE10920205C0900205C98267
:105800000C2D033108F072C0EC2DF0E07E9ED0012B
:105810007F9EB00D1124AD5EBD4F8D919C91209166
:105820007202309173022A3231055CF02A5231093A
:10583000233212E0310718F4821B930B02C082520C
:105840009240B1010E94E23983589F4FB1010E94FA
:10585000E239382F80930B0590930C057E9ED00182
:105860007F9EB00D1124AD5EBD4F12968D919C911F
:1058700013974091740250917502423251055CF0C9
:1058800042525109473422E0520718F4841B950B09
:1058900002C086549240B1010E94E23983589F4F62
:1058A000B1010E94E2398093090590930A057E9E1A
:1058B000A0017F9E500D1124FA01ED5EFD4FE481A1
:1058C000F0E0EE0FFF1FEF5FFE4F0190F081E02D43
:1058D0004CEE480F6CEE630F9F018FEE95E00E9437
:1058E000762309810F5F0093020587CF80917B02A9
:1058F000813009F01CC180E00E945C1F809172021F
:10590000909173020E94C01F8B8390E090930C05CE
:1059100080930B0580917402909175020E94B31FD1
:10592000898390E090930A0580930905E0917602BF
:105930008E2FEE0F990BAA0BBB0B8830910508F048
:10594000F6C0FC01E45CFF4F10910705812F8370C6
:105950000C94F63981110BC0809179026981681B22
:1059600029814B81405F8B818A5F0E94FF22812FBA
:10597000662D0E94D6391AE0919F9001112426527B
:10598000334F498144506B81645FCDC081110DC09C
:10599000809179026981681B6F5F29812B5F4B8140
:1059A000485F8B818D5F0E94FF22812F662D0E94B0
:1059B000D6394AE0949F900111242652334F4981F1
:1059C0004F5FAFC081110AC0809179026981681B65
:1059D0002981285F4B81842F0E94FF22812F662D11
:1059E0000E94D6395AE0959F900111242652334FD8
:1059F00049814C5F6B81645096C081110DC08091CC
:105A000079026981681B6F5F29812B5F4B81485048
:105A10008B8183500E94FF22812F662D0E94D639F0
:105A20007AE0979FA00111244652534F69816F5F1E
:105A300039C081110BC0809179026981681B29816D
:105A40004B8140518B8186500E94FF22812F662D11
:105A50000E94D6398AE0989FA00111244652534FE4
:105A60006981645001E020E08B8184513CC0811148
:105A70000DC0809179026981681B6250298125508F
:105A80004B8148508B8185500E94FF22812F662DCB
:105A90000E94D639AAE09A9FA00111244652534F82
:105AA0006981695001E020E08B818C501CC081111C
:105AB0000AC0809179026981681B298128504B8135
:105AC000842F0E94FF22812F662D0E94D639BAE0D2
:105AD0009B9FA00111244652534F69816C5001E0F5
