:100000000C94D9040C9401050C9401050C94010581
:100010000C9401050C9401050C9401050C94010548
:100020000C9401050C9401050C9401050C94621CC0
:100030000C9401050C9401050C9401050C94010528
:100040000C94181C0C9401050C9401050C940105EA
:100050000C9401050C9401050C9401050C94010508
:100060000C9401050C94010545004001418149783B
:100070008D782C05000045000181307F000045008F
:100080002C010000450054010000450049707C012E
:100090004D782C0400004F7574206F6620616D6DE3
:1000A0006F210045004C0100008A0084007E00762C
:1000B000006800450049784D78280A0000526566BE
:1000C000696C6C65642021000500400150015C01F1
:1000D000700180016C0154016001740184014C01C4
:1000E0005C0168017C018C010000557067726164DD
:1000F00065642021004561726E2024352066697296
:10010000737400153A6163636570740020637261F3
:1001100062732E000A6279206B696C6C696E670AE3
:1001200000596F75206D61646520240047414D457D
:10013000204F56455221004E4557204849474853C5
:10014000434F52450047414D45204F5645522100EF
:100150004500640500000808000C1C181000000091
:1001600008086C9282442810000008086CFEFE7C8F
:10017000381000000808003C5A7E7E7E3C00153A8C
:1001800073686F6F7420163A72756E004C45542771
:100190005320474F210008080008001838B4001009
:1001A0000808FF81FFA3C5FF81FF08080024187E0F
:1001B0003C7E3C0008080000183C18240000450064
:1001C00084010000484947482053434F524553009B
:1001D000177361766500166261636B001574797040
:1001E00065000A0A0A153A6F6B617920163A656450
:1001F000697400596F7520656E74657265640A00D4
:100200000101FF030101F7034D61696E204D656E29
:10021000750053797374656D20496E666F00486987
:1002200067682073636F72657300526573746172DF
:100230007400506C61790004020002000000002488
:100240000027002A0000000000250028002B0005E0
:10025000008930080238024978681400002F0056DF
:100260006F6C756D653A004261636B6C69676874A9
:100270003A004C696768743A002F34004261742078
:100280006C766C3A006D56004261743A0005077F47
:100290004141417F3E5B4F5B3E3E6B4F6B3E183CA6
:1002A000783C18183C7E3C181C577D571C1C5E7F00
:1002B0005E1C007E43437E007E73737E007E7F7FE4
:1002C0007E7F4141417F30483A060E062979290652
:1002D0007F4141417F60703F02042A1C361C2A7F07
:1002E0003E1C080000081C3E7F14227F22143C3C68
:1002F0003C7EFF18423C817E3E6375633E3E616BEF
:10030000633E3E636B6B3E04027F020410207F203D
:100310001008082A1C08081C2A0808143E55412207
:10032000637569756310181C1810040C1C0C04000C
:100330000000000000005F00000007000700147FBD
:10034000147F14042A7F2A10231308646236495646
:1003500020500008070300001C2241000041221C1D
:10036000002A1C3E1C2A08083E080800E060000025
:100370000808080808006060000060100804033ED8
:100380005149453E00427F40006251494946214162
:10039000494D331814127F1027454545393C4A49C9
:1003A0004930412111090736494949360649492949
:1003B0001E00002400000080640000081422410098
:1003C0001414141414004122140802015909063EA1
:1003D000415D594E7C1211127C7F494949363E419C
:1003E0004141227F4141221C7F494949417F0909FE
:1003F00009013E414151327F0808087F00417F4199
:10040000002041413F017F081422417F404040408D
:100410007F020C027F7F0204087F3E4141413E7F04
:10042000090909063E416141BE7F0919294626494D
:1004300049493201017F01013F4040403F1F2040B8
:10044000201F3F4038403F631408146303047804BE
:10045000036151494543007F414100030408106096
:100460000041417F000402010204808080808000FE
:100470000307080020545478407F28444438384407
:10048000444428384444287F3854545418087E097A
:10049000090218A4A49C787F0804047800447D40D5
:1004A00000006080847D7F1010284400417F400060
:1004B0007C047804787C080404783844444438FC8C
:1004C0001824241818242418FC7C08040408085450
:1004D000545420043F4444203C4040207C1C204095
:1004E000201C3C4020403C44281028444C909090D4
:1004F0007C4464544C44000836410000007F0000F6
:100500000041360800180408100C7F4141417F3239
:10051000022A021E021202080205006801380100C8
:10052000000A0A153A49676E6F7265006D560A0A2D
:10053000504C45415345205455524E204F4646207D
:10054000004C4F572042415454455259212000033A
:10055000053F213F1208120A100A0E1C0E0C1E0C39
:10056000141A14161F161E131E1E1B1E1E1F1E3FBE
:10057000213F3A2F3A173D173F213F181F02040A27
:10058000041F0E04040E1F0A1F0A0E0E1F04110E74
:100590002E252E2F2A2E262929021F02081F081574
:1005A0000E04040E150E15151B151B040604040C71
:1005B000040000000017000300031F0A1F16371A6B
:1005C0001904130A153A000300000E11110E000A57
:1005D000040A040E0400300004040400100018048F
:1005E000031F111F121F101D151711151F07041FC0
:1005F00017151D1F151D01011F1F151F17151F00A2
:100600000A00003200040A110A0A0A110A0401153C
:10061000020E11171E051E1F150A0E110A1F110EBC
:100620001F15111F05010E111D1F041F111F110899
:10063000100F1F041B1F10101F061F1E040F0E118A
:100640000E1F09060E112E1F051A121509011F0192
:100650001F101F0F180F1F0C1F1B041B031C031957
:100660001513001F11030418111F0002010220209E
:10067000200001020C121E1F120C0C12120C121F71
:100680000C1A14041E05242A1E1F021C141D1020FF
:10069000201D1F0814111F101E041E1E021C0C1208
:1006A0000C3E0A040C123E1E040214160A020F121B
:1006B0000E101E0E100E1E081E120C1226281E32C0
:1006C0002A26041E21001F00211E040102013F21D1
:1006D0003FF6E8DBCFC3B8AEA49B928A827B746EF0
:1006E00068625C57524E4945413E3A3734312E2CB0
:1006F00029272523211F1D1C1A191716151413123B
:1007000011100F0E0D0C0B0A09080706172B1520E8
:1007100010204C4F4144455200172B162013140053
:100720004500680100000A4E6F2053442063617247
:1007300064206F720A6E6F204C4F414445522E4820
:1007400045580A0A153A45786974001D20466C61BF
:100750007368696E670A20206C6F616465722E2E63
:100760002E0A0A444F4E2754205455524E204F46CD
:100770004621004D4734320052504700414B343738
:1007800000503930002E33353700CFCF804001FC88
:1007900039E00C06871FC3C181013C3307E084099F
:1007A000C1CF0808542014418804510A696E6600BC
:1007B000850781077C077807730700000000230086
:1007C00026002900040404040404040402020202B2
:1007D0000202030303030303010204081020408004
:1007E0000102040810200102040810200000000883
:1007F00000020100000304070000000000000000E8
:1008000005003801680100004024FFFFFFFFFFFFE3
:10081000FFFF8000000000014141800001800604CC
:100820001411800001800600808180000180060094
:1008300000418F3F79B9EF9E7E1199BBCDFB3633D6
:10084000762199B30D983633664598307D99F63305
:1008500060039830CD9B363361419830CD9B363361
:10086000641599B0DD9B76336089CF30FDF3F39E3C
:1008700060418000000000000515A000000000207D
:1008800080A1C000180C00000FF59000245280F0E9
:100890000813D002AC5681F80FF1994334DAE1F82D
:1008A0000A359542255281F80C59DDC219CC616890
:1008B0000FF18040000000F008158080000000006B
:1008C0000FF1C000000006000005800000000F00CE
:1008D0000003C000000006000001900000000900B5
:1008E00000058000000000000009C1400000000079
:1008F000000193D0000000000005A3E00000000606
:10090000000183E00545400F054583D00202000643
:10091000020381400141400901418000041410009C
:100920000415FFFFFFFFFFFFFFFF001753440016F2
:100930001378001613140015102000152010005411
:100940000A03E181867F3E186D830F0F0E018386B7
:100950006033186DC3198F1803C38E6033186DE3AD
:1009600030CF1803C39E603630CDE360CF3006C76A
:100970009E7E3E30CDB360CF300CC6F6603330D9AA
:10098000B660CF33CFCCF66061B0DB1E60CF30D81D
:100990006CE6C061B0DB1E618F19986CC6C063B194
:1009A0009B0E330F0FB078C6FF7E1F1B061E0F0075
:1009B000AB2A11241FBECFEFD8E0DEBFCDBF11E0C0
:1009C000A0E0B1E0E6EAFAE502C005900D92A83594
:1009D000B107D9F725E0A8E5B1E001C01D92AC3F11
:1009E000B207E1F714E0C9EDD4E004C02197FE019D
:1009F0000E943F2DC83DD107C9F70E94AA250C943B
:100A0000512D0C9400002F923F924F925F926F9263
:100A10007F928F929F92AF92BF92CF92DF92EF928E
:100A2000FF920F931F93CF93DF93CDB7DEB72E972F
:100A30000FB6F894DEBF0FBECDBF10921B0310E0BF
:100A400022E0E22E36E0F32E00E11A3091F00E940F
:100A5000DF148823D1F3E092CB03F092CC03009310
:100A6000CD036CE871E083EC93E00E94301A1F5FC5
:100A7000ECCF81E08093CB038EE791E09093FA0373
:100A80008093F90388E48093FB030E94DF1488239A
:100A9000E1F380911A03813039F08091160381507F
:100AA0008E3FF8F483E02DC088E293E00E9499190C
:100AB0002E960FB6F894DEBF0FBECDBFDF91CF915B
:100AC0001F910F91FF90EF90DF90CF90BF90AF906C
:100AD0009F908F907F906F905F904F903F902F905E
:100AE00008958091140381508E3F50F090E08091E2
:100AF000170381508E3F48F482E0809314020FC0A8
:100B000081E08093140291E0F2CF8091150381502F
:100B10008E3F18F0992331F102C010921402109107
:100B20001302212F44E152E069E072E08BE092E091
:100B30000E94910D6091090270910A0226E046E040
:100B400080910B0290910C020E94101F882351F09B
:100B5000212F219544E152E069E072E08BE092E0C0
:100B60000E94910D80910B0290910C0287979093B7
:100B70000802809307028091090290910A0245972A
:100B8000909306028093050280910302882309F462
:100B90006DC08150809303026091120270E0CC24FA
:100BA000DD24C61AD70A0D2C000CEE08FF086F5F73
:100BB0007F4FCB01770FAA0BBB0BBC01CD016C198A
:100BC0007D098E099F090E940F1AC60ED71EE81EC6
:100BD000F91E6091070270910802C60ED71ED092CE
:100BE0000802C09207026091120270E0CC24DD245A
:100BF000C61AD70A0D2C000CEE08FF086F5F7F4F56
:100C0000CB01770FAA0BBB0BBC01CD016C197D0981
:100C10008E099F090E940F1AC60ED71EE81EF91EE4
:100C20006091050270910602C60ED71ED092060290
:100C3000C09205028091080386958695109106035F
:100C400090911202899F90011124B901032E000C8A
:100C5000880B990B232B19F00E940F1A01C060E03A
:100C6000161B612F70E08FEF0E945A1B60910502E6
:100C70007091060280910702909108020E947B1FEA
:100C80006091090270910A029E012B5F3F4FAE01F5
:100C9000495F5F4F80910B0290910C020E94D50D2D
:100CA0006D8161508F812091140244E751E08150A1
:100CB0000E94D621912C90E8892E8091DA02981614
:100CC00008F06EC0092D10E09801220F331FF901C2
:100CD000ED54FE4FC080D18080910B0290910C02A8
:100CE000A601481B590BCA0157FF03C09195819576
:100CF0009109682FAC0155274034510514F0682D37
:100D0000681B643708F04AC0F901ED52FE4FA0801D
:100D1000B1808091090290910A02D501A81BB90BFC
:100D2000CD01B7FF03C0919581959109682FAC0162
:100D300055274033510514F060E6681B603570F5A7
:100D40002090070230900802409005025090060261
:100D5000085A1E4FF901ED52FE4F3F01A9014D54B3
:100D60005E4F7A0121E0A801BF01C7010E94910DE9
:100D7000892D0E945F0C882309F4FCC02FEFA80185
:100D8000B301C7010E94910D0E94012B24E030E0C5
:100D900040E050E00E946E2BF801608393948DCF69
:100DA0000E94350F8091F802882319F081508093BA
:100DB000F8028091180381508E3F08F0D4C08091D2
:100DC000190381508E3F08F48BC12091F6023091B7
:100DD000F7022115310509F465C18091F8028111EE
:100DE00081C1E4EAF1E000E010E0902E81918111F0
:100DF00052C181E0F801EC55FE4F80838091F902E9
:100E0000F801E656FE4F808390E0FC01E15FFE4F63
:100E100040814093F802215031093093F70220932A
:100E2000F602FC01E65FFE4F4080FC01E75EFE4FEC
:100E30008081C42C80FDF5C0C194042C000C5508A1
:100E4000BFEF4B1A5B0A052C000C660877080C2CC8
:100E5000000CDD08EE08FF08C414D504E604F7040E
:100E60000CF0E1C0C301B2016C197D098E099F0924
:100E70000E940F1AAB01BC014C0D5D1D6E1D7F1D44
:100E80005801AA0CBB1CD501A859BE4F80910B027A
:100E900090910C020396E091F902F0E0E75EFE4FBC
:100EA00020812695821B9109480F591F4D935C9311
:100EB000C414D504E604F70464F4C301B2016C1948
:100EC0007D098E099F090E940F1AC60ED71EE81EC3
:100ED000F91E4091F902E42FF0E0B50164587E4F0D
:100EE0008091090290910A0203969F01275E3E4F6E
:100EF000D9012C912695821B9109C80ED91EDB01C0
:100F0000CD92DC92D801A057BE4F809114028C93F1
:100F100090920D02413009F089C08091E60380FF74
:100F200088C08091F902813009F48FC0E091F90204
:100F3000F0E0EB5FFE4F0081202F219544E152E06D
:100F400069E072E08BE092E00E94910D10E00113E5
:100F500088C08091F902843031F481E080931202DC
:100F600082E0809303028091190381508E3F08F044
:100F7000B9C0B6C060E270E080E090E00E940F1A55
:100F8000672B682B692B59F40E94012B24E030E079
:100F900040E050E00E946E2BD8016C93FFCE60E1E0
:100FA00070E080E090E00E940F1A672B682B692B9D
:100FB00009F0F4CE62E070E080E090E00E940F1A49
:100FC000672B682B692BB1F0C60180589F4F82199F
:100FD000930960E870E00E94172DEAE2F0E0E81B58
:100FE000F90B1E161F0614F4E3E015C081E0D801CA
:100FF0008C93D4CEC501805A9F4F8419950960E621
:1010000070E00E94172DE8E1F0E0E81BF90B1E16D6
:101010001F0624F4E2E0D801EC93C0CED8011C9264
:10102000BDCEC0940ACFB701A6012ACF443009F43F
:1010300074CFEE0FFF1FE755FF4F6591749140E0AD
:1010400088E293E00E944E1D6CCF0E94012B60FF4E
:101050006DCF40E063EA70E088E293E00E944E1DAD
:1010600065CF6091090270910A0226E046E0809106
:101070000B0290910C020E94101F882309F469CF83
:1010800021E044E152E069E072E08BE092E00E94EE
:10109000910D1F5F5CCF0F5F1F4F0A30110509F0E4
:1010A000A4CE20C0E091F902E111E150E093F902F1
:1010B000F0E0EE0FFF1FE25EFE4F80819181909382
:1010C000F7028093F60284E18093F80286E990E0CB
:1010D0009093FA038093F9038AE28093FB0343CF52
:1010E00082E001C081E08093130244EA642E41E073
:1010F000742E58E6E52E51E0F52E0CE711E0EAE9F2
:10110000F1E0FA87E98760E9262E61E0362ED12CDE
:10111000D3018C91882309F495C0E985FA85C080B4
:101120008C2D90E0FC01E75EFE4FA080FC01EC5EA0
:10113000FE4F2081A101B801C7010E94910DD80185
:101140006D917C912A2D4A2DF701808191810E9419
:10115000101F811110C09091DA0223EF822E21E03E
:10116000922E23EB31E03E872D8733ED432E31E085
:10117000532EB12C34C0D3011C92B3E0CB1262C009
:10118000F701808191819093110280931002D80120
:101190008D919C9190930F0280930E02B8E0B093D2
:1011A000AE0140E063EB70E088E293E00E944E1DE8
:1011B00049C0ED85FE8561917191FE87ED87D7016C
:1011C000ED91FC9195012E0F3F1F6217730754F0AC
:1011D0008F5FAFEF8A1A9A0AB2E04B0E511C981338
:1011E000E8CF30C0D4014C9150E0640F751FE61772
:1011F000F70774F7D2012D913C91D8016D917C9144
:10120000D501A60FB71F2A173B0714F7240F351F68
:1012100062177307ECF653E0C5129AC1F0931102FE
:10122000E093100270930F0260930E02B8E0B09347
:10123000AE0140E063EB70E088E293E00E944E1D57
:10124000F3011082D394FFEF6F1A7F0A22E0E20EBF
:10125000F11C0E5F1F4F49855A854F5F5F4F5A87BC
:1012600049875FEF251A350A8AE0D81251CF0E94CC
:10127000F0138091AE01882309F48FC081508093D0
:10128000AE0184E08093120282E08093030266E064
:1012900070E080E090E00E940F1A1AE0912E960E06
:1012A00068E070E080E090E00E940F1AC92CC694BC
:1012B000D12CDC01CB010497A109B10900911002E6
:1012C00010911102B801680F791F8B010C191D09CB
:1012D00068E070E080E090E00E940F1ADC01CB0132
:1012E0000497A109B109E0900E02F0900F02B70136
:1012F000680F791F7B01EC18FD08812CC92CD12CBB
:101300005801AC0CBD1CCE0CDF1C8091DA02881693
:1013100030F5E82DF0E0DF01AD50BE4F8C9190E04C
:10132000EE0FFF1FDF01AD54BE4F2D913C91AC017C
:10133000420F531F0417150784F42A153B056CF45C
:10134000ED52FE4F20813181820F931FE816F9067E
:1013500024F42C153D050CF4FFC08394D6CF9E01D8
:101360002F5F3F4FAE014D5F5F4FB701C8010E9435
:10137000D50D882391F082E08093E3038093E4030A
:10138000092D292D49816B8183EC93E00E94B31DC7
:1013900081E08093E3038093E4030E943D138091F6
:1013A0000B0290910C022091AF013091B001A90184
:1013B0004A5F5F4F8417950754F52E5F3F4F06969F
:1013C0002817390724F58091090290910A0220918B
:1013D000B1013091B201A9014A5F5F4F84179507AF
:1013E000B4F42E5F3F4F06962817390784F4809196
:1013F000F4029091F50205970CF0B4C085EF90E0EF
:101400009093FA038093F9038AE28093FB030E948E
:10141000800FF6E5EF2E00E010E0DD24D394F0908D
:1014200004028F2D0F2C000C990B801791071CF0D4
:101430002AE631E012C01092E3031092E4032AE698
:1014400031E040E06E2D83EC93E00E949220D09238
:10145000E3031092E40320E631E040E06E2D83ECDC
:1014600093E00E9492200E5F1F4F97EFE90EA2E3D8
:10147000EA12D5CFF1100BC08091E60380FD0EC0BB
:1014800082E08093120281E08093030207C0B1E002
:10149000FB1204C0F0921202F0920302F0FE0FC0A1
:1014A000F7FCF394F59467EF6F9D600D11246A5A71
:1014B00026E531E040E083EC93E00E9492208091A9
:1014C000F6029091F702892B11F00E94B41E0E943F
:1014D000EC1F10E002E074E0F72EE3E0EE2E8091C6
:1014E000DA02181708F0D1CA40910B0250910C0291
:1014F000812F90E0FC01ED50FE4FA0812A2F30E0BB
:10150000880F991FFC01ED54FE4F60817181F90134
:10151000E60FF71F4E175F07CCF44A5F5F4F641763
:101520007507A4F44091090250910A02FC01ED52A2
:10153000FE4F80819181280F391F4217530734F4E1
:101540004A5F5F4F841795070CF455C01F5FC7CFE4
:101550006D2D0E94150E74CE60910D02882D0E9493
:10156000150EFBCE8091F902843088F48AEE90E06B
:101570009093FA038093F9038AE28093FB0340E09F
:1015800068EC70E088E293E00E944E1D09C08DEB8C
:1015900090E09093FA038093F9038AE28093FB032F
:1015A0008091F4029091F50205979093F502809353
:1015B000F4020E94A70FE091F9028E2F90E00497A9
:1015C00014F4EF5F01C0E4E0E093F902F0E0EE0F05
:1015D000FF1FE25EFE4F808191819093F70280931E
:1015E000F60280910402853014F48F5F01C086E01A
:1015F000809304020CCF809104029FEF980F909388
:10160000040200931202F0920302A63029F48250E1
:1016100080930402E092120240E060E571E088E20B
:1016200093E00E944E1D812F0E94FB0C80910402CA
:1016300087FF8CCF10E084E5D82EFF24F3949CE044
:10164000E92E0E94DF148823E1F30E94350F0E94E7
:10165000F0130E943D130E94800F8091F60290913A
:10166000F702892B11F00E94B41E0E94EC1F6091BA
:1016700005027091060280910702909108020E9473
:101680007B1F6D8161508F812091140244E751E0EE
:1016900081500E94D6211092E3031092E40300E3EC
:1016A000212F40E060E083EC93E00E94B31D6D2D9C
:1016B000611B212F40E083EC93E00E94B31DF09268
:1016C000E3031092E403E092CC03F092CD0365E4CF
:1016D00071E083EC93E00E94301A1E5F1E3309F024
:1016E000B0CF1CE0FF24F39408E20E94DF148823AB
:1016F000E1F320919F023091A0028091F402909139
:10170000F50228173907A4F462E070E080E090E069
:101710000E940F1A6E5F6093CC0362E070E080E07D
:1017200090E00E940F1A6093CD0367E371E006C05A
:101730001093CC03F092CD036CE271E083EC93E064
:101740000E94301A1092CC031093CD0361E271E035
:1017500083EC93E00E94301A4091F4025091F5021C
:10176000052E000C660B770B83EC93E00E94AF22F2
:1017700064E171E083EC93E00E94301A4091D8025A
:101780005091D902052E000C660B770B83EC93E089
:101790000E94AF226CE071E083EC93E00E94301A6B
:1017A0001092CC030093CD0363E071E083EC93E0EF
:1017B0000E94301A80911803813009F096CF88E298
:1017C00093E00E94AA220E94F40F5FC9089580E06E
:1017D00090E00895DF92EF92FF920F931F93CF93C3
:1017E000DF930E94DF148823E1F362E070E080E081
:1017F00090E00E940F1A675F6093CC0362E070E094
:1018000080E090E00E940F1A6093CD0364EC71E0D9
:1018100083EC93E00E94B21A1092CA031092CC0398
:101820008091C8038093CD03C7E9D2E001EA12E0BA
:10183000DD24D3947E0188819981892B31F46DE276
:1018400083EC93E00E94291A05C0B80183EC93E071
:101850000E94541A8091C703982F990F890F819580
:101860008C5A8093CC038091C8038D9D802D1124C8
:101870008093CD032296F701808191810E94E1221D
:10188000D394055F1F4FF6E0DF12D4CF8091180389
:10189000813059F488E293E0DF91CF911F910F914D
:1018A000FF90EF90DF900C94AA2280911903813071
:1018B00089F380911A03813009F093CFEBCF2F92F7
:1018C0003F924F925F926F927F928F929F92AF92D0
:1018D000BF92CF92DF92EF92FF920F931F93CF931D
:1018E000DF9300D000D0CDB7DEB7782E282F30E0C0
:1018F00089010D501E4FF8014081220F331F3A839A
:1019000029832D523E4F5901F9016081718129814E
:101910003A812D543E4F3A832983242FE981FA815D
:10192000808191810E94101F81114EC06090DA0267
:1019300093EFC92E91E0D92E23EDE22E21E0F22E75
:10194000A3EBB1E090E0150149805A806916E1F1FE
:10195000791681F1F6016081F701408151812D9165
:101960003C9111973A832983F801208130E0F101FD
:101970000190F081E02DFC83EB83F201A080B18027
:1019800049018A0C9B1CE981FA81E815F90594F458
:1019900070E0E60FF71FAE16BF0664F4EB81FC8122
:1019A0002E0F3F1F421753072CF4460F571FE41703
:1019B000F5074CF09F5FFFEFCF1ADF0A22E0E20E3F
:1019C000F11C1296C3CF81E00F900F900F900F90F3
:1019D000DF91CF911F910F91FF90EF90DF90CF900B
:1019E000BF90AF909F908F907F906F905F904F903F
:1019F0003F902F9008959F92AF92BF92CF92DF9227
:101A0000EF92FF920F931F93CF93DF93982EC82FDF
:101A1000D0E0DE01AD50BE4F84E08C93FE01EB5868
:101A2000FD4F8AE0808380919502811112C08091E0
:101A30009602282F30E02330310514F0815001C088
:101A400081E0809396028093950286E08C9384E6F1
:101A500080838E01000F111FC8018D549E4F7C01A1
:101A60000D521E4F30E8A32EB12C40E6C42ED12CCF
:101A700060E270E080E090E00E940F1A660F771F2E
:101A8000660F771FF7017183608368E170E080E083
:101A900090E00E940F1A660F771F660F771FF801FC
:101AA00071836083892D0E945F0C8111E1CFF70162
:101AB0008081918180589F4F2091070230910802C8
:101AC000821B930BB5010E94172D8435910584F27A
:101AD000F80180819181805A9F4F209105023091B9
:101AE0000602821B930BB6010E94172DC0970CF4BF
:101AF000BFCF0E94012BC85ADE4F24E030E040E007
:101B000050E00E946E2B688381E0DF91CF911F919E
:101B10000F91FF90EF90DF90CF90BF90AF909F908C
:101B20000895CF93DF93EC01FB01DA018C918130B2
:101B300099F058F08230B9F0833001F588819981AD
:101B4000820F911D27FD9A9517C080819181821B7C
:101B5000910927FD93950DC088819981821B910978
:101B600027FD939509C080819181820F911D27FDEA
:101B70009A959183808302C0998388838881998113
:101B800080589F4F60E870E00E94172D99838883EA
:101B900080819181805A9F4F60E670E00E94172DEE
:101BA00091838083DF91CF910895CF93DF93FB01E1
:101BB000EA014091070250910802841B950B089698
:101BC00097FD03C08F77992706C060E870E00E94F8
:101BD000172D80589F4F089799838883809105021D
:101BE00090910602AF01481B590BCA01089660E6A6
:101BF00070E097FD03C00E94172D04C00E94172DAE
:101C0000805A9F4FAC0148505109F90151834083DC
:101C1000888199818535910524F481E0413351050E
:101C20000CF080E0DF91CF9108952F923F924F9278
:101C30005F926F927F928F929F92AF92BF92CF925C
:101C4000DF92EF92FF920F931F93CF93DF9300D019
:101C500000D01F92CDB7DEB7382EC82ED12C70E041
:101C6000CB0186569E4F2C01DC018C9190E0F60151
:101C7000EB58FD4FDC01A35DBE4F30812C91321B30
:101C80003D833083FC01E85DFE4F2080F601ED507E
:101C9000FE4F3F018081863011F426942694CB01BB
:101CA00080579E4F7C018601000F111FD801AD5255
:101CB000BE4F4D01F801ED54FE4F5F01222DA701EB
:101CC000BD01CF010E94910D832D0E945F0C8823DE
:101CD00039F0222D2195A701B401C5010E94910D73
:101CE000F601E85AFE4FD7018C9190E0029683707E
:101CF00099278083BD811B160CF49FC08091F4024C
:101D00009091F50201969093F5028093F4028091F0
:101D1000D8029091D90201969093D9028093D8026B
:101D200080919502815080939502F20180818330E9
:101D300039F040E06EEB71E088E293E00E944E1DC6
:101D4000D3018C91863049F48091F4029091F50290
:101D500004969093F5028093F402E5E8F2E080E0C7
:101D600090E02191211128C0F801ED52FE4F208111
:101D70003181F801ED54FE4F40815181FC01EB5758
:101D8000FD4F61E060837C01EE0CFF1CF701EB5A14
:101D9000FD4F51834083F701EB5CFD4F318320837E
:101DA00065E070E080E090E00E940F1AF701EB5EC2
:101DB000FD4F7183608304C001968031910589F6DF
:101DC000F801ED52FE4F60817181F801ED54FE4F34
:101DD0009E012F5F3F4FAE014D5F5F4F808191812C
:101DE0000E94D50D882361F0F30120812F5F498186
:101DF00041506B816150022F83EC93E00E94B31D30
:101E0000832D0E94FB0C2091DA022031B0F48091E6
:101E1000D8029091D90266E070E00E94172D6D5FA4
:101E20007F4F822F90E0681779073CF081E0820FA6
:101E30008093DA02822F0E94FB0C0F900F900F907C
:101E40000F900F90DF91CF911F910F91FF90EF9026
:101E5000DF90CF90BF90AF909F908F907F906F90CA
:101E60005F904F903F902F900895FF920F931F9394
:101E7000CF93DF9300D000D0CDB7DEB7F12C8091A7
:101E8000DA02F81698F50F2D10E0C801880F991F97
:101E9000FC01ED52FE4F60817181FC01ED54FE4F5B
:101EA0009E012F5F3F4FAE014D5F5F4F808191815B
:101EB0000E94D50D8823C1F0F801ED50FE4F9081AE
:101EC000F801E85AFE4F69818B81963031F06250FB
:101ED000208144EB51E0825005C0615020814AEAE4
:101EE00051E081500E94D621F394C9CF0F900F90FA
:101EF0000F900F90DF91CF911F910F91FF90089558
:101F0000CF93DF9300D000D0CDB7DEB76091B101A1
:101F10007091B2019E012D5F3F4FAE014F5F5F4F49
:101F20008091AF019091B0010E94D50D882341F0BE
:101F300020EA31E04B81698183EC93E00E9492209A
:101F40000F900F900F900F90DF91CF9108950F9306
:101F50001F93CF93DF9300D000D0CDB7DEB711E051
:101F600060E170E080E090E00E940F1A83E0660F6D
:101F7000771F8A95E1F77093B0016093AF016CE031
:101F800070E080E090E00E940F1A93E0660F771FE8
:101F90009A95E1F77093B2016093B10128E048E0AF
:101FA0008091AF019091B0010E94101F082F6091A5
:101FB000B1017091B2019E012F5F3F4FAE014D5FA5
:101FC0005F4F8091AF019091B0010E94D50D8111BA
:101FD000C7CF011729F20F900F900F900F90DF914C
:101FE000CF911F910F9108952F923F924F925F9240
:101FF0006F927F928F929F92AF92BF92CF92DF9219
:10200000EF92FF920F931F93CF93DF93CDB7DEB77D
:102010002D970FB6F894DEBF0FBECDBF20919F0263
:102020003091A0028091F4029091F50228173907AF
:102030000CF034C2E0E8F7E7859194918130904C40
:10204000D1F06DE872E083EC93E00E94831D109262
:10205000C9031092D702A0E37A2E84E58B87B2E001
:10206000FB2EE12C10E00AEF402E82E0882E912C0E
:1020700090E3292E67C0ADECB2E0EBE8F7E784917E
:102080008D933196E53997E7F907C9F7DACF809153
:1020900017038F3F09F05BC0809115038F3F09F054
:1020A0005BC0809116038F3F09F05BC080911403E1
:1020B0008F3F09F05BC0E0E1EE125DC0E12CF8E07B
:1020C000FF125EC0F12C9091C8038091C7038095E8
:1020D0008E9D802D1124895D2B85C22E220FDD0857
:1020E000C80ED11C87FDDA94D7FE03C08FEFC81A43
:1020F000D80AD594C794CC86CB86292F209584E125
:10210000891B2F9D800D1124A72C770CBB08A80ECE
:10211000B11C87FDBA94B7FE03C09FEFA91AB90A94
:10212000B594A794AD867A2C80911803813009F07C
:1021300044C01A30D4F52E2DE0E1FE9E200D11246E
:10214000211123C00E94DF148823E1F3A0CF837004
:10215000813009F0A1CF1CC28370813009F0A1CF7A
:102160001BC28370813009F0A1CF1AC28370813005
:1021700009F0A1CF19C2E7FEA2CFFFE0EF2E9FCF5B
:10218000F7FEA1CFE7E0FE2E9ECF2A30D9F22D3008
:10219000C9F2812F012E000C990BFC01E353FD4F76
:1021A0002083FC01E253FD4F10821F5F88E293E021
:1021B0000E94AA221C3008F01BE080911903813094
:1021C00079F4115088E293E00E9499191F3F09F4B5
:1021D000EFC1E12F012E000CFF0BE353FD4F1082E6
:1021E00080911A03813051F4E5C180911903813047
:1021F00009F0E4C188E293E00E949919312C512C36
:10220000612C262D230D8091C803452D589E400D2D
:102210001124FD854F0F8091C703662D689E600DC8
:1022200011248C85680F01E083EC93E00E94DC1D93
:10223000639490E16912E5CF5394390EE8E05E12A1
:10224000DFCF8091C703FC2D849DF00D11248F2FCB
:1022500082508093CC038091C8038F5F8A0D809356
:10226000CD036CED71E083EC93E00E94301A809115
:10227000C7032C2D849D200D1124822F8250809322
:10228000CC038091C803880F8E5F8A0D8093CD03A5
:1022900066ED71E083EC93E00E94301A8091C703F1
:1022A0009C2D849D900D1124892F82508093CC0306
:1022B0008091C80390E00196982F990F890F8A0D9D
:1022C0008093CD0360ED71E083EC93E00E94301ABF
:1022D0001092E3031092E4038091C8034F2DF89EFF
:1022E000400D112442504A0D8091C7036E2DE89E87
:1022F000600D112461506C0D27E083EC93E00E9487
:10230000971DDD24D394D092E303D092E40300918F
:10231000C8033091C703E32FF0E025E0200FCF0181
:102320000197B4010E94172D3E5F432F480F6F2D78
:10233000F09E600D112463506A0D8E2DEE9E800D6F
:10234000112482508C0D0E9451238091C8034EE2CB
:10235000481B24E560E083EC93E00E94971D1092F7
:10236000E3031092E4038091C80301E0080F4FE2F9
:10237000481B24E560E083EC93E00E94B31D1092BB
:10238000CC038091C803E22DE81BE093CD03D092EB
:10239000E303D092E4036DEC72E083EC93E00E94DF
:1023A000541A8091E6039091E703A091E803B0915D
:1023B000E90387709927AA27BB270497A105B105D0
:1023C00008F0C0CE1A300CF0BDCE8091C803422D6B
:1023D000481B6091C703169F602D112401E02FE573
:1023E00083EC93E00E94DC1DADCE6801FBE0CF1AC8
:1023F000D108B601CE0101960E944A2DB801C6014E
:102400000E944A2DBE016F5F7F4FC8010E944A2D76
:10241000F70191828082B382A28286016C147D04CE
:1024200049F0F701B290A2907F0182809380A814B6
:10243000B904DCF257E9C52E52E0D52E0AE010E0CF
:10244000E12CF12C5801FAE0AF1AB108F301EE0DBE
:10245000FF1D6081C5018E0D9F1D0E94602B2FEF17
:10246000E21AF20A8AE0E816F10481F7F6016081C7
:10247000C8010E94602BF6016181F2E0CF0ED11CF1
:10248000C80101960E94602B045F1F4F2BE0620E73
:10249000711C06341105A1F60E94EA0B1092F50298
:1024A0001092F4021092D9021092D8021092F902FE
:1024B0008FE097E29093F7028093F6021092F80271
:1024C0001092030286E08093040280E180939602DA
:1024D0008093950284E08093DA024FE0E42E47E295
:1024E000F42E60E170E080E090E00E940F1A23E09B
:1024F000660F771F2A95E1F770930C0260930B0229
:102500006CE070E080E090E00E940F1A33E0660F0C
:10251000771F3A95E1F770930A026093090226E06B
:1025200046E080910B0290910C020E94101F8111D5
:10253000D8CF80910B0290910C028797909308025C
:10254000809307028091090290910A024597909327
:102550000602809305029091DA02A3EBB1E0E3ED6D
:10256000F1E080E0981302C010E00DC0ED92FD9202
:10257000E192F1928F5FF6CF812F0E94FB0C8823AE
:1025800009F4AFCF1F5F8091DA021817A8F348C093
:10259000F3940E94911480CDFA940E94911481CDFD
:1025A000E3940E94911482CDEA940E94911483CD09
:1025B00010E016CE88E293E00E94AA220E94DF1467
:1025C0008823E1F363EF71E083EC93E00E94B21A99
:1025D0006DEC72E083EC93E00E94541A62EE71E0BD
:1025E00083EC93E00E94B21A80911803813009F0C5
:1025F000FCCD88E293E00E94AA228091F40290919F
:10260000F5029093A00280939F028FE9E82E82E06A
:10261000F82E0DEC12E091EA692E92E0792E01CFAE
:102620000E94A70FE4EAF1E08EEA91E011928E1782
:102630009F07E1F7E5E8F2E085E992E011928E1755
:102640009F07E1F71092AE012D960FB6F894DEBF0A
:102650000FBECDBFDF91CF911F910F91FF90EF90F3
:10266000DF90CF90BF90AF909F908F907F906F90B2
:102670005F904F903F902F900895AF92BF92CF926E
:10268000DF92EF92FF920F931F93CF93DF9300D0CF
:1026900000D0CDB7DEB705E812E085E1A82E82E0D4
:1026A000B82E95E3C92E92E0D92E25E5E22E22E040
:1026B000F22EF80181918F018823F1F0F6016081FB
:1026C00071819E012F5F3F4FAE014D5F5F4FF7015C
:1026D000808191810E94D50D882359F069816250D3
:1026E0008B81F501208146E951E082500E94D6217C
:1026F00003C0F80131971082F2E0AF0EB11C82E006
:10270000C80ED11CE2E0EE0EF11CF2E005391F0705
:1027100081F60F900F900F900F90DF91CF911F9146
:102720000F91FF90EF90DF90CF90BF90AF90089502
:10273000FC01643508F053C0403308F050C090A14C
:10274000742F759575957595262F062E000C330BF5
:10275000542F57709230A1F4F90184E57802E00D0E
:10276000F11D1124E450FC4F808190E0052E02C041
:10277000959587950A94E2F78095982F91700AC0F5
:10278000933041F4848581704627409541708413CD
:1027900003C014C0911112C084E57802200D311DD0
:1027A0001124F901E450FC4F81E090E001C0880F52
:1027B0005A95EAF780959081892310C084E57802C4
:1027C000200D311D1124F901E450FC4F81E090E00F
:1027D00001C0880F5A95EAF79081892B808308956C
:1027E0008F929F92AF92BF92CF92DF92EF92FF9221
:1027F0000F93CF93DF9300D000D0CDB7DEB784EA3C
:10280000E82E81E0F82E9CE7892E91E0992E28E6AB
:10281000A22E21E0B22E3AE9C32E31E0D32ED70109
:102820008D917D01882331F1F401608171819E01D8
:102830002F5F3F4FAE014D5F5F4FD5018D919C9152
:102840000E94D50D8823B1F0D601EC91F0E0E75E4F
:10285000FE4F2081213039F449816B8183EC93E074
:102860000E94981307C0022F49816B8183EC93E08B
:102870000E94B31DB2E08B0E911CE2E0AE0EB11CC3
:10288000FFEFCF1ADF0A8EEAE81681E0F80639F684
:102890000F900F900F900F90DF91CF910F91FF90BD
:1028A000EF90DF90CF90BF90AF909F908F90089562
:1028B00088EF91E0ECEFF3E0DF019C011D922150E5
:1028C0003040E1F71092CC031092CD036BE477E037
:1028D00083EC93E00E94301A0E9416238CB583602B
:1028E0008CBD8DB58E7F8DBD81E591E0EEEFFFE370
:1028F00009951092C90366E277E083EC93E00E94A9
:10290000B21A0E9416230E947F24809118038130FE
:1029100039F062E370E080E090E00E94DE1BF3CFCC
:10292000089540E060E277E088E293E00C944E1D69
:10293000CF93C09127038C2F8F71E1F583E48093AF
:102940007C0080917A00806480937A0080917A0084
:1029500086FDFCCF609178008091790070E0782B43
:10296000072E000C880B990B0E94022C26EE3FE3E9
:102970004EEC50E40E94662C0E94D12B9B01709378
:102980001E0360931D03672B91F084E080931C036A
:10299000EFE1F3E080E0419151912417350718F4FD
:1029A00080931C030AC08F5F8430A9F703C08FEFA8
:1029B00080931C03CF5FC0932703CF9108952F927C
:1029C0003F924F925F926F927F928F929F92AF92BF
:1029D000BF92CF92DF92EF92FF920F931F93CF930C
:1029E000DF93CDB7DEB72E970FB6F894DEBF0FBEDC
:1029F000CDBF4091F5035091F6036091F7037091BC
:102A0000F8032FB7F8948091F0029091F102A09111
:102A1000F202B091F3022FBF481B590B6A0B7B0BDC
:102A20008091F40390E0A0E0B0E00091F0031091F9
:102A3000F1032091F2033091F30384179507A60761
:102A4000B70730F4011511052105310509F0ECC374
:102A5000012B022B032B09F0E5C380911A0381504F
:102A60008E3F08F5809119038130E9F48091390394
:102A70008F5F60913A0387FD09C0082E000C990B07
:102A800070E06F5F7F4F0E94172D682F60933903AE
:102A900089E197E09093FA038093F90388E48093A7
:102AA000FB030E94911480911A0381508E3F70F4B1
:102AB00080911803813009F01DC48CE097E0909359
:102AC000FA038093F90388E48093FB0380E00E947B
:102AD000FB2381E00E94FB2382E00E94FB2383E032
:102AE0000E94FB2323E033E038872F83BCEECB2EFC
:102AF000B2E0DB2E07E613E083E5E82E83E0F82E54
:102B000059013E872D87912C88248394AD85BE85FD
:102B100099968C919997882309F4EDC02D01B0E71F
:102B20004B0E511CF20180818111E5C0D7018D91BE
:102B30009C91D801ED91FC91EE0FFF1FE80FF91F5A
:102B4000259134912115310521F5ED85FE85E05A59
:102B5000FF4F2081222329F0F80111821082FC010D
:102B600016C0AD85BE8599961C92999795968C91C5
:102B70008823C1F1892D0E94FB23D801ED91FC919E
:102B8000EE0FFF1FD7018D919C91E80FF91F259142
:102B90003491ED85FE85E058FF4FFE83ED838D85F2
:102BA0009E858C579F4F9A838983AD85BE85A85794
:102BB000BF4FBC83AB83ED85FE85E457FF4FFA879B
:102BC000E9878D859E8580579F4F9C878B876D8475
:102BD0007E8494E9690E711C2D843E84A4E72A0E3C
:102BE000311C2DC0692D88E293E00E94251D83C011
:102BF000C90156E0969587955A95E1F78F71932F05
:102C000096959695969590514F704230A1F128F582
:102C100041111DC08B3008F08AE0F1018083D8019A
:102C2000ED91FC9111973196ED93FC93EE0FFF1F00
:102C3000D7018D919C91E80FF91F25913491A9013D
:102C4000569547955695479520FDD2CF2BC04130DC
:102C500031F7692D0E944424E2CF4330B9F044306B
:102C6000F1F620913803289F802D1124AB85BC8577
:102C70008C93F30115C020913803289F802D1124D7
:102C8000AD81BE818C93E981FA810AC0209138031D
:102C9000289F802D1124AB81BC818C93E985FA8516
:102CA0009083BDCFED85FE85E459FF4F4F73408380
:102CB00080913803839F802D1124F2018083ED855C
:102CC000FE85E055FF4F1082F501E855FF4F118258
:102CD0001082ED85FE85E858FF4F8082D6018C92E8
:102CE000ED85FE85E458FF4F1082F80180819181C7
:102CF00001969183808393942D853E852F5F3F4F6E
:102D00003E872D8732E0A30EB11C8FEFC81AD80A78
:102D10000E5F1F4F92E0E90EF11CA4E09A12F6CE6E
:102D2000A4EEAA2EA2E0BA2EB0EECB2EB2E0DB2E9D
:102D30001CED412E12E0512E03EB13E08BEAE82E3E
:102D400083E0F82E98EE292E92E0392EE3E0F3E0AE
:102D5000FA83E983712CE981FA81E858FF4F808179
:102D6000882309F42EC1E981FA81E059FF4F80815F
:102D7000811106C0672D88E293E00E94251D21C1C4
:102D800081508083D8018C91E981FA81EC54FF4F06
:102D9000FE83ED8329813A8128543F4F49018111F7
:102DA0004FC0D7012D913C912F5F3F4FC901880F34
:102DB000991FEF81F885E856FF4F0190F081E02DD3
:102DC000E80FF91F45915491842F8770ED81FE81A2
:102DD0008083BA01E3E076956795EA95E1F7CB0148
:102DE00096958795952F96959695D4019C938F737C
:102DF00090913803899F802D1124F80180836170A0
:102E0000D1016C93F70131832083E981FA81E05687
:102E1000FF4F808190E02817390790F0E981FA810F
:102E2000EC55FF4F2081222331F0821B9109D701FD
:102E30008D939C9305C0672D88E293E00E94251D29
:102E4000F801808181508083E981FA81E458FF4F45
:102E500020812F5F2083E981FA81E459FF4F40816F
:102E6000D4013C91340FE981FA81E45BFF4F80810A
:102E7000380FE981FA8135A7E857FF4F6081662353
:102E800099F070E0822F022E000C990B0E94172DF2
:102E9000E981FA81E457FF4F8081869F300D11242C
:102EA000A981BA819D963C93E981FA8185A590E03C
:102EB000CB966BE370E00E94172D85A7EC58FF4F6F
:102EC0003081A981BA81D1963C93D197FD01E05818
:102ED000FF4F60816623A1F0062E000C770B822F36
:102EE000022E000C990B0E94172DE981FA81EC57F4
:102EF000FF4F8081869F300D1124E981FA8131AB2B
:102F0000E981FA81E057FF4F60816623D1F0822F7B
:102F1000220F990B70E00E94172DCB0162E070E048
:102F20000E94172DE981FA81EC56FF4F2081A9817B
:102F3000BA81D1969C91D197289F900D1124D1965A
:102F40009C93E981FA814F3359F081A98A300CF0C2
:102F500089E087FD80E0A981BA81D1968C9301C078
:102F600011AAF894A981BA819D96EC91F0E0EF52F4
:102F7000F94FE491D501EC93E981FA8121A9E45458
:102F8000FF4F3081AD81BE814C912303900111240C
:102F90004203C001439F900D11240090390302C0E9
:102FA000880F991F0A94E2F797FF02C081589F4F3C
:102FB000880F892F881F990BF6018083D2018C938B
:102FC00078947394E981FA813196FA83E983FFEF6B
:102FD000AF1ABF0A2FEFC21AD20A3FEF431A530AA1
:102FE0000F5F1F4F82E0E80EF11CAF81B88512968B
:102FF000B887AF83BFEF2B1A3B0AE4E07E12ABCE5B
:103000008091FB03882309F454C08C3020F4FCE049
:10301000F81BF98301C01982FF24F394F092CB03CB
:103020001092E3031092E4032091C8032B831981CB
:10303000121B022F0D5F4DE2410F2EE463E083EC83
:1030400093E00E94B31D3B8134503B83105D232FDE
:1030500041E0612F80E50E949F232B8142E0612F98
:1030600083E00E949F23F092E303F092E4038091B7
:10307000C80323E0280F6981681B635D44E580E095
:103080000E94512384E08093CC038091C8039981EE
:10309000981B915D9093CD036091F9037091FA03B1
:1030A00083EC93E00E94301A8091FB03815080935F
:1030B000FB0380911F0390912003892B09F48AC0A0
:1030C00081E08093E3031092E4039091C70385E5C8
:1030D000891B8093CC031092CD0360911C03613057
:1030E00009F459C030F080911B03653008F06BC0C3
:1030F00066C00CE213E01982698188E293E00E94C5
:10310000251DD8011D928D01B981BF5FB983B430EF
:1031100099F781E08093CB036FE475E083EC93E053
:103120000E94831D1092200310921F031092C90366
:10313000E8EAE9830E94DF148823E1F361E475E0A3
:1031400083EC93E00E94301A40911D0350911E03BE
:1031500060E070E02AE083EC93E00E94691A6CE280
:1031600075E083EC93E00E94301A498142954F70DC
:1031700050E060E070E083EC93E00E94AF2261E2F7
:1031800075E083EC93E00E94301A8091180381303F
:1031900009F094C01FC08091E6039091E703A091CD
:1031A000E803B091E9038F709927AA27BB270897F6
:1031B000A105B10510F467E009C068E707C08823DE
:1031C00049F06B5F03C0882329F06FE283EC93E042
:1031D0000E94291A0E9416238091C90381110EC0F2
:1031E00088EF91E0ECEFF3E0DF019C011D922150AC
:1031F0003040E1F71092CC031092CD030E94B91B2E
:103200006093F0037093F1038093F2039093F303C0
:103210002091EC033091ED03621B730B7093EB0371
:103220006093EA0380E06CC02FB7F8948091F002BD
:103230009091F102A091F202B091F3022FBF209180
:10324000F403820F911DA11DB11D8093F50390938E
:10325000F603A093F703B093F8038091E6039091EF
:10326000E703A091E803B091E9030196A11DB11D08
:103270008093E6039093E703A093E803B093E903F8
:103280001092F0031092F1031092F2031092F303E4
:103290000E94B91B6093EC037093ED038093EE03DF
:1032A0009093EF030E947F2480911F03909120034D
:1032B000892B11F00E94981481E022C0398131508D
:1032C0003983311137CF60E070E08FEF0E945A1BD5
:1032D00083B7817F846083BF83B7816083BF83B7F7
:1032E000816083BF889583B78E7F83BF83B78E7FCE
:1032F00083BF20CF893209F0E9CB0E945814E6CB76
:103300002E960FB6F894DEBF0FBECDBFDF91CF91E2
:103310001F910F91FF90EF90DF90CF90BF90AF90F3
:103320009F908F907F906F905F904F903F902F90E5
:10333000089540E069E175E00C944E1DCF92DF9254
:10334000EF92FF920F931F93CF93DF936C017A015B
:103350008B01C0E0D0E0CE15DF0581F0D8016D9182
:103360008D01D601ED91FC910190F081E02DC60117
:103370000995892B11F02196EECF7E01C701DF91CF
:10338000CF911F910F91FF90EF90DF90CF90089514
:103390008091EC02882319F08091DC0201C080E06A
:1033A0009091ED02992319F09091DD02890F90918F
:1033B000EE02992319F09091DE02890F9091EF02AD
:1033C000992319F09091DF02890F8093B40008953A
:1033D000282F862F6CE00E940B2DE22FEF70F0E07B
:1033E00083E0F595E7958A95E1F7E90FF11DE90F7F
:1033F000F11DE657F84F94912770E0E8F0E002C025
:10340000F595E7952A95E2F7892F90E0E823F923CF
:1034100081E0EF2B09F480E008950E94452DCF92C2
:10342000DF92EF92FF92611571058105910549F0D8
:103430006B017C010E94012BA70196010E946E2B5B
:1034400003C060E070E0CB01FF90EF90DF90CF9081
:103450000895DC01ED91FC910190F081E02D09943B
:10346000EF92FF920F931F93CF93DF938C017B0119
:10347000C0E0D0E0F701EC0FFD1F6491662361F01E
:10348000D801ED91FC910190F081E02DC8010995E2
:10349000892B11F02196EECFCE01DF91CF911F91B4
:1034A0000F91FF90EF9008956115710579F0FB0180
:1034B00001900020E9F73197AF01461B570BDC0163
:1034C000ED91FC910280F381E02D099480E090E081
:1034D00008958F929F92AF92BF92EF92FF920F93B7
:1034E0001F93CF93DF93CDB7DEB7A1970FB6F894B4
:1034F000DEBF0FBECDBF7C01FA01CB0119A2223085
:1035000008F42AE08E010F5D1F4F822E912CA12C12
:10351000B12CBF01A50194010E94A02BF901CA01A1
:10352000015011096A3014F4605D01C0695CD80172
:103530006C93232B242B252B61F7B801C7010E9424
:10354000541AA1960FB6F894DEBF0FBECDBFDF911F
:10355000CF911F910F91FF90EF90BF90AF909F90F0
:103560008F9008950F931F93CF93DF93EC010E94E8
:10357000301A8C016EE371E0CE010E94541A800F64
:10358000911FDF91CF911F910F910895833081F0AA
:1035900028F4813099F08230A1F008958730A9F0A5
:1035A0008830B9F08430D1F4809180008F7D03C0E1
:1035B000809180008F7780938000089584B58F7705
:1035C00002C084B58F7D84BD08958091B0008F774F
:1035D00003C08091B0008F7D8093B00008951F9349
:1035E000CF93DF93282F30E0F901E451F84F849115
:1035F000F901E852F84FD491F901EC53F84FC49116
:10360000CC23C1F0162F81110E94C61AEC2FF0E0D6
:10361000EE0FFF1FEB5BFD4FA591B4919FB7F894A0
:10362000111104C08C91D095D82302C0EC91DE2BEF
:10363000DC939FBFDF91CF911F910895CF93DF93CC
:1036400090E0FC01E852F84F2491FC01EC53F84F54
:103650008491882361F190E0880F991FFC01E55C5B
:10366000FD4FC591D491FC01EB5BFD4FA591B49149
:10367000611109C09FB7F8948881209582238883BF
:10368000EC912E230BC0623061F49FB7F8948881CF
:10369000322F309583238883EC912E2B2C939FBF60
:1036A00006C08FB7F894E8812E2B28838FBFDF9157
:1036B000CF9108951F93CF93DF93182FEB0161E013
:1036C0000E941E1B209711F460E004C0CF3FD1057B
:1036D00039F461E0812FDF91CF911F910C94EF1AA3
:1036E000E12FF0E0E451F84FE491E330F9F048F4D1
:1036F000E130B9F0E230A1F584B5806284BDC8BD87
:1037000034C0E730E9F0E83019F1E43049F5809150
:103710008000806280938000D0938B00C0938A00E9
:1037200024C084B5806884BDC7BD1FC0809180005F
:10373000806880938000D0938900C093880015C072
:103740008091B00080688093B000C093B3000DC03A
:103750008091B00080628093B000C093B40005C037
:10376000C038D1050CF0B5CFAFCFDF91CF911F910D
:1037700008953FB7F8948091FF0290910003A091C3
:103780000103B091020326B5A89B05C02F3F19F095
:103790000196A11DB11D3FBFBA2FA92F982F8827D1
:1037A000820F911DA11DB11DBC01CD0142E0660F2C
:1037B000771F881F991F4A95D1F708958F929F927E
:1037C000AF92BF92CF92DF92EF92FF926B017C019A
:1037D0000E94B91B4B015C01C114D104E104F10446
:1037E000F1F00E94B91BDC01CB0188199909AA09E3
:1037F000BB09883E9340A105B10570F321E0C21AD0
:10380000D108E108F10888EE880E83E0981EA11C1B
:10381000B11CC114D104E104F10419F7DDCFFF900C
:10382000EF90DF90CF90BF90AF909F908F900895D2
:103830001F920F920FB60F9211242F933F938F93E5
:103840009F93AF93BF938091F0029091F102A0916A
:10385000F202B091F3023091FE0223E0230F2D37E4
:1038600020F40196A11DB11D05C026E8230F029684
:10387000A11DB11D2093FE028093F0029093F102EE
:10388000A093F202B093F3028091FF0290910003A3
:10389000A0910103B09102030196A11DB11D809377
:1038A000FF0290930003A0930103B0930203BF9122
:1038B000AF919F918F913F912F910F900FBE0F90DD
:1038C0001F9018951F920F920FB60F9211242F93ED
:1038D0003F934F935F936F937F938F939F93AF9398
:1038E000BF93EF93FF936091E002611102C080E00B
:1038F00023C08091FA028F5F8093FA029091E402D4
:103900008917A8F39091EC0281E089278093EC025B
:103910001092FA028091E802882369F080910001F8
:1039200093E4899F802D1124895B809300010E947C
:103930000B2D9093DC0281E06091E102662319F186
:103940009091FB029F5F9093FB022091E5029217FA
:10395000D0F09091ED0281E089278093ED021092E2
:10396000FB028091E902882369F08091000193E4D1
:10397000899F802D1124895B809300010E940B2D6B
:103980009093DD0281E06091E202662319F190914B
:10399000FC029F5F9093FC022091E6029217D0F008
:1039A0009091EE0281E089278093EE021092FC0252
:1039B0008091EA02882369F08091000193E4899F55
:1039C000802D1124895B809300010E940B2D909320
:1039D000DE0281E06091E302662319F19091FD021D
:1039E0009F5F9093FD022091E7029217D0F0909193
:1039F000EF0281E089278093EF021092FD0280910F
:103A0000EB02882379F08091000193E4899F802D57
:103A10001124895B809300010E940B2D9093DF029B
:103A200001C081110E94C819FF91EF91BF91AF9120
:103A30009F918F917F916F915F914F913F912F91C6
:103A40000F900FBE0F901F901895643030F570E006
:103A50009C01260F371FF901ED5AFF4F108238974E
:103A60001082AB01440F551FFC01E40FF51FED5709
:103A7000FF4F11821082F901E95AFF4F1082FB01BA
:103A8000E452FD4F1082FB01E052FD4F1082FB011A
:103A9000E451FD4F10820C94C8190895EF92FF92E3
:103AA0000F931F93CF93DF938C017B01C42FD0E042
:103AB000443038F4642F0E94251DF801EC0FFD1FDF
:103AC0001482FE01EE0FFF1FE00FF11FF4A6E3A624
:103AD000FF9611821082F801EC0FFD1F81E08483B4
:103AE000DF01A15BBF4F89E08C931C961C92189656
:103AF0001C92E559FF4F1082DF91CF911F910F91DA
:103B0000FF90EF900895DC01FB0184918F5F149684
:103B10008C9314973196E491EF5F1596EC9315977B
:103B20006E5F7F4F5F967C936E935E970895EF92E2
:103B3000FF920F931F93CF93DF938C01F62ED42F18
:103B4000E22EC0E0CE1544F46F2D6C0F4D2FC8014E
:103B50000E949813CF5FF6CFDF91CF911F910F9105
:103B6000FF90EF900895DF92EF92FF920F931F93D3
:103B7000CF93DF937C01D62FD22EC42F002E000CC2
:103B8000110B040F111D47FD1A958C2F0C2E000CE4
:103B9000990B8017910744F42D2D4C2F6D2FC701E1
:103BA0000E94971DCF5FF1CFDF91CF911F910F91B1
:103BB000FF90EF90DF9008956F927F928F929F9287
:103BC000AF92BF92CF92DF92EF92FF920F931F932B
:103BD000CF93DF93EC0164350CF084C040330CF0DC
:103BE00081C0EC81F0E031970E9FC0010F9F900DD6
:103BF0001124860F911D67FD9A95181619060CF071
:103C000071C03D81842F042E000C990B039F800D01
:103C1000911D1124181619060CF064C0D02EB42E74
:103C2000C62E88A0962EA62EE22EF12CEA2DEC1997
:103C30000E2E000CFF0B8C8190E0E817F9070CF0BA
:103C400050C00197E817F90779F0E89E9001E99EC6
:103C5000300DF89E300D1124E20FF31F8E8D9F8DD5
:103C6000E80FF91F149101C010E06B2C7B2C272D5D
:103C70002B19022E000C330B8D8190E02817390789
:103C80006CF510FF11C081E0D81206C0472D6A2DD7
:103C9000CE010E9498131EC00D2D2D2D462D692D8D
:103CA000CE010E94B31D16C089A198A1891791F079
:103CB00088A381E0D81206C0472D6A2DCE010E944C
:103CC000981307C00D2D2D2D462D692DCE010E9474
:103CD000B31D88A2169573946D0CC9CFA3949D0C47
:103CE000A5CF88A2DF91CF911F910F91FF90EF9008
:103CF000DF90CF90BF90AF909F908F907F906F900C
:103D000008950F93CF93DF93EC016A3011F4288567
:103D10001EC06D3019F1262F08854A8569850E94DD
:103D2000DC1D28853C818985239F800D112489878E
:103D30009F81992399F0082E000C990B44E550E0DF
:103D4000239F401951091124481759073CF49D81BC
:103D50008A85299F800D11248A87198681E090E049
:103D6000DF91CF910F9108950F931092CC03909112
:103D7000C80380E3891B8093CD03E091F902F0E052
:103D8000EE0FFF1FE055F84F6591749183EC93E0BF
:103D90000E94301A2091F802233038F002E04EE2FF
:103DA0006EEF83EC93E00E94B31D9091F902209195
:103DB000C8038091C703992309F14091F6025091FD
:103DC000F7024436510530F4982F4A30510518F463
:103DD000990F01C090E0382F330F830F981B9C5A26
:103DE0009093CC0380E3821B8093CD0360E070E06E
:103DF0002AE083EC93E00F910C94691A982F990FA5
:103E0000890F81958C5A8093CC0380E3821B809329
:103E1000CD036CEA77E083EC93E00F910C94301AB9
:103E2000AF92BF92CF92DF92EF92FF920F931F93C8
:103E3000CF93DF938C01EB01A42EB22E6B0177FFA1
:103E400003C087E0C80ED11C33E0D594C7943A95DF
:103E5000E1F7780117FF03C087E0E80EF11C23E0CB
:103E6000F594E7942A95E1F76C2D8E2D0E94E819C0
:103E7000811135C00A0D111DC801019797FD0796E4
:103E80008C0193E0159507959A95E1F76C2D802F9D
:103E90000E94E819811123C0CB0DD11DBE016150D4
:103EA000710977FF02C0695F7F4FEB0183E0D59511
:103EB000C7958A95E1F76C2F802F0E94E819811130
:103EC0000EC06C2F8E2DDF91CF911F910F91FF901F
:103ED000EF90DF90CF90BF90AF900C94E81981E005
:103EE000DF91CF911F910F91FF90EF90DF90CF90D6
:103EF000BF90AF9008959F92AF92BF92CF92DF9202
:103F0000EF92FF920F931F93CF93DF939B01805803
:103F10009F4F60E870E00E94172D482FE92FC901DC
:103F2000805A9F4F60E670E00E94172DA82E9C01DA
:103F300097FF02C0295F3F4F63E0359527956A954B
:103F4000E1F7F22E842F9E2F97FD079653E095956B
:103F500087955A95E1F7982ED82EDD0CDD0CDD0CF7
:103F6000D41A89010A5F1F4FEC012A968F2D0F2C5E
:103F7000000C990B081719071CF1BF2CBB0CBB0CCC
:103F8000BB0CBA18E92CC12C8E2D0E2C000C990BF1
:103F9000C817D9079CF06F2D8E2D0E94E819882331
:103FA00049F022EA37E04B2D6C2D6D0D83EC93E048
:103FB0000E949220E39488E0C80EE6CFF394D6CF17
:103FC000DF91CF911F910F91FF90EF90DF90CF90F5
:103FD000BF90AF909F9008951092CC031092CD03A4
:103FE00064E283EC93E00E94291A8091F40290919C
:103FF000F5020C94E122AF92BF92CF92DF92EF9242
:10400000FF920F931F93CF93DF93182F062FC1E0DA
:10401000D3E08AEFD82E9EEFE92E842F8470C82E2D
:10402000842F8270B82E842F8870A82E4170F42EB1
:104030008C2F880F8F5FE80ECC2081F0402F4D0F22
:10404000612F6C0F83EC93E00E949813402F4C0F6C
:104050006D2F610F83EC93E00E949813BB2081F0D9
:10406000402F4D1B612F6C0F83EC93E00E9498133F
:10407000402F4C1B6D2F610F83EC93E00E9498132F
:10408000AA2081F0402F4C0F612F6D1B83EC93E031
:104090000E949813402F4D0F612F6C1B83EC93E00F
:1040A0000E949813F1100AC0CD17CCF4E7FC04C0AD
:1040B000D150D394D394ED0CCF5FBACF402F4C1B8B
:1040C000612F6D1B83EC93E00E949813402F4D1BD2
:1040D000612F6C1B83EC93E00E949813E5CFDF9176
:1040E000CF911F910F91FF90EF90DF90CF90BF90F5
:1040F000AF9008950F931F93CF93DF93D82F162F70
:10410000042FC0E0C0174CF4412F4C0F6D2F83ECEF
:1041100093E00E949813CF5FF5CFDF91CF911F916D
:104120000F9108952F923F925F926F927F928F929C
:104130009F92AF92BF92CF92DF92EF92FF920F9336
:104140001F93CF93DF93EC01F901E49031968491B2
:1041500064350CF019C10E2C000CFF08062F062E3A
:10416000000C110BF701E00FF11F1E161F060CF0DB
:104170000BC140330CF008C1A82FC42E042E000C34
:10418000DD085601A80EB11C87FDBA941A141B0451
:104190000CF0FAC02E5F3F4F570197E0A90EB11CFB
:1041A000B7FE04C05701BEE0AB0EB11CB3E0B5943E
:1041B000A794BA95E1F747FF0AC0A42FA80FAC9CBB
:1041C000C001AD9C900D1124281B390B40E08A2FB3
:1041D0000A2E000C990B840F911D47FD9A95C197EB
:1041E00014F0A0E3A41BF8A067FD60E0E535F1053D
:1041F00014F0E4E5F0E09E2FCC85C427C62E062EF1
:10420000000CDD08F601E01BF10B8F014F01F7E018
:104210008F229924E0E8F0E002C0F595E7958A94B2
:10422000E2F77E2F17FF02C0095F1F4FF3E01595DD
:104230000795FA95E1F7200F311F542F577081E051
:1042400001C0880F5A95EAF7459545954595F601C1
:10425000B4E54B02E00DF11D1124AF0144505C4F59
:10426000D0E02A2EAA0F3308EE24E394BB24ED2FCE
:10427000F0E0E215F3050CF087C0F9015490F1E08D
:10428000FF121AC0962E8A01E72F6901991608F0CD
:1042900072C08E2E852021F0D8018C90882A8C92B5
:1042A000E69531F4BFEFCB1ADB0AF6015490E0E853
:1042B00093940F5F1F4FEACFF1101CC0782E7094BB
:1042C000962E8A01E72F6901991608F054C08E2EA8
:1042D000852021F0D8018C9087208C92E69531F4CE
:1042E000BFEFCB1ADB0AF6015490E0E893940F5F1E
:1042F0001F4FEACFF3E0FF1629F0962E8A01E72F31
:10430000690137C0682E6094862E8A01972E690154
:104310008916D8F4E92DE52159F0D801EC91782CD3
:104320007C2670FE02C0E82B02C0E621D801EC9387
:10433000969439F4BFEFCB1ADB0AF6015490E0E80B
:104340009E2E83940F5F1F4FE3CFCE2514C08E2E79
:10435000852021F0D8018C9088268C92E69531F446
:10436000BFEFCB1ADB0AF6015490E0E893940F5F9D
:104370001F4F991660F3880F19F44C5A5F4F81E074
:10438000DF5F2A0D3B1D73CFDF91CF911F910F91FE
:10439000FF90EF90DF90CF90BF90AF909F908F9065
:1043A0007F906F905F903F902F9008952F923F9253
:1043B0004F925F926F927F928F929F92AF92BF9235
:1043C000CF92DF92EF92FF920F931F93CF93DF93E1
:1043D000CDB7DEB727970FB6F894DEBF0FBECDBFBF
:1043E00021111FC09A01462F682F83EC93E0279676
:1043F0000FB6F894DEBF0FBECDBFDF91CF911F91F6
:104400000F91FF90EF90DF90CF90BF90AF909F9073
:104410008F907F906F905F904F903F902F900C9473
:1044200092208A016C838B83FA0164903196849187
:104430008A83E62CF12C170197E0290E311C93E0BA
:10444000359427949A95E1F7237029836A94712C07
:1044500020E8C22ED12CA82EB12C872D072C000CC1
:10446000990B8E159F050CF05CC07D8277FE03C012
:10447000E7E0E70DED83FD81F595F595F595FD8375
:10448000872D877887FF03C08150886F8F5F460133
:1044900002C0959487948A95E2F74A804A94512CF9
:1044A0008D81082E000C990B02969F838E83852D9B
:1044B000052C000C990B8A159B0584F5289EF001AC
:1044C000299EF00D389EF00D11248E819F81E80FFA
:1044D000F91FE00FF11FE491F0E0E821F921EF2B43
:1044E000D1F09981923039F0933041F0913049F414
:1044F000462D652D08C0662D442D05C0642D472D21
:1045000002C0452D672DEB816E0FFC814F0F83ECB0
:1045100093E00E94981353944A94C9CF73946A9479
:104520009CCF27960FB6F894DEBF0FBECDBFDF91AC
:10453000CF911F910F91FF90EF90DF90CF90BF90A0
:10454000AF909F908F907F906F905F904F903F9033
:104550002F90089540E060E078E00C944E1DCF92DB
:10456000DF92EF92FF920F931F93CF93DF9377FF2A
:104570001DC06A017B01EC016DE20E94291A8C01C9
:1045800044275527BA014C195D096E097F092AE0B5
:10459000CE010E94691A800F911FDF91CF911F9168
:1045A0000F91FF90EF90DF90CF9008952AE0DF9178
:1045B000CF911F910F91FF90EF90DF90CF900C94CF
:1045C000691ACF93DF93AC01990F660B770B83ECDD
:1045D00093E00E94AF22EC016EE371E083EC93E084
:1045E0000E94541A8C0F9D1FDF91CF910895CF9395
:1045F000C82FF89460E08091D2030E94EF1A809156
:10460000D30318161CF460E00E94EF1ACEBD000020
:104610000DB407FEFDCF8EB58091D30318161CF4A0
:1046200061E00E94EF1A7894CF9108950F931F9341
:10463000CF938091CF038F5F8093CF030CEF13E074
:10464000C0E08C2F80640E94F72280E80E94F7224D
:1046500061E08091D2030E94EF1A8091D303181673
:104660001CF460E00E94EF1AF80184E591919EBD70
:1046700000000DB407FEFDCF9EB58150B9F78091C3
:10468000D30318161CF461E00E94EF1ACF5F0C5A96
:104690001F4FC630B1F680E4CF911F910F910C945B
:1046A000F722DF92EF92FF920F931F93CF93DF9346
:1046B000C82FD62FE42E022F8AEFD82ED40E93E0E7
:1046C000F92EFC0E2D2D462F6F2D83EC93E00E94CA
:1046D000971D1D2F100F4FEF410F2D2D6F2D83ECC8
:1046E00093E00E94971D0650DD5F402F6D2F8C2FA9
:1046F0000E947A20CE0D402F6D2F8FEF8C0F0E94DD
:104700007A2041E06D2F8F2D0E94FB1FC45042E0A4
:104710006D2F8C2F0E94FB1FDCEFD10F44E06D2F1B
:104720008C2F0E94FB1F48E06D2F8F2DDF91CF91C2
:104730001F910F91FF90EF90DF900C94FB1F9F92C1
:10474000AF92BF92CF92DF92EF92FF920F931F939F
:10475000CF93DF93F82EE62EB22E13E0120FD0E0A7
:10476000C3E08AEFC82E0EEF842F8170982EAA2402
:10477000A394A20E4270D42EDF5F812F8B19080FF5
:10478000992081F04C2F440F4A0D6E2D6C1B8D2FFC
:104790008F0D0E947A20412F6E2D6D1B8C2F8F0D57
:1047A0000E947A20D1100AC0DC17CCF407FD04C0A7
:1047B000C150C394C3940C0D1E5FDECF4C2F440F29
:1047C0004A0D6E2D6C1B8F2D8D1B0E947A20412F60
:1047D0006E2D6D1B8F2D8C1B0E947A20E5CFDF91F3
:1047E000CF911F910F91FF90EF90DF90CF90BF90EE
:1047F000AF909F900895CF93DF93A82FB0E0ED0185
:10480000CD5FDC4F9DA1992309F43BC099A591117F
:1048100038C0FE01E05CFF4F9081AA0FBB1FAD5F67
:10482000BC4FD8963C91D897D9962C91D997E32F25
:10483000F22FE90FF11DE90FF11D259134912F3F62
:104840009FEF390711F41DA21CC0FE01E45BFF4F6E
:1048500030835F963327220F331F9596ED91FC919D
:104860009697E20FF31F65917491843028F4482FD6
:1048700088E293E00E944E1DC05CDF4F88818F5F0D
:104880008883DF91CF91089570E09B01220F331F41
:104890002D5F3C4FF901F39645A196A1E42FF92F26
:1048A000E80FF11DE80FF11D45915491F901ED5804
:1048B000FF4F56A345A3FA01859194919091380337
:1048C000989F802D11246D5F7C4FFB01E056FF4FB8
:1048D0008083FA01A591B4912B2F30E0E82FF0E00E
:1048E0002E173F0720F4FA0125913491832FFB0105
:1048F000EC55FF4F989F802D112480830895DF92FF
:10490000EF92FF920F931F93CF93DF93C3E0D3E017
:104910000AE013E0EE24EA9462E08A850E941E1BFE
:104920002A8530E0F901E451F84F8491F901E85209
:10493000F84FF490F901EC53F84FD490DD2071F06A
:1049400081110E94C61AED2DF0E0EE0FFF1FE65414
:10495000F84FA591B491EC91FE2299F489898F5F6B
:10496000898B60E08A850E941E1B21960C171D070B
:1049700099F6DF91CF911F910F91FF90EF90DF900B
:1049800008958989882389F38F3F11F4198AE9CF23
:10499000E98AE7CFCF92DF92EF92FF920F931F93B6
:1049A000CF93DF9381E08093CB031092CA031092E0
:1049B000C90310921B038093E3038093E403CAE2CC
:1049C000D9E01CE00E94DF148823E1F3FE0184910A
:1049D000882319F00091C80301C000E02FE339E0FB
:1049E00040E060E083EC93E00E9492204CE0400FB6
:1049F00028E038E060E083EC93E00E94922010927F
:104A0000CC031093CD036AE279E083EC93E00E943B
:104A1000301A8091C703982F990F890F81958D5A6D
:104A20008093CC038091C803982F990F890F8195AB
:104A3000835D8093CD038091E60384FF03C06BE325
:104A400079E002C067E379E083EC93E00E94B21A58
:104A50008091C703982F990F890F81958D5A809364
:104A6000CC038091CD038F5F8093CD038091390378
:104A7000882319F063E379E002C06FE279E083EC08
:104A800093E00E94B21A8091C703982F990F890F63
:104A900081958D5A8093CC038091CD038F5F809355
:104AA000CD036BE279E083EC93E00E94B21A80912F
:104AB00019038130A1F4809139038F5F60913A032B
:104AC00087FD09C0082E000C990B70E06F5F7F4FC7
:104AD0000E94172D682F609339030E9491148091D2
:104AE00018038130A9F08091E503482F50E060E081
:104AF00070E0C090E603D090E703E090E803F09008
:104B0000E903C416D506E606F706E0F08F3FD1F0BC
:104B10008FEF8093E50360E088E293E00E94251D1B
:104B200010922C0388E293E00E94AA2281E08093F5
:104B30001B03DF91CF911F910F91FF90EF90DF90BA
:104B4000CF90089580911A03813009F03BCF0E94E5
:104B5000581438CF789484B5826084BD84B5816060
:104B600084BD85B5826085BD85B5816085BD809138
:104B70006E00816080936E001092810080918100B0
:104B800082608093810080918100816080938100A8
:104B9000809180008160809380008091B10084606A
:104BA0008093B1008091B00081608093B0008091CB
:104BB0007A00846080937A0080917A00826080938A
:104BC0007A0080917A00816080937A0080917A00E7
:104BD000806880937A001092C10082E38093F4038E
:104BE00081E090E0A0E0B0E08093F0039093F103C7
:104BF000A093F203B093F3038FEF8093E503E0E813
:104C0000F7E7259134912130304C09F049C0E6E9AD
:104C1000F7E7E491E093CE03E7E9F7E7E491E09367
:104C20000703E8E9F7E7E491E0930803E9E9F7E728
:104C30008591949190930A0380930903EBE9F7E738
:104C40008591949190930C0380930B0387E080935C
:104C50003A03EEE9F7E7E491E0933903EFE9F7E788
:104C6000E491E093E503E0EAF7E78591949190936E
:104C7000200380931F03E2EAF7E7859194919093D4
:104C8000220380932103E4EAF7E7859194919093BE
:104C9000240380932303E6EAF7E7859194912CC0DF
:104CA0009CE39093CE03109207038093080380E265
:104CB00093E090930A038093090384ED93E090932B
:104CC0000C0380930B0387E080933A0380933903AE
:104CD0008CEA9DE09093200380931F038EED9DE06E
:104CE000909322038093210384E79EE09093240312
:104CF000809323038CE39FE0909326038093250306
:104D00006FEF70E08FEF0E945A1B88E080930D03D5
:104D100089E080930E0387E080930F0386E0809301
:104D20001003C4E0C093110382E08093120385E076
:104D3000809313030E947F248CE39FE090931E03D3
:104D400080931D03C0931C0381E0809327039BE0A5
:104D50009093D1039DE09093D00390E19093D20380
:104D60009EE09093D4039FE09093D3038093CB0372
:104D70008093E3031092E4038093CA036FE475E029
:104D800083EC93E00E94831DCFB7F8948091DB02FF
:104D9000811127C0EEECF7E08491E2EEF7E0949108
:104DA000E82FF0E0EE0FFF1FE55CFD4FA591B491F9
:104DB000EC91E92321F461E08AE00E94EF1A61E0BE
:104DC0008AE00E941E1B8CB580618CBD8CB580640E
:104DD0008CBD61E08DE00E941E1B61E08BE00E94B3
:104DE0001E1B8091DB028F5F8093DB02CFBF8CB5EF
:104DF0008F7D8CBD8CB58C7F81608CBD8DB58160C5
:104E00008DBD8CB58C608CBD61E08091D1030E941A
:104E10001E1B61E08091D0030E941E1B61E0809107
:104E2000D2030E941E1B8091D40318161CF461E06B
:104E30000E941E1B8091D30318161CF461E00E948F
:104E40001E1B8091D403181674F460E00E94EF1AC0
:104E50006AE070E080E090E00E94DE1B61E08091FB
:104E6000D4030E94EF1A8091D003082E000C990BF6
:104E7000FC01EC53F84FE491F0E0EE0FFF1FEB5B09
:104E8000FD4F259134913093D8032093D703FC0133
:104E9000E852F84FE491E093DE038091D103082EAD
:104EA000000C990BFC01EC53F84FE491F0E0EE0F8D
:104EB000FF1FEB5BFD4F259134913093D603209378
:104EC000D503FC01E852F84FE491E093DD038091B3
:104ED000D303082E000C990BFC01EC53F84FE4911E
:104EE000F0E0EE0FFF1FEB5BFD4F25913491309307
:104EF000DA032093D903FC01E852F84FE491E093E0
:104F0000DF038091D203082E000C990BFC01EC53B7
:104F1000F84FE491F0E0EE0FFF1FEB5BFD4F2591A2
:104F200034913093DC032093DB03FC01E852F84F0B
:104F3000E491E093E00381E20E94F72284E10E9481
:104F4000F7228091CE0387FF03C08FE78093CE03C3
:104F50008091CE0380680E94F72280E20E94F722AF
:104F60008CE00E94F7220E94162381E08093380390
:104F7000EFEBEE2EE3E0FE2E0BE513E0C0E0D1E018
:104F8000F7E3CF2EF2E0DF2EF701D1937F01F80196
:104F9000C192D1928F016C2F80E00E944424CF5F98
:104FA000C43091F761E070E083E00E945A1B809169
:104FB000B100887F81608093B100F89410928000E6
:104FC00010928100109285001092840088E191E097
:104FD00090938900809388008091810088608093FD
:104FE00081008091810081608093810080916F00B9
:104FF000826080936F00789480911F0390912003CA
:10500000892B11F00E94981480911903813009F0C6
:10501000ABC0109239036DE872E083EC93E00E941C
:10502000831D8091E50381110E94CA24C0901D0355
:10503000D0901E03C094D094E12CF12C0E94B91B97
:105040004B015C010E94B91BA5019401209530958C
:105050004095509560957095809590950E94FB2C99
:105060009B01AC01C701B6010E94FB2C6B017C01C6
:1050700060910403709105034B01A12CB12C0E9497
:10508000B91BDC01CB01880D991DAA1DBB1DBC01FC
:10509000CD016C0D7D1D8E1D9F1D61157105810556
:1050A000910511F00E944F2B67E9C62E62E0D62EC3
:1050B00071EAE72E72E0F72E0AE010E0C0E0D0E0DF
:1050C0005801FAE0AF1AB108C5018C0F9D1F0E946C
:1050D000582BF701EC0FFD1F80832196CA30D105B4
:1050E00099F7C8010E94582BC82FD0E0F601D18350
:1050F000C083C80101960E94582B90E0982F882702
:105100008C0F9D1F8F3FFFEF9F0711F480E090E011
:10511000F601819391936F01045F1F4FFBE0EF0E47
:10512000F11C0634110551F60E94F40F30E0832E75
:1051300030E0932E6624639443E0242E0E94DF1413
:105140008823E1F31092C90377247A94412CC0E0BC
:1051500020E3522ED0E00E94DF148823E1F3209157
:1051600018032130F1F447C040E06FE472E088E2B8
:1051700093E00E944E1D41E06FE472E088E293E00C
:105180000E944E1D42E06FE472E088E293E00E94CC
:105190004E1D43E06FE472E088E293E00E944E1DF2
:1051A0003ACF80911903813031F180911A03813017
:1051B00009F4C1C1411032C0809117038F3F21F023
:1051C0008370813009F408C1809115038F3F21F06D
:1051D0008370813009F404C1D53021F0D7FF03C0BA
:1051E000D4E001C0D0E08091C803C4E0C80F8D9F17
:1051F000C019112447C08091C80390E09195819512
:105200009109C82FCC0FCC0FC80FC250213009F024
:105210009DC188E293E00E94AA227D2E852D052C57
:10522000000C990B8C1B9109C7FD9395029744F5CF
:1052300022E0721609F4A0C02715CCF0772009F4FB
:1052400084C081E07812BCC00E94F40F6FE475E066
:1052500083EC93E00E94831D0E9403056DE872E0D9
:1052600083EC93E00E94831D70921B03A9C093E01E
:10527000791609F484C0E4E07E1609F499C0A0C050
:10528000442443940C2F0C2E000C110B050D111D02
:1052900057FC1A9517FF02C00F5F1F4F1595079512
:1052A000302E502E1092CC030093CD036092CB038E
:1052B0001092CA039FE0C92E95E0D92EE12CF12C63
:1052C000AD2E0D2E000CBB08AE14BF0451F420927D
:1052D000CC038091C803F32DD89FF00D1124F093D7
:1052E000CD03F6016591749183EC93E00E94B21AAC
:1052F0002FEFE21AF20A82E0C80ED11C95E0E916FF
:10530000F10411F71092E3031092E4038091C803B3
:10531000402FD89F400D1124415024E560E083ECDC
:1053200093E00E94971D6092E3036092E4038091F2
:10533000C80323E0280F602FD89F600D112462500E
:1053400044E580E00E94512306CF64E670E080E0EF
:1053500090E00E94DE1B6FE475E083EC93E00E9416
:10536000831D0E9403056DE872E083EC93E00E94C8
:10537000831D60921B03E2CE0E94EA0BDFCE6FE436
:1053800075E083EC93E00E94831D0E94DF14882364
:10539000E1F380911A03813039F56DE872E083EC16
:1053A00093E00E94831D88E293E00E949919C6CE83
:1053B0008091E503882309F4C1CE0E94CA24BECEA1
:1053C0008091E50381110E94CA248114910409F49B
:1053D000B5CE0E940000B2CEDF5F0E949114F4CEE1
:1053E000D1500E949114F8CE68E872E083EC93E00B
:1053F0000E94301A40911D0350911E0360E070E03E
:105400002AE083EC93E00E94691A65E872E083EC7D
:1054100093E00E94B21A6CE772E083EC93E00E9482
:10542000301A40911C0350E060E070E02AE083EC09
:1054300093E00E94691A69E772E083EC93E00E94AE
:10544000B21A62E772E083EC93E00E94301A409156
:1054500004035091050360E070E02AE083EC93E0E0
:105460000E94691A6EE371E083EC93E00E94541A83
:1054700067E672E083EC93E00E94301A40910603E5
:1054800050E060E070E02AE083EC93E00E94691A4B
:105490006EE371E083EC93E00E94541A6FE572E0D2
:1054A00083EC93E00E94301A4091390350E060E0B1
:1054B00070E02AE083EC93E00E94691A6DE572E0E7
:1054C00083EC93E00E94301A40913A0350E060E090
:1054D00070E02AE083EC93E00E94691A6EE371E0C9
:1054E00083EC93E00E94541A61E471E083EC93E052
:1054F0000E94541A4091DA0250E060E070E02AE025
:1055000083EC93E00E94691A67E471E083EC93E016
:105510000E94541A80E190E00E94E12269E471E067
:1055200083EC93E00E94541A8091D8029091D902A2
:105530000E94E1222ACF8091C80390E09195819545
:105540009109C82FCC0FCC0FC80FC25088E293E04E
:105550000E94991963CE1092C6031092C50386E388
:1055600091E09093C4038093C30308958F929F9218
:10557000AF92BF92CF92DF92EF92FF92CF93DF93E1
:10558000EC01688179818A819B81611571058105B2
:10559000910521F464E279ED8BE597E02DE133EF9D
:1055A00041E050E00E946E2B49015A019B01AC0181
:1055B000A7EAB1E40E948D2B6B017C01ACEEB4EF45
:1055C000A50194010E949B2BDC01CB018C0D9D1D3C
:1055D000AE1DBF1DB7FF03C00197A109B048888366
:1055E0009983AA83BB83BC01CD019F77DF91CF91C3
:1055F000FF90EF90DF90CF90BF90AF909F908F90F3
:1056000008958F929F92AF92BF92CF92DF92EF92C6
:10561000FF926091010170910201809103019091CC
:105620000401611571058105910521F464E279EDAC
:105630008BE597E02DE133EF41E050E00E946E2BC7
:1056400049015A019B01AC01A7EAB1E40E948D2BEC
:105650006B017C01ACEEB4EFA50194010E949B2B81
:10566000DC01CB018C0D9D1DAE1DBF1DB7FF03C01E
:105670000197A109B0488093010190930201A09382
:105680000301B0930401BC01CD019F77FF90EF901F
:10569000DF90CF90BF90AF909F908F9008956093D0
:1056A0000101709302018093030190930401089516
:1056B000F999FECF92BD81BDF89A992780B50895DA
:1056C000262FF999FECF1FBA92BD81BD20BD0FB61E
:1056D000F894FA9AF99A0FBE01960895052E97FB51
:1056E0001EF400940E94852B57FD07D00E94A02B2A
:1056F00007FC03D04EF40C94852B509540953095C3
:1057000021953F4F4F4F5F4F08959095809570952D
:1057100061957F4F8F4F9F4F08950E94C22BA59F89
:10572000900DB49F900DA49F800D911D112408959C
:10573000B7FF0C948D2B0E948D2B821B930B089529
:10574000A1E21A2EAA1BBB1BFD010DC0AA1FBB1F85
:10575000EE1FFF1FA217B307E407F50720F0A21BF7
:10576000B30BE40BF50B661F771F881F991F1A9464
:1057700069F760957095809590959B01AC01BD018E
:10578000CF010895A29FB001B39FC001A39F700DE8
:10579000811D1124911DB29F700D811D1124911D39
:1057A00008950E94452C88F09F5798F0B92F9927AB
:1057B000B751B0F0E1F0660F771F881F991F1AF0FC
:1057C000BA95C9F714C0B13091F00E945F2CB1E0D6
:1057D00008950C945F2C672F782F8827B85F39F0D5
:1057E000B93FCCF3869577956795B395D9F73EF495
:1057F00090958095709561957F4F8F4F9F4F08953D
:10580000E89409C097FB3EF490958095709561955A
:105810007F4F8F4F9F4F9923A9F0F92F96E9BB2710
:105820009395F695879577956795B795F111F8CF8C
:10583000FAF4BB0F11F460FF1BC06F5F7F4F8F4FF7
:105840009F4F16C0882311F096E911C0772321F0ED
:105850009EE8872F762F05C0662371F096E8862F85
:1058600070E060E02AF09A95660F771F881FDAF7DC
:10587000880F9695879597F9089557FD9058440F8E
:10588000551F59F05F3F71F04795880F97FB991F9F
:1058900061F09F3F79F0879508951216130614065C
:1058A000551FF2CF4695F1DF08C0161617061806E9
:1058B000991FF1CF86957105610508940895E894C4
:1058C000BB2766277727CB0197F908950E94792C8B
:1058D0000C94EA2C0E94DC2C38F00E94E32C20F07F
:1058E000952311F00C94D32C0C94D92C11240C94E6
:1058F000602C0E943D2C70F3959FC1F3950F50E0F2
:10590000551F629FF001729FBB27F00DB11D639F71
:10591000AA27F00DB11DAA1F649F6627B00DA11D17
:10592000661F829F2227B00DA11D621F739FB00DBD
:10593000A11D621F839FA00D611D221F749F33272D
:10594000A00D611D231F849F600D211D822F762FC6
:105950006A2F11249F5750409AF0F1F088234AF0A3
:10596000EE0FFF1FBB1F661F771F881F915050400F
:10597000A9F79E3F510580F00C94D32C0C94602C19
:105980005F3FE4F3983ED4F3869577956795B79596
:10599000F795E7959F5FC1F7FE2B880F911D9695B0
:1059A000879597F9089597F99F6780E870E060E020
:1059B00008959FEF80EC089500240A9416161706A8
:1059C00018060906089500240A94121613061406F0
:1059D00005060895092E0394000C11F4882352F053
:1059E000BB0F40F4BF2B11F460FF04C06F5F7F4F0B
:1059F0008F4F9F4F0895DB018F939F930E948D2BB4
:105A0000BF91AF91A29F800D911DA39F900DB29F5A
:105A1000900D11240895991B79E004C0991F9617E1
:105A200008F0961B881F7A95C9F78095089597FB13
:105A3000072E16F4009407D077FD09D00E942B2D75
:105A400007FC05D03EF4909581959F4F0895709581
:105A500061957F4F0895AA1BBB1B51E107C0AA1F88
:105A6000BB1FA617B70710F0A61BB70B881F991FFF
:105A70005A95A9F780959095BC01CD010895EE0F38
:105A8000FF1F0590F491E02D099481E090E0F894D7
:105A90000C94512DFB01DC0101900D920020E1F7E7
:065AA0000895F894FFCF09
:105AA6000101000000000001030301020100021EC3
:105AB60001021E01040503020502010203020F276B
:105AC600F4012C011400960003020300030A0203EA
:105AD600050400000000811E9E19E70BE60B0D0A67
