:100000000C94DD1B0C94051C0C94051C0C94051C15
:100010000C94051C0C94051C0C94051C0C94051CDC
:100020000C94051C0C94051C0C94051C0C947E1F50
:100030000C94051C0C94051C0C94051C0C94051CBC
:100040000C94341F0C94051C0C94051C0C94051C7A
:100050000C94051C0C94051C0C94051C0C94051C9C
:100060000C94051C0C94051C7D268E2659267D2695
:1000700081268E2694264836993662359236523637
:100080009C36B13653350008430C46733000086285
:100090003398EA1B2A418A329D0352A1B43B2E4B6E
:1000A000F13B6F8F43C9F9AD8ED88A572AE87FA6F6
:1000B00049DD7AD72D4FD368FA3DC9B9755F0CA1D8
:1000C000154AE10008430C4673300008623398EA91
:1000D0002B442088313D0F68ACF47A8B61AAF47D03
:1000E0001FE7FC7B4B93A85CABF1603FDE8F61FFA9
:1000F0007A3E5953E87F168E1F2B5B9EE908CE6629
:100100006008430C4673300008623398CD53DDC15C
:10011000090842022A8C249A9EA5B4340FA75AD00B
:10012000EA2F8EBFA9F5FF9E21F9FE4A9300F9F44C
:10013000520021F67F9914153817538430C4673361
:10014000004B08430C467330C6318C5192E3A10436
:100150002210A908A63C1842421080190831C31386
:100160004341507D0DA805515D350887A04F3AC029
:1001700084417C553D43A17C5E068F9837E1054B59
:10018000A0885F16C7B803E02470320000F87686B6
:100190008425296188CE63084D8865119CC26084DE
:1001A00030C46733000708430C467330C6218A21E8
:1001B0009147508E188CE63A9C63294AD00000F88B
:1001C000239984318765508C1100C20922AAF81244
:1001D00034C414C8AABD142668C4210DB5383DA581
:1001E000E8FA97D5ED7C3180C44210206E600D6234
:1001F000A3B24252946368EA1BE1B7803E800F438A
:100200000C3119CCC01F084D0C4673285A00021837
:10021000048A0684C018C70C4673080C100F47E602
:100220004600D421D7E7AF80011108422E2817726B
:1002300060B76825554C127AF81A19C69A24F5F158
:10024000507B4FC7500C6108C719E33648010C01B9
:10025000B21F71F0633154A7F05F99EF001084D0A2
:10026000C46732801B08430C467330C4230C6318E8
:10027000D7190C24A8AC018AC08C268A9EA0AE2A6D
:100280005CA0210C93F3C8341000A0001F0E021DC7
:10029000409A668FC8E8FC4D97D07602F665B09418
:1002A000A52946305D2210842FE01F06F1516045DC
:1002B000A8BA01C521B82F8D09A06EC0408430C4F2
:1002C0006733002808430C4673308421082310C488
:1002D00031086000815355753E818C68FA30E181A8
:1002E000FC9F486A65FD15004610814A00000DCF4D
:1002F00014F9AA7D4021284B3794A5080016C404A0
:10030000210840CE00861A00D60120882154CD094C
:10031000EB0168FB0F13A090C1086188CE6614083A
:10032000430C467330C638602210842082705D40D2
:10033000218AA798834C8B479874407C40F86A18B0
:10034000E7E1FE0295000008411CF0011441ECE8D1
:10035000DB9F49538B20887A1084A5297B828630C5
:100360009202100010C024154B81254F7CD8150532
:1003700057A1E12608430C4673302108430C46730D
:1003800030C6386233988D50014210840100110844
:10039000003D0123210841906314403A8813C8EAC4
:1003A0000A6B18A8C42A829BD1BD88A2C8F9FE4A4C
:1003B000AEA7A86ABF944216D5FCFCA427A1A97CCD
:1003C000C218A20F0251F856007F11001B2A042107
:1003D000862339981408430C467330C63862339824
:1003E000EA010C510C8A3104221D763294A50023B7
:1003F0000A808410C1FFFC2421083055D78043298E
:10040000D4FA0800A00010C461840066D0032C2731
:10041000E20903F18650DA29A21029A8880204BA59
:100420003E82412C44FE3EA8CC2211218FC010C434
:1004300062AF83F88CE6601C08430C46733084225C
:10044000086118C70C46419B02700010C0060004EA
:10045000206CE2121090C465A20820D3741C3F47A0
:10046000188628846004A810D3B6E887A00C70C44E
:1004700067318420ABEA638C8B00010C46600682F6
:100480004A7EA430BEFF9430C46733000208430C98
:10049000467330C4318E1834773C5413248A3A9E04
:1004A000DFD1F7FF9DAD437E7FAD84233E7D108479
:1004B000D1FE66FCFF2789F3D8FF3ECFF3FF2BF96F
:1004C000C218623399802908430C467330000860D3
:1004D00003908810185505A7C10C63086A2212F80A
:1004E0008C853406B88E6A29E6A1F23E1A8FB8A927
:1004F00019EC102BF848305A1A26A3BC0E5907C223
:10050000318E682000050340A8A6800E6102249267
:10051000F922D288308822883E1208934D905214D6
:1005200085FA33820C84B249C08E68F83F88CE6663
:100530002208430C467331062100000800310E48A2
:10054000962A01CB21A7F4100348088399E83C0EB2
:10055000A0126A18C043F0780AAC0150000425B11B
:10056000695F5510C55100401441510AA418C43F99
:10057000634039043F01B508CA518FE1A23C908421
:10058000800000025446A96A92547A355110057CC5
:100590000862AB82219168202208430C4673300028
:1005A00001000D8CA609E2A008C24B8726084F392E
:1005B0000C8009824212A2E8E600844216860DC031
:1005C000001848118C631847F0701A12FB04791F49
:1005D000086B8D0C822089F112AA8C7E33D4812085
:1005E000C2008F48902A5F400327F1F3EB29910A5C
:1005F0003F800057000002188CB2CD939C2D084319
:100600000C46733080011084862310001982C401C7
:1006100088628864408401008631C3119147515239
:10062000C2F4000D084426944192A620843210841E
:10063000E62A7FB2A32687560521EE2E0F807A4147
:1006400004417C06A809F0B74CF8341A8728080042
:100650008003980034301072C471FC1070C6E1C47D
:100660004673300E08430C467330C8320C8421C0E8
:100670000043000661108E43049351E241CE57209F
:10068000E857C9382D0B8A05203246041907F1F0C6
:10069000F392B42B0AD8B8F49F428CE4076D04039C
:1006A0001DE388FE1B1E87DC2BF3A8541D03D3F229
:1006B000B4118C70C0C9E8AAD937D1B046733015CF
:1006C00008430C4673311A408C76E80813042D2336
:1006D00042000171000010571A010928E677854F82
:1006E0009BE8FA8FA3A3F12DA8F51F9F47F93D8C36
:1006F000D7E018C798E91F0B6A6CEB520E101B432A
:1007000034917E310C5144673477D275200F084301
:100710000C46733340063231000018C5A10926B1DA
:100720008863A8C15055402124CA843758C7A052B5
:10073000ADBD32CF8803EE060318C696072C543D94
:10074000D5472D681F3FF6D086B4193B0C0696009E
:100750000421139CF8063182328E75368D7C4774E5
:10076000DEA9BF8C4322D0400B08430C4673301ADD
:10077000008842108918840069A2800679A62B0996
:10078000EAA2CAC84112A7F03D2D149A17C3A00AC5
:100790007A08C638623398EA7B9F4300010C463AD8
:1007A00022EA7A9430C68F4237D0886456E4357D89
:1007B000D7F1F273300708430C4673334000004C06
:1007C00010851C4C200841388EB88E8425D4231CFB
:1007D000B0030846D02686681F0E80C8EFE20C30B2
:1007E000114793E14A529471947810F40C00A328B5
:1007F000F0210000000E328F2A415471DE8FBFE8D5
:10080000FBFE8FBF8421862339982D08430C467345
:10081000300000362900063208841540318E188CCD
:100820002A121084A872B902A1D22A2CD3E0F62A87
:100830005E63D06FC42A94C4A434310AA7F8A90F08
:100840009EA5FA3E418C7A2D4AD00000F88554844A
:100850002BCCB596FCF956A7F108210C3119CCC068
:100860001808430C4673318631C31198C538673573
:10087000480006801548AA00547650C1A1AEA7B220
:10088000BE107F048CB9800000A2229A8002001A58
:10089000125482A8B432553F3B5B516A175D4F54E6
:1008A000D4FD45464F8E3397271C24006324B6B5EC
:1008B000B6AE2BD5001008430C4673308428606315
:1008C00090E71A980018C70C461A3D3D53D5FA0612
:1008D0002FF514A5A9FF70840000003192429AAA56
:1008E0007ABF47ABC2118C210C73209638A01AD660
:1008F000C3118719521A9EA800BF0BEA95C242087D
:10090000430C4673308822431141053088410D3B2A
:10091000445C36C68320CD559E8342DD7F8689E0C8
:100920005536568010847194AE100010C0245000CB
:10093000D53D4C0D1EA7F987A3FCE010042F916252
:100940002108220638940138042186233998110899
:10095000430C4673300006846310C6419A73A84165
:1009600050888318E7309348A6B50D82A2FE021185
:10097000933120E7CF81BF0631C84E750803F07A66
:10098000239CC378006310E31FE2A2FE03F0DA02A7
:100990001CFC41D423D0BE06E304A93D90FB1F04F8
:1009A000FBFC7C151AFA00804319249268418623C7
:1009B00039980608430C467330C638623398EA7B90
:1009C0009F42001B1434031B41145493C455297CCB
:1009D00044BC62A94BE2FE23398EA7B9FE207C31CC
:1009E00054A5F136A26D94DF909A0C552803E3FECE
:1009F00023398C2132EB7A9430C4673300080843E2
:100A00000C4673301A0002188F270A806318C6211B
:100A10000A1896AA5A6EABD104221221D4AA7A9F40
:100A200046FBC6D085BF055D30FC9F818C63535F5C
:100A30002017F853153E85F94A753EA1267C20689B
:100A40000008623C6FC018623399801908430C4655
:100A5000733182418C241104210C8100881A446076
:100A60000C50410470C79248C2B88A58CC025BC689
:100A70007D8207B00800BD47801DB5BCF34005402E
:100A800008C021DC7A8F9420D2221B87C808C84F67
:100A90008C3208B43A287CC5C41080400003CD488D
:100AA00013C7904D82C008884DD2A09C45D67A24A9
:100AB000E67B9916821708430C4673300006C41172
:100AC000E4E3506A23DFE890044414303E4080029F
:100AD0002A236823A839BF25A122C641C31150BECD
:100AE0003D080318E18212A300022A801600AA70B2
:100AF000134106602105B520C6AF245A3B5B8853DD
:100B00002427CA10C31190E61D01BEC7E11E4E394D
:100B10007EFE100108430C467330861204631806EB
:100B200078C24810678D62A204B41A0042CC47987C
:100B3000542A00320D03A2D0FF9F845D46B51E6883
:100B40005D4086288790154A5094310943E47C0221
:100B500009040002188C7C1F848411041684440349
:100B60006A3DE3908CFD8FE7BD57FE132E6E022A7F
:100B70004F7FFE3908430C4673301800006168C689
:100B80003088421049504D1500062A9041C20D513F
:100B90009061294A5D1EA3003430000068C21092A3
:100BA000E8C007A04E140109D0CC610884210EA42E
:100BB000B4042D044418331E83C0A8AC858391A9C6
:100BC000F43EC482D1EA418884B43461545DC106E4
:100BD0003D83E888645A081808430C467332C00005
:100BE00000228C40118C84206381C304AAA6215466
:100BF0008210B53AE340FE22A08267C20630E4616B
:100C000011082D009F493D21869020BE521341BE00
:100C10007A80C764AA6A6EA1A0DE62AF0F7BF43E41
:100C2000808803113409006307C24FA6A120EA009F
:100C30009A3810BACFE62A95C21708430C4673308B
:100C4000C638623318000110218E0153D3020848C0
:100C50004A8A39CC0841541FC0471DC9D8113DDD0F
:100C6000A42117C0420C4315802A8C841531A1D5CC
:100C700024D03F808E3B93B905832C17C9DF7C6459
:100C8000A8C82159C4AA021079560DA2410CC10866
:100C90006188CE661708430C4673384266800C00A4
:100CA0001A18C420CE8842430408014CD454FD35A0
:100CB000A0E6E000F5AE2B0CF459ECD38108FA0F56
:100CC000603A2DBDF8FC77D771E054BBC585E4933D
:100CD000ABFE06D88253F8B70CB3A1D0BE86F97F1D
:100CE000D0C0BA82B88CE6601F08430C467332C28B
:100CF000A00010C4647210810806420E400C8041AE
:100D000003C28C47487F221E2350902408C7645B8F
:100D1000138FC55828000431D80B421DC3F0E85585
:100D200019350D13502683F0450318F618C388D0E3
:100D3000337D6F19B62FAC6642066FA32426D048C8
:100D400042106209081273FF78400E08430C467384
:100D500030C8320C8421C00043000661108E430469
:100D60009351AAF2CE5720E857C9382D0B8A052097
:100D70003246041907F1F0F392742B0AD8B8F49FA5
:100D8000428CE4076D04031DE388FE1B1E87DC2BE9
:100D9000F3A8521D03D3F2B4118C70C0C9E8A6D9D0
:100DA00037D1B04673301B08430C46733108486096
:100DB0008200C0338000003381EB600802021062C1
:100DC000A800220C6425F158E31926E7F80464F022
:100DD0004641CD000431F872150FF1AACBA4BE0430
:100DE000020C879478847C1CC441B88C631FE1A1F9
:100DF0008F4018079D347A024690924805B242030C
:100E0000A10F01EC1341FC2A15AB91BC3E06FD2657
:100E1000D0761916822608430C467338C6020C2376
:100E2000084841908421299202783DF5915E1A0488
:100E3000516084000000808452C54633E85F090297
:100E400099001E4035826F1545E140584120B59507
:100E500000000009F0806411067AC7408ABA116E5A
:100E600059C23F12006318F08A83409AB00BE00821
:100E7000D126426181098242136148C2AD406BF8BC
:100E80006F9916821E08430C4673308428604218FE
:100E9000000860016042320C9108F9300C01094AE7
:100EA0006294B700484B2001A839DD0AA02680AA29
:100EB000A8631C303D1098010811673AC7C5598CCA
:100EC0006002F9206823188411847A58C7244C12D0
:100ED000067184080027B20008049A241A8BE0C225
:100EE0007299C44CA9081200426825027A1A0FF1BF
:100EF000154AE12608430C4673334000000158446C
:100F00002143118042008E292048424311854263CB
:100F1000597740E21D0748D000004311823E09A5E1
:100F2000BA16B119CC23184838A022108428EA80B8
:100F3000FC2D0B02DA06124A865820C8320425F628
:100F40002A0A6360294A5A2000003B9A8A69E43ED3
:100F50002112A7A80842102320E304CD44E43A88D4
:100F6000CE662D08430C46733088018C63206411D3
:100F700008421042418361204200D31806829090BB
:100F80009A05405294A4BC03A200003800418B9003
:100F90004CD0007C40EE03F08FF016835080841517
:100FA00090420E401907C8041A1EF1C8DF03D6BECE
:100FB00011085E40C442461A0109890E61E400002E
:100FC0007156013B12742190341A84890917580C08
:100FD000E6A8BB28F2741808430C46733188118CBC
:100FE00003004812340000179C4E208C87D503D88C
:100FF000A433018E4120C551687E85C16C02A3D007
:101000007830907FD7A2927C1F9545655D322D4345
:10101000F10D310483385434A56A9A8A76E0FE0EC5
:10102000DB65F802409221914210C3119CCE110859
:10103000430C4673300000849182E509A49501AB0E
:1010400001D8180E31516C2406A1CCE89C5625A479
:10105000FC5D166DA35F378C9411C984B0801604B3
:1010600003D07531EE3B17152DD6170DB5E0691F6E
:10107000A8389D13ABD23F26E758501A109084CB66
:10108000364E702208430C467330C638A092404753
:1010900010925820C000022A9241700491C81A0E82
:1010A0004760AC421B43D0088420F83405433C52CF
:1010B000150621A47C231908422C84F43E8B282693
:1010C000294B0C0423C0341DA40004303A886DF869
:1010D00007536502BE2A32108411044127B1F80774
:1010E0001E07E0087A8AA42DF8E33A4ABA95FD80F3
:1010F0001E08430C467330C63180421431198AA44D
:10110000B22EA8C82121081A9C6B192A0C600186EE
:101110000219A728D0D20002188C2A3FA03780429B
:101120005294BC8CD51C0C61D683A461249E0714F8
:10113000D4F90541C6689C9049ED007785426A84E0
:101140006127F230704DD012127363492E0B0A33AF
:1011500099802808430C4673388421042421020016
:101160000218184231D443A86780809510EDA1D4AD
:101170000320F439E289001A20887A1F223C039068
:101180000E89A9840419218902A10002CF206210CE
:10119000BA8D0CA50F100A9F43006B827C1A007E4B
:1011A0003180440700518C2327C3640095000178E7
:1011B0000482F817508426A882426819CC6733004D
:1011C0002A08430C46733106718C848608422C75BC
:1011D0001D0129084294482964151DC35092A4009A
:1011E00001680C4188345A9823F871810850C4630F
:1011F0005004351761E4467F153F6DFC2528676272
:10120000530427C21084230E103A9C10C590421B31
:1012100092C62A6DE63399EB706008430C46733230
:10122000C631C3119CC410921824532149950D83D3
:10123000FC4555FE2FD1F6F97D35B5E8F53FCFF2E7
:10124000E8FB97CF46FF3F3E5FF384631C3119CC28
:1012500061086188CE6430401708430C4673300043
:1012600006C411E4E3506A23DFE890044410C62169
:10127000F204001151E8350F37E4B4C458C838629D
:101280002A168E300C6386084F8C0008AA0058027C
:10129000A9C04D0419808416D4831ABC9168ED6EE0
:1012A000214C909F28430C4643987406FB1F847979
:1012B00038E5FBF8401A08430C4673334000000140
:1012C0008C2500908400430C04944475D8D4399440
:1012D00079D1F519800984806318C72CF0219C0509
:1012E000408C84BE2E2ACEC015B1F0A80017F10C98
:1012F00000951F0032040308368EE2315D303F4214
:10130000A046E771611281AC81C3138B6F01908499
:101310000B651000988D614C1251A42E8FB64EF6BD
:10132000000908430C4673308631084119082080B3
:1013300000036A318C2118AA12108404D1508D63E5
:10134000228C19E03148C8305B059EBE9B27C8BC83
:10135000783EC42155B78D8008C4ADBA2FE4D12F93
:10136000A8F33AD20E3FE74AC380308F008A6681E5
:10137000085B0545E584222089C8814009AE8D833C
:10138000EE95C21808430C467330C6386042BB6500
:10139000100000B2C0A00311A8231DAECCD05B1872
:1013A0007ABA1F521213D81909886860D06A1DF8DA
:1013B0001B893480451F2688119E321AB78CE01A8B
:1013C00009347D183B9ABE2B440A00F61D186BF8B1
:1013D000B6AF80DD97B52B840208430C467330C648
:1013E000010C638E06000001862A018EAA98000671
:1013F000D73A0671A8E33A8E80218AABEE49518C28
:101400009F8FF070F5238C3E098680F9EE900E21B7
:10141000F83218CA70A46A2036D338CE3887E0185C
:101420000DC0E8FA10343F13E2EE3E15EC63CCDB5E
:10143000A8DB519CCC0208430C4673318600801116
:101440000C863304231D2154466000C7EC01B553BC
:1014500063CE63C1D3F9AA986318E9DA9884A92AFC
:10146000FD1FE7DF2A56FF4D8F3DFDDFE118FF7FAF
:10147000E463085750EE3C8F60337D10C46733003F
:101480000A08430C4673300008600054AAACE161BE
:1014900018C618A832079FFE549940C6216C5C8874
:1014A00001D0D0318926AA6038C0860B242104439C
:1014B000FDCD3B5643A08008000000E719001BA2A9
:1014C000FC1BDCB1DD663A82B603D49A114BA31043
:1014D0008109B4BF94350ECB2B841108430C46739D
:1014E00030C635C411C4B33812A010850C54F50EA3
:1014F00057A11064189B53D46318B46F07E3A84333
:101500000C6E7D04F029C4428606529793B845C0FC
:10151000886000072D705217C001104418C9515837
:101520005505E820840108618B0A5C08000860C149
:101530002000844D56AE2BD5001608430C46733060
:10154000C62308631C31300C842540210AA008887A
:101550002A9F20AA2A5DE741268F5267174FC2298A
:101560006398D02A7A685F01341C8347F8463F07A6
:10157000419ABE2AA6A7D03A0DC242D1F41178BF33
:1015800028844F808427C6BEC7D1916820140843A1
:101590000C467330C4318842862319807500C70C0D
:1015A00046731E860000085463A2FD1B7FE010DB1B
:1015B00054FF51516AFCCD467FF452C689FEF9357D
:1015C0003FF5E568E3184A50D4FA1FC3A326A4598F
:1015D000AA448421862339981208430C46733000AC
:1015E000D03400088631C31185414CD515384242AC
:1015F00012182686002AA7A93E40C3118FCE10DFFD
:10160000A200010C02A310842E2EB9F478D9F02187
:101610003042BFB0199681A817B2D03330D4221708
:10162000A3F1211A98692AC3D3FE1BC6F9BFD017AC
:1016300008430C46733000000111810840884210B5
:10164000B3F08F98A9342DA81530C7C40C7DD54EA2
:10165000386072104A5294B53DC97C854A0000003A
:1016600054F5006188CFA09F1AD6C30DF9323F48C8
:1016700000E6FE418EB2D097610426A933EE2A7AA5
:1016800093B5800E08430C4673300008623208C4DC
:10169000310C5505BE1A68750908420404268FC826
:1016A0000C630806394E60A9BE18A6380B34410AEF
:1016B000A008425284260AB1AF8753B203F4FCD586
:1016C00086D02AC6D19132AE07A190908479779CBA
:1016D00079EC66FC22F1FDBC200A08430C4673320B
:1016E000C6318C6168000046610D34308064180397
:1016F00064D40A90C04212A1368FA00C601E89BD2E
:1017000023B26D44DD1B58086188C86210A18B6646
:1017100054D1773E92A7A9C23D5F33A882186025B5
:101720002C99F0B400043119CC196EC9CE0006080A
:10173000430C467330C00001B1480631C303A865AD
:10174000C926E2A8895AE055093F2CE1A0E81751C3
:1017500078B48E899154DCCE83CC7719A771F05080
:101760001CC92A52681DD4E7EC8FE1EE66927A55C7
:10177000174199C79A10CD9D376AFC4210C3119C3E
:10178000CC0F08430C467330C6300010C014001A4A
:10179000A410EDCE69B53D440004201AF4506855FC
:1017A000087B8EAEA118EA79CB4307F1DC97D8EC21
:1017B000639093C8B8557454B906838D763E07007C
:1017C0004D080318EE9DA6A3E3C2D084E1210310C7
:1017D0006723982721D43AACAE100E08430C467309
:1017E00032C6318C5150850C08610D3351CA588571
:1017F0004A0056E10F06211360EAFE024E348F6262
:101800001863E2A0B2CD0FD900002C9B4406D1A3EF
:10181000D49B007A8084A5D8884D06A08ABE41FC5E
:101820001908BC1DE400001BA0182126177CE33218
:101830002D040D08430C467331800043005482315F
:101840008C63CF48424304A9FFFD13DC8EAA520CDF
:101850004317060C29B536F03A83E8054EB9835094
:10186000DC74668024D1FE2CA2A068000E04611CEA
:10187000401210840E703C02D1B8E719E6A5E85575
:101880002E7C1FC46733000908430C4673300008E0
:10189000623398426A8357C6A89D11B8854C1210CE
:1018A00090C461A3FBFC9FCF3DFE9AFEAFA3F778E7
:1018B000BF59580002D1F43F938708075269FA884C
:1018C00000BCBF7F080B08430C467330000862332E
:1018D000988C108F57D1DBAAC9BF068FC9B740C3F8
:1018E000B47CFF8B1F8042109B4E12218862154BE7
:1018F000C080631C31A44653D02DBF82A3D082A0E8
:101900000000E838AF86682F6615FC2DD0AFAA8797
:10191000B18CE6600A08430C4673310800340004B9
:10192000311990210041B3E5551E7FC4E824D578D4
:101930008F22493670101229FE17766E5C47CF1938
:10194000802DEEB2DDEF35F3393B97E026E84CD33E
:1019500044DCB35F335803739F4097E6573300105E
:1019600008430C467332C00000028CA391033F0869
:101970004631C303A83381882210BF92FF1A0100A9
:1019800000882421218C267809AA2D035CD06C9D27
:10199000148318863F8398104639863A9078816E72
:1019A0003C0535A061220884216E753E8FA180021E
:1019B000EB3D22FC43A93DB00421862339980C0855
:1019C000430C467330C421431180C6386024A825D7
:1019D000B8F2A7B1F435E9FF18FE110C431038FF37
:1019E0009AA1AF2A6A26A7E83F1D04A52C31A3F5CA
:1019F00020002180C80802A6CA9463BC6B2D18C3BE
:101A00002009FD13E60C3119CCC00508430C4673C0
:101A100030C000B1810302C0066010EA1A22B8A2E9
:101A2000AA59DB40E234158C638623398BE78C247A
:101A3000AF8A8CF8EA496340D62BBD0430C46732C4
:101A40007C00002188CE62A875FEACB508B5FEAB5F
:101A5000E11FF46A9FD7FFC00108430C4673300EA4
:101A60000002188CE61A9ED7D001ABD4FFBE8FAB14
:101A7000FCABA9FFB2689AB8006A9EA7D1B55E0216
:101A8000A7A9F47D4B62F9FF818075186188CE6645
:101A90002408430C467332C00043119CC260841A70
:101AA00088E2AE98012102024511C302C0651515F6
:101AB00011510218A8863C622AE459A1461A25430E
:101AC000F1F21F27200033E7F8680D13BA66D3E060
:101AD00054F3D54FF10E2A947E3DC221917E10C35E
:101AE000119CCC1A08430C4673308421040000A2D8
:101AF00008EEA71D471C6824D04C6343118D4CC3CE
:101B00001084860843302108461D1F43001600023A
:101B1000188CE60084C62640221B99EE7D8108823F
:101B200030EA0FDAA509064210DFC92A7A80C0AA76
:101B30006A216886212A9A9C83A62AAF8030C467CE
:101B400033002D08430C467332C00000631C31196A
:101B5000108108AA7A6C410E73A3909A0D4F4E0F14
:101B600047A7AA7A7F4017CD4E0BE7CD7E7A7EA796
:101B7000CDFE117045F44B529BEA07B32998210C16
:101B80003119CCC027318D0C467332C02100008C36
:101B9000E623180218EA88CE62318632946214670E
:101BA000315405000B6446730E800055164467845B
:101BB0005426357319CC0CF829031AC18CE61F8BF7
:101BC000D1917C0A9EA718084D6633987E0212A90F
:101BD0008CE62A92C19148631A188CE6602C08435F
:101BE0000C467332C00000E100411085800042487D
:101BF0006036056B50D011052F3D54FB95478BFC8B
:101C00004DEEBE8B8A3908E6B004842430426F580A
:101C10006548CA93C80059A3D45F3E80739CFA3EBE
:101C20008FF27B9F01BE10C3119CCC5A08430C4617
:101C30007333000043000864C6CAD53DEA20302152
:101C40006CA7C80D6318E1819A441842CB65989C33
:101C500075C806ED14B94C108486084A8255A9EA65
:101C60007D1F47F998267CFF3FCFF3FCC1862339BF
:101C7000982D08430C467332C0004300648800046A
:101C80002000842862D81005105445A94C6318D54B
:101C90003E8262108409B47A9024A859F0FF1A2178
:101CA0000CCF88A5862A6F881FC4626F42A7A92916
:101CB0009D1F42018C63181F2ED52AD4ECA9C2188F
:101CC000623399801308430C467332C000004214FB
:101CD0003023088220821A640318E18A6C95132C41
:101CE00020539A2D3FA2E6FA3FE39B0F40180210C3
:101CF000C3119F803F805987F7CD0B2018C70C4632
:101D0000731842220A2191680A9EE7D1F870843044
:101D1000C467330041304218623398CC1330015805
:101D2000C638623103730698000D40218A99019AE2
:101D300010C6154FF54CE212202188C7A8BE0975C0
:101D400018C68629A25415510848629AA87E8A9E10
:101D5000A3A6BE7F8A9AF6C84AAAA1A7EABD0337FE
:101D6000D50211E6FFD8C2608430C46731980431CF
:101D70008D0C46733340C0322191406300210C31F9
:101D800019CC2DD0020002188CC000E85ABF300DCB
:101D900006A1D45B99B341F8350204910F53A18B8E
:101DA000000057C48BB8D0778F9F4508430C467A04
:101DB0002615996A5A167FA9FC0D036219141F0192
:101DC000A188CE663C08430C467330842862339861
:101DD000EA7B9C21369FA3FDFF30C212C3011C6524
:101DE000248420035A0002188C25ACA48186233950
:101DF000843A08E188CE62D03C693AA7B9F47E1CE7
:101E0000215FDFF306188CE6603B08430C46733015
:101E1000000030842430424E2CA8C1BB326A6008D6
:101E200031D95C88C5859094F004209290A82AE16D
:101E300054FAAD31A3FF74CFCFFC2E9BF9FF9A6FFC
:101E4000E2184631D5C3184C10800C000210C311A3
:101E500084C134545A5EE14C330ED5B9800708432F
:101E60000C4673300008623398EA026BFD492A1D64
:101E70005F33A8F57CC743D5E6AA9354CCB450B5DC
:101E8000AD6B733A989F3E8DF1FF1F3E69AA7C2689
:101E9000CFC2137C0BCDF55C7F6F6308430C467398
:101EA000300008600610850C462109980008557D11
:101EB000424300031EAF51553ABD49A82F57A935DB
:101EC0007D1FFAD5EA4D5F47D5FF8A9B57D1F5664E
:101ED0001747D4FF018421862339981A08430C46FA
:101EE000733080001091408231B268054F5150012B
:101EF00088748D04431D4240B2B917C3E8D47F00F3
:101F0000001F869AA9FE3A9EA2143155FCC2D8033E
:101F100055FCB4CD5BF2537A90C6CF8CB4D8005D3B
:101F20000BC80849E82FF127C3D032C0084D194B20
:101F300054100908430C4673300842430210400015
:101F4000430C2540318E188C2A32543FA8FFFBF1F8
:101F500080D100CD1F47D119B47172868FA3E85983
:101F60008E872968FA3F3199E832A68FA3FC19DAE7
:101F7000C23E10D73E6E102B08430C467330022031
:101F800080F141E512108BA92CAA8C43A9EA410DDE
:101F90009A3ED621F41F3FC54C544301C00C00F1BA
:101FA0004D446094210C5529CE1695F52AD4F67827
:101FB000424001BB0C5529541547C0425E31449143
:101FC00014FC12CCF15206188CE6602A08430C4629
:101FD0007330842860225822898EA32846318C25AC
:101FE000A9C451840038023AABE228C15000E1058F
:101FF00055F0D3150E800AABE0A67403D95A884376
:102000004D0034C545FC0434D68FFC0421862300E2
:102010007D13732EBF60FCDB308098C1A84F644CE9
:102020005D4DC23F6003E8FFA8AA57085D08430C56
:102030004673310848608218852E54C510CB53E88A
:10204000A3D1F451E8FA3E8E10C31188C7338C63D4
:102050001922992A51A8A52B92F8E849A100F5EF79
:10206000CE004AB53D45C4FC0BD10FA0108420CC56
:102070001086188CE6603008430C467332D8318ED7
:10208000188CC63030210006210A188CC600544432
:10209000212188CEA5D1F47D1F4728CB10C85F2809
:1020A00000086233F946386233D142DD3DB40D4356
:1020B000F19FFAA9F4FD17E337CE18623399800F28
:1020C00008430C467332C20000206C4120B2680DF8
:1020D00000488645A92C1917B0A9EA7D1F47F809C1
:1020E000F844322FC410C3119CC23F8000862339AC
:1020F0008F41104510C8BE0000300E21917402D8E7
:1021000016C46730FC20043119CC66CDF87046083F
:10211000430C467332C631C3119CC4108C8420C753
:102120000C5C049AAA1996A2BE343987239A7E0CB5
:1021300013C00EC3A0E75A2ED23D0F61914753F64C
:102140005D1E8731D75A3CC5A4FCF4EEC7F3F711E6
:10215000C906608430C46733001508430C467332E7
:10216000C0200010C46734042000EAF008751D5F29
:102170004D547AB535527F228629AA98658629BDA5
:1021800017DB972A620C64A9E9B0B401AB3E426F39
:102190005567C74C9AAEF8B306772CFEC210C31130
:1021A0009CCC0A08430C467332C631C30318422143
:1021B0000C6210821A7472B5407100408803A80442
:1021C000151802708020E423BB42A0ACEA46DE3939
:1021D0000EC3A202A21822118C77DB3FA8AA5018C6
:1021E0007F0A448302B5800C5A96F151511105487B
:1021F0004A9F48D04B511B434803557C41862339A5
:10220000980608430C46733300CB1E7C00016046E1
:10221000110B27AA8A38FEE58A9F52CC347D406391
:1022200030E4AF88802440358C72E7C17D8C75071F
:1022300015F333A0033E6A8821863A8A9F32D5344B
:102240005CF751F9335DD31FDBC22F08430C467393
:1022500030C621046100010C46552B400862A718C6
:10226000D6321090C467FCEE039066190D9B88FD72
:102270001FB732087E7F899517CFFCEE43F4BECAA4
:1022800097E7F8751F9FFB3781F0FDE108EA2F9F64
:10229000E3F1FFC01108430C46733000086002915F
:1022A0000006541A98C77AD100D54206651526D182
:1022B000B05CDF17E6CF9FE70FB6CA9EF9E0BA9091
:1022C0000A6B188FF4ED1F00C24212180FA2001FF4
:1022D000E158CD52501A8FC01D17B8F43420843005
:1022E000C461E9591475AD8C004208430C46733043
:1022F000180002188F278A82E5CBB4020C84212EA5
:1023000008E668D0A62A96E9A9EA7FE430C48B459E
:102310002800043005C880568FC7FC242121893647
:10232000A224CD6D1347D1FE018C70C467311821F2
:102330000C3119CCC00C08430C467330C631AE29A1
:1023400092642084020001149E55D0F6138347192D
:10235000084860603CABA3AB4708000001A0698D52
:10236000144D41086188C4C6EA27CF9407F9C7F520
:10237000006704AB518AA0D024AA8BECD03E6F6FCB
:10238000F83CA9F006188CE6600508430C4673304B
:10239000000862330306318EA1D7FA818C5A3F07B9
:1023A000501327DC7A017C7ABE804A8F67EC0631B5
:1023B00068FC132A0264FB8FC02F8F57A80951ECC9
:1023C000FD80C62D1F4418C9648E188CD6309BE141
:1023D000F5E6601308430C467332C6308842108D10
:1023E000190678882AC2539526A550E2751FF3A0D6
:1023F000619527F04A73E1EE3FA1F9334E8C3083AB
:102400009EA9860BDAA7A9C2003400600008C9B2F1
:1024100085414C582100592D540421218210671CFC
:10242000B81086188CE6601608430C467332C0005C
:102430000040147449A42188441044356542408FFB
:10244000601D43A96864D0220FEC9A197E0882AB04
:102450001687895498C6842F8220A6F441F703F882
:10246000C82F08812681105375104210B628A73452
:102470002F20409A69BA94661DB751FA319CCC1A44
:1024800008430C467332C63188628864008C600C45
:102490005153D4E31974718744ADEA40876AD8F484
:1024A000510AB7F819F25D7B07C7ED040CACFE3298
:1024B000109748000D86A7A85954FC8310BE0086CB
:1024C00018D18631C3119CC21361BA6F140F08432F
:1024D0000C467332C631C3119CC59FF17518CC20D0
:1024E000883108823A9696A9EA7D0C5A172119FC80
:1024F00022F886018221903A0F8EA7C6298D1F727D
:10250000EC7D8F9EA10300007C01284B10C818C4ED
:10251000421B22E08CC7355BD936D03708430C46C6
:1025200073301A000218647734541A8AEE9E607D64
:10253000C36A121090C4C121E823A8C776481A3D87
:10254000D9A0FF011C41D0C84CF80006C411C4AB8F
:102550007D69724C880090848607261B411D4616B3
:10256000497E4B3DCF864500010C462C8CFE0C6607
:102570003399801E08430C4673308631C30B8EE6B8
:10258000810433355D53DCFA3F0FF3FFFF01143252
:102590000C90C4664254241D609860646491526833
:1025A00003DA374A9BFBD007F14955F54431C31193
:1025B0009CC7531AE708430C4673302908430C465E
:1025C0007331084088429023C2544318E188CEA258
:1025D000FA580000638C7FBCB021160798AF20CE5C
:1025E0003480F81EC7C1A3789F2D93504977C8BC8B
:1025F0001A90E09E383EEBE1A10842770DDA000D1B
:102600008279A92D093B433EE06A9FF98AA5708033
:102610001408430C467332C631C3031846018220A6
:1026200060434C82A210040886A3D0CA0280AC2D5D
:1026300044C0000CD1F42F47F0D0730D0C03354586
:10264000A3E8F99E86C0000CD1FE2CE2290E67A1FA
:10265000D4BA3E820D1F47FEC1744401086188CE82
:10266000661A08430C46733084212E28080008623D
:1026700030084631C303184011886294425294A333
:102680008A2A1BD02DE56A2068518FCB3184221015
:10269000A181545F2E7953D4FF0B000FC4212E8EDD
:1026A00010F704204368D4B40545F18841002A7F1F
:1026B000907501806F8830C46733001C08430C4656
:1026C00073300008623398EA7B9F40FDFE7A8442B3
:1026D00021090C465F20C7FFFC03D97FDA20631E67
:1026E000C14BCF151340C0442D0546BCA007002A9E
:1026F00080019CC74042102CD02B0A0679A8BCCF81
:10270000A2A718C70C462136821862339980140894
:10271000430C4673310216921818E58190841D42CD
:10272000300C30C54F53E82218F80D1E79A9FE3140
:10273000713A3FC0127E3EC7517DD420CCFE11AE0F
:10274000F9A89A1034000042508430C4673203E084
:10275000632F8C4328EA2A3B222190EA11D4F529E1
:102760008210C3119CC61208430C46733084286043
:1027700042580008623008657BD42128CA52C3172A
:10278000BE8FCBFCFC87143E5DBF38421862336FAE
:10279000CC318E188C2FFA87E22049A4DD55202AEF
:1027A0000F86A7654062473A3E8FF106188CE660B7
:1027B0001408430C467332C40008115022A10423AC
:1027C00000C03146528CE010CDE488718D189B100A
:1027D000B91D0701D1F47FF252D0737BAF42CD77A0
:1027E0004D1731D4F4104BBB1809A01420002188D8
:1027F000CC00A2291ADC06AC421862339980180872
:10280000430C467331C00200008E230980270869FB
:102810000886CAB8288A80328CD1651F08D031FB5F
:102820002AA4D47E7FE731EE2CD1D75AAFF751746A
:102830007B91F9008EA3F73920AF4127B7A97F3FDD
:1028400008799D46E925437CFB7F218210C3119CBA
:10285000CC1E08430C46733000008043862319E8E1
:1028600031D0C50C46384E80BD6346D2747D18C148
:10287000FA3F0D1B3AA6B47F9F47EA747D1FEC29EF
:102880006188C69C0819D0F71C037E4003A0ACE405
:10289000A0848426E3A97713DD2119CCC012084354
:1028A0000C467332C0310850C46630002100063136
:1028B000C31198EA40430024793C6821086188CE1E
:1028C00083CBF6DF8B4FD28216E4FBA7C39FE623B0
:1028D000D641FCE5C4A90A52C31198747D78231728
:1028E000C4618C70C46750FF1154AE101708430CBC
:1028F0004673300006C411E4E3506A23DFE8900415
:102900004410C621F2040011511B41A879BF25A132
:1029100022C641C31150BE3D080318E18212A30034
:10292000022A801600AA70134106602105B520C650
:10293000AF245A3B5B88532427CA10C31190E61D6D
:1029400001BEC7E11E4E397EFE101A08430C4673C5
:1029500033400000018C2500908400430C04944413
:1029600075D8D4399479D1F519800984806318C752
:102970002CF0219C05408C84BE2E2ACEC015B1F0CF
:10298000A80017F10C0368A8780190201841B477CB
:10299000118AE981FA1502373B8B08940D640E18F1
:1029A0009C5B780C84205B288004C46B0A60928D49
:1029B00021747DB277B00A08430C46733182210836
:1029C000421C30318C8D0B42100661A02422102352
:1029D000A870AA90633D45F554C0A200BFB2A7D02D
:1029E0007E7A9800001A306C41CAAA021080A809A9
:1029F000B010952723A01E88D619F0B7E91B4632E0
:102A00003746086188CE61F87318AA55CBF7F08075
:102A10000108430C46733086120463180678C248D6
:102A200010678D62A204B41A0042CC4798542A0061
:102A3000320D03A2D0FF9F845D46B51E685D4086BF
:102A4000288708154A5094310943E47C02090400A0
:102A500002188C7C1F8484110416844402AA3DE36E
:102A6000908CFD8FE7BD57FE132E6E022A4F7FFE1E
:102A70000708430C467330C62108000480398000E3
:102A800010422A86791CB21B82A121084AE43A80AE
:102A900049607C01086180D41F07F01080000003AA
:102AA000A1E4388802088318CC3C0C26A06D43FCB6
:102AB0006B039A342D846125323D03E2D1AA1CE7D1
:102AC000E007C24184440B400012A6D044100C60C1
:102AD000E6160203E018C44207386E81FC454697AB
:102AE000C00B08430C467330000880920CB118D418
:102AF000521DF0102AA33D93A31F98F855BC06F26F
:102B00003FB582E79EC68398721A9F17A3F12126CC
:102B100087899FF85681AD68FC81EE0D055AB6078E
:102B2000A3CE5D1680626A1782F91CC09F07951EAE
:102B30004E801408430C4673308428604208E53107
:102B40008C2118C70C4A15385A000063212EEA86DA
:102B500044A9E609E03A1CA5F0DCE30B5B145480C1
:102B600010484EA2A206D40A8893C02A50543F3E71
:102B7000834C7C0AB4368F8E99F8C953817529A18C
:102B80008185A1086188CE661108426882388CE68A
:102B900021086318844210220B48D2373850AC0AFF
:102BA00080231869926803A90813E8B50F91F08390
:102BB00047104218603504A9F0800086238108423E
:102BC000C63C1A8ED018E7808461184631C303F9D9
:102BD000A826F723DF2D310854C689B8613F168E29
:102BE00011104B19070C7C2DF9A339980908430CD7
:102BF000467330863108411908208000036A318C01
:102C00002118AA12108404D1508D63234C19E0318D
:102C100048C8305B059EBE9B27C8BC783EC4215582
:102C2000B78D8008C4ADBA2FE4D12FA8F33AD20EE5
:102C30003FE74AC380308F008A6681085B0545E51F
:102C400084222089C8814009AE8D83EE95C209088F
:102C5000430C467331042110821C70218C63182AA6
:102C60002B0434006B0306A00CA21112B090378D18
:102C7000001A27C1B1682DE4099268DD87A5907E0E
:102C80003A08423AC691ACB4268FF0D1360D0413FF
:102C9000B6C5A183B4F4B70F8034BFE7F02C6D0044
:102CA0002188C010C461A0EC322D041B08430C46DF
:102CB00073308421082D0480318C4311AA5054C3F1
:102CC0001D4F944F3F386921F442084A5294B50988
:102CD0001A00021800714EEA5655E442740004D5F9
:102CE000A3EA17DFC1260342D4B4520C6208430C96
:102CF000463F3846218A20085753EF2419387F5C15
:102D0000201F08430C4673308428623118C82246BD
:102D10000108C6386231C2423154F50B6A06E82B0D
:102D200020C8388743213E1094A58C3E027C14486D
:102D30004E100015083F8863E11D4E418A20F8B807
:102D40000A9F442109F2D4F519F47D1421E83E01CB
:102D500013E0DE46ACA350F83A8C0A33D60DBD0022
:102D60000C08430C46733008100C6118C00960420F
:102D70001882165701A82E805B2BA82F8A8DA3A836
:102D8000BFCF4740BAA5108C5E85D44E2042D244B6
:102D9000408C8124403D045F8885F56B3F003E22D6
:102DA0007300EC0944461F1637B000269C47E066C6
:102DB0005ADD922A8B3BFE462DA26B210246EF4242
:102DC000EA15966B73301408430C467330842884DC
:102DD0002318C669A27808D63B080050309A881597
:102DE0002815FC1084A9C0040291A9FE0400011852
:102DF000C631FC1148821A62A0254B79489546825B
:102E0000425E35BE8C218B32D12A7FAC210C311829
:102E1000CBE10A000043000108486230D1F970801C
:102E20001408430C467330C44108630884118C7243
:102E3000812A29806B18C000007A28422A20351484
:102E4000F431760200041A23F2F834AC22501ABF8F
:102E5000017F5E813982046040343DE08210AA2007
:102E60002B41FE36AE474510F20E4084DA3A81FC23
:102E700005950648EF4120C880000000A211888215
:102E8000A801CC640218006A6481086188CE661EBD
:102E900008430C46733000000C8410C6310C5108F6
:102EA000433454248C2A1B2021C4000A8743A8855C
:102EB000510421F9EA2A6338A9C2100021F66B9B5C
:102EC00067E008044112D0043118D45B49081500AA
:102ED00010C011E82C144D40102100468210AB3078
:102EE000D03F8501485773C454160E419C7C013174
:102EF0008D98FD0A00010C7C310C8B4100170843B2
:102F00000C46733340D0000300E2190481090842E3
:102F10001001ADEA0FAAA7D0BC8F80291A4710B2C2
:102F2000A2D739408B470988418C630C3199D52150
:102F30009E2A4D149A0713516B9A081B52692BCE87
:102F4000747CEB6BD1F4AD1F46DF3B401408430C9F
:102F5000467330C431443228C410D3F76541A3F21C
:102F60009FC7BFFDD43EFD37A3F9FEC06D0BA23352
:102F700098EA5B7EA70841C5800DA9C1CEFC0BA9CC
:102F80008BF31B46CF3A00C3119CCC0C08430C4674
:102F90007330C421431180C6386022A825B8F2A737
:102FA000B1F435E9FF18FE110C431038FF9AA1AFB8
:102FB0002A6A242300060D13F1D04A52C31A3F5245
:102FC0000002180C80802A6CA96B10567A3182405E
:102FD00013FA268FACC793A00008430C467330C287
:102FE000388645A02A605CC6D1015056A0F8A93A9F
:102FF000CEF0F83236DAF525235AB7429DB83F8332
:10300000B7D93E400E45A9C3505EDA152759DE01F7
:103010000AE97B934888645A0C1B08430C467330BA
:10302000C638623398EA7B9F47E1FE7FFFE7FFFEE9
:103030007FFFE7FFFE7FFC216B5B0C35A0000001EA
:103040008AA7A9402AA02121090C466427C66ABE86
:10305000A3584218623399800F08430C467330C658
:103060003860616000086230085400200027013495
:10307000450AA832A1D2191E85CC202CCE2C0D6079
:10308000FF0E8531663F1E71309084212A1D1EA2DD
:1030900057C08F8738D1FE4D1021863E5DA2529ACF
:1030A00028157C3A1679A8E82BF84DA77C593EECF8
:1030B0000B08430C467330C638623318853C540203
:1030C00018A21902FC0869FAB7FA8AA5000CBA1806
:1030D000C42143118943F2719E082A7A7AA7A7F482
:1030E0007A7FE7FBC7F3FEA210421F20215E9FCE2E
:1030F0001ADAC0A5701A08430C467330842860425F
:10310000210840B18C6182118C70C0CB53302150AA
:10311000000863430547A3D4384FCDA18AA7D8023E
:1031200010C3028ED5706C9B85F6290ABCA9C953C1
:10313000E8A421347F905FC7CFF08D7DCA7E3DC863
:10314000210C3119CCC01208430C462697C6000248
:1031500018032440102186367CAB40090631C31188
:1031600099329259386E63A10C20000006463DCE7C
:10317000860D5248D1F5021330D1FE1AC23AD1BDA4
:10318000DFE34420C6386233EE7365EEBA08000808
:1031900062339872DC97A31408430C467330822282
:1031A000106318C6121080008610AE82204240DAEA
:1031B00000086A00041104B030800004835213A197
:1031C00001EA1C0344D6422DA09F01FF217F22B6B5
:1031D000B0AD092118C64080DF4C81F813F9CA4709
:1031E000ACC53500C5509004D0C7E4043A00824114
:1031F000773FC7E0015E1E05C3A1102420C9A010BF
:10320000601807A07751E4E81408430C46733108AE
:1032100048608120882884820840003220902399C9
:10322000C001088428604118C70C4606A9A9E18C92
:1032300021294B0C6657207A7A8082254F90755849
:10324000D043C48BB8E0FB817C6BF02B2104432678
:10325000F3C968442049F0CF3E47C340FC44C4BD95
:103260001FE05C87CB1E4E802408430C46733084DD
:1032700028623314E410800318E188CAA7ABC25255
:1032800094BA1043AE0B995FCB59906418CDF3E517
:103290006219081097C4FF3A1F802409022C0430D9
:1032A000C46350563508000863E0A9368A9EE9D405
:1032B0003F8CEEA5D8024212188C4210C3119CCC50
:1032C0002A08430C467332C0200C63862300000298
:1032D0001675506F2208C84210810DE3504B150738
:1032E00015501044154BF2643E8687F37804887EAF
:1032F0007D0AA1F86A7DE7F8D1F61FA4C317B7F1DC
:103300005531DEF0318AA29C724A62A20026311049
:10331000848609C17552B8403508430C467331069E
:1033200031C3023086196424084130042310AA7086
:1033300082DAA93CAA849BCF724FCAA3213800939A
:10334000C918C530F05584C5A1884216B3509360A2
:10335000D084418331E807520844583F0A9F44EC27
:10336000347D0AA2188648C346154E31FC3FC46717
:1033700033004500680100000101FF030101F7036C
:10338000546F67676C65204D6F6465004C657665AA
:103390006C20646F776E004C6576656C20757000EC
:1033A00053617665004C6F616400526573756D659D
:1033B000004E65772047616D6500080670E8F8608B
:1033C00070D8080670F8702070D8080670B8F83009
:1033D00070D80806002050B87020080620702070B1
:1033E000A824080670A8702070D8080620582470F9
:1033F0002058080670F8F87020D808061068903831
:103400001068080670A8F87020D808067848485850
:103410004848080600FC844830FC08060020508814
:10342000502008069024885004480806007078F858
:10343000F8700806FC84FCFC30FC08060000000064
:1034400000007C33783300000000240027002A00AD
:1034500000000000250028002B000500893008022C
:1034600038024978681400004449474745520044EF
:10347000494747455200B133AA33A533A0339733A8
:103480008C338033204C3A0020033A002F00043A5A
:103490000005003801680100000A0A153A49676E04
:1034A0006F7265006D560A0A504C454153452054D1
:1034B00055524E204F464620004C4F572042415413
:1034C0005445525921200003053F213F1208120A9A
:1034D000100A0E1C0E0C1E0C141A14161F161E13A6
:1034E0001E1E1B1E1E1F1E3F213F3A2F3A173D175F
:1034F0003F213F181F02040A041F0E04040E1F0A76
:103500001F0A0E0E1F04110E2E252E2F2A2E2629DD
:1035100029021F02081F08150E04040E150E1515AA
:103520001B151B040604040C040000000017000314
:1035300000031F0A1F16371A1904130A153A00034D
:1035400000000E11110E000A040A040E04003000DF
:103550000404040010001804031F111F121F101D83
:10356000151711151F07041F17151D1F151D010124
:103570001F1F151F17151F000A00003200040A1133
:103580000A0A0A110A040115020E11171E051E1F50
:10359000150A0E110A1F110E1F15111F05010E111C
:1035A0001D1F041F111F1108100F1F041B1F1010D7
:1035B0001F061F1E040F0E110E1F09060E112E1FCF
:1035C000051A121509011F011F101F0F180F1F0CDC
:1035D0001F1B041B031C03191513001F11030418E0
:1035E000111F000201022020200001020C121E1FE8
:1035F000120C0C12120C121F0C1A14041E05242A91
:103600001E1F021C141D1020201D1F0814111F1046
:103610001E041E1E021C0C120C3E0A040C123E1E3E
:10362000040214160A020F120E101E0E100E1E08AF
:103630001E120C1226281E322A26041E21001F00EC
:10364000211E040102013F213FF6E8DBCFC3B8AEE3
:10365000A49B928A827B746E68625C57524E494585
:10366000413E3A3734312E2C29272523211F1D1C9A
:103670001A1917161514131211100F0E0D0C0B0A30
:1036800009080706172B152010204C4F41444552BE
:1036900000172B16201314000A4E6F20534420638A
:1036A000617264206F720A6E6F204C4F4144455224
:1036B0002E4845580A0A153A45786974001D204677
:1036C0006C617368696E670A20206C6F6164657253
:1036D0002E2E2E0A0A444F4E2754205455524E2067
:1036E0004F46462100000000002300260029000468
:1036F0000404040404040402020202020203030399
:103700000303030102040810204080010204081092
:10371000200102040810200000000800020100003F
:1037200003040700000000000000000500680138E5
:1037300001000017534400161378001613140015E7
:1037400010200015201000540A03E181867F3E18E6
:103750006D830F0F0E0183866033186DC3198F18A8
:1037600003C38E6033186DE330CF1803C39E6036F9
:1037700030CDE360CF3006C79E7E3E30CDB360CF04
:10378000300CC6F6603330D9B660CF33CFCCF6609C
:1037900061B0DB1E60CF30D86CE6C061B0DB1E616B
:1037A0008F19986CC6C063B19B0E330F0FB078C6EB
:1037B000FF7E1F1B061E0F00D23011241FBECFEF4D
:1037C000D8E0DEBFCDBF12E0A0E0B1E0ECE4F1E76D
:1037D00002C005900D92A437B107D9F726E0A4E7FF
:1037E000B2E001C01D92AE3BB207E1F71BE1CDEDA7
:1037F000DBE104C02197FE010E948538CC3DD10752
:10380000C9F70E94DD300C94A4380C940000CF92CC
:10381000DF92EF92FF920F931F93CF93DF936C0190
:103820007A018B01C0E0D0E0CE15DF0581F0D80130
:103830006D918D01D601ED91FC910190F081E02D0B
:10384000C6010995892B11F02196EECF7E01C701A3
:10385000DF91CF911F910F91FF90EF90DF90CF906C
:1038600008958091BD03882319F08091AD0301C0B4
:1038700080E09091BE03992319F09091AE03890FD7
:103880009091BF03992319F09091AF03890F909104
:10389000C003992319F09091B003890F8093B4006D
:1038A00008954091870250918802209185023091BD
:1038B00086027EE0749FF001759FF00D1124E2579F
:1038C000FD4FE20FF31F1082480F511D87FD5A95DF
:1038D0005093880240938702260F311D67FD3A9569
:1038E0003093860220938502749FC001759F900DCE
:1038F000112482579D4FFC01E20FF31F8BE0808360
:1039000008959FEF980F923168F49FEF960F9C30C7
:1039100048F49EE0899FF0011124E257FD4FE60F25
:10392000F11D40830895282F8091760290917702AF
:1039300064E170E00E94713899277727293009F4F3
:1039400046C0A0F4273009F442C0283009F04DC029
:103950004EE0489F9001499F300D1124C9018257C4
:103960009D4FFC01E60FF71F88E42FC02C3091F02B
:103970002D30F1F02A30C9F54EE0489F9001499F63
:10398000300D1124C90182579D4FFC01E60FF71F2E
:103990008AE41BC04EE0489F9001499F300D1124DE
:1039A000C90182579D4FFC01E60FF71F8AE80DC041
:1039B0004EE0489F9001499F300D1124C901825764
:1039C0009D4FFC01E60FF71F88EC808308953EE0D1
:1039D000389FA001399F500D1124CA0182579D4F75
:1039E000FC01E60FF71F208308953EE0389FF001A9
:1039F000399FF00D1124E257FD4FE60FF71F20838A
:103A00002B3041F490938802809387027093860252
:103A1000609385020895CF93DF93462FC09174027F
:103A2000D0917502A82FB0E0AA0FBB1FAD5FBE4FAB
:103A3000FE01D7FD379683E0F595E7958A95E1F786
:103A40008D919C91E80FF91F24913196E49130E01B
:103A5000322F22272E0F311DE42FF0E0CE0168E037
:103A600070E00E947138BC0180E190E0861B970BEA
:103A70008E1B9F0B02C0359527958A95E2F7CE0FD6
:103A8000DF1FD0937502C093740281E090E002C002
:103A9000880F991F4A95E2F701978223DF91CF9112
:103AA0000895089580E090E008950E949F380C9456
:103AB0000337DC01ED91FC910190F081E02D099438
:103AC000EF92FF920F931F93CF93DF938C017B01B3
:103AD000C0E0D0E0F701EC0FFD1F6491662361F0B8
:103AE000D801ED91FC910190F081E02DC80109957C
:103AF000892B11F02196EECFCE01DF91CF911F914E
:103B00000F91FF90EF9008956115710579F0FB0119
:103B100001900020E9F73197AF01461B570BDC01FC
:103B2000ED91FC910280F381E02D099480E090E01A
:103B300008958F929F92AF92BF92EF92FF920F9350
:103B40001F93CF93DF93CDB7DEB7A1970FB6F8944D
:103B5000DEBF0FBECDBF7C01FA01CB0119A222301E
:103B600008F42AE08E010F5D1F4F822E912CA12CAC
:103B7000B12CBF01A50194010E941937F901CA01B6
:103B8000015011096A3014F4605D01C0695CD8010C
:103B90006C93232B242B252B61F7B801C7010E94BE
:103BA000841DA1960FB6F894DEBF0FBECDBFDF9186
:103BB000CF911F910F91FF90EF90BF90AF909F908A
:103BC0008F900895833081F028F4813099F082300D
:103BD000A1F008958730A9F08830B9F08430D1F48D
:103BE000809180008F7D03C0809180008F778093CB
:103BF0008000089584B58F7702C084B58F7D84BD21
:103C000008958091B0008F7703C08091B0008F7DC0
:103C10008093B00008951F93CF93DF93282F30E057
:103C2000F901E95EF84C8491F901ED5FF84CD4910B
:103C3000F901E151F94CC491CC23C1F0162F811147
:103C40000E94E21DEC2FF0E0EE0FFF1FE05BFB4C4B
:103C5000A591B4919FB7F894111104C08C91D0959F
:103C6000D82302C0EC91DE2BDC939FBFDF91CF9174
:103C70001F910895CF93DF9390E0FC01ED5FF84C26
:103C80002491FC01E151F94C8491882361F190E089
:103C9000880F991FFC01EA5BFB4CC591D491FC0194
:103CA000E05BFB4CA591B491611109C09FB7F894FA
:103CB0008881209582238883EC912E230BC062306B
:103CC00061F49FB7F8948881322F309583238883DD
:103CD000EC912E2B2C939FBF06C08FB7F894E881F0
:103CE0002E2B28838FBFDF91CF9108951F93CF9301
:103CF000DF93182FEB0161E00E943A1E209711F428
:103D000060E004C0CF3FD10539F461E0812FDF913D
:103D1000CF911F910C940B1EE12FF0E0E95EF84C5F
:103D2000E491E330F9F048F4E130B9F0E230A1F584
:103D300084B5806284BDC8BD34C0E730E9F0E830A6
:103D400019F1E43049F58091800080628093800011
:103D5000D0938B00C0938A0024C084B5806884BD52
:103D6000C7BD1FC080918000806880938000D09381
:103D70008900C093880015C08091B000806880934E
:103D8000B000C093B3000DC08091B00080628093FA
:103D9000B000C093B40005C0C038D1050CF0B5CF59
:103DA000AFCFDF91CF911F9108953FB7F8948091E5
:103DB0007D0290917E02A0917F02B091800226B593
:103DC000A89B05C02F3F19F00196A11DB11D3FBF53
:103DD000BA2FA92F982F8827820F911DA11DB11DE1
:103DE000BC01CD0142E0660F771F881F991F4A95DD
:103DF000D1F708958F929F92AF92BF92CF92DF92A8
:103E0000EF92FF926B017C010E94D51E4B015C0179
:103E1000C114D104E104F104F1F00E94D51EDC01CB
:103E2000CB0188199909AA09BB09883E9340A105CD
:103E3000B10570F321E0C21AD108E108F10888EE5B
:103E4000880E83E0981EA11CB11CC114D104E104AA
:103E5000F10419F7DDCFFF90EF90DF90CF90BF9086
:103E6000AF909F908F9008951F920F920FB60F9270
:103E700011242F933F938F939F93AF93BF93809180
:103E8000C1039091C203A091C303B091C4033091C8
:103E90007C0223E0230F2D3720F40196A11DB11DD4
:103EA00005C026E8230F0296A11DB11D20937C02B8
:103EB0008093C1039093C203A093C303B093C40340
:103EC00080917D0290917E02A0917F02B09180024C
:103ED0000196A11DB11D80937D0290937E02A09357
:103EE0007F02B0938002BF91AF919F918F913F91DC
:103EF0002F910F900FBE0F901F9018951F920F9249
:103F00000FB60F9211242F933F934F935F936F93AC
:103F10007F938F939F93AF93BF93EF93FF936091A2
:103F2000B103611102C080E023C0809178028F5FED
:103F3000809378029091B5038917A8F39091BD03FF
:103F400081E089278093BD03109278028091B903A4
:103F5000882369F08091000193E4899F802D1124CA
:103F6000895B809300010E9465389093AD0381E0E6
:103F70006091B203662319F1909179029F5F90934B
:103F800079022091B6039217D0F09091BE0381E0A0
:103F900089278093BE03109279028091BA03882307
:103FA00069F08091000193E4899F802D1124895B41
:103FB000809300010E9465389093AE0381E0609188
:103FC000B303662319F190917A029F5F90937A026E
:103FD0002091B7039217D0F09091BF0381E0892719
:103FE0008093BF0310927A028091BB03882369F00B
:103FF0008091000193E4899F802D1124895B809337
:1040000000010E9465389093AF0381E06091B40392
:10401000662319F190917B029F5F90937B02209120
:10402000B8039217D0F09091C00381E08927809364
:10403000C00310927B028091BC03882379F08091A9
:10404000000193E4899F802D1124895B80930001F6
:104050000E9465389093B00301C081110E94311C09
:10406000FF91EF91BF91AF919F918F917F916F9150
:104070005F914F913F912F910F900FBE0F901F9026
:104080001895643030F570E09C01260F371FF90158
:10409000ED5AFF4F108238971082AB01440F551F25
:1040A000FC01E40FF51FED57FF4F11821082F9015B
:1040B000E95AFF4F1082FB01E355FC4F1082FB01D0
:1040C000EF54FC4F1082FB01E354FC4F10820C9420
:1040D000311C0895EF92FF920F931F93CF93DF93BC
:1040E0008C017B01C42FD0E0443038F4642F0E944F
:1040F0004120F801EC0FFD1F1482FE01EE0FFF1F9F
:10410000E00FF11FF4A6E3A6FF9611821082F801DA
:10411000EC0FFD1F81E08483DF01A15BBF4F89E0CD
:104120008C931C961C9218961C92E559FF4F108296
:10413000DF91CF911F910F91FF90EF90089540E094
:1041400062E773E30C946A20FC01643508F053C005
:10415000403308F050C090A1742F759575957595F2
:10416000262F062E000C330B542F57709230A1F4DB
:10417000F90184E57802E00DF11D1124EB53FC4FA9
:10418000808190E0052E02C0959587950A94E2F70C
:104190008095982F91700AC0933041F48485817086
:1041A000462740954170841303C014C0911112C07A
:1041B00084E57802200D311D1124F901EB53FC4FE9
:1041C00081E090E001C0880F5A95EAF780959081D0
:1041D000892310C084E57802200D311D1124F901D6
:1041E000EB53FC4F81E090E001C0880F5A95EAF74D
:1041F0009081892B80830895EF92FF920F931F93F4
:10420000CF93DF938C01F62ED42FE22EC0E0CE1593
:1042100044F46F2D6C0F4D2FC8010E94A420CF5F76
:10422000F6CFDF91CF911F910F91FF90EF900895FE
:104230002F923F924F925F926F927F928F929F92B6
:10424000AF92BF92CF92DF92EF92FF920F931F93A4
:10425000CF93DF93EC016A3011F42885C1C06D3033
:1042600009F4C5C0698483E586150CF4A3C07A847B
:104270008FE287150CF49EC008858C8190E0019731
:10428000089F9001099F300D1124C901860D911DD1
:1042900067FC9A95181619060CF08CC02D81872D95
:1042A000072C000C990B029F800D911D11241816EC
:1042B00019060CF07FC038A0462CC62CE62EF12C37
:1042C000A02E002E000CBB08EC2DE6190E2E000CC3
:1042D000FF0B8C8190E0E817F9070CF06AC001979A
:1042E000E817F90779F0E89E9001E99E300DF89EF5
:1042F000300D1124E20FF31F8E8D9F8DE80FF91FF3
:10430000149101C010E0D72C572C252D2719022E0F
:10431000000C330B8D8190E0281739070CF046C054
:1043200010FF1DC0013031F4452D6C2DCE010E94CF
:10433000A42038C02D2C45018D0C911CD7FC9A94DB
:10434000822D022C000C990B881599055CF5202F05
:10435000422D642DCE010E94FC202394F1CF89A12F
:1043600098A18917F9F088A3013031F4452D6C2DFF
:10437000CE010E94A42015C02D2C45018D0C911C4E
:10438000D7FC9A94822D022C000C990B8815990564
:1043900044F4202F422D642DCE010E94FC20239452
:1043A000F1CF38A216955394D00EAFCFC394400EE0
:1043B0008BCF38A228853C818985239F800D1124CD
:1043C00089879F81992399F0082E000C990B44E569
:1043D00050E0239F401951091124481759073CF414
:1043E0009D818A85299F800D11248A87198681E005
:1043F00090E0DF91CF911F910F91FF90EF90DF90B0
:10440000CF90BF90AF909F908F907F906F905F9074
:104410004F903F902F9008950C940B37E0918702B6
:10442000809185029EE0E99FF0011124E257FD4F43
:10443000E80FF11D8CE0808381E08093A6038091DA
:10444000020181508093020108950F931F93CF932F
:10445000DF934830A9F038F4473009F042C0C62F46
:10446000D0E0219612C0493039F04A30D1F590E0C1
:104470008C010F5F1F4F14C0C62FD0E0219705C0DD
:1044800090E08C01015011090BC0082F10E0FE01D3
:104490009EE0899FE00DF11D1124E257FD4F0CC0F5
:1044A000C62FD0E08EE0809FF001819FF00D112497
:1044B000E257FD4FEC0FFD1F80818B3011F40E94FD
:1044C0000E228EE0809FB001819F700D11246257F3
:1044D0007D4FC60FD71F81E09881992319F080E0A6
:1044E00001C081E0DF91CF911F910F9108950F934B
:1044F0001F93CF93DF939EE0899FF0011124E25731
:10450000FD4FE60FF11DC081DC2FD07CCF70D03481
:1045100079F018F4DD2341F02AC0062F182FD03887
:1045200079F0D03CC9F023C0C730F1F0C7E01FC01C
:10453000CA30E1F0CAE01BC0CF5FCB3008F0C7E063
:104540004C2F602F812F0E9425228823A9F30FC0B2
:10455000C150C73008F4CAE04C2F602F812F0E9451
:1045600025228823A9F303C0C9E001C0C8E08C2F2D
:104570008D0FDF91CF911F910F910895BF92CF9230
:10458000DF92EF92FF920F931F93CF93DF93D82E7A
:10459000162FE82EF12CA70141505109C62FD0E06B
:1045A0009E01215031096EE0649FC001659F900D0E
:1045B000112482579D4FFC01E20FF31F40814B30C5
:1045C000E9F1FC01EC0FFD1F40814B30B9F1AE0168
:1045D0004F5F5F4FFC01E40FF51F80818B3071F15D
:1045E0006E9DC0016F9D900D112482579D4FFC015F
:1045F000E20FF31F70817B3009F1FC01E40FF51F1E
:1046000080818B30D9F0F70131966E9FC0016F9F8A
:10461000900D112482579D4FFC01E20FF31F208162
:104620002B3061F0FC01EC0FFD1F20812B3031F0AD
:10463000FC01E40FF51F80818B3011F40E940E22E3
:10464000BB24BA94BD0C40E001E0010F602F8B2D1C
:104650000E94811C40E0602F8D2D0E94811CCC2483
:10466000C394CD0C40E0602F8C2D0E94811C809162
:104670008C020FEF010F2EE0811121C02E9DC00191
:104680002F9D900D112482579D4FC80FD91F84E094
:10469000888344E0602F8B2D0E94811C44E0612FB1
:1046A0008B2D0E94811C44E0602F8D2D0E94811C67
:1046B00044E0602F8C2D0E94811C44E01FC02E9D81
:1046C000C0012F9D900D112482579D4FC80FD91FF7
:1046D000188240E0602F8B2D0E94811C40E0612FEA
:1046E0008B2D0E94811C40E0602F8D2D0E94811C2B
:1046F00040E0602F8C2D0E94811C40E0612F8C2DAA
:10470000DF91CF911F910F91FF90EF90DF90CF90AD
:10471000BF900C94811CFF920F931F93CF93DF9354
:10472000F42EC62FD0E0082F10E0FE019EE0899FF6
:10473000E00DF11D1124E257FD4F908194FF19C047
:1047400091819F70993069F028F4973051F098303A
:1047500041F00FC09A3029F09B3059F40E940E228C
:1047600008C06F5FDF91CF911F910F91FF900C9464
:10477000BE228EE0809F9001819F300D1124225730
:104780003D4FF901EC0FFD1F80818F7E8083CE01AC
:104790000196D901A80FB91F4C91411106C0FC9296
:1047A00010828C9180618C934CC0423011F0443067
:1047B000D1F5B8016F5F7F4F4EE0469F9001479F54
:1047C000300D112422573D4FF901E80FF91F508198
:1047D000511106C0D901AC0FBD1F2C912223B9F095
:1047E000B801615071094EE0469F9001479F300D1E
:1047F000112422573D4FF901E80FF91F80818111E3
:1048000020C0D901AC0FBD1F8C9181111AC0F0825C
:10481000409FC001419F900D112482579D4FC80FAA
:10482000D91F18820EC082E0F8120BC0453049F43F
:104830002296C20FD31F8881811103C0108284E1A8
:104840008883DF91CF911F910F91FF900895EF9290
:10485000FF920F931F93CF93DF93C82FD62F142F60
:104860006091A8067091A9068091AA069091AB0666
:104870002AE030E040E050E00E941937672B682BB7
:10488000692B09F0DCC0412F6D2F8C2F0C2F10E00D
:10489000780151E0E51AF108CD2FD0E05EE05E9D91
:1048A000F0015F9DF00D1124E257FD4FEC0FFD1F4D
:1048B0009081992331F198012F5F3F4F529FF00172
:1048C000539FF00D1124E257FD4FEC0FFD1F208187
:1048D0002223B9F0509F9001519F300D112422578F
:1048E0003D4FF901EC0FFD1F31975081552349F0E1
:1048F000FE0131962E0F3F1FD9012C912223E9F0A2
:104900009EC0473039F5FE0131969EE0909F9001A0
:10491000919F300D1124A90142575D4F7A01DA01B0
:10492000AE0FBF1F9C919F7051F09B3009F475C072
:104930000E947722CE0DDF1D3DC0473059F42EE096
:10494000209FC001219F900D112482579D4FE80F99
:10495000F91F5CC04930D9F49EE0909F9001919F6F
:10496000300D1124890102571D4FFE013197E00FD0
:10497000F11F90819F7041F09B3009F44EC00E945E
:104980007722C00FD11F16C0C00FD11F41C04830C1
:1049900019F59F7089F09B3009F43FC00E9477227F
:1049A0009EE0909F9001919F300D112422573D4F22
:1049B000C20FD31F888343C02EE02E9DF0012F9D90
:1049C000F00D1124E257FD4FEC0FFD1F209FC00199
:1049D000219F900D112418C04A3089F598012F5F4E
:1049E0003F4F9EE0F92EF29EF001F39EF00D112450
:1049F000E257FD4FEC0FFD1F90819F70B1F4F09EC8
:104A0000C001F19E900D112482579D4FC80FD91FF0
:104A1000888180628083188212C0DF91CF911F91BC
:104A20000F91FF90EF900C940E229B30B1F30E94F7
:104A30007722F09E9001F19E300D1124B7CFDF91C7
:104A4000CF911F910F91FF90EF9008950F931F93B7
:104A5000CF93DF9380E090E00E94571D813D09F0E5
:104A600048C081E090E00E94571D863609F041C0A1
:104A700082E090E00E94571D8933D9F583E090E0F1
:104A80000E94571D082F81E0011101C080E0809332
:104A90008C0284E090E00E94571DD82F8093820200
:104AA00085E090E00E94571D182F8093840286E0D5
:104AB00090E00E94571D8093020188E090E00E94E0
:104AC000571DC82F8093810289E090E00E94571DF6
:104AD0009D2FD11708F4912F909384029C2FC81713
:104AE00008F4982F90938302011101C0CD2FC09339
:104AF0008902DF91CF911F910F910895AF92BF92DC
:104B0000CF92DF92EF92FF920F931F93CF93DF9399
:104B1000C82F10928B02109275021092740210929C
:104B200077021092760268E00E940B1D80938A0241
:104B300024E1E22EF12C3EE0B32E0091760210919A
:104B40007702083181E018070CF047C061E08C2F34
:104B50000E940B1D8823A1F166E08C2F0E940B1D83
:104B6000C82E63E08C2F0E940B1D93E0A92EA80E87
:104B7000D0E0D12CDA1508F7009176021091770277
:104B8000083181E01807D4F4C8018C199D09B701D8
:104B90000E947138B89E9001B99E300D1124C90150
:104BA00082579D4FFC01E60FF71F80810E94931CE6
:104BB0000F5F1F4F1093770200937602DF5FDACF0B
:104BC00064E08C2F0E940B1D0E94931C0F5F1F4FEF
:104BD0001093770200937602B0CFDF91CF911F91AF
:104BE0000F91FF90EF90DF90CF90BF90AF9008951E
:104BF00080918902853920F590918C02911106C02F
:104C0000909182029F5F9093820205C090918102F1
:104C10009F5F90938102209182029091840292176B
:104C200008F4922F90938402209181029091830244
:104C3000921708F4922F909383028F5F80938902DA
:104C4000809189020C947E250F931F93282F220FA9
:104C500097E0960F920F9093010195E090938D024B
:104C6000A0918702B09188024091850250918602FE
:104C70009D01280F311D87FD3A959EE0929FF0011E
:104C8000939FF00D1124E257FD4FE40FF51FE60F3F
:104C9000F11D67FDFA950081E02FEF7E0E2F10E0E9
:104CA0000730110508F050C0F801EC5CFF4F0C9480
:104CB0008538611133C08091D8058930C1F41296CE
:104CC0008EE08A9FF0018B9FF00D1124E257FD4F7B
:104CD000E40FF51F808181110AC082E0808360E0CB
:104CE00081E00E94511C8AEE95E00E94CD308091B7
:104CF000D605893009F04FC02BC01F910F910C943D
:104D0000511C0E94511C80918B028F5F80938B02FB
:104D10008AEE95E01F910F910C94E12C8AEE95E0BC
:104D20001F910F910C949F2020918A0290918B02E9
:104D30009217A0F30E94511C8AEE95E00E94E12C8C
:104D40001F910F910C94F8251F910F910C940E2236
:104D5000209187023091880222503109809185028A
:104D6000909186024EE0429FF001439FF00D112486
:104D7000E257FD4FE80FF91F808181110CC082E0DE
:104D8000808360E08FEF0E94511C8AEE95E01F91B6
:104D90000F910C94CD301F910F91089510928902BC
:104DA00084E6809302011092840210928202109293
:104DB0008302109281021092A7031092A603089515
:104DC0002F923F924F925F926F927F928F929F921B
:104DD000AF92BF92CF92DF92EF92FF920F931F9309
:104DE000CF93DF93CDB7DEB72E970FB6F894DEBF23
:104DF0000FBECDBF4091B7065091B8066091B9067D
:104E00007091BA062FB7F8948091C1039091C203B4
:104E1000A091C303B091C4032FBF481B590B6A0B69
:104E20007B0B8091B60690E0A0E0B0E00091B20666
:104E30001091B3062091B4063091B50684179507FA
:104E4000A607B70730F4011511052105310509F052
:104E5000EFC3012B022B032B09F0E8C38091DC0583
:104E600081508E3F18F58091DB058130F9F48091F7
:104E7000FB058F5F6091FC0587FD09C0082E000CC3
:104E8000990B70E06F5F7F4F0E947138682F6093BD
:104E9000FB0581E996E39093BC068093BB0688E40A
:104EA0008093BD068AEE95E00E949F208091DC05EC
:104EB00081508E3F70F48091DA05813009F01EC474
:104EC00084E896E39093BC068093BB0688E48093C5
:104ED000BD0680E00E94A42E81E00E94A42E82E004
:104EE0000E94A42E83E00E94A42E25EC35E03E878C
:104EF0002D87BDEBAB2EB3E0BB2E19E2E12E16E001
:104F0000F12E05E1C02E06E0D02E49018901712C59
:104F100066246394D80199968C91882309F4DAC0A9
:104F20001801B0E72B0E311CF10180818111D2C034
:104F3000D6018D919C91D701ED91FC91EE0FFF1F51
:104F4000E80FF91F259134912115310511F5F8016C
:104F5000E05AFF4F2081222329F0F70111821082AD
:104F6000FC0115C0D80199961C92999795968C9141
:104F7000882361F1872D0E94A42ED701ED91FC9129
:104F8000EE0FFF1FD6018D919C91E80FF91F25911F
:104F900034912801B0E84B0E511CF801EC57FF4F3B
:104FA000FE83ED83C80188579F4F9A838983D80178
:104FB000A457BF4FBC83AB833C96F887EF830C9616
:104FC0009A8789875897BC87AB872EC0672D8AEE52
:104FD00095E00E9441207EC0C90156E096958795D4
:104FE0005A95E1F78F71932F9695969596959051D6
:104FF0004F704230B1F130F541111EC08B3008F0D6
:105000008AE0EB85FC858083D701ED91FC911197B7
:105010003196ED93FC93EE0FFF1FD6018D919C917D
:10502000E80FF91F25913491A9015695479556959A
:10503000479520FDD1CF2BC0413031F7672D0E941D
:10504000ED2EE2CF4330B9F04430F1F62091FA056D
:10505000289F802D1124AF81B8858C93E985FA852E
:1050600014C02091FA05289F802D1124D2018C9321
:10507000ED81FE810AC02091FA05289F802D112420
:10508000A981BA818C93EB81FC819083BDCFF8011B
:10509000E459FF4F4F7340838091FA05839F802D21
:1050A0001124F1018083F801E055FF4F1082F401D3
:1050B000E855FF4F11821082F801E858FF4F6082D7
:1050C000D5016C9234961082F7018081918101960E
:1050D0009183808373940F5F1F4FF2E08F0E911CBA
:1050E0002FEFA21AB20A32E0E30EF11C82E0C80EE2
:1050F000D11C94E079120ECFA5EBAA2EA3E0BA2E14
:10510000B1EBCB2EB3E0DB2E1DEA412E13E0512E86
:1051100005E716E08DE6E82E86E0F82E99EB892E5D
:1051200093E0992E25EC222E25E0322E712CED8570
:10513000FE85E858FF4F8081882309F42FC1ED8553
:10514000FE85E059FF4F8081811106C0672D8AEEF0
:1051500095E00E94412022C181508083D8018C912A
:10516000ED85FE85EC54FF4FFE83ED832D853E8556
:1051700028543F4F3A83298381114EC0D7018D9126
:105180009C9101969C01220F331FF101E856FF4FBD
:105190000190F081E02DE20FF31F45915491242FEF
:1051A0002770ED81FE812083BA01E3E07695679553
:1051B000EA95E1F79B0136952795352F369536957B
:1051C000A981BA813C932F733091FA05239F202D3A
:1051D0001124F80120836170D4016C93F70191834D
:1051E0008083ED85FE85E056FF4F208130E08217F9
:1051F000930790F0ED85FE85EC55FF4F8081882365
:1052000031F0281B3109D7012D933C9305C0672D40
:105210008AEE95E00E944120F801808181508083D0
:10522000ED85FE85E458FF4F20812F5F2083ED85BB
:10523000FE85E459FF4F3081A981BA814C91430F1B
:10524000ED85FE85E45BFF4F8081480FED85FE858F
:1052500045A7E857FF4F6081662399F070E0822FE1
:10526000022E000C990B0E947138ED85FE85E457E3
:10527000FF4F8081869F400D1124AD85BE859D9690
:105280004C93ED85FE8585A590E0CB966BE370E0B1
:105290000E94713885A7EC58FF4F4081AD85BE85CF
:1052A000D1964C93D197FD01E058FF4F6081662362
:1052B000A1F0062E000C770B822F022E000C990B0A
:1052C0000E947138ED85FE85EC57FF4F8081869FE7
:1052D000400D1124ED85FE8541ABED85FE85E0573F
:1052E000FF4F60816623D1F0822F220F990B70E06F
:1052F0000E947138CB0162E070E00E947138ED8548
:10530000FE85EC56FF4F2081AD85BE85D1969C91E0
:10531000D197289F900D1124D1969C93ED85FE8501
:105320003F3359F081A98A300CF089E087FD80E095
:10533000AD85BE85D1968C9301C011AAF894AD8538
:10534000BE859D96EC91F0E0E75BF94CE491D501C8
:10535000EC93ED85FE8531A9E454FF4F2081AD81AA
:10536000BE814C913203900111244203C001439F3E
:10537000900D11240090FB0502C0880F991F0A941C
:10538000E2F797FF02C081589F4F880F892F881F2F
:10539000990BF6018083D2018C9378947394ED85F8
:1053A000FE853196FE87ED87FFEFAF1ABF0A2FEF1C
:1053B000C21AD20A3FEF431A530A0F5F1F4F82E00F
:1053C000E80EF11C92E0290E311CAFEF8A1A9A0AFE
:1053D000B4E07B12ACCE8091BD06882309F463C093
:1053E0008C3020F4ECE0E81BE98301C0198281E0F5
:1053F00080938D061092A5061092A606F0918A065B
:10540000FB838F2F8D5F19811F1B0DE2010FE82E8B
:10541000880FFF08E00EF11C07FDFA94802F002E84
:10542000000C990B8E159F054CF42EE4402F63E081
:1054300085E896E00E94FC200F5FF0CF2B8124507E
:105440002B83105D41E0612F80E50E94482E2B8167
:1054500042E0612F83E00E94482E81E08093A50600
:105460008093A60680918A0663E0680F3981381B15
:10547000832F835D0E940D2E84E080938E068091A1
:105480008A069981981B915D90938F066091BB0667
:105490007091BC0685E896E00E94601D8091BD0673
:1054A00081508093BD068091E1059091E205892BA2
:1054B00009F494C081E08093A5061092A60690910D
:1054C000890685E5891B80938E0610928F06609170
:1054D000DE05613009F463C030F08091DD05653090
:1054E00008F075C070C00EEE15E0198269818AEE71
:1054F00095E00E944120D8011D928D01B981BF5FC6
:10550000B983B43099F781E080938D06E7ECF4E33A
:10551000E491EF5FE0938906E8ECF4E3E491EF5F58
:10552000E0938A0689EC94E39093A4068093A30603
:105530001092E2051092E10510928B06E8EAE983E9
:105540000E94E0268823E1F369EB74E385E896E0A6
:105550000E94601D4091DF055091E00560E070E021
:105560002AE085E896E00E94991D64EA74E385E8E4
:1055700096E00E94601D698162956F7070E085E819
:1055800096E00E94D72D69E974E385E896E00E94D1
:10559000601D8091DA05813009F094C01FC08091B0
:1055A000A8069091A906A091AA06B091AB068F70AB
:1055B0009927AA27BB270897A105B10510F467E032
:1055C00009C068E707C0882349F06B5F03C08823E0
:1055D00029F06FE285E896E00E94591D0E949C2DFB
:1055E00080918B0681110EC088EF91E0E5ECF3E02D
:1055F000DF019C011D9221503040E1F710928E0690
:1056000010928F060E94D51E6093B2067093B30667
:105610008093B4069093B5062091AE063091AF0604
:10562000621B730B7093AD066093AC0680E06CC098
:105630002FB7F8948091C1039091C203A091C30346
:10564000B091C4032FBF2091B606820F911DA11DFA
:10565000B11D8093B7069093B806A093B906B09396
:10566000BA068091A8069091A906A091AA06B091C9
:10567000AB060196A11DB11D8093A8069093A906C3
:10568000A093AA06B093AB061092B2061092B3068E
:105690001092B4061092B5060E94D51E6093AE0615
:1056A0007093AF068093B0069093B1060E94282FA6
:1056B0008091E1059091E205892B11F00E94BD2FA8
:1056C00081E022C0398131503983311139CF60E016
:1056D00070E08FEF0E94761E83B7817F846083BF66
:1056E00083B7816083BF83B7816083BF889583B7A9
:1056F0008E7F83BF83B78E7F83BF22CF893209F02D
:10570000E8CB0E94862FE5CB2E960FB6F894DEBF2D
:105710000FBECDBFDF91CF911F910F91FF90EF9002
:10572000DF90CF90BF90AF909F908F907F906F90C1
:105730005F904F903F902F9008952F923F925F92ED
:105740006F927F928F929F92AF92BF92CF92DF9291
:10575000EF92FF920F931F93CF93DF93EC01F90128
:10576000E4903196849164350CF019C10E2C000C34
:10577000FF08062F062E000C110BF701E00FF11F9A
:105780001E161F060CF00BC140330CF008C1A82FE9
:10579000C42E042E000CDD085601A80EB11C87FD96
:1057A000BA941A141B040CF0FAC02E5F3F4F570135
:1057B00097E0A90EB11CB7FE04C05701BEE0AB0EC6
:1057C000B11CB3E0B594A794BA95E1F747FF0AC0BE
:1057D000A42FA80FAC9CC001AD9C900D1124281BD8
:1057E000390B40E08A2F0A2E000C990B840F911D73
:1057F00047FD9A95C19714F0A0E3A41BF8A067FD9C
:1058000060E0E535F10514F0E4E5F0E09E2FCC858D
:10581000C427C62E062E000CDD08F601E01BF10B96
:105820008F014F01F7E08F229924E0E8F0E002C0F9
:10583000F595E7958A94E2F77E2F17FF02C0095F7E
:105840001F4FF3E015950795FA95E1F7200F311FEB
:10585000542F577081E001C0880F5A95EAF745959B
:1058600045954595F601B4E54B02E00DF11D112477
:10587000AF014B535C4FD0E02A2EAA0F3308EE2421
:10588000E394BB24ED2FF0E0E215F3050CF087C0A4
:10589000F9015490F1E0FF121AC0962E8A01E72F09
:1058A0006901991608F072C08E2E852021F0D8016A
:1058B0008C90882A8C92E69531F4BFEFCB1ADB0AE4
:1058C000F6015490E0E893940F5F1F4FEACFF11078
:1058D0001CC0782E7094962E8A01E72F69019916C4
:1058E00008F054C08E2E852021F0D8018C9087209E
:1058F0008C92E69531F4BFEFCB1ADB0AF601549097
:10590000E0E893940F5F1F4FEACFF3E0FF1629F012
:10591000962E8A01E72F690137C0682E6094862E83
:105920008A01972E69018916D8F4E92DE52159F0ED
:10593000D801EC91782C7C2670FE02C0E82B02C0C6
:10594000E621D801EC93969439F4BFEFCB1ADB0A29
:10595000F6015490E0E89E2E83940F5F1F4FE3CF33
:10596000CE2514C08E2E852021F0D8018C9088265B
:105970008C92E69531F4BFEFCB1ADB0AF601549016
:10598000E0E893940F5F1F4F991660F3880F19F4A6
:105990004C5A5F4F81E0DF5F2A0D3B1D73CFDF91D3
:1059A000CF911F910F91FF90EF90DF90CF90BF901C
:1059B000AF909F908F907F906F905F903F902F90CF
:1059C000089540E061E974E30C946A20AF92BF92BD
:1059D000CF92DF92EF92FF920F931F93CF93DF93BB
:1059E000182F062FC1E0D3E08AEFD82E9EEFE92EC4
:1059F000842F8470C82E842F8270B82E842F8870D4
:105A0000A82E4170F42E8C2F880F8F5FE80ECC20CB
:105A100081F0402F4D0F612F6C0F85E896E00E94BA
:105A2000A420402F4C0F6D2F610F85E896E00E9457
:105A3000A420BB2081F0402F4D1B612F6C0F85E807
:105A400096E00E94A420402F4C1B6D2F610F85E82B
:105A500096E00E94A420AA2081F0402F4C0F612FD5
:105A60006D1B85E896E00E94A420402F4D0F612F0A
:105A70006C1B85E896E00E94A420F1100AC0CD17A7
:105A8000CCF4E7FC04C0D150D394D394ED0CCF5F99
:105A9000BACF402F4C1B612F6D1B85E896E00E940A
:105AA000A420402F4D1B612F6C1B85E896E00E94BF
:105AB000A420E5CFDF91CF911F910F91FF90EF9040
:105AC000DF90CF90BF90AF9008950F931F93CF9327
:105AD000DF93D82F162F042FC0E0C0174CF4412FAE
