:100000000C9418050C9440050C9440050C94400584
:100010000C9440050C9440050C9440050C9440054C
:100020000C9440050C9440050C9440050C94F30787
:100030000C9440050C9440050C9440050C9440052C
:100040000C946D070C9440050C9440050C944005ED
:100050000C9440050C9440050C9440050C9440050C
:100060000C9440050C9440050101FF030101F703C6
:100070006C00680000000000240027002A00000037
:100080000000250028002B000500893008023802F6
:10009000497868140000484947483A000A55502FEB
:1000A000444F574E20746F2063686F6F73650A4129
:1000B00020746F2076616C69646174650044494600
:1000C000464943554C54593A0A200A0A2020534CB9
:1000D0004F570A20204E4F524D414C0A2020464196
:1000E00053540005077F4141417F3E5B4F5B3E3EDD
:1000F0006B4F6B3E183C783C18183C7E3C181C57E4
:100100007D571C1C5E7F5E1C007E43437E007E7319
:10011000737E007E7F7F7E7F4141417F30483A067B
:100120000E06297929067F4141417F60703F020414
:100130002A1C361C2A7F3E1C080000081C3E7F1427
:10014000227F22143C3C3C7EFF18423C817E3E6371
:1001500075633E3E616B633E3E636B6B3E04027FA4
:10016000020410207F201008082A1C08081C2A08F6
:1001700008143E554122637569756310181C1810E8
:10018000040C1C0C04000000000000005F000000D4
:1001900007000700147F147F14042A7F2A102313FA
:1001A00008646236495620500008070300001C22EC
:1001B00041000041221C002A1C3E1C2A08083E085F
:1001C0000800E060000008080808080060600000FF
:1001D00060100804033E5149453E00427F400062E2
:1001E000514949462141494D331814127F10274582
:1001F0004545393C4A4949304121110907364949A9
:100200004936064949291E00002400000080640088
:10021000000814224100141414141400412214087C
:1002200002015909063E415D594E7C1211127C7F34
:10023000494949363E414141227F4141221C7F4983
:100240004949417F090909013E414151327F08086E
:10025000087F00417F41002041413F017F08142277
:10026000417F404040407F020C027F7F0204087FB4
:100270003E4141413E7F090909063E416141BE7F41
:1002800009192946264949493201017F01013F40A8
:1002900040403F1F2040201F3F4038403F6314082C
:1002A000146303047804036151494543007F4141CD
:1002B0000003040810600041417F000402010204B1
:1002C0008080808080000307080020545478407F9D
:1002D000284444383844444428384444287F385417
:1002E000545418087E09090218A4A49C787F0804B5
:1002F000047800447D4000006080847D7F101028D9
:100300004400417F40007C047804787C0804047831
:100310003844444438FC1824241818242418FC7C3D
:10032000080404080854545420043F4444203C402A
:1003300040207C1C2040201C3C4020403C44281095
:1003400028444C9090907C4464544C4400083641BE
:100350000000007F00000041360800180408100C5F
:100360007F4141417F10137E004200563F4221579A
:10037000ABC8A13AEAA8A23AAAA8A23AAAA8A20A95
:100380007ABC86C3190C8111C23820440018061C9F
:100390000000A207A041084043D0400430000010F4
:1003A0000018061C0000BE07A0FF0FE0FFDFE0FF03
:1003B000FFE0FFFFE0100A0F007C80994088408D2D
:1003C000C0C620FDC0FE207FC01E00100A0F007FA7
:1003D00080FFC0FFC0FFC0FFE0FFC0FFE07FC01E86
:1003E0000018200000003FFFF02000103FFFF01C2D
:1003F00000E02000104800485800685800684C0091
:10040000C86400983A01701F03E007878000FC0071
:1004100000780000480000FC000303003FF0802447
:100420009F80249F80249FE0249210249E08249281
:10043000482492482012482032483FFFF83FDFF816
:1004400000000018207FFFF87FFFF87FFFF87FFF94
:10045000F87FFFF8FFFFFCFFFFFCFFFFFCFFFFFC46
:10046000FFFFFCFFFFFCFFFFFC7FFFF83FFFF00FEB
:10047000FFC001FE0001FE0007FF807FFFC07FFF7D
:10048000C07FFFC07FFFF07FFFF87FFFFC7FFFFC96
:100490007FFFFC7FFFFC7FFFFC7FFFFC7FFFFC7F7B
:1004A000FFFC7FFFFC100A0F003F807FC0FFC0FFF2
:1004B000C0FFE0FFC0FFE07FC01E00201900000069
:1004C00000000000000F80000010800070208000FD
:1004D0008827BFFD0424C2032424820124249249D6
:1004E000042092491C2082491C31C249901E3FFFC2
:1004F000F00C1FE370041FC17C04924984049249EC
:10050000040492411C0410473C0410C7200631E546
:100510002003FF3DE001DE1DE000000000000000C0
:100520000020191FC000003FE000F87FE001FCFF41
:10053000FFFFFEFFFFFFFFFFFFFFFFFFFFFFFFFFCC
:10054000FFFFFFFFFFFFFFFFFFFFFFFFFFFFFFFFBB
:10055000FFFFFFFFFFFFFE7FFFFFFF3FFFFFFF1FCC
:10056000FFFFFF1FFFFFFF1FFFFFFF1FFFFFFF1F1B
:10057000FFFFFF1FFFFFFE1FFFFFF80FFFFFF80742
:10058000FFFFF803FF3FF0464C41505059204249CD
:10059000524420636C6F6E650A0A484F5720544FCF
:1005A00020504C41590A2E4152524F57532F41204F
:1005B000746F20666C790A2E4220746F206D7574FA
:1005C000650A2E4320746F20726573657400401EA7
:1005D000000FFC00000000000010440000000000BC
:1005E0000020440000000000004044000007FC0020
:1005F0000047C4FFE3E444000040450414144400F1
:10060000004046040C0C4400004044040404440030
:100610000047C444444444000047C44444444400A4
:100620000044440404040400004446040C0E040086
:10063000004447041C1F0400007C7DFC747BC40044
:10064000007C7CFC6471040000000FC4445F0C005B
:100650000000082444511C0000000817C7D1F8000E
:100660000000080FC7D100000000088F9F3138003C
:1006700000000888A141440000000808C1818200F0
:100680000000080F81010100000008888711110097
:10069000000008888F11110000000808890101007E
:1006A00000000818898183000000083888C1C6004E
:1006B00000000FEFF87F7C0000000FCFF83F3800FC
:1006C000000A0A153A49676E6F7265006D560A0A8C
:1006D000504C45415345205455524E204F464620DC
:1006E000004C4F5720424154544552592120000399
:1006F000053F213F1208120A100A0E1C0E0C1E0C98
:10070000141A14161F161E131E1E1B1E1E1F1E3F1C
:10071000213F3A2F3A173D173F213F181F02040A85
:10072000041F0E04040E1F0A1F0A0E0E1F04110ED2
:100730002E252E2F2A2E262929021F02081F0815D2
:100740000E04040E150E15151B151B040604040CCF
:10075000040000000017000300031F0A1F16371AC9
:100760001904130A153A000300000E11110E000AB5
:10077000040A040E040030000404040010001804ED
:10078000031F111F121F101D151711151F07041F1E
:1007900017151D1F151D01011F1F151F17151F0000
:1007A0000A00003200040A110A0A0A110A0401159B
:1007B000020E11171E051E1F150A0E110A1F110E1B
:1007C0001F15111F05010E111D1F041F111F1108F8
:1007D000100F1F041B1F10101F061F1E040F0E11E9
:1007E0000E1F09060E112E1F051A121509011F01F1
:1007F0001F101F0F180F1F0C1F1B041B031C0319B6
:100800001513001F11030418111F000201022020FC
:10081000200001020C121E1F120C0C12120C121FCF
:100820000C1A14041E05242A1E1F021C141D10205D
:10083000201D1F0814111F101E041E1E021C0C1266
:100840000C3E0A040C123E1E040214160A020F1279
:100850000E101E0E100E1E081E120C1226281E321E
:100860002A26041E21001F00211E040102013F212F
:100870003FF6E8DBCFC3B8AEA49B928A827B746E4E
:1008800068625C57524E4945413E3A3734312E2C0E
:1008900029272523211F1D1C1A1917161514131299
:1008A00011100F0E0D0C0B0A090807064500680110
:1008B0000000172B152010204C4F414445520017C3
:1008C0002B16201314000A4E6F20534420636172CC
:1008D00064206F720A6E6F204C4F414445522E487F
:1008E00045580A0A153A45786974001D20466C611E
:1008F0007368696E670A20206C6F616465722E2EC2
:100900002E0A0A444F4E2754205455524E204F462B
:1009100046210000000000230026002900040404F2
:100920000404040404020202020202030303030398
:100930000301020408102040800102040810200175
:100940000204081020000000080002010000030457
:100950000700000000000000001018FFF080108366
:10096000F0C5D0FFF0CFF085D083F085D083F0853F
:10097000D083F085D083F085D083F085D083F08557
:10098000D083F085D083F085D083F0100A0F003C2F
:10099000807940F840FDC0C6208DC09E207FC01EDB
:1009A0000005003801680100001753440016137851
:1009B00000161314001510200015201000540A030F
:1009C000E181867F3E186D830F0F0E0183866033B1
:1009D000186DC3198F1803C38E6033186DE330CFC1
:1009E0001803C39E603630CDE360CF3006C79E7ECD
:1009F0003E30CDB360CF300CC6F6603330D9B66030
:100A0000CF33CFCCF66061B0DB1E60CF30D86CE660
:100A1000C061B0DB1E618F19986CC6C063B19B0EBC
:100A2000330F0FB078C6FF7E1F1B061E0F00961FE8
:100A300011241FBECFEFD8E0DEBFCDBF11E0A0E094
:100A4000B1E0E6E3F6E402C005900D92A634B107EA
:100A5000D9F724E0A6E4B1E001C01D92A43AB207A0
:100A6000E1F715E0C8E1D5E004C02197FE010E943E
:100A70000E23C731D107C9F70E9495170C9419238B
:100A80000C940000CF92DF92EF92FF920F931F938E
:100A9000CF93DF936C017A018B01C0E0D0E0CE15DB
:100AA000DF0581F0D8016D918D01D601ED91FC91AA
:100AB0000190F081E02DC6010995892B11F0219656
:100AC000EECF7E01C701DF91CF911F910F91FF9073
:100AD000EF90DF90CF9008958091A301882319F0C3
:100AE0008091930101C080E09091A401992319F0B5
:100AF00090919401890F9091A501992319F09091FB
:100B00009501890F9091A601992319F09091960172
:100B1000890F8093B4000895089580E090E00895CF
:100B20000E941423DC01ED91FC910190F081E02DF5
:100B30000994EF92FF920F931F93CF93DF938C0151
:100B40007B01C0E0D0E0F701EC0FFD1F649166234C
:100B500061F0D801ED91FC910190F081E02DC80188
:100B60000995892B11F02196EECFCE01DF91CF911F
:100B70001F910F91FF90EF9008956115710579F025
:100B8000FB0101900020E9F73197AF01461B570B9D
:100B9000DC01ED91FC910280F381E02D099480E06D
:100BA00090E008958F929F92AF92BF92EF92FF9242
:100BB0000F931F93CF93DF93CDB7DEB7A1970FB6F7
:100BC000F894DEBF0FBECDBF7C01FA01CB0119A2A4
:100BD000223008F42AE08E010F5D1F4F822E912CE7
:100BE000A12CB12CBF01A50194010E947520F9012F
:100BF000CA01015011096A3014F4605D01C0695CDA
:100C0000D8016C93232B242B252B61F7B801C70146
:100C10000E94BD05A1960FB6F894DEBF0FBECDBFF2
:100C2000DF91CF911F910F91FF90EF90BF90AF9008
:100C30009F908F900895833081F028F4813099F04F
:100C40008230A1F008958730A9F08830B9F084305F
:100C5000D1F4809180008F7D03C0809180008F77D8
:100C600080938000089584B58F7702C084B58F7D0E
:100C700084BD08958091B0008F7703C08091B0004B
:100C80008F7D8093B00008951F93CF93DF93282F1B
:100C900030E0F901EB5BF64F8491F901EF5CF64F20
:100CA000D491F901E35EF64FC491CC23C1F0162F25
:100CB00081110E941B06EC2FF0E0EE0FFF1FE2589F
:100CC000FF4FA591B4919FB7F894111104C08C9176
:100CD000D095D82302C0EC91DE2BDC939FBFDF912F
:100CE000CF911F910895CF93DF9390E0FC01EF5CCB
:100CF000F64F2491FC01E35EF64F8491882361F165
:100D000090E0880F991FFC01EC58FF4FC591D491DA
:100D1000FC01E258FF4FA591B491611109C09FB742
:100D2000F8948881209582238883EC912E230BC030
:100D3000623061F49FB7F8948881322F3095832315
:100D40008883EC912E2B2C939FBF06C08FB7F8940D
:100D5000E8812E2B28838FBFDF91CF9108951F93B9
:100D6000CF93DF93182FEB0161E00E947306209769
:100D700011F460E004C0CF3FD10539F461E0812F68
:100D8000DF91CF911F910C944406E12FF0E0EB5BD3
:100D9000F64FE491E330F9F048F4E130B9F0E23095
:100DA000A1F584B5806284BDC8BD34C0E730E9F0E8
:100DB000E83019F1E43049F5809180008062809339
:100DC0008000D0938B00C0938A0024C084B58068D3
:100DD00084BDC7BD1FC08091800080688093800063
:100DE000D0938900C093880015C08091B0008068BE
:100DF0008093B000C093B3000DC08091B0008062BA
:100E00008093B000C093B40005C0C038D1050CF089
:100E1000B5CFAFCFDF91CF911F9108953FB7F89431
:100E200080918F0190919001A0919101B0919201D8
:100E300026B5A89B05C02F3F19F00196A11DB11D35
:100E40003FBFBA2FA92F982F8827820F911DA11D70
:100E5000B11DBC01CD0142E0660F771F881F991FAD
:100E60004A95D1F708958F929F92AF92BF92CF92F9
:100E7000DF92EF92FF926B017C010E940E074B0103
:100E80005C01C114D104E104F104F1F00E940E07E9
:100E9000DC01CB0188199909AA09BB09883E934056
:100EA000A105B10570F321E0C21AD108E108F108EB
:100EB00088EE880E83E0981EA11CB11CC114D104D9
:100EC000E104F10419F7DDCFFF90EF90DF90CF90B0
:100ED000BF90AF909F908F9008951F920F920FB682
:100EE0000F9211242F933F938F939F93AF93BF93B0
:100EF0008091A7019091A801A091A901B091AA01A8
:100F000030918E0123E0230F2D3720F40196A11D8F
:100F1000B11D05C026E8230F0296A11DB11D209327
:100F20008E018093A7019093A801A093A901B0938B
:100F3000AA0180918F0190919001A0919101B091AF
:100F400092010196A11DB11D80938F019093900194
:100F5000A0939101B0939201BF91AF919F918F9116
:100F60003F912F910F900FBE0F901F90189550E05A
:100F7000DA01AA0FBB1FA80FB91FD3963C91D397D4
:100F8000D4962C91D497E32FF22FE60FF11DE60FA4
:100F9000F11D25913491AD58BF4F2D933C93F9012C
:100FA00065917491FC017089769F602D1124840FE6
:100FB000951FFC01E558FF4F6083F901A591B4919D
:100FC0004B2F50E0E62FF0E04E175F0720F4F901B9
:100FD00025913491632FFC01E158FF4F769F602DDE
:100FE0001124608308951F920F920FB60F9211245F
:100FF0002F933F934F935F936F937F938F939F9321
:10100000AF93BF93EF93FF9360919701611102C07B
:1010100080E023C080918A018F5F80938A01909144
:101020009B018917A8F39091A30181E08927809300
:10103000A30110928A0180919F01882369F0809119
:10104000020193E4899F802D1124895B8093020122
:101050000E94DA229093930181E0609198016623C7
:1010600019F190918B019F5F90938B0120919C01CE
:101070009217D0F09091A40181E089278093A40178
:1010800010928B018091A001882369F08091020168
:1010900093E4899F802D1124895B809302010E9433
:1010A000DA229093940181E060919901662319F10D
:1010B00090918C019F5F90938C0120919D019217DC
:1010C000D0F09091A50181E089278093A50110922D
:1010D0008C018091A101882369F08091020193E441
:1010E000899F802D1124895B809302010E94DA225E
:1010F0009093950181E060919A01662319F1909196
:101100008D019F5F90938D0120919E019217D0F0E9
:101110009091A60181E089278093A60110928D010C
:101120008091A201882379F08091020193E4899F44
:10113000802D1124895B809302010E94DA22909312
:10114000960101C081110E946C05FF91EF91BF9142
:10115000AF919F918F917F916F915F914F913F914F
:101160002F910F900FBE0F901F901895643030F59F
:1011700070E09C01260F371FF901ED5AFF4F1082D6
:1011800038971082AB01440F551FFC01E40FF51F87
:10119000ED57FF4F11821082F901E95AFF4F10827B
:1011A000FB01ED56FE4F1082FB01E956FE4F108207
:1011B000FB01ED55FE4F10820C946C050895EF92E3
:1011C000FF920F931F93CF93DF938C017B01C42F6A
:1011D000D0E0443038F4642F0E94B608F801EC0FD8
:1011E000FD1F1482FE01EE0FFF1FE00FF11FF4A69A
:1011F000E3A6FF9611821082F801EC0FFD1F81E03B
:101200008483DF01A15BBF4F89E08C931C961C9205
:1012100018961C92E559FF4F1082DF91CF911F91D4
:101220000F91FF90EF900895DC01FB0184918F5F97
:1012300014968C9314973196E491EF5F1596EC9386
:1012400015976E5F7F4F5F967C936E935E970895C0
:10125000FC01643508F053C0403308F050C090A141
:10126000742F759575957595262F062E000C330BEA
:10127000542F57709230A1F4F90184E57802E00D03
:10128000F11D1124EC55FD4F808190E0052E02C028
:10129000959587950A94E2F78095982F91700AC0EA
:1012A000933041F4848581704627409541708413C2
:1012B00003C014C0911112C084E57802200D311DC5
:1012C0001124F901EC55FD4F81E090E001C0880F39
:1012D0005A95EAF780959081892310C084E57802B9
:1012E000200D311D1124F901EC55FD4F81E090E0F6
:1012F00001C0880F5A95EAF79081892B8083089561
:10130000CF92DF92EF92FF920F931F93CF93DF93D1
:101310007C01D62EC22EC42F002E000C110B040F00
:10132000111D47FD1A958C2F0C2E000C990B801760
:1013300091076CF4D0E0DC1544F46D2D6D0F4C2F4B
:10134000C7010E942809DF5FF6CFCF5FECCFDF91A6
:10135000CF911F910F91FF90EF90DF90CF90089564
:101360006F927F928F929F92AF92BF92CF92DF92B5
:10137000EF92FF920F931F93CF93DF93EC016A30AC
:1013800011F42885A3C06D3009F4A7C0A98483E5B2
:101390008A150CF485C0BA848FE28B150CF480C0DA
:1013A000D8848C8190E00197D89E9001D99E300D11
:1013B0001124C9018A0D911DA7FC9A9518161906CA
:1013C0000CF06EC02D818B2D0B2C000C990BD29E36
:1013D000800D911D1124181619060CF061C088A00B
:1013E0009A2CCA2CE62EF12CEC2DEA190E2E000CAC
:1013F000FF0B8C8190E0E817F9070CF050C00197C3
:10140000E817F90779F0E89E9001E99E300DF89E03
:10141000300D1124E20FF31F8E8D9F8DE80FF91F01
:10142000149101C010E06B2C7B2C272D2B19022E60
:10143000000C330B8D8190E0281739076CF510FFF5
:1014400011C081E0D81206C0472D6C2DCE010E943C
:1014500028091EC00D2D2D2D462D692DCE010E946F
:10146000800916C089A198A1891791F088A381E00D
:10147000D81206C0472D6C2DCE010E94280907C046
:101480000D2D2D2D462D692DCE010E94800988A29B
:10149000169573946D0CC9CFC3949D0CA5CF88A2EB
:1014A00028853C818985239F800D112489879F8110
:1014B000992399F0082E000C990B44E550E0239FE6
:1014C000401951091124481759073CF49D818A8518
:1014D000299F800D11248A87198681E090E0DF9191
:1014E000CF911F910F91FF90EF90DF90CF90BF9021
:1014F000AF909F908F907F906F90089580917C0126
:101500009FEF980F933020F48F5F80937C010895B4
:1015100010927C0108958F929F92AF92BF92CF92CA
:10152000DF92EF92FF920F931F93CF93DF93C090C0
:10153000C501D090C601C094D094E12CF12C0E943A
:101540000E074B015C010E940E07A5019401209536
:1015500030954095509560957095809590950E9436
:10156000CA229B01AC01C701B6010E94CA226B01CD
:101570007C016091AC017091AD014B01A12CB12CAB
:101580000E940E07DC01CB01880D991DAA1DBB1D11
:10159000BC01CD016C0D7D1D8E1D9F1D611571055A
:1015A0008105910511F00E943A200CE411E0C4E598
:1015B000D0E08FE0C82ED12CE12CF12CBE010D2EF5
:1015C000000C880B990B0E945021F80160837183F5
:1015D000828393830E94EC1FA70196010E944320FF
:1015E000665E7F4F8F4F9F4F0E945021F8016483AA
:1015F0007583868397836E96045F1F4FCE3AD1051D
:10160000E9F680E090E0A0E6B1E480938201909357
:101610008301A0938401B093850110927D01109203
:101620007E0110927F011092800110928801109229
:101630007C01609148017091490180914A0190912B
:101640004B010E9450216B017C0120E030E040E022
:101650005FE30E941321811124C0F09081016F2D5E
:1016600070E080E090E00E94502120915401309180
:10167000550140915601509157010E945822181669
:101680000CF068C06F2D70E080E090E00E944E2169
:1016900060935401709355018093560190935701C4
:1016A00059C020E030E040E85FE3C701B6010E9486
:1016B0001321811123C0F09081016F2D70E080E033
:1016C00090E00E9450212091600130916101409191
:1016D0006201509163010E9458221816DCF56F2DAB
:1016E00070E080E090E00E944E2160936001709372
:1016F000610180936201909363012CC020E030E08F
:1017000040E050E4C701B6010E941321811122C0BC
:10171000F09081016F2D70E080E090E00E945021F8
:1017200020916C0130916D0140916E0150916F01DB
:101730000E945822181674F46F2D70E080E090E03B
:101740000E944E2160936C0170936D0180936E0135
:1017500090936F01109281011092460110924701FF
:101760001092860180E380938701DF91CF911F91D2
:101770000F91FF90EF90DF90CF90BF90AF909F9030
:101780008F90089580918D02882331F06EEC75E082
:1017900080EC96E00E948A1580918D02882331F0BA
:1017A00060E070E087E895E00E948A150E948B0A4D
:1017B00081E08093010141E050E060E070E04093FF
:1017C00048015093490160934A0170934B01809303
:1017D000000108952F923F924F925F926F927F92F5
:1017E0008F929F92AF92BF92CF92DF92EF92FF9231
:1017F0000F931F93CF93DF93CDB7DEB72E970FB61E
:10180000F894DEBF0FBECDBF40919D0250919E0265
:1018100060919F027091A0022FB7F8948091A70168
:101820009091A801A091A901B091AA012FBF481BD6
:10183000590B6A0B7B0B80919C0290E0A0E0B0E01A
:10184000009198021091990220919A0230919B0286
:1018500084179507A607B70730F401151105210570
:10186000310509F032C4012B022B032B09F02BC4E4
:101870008091C20181508E3F30F58091C10181304D
:1018800011F58091E1018F5F6091E20187FD09C050
:10189000082E000C990B70E06F5F7F4F0E94E622CC
:1018A000682F6093E1018FEB98E09093A202809300
:1018B000A10288E48093A30240E06CEA78E080ED26
:1018C00091E00E94DF088091C20181508E3F70F448
:1018D0008091C001813009F05EC482EB98E0909362
:1018E000A2028093A10288E48093A30280E00E9478
:1018F000651481E00E94651482E00E94651483E013
:101900000E9465142BEA31E038872F8373EAC72ED3
:1019100071E0D72E0FE012E0EBEFEE2EE1E0FE2EAD
:1019200059013E872D87512C44244394AD85BE85B3
:1019300099968C919997882309F4EEC04D01B0E7F0
:101940008B0E911CF40180818111E6C0D7012D918D
:101950003C91D801ED91FC91EE0FFF1FE20FF31FB8
:1019600085919491009721F5ED85FE85E05AFF4F12
:101970008081882329F0F80111821082F90116C0B4
:10198000AD85BE8599961C92999795968C918823E2
:10199000C1F1852D0E946514D801ED91FC91EE0FE7
:1019A000FF1FD7018D919C91E80FF91F85919491AC
:1019B000ED85FE85E058FF4FFE83ED832D853E8546
:1019C0002C573F4F3A832983AD85BE85A857BF4F1B
:1019D000BC83AB83ED85FE85E457FF4FFA87E9872B
:1019E0002D853E8520573F4F3C872B872D843E8495
:1019F00034E9230E311C6D847E84A4E76A0E711CC9
:101A00002DC0652D80ED91E00E94B60885C0BC0117
:101A100036E0769567953A95E1F76F71892F86954F
:101A20008695869580512F702230B1F138F52111BD
:101A30001DC06B3008F06AE0F3016083D801ED91BE
:101A4000FC9111973196ED93FC93EE0FFF1FD70198
:101A50008D919C91E80FF91F859194919C01369589
:101A600027953695279580FDD2CF2DC0213031F7AF
:101A7000452D80ED91E00E94B707E0CF2330B9F00B
:101A80002430E1F69091E001969F602D1124AB8502
:101A9000BC856C93F10115C09091E001969F602D7B
:101AA0001124AD81BE816C93E981FA810AC09091C5
:101AB000E001969F602D1124AB81BC816C93E98578
:101AC000FA858083BBCFED85FE85E459FF4F2F73E8
:101AD00020838091E001899F802D1124F40180836F
:101AE000ED85FE85E055FF4F1082F501E855FF4F6B
:101AF00011821082ED85FE85E858FF4F4082D601A5
:101B00004C92ED85FE85E458FF4F1082F8018081EC
:101B1000918101969183808353942D853E852F5F1B
:101B20003F4F3E872D8732E0A30EB11C8FEFC81ABE
:101B3000D80A0E5F1F4F92E0E90EF11CA4E05A1282
:101B4000F5CEABE9AA2EA1E0BA2EB7E9CB2EB1E0D3
:101B5000DB2E13E9612E11E0712E0BE512E083E517
:101B6000E82E82E0F82E9FE9492E91E0592EEBEA0B
:101B7000F1E0FA83E983312CE981FA81E858FF4FDB
:101B80008081882309F42EC1E981FA81E059FF4F51
:101B90008081811106C0632D80ED91E00E94B6081E
:101BA00021C181508083D8018C91E981FA81EC5464
:101BB000FF4FFE83ED8329813A8128543F4F49012D
:101BC00081114EC0D7018D919C9101969C01220FED
:101BD000331FEF81F885E856FF4F0190F081E02D2B
:101BE000E20FF31F45915491242F2770ED81FE8160
:101BF0002083BA01E3E076956795EA95E1F79B01CA
:101C000036952795352F36953695D4013C932F730D
:101C10003091E001239F202D1124F8012083617071
:101C2000D2016C93F70191838083E981FA81E056B8
:101C3000FF4F208130E08217930790F0E981FA810D
:101C4000EC55FF4F8081882331F0281B3109D701E3
:101C50002D933C9305C0632D80ED91E00E94B60862
:101C6000F801808181508083E981FA81E458FF4F37
:101C7000808121E0280F2083E981FA81E459FF4F18
:101C80004081D4013C91340FE981FA81E45BFF4F3C
:101C90008081380FE981FA8135A7E857FF4F6081CD
:101CA000662399F070E0822F022E000C990B0E949F
:101CB000E622E981FA81E457FF4F8081869F300D4B
:101CC0001124A981BA819D963C93E981FA8185A569
:101CD00090E0CB966BE370E00E94E62285A7EC587B
:101CE000FF4F3081A981BA81D1963C93D197FD01F4
:101CF000E058FF4F60816623A1F0062E000C770BA1
:101D0000822F022E000C990B0E94E622E981FA81B3
:101D1000EC57FF4F8081869F300D1124E981FA81B5
:101D200031ABE981FA81E057FF4F60816623D1F042
:101D3000822F220F990B70E00E94E622CB0162E015
:101D400070E00E94E622E981FA81EC56FF4F208183
:101D5000A981BA81D1969C91D197289F900D112489
:101D6000D1969C93E981FA814F3359F081A98A3049
:101D70000CF089E087FD80E0A981BA81D1968C932F
:101D800001C011AAF894A981BA819D96EC91F0E066
:101D9000EF58F74FE491D501EC93E981FA8131A92D
:101DA000E454FF4F2081AD81BE814C9132039001FC
:101DB00011244203C001439F900D11240090E101C2
:101DC00002C0880F991F0A94E2F797FF02C081585A
:101DD0009F4F880F892F881F990BF6018083D301AD
:101DE0008C9378943394E981FA813196FA83E9836C
:101DF000FFEFAF1ABF0A2FEFC21AD20A3FEF631AE2
:101E0000730A0F5F1F4F82E0E80EF11CAF81B885A7
:101E10001296B887AF83BFEF4B1A5B0AE4E03E121D
:101E2000ABCE8091A302882309F493C08C3020F4B8
:101E3000FCE0F81BF98301C01982FF24F394F092AF
:101E4000730210928B0210928C02209170022B83ED
:101E50001981121B022F0D5F4DE2410F2EE463E04A
:101E60008BE692E00E9480093B8134503B83105DF9
:101E7000232F41E0612F80E50E9409142B8142E06D
:101E8000612F83E00E940914F0928B02F0928C0281
:101E90000091700293E0E92EE00E1981101B8DE293
:101EA000810F8B8323E0F22E4B816F2D8BE692E026
:101EB0000E942809F39491E5F912F6CFAB81AE0D9B
:101EC000AB83EA2EEA9483E0F82E4E2D6F2D8BE63D
:101ED00092E00E942809F394B1E5FB12F6CF03507B
:101EE000105D402F612F80E00E94F113402F612F81
:101EF00083E50E94F11341E0612F83E00E94721399
:101F000042E0612F80E50E947213EB81E450EB8385
:101F100044E06E2F80E50E94721348E06B8183E0FD
:101F20000E94721384E08093740280917002F981A0
:101F3000F81BF15DF09375026091A1027091A2020D
:101F40008BE692E00E9499058091A30281508093D4
:101F5000A3028091C7019091C801892B09F48BC01D
:101F600081E080938B0210928C0290916F0285E544
:101F7000891B80937402109275026091C4016130D4
:101F800009F45AC030F08091C301653008F06CC08C
:101F900067C004ED11E01982698180ED91E00E9433
:101FA000B608D8011D928D01B981BF5FB983B430E5
:101FB00099F781E0809373026FEE76E08BE692E012
:101FC0000E9414091092C8011092C7011092710268
:101FD000E8EAE9830E94EA0B8823E1F361EE76E008
:101FE0008BE692E00E9499054091C5015091C6018F
:101FF00060E070E02AE08BE692E00E94D2056CEC93
:1020000076E08BE692E00E949905498142954F70F7
:1020100050E060E070E02AE08BE692E00E94D2059A
:1020200061EC76E08BE692E00E9499058091C00118
:10203000813009F094C01FC080918E0290918F0270
:10204000A0919002B09191028F709927AA27BB2787
:102050000897A105B10510F467E009C068E707C05B
:10206000882349F06B5F03C0882329F06FE28BE679
:1020700092E00E9492050E943713809171028111B3
:102080000EC088EF91E0E4EAF2E0DF019C011D92CE
:1020900021503040E1F710927402109275020E94B4
:1020A0000E07609398027093990280939A0290931E
:1020B0009B022091940230919502621B730B7093E6
:1020C00093026093920280E06CC02FB7F8948091E5
:1020D000A7019091A801A091A901B091AA012FBFD9
:1020E00020919C02820F911DA11DB11D80939D0224
:1020F00090939E02A0939F02B093A00280918E02C3
:1021000090918F02A0919002B09191020196A11D31
:10211000B11D80938E0290938F02A0939002B09392
:102120009102109298021092990210929A021092C3
:102130009B020E940E076093940270939502809315
:102140009602909397020E94AE148091C7019091DD
:10215000C801892B11F00E94431581E022C039810A
:1021600031503983311136CF60E070E08FEF0E943B
:10217000AF0683B7817F846083BF83B7816083BFED
:1021800083B7816083BF889583B78E7F83BF83B712
:102190008E7F83BF1FCF893209F0A8CB0E940C1518
:1021A000A5CB2E960FB6F894DEBF0FBECDBFDF9144
:1021B000CF911F910F91FF90EF90DF90CF90BF9044
:1021C000AF909F908F907F906F905F904F903F90D7
:1021D0002F9008952F923F925F926F927F928F92ED
:1021E0009F92AF92BF92CF92DF92EF92FF920F93A6
:1021F0001F93CF93DF93EC01F901E4903196849122
:1022000064350CF019C10E2C000CFF08062F062EA9
:10221000000C110BF701E00FF11F1E161F060CF04A
:102220000BC140330CF008C1A82FC42E042E000CA3
:10223000DD085601A80EB11C87FDBA941A141B04C0
:102240000CF0FAC02E5F3F4F570197E0A90EB11C6A
:10225000B7FE04C05701BEE0AB0EB11CB3E0B594AD
:10226000A794BA95E1F747FF0AC0A42FA80FAC9C2A
:10227000C001AD9C900D1124281B390B40E08A2F22
:102280000A2E000C990B840F911D47FD9A95C1975A
:1022900014F0A0E3A41BF8A067FD60E0E535F105AC
:1022A00014F0E4E5F0E09E2FCC85C427C62E062E60
:1022B000000CDD08F601E01BF10B8F014F01F7E088
:1022C0008F229924E0E8F0E002C0F595E7958A9422
:1022D000E2F77E2F17FF02C0095F1F4FF3E015954D
:1022E0000795FA95E1F7200F311F542F577081E0C1
:1022F00001C0880F5A95EAF7459545954595F60131
:10230000B4E54B02E00DF11D1124AF014C555D4FBA
:10231000D0E02A2EAA0F3308EE24E394BB24ED2F3D
:10232000F0E0E215F3050CF087C0F9015490F1E0FC
:10233000FF121AC0962E8A01E72F6901991608F03C
:1023400072C08E2E852021F0D8018C90882A8C9224
:10235000E69531F4BFEFCB1ADB0AF6015490E0E8C2
:1023600093940F5F1F4FEACFF1101CC0782E70942A
:10237000962E8A01E72F6901991608F054C08E2E17
:10238000852021F0D8018C9087208C92E69531F43D
:10239000BFEFCB1ADB0AF6015490E0E893940F5F8D
:1023A0001F4FEACFF3E0FF1629F0962E8A01E72FA0
:1023B000690137C0682E6094862E8A01972E6901C4
:1023C0008916D8F4E92DE52159F0D801EC91782C43
:1023D0007C2670FE02C0E82B02C0E621D801EC93F7
:1023E000969439F4BFEFCB1ADB0AF6015490E0E87B
:1023F0009E2E83940F5F1F4FE3CFCE2514C08E2EE9
:10240000852021F0D8018C9088268C92E69531F4B5
:10241000BFEFCB1ADB0AF6015490E0E893940F5F0C
:102420001F4F991660F3880F19F44C5A5F4F81E0E3
:10243000DF5F2A0D3B1D73CFDF91CF911F910F916D
:10244000FF90EF90DF90CF90BF90AF909F908F90D4
:102450007F906F905F903F902F9008952F923F92C2
:102460004F925F926F927F928F929F92AF92BF92A4
:10247000CF92DF92EF92FF920F931F93CF93DF9350
:1024800000D000D000D0CDB7DEB7382E262E7A018E
:10249000802F211121C001111FC09A01462F632DE9
:1024A0008BE692E026960FB6F894DEBF0FBECDBF46
:1024B000DF91CF911F910F91FF90EF90DF90CF9020
:1024C000BF90AF909F908F907F906F905F904F9054
:1024D0003F902F900C94EA10F70194913196B490AC
:1024E000C92ED12CA601495F5F4FBA0133E0759523
:1024F00067953A95E1F77C836B8323702983AA243F
:10250000AA94A90E4A2C10E08B2C912C212F012E7D
:10251000000C330B2C153D050CF071C01A8317FF0E
:1025200003C077E0710F7A839A819595959595957B
:102530009A83912F977897FF03C09150986F9F5F70
:1025400020E8622E712C02C0759467949A95E2F788
:102550000FEF0B0D512CEA810E2E000CFF0B329663
:10256000FE83ED83252D052C000C330B2815390532
:102570000CF042C04B815C81429FF001439FF00D03
:10258000529FF00D11246D817E81E60FF71FEE0D35
:10259000FF1DE491F0E0E621F721EF2B51F1798165
:1025A000723039F0733041F0713049F4442D652DAB
:1025B00008C0642D402F05C0602F412F02C0452D5B
:1025C000612F882371F0982F93709A8380FF03C046
:1025D000EA2DE61B6E2F81FF05C0FB2DF41B4F2F4C
:1025E00001C01A82630D420D8BE692E00E94280919
:1025F0008A8153940150B6CF1F5F4A9487CF2696A5
:102600000FB6F894DEBF0FBECDBFDF91CF911F9103
:102610000F91FF90EF90DF90CF90BF90AF909F9081
:102620008F907F906F905F904F903F902F90089584
:10263000CF93C82FF89460E080917A020E944406FC
:1026400080917B0218161CF460E00E944406CEBD07
:1026500000000DB407FEFDCF8EB580917B021816E9
:102660001CF461E00E9444067894CF9108950F9382
:102670001F93CF93809177028F5F8093770204EA54
:1026800012E0C0E08C2F80640E94181380E80E9442
:10269000181361E080917A020E94440680917B02C7
:1026A00018161CF460E00E944406F80184E591913C
:1026B0009EBD00000DB407FEFDCF9EB58150B9F759
:1026C00080917B0218161CF461E00E944406CF5FE3
:1026D0000C5A1F4FC630B1F680E4CF911F910F9175
:1026E0000C941813AF92BF92CF92DF92EF92FF92A9
:1026F0000F931F93CF93DF93182F062FC1E0D3E0E2
:102700008AEFD82E9EEFE92E842F8470C82E842F56
:102710008270B82E842F8870A82E4170F42E8C2FD2
:10272000880F8F5FE80ECC2081F0402F4D0F612F76
:102730006C0F8BE692E00E942809402F4C0F6D2F02
:10274000610F8BE692E00E942809BB2081F0402FA8
:102750004D1B612F6C0F8BE692E00E942809402FE1
:102760004C1B6D2F610F8BE692E00E942809AA2076
:1027700081F0402F4C0F612F6D1B8BE692E00E9481
:102780002809402F4D0F612F6C1B8BE692E00E94B1
:102790002809F1100AC0CD17CCF4E7FC04C0D150D1
:1027A000D394D394ED0CCF5FBACF402F4C1B612F45
:1027B0006D1B8BE692E00E942809402F4D1B612F74
:1027C0006C1B8BE692E00E942809E5CFDF91CF9148
:1027D0001F910F91FF90EF90DF90CF90BF90AF903F
:1027E00008950F931F93CF93DF93D82F162F042FA5
:1027F000C0E0C0174CF4412F4C0F6D2F8BE692E0D8
:102800000E942809CF5FF5CFDF91CF911F910F91E3
:1028100008959F92AF92BF92CF92DF92EF92FF9274
:102820000F931F93CF93DF93F82EE62EB22E13E073
:10283000120FD0E0C3E08AEFC82E0EEF842F817014
:10284000982EAA24A394A20E4270D42EDF5F812F6B
:102850008B19080F992081F04C2F440F4A0D6E2DD3
:102860006C1B8D2F8F0D0E94F113412F6E2D6D1B50
:102870008C2F8F0D0E94F113D1100AC0DC17CCF4FD
:1028800007FD04C0C150C394C3940C0D1E5FDECF7E
:102890004C2F440F4A0D6E2D6C1B8F2D8D1B0E94EB
:1028A000F113412F6E2D6D1B8F2D8C1B0E94F11388
:1028B000E5CFDF91CF911F910F91FF90EF90DF90C7
:1028C000CF90BF90AF909F900895CF93DF93A82FA4
:1028D000B0E0ED01C555DE4F9DA1992309F43BC041
:1028E00099A5911138C0FE01E05CFF4F9081AA0FBD
:1028F000BB1FA555BE4FD8963C91D897D9962C9121
:10290000D997E32FF22FE90FF11DE90FF11D259162
:1029100034912F3F9FEF390711F41DA21CC0FE0117
:10292000E45BFF4F30835F963327220F331F95966A
:10293000ED91FC919697E20FF31F659174918430AD
:1029400028F4482F80ED91E00E94DF08C05CDF4F43
:1029500088818F5F8883DF91CF910895DF92EF9216
:10296000FF920F931F93CF93DF93CBEAD1E002EB5B
:1029700011E0EE24EA9462E08A850E9473062A85BB
:1029800030E0F901EB5BF64F8491F901EF5CF64F13
:10299000F490F901E35EF64FD490DD2071F08111DF
:1029A0000E941B06ED2DF0E0EE0FFF1FED5EF64FCF
:1029B000A591B491EC91FE2299F489898F5F898B5E
:1029C00060E08A850E94730621960C171D0799F610
:1029D000DF91CF911F910F91FF90EF90DF900895BD
:1029E0008989882389F38F3F11F4198AE9CFE98A0D
:1029F000E7CFCF93DF93BC018BE692E00E9499056D
:102A0000EC016BE371E08BE692E00E94BD058C0F58
:102A10009D1FDF91CF91089588EF91E0E4EAF2E005
:102A2000DF019C011D9221503040E1F710927402A9
:102A3000109275026BEE78E08BE692E00E949905A9
:102A40000E9437138CB583608CBD8DB58E7F8DBD94
:102A50008EE391E0EEEFFFE309951092710286ECB0
:102A600098E00E94F9140E9437130E94AE148091DE
:102A7000C001813039F062E370E080E090E00E94B4
:102A80003307F3CF0895CF93C091CF018C2F8F716F
:102A9000E1F583E480937C0080917A0080648093E8
:102AA0007A0080917A0086FDFCCF60917800809159
:102AB000790070E0782B072E000C880B990B0E9490
:102AC000502126EE3FE34EEC50E40E945D220E942E
:102AD0001F219B017093C6016093C501672B91F084
:102AE00084E08093C401E7ECF1E080E041915191F2
:102AF0002417350718F48093C4010AC08F5F84300F
:102B0000A9F703C08FEF8093C401CF5FC093CF01BB
:102B1000CF9108958F929F92AF92BF92EF92FF92C2
:102B20000F931F93CF93DF93EC018B0181E0809390
:102B3000730210927202109271021092C30180937C
:102B40008B0280938C028CE0F82E0E94EA0B882383
:102B5000E1F3FE018491882319F0E090700201C036
:102B6000E12C2DEB39E040E060E08BE692E00E9442
:102B7000EA100115110541F04CE04E0D980160E09E
:102B80008BE692E00E94EA1010927402F0927502B5
:102B9000BE018BE692E00E94990580916F02982F0A
:102BA000990F890F81958D5A8093740280917002DC
:102BB000982F990F890F8195835D8093750280917D
:102BC0008E0284FF03C089EB99E002C085EB99E097
:102BD0000E94F91480916F02982F990F890F8195A7
:102BE0008D5A80937402809175028F5F8093750275
:102BF0008091E101882319F081EB99E002C08DEA10
:102C000099E00E94F91480916F02982F990F890F13
:102C100081958D5A80937402809175028F5F8093A5
:102C2000750289EA99E00E94F9148091C10181300E
:102C3000C9F48091E1018F5F6091E20187FD09C0D5
:102C4000082E000C990B70E06F5F7F4F0E94E62208
:102C5000682F6093E10140E06CEA78E080ED91E05C
:102C60000E94DF088091C0018130A9F080918D021F
:102C7000482F50E060E070E080908E0290908F02CC
:102C8000A0909002B090910284169506A606B70611
:102C900008F18F3FF9F08FEF80938D0260E080EDB7
:102CA00091E00E94B6081092D40140E061EA79E018
:102CB00080ED91E00E94DF0881E08093C301DF9105
:102CC000CF911F910F91FF90EF90BF90AF909F9089
:102CD0008F9008958091C201813009F036CF0E9413
:102CE0000C1533CFCF93DF93EC0183E0CC0FDD1FC6
:102CF0008A95E1F7FE01ED5EFE4F96819B3008F06C
:102D00009AE090931F02CD5EDE4F40E0688180ED37
:102D100091E00E94B7078C8181959091E0012D810F
:102D2000299F202D112420932B0280932F028A812A
:102D30008A532B81299F202D1124209333028093C5
:102D400037028F81298120931702899F802D1124BA
:102D500080931B0210925B02109254021092530255
:102D600081E0809323028093A30110922702DF91D8
:102D7000CF9108956F927F928F929F92AF92BF9260
:102D8000CF92DF92EF92FF920F931F93CF93DF9337
:102D9000EBE88E2EE9E09E2EF401A491B0E0ECE881
:102DA000F9E02491F9E5AF2EF9E0BF2EF501349159
:102DB000EAE5F9E0E4917D01FCE0EF0EF11C6E150F
:102DC0007F059CF4EB01C30FD11DCD30D1056CF014
:102DD00030E06901C80ED91E4C155D0534F48A0136
:102DE0000E0F111D8017910714F080E08FC06D3019
:102DF00071050CF486C03B01ECE06E1A7108841773
:102E0000950724F4FA01E81BF90B02C0E0E0F0E0BA
:102E1000EC16FD0614F0DE011C97C016D1061CF05E
:102E20009801281B390B1E2FC0E8D0E09CE0C92E6A
:102E3000C61AD82ED41A412F50E042175307ACF6C9
:102E4000062DED2CE10EF12C802F90E08A179B07C8
:102E50000CF055C0F401649170E0695F7F4FE3E0CE
:102E600075956795EA95E1F7649FF001659FF00D10
:102E7000749FF00D112463E0959587956A95E1F7AD
:102E8000E80FF91FE357F64FE491802F8770BE01DA
:102E900002C0759567958A95E2F7F0E0E623F7237F
:102EA000EF2B91F1F501649170E0695F7F4F83E052
:102EB000759567958A95E1F7E69EC001E79E900DAE
:102EC000F69E900D11246C2D600FE62FF0E073E05C
:102ED000F595E7957A95E1F7E80FF91FE55AF64F72
:102EE000E4916770CE0102C0959587956A95E2F7E7
:102EF000F0E0E823F923EF2B39F081E007C01F5FF2
:102F00009ACF612C712C7BCF0F5F9ECFDF91CF9139
:102F10001F910F91FF90EF90DF90CF90BF90AF90F7
:102F20009F908F907F906F900895CF93DF9300D004
:102F300000D0CDB7DEB7789484B5826084BD84B507
:102F4000816084BD85B5826085BD85B5816085BDA4
:102F500080916E00816080936E001092810080915C
:102F600081008260809381008091810081608093E4
:102F70008100809180008160809380008091B10009
:102F800084608093B1008091B00081608093B00034
:102F900080917A00846080937A0080917A008260C8
:102FA00080937A0080917A00816080937A0080918A
:102FB0007A00806880937A001092C10082E3809347
:102FC0009C0281E090E0A0E0B0E0809398029093B2
:102FD0009902A0939A02B0939B028FEF80938D0287
:102FE000E0E8F7E7259134912130304C09F049C0F1
:102FF000E6E9F7E7E491E0937602E7E9F7E7E491A1
:10300000E093AF01E8E9F7E7E491E093B001E9E983
:10301000F7E7859194919093B2018093B101EBE928
:10302000F7E7859194919093B4018093B30187E081
:103030008093E201EEE9F7E7E491E093E101EFE943
:10304000F7E7E491E0938D02E0EAF7E78591949148
:103050009093C8018093C701E2EAF7E785919491C4
:103060009093CA018093C901E4EAF7E785919491AE
:103070009093CC018093CB01E6EAF7E78591949198
:103080002CC09CE3909376021092AF018093B00124
:1030900080E293E09093B2018093B10184ED93E0DC
:1030A0009093B4018093B30187E08093E201809311
:1030B000E1018CEA9DE09093C8018093C7018EEDF9
:1030C0009DE09093CA018093C90184E79EE09093AC
:1030D000CC018093CB018CE39FE09093CE01809351
:1030E000CD016FEF70E08FEF0E94AF0688E0809314
:1030F000B50189E08093B60187E08093B70186E04F
:103100008093B801A4E0A093B90182E08093BA0152
:1031100085E08093BB010E94AE148CE39FE0909306
:10312000C6018093C501B4E0B093C40181E08093EF
:10313000CF019BE0909379029DE09093780290E11B
:1031400090937A029EE090937C029FE090937B02A2
:103150008093730280938B0210928C028093720290
:103160006FEE76E08BE692E00E941409EFB7E983F8
:10317000F89480918901811127C0E7E2F9E08491F8
:10318000EBE3F9E09491E82FF0E0EE0FFF1FEC582D
:10319000FF4FA591B491EC91E92321F461E08AE01D
:1031A0000E94440661E08AE00E9473068CB580614B
:1031B0008CBD8CB580648CBD61E08DE00E9473068F
:1031C00061E08BE00E947306809189018F5F80939C
:1031D0008901F981FFBF8CB58F7D8CBD8CB58C7F4B
:1031E00081608CBD8DB581608DBD8CB58C608CBDD2
:1031F00061E0809179020E94730661E0809178021B
:103200000E94730661E080917A020E9473068091A9
:103210007C0218161CF461E00E94730680917B0208
:1032200018161CF461E00E94730680917C02181647
:1032300074F460E00E9444066AE070E080E090E090
:103240000E94330761E080917C020E9444068091D5
:103250007802082E000C990BFC01E35EF64FE49116
:10326000F0E0EE0FFF1FE258FF4F259134913093AD
:10327000800220937F02FC01EF5CF64FE491E09323
:10328000860280917902082E000C990BFC01E35E06
:10329000F64FE491F0E0EE0FFF1FE258FF4F25914B
:1032A000349130937E0220937D02FC01EF5CF64F57
:1032B000E491E093850280917B02082E000C990B2B
:1032C000FC01E35EF64FE491F0E0EE0FFF1FE258E1
:1032D000FF4F259134913093820220938102FC01AB
:1032E000EF5CF64FE491E093870280917A02082E1A
:1032F000000C990BFC01E35EF64FE491F0E0EE0F59
:10330000FF1FE258FF4F25913491309384022093A0
:103310008302FC01EF5CF64FE491E093880281E2C6
:103320000E94181384E10E9418138091760287FF8F
:1033300003C08FE7809376028091760280680E94B6
:10334000181380E20E9418138CE00E9418130E9448
:10335000371381E08093E00127E6E22E22E0F22E8F
:1033600003E012E0198230E7C32E30E0D32ED701FC
:10337000E1E0ED937D01D801CD92DD928D0149818F
:1033800060E080ED91E00E94B707B981BF5FB9832B
:10339000B43069F761E070E083E00E94AF0680918D
:1033A000B100887F81608093B100F8941092800012
:1033B00010928100109285001092840088E191E0C3
:1033C0009093890080938800809181008860809329
:1033D00081008091810081608093810080916F00E5
:1033E000826080936F0078948091C7019091C801AA
:1033F000892B11F00E9443158091C101813009F0A1
:103400001FC51092E1010E94C20B0E94EA0B8823A3
:1034100009F40EC580910101882309F410C1E091DF
:10342000BD01E983E13009F428C5F091BF01F983BA
:10343000F13009F43DC58091480190914901A09176
:103440004A01B0914B01B7FF0CC082E090E0A0E0D0
:10345000B0E08093480190934901A0934A01B09352
:103460004B018091480190914901A0914A01B0918E
:103470004B010397A105B10544F010924801109249
:10348000490110924A0110924B01109274028090EF
:10349000480190904901A0904A01B0904B01C501AC
:1034A000B4010E9450210E948B2120E030E040E0D6
:1034B00051E40E945D226B017C0120E030E040E895
:1034C00051E40E94A7200E941821609375020E9477
:1034D0007E0A91E090938B0290938C0280917C0104
:1034E00020E030E040EB51E4833050F0C701B601FA
:1034F0000E94A7200E941821462F25EB33E009C027
:10350000C701B6010E94A7200E941821462F2BE870
:1035100039E060E08BE692E00E94EA108091C00101
:103520008130A9F489288A288B2841F41092480117
:103530001092490110924A0110924B0140E061EA59
:1035400079E080ED91E00E94DF0810920101109275
:10355000740263EE70E08BE692E00E941409109210
:103560007402109275026DEB70E08BE692E00E949F
:1035700099056FEE76E08BE692E00E94140982E0F6
:10358000809375026CE970E08BE692E00E949905E9
:103590000CE411E0A9E1A983B1E3B0937402E981DD
:1035A000E093750266E970E08BE692E00E9499056F
:1035B000F981F093750226E420937402D8011896DD
:1035C000CD90DD90ED90FC901B9720E030E0A901BC
:1035D000C701B6010E94582220E030E040E05FE3DE
:1035E00087FD05C0C701B6010E94A72004C0C7011E
:1035F000B6010E94A6200E9418216B017C0197FF52
:103600000EC06DE28BE692E00E949205442755279A
:10361000BA014C195D096E097F092AE003C02AE04E
:10362000AB01BC018BE692E00E94D205B981B85F84
:10363000B983045F1F4FB13309F0AECFF9C3809156
:10364000C201813009F44FC48091C101813039F445
:1036500090910001913009F449C480930001809158
:10366000000118160CF481E087FD80E0809367026A
:1036700083E080938B0280938C0201E124E540E09B
:1036800060E08BE692E00E948009198210E103E07D
:1036900010928B0210928C0221EA33E04DE0698196
:1036A0008BE692E00E94EA10E1E0E0938B02E09367
:1036B0008C022DE833E04DE069818BE692E00E94B8
:1036C000EA1000938B0200938C0225E633E047E179
:1036D00069818BE692E00E94EA101150F981F05F57
:1036E000F9831111D5CF9CE4292E91E0392E3A822D
:1036F000298233E030938B0230938C02A981BA8106
:103700001496CD90DD90ED90FC901797C701B6010F
:103710000E9418216B83E981FA8140805180628088
:103720007380C301B2010E9418216C8308E12CE070
:103730004B818BE692E00E94800920E030E040EC73
:1037400051E4C701B6010E94A6204B015C0120E0B4
:1037500030E040EC51E40E94A6200E941821162F70
:103760002CE0462F6C818BE692E00E94800910923B
:103770008B0210928C0220E030E040E85FE3C7014A
:10378000B6010E94A7200E941821462F01E02CE0DC
:103790006C818BE692E00E94800920E030E040E0FE
:1037A00050E4C301B2010E94A7200E941821F62E06
:1037B00008E122E04B818BE692E00E94800920E044
:1037C00030E040E85FE3C501B4010E94A6200E94FA
:1037D0001821462F01E02CE06C818BE692E00E94DC
:1037E000800908E122E0412F6F2D8BE692E00E94D4
:1037F0008009F1E0F0938B02F0938C0229E539E027
:103800004B816C818BE692E00E94EA1002E020E09E
:1038100049E559E0612F8C810E942E1229813A815D
:10382000245F3F4F3A83298380E791E08217930713
:1038300009F05FCF91E090938B0290938C0201E0AE
:1038400024E54CE260E08BE692E00E948009A3E070
:10385000A0938B02A0938C0203E024E54DE260E08C
:103860008BE692E00E94800910928B0210928C02EB
:1038700001E024E54DE260E08BE692E00E948009E1
:1038800000938B0200938C0224E54FE260E08BE60C
:1038900092E00E948009198201E022E04EE26981F3
:1038A0008BE692E00E948009B981BC5FB983B83A87
:1038B00099F76FEE76E08BE692E00E941409109182
:1038C00081011A3010F000934601E1E0E0938B0291
:1038D000E0938C02F0914601F9832F2F30E02F5FA7
:1038E0003F4F4DEF42037001439FF00C112424E53C
:1038F000E20EF11CB70175956795072E000C880B39
:10390000990B0E9450210E948B213981330F330F74
:103910003B5F398320E030E040E85FE30E94A6206F
:103920000E94182107E0298143E08BE692E00E9483
:103930008009B701FF0C880B990B0E9450210E944F
:103940008B2120E030E040E05FE30E945D220E9496
:1039500018216093740284E08093750210928B02A8
:1039600010928C02412F50E060E070E02AE08BE67C
:1039700092E00E94D2056BE371E08BE692E00E9438
:10398000BD05809188018111D4C180918101833668
:1039900008F04DC12CEE31E548E35EE360917D0116
:1039A00070917E0180917F01909180010E94A720FB
:1039B00023E333E343E75FE30E945D226B017C0175
:1039C00060937D0170937E0180937F0190938001CD
:1039D00020918201309183014091840150918501B1
:1039E0000E94A7204B015C016093820170938301C8
:1039F000809384019093850120E030E0A9010E942A
:103A00005822181634F58091C001813009F071C236
:103A100020E030E040E05FEBC701B6010E94582291
:103A2000181684F420E030E040E050E4C701B6010D
:103A30000E94A62060937D0170937E0180937F0198
:103A40009093800180E090E00E94721681E0809364
:103A50007C0120E030E0A901C501B4010E941321DE
:103A600087FF14C080E090E0A0E8BFE3809382016C
:103A700090938301A0938401B093850110927D01FE
:103A800010927E0110927F01109280010CE411E0EF
:103A900093E09983C0908201D0908301E0908401EB
:103AA000F090850120E030E040E251E4C701B6012A
:103AB0000E94A72020E030E040E352E40E94582218
:103AC00018160CF42BC2D80114964D905D906D9091
:103AD0007C9017976D917D918D919C910E941821FA
:103AE0004B015C01C701B6010E9418216B017C01EA
:103AF000C301B2010E941821AB01B401C6010E94AA
:103B0000BA1681110BC220E030E040EC51E4C30151
:103B1000B2010E94A62020E030E040EC51E40E9477
:103B2000A6200E941821AB01B401C6010E94BA165A
:103B30008111F4C1B981B150B983045F1F4FB11134
:103B4000A9CF609148017091490180914A019091FB
:103B50004B010E9450219B01AC01F10160817181F8
:103B6000828193810E94A6206B017C0120E030E0DD
:103B700040E451EC0E94132118163CF4D101CD927F
:103B8000DD92ED92FC92139709C080E090E0A8EAE4
:103B9000B2E4F10180839183A283B38320E030E01B
:103BA00048EA52E4D1016D917D918D919C910E94E2
:103BB000582287FD13C00E94EC1F2FE030E040E048
:103BC00050E00E944320665E7F4F8F4F9F4F0E94C0
:103BD0005021F101648375838683978320E030E070
:103BE00040E451E4D1016D917D918D919C910E94B1
:103BF0001321811112C020918101822F90E0833620
:103C0000910544F42F5F2093810181E090E00E94B0
:103C1000721603C0B3E6B0938101ECE02E0E311CA6
:103C2000F0E72F16F1E03F0609F08BCF42C020915C
:103C300047012983223020F483E090E00E9472162D
:103C400039813F5F30934701313310F00E94C20B3E
:103C5000809187018983682F70E080E090E00E9466
:103C6000502120E030E040E651E40E94582218162E
:103C700024F4998192509093870110928B021092B4
:103C80008C02A0918701A98323E434E04A2F6FE1DD
:103C90008BE692E00E94EA10B1E0B0938B02B09301
:103CA0008C0221EE33E049816FE18BE692E00E94C5
:103CB000EA100E947E0A10928B0210928C02E09110
:103CC0007C01E9836091820170918301809184017C
:103CD00090918501E23030F40E941821462F25EAA8
:103CE00034E005C00E941821462F2BEC33E06CE035
:103CF0008BE692E00E94EA10F1E0F0938B02F093E1
:103D00008C022981609182017091830180918401EC
:103D100090918501233030F00E941821462F2BE826
:103D200039E005C00E941821462F25EB33E06CE0F6
:103D30007BC0C0908201D0908301E0908401F0901C
:103D4000850120E030E048E052E4C701B6010E945E
:103D5000132187FF10C020E030E040E850E4C701A5
:103D6000B6010E94A7206093820170938301809323
:103D700084019093850110928B0210928C026091C5
:103D800082017091830180918401909185010E944C
:103D90001821698300E023E045EA54E08CE00E94AA
:103DA0002E1231E030938B0230938C0223E04BE8EB
:103DB00059E069818CE00E942E12809187018983ED
:103DC000682F70E080E090E00E94502120E030E019
:103DD00040E851E40E945822181624F49981945026
:103DE0009093870180918601883120F48E5F8093C3
:103DF000860102C00E948B0A10928B0210928C02E4
:103E0000A0918701A98321E235E04A2F6BE18BE67F
:103E100092E00E94EA10B1E0B0938B02B0938C0262
:103E20002BEB34E049816BE18BE692E00E94EA10D3
:103E300080E090E0892B09F4E8CA0E940000E5CAFE
:103E400040E068E870E080ED91E00E94DF0841E02A
:103E500068E870E080ED91E00E94DF0842E068E8E9
:103E600070E080ED91E00E94DF0843E068E870E0D8
:103E700080ED91E00E94DF08C6CA84E090E00E94D5
:103E800072168091480190914901A0914A01B09128
:103E90004B010197A109B109809348019093490111
:103EA000A0934A01B0934B01E981E0937C01BDCA24
:103EB00084E090E00E94721680914801909149013F
:103EC000A0914A01B0914B010196A11DB11D8093B3
:103ED000480190934901A0934A01B0934B01F981A5
:103EE000F0937C01A8CA0E94C20BAECB10920001D5
:103EF000B6CB8091BE01813009F48ACD8091BF019B
:103F0000813009F485CD8091BC01813009F480CDE8
:103F10008091BD01813009F09CCD7ACD82E090E0A6
:103F20000E94721621E02093880104CE10926E0246
:103F300010926D028BE091E090936C0280936B0283
:103F400008958F929F92AF92BF92CF92DF92EF929D
:103F5000FF92CF93DF93EC01688179818A819B8105
:103F6000611571058105910521F464E279ED8BE518
:103F700097E02DE133EF41E050E00E9443204901FA
:103F80005A019B01AC01A7EAB1E40E9462206B01D7
:103F90007C01ACEEB4EFA50194010E947020DC011D
:103FA000CB018C0D9D1DAE1DBF1DB7FF03C001973A
:103FB000A109B04888839983AA83BB83BC01CD0142
:103FC0009F77DF91CF91FF90EF90DF90CF90BF90E0
:103FD000AF909F908F9008958F929F92AF92BF92D3
:103FE000CF92DF92EF92FF926091030170910401F2
:103FF000809105019091060161157105810591057A
:1040000021F464E279ED8BE597E02DE133EF41E0B7
:1040100050E00E94432049015A019B01AC01A7EAEC
:10402000B1E40E9462206B017C01ACEEB4EFA5010B
:1040300094010E947020DC01CB018C0D9D1DAE1DF2
:10404000BF1DB7FF03C00197A109B04880930301CA
:1040500090930401A0930501B0930601BC01CD012A
:104060009F77FF90EF90DF90CF90BF90AF909F90A1
:104070008F9008956093030170930401809305016C
:10408000909306010895052E97FB1EF400940E945C
:104090005A2057FD07D00E94752007FC03D04EF42C
:1040A0000C945A2050954095309521953F4F4F4F95
:1040B0005F4F089590958095709561957F4F8F4FD4
:1040C0009F4F08950E949720A59F900DB49F900D3B
:1040D000A49F800D911D11240895B7FF0C946220B8
:1040E0000E946220821B930B0895A1E21A2EAA1B44
:1040F000BB1BFD010DC0AA1FBB1FEE1FFF1FA21798
:10410000B307E407F50720F0A21BB30BE40BF50B94
:10411000661F771F881F991F1A9469F7609570951D
:10412000809590959B01AC01BD01CF010895A29FA0
:10413000B001B39FC001A39F700D811D1124911D7B
:10414000B29F700D811D1124911D08955058BB27F9
:10415000AA270E94BE200C9406220E94F82138F063
:104160000E94FF2120F039F49F3F19F426F40C94AB
:10417000F5210EF4E095E7FB0C94C621E92F0E948F
:10418000172258F3BA17620773078407950720F0C0
:1041900079F4A6F50C9451220EF4E0950B2EBA2F6B
:1041A000A02D0B01B90190010C01CA01A00111243D
:1041B000FF27591B99F0593F50F4503E68F11A16E9
:1041C000F040A22F232F342F4427585FF3CF46957A
:1041D00037952795A795F0405395C9F77EF41F169C
:1041E000BA0B620B730B840BBAF09150A1F0FF0F66
:1041F000BB1F661F771F881FC2F70EC0BA0F621F52
:10420000731F841F48F4879577956795B795F79541
:104210009E3F08F0B0CF9395880F08F09927EE0FD6
:104220009795879508950E94A22108F481E008954A
:104230000E941F216894B1110C94522208950E948B
:104240001F2288F09F5798F0B92F9927B751B0F0E7
:10425000E1F0660F771F881F991F1AF0BA95C9F70A
:1042600014C0B13091F00E945122B1E008950C9435
:104270005122672F782F8827B85F39F0B93FCCF3E8
:10428000869577956795B395D9F73EF49095809587
:10429000709561957F4F8F4F9F4F0895E89409C0A7
:1042A00097FB3EF490958095709561957F4F8F4F69
:1042B0009F4F9923A9F0F92F96E9BB279395F6957F
:1042C000879577956795B795F111F8CFFAF4BB0FFD
:1042D00011F460FF1BC06F5F7F4F8F4F9F4F16C061
:1042E000882311F096E911C0772321F09EE8872FEB
:1042F000762F05C0662371F096E8862F70E060E0A7
:104300002AF09A95660F771F881FDAF7880F96951F
:10431000879597F908950E94392290F09F3748F4C5
:10432000911116F00C94522260E070E080E89FEB4F
:10433000089526F41B16611D711D811D0C94CC215E
:104340000C94E721990F0008550FAA0BE0E8FEEF47
:1043500016161706E807F907C0F012161306E40749
:10436000F50798F0621B730B840B950B39F40A2642
:1043700061F0232B242B252B21F408950A2609F420
:10438000A140A6958FEF811D811D089597F99F6724
:1043900080E870E060E00895882371F4772321F0CD
:1043A0009850872B762F07C0662311F499270DC0EC
:1043B0009051862B70E060E02AF09A95660F771F87
:1043C000881FDAF7880F9695879597F908959F3F8C
:1043D00031F0915020F4879577956795B795880FC0
:1043E000911D9695879597F908959FEF80EC089514
:1043F00000240A94161617061806090608950024C4
:104400000A9412161306140605060895092E03943D
:10441000000C11F4882352F0BB0F40F4BF2B11F4B1
:1044200060FF04C06F5F7F4F8F4F9F4F089557FD10
:104430009058440F551F59F05F3F71F04795880F12
:1044400097FB991F61F09F3F79F0879508951216A9
:1044500013061406551FF2CF4695F1DF08C0161655
:1044600017061806991FF1CF869571056105089406
:1044700008950E941F22A0F0BEE7B91788F4BB2759
:104480009F3860F41616B11D672F782F8827985F24
:10449000F7CF869577956795B11D93959639C8F3B3
:1044A0000895E894BB2766277727CB0197F90895ED
:1044B0000E94A22108F48FEF08950E9470220C94AC
:1044C00006220E94F82138F00E94FF2120F0952357
:1044D00011F00C94C6210C94F52111240C94522255
:1044E0000E94172270F3959FC1F3950F50E0551F5E
:1044F000629FF001729FBB27F00DB11D639FAA2739
:10450000F00DB11DAA1F649F6627B00DA11D661F87
:10451000829F2227B00DA11D621F739FB00DA11DA8
:10452000621F839FA00D611D221F749F3327A00D62
:10453000611D231F849F600D211D822F762F6A2FFE
:1045400011249F5750409AF0F1F088234AF0EE0F63
:10455000FF1FBB1F661F771F881F91505040A9F790
:104560009E3F510580F00C94C6210C9452225F3F6F
:10457000E4F3983ED4F3869577956795B795F795CC
:10458000E7959F5FC1F7FE2B880F911D9695879544
:1045900097F90895DB018F939F930E946220BF914A
:1045A000AF91A29F800D911DA39F900DB29F900D82
:1045B00011240895991B79E004C0991F961708F0FB
:1045C000961B881F7A95C9F78095089597FB072E4B
:1045D00016F4009407D077FD09D00E94FA2207FC58
:1045E00005D03EF4909581959F4F08957095619503
:1045F0007F4F0895AA1BBB1B51E107C0AA1FBB1F19
:10460000A617B70710F0A61BB70B881F991F5A955E
:10461000A9F780959095BC01CD010895EE0FFF1F7D
:104620000590F491E02D099481E090E0F8940C94C9
:064630001923F894FFCFEE
:104636000101010100000000000000B00942058DE3
:10464600058C0500003D010000020300066B010514
:1046560004030800183701000005070039020107A6
:1046660013053900042504070C03010D0A004C4FFD
:0646760041444552000022
:00000001FF
