:100000000C94B1060C94D9060C94D9060C94D9061C
:100010000C94D9060C94D9060C94D9060C94D906E4
:100020000C94D9060C94D9060C94D9060C94930917
:100030000C94D9060C94D9060C94D9060C94D906C4
:100040000C9449090C94D9060C94D9060C94D90641
:100050000C94D9060C94D9060C94D9060C94D906A4
:100060000C94D9060C94D9060101FF030101F70392
:100070003133313037322120494E53414E45212111
:10008000210036353533362120576F6F686F6F2169
:100090000033323736382120556E62656C696576DB
:1000A00061626C652100313633383421204B65653F
:1000B0007020706C6179696E6721003831393221A6
:1000C00020596F7527726520676F6F642100343087
:1000D00039362120537465702069742075702100B1
:1000E000323034382120596F752077696E21003104
:1000F00030323421204F6E65206D6F7265210035DE
:1001000031322120416C6D6F7374207468657265A3
:10011000210032353621204B6565702069742075C9
:100120007021003132382120436F6F6C210036344A
:100130002120537765657421003332212041776592
:10014000736F6D652100313621204772656174211E
:1001500000382120476F6F6421006C0068000000A8
:100160000000240027002A000000000025002800CD
:100170002B00050089300802380249786814000015
:100180004261636B20616C72656164793F00576501
:100190006C636F6D6520746F203230343821004AF3
:1001A00057696E736C6F7732332070726573656E4A
:1001B00074730005006801380100005101460139DF
:1001C000012E0123011201FF00EF00E000CE00BB71
:1001D00000A60091008200700057656C636F6D652A
:1001E00020746F203230343821004261636B20610B
:1001F0006C72656164793F004A57696E736C6F7702
:1002000032332070726573656E74730044656C657B
:1002100074696F6E2063616E63656C6C65642E003B
:10022000536176652064656C657465642E00476172
:100230006D652072657365742E0047616D6520726F
:10024000657365742E0047616D6520636F6E746918
:100250006E7565642E0047616D6520726573657407
:100260002E000D0CFFF880089748934897488008A7
:100270009768A928AA4892688008FFF80D0CFFF833
:100280008008A368BA48A928BB6880089CC88C88E5
:100290009D888008FFF80D0CFFF88008BB6899283E
:1002A0008A48BB48800891889DC89CC88008FFF890
:1002B0000D0CFFF88008A8E8AE68AEE880089D48FD
:1002C0009DC894489C488008FFF80D0CFFF88008F2
:1002D0008C888E88868880089D8894489C8885C8EC
:1002E0008008FFF80D0CFFF8800895C89D4885C868
:1002F00080089D0895C89D4885C88008FFF80D0CAA
:10030000FFF8800899C889488DC8800895C895C8A5
:100310009D4885C88008FFF80D0CFFF880088B8881
:100320008A888B8880089A888A8893C898888008E9
:10033000FFF80D0CFFF88008B2C8A628A228A24832
:10034000928892889288B2E88008FFF80D0CFFF836
:100350008008B6689488948896C8A2A8A2A8A2A883
:10036000B6488008FFF80D0CFFF88008AC48A2A83A
:10037000A2A8A448A8A8A8A8A8A8AE488008FFF8E2
:100380000D0CFFF880089848A4C8A148B9E8A44813
:10039000A448A44898488008FFF80D0CFFF880088E
:1003A00098C8A5288428882884C88508A50899E8BD
:1003B0008008FFF80D0CFFF8800893C8B428940853
:1003C00097C894289428942893C88008FFF80D0CA7
:1003D000FFF880088F88904890488F889048904810
:1003E00090488F888008FFF80D0CFFF880088388FC
:1003F0008488888890889FC88088808880888008C2
:10040000FFF80D0CFFF880088F889048804883889B
:100410008C08900890089FC88008FFF80D0CFFF822
:10042000800880088008800880088008800880088C
:1004300080088008FFF847616D6520736176656408
:100440002E00323034382047414D454255494E4FF9
:10045000000D0CFFF88008BFE8A028A028A728A757
:1004600028A028A028BFE88008FFF80D0CFFF8801E
:100470000880089FC890489048904890489FC8803E
:10048000088008FFF80D0CFFF88008800880088FAE
:1004900088888888888F88800880088008FFF816F8
:1004A0003A726573657400153A7361766500484960
:1004B000474800504F494E545300030307050705B2
:1004C00004050504050306030207020201020203F4
:1004D000020E090E0E0D0E0E0F0E0705070503077F
:1004E000050F0507050706070102050200070202BE
:1004F00007000207020002070200070603060707BB
:1005000002020505020102020402000502020500C2
:1005100006070505070502030202060200000000A7
:100520000B00030003070507040701050205070781
:100530000400030000070505070005000502070287
:10054000000C000202020004000402010705070576
:100550000704010704050702030207040701070651
:1005600006010107070707030307000500000D0048
:100570000205000505050005020107030F09030632
:100580000306070702020505070702070705070319
:10059000010705060702070507050404030702050E
:1005A00007040407030707010607050707030307F6
:1005B00005030703060407010107010704070304F5
:1005C00003070607050205010601010704000705E8
:1005D00001020405070002010208080800030006E2
:1005E00003060707020205050705020707050703BB
:1005F00001070506070207050705040403070205AE
:100600000704040703070701060705070703030795
:100610000503070306040701010701070407030494
:100620000307060705020501060101070402070585
:10063000000700050702060203070507180671C92F
:100640008E9A69931A698E326FD3626193F9C18E63
:10065000153A796573202020163A6E6F0053415683
:100660004520444154413F0048492D53434F524592
:1006700020414E440044454C45544520594F555265
:1006800000594F552057414E5420544F0041524578
:1006900020594F55205355524500163A72657365DF
:1006A0007400153A636F6E74696E756500594F5525
:1006B0002057494E21005072657373201600474140
:1006C0004D45204F5645520005077F4141417F3E31
:1006D0005B4F5B3E3E6B4F6B3E183C783C18183CC2
:1006E0007E3C181C577D571C1C5E7F5E1C007E43A1
:1006F000437E007E73737E007E7F7F7E7F4141411B
:100700007F30483A060E06297929067F4141417F0C
:1007100060703F02042A1C361C2A7F3E1C08000021
:10072000081C3E7F14227F22143C3C3C7EFF184272
:100730003C817E3E6375633E3E616B633E3E636B10
:100740006B3E04027F020410207F201008082A1C40
:1007500008081C2A0808143E554122637569756310
:1007600010181C1810040C1C0C04000000000000E1
:10077000005F00000007000700147F147F14042AA4
:100780007F2A102313086462364956205000080758
:100790000300001C2241000041221C002A1C3E1CB8
:1007A0002A08083E080800E0600000080808080859
:1007B000006060000060100804033E5149453E009F
:1007C000427F400062514949462141494D33181446
:1007D000127F1027454545393C4A4949304121118E
:1007E00009073649494936064949291E00002400AF
:1007F0000000806400000814224100141414141432
:10080000004122140802015909063E415D594E7CFF
:100810001211127C7F494949363E414141227F41B4
:1008200041221C7F494949417F090909013E414153
:1008300051327F0808087F00417F41002041413F3D
:10084000017F081422417F404040407F020C027F1C
:100850007F0204087F3E4141413E7F090909063E6F
:10086000416141BE7F0919294626494949320101A2
:100870007F01013F4040403F1F2040201F3F403844
:10088000403F63140814630304780403615149452D
:1008900043007F41410003040810600041417F0094
:1008A0000402010204808080808000030708002089
:1008B000545478407F2844443838444444283844C9
:1008C00044287F3854545418087E09090218A4A4F7
:1008D0009C787F0804047800447D40000060808498
:1008E0007D7F1010284400417F40007C047804780C
:1008F0007C080404783844444438FC18242418182C
:10090000242418FC7C080404080854545420043F90
:100910004444203C4040207C1C2040201C3C402083
:10092000403C44281028444C9090907C4464544CA3
:1009300044000836410000007F00000041360800F6
:10094000180408100C7F4141417F0A0A153A496793
:100950006E6F7265006D560A0A504C454153452032
:100960005455524E204F464620004C4F572042418E
:10097000545445525921200003053F213F120812CB
:100980000A100A0E1C0E0C1E0C141A14161F161E2A
:10099000131E1E1B1E1E1F1E3F213F3A2F3A173DDE
:1009A000173F213F181F02040A041F0E04040E1FE4
:1009B0000A1F0A0E0E1F04110E2E252E2F2A2E2678
:1009C0002929021F02081F08150E04040E150E1512
:1009D000151B151B040604040C040000000017007E
:1009E0000300031F0A1F16371A1904130A153A00C9
:1009F0000300000E11110E000A040A040E04003058
:100A0000000404040010001804031F111F121F101B
:100A10001D151711151F07041F17151D1F151D0183
:100A2000011F1F151F17151F000A00003200040ABE
:100A3000110A0A0A110A040115020E11171E051ED9
:100A40001F150A0E110A1F110E1F15111F05010E89
:100A5000111D1F041F111F1108100F1F041B1F1051
:100A6000101F061F1E040F0E110E1F09060E112E59
:100A70001F051A121509011F011F101F0F180F1F44
:100A80000C1F1B041B031C03191513001F11030467
:100A900018111F000201022020200001020C121E6A
:100AA0001F120C0C12120C121F0C1A14041E052417
:100AB0002A1E1F021C141D1020201D1F0814111FA8
:100AC000101E041E1E021C0C120C3E0A040C123EC8
:100AD0001E040214160A020F120E101E0E100E1E15
:100AE000081E120C1226281E322A26041E21001F60
:100AF00000211E040102013F213FF6E8DBCFC3B80D
:100B0000AEA49B928A827B746E68625C57524E4997
:100B100045413E3A3734312E2C29272523211F1DEC
:100B20001C1A1917161514131211100F0E0D0C0B99
:100B30000A09080706450068010000172B15201058
:100B4000204C4F4144455200172B16201314000A25
:100B50004E6F2053442063617264206F720A6E6F7F
:100B6000204C4F414445522E4845580A0A153A45F3
:100B7000786974001D20466C617368696E670A208D
:100B8000206C6F616465722E2E2E0A0A444F4E2728
:100B900054205455524E204F46462100000000007C
:100BA00023002600290004040404040404040202AF
:100BB00002020202030303030303010204081020DC
:100BC00040800102040810200102040810200000E7
:100BD00000080002010000030407000000000000FC
:100BE00000000500380168010000401E0000FFFF02
:100BF000FFFC0000000100000002000000013C7842
:100C000038F2000000017EFC79FA0000000166CC99
:100C1000D99A0000000106CD99FA000000010ECD1E
:100C2000FCF2000000011CCDFDFA0000000138CCF0
:100C3000199A000000017EFC19FA000000017E787C
:100C400018F2000000010000000200000000FFFF99
:100C5000FFFC00000000000000000000EAE77373E2
:100C6000A25760004EC75223A72650004AE57622BD
:100C7000352760000000000000000000062773B860
:100C800007FFFFE0057762B008000010075573A06A
:100C900008DFF8100000000008DFF81000622300F1
:100CA000081008100015650008100810002527809E
:100CB000089008D000727100095008D000000000B0
:100CC00008900B1000000000080FF3100000000057
:100CD000060000600000000001FFFF801753440081
:100CE000161378001613140015102000152010009C
:100CF000540A03E181867F3E186D830F0F0E018336
:100D0000866033186DC3198F1803C38E6033186D56
:100D1000E330CF1803C39E603630CDE360CF30069A
:100D2000C79E7E3E30CDB360CF300CC6F660333008
:100D3000D9B660CF33CFCCF66061B0DB1E60CF3068
:100D4000D86CE6C061B0DB1E618F19986CC6C063B9
:100D5000B19B0E330F0FB078C6FF7E1F1B061E0F10
:100D60003A1F11241FBECFEFD8E0DEBFCDBF11E088
:100D7000A0E0B1E0E6EDF3E402C005900D92A036EC
:100D8000B107D9F725E0A0E6B1E001C01D92A33379
:100D9000B207E1F716E0C1EBD6E004C02197FE01EF
:100DA0000E94DE21C03BD107C9F70E94721A0C9441
:100DB000E9210C940000CF92DF92EF92FF920F9303
:100DC0001F93CF93DF936C017A018B01C0E0D0E0D9
:100DD000CE15DF0581F0D8016D918D01D601ED9121
:100DE000FC910190F081E02DC6010995892B11F04D
:100DF0002196EECF7E01C701DF91CF911F910F9118
:100E0000FF90EF90DF90CF9008950E94E4218F92A1
:100E10009F92AF92BF92EF92FF920F931F93CF9347
:100E2000DF93CDB7DEB7A1970FB6F894DEBF0FBE44
:100E3000CDBF7C01FA01CB0119A2223008F42AE0CF
:100E40008E010F5D1F4F822E912CA12CB12CBF0162
:100E5000A50194010E943F20F901CA010150110926
:100E60006A3014F4605D01C0695CD8016C93232B77
:100E7000242B252B61F7B801C7010E94E207A19638
:100E80000FB6F894DEBF0FBECDBFDF91CF911F919B
:100E90000F91FF90EF90BF90AF909F908F9008952B
:100EA000DC01ED91FC910190F081E02D0994EF922D
:100EB000FF920F931F93CF93DF938C017B01C0E0D0
:100EC000D0E0F701EC0FFD1F6491662361F0D801BB
:100ED000ED91FC910190F081E02DC8010995892BDD
:100EE00011F02196EECFCE01DF91CF911F910F919E
:100EF000FF90EF90089580913202882319F080913D
:100F0000220201C080E090913302992319F0909160
:100F10002302890F90913402992319F090912402B1
:100F2000890F90913502992319F090912502890F2C
:100F30008093B4000895CF93DF9348E951E020E017
:100F400030E0FA0160E070E084E090E0A191B191BE
:100F5000AB2B09F4CB016F5F7F4F64307105B1F7A4
:100F6000DA0163E070E01696CD91DC911797209737
:100F7000A1F0681779078CF48430910571F0F901BC
:100F8000E80FF91FEE0FFF1FE856FE4FD183C08315
:100F900017961C921E92169701976150710912972D
:100FA0006F3FEFEF7E07F9F62C5F3F4F485F5F4FD3
:100FB0002031310531F6DF91CF910895089580E019
:100FC00090E008956115710579F0FB010190002012
:100FD000E9F73197AF01461B570BDC01ED91FC910E
:100FE0000280F381E02D099480E090E00895833041
:100FF00081F028F4813099F08230A1F00895873093
:10100000A9F08830B9F08430D1F4809180008F7DD0
:1010100003C0809180008F7780938000089584B50D
:101020008F7702C084B58F7D84BD08958091B00014
:101030008F7703C08091B0008F7D8093B0000895BA
:101040001F93CF93DF93282F30E0F901E253F44F41
:101050008491F901E654F44FD491F901EA55F44F23
:10106000C491CC23C1F0162F81110E94F707EC2FF9
:10107000F0E0EE0FFF1FE859FE4FA591B4919FB726
:10108000F894111104C08C91D095D82302C0EC9132
:10109000DE2BDC939FBFDF91CF911F910895CF93FB
:1010A000DF9390E0FC01E654F44F2491FC01EA55F3
:1010B000F44F8491882361F190E0880F991FFC011F
:1010C000E25AFE4FC591D491FC01E859FE4FA5911B
:1010D000B491611109C09FB7F8948881209582234B
:1010E0008883EC912E230BC0623061F49FB7F89493
:1010F0008881322F309583238883EC912E2B2C937B
:101100009FBF06C08FB7F894E8812E2B28838FBF2E
:10111000DF91CF9108951F93CF93DF93182FEB01A9
:1011200061E00E944F08209711F460E004C0CF3FB7
:10113000D10539F461E0812FDF91CF911F910C949B
:101140002008E12FF0E0E253F44FE491E330F9F0AE
:1011500048F4E130B9F0E230A1F584B5806284BD95
:10116000C8BD34C0E730E9F0E83019F1E43049F5A2
:1011700080918000806280938000D0938B00C09328
:101180008A0024C084B5806884BDC7BD1FC080911B
:101190008000806880938000D0938900C09388008D
:1011A00015C08091B00080688093B000C093B300F8
:1011B0000DC08091B00080628093B000C093B400F5
:1011C00005C0C038D1050CF0B5CFAFCFDF91CF91BE
:1011D0001F9108953FB7F89480911E0290911F02CD
:1011E000A0912002B091210226B5A89B05C02F3FF7
:1011F00019F00196A11DB11D3FBFBA2FA92F982F3D
:101200008827820F911DA11DB11DBC01CD0142E0B7
:10121000660F771F881F991F4A95D1F708958F92FF
:101220009F92AF92BF92CF92DF92EF92FF926B01AB
:101230007C010E94EA084B015C01C114D104E10465
:10124000F104F1F00E94EA08DC01CB018819990948
:10125000AA09BB09883E9340A105B10570F321E0BE
:10126000C21AD108E108F10888EE880E83E0981EC2
:10127000A11CB11CC114D104E104F10419F7DDCFA4
:10128000FF90EF90DF90CF90BF90AF909F908F90A6
:1012900008951F920F920FB60F9211242F933F9330
:1012A0008F939F93AF93BF938091360290913702B3
:1012B000A0913802B091390230911D0223E0230F32
:1012C0002D3720F40196A11DB11D05C026E8230F7E
:1012D0000296A11DB11D20931D02809336029093AA
:1012E0003702A0933802B093390280911E02909188
:1012F0001F02A0912002B09121020196A11DB11DF3
:1013000080931E0290931F02A0932002B0932102AB
:10131000BF91AF919F918F913F912F910F900FBEF1
:101320000F901F9018951F920F920FB60F921124D5
:101330002F933F934F935F936F937F938F939F93DD
:10134000AF93BF93EF93FF9360912602611102C0A8
:1013500080E023C0809119028F5F809319029091E1
:101360002A028917A8F39091320281E0892780939D
:1013700032021092190280912E02882369F0809126
:10138000000193E4899F802D1124895B80930001E3
:101390000E94AA219093220281E060912702662395
:1013A00019F190911A029F5F90931A0220912B02DB
:1013B0009217D0F09091330281E089278093330215
:1013C00010921A0280912F02882369F08091000107
:1013D00093E4899F802D1124895B809300010E94F2
:1013E000AA219093230281E060912802662319F1DB
:1013F00090911B029F5F90931B0220912C029217E9
:10140000D0F09091340281E08927809334021092C9
:101410001B0280913002882369F08091000193E4DF
:10142000899F802D1124895B809300010E94AA214D
:101430009093240281E060912902662319F1909132
:101440001C029F5F90931C0220912D029217D0F0F6
:101450009091350281E089278093350210921C0219
:1014600080913102882379F08091000193E4899F73
:10147000802D1124895B809300010E94AA21909302
:10148000250201C081110E947B07FF91EF91BF915E
:10149000AF919F918F917F916F915F914F913F910C
:1014A0002F910F900FBE0F901F901895643030F55C
:1014B00070E09C01260F371FF901ED5AFF4F108293
:1014C00038971082AB01440F551FFC01E40FF51F44
:1014D000ED57FF4F11821082F901E95AFF4F108238
:1014E000FB01EE5DFD4F1082FB01EA5DFD4F1082B6
:1014F000FB01EE5CFD4F10820C947B070895EF9288
:10150000FF920F931F93CF93DF938C017B01C42F26
:10151000D0E0443038F4642F0E94560AF801EC0FF2
:10152000FD1F1482FE01EE0FFF1FE00FF11FF4A656
:10153000E3A6FF9611821082F801EC0FFD1F81E0F7
:101540008483DF01A15BBF4F89E08C931C961C92C2
:1015500018961C92E559FF4F1082DF91CF911F9191
:101560000F91FF90EF900895DC01FB0184918F5F54
:1015700014968C9314973196E491EF5F1596EC9343
:1015800015976E5F7F4F5F967C936E935E9708957D
:10159000FC01643508F053C0403308F050C090A1FE
:1015A000742F759575957595262F062E000C330BA7
:1015B000542F57709230A1F4F90184E57802E00DC0
:1015C000F11D1124E65CFD4F808190E0052E02C0E4
:1015D000959587950A94E2F78095982F91700AC0A7
:1015E000933041F48485817046274095417084137F
:1015F00003C014C0911112C084E57802200D311D82
:101600001124F901E65CFD4F81E090E001C0880FF4
:101610005A95EAF780959081892310C084E5780275
:10162000200D311D1124F901E65CFD4F81E090E0B1
:1016300001C0880F5A95EAF79081892B808308951D
:10164000EF92FF920F931F93CF93DF938C01F62EAF
:10165000D42FE22EC0E0CE1544F46F2D6C0F4D2F29
:10166000C8010E94C80ACF5FF6CFDF91CF911F91CA
:101670000F91FF90EF900895DF92EF92FF920F93FA
:101680001F93CF93DF937C01D62FD22EC42F002E31
:10169000000C110B040F111D47FD1A958C2F0C2EF9
:1016A000000C990B8017910744F42D2D4C2F6D2FB2
:1016B000C7010E94200BCF5FF1CFDF91CF911F9127
:1016C0000F91FF90EF90DF9008956F927F928F922D
:1016D0009F92AF92BF92CF92DF92EF92FF920F93C1
:1016E0001F93CF93DF93EC016A3011F42885A3C0D8
:1016F0006D3009F4A7C0A98483E58A150CF485C070
:10170000BA848FE28B150CF480C0D8848C8190E071
:101710000197D89E9001D99E300D1124C9018A0DE0
:10172000911DA7FC9A95181619060CF06EC02D8114
:101730008B2D0B2C000C990BD29E800D911D11242A
:10174000181619060CF061C088A09A2CCA2CE62E37
:10175000F12CEC2DEA190E2E000CFF0B8C8190E081
:10176000E817F9070CF050C00197E817F90779F06E
:10177000E89E9001E99E300DF89E300D1124E20F95
:10178000F31F8E8D9F8DE80FF91F149101C010E09B
:101790006B2C7B2C272D2B19022E000C330B8D81EB
:1017A00090E0281739076CF510FF11C081E0D812BE
:1017B00006C0472D6C2DCE010E94C80A1EC00D2DFB
:1017C0002D2D462D692DCE010E943C0B16C089A1FE
:1017D00098A1891791F088A381E0D81206C0472DFF
:1017E0006C2DCE010E94C80A07C00D2D2D2D462D4F
:1017F000692DCE010E943C0B88A2169573946D0C46
:10180000C9CFC3949D0CA5CF88A228853C8189852A
:10181000239F800D112489879F81992399F0082E99
:10182000000C990B44E550E0239F40195109112405
:10183000481759073CF49D818A85299F800D112402
:101840008A87198681E090E0DF91CF911F910F91F7
:10185000FF90EF90DF90CF90BF90AF909F908F90D0
:101860007F906F900895EF92FF920F931F93CF9305
:10187000DF938C01D62FF42EE22EC0E0CE1544F477
:101880004F2D4C0F6D2FC8010E94C80ACF5FF6CFB5
:10189000DF91CF911F910F91FF90EF900895CF921C
:1018A000DF92FF920F931F93CF93DF9388EF91E026
:1018B000EAE3F2E0DF019C011D9221503040E1F7A4
:1018C00003E015E0D8011C92C4E0D5E018822CE3B7
:1018D00036E040E068E38AEF94E00E94B4152DE022
:1018E0004FE167E085E30E9488152DE04FE165E157
:1018F00085E30E94881587E3F82EF801F08289E0DD
:10190000888390E6C92E91E0D92ED6019F964D91FD
:101910005D916D917C91D2978AEF94E00E9456156B
:10192000F801F08287E18883D601D3964D915D91CD
:101930006D917C91D6978AEF94E00E9456156AEBE0
:1019400074E08AEF94E00E94B40AF801F0828FE01C
:10195000888363EB74E08AEF94E00E945707D80114
:10196000FC928DE188836EEA74E08AEF94E00E9435
:10197000570768E779E08AEF94E00E94B40A25E30C
:10198000F22EF801F08283E2888367EA74E08AEF3E
:1019900094E00E945707D801FC928AE288836FE99D
:1019A00074E08AEF94E0DF91CF911F910F91FF9047
:1019B000DF90CF900C945707EF92FF920F931F93F5
:1019C000CF93DF930E944F0C08E911E0C0E078014B
:1019D000D0E0D701ED91FD917D01EE0FFF1FEB5D92
:1019E000FE4F208131814C2F6D2F8AEF94E00E94B1
:1019F000B415D35FD43369F7085F1F4FC45FC0339A
:101A000031F7DF91CF911F910F91FF90EF900895E3
:101A1000EF92FF920F931F93CF93DF930E94DC0C02
:101A200022E149E36FE08DE00E9488158AE1E82E0B
:101A300085E0F82EF7011082CBE1D5E0188200E1B5
:101A400027E340E16EE08AEF94E00E943C0B81E0E6
:101A5000F7018083888303E015E08FE0F80180833D
:101A6000C4E0D5E081E1888368EC76E08AEF94E019
:101A70000E94B40A6EEB76E08AEF94E00E9457076A
:101A800068E779E08AEF94E00E94B40A8BE1F801FC
:101A9000808389E1888366EB76E08AEF94E0DF91CA
:101AA000CF911F910F91FF90EF900C945707EF92F9
:101AB000FF920F931F93CF93DF930E94DC0C29E1D9
:101AC00043E36BE080E10E9488158AE1E82E85E01F
:101AD000F82EF7011082CBE1D5E0188207E121E36F
:101AE0004CE061E18AEF94E00E943C0B81E0F70159
:101AF0008083888303E015E092E1F92EF801F082FB
:101B0000C4E0D5E08DE0888368EC76E08AEF94E06D
:101B10000E94B40A6DEA76E08AEF94E00E945707CB
:101B200068E779E08AEF94E00E94B40AF801F08255
:101B300085E1888362EA76E08AEF94E00E945707A5
:101B4000F801F0828CE188836AE976E08AEF94E01C
:101B5000DF91CF911F910F91FF90EF900C94570759
:101B6000EF92FF920F931F93CF93DF930E94DC0CB1
:101B700028E243E364E080E10E9488158AE1E82ED0
:101B800085E0F82EF7011082CBE1D5E0188206E25D
:101B900021E345E061E18AEF94E00E943C0B81E0A3
:101BA000F7018083888393E0E92E95E0F92EC2E166
:101BB000F701C08304E015E086E0F80180836DE85A
:101BC00076E08AEF94E00E945707F701C0838CE02B
:101BD000F801808361E876E08AEF94E00E9457077D
:101BE000F701C083F801C08365E776E08AEF94E0EF
:101BF0000E945707F701C08388E1F801808368E6F7
:101C000076E08AEF94E00E945707F701C0838EE1E7
:101C1000F80180836DE576E08AEF94E00E94570733
:101C2000F701C08384E2F801808360E576E08AEF03
:101C300094E0DF91CF911F910F91FF90EF900C9462
:101C40005707CF93DF93C8E9D1E0A9EFB1E0FE01D8
:101C5000819191918D939D9381E0E83BF807C1F7C5
:101C6000A5E0B1E0ED91FD91EE0FFF1FE750FE4FB3
:101C7000808191818993999381E0A532B80791F78A
:101C8000DF91CF910895CF92DF92EF92FF921F9351
:101C9000CF93DF93182F0E949B0740918F015091A3
:101CA0009001609191017091920128E931E0F90170
:101CB000A3E0B0E086819781C481D5818C179D0710
:101CC000E1F40097D1F0019697838683C0E0D0E0DD
:101CD000C12CD12C7601C394C817D90734F4CC0C8D
:101CE000DD1CEE1CFF1C2196F7CF112321F04C0DBB
:101CF0005D1D6E1D7F1D15821482119732971097FE
:101D0000C9F6285F3F4F81E0283B380781F64093B2
:101D10008F01509390016093910170939201112370
:101D2000A9F08091930190919401A0919501B091B7
:101D3000960184179507A607B70744F440939301CB
:101D4000509394016093950170939601DF91CF9128
:101D50001F91FF90EF90DF90CF900C949B078F9294
:101D60009F92AF92BF92DF92EF92FF920F931F93D9
:101D7000CF93DF93D82E50E1852E912CA12CB12C3E
:101D80000E94901FA50194010E940D208B01FB0170
:101D9000EE0FFF1FE856FE4F20813181232B81F784
:101DA00077FF02C06D5F7F4F759567957595679555
:101DB000CCE06C9FC02D1124C80164E070E00E944B
:101DC000B621DDE08D9FD02D1124E12CF12C0E9455
:101DD000DC0CE114F10419F425E834E009C081E0D9
:101DE000E816F10419F42BE634E002C021E534E0F2
:101DF0004C2F6D2F8AEF94E00E94B4150E940410BE
:101E00008823E1F38FEFE81AF80A83E0E816F1047B
:101E1000F1F6DD2021F08FE594E00E9451150E943B
:101E2000901F2AE030E040E050E00E940D20000FBB
:101E3000111FF801E856FE4F672B682B692B19F02C
:101E400081E090E002C082E090E091838083DF91A6
:101E5000CF911F910F91FF90EF90DF90BF90AF90C7
:101E60009F908F900895CF92DF92EF92FF920F9301
:101E70001F93CF93DF93CDB7DEB72F970FB6F894AC
:101E8000DEBF0FBECDBFCE0101967C0100E010E0A9
:101E90006C01C8010E94F71FF70181937F010F5F5A
:101EA0001F4F0F301105A9F762E474E0C6010E94CC
:101EB000E71F21E0892B09F020E0822F2F960FB633
:101EC000F894DEBF0FBECDBFDF91CF911F910F9170
:101ED000FF90EF90DF90CF9008950F931F93CF93D3
:101EE000DF9300E611E0C0E0D0E0CE010E94F71FD2
:101EF000F80181938F012196C833D105B1F7AFE680
:101F0000B1E0E8E9F1E08D919D918193919381E0B9
:101F1000E83BF807C1F7DF91CF911F910F9108952A
:101F20000F931F93CF93DF93E8E9F1E0AFE6B1E0C1
:101F3000819191918D939D9381E0E83BF807C1F7E2
:101F400000E611E0C0E0D0E0F80161918F01CE0120
:101F50000E94FF1F2196C833D105B1F78FE594E0A9
:101F60000E94511586E394E09093310580933005EB
:101F700084E380933205DF91CF911F910F910895F3
:101F8000CF93C82F10928F0110929001109291015F
:101F9000109292010E944F0CE8E9F1E01192119227
:101FA00081E0E83BF807D1F78C2F0E94AF0E80E06C
:101FB0000E94AF0E10929701CF910895CF93C82F32
:101FC00062E474E080E691E00E94F01FEFE6F1E049
:101FD0001192119281E0EF38F807D1F710928F013A
:101FE000109290011092910110929201109293011F
:101FF00010929401109295011092960110929701FF
:102000008C2FCF910C94C00F2F923F924F925F92E2
:102010006F927F928F929F92AF92BF92CF92DF92F8
:10202000EF92FF920F931F93CF93DF93CDB7DEB75D
:102030002E970FB6F894DEBF0FBECDBF40912C0592
:1020400050912D0560912E0570912F052FB7F894B2
:102050008091360290913702A0913802B0913902F6
:102060002FBF481B590B6A0B7B0B80912B0590E00F
:10207000A0E0B0E0009127051091280520912905E6
:1020800030912A0584179507A607B70730F4011584
:1020900011052105310509F028C4012B022B032B62
:1020A00009F021C48091510481508E3F30F5809118
:1020B0005004813011F5809170048F5F609171043C
:1020C00087FD09C0082E000C990B70E06F5F7F4FF1
:1020D0000E94B621682F6093700488E49BE090937F
:1020E00031058093300588E48093320540E065E354
:1020F0007BE08FE594E00E947F0A8091510481503B
:102100008E3F70F480914F04813009F054C48BE30A
:102110009BE0909331058093300588E480933205ED
:1021200080E00E94351881E00E94351882E00E940C
:10213000351883E00E9435182AE334E038872F836E
:10214000B2E3CB2EB2E0DB2E0EE914E08AE8E82EF3
:1021500084E0F82E59013E872D87912C88248394A2
:10216000AD85BE8599968C919997882309F4EDC029
:102170002D01B0E74B0E511CF20180818111E5C0A9
:10218000D7018D919C91D801ED91FC91EE0FFF1F2D
:10219000E80FF91F259134912115310521F5ED85C1
:1021A000FE85E05AFF4F2081222329F0F801118299
:1021B0001082FC0116C0AD85BE8599961C92999738
:1021C00095968C918823C1F1892D0E943518D801EC
:1021D000ED91FC91EE0FFF1FD7018D919C91E80FBF
:1021E000F91F25913491ED85FE85E058FF4FFE8360
:1021F000ED838D859E858C579F4F9A838983AD850E
:10220000BE85A857BF4FBC83AB83ED85FE85E457E1
:10221000FF4FFA87E9878D859E8580579F4F9C8762
:102220008B876D847E8494E9690E711C2D843E84B5
:10223000A4E72A0E311C2DC0692D8FE594E00E9481
:10224000560A83C0C90156E0969587955A95E1F7DD
:102250008F71932F96959695969590514F70423029
:10226000A1F128F541111DC08B3008F08AE0F10181
:102270008083D801ED91FC9111973196ED93FC93F9
:10228000EE0FFF1FD7018D919C91E80FF91F25914B
:102290003491A901569547955695479520FDD2CF83
:1022A0002BC0413031F7692D0E947E18E2CF4330B8
:1022B000B9F04430F1F620916F04289F802D11244D
:1022C000AB85BC858C93F30115C020916F04289FCA
:1022D000802D1124AD81BE818C93E981FA810AC0E1
:1022E00020916F04289F802D1124AB81BC818C9399
:1022F000E985FA859083BDCFED85FE85E459FF4FD2
:102300004F73408380916F04839F802D1124F201CD
:102310008083ED85FE85E055FF4F1082F501E8557D
:10232000FF4F11821082ED85FE85E858FF4F8082B5
:10233000D6018C92ED85FE85E458FF4F1082F8019E
:102340008081918101969183808393942D853E8530
:102350002F5F3F4F3E872D8732E0A30EB11C8FEFDA
:10236000C81AD80A0E5F1F4F92E0E90EF11CA4E0D4
:102370009A12F6CEAAE2AA2EA2E0BA2EB6E2CB2E8E
:10238000B2E0DB2E12E2412E12E0512E0AEE14E0F2
:1023900082EEE82E84E0F82E9EE2292E92E0392E7D
:1023A000EAE3F4E0FA83E983712CE981FA81E858E1
:1023B000FF4F8081882309F42EC1E981FA81E05919
:1023C000FF4F8081811106C0672D8FE594E00E9448
:1023D000560A21C181508083D8018C91E981FA810C
:1023E000EC54FF4FFE83ED8329813A8128543F4FFF
:1023F000490181114FC0D7012D913C912F5F3F4F73
:10240000C901880F991FEF81F885E856FF4F0190A9
:10241000F081E02DE80FF91F45915491842F8770CA
:10242000ED81FE818083BA01E3E076956795EA95B8
:10243000E1F7CB0196958795952F96959695D401C2
:102440009C938F7390916F04899F802D1124F801C4
:1024500080836170D1016C93F70131832083E9811E
:10246000FA81E056FF4F808190E02817390790F0FD
:10247000E981FA81EC55FF4F2081222331F0821B44
:102480009109D7018D939C9305C0672D8FE594E04A
:102490000E94560AF801808181508083E981FA8187
:1024A000E458FF4F20812F5F2083E981FA81E459AE
:1024B000FF4F4081D4013C91340FE981FA81E45B04
:1024C000FF4F8081380FE981FA8135A7E857FF4F28
:1024D0006081662399F070E0822F022E000C990B28
:1024E0000E94B621E981FA81E457FF4F8081869FDF
:1024F000300D1124A981BA819D963C93E981FA811E
:1025000085A590E0CB966BE370E00E94B62185A78D
:10251000EC58FF4F3081A981BA81D1963C93D19775
:10252000FD01E058FF4F60816623A1F0062E000CEC
:10253000770B822F022E000C990B0E94B621E981A5
:10254000FA81EC57FF4F8081869F300D1124E9817D
:10255000FA8131ABE981FA81E057FF4F6081662350
:10256000D1F0822F220F990B70E00E94B621CB018F
:1025700062E070E00E94B621E981FA81EC56FF4FDB
:102580002081A981BA81D1969C91D197289F900DE5
:102590001124D1969C93E981FA814F3359F081A996
:1025A0008A300CF089E087FD80E0A981BA81D1965C
:1025B0008C9301C011AAF894A981BA819D96EC91DF
:1025C000F0E0E650F54FE491D501EC93E981FA8112
:1025D00021A9E454FF4F3081AD81BE814C9123038A
:1025E000900111244203C001439F900D11240090DB
:1025F000700402C0880F991F0A94E2F797FF02C087
:1026000081589F4F880F892F881F990BF60180836F
:10261000D2018C9378947394E981FA813196FA838C
:10262000E983FFEFAF1ABF0A2FEFC21AD20A3FEFBA
:10263000431A530A0F5F1F4F82E0E80EF11CAF816F
:10264000B8851296B887AF83BFEF2B1A3B0AE4E038
:102650007E12ABCE80913205882309F48BC08C307A
:1026600020F4FCE0F81BF98301C01982FF24F394E5
:10267000F092020510921A0510921B052091FF049A
:102680002B831981121B022F0D5F4DE2410F2EE4A7
:1026900063E08AEF94E00E943C0B3B8134503B8323
:1026A000105D232F41E0612F80E50E94D1172B811F
:1026B00042E0612F83E00E94D117F0921A05F09258
:1026C0001B050091FF041981101B8DE2810F8B8384
:1026D0002EE4482F63E08AEF94E00E94200B83E011
:1026E000800F9B81980F9B83492F41502EE463E01C
:1026F0008AEF94E00E94200B0350105D202F412FA1
:1027000060E08AEF94E00E94330C202F412F63E5B4
:102710008AEF94E00E94330C41E0612F83E00E9435
:10272000521742E0612F80E50E945217AB81A450FE
:10273000AB8344E06A2F80E50E94521748E06B812A
:1027400083E00E94521784E0809303058091FF0488
:10275000B981B81BB15DB0930405609130057091EB
:1027600031058AEF94E00E9457078091320581502D
:10277000809332058091560490915704892B09F477
:102780008AC081E080931A0510921B059091FE0487
:1027900085E5891B8093030510920405609153041D
:1027A000613009F459C030F080915204653008F06E
:1027B0006BC066C003E614E0198269818FE594E07E
:1027C0000E94560AF80111928F01F981FF5FF98387
:1027D000F43099F781E08093020568E779E08AEFA9
:1027E00094E00E94B40A109257041092560410927A
:1027F000000528EA29830E9404108823E1F36AE691
:1028000079E08AEF94E00E94570740915404509178
:10281000550460E070E02AE08AEF94E00E94070728
:1028200065E579E08AEF94E00E9457074981429577
:102830004F7050E060E070E08AEF94E00E9456151F
:102840006AE479E08AEF94E00E94570780914F0490
:10285000813009F094C01FC080911D0590911E0524
:10286000A0911F05B09120058F709927AA27BB273B
:102870000897A105B10510F467E009C068E707C033
:10288000882349F06B5F03C0882329F06FE28AEF49
:1028900094E00E9450070E94171780910005811153
:1028A0000EC088EF91E0EAE3F2E0DF019C011D92A7
:1028B00021503040E1F710920305109204050E9468
:1028C000EA08609327057093280580932905909363
:1028D0002A052091230530912405621B730B709308
:1028E00022056093210580E06CC02FB7F894809199
:1028F000360290913702A0913802B09139022FBF71
:1029000020912B05820F911DA11DB11D80932C05D7
:1029100090932D05A0932E05B0932F0580911D0552
:1029200090911E05A0911F05B09120050196A11D53
:10293000B11D80931D0590931E05A0931F05B093B4
:102940002005109227051092280510922905109253
:102950002A050E94EA08609323057093240580935A
:102960002505909326050E94B918809156049091F0
:102970005704892B11F00E944E1981E022C0398141
:1029800031503983311137CF60E070E08FEF0E9412
:102990008B0883B7817F846083BF83B7816083BFE7
:1029A00083B7816083BF889583B78E7F83BF83B7EA
:1029B0008E7F83BF20CF893209F0B2CB0E941719D6
:1029C000AFCB2E960FB6F894DEBF0FBECDBFDF9112
:1029D000CF911F910F91FF90EF90DF90CF90BF901C
:1029E000AF909F908F907F906F905F904F903F90AF
:1029F0002F9008958F929F92AF92BF92CF92DF92C5
:102A0000EF92FF92C0905404D0905504C094D0949B
:102A1000E12CF12C0E94EA084B015C010E94EA08BB
:102A2000A50194012095309540955095609570953D
:102A3000809590950E949A219B01AC01C701B60137
:102A40000E949A216B017C0160913B0470913C04CF
:102A50004B01A12CB12C0E94EA08DC01CB01880DAE
:102A6000991DAA1DBB1DBC01CD016C0D7D1D8E1DC8
:102A70009F1D611571058105910551F0FF90EF9043
:102A8000DF90CF90BF90AF909F908F900C94DE1FFF
:102A9000FF90EF90DF90CF90BF90AF909F908F907E
:102AA000089540E062EE7BE00C947F0ACF92DF92C3
:102AB000EF92FF920F931F93CF93DF9377FF1DC089
:102AC0006A017B01EC016DE20E9450078C014427F2
:102AD0005527BA014C195D096E097F092AE0CE011C
:102AE0000E940707800F911FDF91CF911F910F91D7
:102AF000FF90EF90DF90CF9008952AE0DF91CF9183
:102B00001F910F91FF90EF90DF90CF900C940707EB
:102B10000F931F93CF93DF93C82F162FD42F022F1D
:102B2000242F462F682F8AEF94E00E94200B4FEF4E
:102B3000400F410F2D2F6C2F8AEF94E00E94200B45
:102B4000202F412F6C2F8AEF94E00E94330C6FEFFF
:102B50006D0F6C0F202F412F8AEF94E0DF91CF9102
:102B60001F910F910C94330C2F923F925F926F92B2
:102B70007F928F929F92AF92BF92CF92DF92EF920D
:102B8000FF920F931F93CF93DF93EC01F901E49031
:102B90003196849164350CF019C10E2C000CFF089D
:102BA000062F062E000C110BF701E00FF11F1E1669
:102BB0001F060CF00BC140330CF008C1A82FC42E27
:102BC000042E000CDD085601A80EB11C87FDBA9436
:102BD0001A141B040CF0FAC02E5F3F4F570197E008
:102BE000A90EB11CB7FE04C05701BEE0AB0EB11C6C
:102BF000B3E0B594A794BA95E1F747FF0AC0A42FB4
:102C0000A80FAC9CC001AD9C900D1124281B390B62
:102C100040E08A2F0A2E000C990B840F911D47FD6E
:102C20009A95C19714F0A0E3A41BF8A067FD60E09B
:102C3000E535F10514F0E4E5F0E09E2FCC85C427DE
:102C4000C62E062E000CDD08F601E01BF10B8F01ED
:102C50004F01F7E08F229924E0E8F0E002C0F595FB
:102C6000E7958A94E2F77E2F17FF02C0095F1F4F96
:102C7000F3E015950795FA95E1F7200F311F542FD2
:102C8000577081E001C0880F5A95EAF74595459540
:102C90004595F601B4E54B02E00DF11D1124AF019D
:102CA000465C5D4FD0E02A2EAA0F3308EE24E39451
:102CB000BB24ED2FF0E0E215F3050CF087C0F9011D
:102CC0005490F1E0FF121AC0962E8A01E72F690195
:102CD000991608F072C08E2E852021F0D8018C90B4
:102CE000882A8C92E69531F4BFEFCB1ADB0AF60105
:102CF0005490E0E893940F5F1F4FEACFF1101CC08F
:102D0000782E7094962E8A01E72F6901991608F0A3
:102D100054C08E2E852021F0D8018C9087208C9273
:102D2000E69531F4BFEFCB1ADB0AF6015490E0E8E8
:102D300093940F5F1F4FEACFF3E0FF1629F0962E12
:102D40008A01E72F690137C0682E6094862E8A01B8
:102D5000972E69018916D8F4E92DE52159F0D8019B
:102D6000EC91782C7C2670FE02C0E82B02C0E62194
:102D7000D801EC93969439F4BFEFCB1ADB0AF60135
:102D80005490E0E89E2E83940F5F1F4FE3CFCE2533
:102D900014C08E2E852021F0D8018C9088268C922C
:102DA000E69531F4BFEFCB1ADB0AF6015490E0E868
:102DB00093940F5F1F4F991660F3880F19F44C5AC4
:102DC0005F4F81E0DF5F2A0D3B1D73CFDF91CF9115
:102DD0001F910F91FF90EF90DF90CF90BF90AF9039
:102DE0009F908F907F906F905F903F902F9008956D
:102DF000CF93C82FF89460E0809109050E942008C5
:102E000080910A0518161CF460E00E942008CEBDCF
:102E100000000DB407FEFDCF8EB580910A0518168F
:102E20001CF461E00E9420087894CF9108950F93DC
:102E30001F93CF93809106058F5F809306050AE369
:102E400012E0C0E08C2F80640E94F81680E80E9497
:102E5000F81661E0809109050E94200880910A051A
:102E600018161CF460E00E942008F80184E5919196
:102E70009EBD00000DB407FEFDCF9EB58150B9F791
:102E800080910A0518161CF461E00E942008CF5FAB
:102E90000C5A1F4FC630B1F680E4CF911F910F91AD
:102EA0000C94F816AF92BF92CF92DF92EF92FF92FE
:102EB0000F931F93CF93DF93182F062FC1E0D3E01A
:102EC0008AEFD82E9EEFE92E842F8470C82E842F8F
:102ED0008270B82E842F8870A82E4170F42E8C2F0B
:102EE000880F8F5FE80ECC2081F0402F4D0F612FAF
:102EF0006C0F8AEF94E00E94C80A402F4C0F6D2F90
:102F0000610F8AEF94E00E94C80ABB2081F0402F35
:102F10004D1B612F6C0F8AEF94E00E94C80A402F6E
:102F20004C1B6D2F610F8AEF94E00E94C80AAA2003
:102F300081F0402F4C0F612F6D1B8AEF94E00E94AF
:102F4000C80A402F4D0F612F6C1B8AEF94E00E943E
:102F5000C80AF1100AC0CD17CCF4E7FC04C0D15068
:102F6000D394D394ED0CCF5FBACF402F4C1B612F7D
:102F70006D1B8AEF94E00E94C80A402F4D1B612F01
:102F80006C1B8AEF94E00E94C80AE5CFDF91CF91D5
:102F90001F910F91FF90EF90DF90CF90BF90AF9077
:102FA00008959F92AF92BF92CF92DF92EF92FF92DD
:102FB0000F931F93CF93DF93F82EE62EB22E13E0DC
:102FC000120FD0E0C3E08AEFC82E0EEF842F81707D
:102FD000982EAA24A394A20E4270D42EDF5F812FD4
:102FE0008B19080F9920A1F02C2F220F2A0D4E2D9E
:102FF0004C1B6D2F6F0D8AEF94E00E94330C212F34
:103000004E2D4D1B6C2F6F0D8AEF94E00E94330CF8
:10301000D1100AC0DC17ECF407FD04C0C150C39402
:10302000C3940C0D1E5FDACF2C2F220F2A0D4E2DCC
:103030004C1B6F2D6D1B8AEF94E00E94330C212FE7
:103040004E2D4D1B6F2D6C1B8AEF94E00E94330CAC
:10305000E1CFDF91CF911F910F91FF90EF90DF9023
:10306000CF90BF90AF909F900895CF93DF93A82FFC
:10307000B0E0ED01C65CDB4F9DA1992309F43BC094
:1030800099A5911138C0FE01E05CFF4F9081AA0F15
:10309000BB1FA65CBB4FD8963C91D897D9962C9174
:1030A000D997E32FF22FE90FF11DE90FF11D2591BB
:1030B00034912F3F9FEF390711F41DA21CC0FE0170
:1030C000E45BFF4F30835F963327220F331F9596C3
:1030D000ED91FC919697E20FF31F65917491843006
:1030E00028F4482F8FE594E00E947F0AC05CDF4FF0
:1030F00088818F5F8883DF91CF91089570E09B0175
:10310000220F331F265C3B4FF901F39645A196A190
:10311000E42FF92FE80FF11DE80FF11D45915491AF
:10312000F901ED58FF4F56A345A3FA0185919491FB
:1031300090916F04989F802D1124665C7B4FFB015A
:10314000E056FF4F8083FA01A591B4912B2F30E018
:10315000E82FF0E02E173F0720F4FA012591349173
:10316000832FFB01EC55FF4F989F802D1124808306
:103170000895DF92EF92FF920F931F93CF93DF9307
:10318000CAE3D4E001E414E0EE24EA9462E08A8524
:103190000E944F082A8530E0F901E253F44F8491F0
:1031A000F901E654F44FF490F901EA55F44FD49044
:1031B000DD2071F081110E94F707ED2DF0E0EE0F98
:1031C000FF1FE456F44FA591B491EC91FE2299F4BF
:1031D00089898F5F898B60E08A850E944F082196DC
:1031E0000C171D0799F6DF91CF911F910F91FF905A
:1031F000EF90DF9008958989882389F38F3F11F438
:10320000198AE9CFE98AE7CFCF93DF93BC018AEF30
:1032100094E00E945707EC0165E571E08AEF94E0C5
:103220000E94E2078C0F9D1FDF91CF91089588EFD8
:1032300091E0EAE3F2E0DF019C011D922150304071
:10324000E1F7109203051092040564E77BE08AEF32
:1032500094E00E9457070E9417178CB583608CBDBD
:103260008DB58E7F8DBD88E591E0EEEFFFE309958A
:10327000109200058FE49BE00E9404190E9417172A
:103280000E94B91880914F04813039F062E370E0F8
:1032900080E090E00E940F09F3CF0895CF93C09192
:1032A0005E048C2F8F71E1F583E480937C00809124
:1032B0007A00806480937A0080917A0086FDFCCF4A
:1032C000609178008091790070E0782B072E000CD7
:1032D000880B990B0E94A12026EE3FE34EEC50E4B0
:1032E0000E9405210E9470209B01709355046093F9
:1032F0005404672B91F084E080935304E6E5F4E0F6
:1033000080E0419151912417350718F480935304BC
:103310000AC08F5F8430A9F703C08FEF80935304F6
:10332000CF5FC0935E04CF910895CF92DF92EF926A
:10333000FF920F931F93CF93DF93EC0181E0809373
:10334000020510920105109200051092520480931C
:103350001A0580931B051CE00E9404108823E1F3EA
:10336000FE018491882319F00091FF0401C000E060
:1033700020EF3CE040E060E08AEF94E00E94B4156A
:103380004CE0400F2AEE3BE060E08AEF94E00E94C0
:10339000B4151092030510930405BE018AEF94E062
:1033A0000E9457078091FE04982F990F890F8195ED
:1033B0008D5A809303058091FF04982F990F890FF0
:1033C0008195835D8093040580911D0584FF03C072
:1033D0008CEE9CE002C088EE9CE00E940419809173
:1033E000FE04982F990F890F81958D5A80930305BC
:1033F000809104058F5F8093040580917004882379
:1034000019F084EE9CE002C080EE9CE00E9404195A
:103410008091FE04982F990F890F81958D5A809382
:103420000305809104058F5F809304058CED9CE07B
:103430000E940419809150048130C9F48091700475
:103440008F5F6091710487FD09C0082E000C990BF5
:1034500070E06F5F7F4F0E94B621682F6093700409
:1034600040E065E37BE08FE594E00E947F0A809175
:103470004F048130A9F080911C05482F50E060E096
:1034800070E0C0901D05D0901E05E0901F05F090E3
:103490002005C416D506E606F706E0F08F3FD1F00A
:1034A0008FEF80931C0560E08FE594E00E94560A40
:1034B000109263048FE594E00E94511581E080939F
:1034C0005204DF91CF911F910F91FF90EF90DF9009
:1034D000CF90089580915104813009F03DCF0E9432
:1034E00017193ACF789484B5826084BD84B5816021
:1034F00084BD85B5826085BD85B5816085BD8091BF
:103500006E00816080936E00109281008091810036
:10351000826080938100809181008160809381002E
:10352000809180008160809380008091B1008460F0
:103530008093B1008091B00081608093B000809151
:103540007A00846080937A0080917A008260809310
:103550007A0080917A00816080937A0080917A006D
:10356000806880937A001092C10082E380932B05DB
:1035700081E090E0A0E0B0E08093270590932805DB
:10358000A0932905B0932A058FEF80931C05E0E8EE
:10359000F7E7259134912130304C09F049C0E6E934
:1035A000F7E7E491E0930505E7E9F7E7E491E093B5
:1035B0003E04E8E9F7E7E491E0933F04E9E9F7E73F
:1035C000859194919093410480934004EBE9F7E74F
:1035D00085919491909343048093420487E0809373
:1035E0007104EEE9F7E7E491E0937004EFE9F7E79F
:1035F000E491E0931C05E0EAF7E7859194919093BC
:10360000570480935604E2EAF7E7859194919093EA
:10361000590480935804E4EAF7E7859194919093D4
:103620005B0480935A04E6EAF7E7859194912CC0F5
:103630009CE39093050510923E0480933F0480E242
:1036400093E0909341048093400484ED93E0909341
:1036500043048093420487E0809371048093700454
:103660008CEA9DE090935704809356048EED9DE084
:10367000909359048093580484E79EE090935B04F0
:1036800080935A048CE39FE090935D0480935C04E4
:103690006FEF70E08FEF0E948B0888E08093440406
:1036A00089E08093450487E08093460486E0809318
:1036B0004704C4E0C093480482E08093490485E055
:1036C00080934A040E94B9188CE39FE090935504BC
:1036D00080935404C093530481E080935E049BE084
:1036E000909308059DE09093070590E1909309055C
:1036F0009EE090930B059FE090930A05809302054E
:1037000080931A0510921B058093010568E779E004
:103710008AEF94E00E94B40ACFB7F8948091B80180
:10372000811127C0E0EBFBE08491E4ECFBE0949195
:10373000E82FF0E0EE0FFF1FE25AFE4FA591B49183
:10374000EC91E92321F461E08AE00E94200861E025
:103750008AE00E944F088CB580618CBD8CB5806476
:103760008CBD61E08DE00E944F0861E08BE00E941B
:103770004F088091B8018F5F8093B801CFBF8CB59F
:103780008F7D8CBD8CB58C7F81608CBD8DB581604B
:103790008DBD8CB58C608CBD61E0809108050E9468
:1037A0004F0861E0809107050E944F0861E0809119
:1037B00009050E944F0880910B0518161CF461E062
:1037C0000E944F0880910A0518161CF461E00E94BF
:1037D0004F0880910B05181674F460E00E942008D1
:1037E0006AE070E080E090E00E940F0961E0809163
:1037F0000B050E94200880910705082E000C990BEC
:10380000FC01EA55F44FE491F0E0EE0FFF1FE85998
:10381000FE4F2591349130930F0520930E05FC0146
:10382000E654F44FE491E093150580910805082EC5
:10383000000C990BFC01EA55F44FE491F0E0EE0F17
:10384000FF1FE859FE4F2591349130930D052093C9
:103850000C05FC01E654F44FE491E09314058091CB
:103860000A05082E000C990BFC01EA55F44FE4916F
:10387000F0E0EE0FFF1FE859FE4F25913491309391
:10388000110520931005FC01E654F44FE491E093F8
:10389000160580910905082E000C990BFC01EA55CC
:1038A000F44FE491F0E0EE0FFF1FE859FE4F259131
:1038B00034913093130520931205FC01E654F44F24
:1038C000E491E093170581E20E94F81684E10E94DA
:1038D000F8168091050587FF03C08FE780930505E3
:1038E0008091050580680E94F81680E20E94F81613
:1038F0008CE00E94F8160E94171781E080936F04F5
:1039000066EFE62E64E0F62E02E914E0C0E0D1E0B6
:103910007AE5C72E71E0D72ED701DD937D01F8013E
:10392000C192D1928F016C2F80E00E947E18CF5FF0
:10393000C43091F761E070E083E00E948B088091D1
:10394000B100887F81608093B100F894109280006C
:1039500010928100109285001092840088E191E01D
:103960009093890080938800809181008860809383
:1039700081008091810081608093810080916F003F
:10398000826080936F0078948091560490915704E0
:10399000892B11F00E944E1980915004813009F05A
:1039A00053C11092700480911C05882321F08FE987
:1039B00091E00E94951981E0809300050E944F0CD0
:1039C000109252040E94FA140E94330F882329F0A7
:1039D0000E946D0F80E891E005C080E00E94DE0F3C
:1039E0008EE891E0909331058093300584E38093D5
:1039F0003205E12CF12CC12CD12CC8EBD1E040E2F6
:103A0000242E42E0342E56E4452E52E0552E0E94DC
:103A10000410082F882309F40FC10E94DC0C28E948
:103A2000622E21E0722E39ED832E31E0932ED401E7
:103A3000F301819191918D939D93CE17DF07C9F783
:103A400080914B04813009F41CC160E080914D04E9
:103A5000813009F423C180914C04813009F423C1E1
:103A600080914E04813009F42BC1E0919801F091CE
:103A70009901A8E9B1E040E1E416F1041CF0A9EDD8
:103A8000B1E014C08D919D91E817F9070CF4FC0189
:103A90008FEFE81AF80AEFCF8D919D918E179F074F
:103AA00011F4E0E0F0E04FEFC41AD40A90E1C91637
:103AB000D10494F3E330F1056CF0EE0FFF1FEB54EB
:103AC000FE4F85919491909331058093300584E366
:103AD0008093320570919701E8E9F1E010E080E011
:103AE00090E0A12CB12C219131912115310519F0D3
:103AF000AFEFAA1ABA0AD4014D915D914D01241776
:103B0000350709F401962B30310521F4711102C0FB
:103B1000702F11E0CE17DF0731F7709397014097B0
:103B200081F081E00E94AF0EBFE0AB16B10409F056
:103B3000E5C089EBA82E81E0B82ED501E8E9F1E0D7
:103B40000BC0662309F4DAC040E063EB71E08FE557
:103B500094E00E947F0AD2C0819191918D939D93B0
:103B6000CE17DF07C9F780E00E94430E0E94210EA6
:103B700080E00E94430E0E94210E0E94210E0E94AE
:103B8000210EA9EBB1E0E8E9F1E080E090E041919D
:103B900051912D913D914217530709F40196CE178B
:103BA000DF07A9F74097C9F40E94080D80915004DF
:103BB000813009F092C004E30E940410882339F098
:103BC0000E94080D80915004813009F48BC08091CF
:103BD000500481508E3F80F791C089ED91E0F5014E
:103BE000219131915F01D3012D933D933D018E17BA
:103BF0009F07A9F783C00E94B00D809150048F3FAA
:103C000009F0ECC014E30E9404108823E1F30E9441
:103C1000B00D80914F04813009F4E5C080E090E060
:103C200020915004213009F4AEC0892B61F38091BA
:103C30005104813009F4F1C080E090E0892B09F44F
:103C4000E6CE0E940000E3CE40E062E771E08FE53F
:103C500094E00E947F0A41E062E771E08FE594E022
:103C60000E947F0A42E062E771E08FE594E00E94E3
:103C70007F0A43E062E771E08FE594E00E947F0AEB
:103C800092CE0E94210E0E94210E81E00E94430EDE
:103C90000E94210E0E94210E61E0D8CE81E00E9498
:103CA000430E61E0D8CE0E94210E81E00E94430EB7
:103CB0000E94210E0E94210E0E94210E61E0D0CEB2
:103CC0000E94210E0E94210E0E94210E81E00E947E
:103CD000430E0E94210E61E0C8CE0E94080D0E9492
:103CE000041064CF81E00E94C00FA6E5B2E0B0935B
:103CF0003105A09330050093320569CF112321F1DE
:103D00000E94570D80914F0481508E3F28F40E94ED
:103D1000570D0E940410F6CF8091500481508E3FC1
:103D2000B0F304E30E9404108823E1F30E94570DCE
:103D300080914F04813071F180E090E02091500437
:103D40002130A9F1892B71F380914F04813021F446
:103D5000111102C00E94900F8091500481508E3F3B
:103D600008F065CF10E0809150048F3F21F08091E2
:103D70004F04813049F511113ECF81E00E94C00F00
:103D80008EE292E042C0809150048F3FC1F10E94C8
:103D90000410F9CF8FE594E00E945115509231053F
:103DA000409230050093320581E090E0C7CF81E07A
:103DB0000E94C00F8AE392E0909331058093300512
:103DC00084E380933205C0CF0E94DC0C0E94041073
:103DD00080914F04813039F611E0C5CF0E94B00DBB
:103DE0000E9404100ACF81E00E94DE0F309231055C
:103DF000209230051093320581E090E011CF8FE5DD
:103E000094E00E9451158CE092E0909331058093EC
:103E1000300584E3809332050ACF0E94900F809191
:103E20001C05882321F088EF91E00E94951981E01C
:103E3000809300050E944F0C109252040E94FA14C5
:103E40000E94330F882349F00E946D0FEAEEF1E0E3
:103E5000F0933105E093300509C080E00E94DE0F49
:103E600089ED91E0909331058093300584E3809350
:103E70003205E2CE1092FD041092FC048DE491E034
:103E80009093FB048093FA0408958F929F92AF92CF
:103E9000BF92CF92DF92EF92FF92CF93DF93EC012C
:103EA000688179818A819B81611571058105910500
:103EB00021F464E279ED8BE597E02DE133EF41E009
:103EC00050E00E940D2049015A019B01AC01A7EA74
:103ED000B1E40E942C206B017C01ACEEB4EFA50193
:103EE00094010E943A20DC01CB018C0D9D1DAE1D7A
:103EF000BF1DB7FF03C00197A109B048888399830C
:103F0000AA83BB83BC01CD019F77DF91CF91FF9046
:103F1000EF90DF90CF90BF90AF909F908F900895DB
:103F20008F929F92AF92BF92CF92DF92EF92FF92C9
:103F3000609101017091020180910301909104014F
:103F4000611571058105910521F464E279ED8BE538
:103F500097E02DE133EF41E050E00E940D20490150
:103F60005A019B01AC01A7EAB1E40E942C206B012D
:103F70007C01ACEEB4EFA50194010E943A20DC0173
:103F8000CB018C0D9D1DAE1DBF1DB7FF03C001975A
:103F9000A109B0488093010190930201A09303010D
:103FA000B0930401BC01CD019F77FF90EF90DF90AB
:103FB000CF90BF90AF909F908F9008956093010134
:103FC0007093020180930301909304010895FB0113
:103FD000DC018D91059080190110D9F3990B08959A
:103FE000FB01DC0105900D920020E1F70895F9999D
:103FF000FECF92BD81BDF89A992780B50895262FEE
:10400000F999FECF1FBA92BD81BD20BD0FB6F894BD
:10401000FA9AF99A0FBE01960895052E97FB1EF4A1
:1040200000940E94242057FD07D00E943F2007FCE7
:1040300003D04EF40C942420509540953095219552
:104040003F4F4F4F5F4F08959095809570956195C4
:104050007F4F8F4F9F4F08950E946120A59F900D25
:10406000B49F900DA49F800D911D11240895B7FF5A
:104070000C942C200E942C20821B930B0895A1E20B
:104080001A2EAA1BBB1BFD010DC0AA1FBB1FEE1FD2
:10409000FF1FA217B307E407F50720F0A21BB30B1D
:1040A000E40BF50B661F771F881F991F1A9469F799
:1040B00060957095809590959B01AC01BD01CF01F5
:1040C0000895A29FB001B39FC001A39F700D811DF1
:1040D0001124911DB29F700D811D1124911D089511
:1040E0000E94E42088F09F5798F0B92F9927B75184
:1040F000B0F0E1F0660F771F881F991F1AF0BA958C
:10410000C9F714C0B13091F00E94FE20B1E00895CB
:104110000C94FE20672F782F8827B85F39F0B93FBD
:10412000CCF3869577956795B395D9F73EF490953E
:104130008095709561957F4F8F4F9F4F0895E894BC
:1041400009C097FB3EF490958095709561957F4FDF
:104150008F4F9F4F9923A9F0F92F96E9BB2793958D
:10416000F695879577956795B795F111F8CFFAF49D
:10417000BB0F11F460FF1BC06F5F7F4F8F4F9F4FCE
:1041800016C0882311F096E911C0772321F09EE82C
:10419000872F762F05C0662371F096E8862F70E092
:1041A00060E02AF09A95660F771F881FDAF7880F6C
:1041B0009695879597F9089557FD9058440F551F88
:1041C00059F05F3F71F04795880F97FB991F61F099
:1041D0009F3F79F087950895121613061406551F10
:1041E000F2CF4695F1DF08C0161617061806991F7C
:1041F000F1CF86957105610508940895E894BB2771
:1042000066277727CB0197F908950E9418210C940F
:1042100089210E947B2138F00E94822120F0952381
:1042200011F00C9472210C94782111240C94FF202D
:104230000E94DC2070F3959FC1F3950F50E0551F4D
:10424000629FF001729FBB27F00DB11D639FAA27EB
:10425000F00DB11DAA1F649F6627B00DA11D661F3A
:10426000829F2227B00DA11D621F739FB00DA11D5B
:10427000621F839FA00D611D221F749F3327A00D15
:10428000611D231F849F600D211D822F762F6A2FB1
:1042900011249F5750409AF0F1F088234AF0EE0F16
:1042A000FF1FBB1F661F771F881F91505040A9F743
:1042B0009E3F510580F00C9472210C94FF205F3FCB
:1042C000E4F3983ED4F3869577956795B795F7957F
:1042D000E7959F5FC1F7FE2B880F911D96958795F7
:1042E00097F9089597F99F6780E870E060E0089576
:1042F0009FEF80EC089500240A94161617061806FE
:104300000906089500240A941216130614060506D9
:104310000895092E0394000C11F4882352F0BB0F6A
:1043200040F4BF2B11F460FF04C06F5F7F4F8F4FCD
:104330009F4F0895DB018F939F930E942C20BF9184
:10434000AF91A29F800D911DA39F900DB29F900DE4
:1043500011240895991B79E004C0991F961708F05D
:10436000961B881F7A95C9F78095089597FB072EAD
:1043700016F4009407D077FD09D00E94CA2107FCEB
:1043800005D03EF4909581959F4F08957095619565
:104390007F4F0895AA1BBB1B51E107C0AA1FBB1F7B
:1043A000A617B70710F0A61BB70B881F991F5A95C1
:1043B000A9F780959095BC01CD010895EE0FFF1FE0
:1043C0000590F491E02D099481E090E0F8940C942C
:0643D000E921F894FFCF83
:1043D60001010000000C000800040000000D0009A7
:1043E60000050001000E000A00060002000F000B87
:1043F60000070003001C040204E803CE03B4039A7A
:1044060003800366034C0332031803FE02E402CA68
:1044160002B00296027C02620200000000650BDB1D
:1044260006DF07DE070D0A004C4F414445520000E7
:00000001FF
