:100000000C949D020C94C5020C94C5020C94C5027C
:100010000C94C5020C94C5020C94C5020C94C50244
:100020000C94C5020C94C5020C94C5020C945C0B94
:100030000C94C5020C94C5020C94C5020C94C50224
:100040000C94D60A0C94C5020C94C5020C94C502FB
:100050000C94C5020C94C5020C94C5020C94C50204
:100060000C94C5020C94C5020101FF030101F703C2
:100070006C00680000000000240027002A00000037
:100080000000250028002B000500893008023802F6
:1000900049786814000020202020596F646127737C
:1000A00000596F64612773000B041F006AC0FFE0F2
:1000B00064C00B045DC0554055405DC008057EFF1F
:1000C000FFE7C308057EDBFFA5C308056EDB76A549
:1000D000C3080566D956A5420805228952A54202E1
:1000E00004804080400204408040800704107CFE71
:1000F000FE07048A40049207049204408A202020CC
:1001000020596F6461277300070538D6FE28C6079B
:100110000538D6FE4428070510BAD67C28070538CE
:1001200054FE9228070538547C4428070538547C2F
:10013000285407055482548254070554825482542B
:100140000500380168010000401AFFFFFFFFFFFFB4
:10015000FFFF00000000000000003B9DDC71F1FB90
:10016000E1F03B9DDCF9F9FBF3F83B9DDCF9F9FB91
:10017000FBF83BDDDDFDFDC3BBB83BDDDDFDDDC3D5
:10018000BBB83BDDDDDDDDC3BB803BFDDDDDDDF38D
:10019000BBC03BFDDDDDDDF3F1E03BFDDDFDDDF36F
:1001A000E0F03BFDDDFDDDC3F0783BBDDDFDDDC3F3
:1001B000B8383BBDDDDDDDC3BBB83BBDFDDDDDC318
:1001C000BBB83B9CF9DDF9FBBBF83B9C71DDF9FB4F
:1001D000BBF83B9C21DDF1FBB9F000000000000002
:1001E0000000FFFFFFFFFFFFFFFF00000000000017
:1001F0000000A6C66AECE66E66CEAAAA8A4A8AAA59
:100200008AA8AAAEEA4ACAEC8EAC4AAA2A4A8AAAA4
:100210008AA84ECAE4ECEEAAEACE1753440016139D
:100220007800161314001510200015201000540A31
:1002300003E181867F3E186D830F0F0E0183866078
:1002400033186DC3198F1803C38E6033186DE330F4
:10025000CF1803C39E603630CDE360CF3006C79E13
:100260007E3E30CDB360CF300CC6F6603330D9B6A9
:1002700060CF33CFCCF66061B0DB1E60CF30D86C7E
:10028000E6C061B0DB1E618F19986CC6C063B19B7C
:100290000E330F0FB078C6FF7E1F1B061E0F0A0A13
:1002A000153A49676E6F7265006D560A0A504C45E3
:1002B000415345205455524E204F464620004C4F46
:1002C00057204241545445525921200003053F21F3
:1002D0003F1208120A100A0E1C0E0C1E0C141A14DF
:1002E000161F161E131E1E1B1E1E1F1E3F213F3AE9
:1002F0002F3A173D173F213F181F02040A041F0E13
:1003000004040E1F0A1F0A0E0E1F04110E2E252EA6
:100310002F2A2E262929021F02081F08150E040461
:100320000E150E15151B151B040604040C04000005
:10033000000017000300031F0A1F16371A190413C1
:100340000A153A000300000E11110E000A040A04F7
:100350000E040030000404040010001804031F11F0
:100360001F121F101D151711151F07041F17151D2C
:100370001F151D01011F1F151F17151F000A000063
:100380003200040A110A0A0A110A040115020E11A8
:10039000171E051E1F150A0E110A1F110E1F15111B
:1003A0001F05010E111D1F041F111F1108100F1F23
:1003B000041B1F10101F061F1E040F0E110E1F0915
:1003C000060E112E1F051A121509011F011F101FFD
:1003D0000F180F1F0C1F1B041B031C031915130000
:1003E0001F11030418111F00020102202020000128
:1003F000020C121E1F120C0C12120C121F0C1A14DB
:10040000041E05242A1E1F021C141D1020201D1F5F
:100410000814111F101E041E1E021C0C120C3E0A92
:10042000040C123E1E040214160A020F120E101EB5
:100430000E100E1E081E120C1226281E322A26042A
:100440001E21001F00211E040102013F213FF6E88A
:10045000DBCFC3B8AEA49B928A827B746E68625C69
:1004600057524E4945413E3A3734312E2C292725E3
:1004700023211F1D1C1A1917161514131211100F02
:100480000E0D0C0B0A09080706450068010000174D
:100490002B152010204C4F4144455200172B16209D
:1004A0001314000A4E6F2053442063617264206F5E
:1004B000720A6E6F204C4F414445522E4845580AEF
:1004C0000A153A45786974001D20466C61736869A5
:1004D0006E670A20206C6F616465722E2E2E0A0AE8
:1004E000444F4E2754205455524E204F464621002B
:1004F0000000000023002600290004040404040472
:1005000004040202020202020303030303030102C2
:100510000408102040800102040810200102040891
:100520001020000000080002010000030407000082
:10053000000000000000221E1C1E11241FBECFEF71
:10054000D8E0DEBFCDBF12E0A0E0B1E0E8EFF5E417
:1005500002C005900D92A031B107D9F727E0A0E1C4
:10056000B2E001C01D92AD33B207E1F712E0CCE971
:10057000D2E004C02197FE010E940522CB39D107A9
:10058000C9F70E94D3120C94EF220C9400002F9212
:100590003F924F925F926F927F928F929F92AF9213
:1005A000BF92CF92DF92EF92FF920F931F93CF9360
:1005B000DF93CDB7DEB72E970FB6F894DEBF0FBE30
:1005C000CDBF40912C0550912D0560912E05709165
:1005D0002F052FB7F89480912D0490912E04A091AF
:1005E0002F04B09130042FBF481B590B6A0B7B0BB3
:1005F00080912B0590E0A0E0B0E0009127051091DC
:1006000028052091290530912A0584179507A6070A
:10061000B70730F4011511052105310509F03CC477
:10062000012B022B032B09F035C48091510481501A
:100630008E3F30F580915004813011F58091700427
:100640008F5F6091710487FD09C0082E000C990B23
:1006500070E06F5F7F4F0E94DD21682F6093700410
:100660008CE994E0909331058093300588E4809381
:10067000320540E069E874E08FE594E00E94480CA0
:100680008091510481508E3F70F480914F048130ED
:1006900009F068C48FE894E09093310580933005A9
:1006A00088E48093320580E00E94B31181E00E94CB
:1006B000B31182E00E94B31183E00E94B3112AE3D8
:1006C00034E038872F8379E2C72E74E0D72E0EE905
:1006D00014E0EAE8EE2EE4E0FE2E59013E872D8775
:1006E000512C44244394AD85BE8599968C9199975D
:1006F000882309F4EEC04D01B0E78B0E911CF40184
:1007000080818111E6C0D7012D913C91D801ED91F6
:10071000FC91EE0FFF1FE20FF31F8591949100975C
:1007200021F5ED85FE85E05AFF4F8081882329F071
:10073000F80111821082F90116C0AD85BE85999627
:100740001C92999795968C918823C1F1852D0E94D2
:10075000B311D801ED91FC91EE0FFF1FD7018D91E0
:100760009C91E80FF91F85919491ED85FE85E058E5
:10077000FF4FFE83ED832D853E852C573F4F3A83F7
:100780002983AD85BE85A857BF4FBC83AB83ED855C
:10079000FE85E457FF4FFA87E9872D853E85205770
:1007A0003F4F3C872B872D843E8434E9230E311C38
:1007B0006D847E84A4E76A0E711C2DC0652D8FE5C3
:1007C00094E00E941F0C85C0BC0136E076956795C9
:1007D0003A95E1F76F71892F8695869586958051B8
:1007E0002F702230B1F138F521111DC06B3008F0A7
:1007F0006AE0F3016083D801ED91FC911197319685
:10080000ED93FC93EE0FFF1FD7018D919C91E80FA4
:10081000F91F859194919C013695279536952795DA
:1008200080FDD2CF2DC0213031F7452D8FE594E0EA
:100830000E94200BE0CF2330B9F02430E1F69091F4
:100840006F04969F602D1124AB85BC856C93F101DC
:1008500015C090916F04969F602D1124AD81BE81CB
:100860006C93E981FA810AC090916F04969F602D84
:100870001124AB81BC816C93E985FA858083BBCF61
:10088000ED85FE85E459FF4F2F73208380916F041F
:10089000899F802D1124F4018083ED85FE85E0552C
:1008A000FF4F1082F501E855FF4F11821082ED8550
:1008B000FE85E858FF4F4082D6014C92ED85FE85BB
:1008C000E458FF4F1082F801808191810196918355
:1008D000808353942D853E852F5F3F4F3E872D8724
:1008E00032E0A30EB11C8FEFC81AD80A0E5F1F4F5B
:1008F00092E0E90EF11CA4E05A12F5CEA1E2AA2E74
:10090000A4E0BA2EBDE1CB2EB4E0DB2E19E1612EBE
:1009100014E0712E0AEE14E082EEE82E84E0F82E48
:1009200095E2492E94E0592EEAE3F4E0FA83E98354
:10093000312CE981FA81E858FF4F8081882309F43E
:100940002EC1E981FA81E059FF4F8081811106C0F3
:10095000632D8FE594E00E941F0C21C1815080839C
:10096000D8018C91E981FA81EC54FF4FFE83ED832D
:1009700029813A8128543F4F490181114EC0D70146
:100980008D919C9101969C01220F331FEF81F88578
:10099000E856FF4F0190F081E02DE20FF31F4591E3
:1009A0005491242F2770ED81FE812083BA01E3E06A
:1009B00076956795EA95E1F79B0136952795352F52
:1009C00036953695D4013C932F7330916F04239F55
:1009D000202D1124F80120836170D2016C93F7015E
:1009E00091838083E981FA81E056FF4F208130E0D6
:1009F0008217930790F0E981FA81EC55FF4F8081CF
:100A0000882331F0281B3109D7012D933C9305C071
:100A1000632D8FE594E00E941F0CF80180818150C6
:100A20008083E981FA81E458FF4F808121E0280F1B
:100A30002083E981FA81E459FF4F4081D4013C9140
:100A4000340FE981FA81E45BFF4F8081380FE9813F
:100A5000FA8135A7E857FF4F6081662399F070E06F
:100A6000822F022E000C990B0E94DD21E981FA8170
:100A7000E457FF4F8081869F300D1124A981BA81F0
:100A80009D963C93E981FA8185A590E0CB966BE336
:100A900070E00E94DD2185A7EC58FF4F3081A981CD
:100AA000BA81D1963C93D197FD01E058FF4F608108
:100AB0006623A1F0062E000C770B822F022E000C6D
:100AC000990B0E94DD21E981FA81EC57FF4F80816B
:100AD000869F300D1124E981FA8131ABE981FA81D9
:100AE000E057FF4F60816623D1F0822F220F990BD0
:100AF00070E00E94DD21CB0162E070E00E94DD2108
:100B0000E981FA81EC56FF4F2081A981BA81D19603
:100B10009C91D197289F900D1124D1969C93E981A7
:100B2000FA814F3359F081A98A300CF089E087FDB2
:100B300080E0A981BA81D1968C9301C011AAF89462
:100B4000A981BA819D96EC91F0E0E25BFB4FE491C4
:100B5000D501EC93E981FA8131A9E454FF4F20815A
:100B6000AD81BE814C913203900111244203C0013A
:100B7000439F900D11240090700402C0880F991FAC
:100B80000A94E2F797FF02C081589F4F880F892F80
:100B9000881F990BF6018083D3018C93789433944A
:100BA000E981FA813196FA83E983FFEFAF1ABF0A30
:100BB0002FEFC21AD20A3FEF631A730A0F5F1F4F5B
:100BC00082E0E80EF11CAF81B8851296B887AF833A
:100BD000BFEF4B1A5B0AE4E03E12ABCE80913205C8
:100BE000882309F49AC08C3020F4FCE0F81BF983C8
:100BF00001C0198281E08093020510921A051092BB
:100C00001B052091FF042B83822F8D5F1981121BFE
:100C10000DE2010FE82E880FFF08E00EF11C07FD22
:100C2000FA94802F002E000C990B8E159F054CF422
:100C30002EE4402F63E08AEF94E00E94D50C0F5F12
:100C4000F0CF3B8134503B83105D232F41E0612F77
:100C500080E50E944F112B8142E0612F83E00E94CA
:100C60004F1181E080931A0580931B050091FF04CA
:100C70001981101B8DE2810F8B832EE4482F63E0D6
:100C80008AEF94E00E94D50C83E0800F9B81980F3F
:100C90009B83492F41502EE463E08AEF94E00E9449
:100CA000D50C0350105D202F412F60E08AEF94E0B7
:100CB0000E94E50D202F412F63E58AEF94E00E940A
:100CC000E50D41E0612F83E00E94D01042E0612FEA
:100CD00080E50E94D010AB81A450AB8344E06A2F22
:100CE00080E50E94D01048E06B8183E00E94D01024
:100CF00084E0809303058091FF04B981B81BB15D46
:100D0000B093040580913005909131050E94AF1099
:100D100080913205815080933205809156049091E4
:100D20005704892B09F48EC081E080931A05109234
:100D30001B059091FE0485E5891B809303051092A5
:100D4000040560915304613009F45DC030F0809176
:100D50005204653008F06FC06AC003E614E01982DF
:100D600069818FE594E00E941F0CF80111928F01B8
:100D7000F981FF5FF983F43099F781E080930205F0
:100D8000ECECF2E0E491EF5FE093FE04EDECF2E0D6
:100D9000E491EF5FE093FF048EEC92E090931905ED
:100DA0008093180510925704109256041092000573
:100DB00028EA29830E94C7028823E1F38EEB92E0A0
:100DC0000E94AF10409154045091550460E070E0CF
:100DD0002AE08AEF94E00E943B0989EA92E00E94AF
:100DE000AF10698162956F7070E08AEF94E00E94A5
:100DF000FB0F8EE992E00E94AF1080914F0481308A
:100E000009F094C01FC080911D0590911E05A0910E
:100E10001F05B09120058F709927AA27BB27089737
:100E2000A105B10510F467E009C068E707C0882391
:100E300049F06B5F03C0882329F06FE28AEF94E0EA
:100E40000E941F090E9474108091000581110EC03C
:100E500088EF91E0E3E3F5E0DF019C011D92215072
:100E60003040E1F710920305109204050E94770AC2
:100E700060932705709328058093290590932A0590
:100E80002091230530912405621B730B709322057A
:100E90006093210580E06CC02FB7F89480912D04F9
:100EA00090912E04A0912F04B09130042FBF209177
:100EB0002B05820F911DA11DB11D80932C059093D0
:100EC0002D05A0932E05B0932F0580911D059091BF
:100ED0001E05A0911F05B09120050196A11DB11D11
:100EE00080931D0590931E05A0931F05B0932005C8
:100EF00010922705109228051092290510922A05B4
:100F00000E94770A6093230570932405809325053A
:100F1000909326050E94FC118091560490915704ED
:100F2000892B11F00E948C1281E022C0398131504E
:100F3000398331113FCF60E070E08FEF0E94180AD3
:100F400083B7817F846083BF83B7816083BF83B7AA
:100F5000816083BF889583B78E7F83BF83B78E7F81
:100F600083BF28CF893209F09ECB0E9457129BCBBA
:100F70002E960FB6F894DEBF0FBECDBFDF91CF9196
:100F80001F910F91FF90EF90DF90CF90BF90AF90A7
:100F90009F908F907F906F905F904F903F902F9099
:100FA0000895CF92DF92EF92FF920F931F93CF930A
:100FB000DF93EC0181E0809302051092010510920D
:100FC00000051092520480931A0580931B051CE0C3
:100FD0000E94C7028823E1F3FE018491882319F05F
:100FE0000091FF0401C000E02EE232E040E060E04A
:100FF0008AEF94E00E94B70E4CE0400F28E431E005
:1010000060E08AEF94E00E94B70E109203051093FF
:101010000405CE010E94AF108091FE04982F990F15
:10102000890F81958D5A809303058091FF04982F35
:10103000990F890F8195835D8093040580911D052B
:1010400084FF03C08AE292E002C086E292E00E943E
:1010500047128091FE04982F990F890F81958D5A20
:1010600080930305809104058F5F80930405809130
:101070007004882319F082E292E002C08EE192E0CF
:101080000E9447128091FE04982F990F890F819535
:101090008D5A80930305809104058F5F809304052A
:1010A0008AE192E00E944712809150048130C9F495
:1010B000809170048F5F6091710487FD09C0082ED4
:1010C000000C990B70E06F5F7F4F0E94DD21682F4D
:1010D0006093700440E069E874E08FE594E00E945A
:1010E000480C80914F048130A9F080911C05482F55
:1010F00050E060E070E0C0901D05D0901E05E090CB
:101100001F05F0902005C416D506E606F706F8F090
:101110008F3FE9F08FEF80931C0560E08FE594E04E
:101120000E941F0C1092630440E060E471E08FE5C0
:1011300094E00E94480C81E080935204DF91CF91AB
:101140001F910F91FF90EF90DF90CF9008958091C5
:101150005104813009F03CCF0E94571239CFFC0175
:101160008091370790913807892B21F421E030973F
:1011700049F413C08091330790913407309731F4CC
:1011800021E0FC018081882341F006C0BF010E945C
:10119000DF2221E0892B09F020E0822F0895CF92F1
:1011A000DF92EF92FF920F931F93CF93DF936C0127
:1011B0007A018B01C0E0D0E0CE15DF0581F0D801C7
:1011C0006D918D01D601ED91FC910190F081E02DA2
:1011D000C6010995892B11F02196EECF7E01C7013A
:1011E000DF91CF911F910F91FF90EF90DF90CF9003
:1011F000089580912904882319F08091190401C071
:1012000080E090912A04992319F090911A04890F93
:1012100090912B04992319F090911B04890F9091C0
:101220002C04992319F090911C04890F8093B40029
:101230000895089580E090E008950E94D122DC0195
:10124000ED91FC910190F081E02D099461157105FB
:1012500079F0FB0101900020E9F73197AF01461BBF
:10126000570BDC01ED91FC910280F381E02D099494
:1012700080E090E008958F929F92AF92BF92EF929C
:10128000FF920F931F93CF93DF93CDB7DEB7A19754
:101290000FB6F894DEBF0FBECDBF7C01FA01CB01C3
:1012A00019A2223008F42AE08E010F5D1F4F822E12
:1012B000912CA12CB12CBF01A50194010E946121A8
:1012C000F901CA01015011096A3014F4605D01C0CE
:1012D000695CD8016C93232B242B252B61F7B80173
:1012E000C7010E942609A1960FB6F894DEBF0FBE73
:1012F000CDBFDF91CF911F910F91FF90EF90BF90E5
:10130000AF909F908F900895833081F028F48130C2
:1013100099F08230A1F008958730A9F08830B9F0B3
:101320008430D1F4809180008F7D03C08091800053
:101330008F7780938000089584B58F7702C084B53D
:101340008F7D84BD08958091B0008F7703C0809118
:10135000B0008F7D8093B00008951F93CF93DF93EB
:10136000282F30E0F901EE5DFA4F8491F901E25F38
:10137000FA4FD491F901E650FB4FC491CC23C1F050
:10138000162F81110E948409EC2FF0E0EE0FFF1F51
:10139000E258FF4FA591B4919FB7F894111104C082
:1013A0008C91D095D82302C0EC91DE2BDC939FBFAB
:1013B000DF91CF911F910895CF93DF9390E0FC01CF
:1013C000E25FFA4F2491FC01E650FB4F84918823A1
:1013D00061F190E0880F991FFC01EC58FF4FC59117
:1013E000D491FC01E258FF4FA591B491611109C05D
:1013F0009FB7F8948881209582238883EC912E23CF
:101400000BC0623061F49FB7F8948881322F309519
:1014100083238883EC912E2B2C939FBF06C08FB71C
:10142000F894E8812E2B28838FBFDF91CF91089508
:101430001F93CF93DF93182FEB0161E00E94DC092B
:10144000209711F460E004C0CF3FD10539F461E08A
:10145000812FDF91CF911F910C94AD09E12FF0E026
:10146000EE5DFA4FE491E330F9F048F4E130B9F081
:10147000E230A1F584B5806284BDC8BD34C0E730D8
:10148000E9F0E83019F1E43049F58091800080629C
:1014900080938000D0938B00C0938A0024C084B5D1
:1014A000806884BDC7BD1FC0809180008068809324
:1014B0008000D0938900C093880015C08091B0004F
:1014C00080688093B000C093B3000DC08091B000DD
:1014D00080628093B000C093B40005C0C038D105CD
:1014E0000CF0B5CFAFCFDF91CF911F9108953FB7EB
:1014F000F8948091360490913704A0913804B0910B
:10150000390426B5A89B05C02F3F19F00196A11DEF
:10151000B11D3FBFBA2FA92F982F8827820F911D89
:10152000A11DB11DBC01CD0142E0660F771F881FD0
:10153000991F4A95D1F708958F929F92AF92BF92CB
:10154000CF92DF92EF92FF926B017C010E94770AAB
:101550004B015C01C114D104E104F104F1F00E94DB
:10156000770ADC01CB0188199909AA09BB09883ED1
:101570009340A105B10570F321E0C21AD108E1083A
:10158000F10888EE880E83E0981EA11CB11CC114DE
:10159000D104E104F10419F7DDCFFF90EF90DF9063
:1015A000CF90BF90AF909F908F9008951F920F9211
:1015B0000FB60F9211242F933F938F939F93AF9366
:1015C000BF9380912D0490912E04A0912F04B0918F
:1015D00030043091350423E0230F2D3720F4019699
:1015E000A11DB11D05C026E8230F0296A11DB11D46
:1015F0002093350480932D0490932E04A0932F0400
:10160000B09330048091360490913704A09138044F
:10161000B09139040196A11DB11D809336049093B9
:101620003704A0933804B0933904BF91AF919F91D0
:101630008F913F912F910F900FBE0F901F90189593
:1016400050E0DA01AA0FBB1FA80FB91FD3963C9137
:10165000D397D4962C91D497E32FF22FE60FF11D58
:10166000E60FF11D25913491AD58BF4F2D933C935A
:10167000F90165917491FC017089769F602D1124A8
:10168000840F951FFC01E558FF4F6083F901A59178
:10169000B4914B2F50E0E62FF0E04E175F0720F497
:1016A000F90125913491632FFC01E158FF4F769F9A
:1016B000602D1124608308951F920F920FB60F9230
:1016C00011242F933F934F935F936F937F938F9347
:1016D0009F93AF93BF93EF93FF9360911D046111AC
:1016E00002C080E023C0809131048F5F8093310479
:1016F000909121048917A8F39091290481E089270A
:10170000809329041092310480912504882369F084
:101710008091000193E4899F802D1124895B80933F
:1017200000010E94D1219093190481E060911E0470
:10173000662319F1909132049F5F909332042091B7
:1017400022049217D0F090912A0481E08927809397
:101750002A041092320480912604882369F0809133
:10176000000193E4899F802D1124895B80930001FF
:101770000E94D12190931A0481E060911F04662396
:1017800019F1909133049F5F9093330420912304C7
:101790009217D0F090912B0481E0892780932B043D
:1017A0001092330480912704882369F0809100010E
:1017B00093E4899F802D1124895B809300010E940E
:1017C000D12190931B0481E060912004662319F1DC
:1017D000909134049F5F90933404209124049217D5
:1017E000D0F090912C0481E0892780932C041092F2
:1017F000340480912804882379F08091000193E4D7
:10180000899F802D1124895B809300010E94D12142
:1018100090931C0401C081110E94F908FF91EF917F
:10182000BF91AF919F918F917F916F915F914F91F8
:101830003F912F910F900FBE0F901F90189564301D
:1018400030F570E09C01260F371FF901ED5AFF4F6C
:10185000108238971082AB01440F551FFC01E40F32
:10186000F51FED57FF4F11821082F901E95AFF4F22
:101870001082FB01E75EFB4F1082FB01E35EFB4F32
:101880001082FB01E75DFB4F10820C94F90808956C
:10189000EF92FF920F931F93CF93DF938C017B0105
:1018A000C42FD0E0443038F4642F0E941F0CF8019C
:1018B000EC0FFD1F1482FE01EE0FFF1FE00FF11F62
:1018C000F4A6E3A6FF9611821082F801EC0FFD1F2B
:1018D00081E08483DF01A15BBF4F89E08C931C967C
:1018E0001C9218961C92E559FF4F1082DF91CF9100
:1018F0001F910F91FF90EF900895FC01643508F05F
:1019000053C0403308F050C090A1742F7595759561
:101910007595262F062E000C330B542F57709230DE
:10192000A1F4F90184E57802E00DF11D1124ED5CCC
:10193000FA4F808190E0052E02C0959587950A9414
:10194000E2F78095982F91700AC0933041F4848516
:101950008170462740954170841303C014C09111D3
:1019600012C084E57802200D311D1124F901ED5CCF
:10197000FA4F81E090E001C0880F5A95EAF7809510
:101980009081892310C084E57802200D311D112437
:10199000F901ED5CFA4F81E090E001C0880F5A95A3
:1019A000EAF79081892B80830895EF92FF920F933D
:1019B0001F93CF93DF938C01F62ED42FE22EC0E03D
:1019C000CE1544F46F2D6C0F4D2FC8010E947D0C75
:1019D000CF5FF6CFDF91CF911F910F91FF90EF90E6
:1019E00008952F923F924F925F926F927F928F92C3
:1019F0009F92AF92BF92CF92DF92EF92FF920F939E
:101A00001F93CF93DF93EC016A3011F42885C1C096
:101A10006D3009F4C5C0698483E586150CF4A3C054
:101A20007A848FE287150CF49EC008858C8190E043
:101A30000197089F9001099F300D1124C901860D5F
:101A4000911D67FC9A95181619060CF08CC02D8113
:101A5000872D072C000C990B029F800D911D1124DE
:101A6000181619060CF07FC038A0462CC62CE62E9E
:101A7000F12CA02E002E000CBB08EC2DE6190E2E2A
:101A8000000CFF0B8C8190E0E817F9070CF06AC09E
:101A90000197E817F90779F0E89E9001E99E300D6B
:101AA000F89E300D1124E20FF31F8E8D9F8DE80FED
:101AB000F91F149101C010E0D72C572C252D2719A0
:101AC000022E000C330B8D8190E0281739070CF0A3
:101AD00046C010FF1DC0013031F4452D6C2DCE01E4
:101AE0000E947D0C38C02D2C45018D0C911CD7FC1B
:101AF0009A94822D022C000C990B881599055CF59F
:101B0000202F422D642DCE010E94D50C2394F1CFBD
:101B100089A198A18917F9F088A3013031F4452DE6
:101B20006C2DCE010E947D0C15C02D2C45018D0C15
:101B3000911CD7FC9A94822D022C000C990B8815CD
:101B4000990544F4202F422D642DCE010E94D50C1E
:101B50002394F1CF38A216955394D00EAFCFC394EF
:101B6000400E8BCF38A228853C818985239F800D2C
:101B7000112489879F81992399F0082E000C990BD5
:101B800044E550E0239F4019510911244817590793
:101B90003CF49D818A85299F800D11248A871986AE
:101BA00081E090E0DF91CF911F910F91FF90EF9036
:101BB000DF90CF90BF90AF909F908F907F906F906D
:101BC0005F904F903F902F900895EF92FF920F9368
:101BD0001F93CF93DF938C01D62FF42EE22EC0E01B
:101BE000CE1544F44F2D4C0F6D2FC8010E947D0C73
:101BF000CF5FF6CFDF91CF911F910F91FF90EF90C4
:101C000008950F931F93CF93DF93643008F058C06B
:101C10008B011127F801E255FB4FEC0134E0CC0FAA
:101C2000DD1F3A95E1F7DE01A55FBE4F1C969C9142
:101C300090839B3008F09AE0AB019083C55FDE4F44
:101C400068818FE594E00E94200B3885C801865C8E
:101C50009B4FFC01E058FF4F4A8520916F04429F43
:101C6000402D112440833496319530833C81349645
:101C70004E81429F402D1124408334963A53308345
:101C80003E85B0974A8140833496239F202D1124AE
:101C90002083E05CFF4F1082F801EE0FFF1FE3543A
:101CA000FB4F16A215A2FC01E858FF4F21E020834C
:101CB000F801E75DFB4F2083FC01E458FF4F1082E1
:101CC000DF91CF911F910F9108950F931F93CF93A1
:101CD000DF938C01EB0180913307909134070097DB
:101CE00039F020913507309136072617370768F508
:101CF000BE016F5F7F4F0E940B22009789F0909387
:101D0000340780933307D0933607C093350720916B
:101D1000370730913807232BC1F4FC01108215C01E
:101D20008091330790913407009711F00E94D21EE2
:101D30001092340710923307109238071092370729
:101D400010923607109235070BC0D0933807C09316
:101D50003707B80180913307909134070E94E82239
:101D600083E397E0DF91CF911F910F9108952F9218
:101D70003F925F926F927F928F929F92AF92BF92AB
:101D8000CF92DF92EF92FF920F931F93CF93DF9347
:101D9000EC01F901E4903196849164350CF019C19D
:101DA0000E2C000CFF08062F062E000C110BF7015D
:101DB000E00FF11F1E161F060CF00BC140330CF094
:101DC00008C1A82FC42E042E000CDD085601A80E51
:101DD000B11C87FDBA941A141B040CF0FAC02E5FD4
:101DE0003F4F570197E0A90EB11CB7FE04C0570141
:101DF000BEE0AB0EB11CB3E0B594A794BA95E1F781
:101E000047FF0AC0A42FA80FAC9CC001AD9C900D49
:101E10001124281B390B40E08A2F0A2E000C990B45
:101E2000840F911D47FD9A95C19714F0A0E3A41B60
:101E3000F8A067FD60E0E535F10514F0E4E5F0E0B9
:101E40009E2FCC85C427C62E062E000CDD08F60179
:101E5000E01BF10B8F014F01F7E08F229924E0E89E
:101E6000F0E002C0F595E7958A94E2F77E2F17FF20
:101E700002C0095F1F4FF3E015950795FA95E1F74A
:101E8000200F311F542F577081E001C0880F5A95E1
:101E9000EAF7459545954595F601B4E54B02E00D09
:101EA000F11D1124AF014D5C5A4FD0E02A2EAA0F2C
:101EB0003308EE24E394BB24ED2FF0E0E215F305A4
:101EC0000CF087C0F9015490F1E0FF121AC0962E71
:101ED0008A01E72F6901991608F072C08E2E8520BD
:101EE00021F0D8018C90882A8C92E69531F4BFEFCE
:101EF000CB1ADB0AF6015490E0E893940F5F1F4F72
:101F0000EACFF1101CC0782E7094962E8A01E72F2C
:101F10006901991608F054C08E2E852021F0D80151
:101F20008C9087208C92E69531F4BFEFCB1ADB0AB8
:101F3000F6015490E0E893940F5F1F4FEACFF3E06F
:101F4000FF1629F0962E8A01E72F690137C0682E07
:101F50006094862E8A01972E69018916D8F4E92D9E
:101F6000E52159F0D801EC91782C7C2670FE02C056
:101F7000E82B02C0E621D801EC93969439F4BFEF28
:101F8000CB1ADB0AF6015490E0E89E2E83940F5F93
:101F90001F4FE3CFCE2514C08E2E852021F0D8010F
:101FA0008C9088268C92E69531F4BFEFCB1ADB0A31
:101FB000F6015490E0E893940F5F1F4F991660F379
:101FC000880F19F44C5A5F4F81E0DF5F2A0D3B1DEB
:101FD00073CFDF91CF911F910F91FF90EF90DF9022
:101FE000CF90BF90AF909F908F907F906F905F90B9
:101FF0003F902F900895CF92DF92EF92FF920F9330
:102000001F93CF93DF936B01770FEE08FF08F7FE66
:102010001BC0EC016DE20E941F098C01442755276B
:10202000BA014C195D096E097F092AE0CE010E94B0
:102030003B09800F911FDF91CF911F910F91FF906E
:10204000EF90DF90CF9008952AE0B701A601DF91CD
:10205000CF911F910F91FF90EF90DF90CF900C9454
:102060003B09009759F0FC0101900020E9F73197F6
:10207000BF01681B790B0E94650E14C08091330765
:1020800090913407009711F00E94D21E10923407ED
:1020900010923307109238071092370710923607C4
:1020A0001092350783E397E00895CF93C82FF894F3
:1020B00060E0809109050E94AD0980910A0518161B
:1020C0001CF460E00E94AD09CEBD00000DB407FE17
:1020D000FDCF8EB580910A0518161CF461E00E94B0
:1020E000AD097894CF9108950F931F93CF9380916A
:1020F00006058F5F8093060503E315E0C0E08C2F93
:1021000080640E94551080E80E94551061E0809123
:1021100009050E94AD0980910A0518161CF460E0BB
:102120000E94AD09F80184E591919EBD00000DB4B7
:1021300007FEFDCF9EB58150B9F780910A051816AC
:102140001CF461E00E94AD09CF5F0C5A1F4FC630EE
:10215000B1F680E4CF911F910F910C9455100F931D
:102160001F93CF93DF938C01C0E0D0E0F801EC0F18
:10217000FD1F6491662371F0E091FA04F091FB0475
:102180000190F081E02D8AEF94E00995892B11F000
:102190002196ECCFCE01DF91CF911F910F91089541
:1021A000AF92BF92CF92DF92EF92FF920F931F9365
:1021B000CF93DF93182F062FC1E0D3E08AEFD82EFC
:1021C0009EEFE92E842F8470C82E842F8270B82E43
:1021D000842F8870A82E4170F42E8C2F880F8F5F6B
:1021E000E80ECC2081F0402F4D0F612F6C0F8AEF4D
:1021F00094E00E947D0C402F4C0F6D2F610F8AEFF1
:1022000094E00E947D0CBB2081F0402F4D1B612F7C
:102210006C0F8AEF94E00E947D0C402F4C1B6D2FB9
:10222000610F8AEF94E00E947D0CAA2081F0402F7C
:102230004C0F612F6D1B8AEF94E00E947D0C402FA4
:102240004D0F612F6C1B8AEF94E00E947D0CF11002
:102250000AC0CD17CCF4E7FC04C0D150D394D3947A
:10226000ED0CCF5FBACF402F4C1B612F6D1B8AEF57
:1022700094E00E947D0C402F4D1B612F6C1B8AEF58
:1022800094E00E947D0CE5CFDF91CF911F910F91DB
:10229000FF90EF90DF90CF90BF90AF9008959F9206
:1022A000AF92BF92CF92DF92EF92FF920F931F9364
:1022B000CF93DF93F82EE62EB22E13E0120FD0E06C
:1022C000C3E08AEFC82E0EEF842F8170982EAA24C7
:1022D000A394A20E4270D42EDF5F812F8B19080FBA
:1022E0009920A1F02C2F220F2A0D4E2D4C1B6D2F63
:1022F0006F0D8AEF94E00E94E50D212F4E2D4D1BAE
:102300006C2F6F0D8AEF94E00E94E50DD1100AC08A
:10231000DC17ECF407FD04C0C150C394C3940C0D4A
:102320001E5FDACF2C2F220F2A0D4E2D4C1B6F2D46
:102330006D1B8AEF94E00E94E50D212F4E2D4D1B61
:102340006F2D6C1B8AEF94E00E94E50DE1CFDF91C9
:10235000CF911F910F91FF90EF90DF90CF90BF90A2
:10236000AF909F900895CF93DF93A82FB0E0ED0139
:10237000C65CDB4F9DA1992309F43BC099A591113F
:1023800038C0FE01E05CFF4F9081AA0FBB1FA65C26
:10239000BB4FD8963C91D897D9962C91D997E32FDB
:1023A000F22FE90FF11DE90FF11D259134912F3F17
:1023B0009FEF390711F41DA21CC0FE01E45BFF4F23
:1023C00030835F963327220F331F9596ED91FC9152
:1023D0009697E20FF31F65917491843028F4482F8B
:1023E0008FE594E00E94480CC05CDF4F88818F5FCE
:1023F0008883DF91CF910895DF92EF92FF920F9340
:102400001F93CF93DF93CAE3D4E001E414E0EE24FA
:10241000EA9462E08A850E94DC092A8530E0F901AD
:10242000EE5DFA4F8491F901E25FFA4FF490F90101
:10243000E650FB4FD490DD2071F081110E94840999
:10244000ED2DF0E0EE0FFF1FE051FB4FA591B49191
:10245000EC91FE2299F489898F5F898B60E08A85EF
:102460000E94DC0921960C171D0799F6DF91CF9188
:102470001F910F91FF90EF90DF9008958989882335
:1024800089F38F3F11F4198AE9CFE98AE7CFCF9317
:10249000DF930E94AF10EC0166E072E08AEF94E0F7
:1024A0000E9426098C0F9D1FDF91CF91089588EF20
:1024B00091E0E3E3F5E0DF019C011D922150304003
:1024C000E1F7109203051092040588EC94E00E9455
:1024D000AF100E9474108CB583608CBD8DB58E7F5B
:1024E0008DBD89E092E0EEEFFFE3099510920005C3
:1024F00083EA94E00E9447120E9474100E94FC112B
:1025000080914F04813039F062E370E080E090E028
:102510000E949C0AF3CF0895CF93C0915E048C2F44
:102520008F71E1F583E480937C0080917A00806470
:1025300080937A0080917A0086FDFCCF60917800CC
:102540008091790070E0782B072E000C880B990B96
:102550000E94FF1F26EE3FE34EEC50E40E943A201B
:102560000E9492219B017093550460935404672B41
:1025700091F084E080935304E6E5F4E080E041913B
:1025800051912417350718F4809353040AC08F5FC4
:102590008430A9F703C08FEF80935304CF5FC093BB
:1025A0005E04CF910895CF93DF9300D000D0CDB7D4
:1025B000DEB7789484B5826084BD84B5816084BDC3
:1025C00085B5826085BD85B5816085BD80916E00D1
:1025D000816080936E001092810080918100826002
:1025E000809381008091810081608093810080913F
:1025F00080008160809380008091B100846080932E
:10260000B1008091B00081608093B00080917A0029
:10261000846080937A0080917A00826080937A004F
:1026200080917A00816080937A0080917A0080683E
:1026300080937A001092C10082E380932B0581E0A1
:1026400090E0A0E0B0E08093270590932805A09348
:102650002905B0932A058FEF80931C05E0E8F7E782
:10266000259134912130304C09F049C0E6E9F7E773
:10267000E491E0930505E7E9F7E7E491E0933E0490
:10268000E8E9F7E7E491E0933F04E9E9F7E78591AA
:1026900094919093410480934004EBE9F7E785918E
:1026A0009491909343048093420487E08093710453
:1026B000EEE9F7E7E491E0937004EFE9F7E7E491DE
:1026C000E0931C05E0EAF7E7859194919093570415
:1026D00080935604E2EAF7E7859194919093590428
:1026E00080935804E4EAF7E78591949190935B0412
:1026F00080935A04E6EAF7E7859194912CC09CE315
:102700009093050510923E0480933F0480E293E08D
:10271000909341048093400484ED93E090934304AC
:102720008093420487E080937104809370048CEA64
:102730009DE090935704809356048EED9DE0909316
:1027400059048093580484E79EE090935B0480933F
:102750005A048CE39FE090935D0480935C046FEFD8
:1027600070E08FEF0E94180A88E08093440489E0AB
:102770008093450487E08093460486E08093470475
:1027800064E06093480482E08093490485E080938C
:102790004A040E94FC118CE39FE0909355048093BF
:1027A000540474E07093530481E080935E049BE0D2
:1027B000909308059DE09093070590E1909309059B
:1027C0009EE090930B059FE090930A05809302058D
:1027D00080931A0510921B0580930105ECECF2E042
:1027E000E491EF5FE093FE04EDECF2E0E491EF5F43
:1027F000E093FF048EEC92E0909319058093180506
:102800008FB78983F89480911002811127C0E4E08A
:10281000F5E08491E8E1F5E09491E82FF0E0EE0F27
:10282000FF1FEC58FF4FA591B491EC91E92321F4DF
:1028300061E08AE00E94AD0961E08AE00E94DC0963
:102840008CB580618CBD8CB580648CBD61E08DE001
:102850000E94DC0961E08BE00E94DC09809110029B
:102860008F5F8093100299819FBF8CB58F7D8CBD47
:102870008CB58C7F81608CBD8DB581608DBD8CB534
:102880008C608CBD61E0809108050E94DC0961E0EC
:10289000809107050E94DC0961E0809109050E9492
:1028A000DC0980910B0518161CF461E00E94DC091C
:1028B00080910A0518161CF461E00E94DC098091E1
:1028C0000B05181674F460E00E94AD096AE070E030
:1028D00080E090E00E949C0A61E080910B050E94DC
:1028E000AD0980910705082E000C990BFC01E650FC
:1028F000FB4FE491F0E0EE0FFF1FE258FF4F2591F0
:10290000349130930F0520930E05FC01E25FFA4FDE
:10291000E491E093150580910805082E000C990BB1
:10292000FC01E650FB4FE491F0E0EE0FFF1FE25890
:10293000FF4F2591349130930D0520930C05FC0138
:10294000E25FFA4FE491E093140580910A05082EA6
:10295000000C990BFC01E650FB4FE491F0E0EE0F08
:10296000FF1FE258FF4F25913491309311052093BA
:102970001005FC01E25FFA4FE491E09316058091A7
:102980000905082E000C990BFC01E650FB4FE49161
:10299000F0E0EE0FFF1FE258FF4F25913491309386
:1029A000130520931205FC01E25FFA4FE491E093D6
:1029B000170581E20E94551084E10E945510809114
:1029C000050587FF03C08FE7809305058091050506
:1029D00080680E94551080E20E9455108CE00E9491
:1029E00055100E94741081E080936F04F6EFEF2E73
:1029F000F4E0FF2E02E914E01982A0E7CA2EA0E05D
:102A0000DA2ED701E1E0ED937D01D801CD92DD9280
:102A10008D01498160E08FE594E00E94200BB9812F
:102A2000BF5FB983B43069F761E070E083E00E9472
:102A3000180A8091B100887F81608093B100F8947A
:102A400010928000109281001092850010928400F4
:102A500088E191E0909389008093880080918100C3
:102A600088608093810080918100816080938100E3
:102A700080916F00826080936F00789480915604FB
:102A800090915704892B11F00E948C128091500470
:102A9000813011F00C94D41D1092700481E2809367
:102AA0002B0581E080936F0480911C05882321F021
:102AB00086E990E00E94D107C0905404D09055045C
:102AC000C094D094E12CF12C0E94770A4B015C0158
:102AD0000E94770AA5019401209530954095509564
:102AE00060957095809590950E94C1219B01AC01E5
:102AF000C701B6010E94C1216B017C0160913B04BA
:102B000070913C044B01A12CB12C0E94770ADC018E
:102B1000CB01880D991DAA1DBB1DBC01CD016C0DFB
:102B20007D1D8E1D9F1D611571058105910511F09B
:102B30000E94F41F87E991E00E9431101092520424
:102B400022242A94322C0E94C702882311F40C9468
:102B5000CA1D8DE991E00E94AF08882309F44AC09C
:102B60001092600210925F0283E090E090935E0208
:102B700080935D0210925C0210925B0288E290E00A
:102B800090935A0280935902EFEFFFEFF0935802AF
:102B9000E0935702F0935602E0935502F0935402EB
:102BA000E0935302F0935202E0935102F0934A02F1
:102BB000E0934902F0934202E0934102F0934C0209
:102BC000E0934B02F0934402E0934302F0934E02F1
:102BD000E0934D02F0934602E0934502F0935002D9
:102BE000E0934F02F0934802E093470285EA91E0B8
:102BF0000E94311085EA91E00E94AF08882309F411
:102C0000D8C088E290E09093400280933F0287E230
:102C100090E090933E0280933D0282E090E090939A
:102C20003C0280933B0210923A02109239021092B9
:102C30003802109237029093360280933502109238
:102C400034021092330210923202109231022CE3BD
:102C500030E03093300220932F0280EF90E0909389
:102C60002E0280932D02E0905B02F0905C0239E02E
:102C7000E316F10424F4A701440F551F02C040E1FC
:102C800050E021E632E08FEC92E06BEA73E07C8367
:102C90006B83EDE3F3E000E010E06A0176E0C70E3D
:102CA000D11C2A01ACE04A0E511C3A01B2E16B0E74
:102CB000711C4A0168E1860E911C62E0A62EB12CBF
:102CC000B801665F7F4FD90111967C936E93519640
:102CD0007C936E93509791967C936E939097D19638
:102CE0007C936E93D097A05CBF4F6D937C93DC0177
:102CF00011965C934E935196DC92CE92509791969A
:102D00005C924E929097D1967C926E92D097BC0135
:102D1000605C7F4FDB018D929C9264E070E0AB8140
:102D2000BC8111967C936E935196BC92AE92509753
:102D30009196BC92AE929097D1961C921E92D0978B
:102D4000BD01605C7F4FDB011D921C9211821082DD
:102D5000118A108A11A210A211AA10AABF01605CE8
:102D60007F4FDB011D921C92085F1F4F2E5F3F4F6C
:102D700002966B817C816E5F7F4F7C836B83329682
:102D80000034110509F09CCFE5E2F2E08DE292E01B
:102D900076E0E716F1041CF41182108202C0318241
:102DA000208232968E179F0799F78EEA91E00E9453
:102DB00031108EEA91E00E94AF08882309F4D5C54E
:102DC00080914B0481508E3F98F4809159029091EC
:102DD0005A021816190664F42091530230915402D5
:102DE0002F3F3F4F29F4019790935A028093590245
:102DF00080914D0481508E3F98F4809159029091BA
:102E00005A028E34910564F4209153023091540299
:102E10002F3F3F4F29F4019690935A028093590215
:102E200080915104813061F480911C05882321F048
:102E30008DEF90E00E94D10787E991E00E94311068
:102E400080914F04813009F580915702909158028A
:102E50000196D9F480915302909154020196A9F4FD
:102E60008091590290915A02039690935802809350
:102E7000570289E290E0909356028093550260E0F9
:102E800070E080E090E00E94010E009153021091EA
:102E900054020F3FFFEF1F0751F42BEE30E04CE2DE
:102EA000609159028AEF94E00E94B70E35C080917C
:102EB000230290912402019646E0489F9001499F89
:102EC000300D112425513F4F4CE2609159028AEF99
:102ED00094E00E94B70E0150110929F0109354029A
:102EE0000093530219C02FEF3FEF30935402209309
:102EF000530280915D0290915E02019790935E0271
:102F000080935D0210925A0210925902892B21F48B
:102F100086EB91E00E943110809157029091580207
:102F20008F3F3FEF930709F46BC0E0905502F0909C
:102F3000560242E0E41AF108F0925602E09255027D
:102F400002E00E0D9E2C282FC02E002E000CDD0856
:102F5000CE18D108E7FCD394D7FE03C0D194C19416
:102F6000D108C114D10429F009155CF0902F082F65
:102F700003C0982F982E2E2D122F202F092D992E19
:102F800001C0182F892C801AA22E022E000CBB081B
:102F9000A11AB10817FDB394B7FE03C0B194A19470
:102FA000B108B82C87FE03C0BB24B394B80CB59409
:102FB00012171CF077247A9402C077247394901629
:102FC0009CF0C114D10419F0402F612F02C0412F91
:102FD000602F8AEF94E00E947D0CBA18B7FE02C001
:102FE000170DB80C0F5FEBCFF7FE0AC06FEF7FEF46
:102FF0007093580260935702709356026093550283
:1030000080913F029091400218161906ACF081E0C1
:1030100090E090931E0280931D02BBEA4B2EB3E01A
:103020005B2E01E612E08FEC682E82E0782E9DE3A5
:10303000C92E93E0D92E2CC110923802109237027B
:1030400080913D0290913E020196883291052CF4C8
:1030500090933E0280933D021CC010923E0210925B
:103060003D02A1E0B0E0B0933802A0933702809116
:10307000210290912202019664E070E00E94DD211D
:10308000909322028093210261E070E004960E94F6
:10309000010E00913D0210913E02F801EE0FFF1F5C
:1030A000E555FC4F80819181019651F28091370264
:1030B00090913802019709F5809133029091340282
:1030C000892B59F010923C0210923B0282E090E072
:1030D00090933A02809339020CC08091350290910E
:1030E000360290933C0280933B0210923A02109277
:1030F00039021092380210923702A0903B02B09031
:103100003C02000F111FF801EF59FD4FE080F180E4
:10311000EA0CFB1CF182E0828090390290903A0226
:10312000F801E153FD4FC080D180C80CD91CD18279
:10313000C082E3E2CE16D104D4F02FEF3FEF3093FC
:1031400026022093250230932802209327023093F1
:103150002A022093290230932C0220932B0239E279
:10316000C316D10424F086EB91E00E9431104CE4A8
:10317000E416F10464F01A141B04CCF48EEF9FEFF4
:10318000909336028093350282E090E00CC062E0BA
:10319000E616F10464F4B7FE0AC082E090E0909372
:1031A000360280933502909334028093330289284B
:1031B00021F01092340210923302F801E35CFC4FCC
:1031C00080819181019662E070E00E94DD2191830F
:1031D0008083F801E555FC4F80819181069759F471
:1031E0003182208280913F0290914002019790931A
:1031F000400280933F0280912F0290913002181676
:1032000019060CF404CF40915B0250915C0280914E
:103210001F0290912002481759070CF4F8CE843011
:1032200091050CF0F4CE78E2C716D1040CF0EFCE85
:1032300066EF64039001659F300D1124285D3F4FB8
:103240003093300220932F020196909320028093B6
:103250001F02E9E4F2E0A1E4B2E021E532E080E01F
:1032600090E04FEFE41AF40A009751F44081518145
:103270004F3F5F4F39F4F182E0821196DC92CE929B
:1032800081E090E0329612962E173F0769F7BFCE85
:10329000D201ED90FC90F80132965F0193012E5F10
:1032A0003F4F3A8329833FEFE316F30609F4B2C494
:1032B000D3018D909C90F601808191818E0D9F1D90
:1032C000F7E0F89F9001F99F300D1124285F3E4FE1
:1032D000482DD8016C918AEF94E00E94B70EB5E0BA
:1032E0008B16910424F410921E0210921D02F80114
:1032F00080819181850190931C0280931B029C0127
:103300002A5F3F4F30931A0220931902D3012D9167
:103310003C9169807A80B4E0EB16F10469F4AC0169
:103320004F5F5F4F50931C0240931B020596909392
:103330001A028093190205C0E6E0EE16F10409F4C2
:1033400047C0809157029091580240911B025091C2
:103350001C0284179507E4F14091190250911A025A
:1033600048175907ACF18091550290915602AC0173
:103370004E5F5F4F421753075CF12C5F3F4F28179A
:10338000390734F1FAE0FE9D9001FF9D300D1124C4
:1033900080915F0290916002820F931F0A96909332
:1033A000600280935F02E6E0F0E0D201ED93FC93CF
:1033B0002FEF3FEF3093580220935702309356027D
:1033C0002093550260E070E081E090E00E94010EE1
:1033D00032E0430E511C42E0C40ED11C6BEF73E08F
:1033E0006415750509F054CF80912F029091300239
:1033F00001979093300280932F0280912302909145
:103400002402019662E070E00E94DD219093240284
:103410008093230269E4E62E62E0F62E01E412E0D6
:1034200046E0489F9001499F300D1124C901815207
:103430009F4F5C01D7016D917C916F3FBFEF7B0780
:1034400009F4D5C0F801408151814F5F5F4F51832E
:10345000408395018AEF94E00E94B70EC0901F024E
:10346000D0902002E5E2F2E08BE090E0BC01695FE1
:103470007F4F208131812F3F4FEF340731F4329657
:1034800042968335910591F727C0D7014D915C9104
:10349000DA011196A817B90794F3641775077CF33E
:1034A000D8014D915C91445251094830510538F78B
:1034B0002F5F3F4F253031051CF43183208302C03C
:1034C00031822082D7012D923C92D8012D923C92DC
:1034D000B1E0CB1AD108D3CFD0922002C0921F0204
:1034E0008091590290915A0290931C0280931B0282
:1034F000AC014A5F5F4F50931A024093190220912A
:103500005302309154022F3F3F4FF1F4D7012D91D8
:103510003C91B9016F5F7F4F68177907ACF0421794
:10352000530794F0F801808191818997079760F49F
:103530002CE330E0309354022093530262E070E0B9
:1035400082E090E00E94010ED7018D919C9111972D
:1035500090931C0280931B02AC014F5F5F4F50930E
:103560001A024093190220915702309158022817ED
:1035700039074CF14217530734F1F80180819181EA
:103580002091550230915602A9014E5F5F4F4817B6
:103590005907CCF0039682179307ACF02FEF3FEF5B
:1035A00030935802209357023093560220935502CD
:1035B0002D923C923182208231E0C31AD108D09200
:1035C0002002C0921F02D8018D919C911197C09743
:1035D00074F0F701318220822D923C9280911F027B
:1035E0009091200201979093200280931F02F2E0B5
:1035F000EF0EF11C0E5F1F4F22E00934120709F095
:1036000019CF80913F0290914002892BC9F480919B
:1036100031029091320201969093320280933102EE
:103620008A3591056CF080915B0290915C02019665
:1036300090935C0280935B0285EA91E00E943110D6
:1036400005E212E04BE0E42EF12C57E0D52EF0928B
:103650001C02E0921B029701295F3F4F30931A0230
:1036600020931902F801819191918F3F6FEF960796
:1036700009F4E0C240915702509158024E155F057F
:1036800084F1241735076CF12091550230915602D0
:10369000255231092730310520F50196D8011196C0
:1036A0009C938E932FEF3FEF309358022093570255
:1036B0003093560220935502059714F02D923C92B8
:1036C000D8018D919C918F018F3FBFEF9B0751F4E3
:1036D00032E1E30EF11C43E5E416F10409F0B7CF43
:1036E0000FC08F01D89E9001D99E300D1124245413
:1036F0003F4F47E26E2D8AEF94E00E94B70EE8CF6D
:1037000080912D0290912E020197181619062CF423
:1037100090932E0280932D0237C080EF90E090931B
:103720002E0280932D02E0901D02F0901E02E1E037
:10373000EE16F10449F500915102109152020F3F2B
:10374000FFEF1F0709F510925202109251020E94DA
:10375000A61F22E030E040E050E00E94F820672BF6
:1037600049F41092180210921702F0921602E09299
:1037700015020AC089E490E0909318028093170222
:1037800010931602009315028091510290915202FB
:10379000892B09F068C000911702109118028091DE
:1037A000150290911602080F191F1093180200932A
:1037B0001702C80101978834910530F02FEF3FEFD1
:1037C0003093520220935102C80165E070E00E94DC
:1037D000DD21892B31F460E070E083E090E00E940D
:1037E000010E10931C0200931B029801265F3F4FAD
:1037F00030931A0220931902809157029091580237
:103800008017910784F1281739076CF180915502D0
:10381000909156020296069730F580915F02909142
:1038200060028C599F4F9093600280935F0261E029
:1038300070E070935202609351028FEF9FEF90936C
:1038400058028093570290935602809355028EE15E
:1038500090E0909314028093130260E070E081E0A6
:1038600090E00E94010E00915102109152020F3F10
:103870009FEF190721F18AE0809F9001819F300D11
:10388000112428553F4F40E0609117028AEF94E0E1
:103890000E94B70E0130110591F4809113029091AE
:1038A00014020197909314028093130218161906BC
:1038B00034F0AFEFBFEFB0935202A093510280916A
:1038C0001D0290911E02019709F04FC08091510294
:1038D00090915202019609F048C000915D0210914A
:1038E0005E02023011059CF02BEE30E040E060E01B
:1038F0008AEF94E00E94B70E0230110541F02BEEE2
:1039000030E040E069E08AEF94E00E94B70E6091F9
:103910005F02709160026A3071052CF088E26436B3
:10392000710524F401C08AE290E001C092E0891B95
:10393000683EE3E07E0714F490E001C092E0891B4A
:1039400080930305109204058AEF94E00E94FB0F18
:1039500088E48093030560915B0270915C026F5F65
:103960007F4F8AEF94E00E94FB0F87E991E00E946D
:10397000AF08882309F481C080915F0290916002B2
:1039800020911102309112022817390724F49093E4
:1039900012028093110210920305109204056FEB3E
:1039A00071E08AEF94E00E94260960915F027091B5
:1039B00060026A3071052CF08CE06436710524F4E5
:1039C00001C08EE090E001C092E0891B683EF3E008
:1039D0007F0714F490E001C092E0891B80930305F7
:1039E00086E0809304058AEF94E00E94FB0F6091CB
:1039F0001102709112026A3071052CF080E4643675
:103A0000710524F401C082E490E001C092E0891BBA
:103A1000683E23E0720714F490E001C092E0891B35
:103A20008093030586E0809304058AEF94E00E946A
:103A3000FB0F28E431E04DE06AE08AEF94E00E9459
:103A4000B70E109203058AE28093040563ED71E0DE
:103A50008AEF94E00E94260980914F04813009F496
:103A6000C1C080915104813041F480911C058823AC
:103A700021F081EA90E00E94D10786EB91E00E945C
:103A8000AF08882309F486C00BEA13E08DE3A82E63
:103A900083E0B82E9FECC92E92E0D92E21E6E22ECB
:103AA00022E0F22E37E0932ED8012D913D918D0129
:103AB0002F3FBFEF3B07A1F0F50180819181820F7D
:103AC000931F989E9001999E300D1124285F3E4FC0
:103AD000D6014C91F70160818AEF94E00E94B70E05
:103AE000F2E0AF0EB11C22E0C20ED11C32E0E30EB8
:103AF000F11C6BEF73E060177107B1F610921A05B5
:103B000010921B0510E127E2412F66E18AEF94E055
:103B10000E94D50C1F5F1931B1F781E080931A051F
:103B200080931B0588E18093030582E1809304055F
:103B300068EE71E08AEF94E00E94260927E240E1F6
:103B400066E18AEF94E00E94D50C27E248E166E145
:103B50008AEF94E00E94D50C29E040E166E18AEF0B
:103B600094E00E94E50D29E040E16CE38AEF94E0E7
:103B70000E94E50D84E0809303058AE280930405AA
:103B800062EF71E08AEF94E00E9426098091500470
:103B90008130A1F180E090E0892B11F40C94A31501
:103BA0000E9400000C94A31540E068E870E08FE5E7
:103BB00094E00E94480C41E068E870E08FE594E0F2
:103BC0000E94480C42E068E870E08FE594E00E94B3
:103BD000480C43E068E870E08FE594E00E94480CF0
:103BE0000C944E158DE991E00E94311040E060E4A4
:103BF00071E08FE594E00E94480C33CF87E991E0B3
:103C00000E94311040E060E471E08FE594E00E9492
:103C1000480CC0CFD8018D919C918F0190931C02CC
:103C200080931B02069690931A0280931902698072
:103C30007A80CECB8F014CCD8091330790913407A1
:103C40000C94D21E1092FD041092FC048FE891E0B7
:103C50009093FB048093FA04E3E3F7E0118210826F
:103C6000138212821582148260E070E088E092E094
:103C70000C94650E0F931F93CF93DF9382309105C1
:103C800010F482E090E0E0913B07F0913C0720E0E7
:103C900030E0A0E0B0E0309719F14081518102811D
:103CA000138148175907C8F08417950769F41097CE
:103CB00031F012960C93129713961C9327C0009321
:103CC0003B0710933C0722C02115310519F042171C
:103CD000530718F49A01BD01EF01DF01F801DBCFB2
:103CE00021153105F9F0281B390B2430310580F4FA
:103CF0008A819B816115710521F0FB019383828389
:103D000004C090933C0780933B07FE01329644C069
:103D1000FE01E20FF31F8193919322503109398301
:103D200028833AC02091390730913A07232B41F478
:103D3000209103013091040130933A072093390711
:103D400020910101309102012115310541F42DB777
:103D50003EB74091050150910601241B350BE091BF
:103D60003907F0913A07E217F307A0F42E1B3F0B37
:103D70002817390778F0AC014E5F5F4F24173507DD
:103D800048F04E0F5F1F50933A07409339078193D5
:103D9000919302C0E0E0F0E0CF01DF91CF911F915D
:103DA0000F910895CF93DF93009709F481C0FC0130
:103DB000329713821282A0913B07B0913C07109773
:103DC00081F420813181820F931F20913907309136
:103DD0003A072817390751F5F0933A07E093390766
:103DE00067C0ED0120E030E0CE17DF0740F44A81E4
:103DF0005B819E0141155105F1F0EA01F5CFD383B6
:103E0000C28340815181840F951FC817D90759F487
:103E100088819981840F951F0296918380838A817E
:103E20009B81938382832115310529F4F0933C070C
:103E3000E0933B073DC0E901FB83EA834991599137
:103E4000C40FD51FEC17FD0761F480819181840FA9
:103E5000951F0296E90199838883828193819B83D0
:103E60008A83E0E0F0E012968D919C911397009781
:103E700019F0FD01DC01F7CF8D919C9111979D0107
:103E80002E5F3F4F820F931F2091390730913A07E1
:103E90002817390769F4309729F410923C071092DB
:103EA0003B0702C013821282B0933A07A0933907EE
:103EB000DF91CF9108958F929F92AF92BF92CF9250
:103EC000DF92EF92FF92CF93DF93EC0168817981CB
:103ED0008A819B81611571058105910521F464E258
:103EE00079ED8BE597E02DE133EF41E050E00E9462
:103EF000F82049015A019B01AC01A7EAB1E40E94F4
:103F000017216B017C01ACEEB4EFA50194010E9476
:103F10002521DC01CB018C0D9D1DAE1DBF1DB7FF02
:103F200003C00197A109B04888839983AA83BB8302
:103F3000BC01CD019F77DF91CF91FF90EF90DF9093
:103F4000CF90BF90AF909F908F9008958F929F9247
:103F5000AF92BF92CF92DF92EF92FF9260910701F2
:103F6000709108018091090190910A016115710514
:103F70008105910521F464E279ED8BE597E02DE16F
:103F800033EF41E050E00E94F82049015A019B01C3
:103F9000AC01A7EAB1E40E9417216B017C01ACEEF1
:103FA000B4EFA50194010E942521DC01CB018C0D09
:103FB0009D1DAE1DBF1DB7FF03C00197A109B048ED
:103FC0008093070190930801A0930901B0930A011F
:103FD000BC01CD019F77FF90EF90DF90CF90BF9015
:103FE000AF909F908F9008956093070170930801A0
:103FF0008093090190930A010895E89409C097FB02
:104000003EF490958095709561957F4F8F4F9F4FAF
:104010009923A9F0F92F96E9BB279395F6958795F3
:1040200077956795B795F111F8CFFAF4BB0F11F4B6
:1040300060FF1BC06F5F7F4F8F4F9F4F16C088235D
:1040400011F096E911C0772321F09EE8872F762F93
:1040500005C0662371F096E8862F70E060E02AF0D4
:104060009A95660F771F881FDAF7880F96958795C0
:1040700097F908950E944D200C94BE200E94B02014
:1040800038F00E94B72020F0952311F00C94A7205F
:104090000C94AD2011240C94F2200E94CF2070F3D8
:1040A000959FC1F3950F50E0551F629FF001729FDD
:1040B000BB27F00DB11D639FAA27F00DB11DAA1FEC
:1040C000649F6627B00DA11D661F829F2227B00D39
:1040D000A11D621F739FB00DA11D621F839FA00DC4
:1040E000611D221F749F3327A00D611D231F849F14
:1040F000600D211D822F762F6A2F11249F5750406B
:104100009AF0F1F088234AF0EE0FFF1FBB1F661FE5
:10411000771F881F91505040A9F79E3F510580F0AE
:104120000C94A7200C94F2205F3FE4F3983ED4F364
:10413000869577956795B795F795E7959F5FC1F752
:10414000FE2B880F911D9695879597F9089597F9FD
:104150009F6780E870E060E008959FEF80EC08952D
:1041600000240A9416161706180609060895002456
:104170000A9412161306140605060895092E0394D0
:10418000000C11F4882352F0BB0F40F4BF2B11F444
:1041900060FF04C06F5F7F4F8F4F9F4F089557FDA3
:1041A0009058440F551F59F05F3F71F04795880FA5
:1041B00097FB991F61F09F3F79F08795089512163C
:1041C00013061406551FF2CF4695F1DF08C01616E8
:1041D00017061806991FF1CF869571056105089499
:1041E0000895E894BB2766277727CB0197F90895B0
:1041F000052E97FB1EF400940E940F2157FD07D057
:104200000E94612107FC03D04EF40C940F215095BD
:104210004095309521953F4F4F4F5F4F08959095B2
:104220008095709561957F4F8F4F9F4F08950E94A5
:104230008321A59F900DB49F900DA49F800D911D8B
:1042400011240895B7FF0C9417210E941721821B97
:10425000930B08952F923F924F925F926F927F92AD
:104260008F929F92AF92BF92CF92DF92EF92FF9286
:104270000F931F93CF93DF93CDB7DEB7CA1BDB0B32
:104280000FB6F894DEBF0FBECDBF09942A883988D7
:1042900048885F846E847D848C849B84AA84B984DE
:1042A000C884DF80EE80FD800C811B81AA81B981EA
:1042B000CE0FD11D0FB6F894DEBF0FBECDBFED01FE
:1042C0000895A1E21A2EAA1BBB1BFD010DC0AA1F57
:1042D000BB1FEE1FFF1FA217B307E407F50720F06F
:1042E000A21BB30BE40BF50B661F771F881F991FEA
:1042F0001A9469F760957095809590959B01AC0133
:10430000BD01CF010895A29FB001B39FC001A39F3B
:10431000700D811D1124911DB29F700D811D1124FE
:10432000911D08950E94D72088F09F5798F0B92FCB
:104330009927B751B0F0E1F0660F771F881F991FDA
:104340001AF0BA95C9F714C0B13091F00E94F1206B
:10435000B1E008950C94F120672F782F8827B85F7B
:1043600039F0B93FCCF3869577956795B395D9F732
:104370003EF490958095709561957F4F8F4F9F4F3C
:104380000895DB018F939F930E941721BF91AF91F6
:10439000A29F800D911DA39F900DB29F900D11249F
:1043A0000895991B79E004C0991F961708F0961B91
:1043B000881F7A95C9F78095089597FB072E16F404
:1043C000009407D077FD09D00E94F12107FC05D0A9
:1043D0003EF4909581959F4F0895709561957F4F1C
:1043E0000895AA1BBB1B51E107C0AA1FBB1FA6173C
:1043F000B70710F0A61BB70B881F991F5A95A9F78E
:1044000080959095BC01CD010895EE0FFF1F05909A
:10441000F491E02D0994A0E0B0E0E1E1F2E20C9427
:104420002E21EC01009721F4CB010E943A1EB4C06A
:10443000FC01E60FF71F9C0122503109E217F30738
:1044400008F4A8C0D9010D911C9111970617170700
:10445000B0F00530110508F49BC0C8010497861719
:10446000970708F495C002501109061B170B01931A
:1044700011936D937C93CF010E94D21E89C05B0182
:10448000A01AB10A4C01800E911EA0913B07B09179
:104490003C07612C712CE12CF12C109709F446C0DB
:1044A0008D919C911197A815B905B1F56C0142E069
:1044B000C40ED11CCA14DB0478F14C018A189B0885
:1044C000640142E0C40ED11C1296BC901297139660
:1044D000AC91B5E0CB16D10440F0B282A3839182B7
:1044E0008082D9016D937C9309C00E5F1F4F800FAE
:1044F000911FF90191838083EB2DFA2FE114F104D0
:1045000031F0D7011396FC93EE93129741C0F093CC
:104510003C07E0933B073CC06816790608F43C0171
:104520007D0112960D90BC91A02DB7CF80913907D7
:1045300090913A0788169906E1F466167706C8F452
:104540008091010190910201009741F48DB79EB7CF
:104550004091050150910601841B950BE817F9075E
:10456000C8F4F0933A07E0933907F9017183608347
:104570000FC0CB010E943A1E7C01009759F0A801A0
:10458000BE010E94D622CE010E94D21EC70104C0E5
:10459000CE0102C080E090E0CDB7DEB7EEE00C9433
:1045A0004A2181E090E0F8940C94EF22FB01DC01B9
:1045B00002C001900D9241505040D8F70895FB0180
:1045C000DC018D91019080190110D9F3990B0895A8
:1045D000FB01DC0101900D920020E1F7089512E04B
:1045E000CCE9D2E004C0FE010E9405222196CD391B
:0845F000D107C9F7F894FFCFD1
:1045F8000100003D0780000100000001003900397A
:104608000001000100010005000600000000004450
:10461800000100000000000700040001000F00393D
:104628000001000100020007000F0000000A003C22
:104638000001000000000007000600000005003A25
:104648000000000100050005000200000004003A17
:104658000000000100050005000200000002003A09
:104668000000000100050005000200000001003AFA
:10467800000000010005000500020000000000F134
:104688000CCF081A0919097469746C65006E65778E
:1046980067616D65006E65776C6576656C0072752F
:1046A8006E6E696E670067616D656F766572002072
:1046B800204C4153542020202020202020204849ED
:1046C80047480020413A20504C41592020202020C2
:1046D800433A20515549540047414D45204F5645CE
:1046E80052005052455353204220544F20434F4EBE
:1046F80054494E5545000D0A004C4F41444552005F
:00000001FF
