:100000000C94DD030C9405040C9405040C94050475
:100010000C9405040C9405040C9405040C9405043C
:100020000C9405040C9405040C9405040C9494069B
:100030000C9405040C9405040C9405040C9405041C
:100040000C940E060C9405040C9405040C94050401
:100050000C9405040C9405040C9405040C940504FC
:100060000C9405040C9405040101FF030101F7033E
:100070006C00680000000000240027002A00000037
:100080000000250028002B000500893008023802F6
:1000900049786814000020202020596F646127737C
:1000A00000596F64612773000606483078304800B5
:1000B0000606483078304884060668944488A45878
:1000C00006061044902488200606842008401084E8
:1000D00006061000800400200404F0F0F0F0040490
:1000E000F07070F00404F030F0F00404F0F070F000
:1000F0000404F07030F00404F0E0E0F00404F0C018
:10010000F0F00404F0F0E0F00404F0E0C0F00404C7
:1001100090F0F0F00404D0D0F0F00404B0F0F0F06F
:10012000040490B0F0F00404F0F0F0900404F0F057
:10013000B0B00404F0F0F0D00404F0F0D090040467
:100140001070F0F00404101070F00404107030F01F
:100150000404105070F00404C0E0E0F0040480C017
:10016000C0F0040480A0E0F0040480E0C0F00404C7
:10017000F07070300404F03030100404F07050104F
:100180000404F03070100404F0E0E0C00404F0C097
:10019000C0800404F0E0A0800404F0C0E080040407
:1001A0001030F030040430F030100404103070309F
:1001B0000404307030100404C0F0C080040480C017
:1001C000F0C00404C0E0C080040480C0E0C00404A7
:1001D0004040E0F00404202070F004040040E0F00F
:1001E0000404002070F00404F0E040400404F070C7
:1001F00020200404F0E040000404F0702000040417
:10020000D0F0F0B00404B0F0F0D0040490D0F0B01E
:100210000404D0F0B0900404F070E0F00404F0E0C6
:1002200070F00404F03060F00404F060C0F00404E6
:1002300060D0B06020202020596F646127730004D3
:100240000360F060150C00000000000000000000DA
:100250000000000008400018E00078E00038C0000E
:1002600038E00078F104F8FFFFF8150C00000000FA
:1002700000000000800001809001C8FC03C8FE0758
:10028000D8F00FF8E007F8C003F8F807F8FFFFF818
:10029000150C003FF80009F80000F80000B8020053
:1002A00038760018FF0038FFC0B8FF81F8FF01F86A
:1002B000FF80F8FFFFF8150C07FFF803FFF803FDB8
:1002C00078017858805018800008800018D0000805
:1002D000F40018FD03F8FF27F8FFFFF8150C0000E5
:1002E00000000000000008800018C80008FED808C0
:1002F000FFFC08FFF008FFA008FF0018FF80F8FFD0
:10030000FFF8150C03789803D00801C01880800806
:100310008000088007C0C00FE8E01FE8C0F878E060
:1003200073387DE7983F8FC8150C0000000000006F
:1003300000450081FF80C7FFC0E3FFE0C1FFC0F0C0
:100340009380F80000FC0000FE0008FEFFF8150C8A
:1003500007C03807E018078018030008038000036F
:100360000400810400C00C00E00E00F01E00E0FF5D
:1003700080FFFFF8150C00F03800600838C008E076
:10038000C000C183C0818740830FE0021BE0800F63
:10039000B0901FF0D03EF0FFFFF8150C01E03800E0
:1003A000F018487808FC3F88FC3FC0F87F80F07F59
:1003B00000F0F600D04008900018800078FFFFF8A9
:1003C0000A0A153A49676E6F7265006D560A0A503F
:1003D0004C45415345205455524E204F464620002F
:1003E0004C4F572042415454455259212000030597
:1003F0003F213F1208120A100A0E1C0E0C1E0C148C
:100400001A14161F161E131E1E1B1E1E1F1E3F2112
:100410003F3A2F3A173D173F213F181F02040A04A5
:100420001F0E04040E1F0A1F0A0E0E1F04110E2EAB
:10043000252E2F2A2E262929021F02081F08150EF5
:1004400004040E150E15151B151B040604040C04DC
:100450000000000017000300031F0A1F16371A19B7
:1004600004130A153A000300000E11110E000A04CD
:100470000A040E04003000040404001000180403F1
:100480001F111F121F101D151711151F07041F170D
:10049000151D1F151D01011F1F151F17151F000A10
:1004A00000003200040A110A0A0A110A04011502A6
:1004B0000E11171E051E1F150A0E110A1F110E1F01
:1004C00015111F05010E111D1F041F111F1108100A
:1004D0000F1F041B1F10101F061F1E040F0E110EEE
:1004E0001F09060E112E1F051A121509011F011FE3
:1004F000101F0F180F1F0C1F1B041B031C031915C3
:1005000013001F11030418111F00020102202020F4
:100510000001020C121E1F120C0C12120C121F0CE6
:100520001A14041E05242A1E1F021C141D1020204C
:100530001D1F0814111F101E041E1E021C0C120C7D
:100540003E0A040C123E1E040214160A020F120E7A
:10055000101E0E100E1E081E120C1226281E322A05
:1005600026041E21001F00211E040102013F213F1D
:10057000F6E8DBCFC3B8AEA49B928A827B746E6828
:10058000625C57524E4945413E3A3734312E2C2950
:10059000272523211F1D1C1A1917161514131211B4
:1005A000100F0E0D0C0B0A09080706450068010024
:1005B00000172B152010204C4F4144455200172B9B
:1005C00016201314000A4E6F205344206361726496
:1005D000206F720A6E6F204C4F414445522E4845A1
:1005E000580A0A153A45786974001D20466C6173F3
:1005F00068696E670A20206C6F616465722E2E2E0A
:100600000A0A444F4E2754205455524E204F464616
:100610002100000000002300260029000404040437
:10062000040404040202020202020303030303039C
:100630000102040810204080010204081020010279
:100640000408102000000008000201000003040755
:1006500000000000000000000500380168010000F3
:10066000401AFFFFFFFFFFFFFFFF00000000000038
:100670000000300080C09F87F0F8780081E0B3CFA1
:1006800081EC7801C1E0A1CF03C67801C1F0A1EFF0
:1006900003C27803E1F0A1EF03C27803E178A1EF90
:1006A00003C27802E178A1EF03C27806F13CA1EF22
:1006B000E3C67804F13CA1EF03FC7804791EA1EFB6
:1006C00003C6780FF91EA1EF03C27808790FA1EFD6
:1006D00003C278083D0FA1EF03C278183D07A1CFF0
:1006E00003C27C103D07B3CF83C23FD019031F87DD
:1006F000F9820000000000000000FFFFFFFFFFFF85
:10070000FFFF0000000000000000A6C66AECE66ED5
:1007100066CEAAAA8A4A8AAA8AA8AAAEEA4ACAECD5
:100720008EAC4AAA2A4A8AAA8AA84ECAE4ECEEAA41
:10073000EACE175344001613780016131400151050
:10074000200015201000540A03E181867F3E186DB9
:10075000830F0F0E0183866033186DC3198F180342
:10076000C38E6033186DE330CF1803C39E603630FC
:10077000CDE360CF3006C79E7E3E30CDB360CF3034
:100780000CC6F6603330D9B660CF33CFCCF660619B
:10079000B0DB1E60CF30D86CE6C061B0DB1E618F6D
:1007A00019986CC6C063B19B0E330F0FB078C6FFAB
:1007B0007E1F1B061E0FE71EE11E11241FBECFEF7A
:1007C000D8E0DEBFCDBF12E0A0E0B1E0E2E8F7E4A0
:1007D00002C005900D92A635B107D9F726E0A6E52F
:1007E000B2E001C01D92AD38B207E1F713E0CCEDE5
:1007F000D3E004C02197FE010E94CA22CB3DD1075D
:10080000C9F70E947B140C94B4230C940000CF927F
:10081000DF92EF92FF920F931F93CF93DF936C01C0
:100820007A018B01C0E0D0E0CE15DF0581F0D80160
:100830006D918D01D601ED91FC910190F081E02D3B
:10084000C6010995892B11F02196EECF7E01C701D3
:10085000DF91CF911F910F91FF90EF90DF90CF909C
:10086000089580918203882319F08091720301C05A
:1008700080E090918303992319F090917303890F7D
:1008800090918403992319F090917403890F9091AA
:100890008503992319F090917503890F8093B40013
:1008A0000895089580E090E008950E949623DC0169
:1008B000ED91FC910190F081E02D09946115710595
:1008C00079F0FB0101900020E9F73197AF01461B59
:1008D000570BDC01ED91FC910280F381E02D09942E
:1008E00080E090E008958F929F92AF92BF92EF9236
:1008F000FF920F931F93CF93DF93CDB7DEB7A197EE
:100900000FB6F894DEBF0FBECDBF7C01FA01CB015C
:1009100019A2223008F42AE08E010F5D1F4F822EAB
:10092000912CA12CB12CBF01A50194010E9426227B
:10093000F901CA01015011096A3014F4605D01C067
:10094000695CD8016C93232B242B252B61F7B8010C
:10095000C7010E945E04A1960FB6F894DEBF0FBED9
:10096000CDBFDF91CF911F910F91FF90EF90BF907E
:10097000AF909F908F900895833081F028F481305C
:1009800099F08230A1F008958730A9F08830B9F04D
:100990008430D1F4809180008F7D03C080918000ED
:1009A0008F7780938000089584B58F7702C084B5D7
:1009B0008F7D84BD08958091B0008F7703C08091B2
:1009C000B0008F7D8093B00008951F93CF93DF9385
:1009D000282F30E0F901EC5BF94F8491F901E05DDB
:1009E000F94FD491F901E45EF94FC491CC23C1F0E1
:1009F000162F81110E94BC04EC2FF0E0EE0FFF1FB8
:100A0000E258FF4FA591B4919FB7F894111104C01B
:100A10008C91D095D82302C0EC91DE2BDC939FBF44
:100A2000DF91CF911F910895CF93DF9390E0FC0168
:100A3000E05DF94F2491FC01E45EF94F8491882335
:100A400061F190E0880F991FFC01EC58FF4FC591B0
:100A5000D491FC01E258FF4FA591B491611109C0F6
:100A60009FB7F8948881209582238883EC912E2368
:100A70000BC0623061F49FB7F8948881322F3095B3
:100A800083238883EC912E2B2C939FBF06C08FB7B6
:100A9000F894E8812E2B28838FBFDF91CF910895A2
:100AA0001F93CF93DF93182FEB0161E00E94140591
:100AB000209711F460E004C0CF3FD10539F461E024
:100AC000812FDF91CF911F910C94E504E12FF0E08D
:100AD000EC5BF94FE491E330F9F048F4E130B9F020
:100AE000E230A1F584B5806284BDC8BD34C0E73072
:100AF000E9F0E83019F1E43049F580918000806236
:100B000080938000D0938B00C0938A0024C084B56A
:100B1000806884BDC7BD1FC08091800080688093BD
:100B20008000D0938900C093880015C08091B000E8
:100B300080688093B000C093B3000DC08091B00076
:100B400080628093B000C093B40005C0C038D10566
:100B50000CF0B5CFAFCFDF91CF911F9108953FB784
:100B6000F89480916E0390916F03A0917003B091FF
:100B7000710326B5A89B05C02F3F19F00196A11D52
:100B8000B11D3FBFBA2FA92F982F8827820F911D23
:100B9000A11DB11DBC01CD0142E0660F771F881F6A
:100BA000991F4A95D1F708958F929F92AF92BF9265
:100BB000CF92DF92EF92FF926B017C010E94AF0512
:100BC0004B015C01C114D104E104F104F1F00E9475
:100BD000AF05DC01CB0188199909AA09BB09883E38
:100BE0009340A105B10570F321E0C21AD108E108D4
:100BF000F10888EE880E83E0981EA11CB11CC11478
:100C0000D104E104F10419F7DDCFFF90EF90DF90FC
:100C1000CF90BF90AF909F908F9008951F920F92AA
:100C20000FB60F9211242F933F938F939F93AF93FF
:100C3000BF938091860390918703A0918803B09120
:100C4000890330916D0323E0230F2D3720F40196A3
:100C5000A11DB11D05C026E8230F0296A11DB11DDF
:100C600020936D038093860390938703A09388035A
:100C7000B093890380916E0390916F03A0917003EC
:100C8000B09171030196A11DB11D80936E039093E5
:100C90006F03A0937003B0937103BF91AF919F91C5
:100CA0008F913F912F910F900FBE0F901F9018952D
:100CB00050E0DA01AA0FBB1FA80FB91FD3963C91D1
:100CC000D397D4962C91D497E32FF22FE60FF11DF2
:100CD000E60FF11D25913491AD58BF4F2D933C93F4
:100CE000F90165917491FC017089769F602D112442
:100CF000840F951FFC01E558FF4F6083F901A59112
:100D0000B4914B2F50E0E62FF0E04E175F0720F430
:100D1000F90125913491632FFC01E158FF4F769F33
:100D2000602D1124608308951F920F920FB60F92C9
:100D300011242F933F934F935F936F937F938F93E0
:100D40009F93AF93BF93EF93FF93609176036111ED
:100D500002C080E023C0809169038F5F80936903A4
:100D600090917A038917A8F39091820381E08927F3
:100D7000809382031092690380917E03882369F037
:100D80008091000193E4899F802D1124895B8093D9
:100D900000010E9496229093720381E06091770394
:100DA000662319F190916A039F5F90936A032091E3
:100DB0007B039217D0F09091830381E08927809381
:100DC000830310926A0380917F03882369F08091E6
:100DD000000193E4899F802D1124895B8093000199
:100DE0000E9496229093730381E0609178036623BA
:100DF00019F190916B039F5F90936B0320917C039B
:100E00009217D0F09091840381E089278093840326
:100E100010926B0380918003882369F08091000118
:100E200093E4899F802D1124895B809300010E94A7
:100E300096229093740381E060917903662319F1FF
:100E400090916C039F5F90936C0320917D039217A8
:100E5000D0F09091850381E08927809385031092DB
:100E60006C0380918103882379F08091000193E4E1
:100E7000899F802D1124895B809300010E94962216
:100E80009093750301C081110E943104FF91EF918D
:100E9000BF91AF919F918F917F916F915F914F9192
:100EA0003F912F910F900FBE0F901F9018956430B7
:100EB00030F570E09C01260F371FF901ED5AFF4F06
:100EC000108238971082AB01440F551FFC01E40FCC
:100ED000F51FED57FF4F11821082F901E95AFF4FBC
:100EE0001082FB01EE58FC4F1082FB01EA58FC4FC8
:100EF0001082FB01EE57FC4F10820C9431040895D0
:100F0000EF92FF920F931F93CF93DF938C017B019E
:100F1000C42FD0E0443038F4642F0E945707F80102
:100F2000EC0FFD1F1482FE01EE0FFF1FE00FF11FFB
:100F3000F4A6E3A6FF9611821082F801EC0FFD1FC4
:100F400081E08483DF01A15BBF4F89E08C931C9615
:100F50001C9218961C92E559FF4F1082DF91CF9199
:100F60001F910F91FF90EF900895FC01643508F0F8
:100F700053C0403308F050C090A1742F75957595FB
:100F80007595262F062E000C330B542F5770923078
:100F9000A1F4F90184E57802E00DF11D1124E65772
:100FA000FC4F808190E0052E02C0959587950A94AC
:100FB000E2F78095982F91700AC0933041F48485B0
:100FC0008170462740954170841303C014C091116D
:100FD00012C084E57802200D311D1124F901E65775
:100FE000FC4F81E090E001C0880F5A95EAF78095A8
:100FF0009081892310C084E57802200D311D1124D1
:10100000F901E657FC4F81E090E001C0880F5A9546
:10101000EAF79081892B80830895EF92FF920F93D6
:101020001F93CF93DF938C01F62ED42FE22EC0E0D6
:10103000CE1544F46F2D6C0F4D2FC8010E94B507DB
:10104000CF5FF6CFDF91CF911F910F91FF90EF907F
:101050000895DF92EF92FF920F931F93CF93DF9348
:101060007C01D62FD22EC42F002E000C110B040FA2
:10107000111D47FD1A958C2F0C2E000C990B801713
:10108000910744F42D2D4C2F6D2FC7010E940D08A0
:10109000CF5FF1CFDF91CF911F910F91FF90EF9034
:1010A000DF9008956F927F928F929F92AF92BF923E
:1010B000CF92DF92EF92FF920F931F93CF93DF9324
:1010C000EC016A3011F42885A3C06D3009F4A7C083
:1010D000A98483E58A150CF485C0BA848FE28B1548
:1010E0000CF480C0D8848C8190E00197D89E900148
:1010F000D99E300D1124C9018A0D911DA7FC9A9526
:10110000181619060CF06EC02D818B2D0B2C000CBF
:10111000990BD29E800D911D1124181619060CF002
:1011200061C088A09A2CCA2CE62EF12CEC2DEA196D
:101130000E2E000CFF0B8C8190E0E817F9070CF0E5
:1011400050C00197E817F90779F0E89E9001E99EF1
:10115000300DF89E300D1124E20FF31F8E8D9F8D00
:10116000E80FF91F149101C010E06B2C7B2C272D88
:101170002B19022E000C330B8D8190E028173907B4
:101180006CF510FF11C081E0D81206C0472D6C2D00
:10119000CE010E94B5071EC00D2D2D2D462D692DA7
:1011A000CE010E94290816C089A198A1891791F043
:1011B00088A381E0D81206C0472D6C2DCE010E9475
:1011C000B50707C00D2D2D2D462D692DCE010E948E
:1011D000290888A2169573946D0CC9CFC3949D0CF1
:1011E000A5CF88A228853C818985239F800D112465
:1011F00089879F81992399F0082E000C990B44E56B
:1012000050E0239F401951091124481759073CF415
:101210009D818A85299F800D11248A87198681E006
:1012200090E0DF91CF911F910F91FF90EF90DF90B1
:10123000CF90BF90AF909F908F907F906F900895C8
:10124000EF92FF920F931F93CF93DF938C01D62FD2
:10125000F42EE22EC0E0CE1544F44F2D4C0F6D2F2E
:10126000C8010E94B507CF5FF6CFDF91CF911F91E4
:101270000F91FF90EF9008958435D0F46033C0F45F
:10128000E62FE595E595E59594E5E902F001112451
:10129000E657FC4FE80FF11D87FDFA95808190E03D
:1012A000677002C0959587956A95E2F781700895F9
:1012B00080E008950F931F93CF93DF93643008F07D
:1012C00058C08B011127F801E250FA4FEC0134E0CD
:1012D000CC0FDD1F3A95E1F7DE01A15EBE4F1C96F3
:1012E0009C9190839B3008F09AE0AB019083C15EA3
:1012F000DE4F68818FEA95E00E9458063885C80164
:1013000086579A4FFC01E058FF4F4A852091BF0550
:10131000429F402D112440833496319530833C8187
:1013200034964E81429F402D1124408334963A5387
:1013300030833E85B0974A8140833496239F202D89
:1013400011242083E05CFF4F1082F801EE0FFF1F95
:10135000E35FF94F16A215A2FC01E858FF4F21E008
:101360002083F801EE57FC4F2083FC01E458FF4F27
:101370001082DF91CF911F910F9108950F9380916B
:101380005602909157028F3F2FEF920709F447C002
:101390000197909357028093560210926A0610921A
:1013A0006B0607E022E343E161E18AE496E00E94F4
:1013B000290881E080936A0680936B0682E180931E
:1013C000530684E1809354066091580270E06150A6
:1013D00071098AE496E00E94A0108AE18093530686
:1013E00080E492E00E94D6108091560290915702BC
:1013F000892BA9F48FEF9FEF9093570280935602A9
:1014000080915802815080935802811103C089E174
:1014100092E002C08EEC91E00F910C94DB100F91E2
:1014200008952F923F924F925F926F927F928F9288
:101430009F92AF92BF92CF92DF92EF92FF920F9363
:101440001F93CF93DF93CDB7DEB72E970FB6F894E7
:10145000DEBF0FBECDBF40917C0650917D066091EE
:101460007E0670917F062FB7F89480918603909145
:101470008703A0918803B09189032FBF481B590BA4
:101480006A0B7B0B80917B0690E0A0E0B0E00091BE
:101490007706109178062091790630917A068417A4
:1014A0009507A607B70730F4011511052105310589
:1014B00009F02BC4012B022B032B09F024C48091CB
:1014C000A10581508E3F30F58091A005813011F546
:1014D0008091C0058F5F6091C10587FD09C0082E0E
:1014E000000C990B70E06F5F7F4F0E94A222682F63
:1014F0006093C0058EEB95E0909381068093800603
:1015000088E48093820640E06BEA75E08FEA95E01C
:101510000E9480078091A10581508E3F70F48091D8
:101520009F05813009F057C481EB95E090938106C7
:101530008093800688E48093820680E00E945D129A
:1015400081E00E945D1282E00E945D1283E00E94B1
:101550005D122AE835E038872F8372E8C72E73E0E2
:10156000D72E0EEE15E0EAEDEE2EE5E0FE2E590147
:101570003E872D87512C44244394AD85BE85999692
:101580008C919997882309F4EEC04D01B0E78B0E3A
:10159000911CF40180818111E6C0D7012D913C910D
:1015A000D801ED91FC91EE0FFF1FE20FF31F859123
:1015B0009491009721F5ED85FE85E05AFF4F8081DB
:1015C000882329F0F80111821082F90116C0AD8537
:1015D000BE8599961C92999795968C918823C1F116
:1015E000852D0E945D12D801ED91FC91EE0FFF1F39
:1015F000D7018D919C91E80FF91F85919491ED850C
:10160000FE85E058FF4FFE83ED832D853E852C57E8
:101610003F4F3A832983AD85BE85A857BF4FBC8312
:10162000AB83ED85FE85E457FF4FFA87E9872D856B
:101630003E8520573F4F3C872B872D843E8434E9DD
:10164000230E311C6D847E84A4E76A0E711C2DC0AC
:10165000652D8FEA95E00E94570785C0BC0136E0F2
:10166000769567953A95E1F76F71892F86958695FE
:10167000869580512F702230B1F138F521111DC0AF
:101680006B3008F06AE0F3016083D801ED91FC91C2
:1016900011973196ED93FC93EE0FFF1FD7018D91BB
:1016A0009C91E80FF91F859194919C01369527959F
:1016B0003695279580FDD2CF2DC0213031F7452DAD
:1016C0008FEA95E00E945806E0CF2330B9F024302D
:1016D000E1F69091BF05969F602D1124AB85BC85E6
:1016E0006C93F10115C09091BF05969F602D112458
:1016F000AD81BE816C93E981FA810AC09091BF05EA
:10170000969F602D1124AB81BC816C93E985FA858D
:101710008083BBCFED85FE85E459FF4F2F73208377
:101720008091BF05899F802D1124F4018083ED8570
:10173000FE85E055FF4F1082F501E855FF4F1182FD
:101740001082ED85FE85E858FF4F4082D6014C920D
:10175000ED85FE85E458FF4F1082F801808191816C
:1017600001969183808353942D853E852F5F3F4F53
:101770003E872D8732E0A30EB11C8FEFC81AD80A1E
:101780000E5F1F4F92E0E90EF11CA4E05A12F5CE55
:10179000AAE7AA2EA3E0BA2EB6E7CB2EB3E0DB2E43
:1017A00012E7612E13E0712E0AE316E082E3E82EC1
:1017B00086E0F82E9EE7492E93E0592EEAE8F5E000
:1017C000FA83E983312CE981FA81E858FF4F80815F
:1017D000882309F42EC1E981FA81E059FF4F808105
:1017E000811106C0632D8FEA95E00E94570721C141
:1017F00081508083D8018C91E981FA81EC54FF4FAC
:10180000FE83ED8329813A8128543F4F490181119C
:101810004EC0D7018D919C9101969C01220F331FE0
:10182000EF81F885E856FF4F0190F081E02DE20F3F
:10183000F31F45915491242F2770ED81FE81208361
:10184000BA01E3E076956795EA95E1F79B01369555
:101850002795352F36953695D4013C932F733091CB
:10186000BF05239F202D1124F80120836170D20130
:101870006C93F70191838083E981FA81E056FF4FF1
:10188000208130E08217930790F0E981FA81EC55CE
:10189000FF4F8081882331F0281B3109D7012D9318
:1018A0003C9305C0632D8FEA95E00E945707F8012D
:1018B000808181508083E981FA81E458FF4F8081E3
:1018C00021E0280F2083E981FA81E459FF4F40810C
:1018D000D4013C91340FE981FA81E45BFF4F8081B0
:1018E000380FE981FA8135A7E857FF4F60816623F9
:1018F00099F070E0822F022E000C990B0E94A22218
:10190000E981FA81E457FF4F8081869F300D1124D1
:10191000A981BA819D963C93E981FA8185A590E0E1
:10192000CB966BE370E00E94A22285A7EC58FF4F94
:101930003081A981BA81D1963C93D197FD01E058BD
:10194000FF4F60816623A1F0062E000C770B822FDB
:10195000022E000C990B0E94A222E981FA81EC5719
:10196000FF4F8081869F300D1124E981FA8131ABD0
:10197000E981FA81E057FF4F60816623D1F0822F21
:10198000220F990B70E00E94A222CB0162E070E06E
:101990000E94A222E981FA81EC56FF4F2081A981A1
:1019A000BA81D1969C91D197289F900D1124D19600
:1019B0009C93E981FA814F3359F081A98A300CF068
:1019C00089E087FD80E0A981BA81D1968C9301C01E
:1019D00011AAF894A981BA819D96EC91F0E0E059A2
:1019E000FA4FE491D501EC93E981FA8131A9E454ED
:1019F000FF4F2081AD81BE814C91320390011124B3
:101A00004203C001439F900D11240090C00502C005
:101A1000880F991F0A94E2F797FF02C081589F4FE1
:101A2000880F892F881F990BF6018083D3018C932F
:101A300078943394E981FA813196FA83E983FFEF50
:101A4000AF1ABF0A2FEFC21AD20A3FEF631A730A06
:101A50000F5F1F4F82E0E80EF11CAF81B885129630
:101A6000B887AF83BFEF4B1A5B0AE4E03E12ABCE00
:101A700080918206882309F489C08C3020F4FCE030
:101A8000F81BF98301C01982FF24F394F0925206E7
:101A900010926A0610926B0620914F062B831981D3
:101AA000121B022F0D5F4DE2410F2EE463E08AE42A
:101AB00096E00E9429083B8134503B83105D232F20
:101AC00041E0612F80E50E94F9112B8142E0612FF6
:101AD00083E00E94F911F0926A06F0926B06009181
:101AE0004F061981101B8DE2810F8B832EE4482F46
:101AF00063E08AE496E00E940D0883E0800F9B81FA
:101B0000980F9B83492F41502EE463E08AE496E0CE
:101B10000E940D080350105D202F412F60E08AE4E1
:101B200096E00E942009202F412F63E58AE496E089
:101B30000E94200941E0612F83E00E947A1142E077
:101B4000612F80E50E947A11AB81A450AB8344E001
:101B50006A2F80E50E947A1148E06B8183E00E9441
:101B60007A1184E08093530680914F06B981B81BA7
:101B7000B15DB093540680918006909181060E94D9
:101B80005911809182068150809382068091A6052A
:101B90009091A705892B09F48EC081E080936A0695
:101BA00010926B0690914E0685E5891B8093530633
:101BB000109254066091A305613009F45DC030F0C5
:101BC0008091A205653008F06FC06AC003EB15E094
:101BD000198269818FEA95E00E945707F8011192F6
:101BE0008F01F981FF5FF983F43099F781E08093E9
:101BF0005206EEEEF3E0E491EF5FE0934E06EFEE77
:101C0000F3E0E491EF5FE0934F0680EF93E0909371
:101C10006906809368061092A7051092A605109297
:101C2000500628EA29830E94110A8823E1F380EEF6
:101C300093E00E9459114091A4055091A50560E0E0
:101C400070E02AE08AE496E00E9473048BEC93E053
:101C50000E945911698162956F7070E08AE496E084
:101C60000E94A01080EC93E00E94591180919F0582
:101C7000813009F094C01FC080916D0690916E066E
:101C8000A0916F06B09170068F709927AA27BB2785
:101C90000897A105B10510F467E009C068E707C01F
:101CA000882349F06B5F03C0882329F06FE28AE440
:101CB00096E00E9457040E941E11809150068111E7
:101CC0000EC088EF91E0EAE8F3E0DF019C011D928D
:101CD00021503040E1F710925306109254060E94B2
:101CE000AF0560937706709378068093790690939A
:101CF0007A062091730630917406621B730B709301
:101D000072066093710680E06CC02FB7F8948091E2
:101D1000860390918703A0918803B09189032FBF18
:101D200020917B06820F911DA11DB11D80937C0621
:101D300090937D06A0937E06B0937F0680916D06FA
:101D400090916E06A0916F06B09170060196A11D4C
:101D5000B11D80936D0690936E06A0936F06B093AD
:101D600070061092770610927806109279061092FB
:101D70007A060E94AF056093730670937406809391
:101D80007506909376060E94A6128091A605909102
:101D9000A705892B11F00E94361381E022C03981FA
:101DA0003150398331113FCF60E070E08FEF0E94F6
:101DB000500583B7817F846083BF83B7816083BF11
:101DC00083B7816083BF889583B78E7F83BF83B7D6
:101DD0008E7F83BF28CF893209F0AFCB0E940113D9
:101DE000ACCB2E960FB6F894DEBF0FBECDBFDF9101
:101DF000CF911F910F91FF90EF90DF90CF90BF9008
:101E0000AF909F908F907F906F905F904F903F909A
:101E10002F9008952F923F925F926F927F928F92B0
:101E20009F92AF92BF92CF92DF92EF92FF920F9369
:101E30001F93CF93DF93EC01F901E49031968491E5
:101E400064350CF019C10E2C000CFF08062F062E6D
:101E5000000C110BF701E00FF11F1E161F060CF00E
:101E60000BC140330CF008C1A82FC42E042E000C67
:101E7000DD085601A80EB11C87FDBA941A141B0484
:101E80000CF0FAC02E5F3F4F570197E0A90EB11C2E
:101E9000B7FE04C05701BEE0AB0EB11CB3E0B59471
:101EA000A794BA95E1F747FF0AC0A42FA80FAC9CEE
:101EB000C001AD9C900D1124281B390B40E08A2FE6
:101EC0000A2E000C990B840F911D47FD9A95C1971E
:101ED00014F0A0E3A41BF8A067FD60E0E535F10570
:101EE00014F0E4E5F0E09E2FCC85C427C62E062E24
:101EF000000CDD08F601E01BF10B8F014F01F7E04C
:101F00008F229924E0E8F0E002C0F595E7958A94E5
:101F1000E2F77E2F17FF02C0095F1F4FF3E0159510
:101F20000795FA95E1F7200F311F542F577081E084
:101F300001C0880F5A95EAF7459545954595F601F4
:101F4000B4E54B02E00DF11D1124AF0146575C4F83
:101F5000D0E02A2EAA0F3308EE24E394BB24ED2F01
:101F6000F0E0E215F3050CF087C0F9015490F1E0C0
:101F7000FF121AC0962E8A01E72F6901991608F000
:101F800072C08E2E852021F0D8018C90882A8C92E8
:101F9000E69531F4BFEFCB1ADB0AF6015490E0E886
:101FA00093940F5F1F4FEACFF1101CC0782E7094EE
:101FB000962E8A01E72F6901991608F054C08E2EDB
:101FC000852021F0D8018C9087208C92E69531F401
:101FD000BFEFCB1ADB0AF6015490E0E893940F5F51
:101FE0001F4FEACFF3E0FF1629F0962E8A01E72F64
:101FF000690137C0682E6094862E8A01972E690188
:102000008916D8F4E92DE52159F0D801EC91782C06
:102010007C2670FE02C0E82B02C0E621D801EC93BA
:10202000969439F4BFEFCB1ADB0AF6015490E0E83E
:102030009E2E83940F5F1F4FE3CFCE2514C08E2EAC
:10204000852021F0D8018C9088268C92E69531F479
:10205000BFEFCB1ADB0AF6015490E0E893940F5FD0
:102060001F4F991660F3880F19F44C5A5F4F81E0A7
:10207000DF5F2A0D3B1D73CFDF91CF911F910F9131
:10208000FF90EF90DF90CF90BF90AF909F908F9098
:102090007F906F905F903F902F9008950F931F93C4
:1020A000CF93DF938C01EB0180918306909184069E
:1020B000009739F02091850630918606261737075C
:1020C00068F5BE016F5F7F4F0E94D022009789F0B4
:1020D0009093840680938306D0938606C0938506EA
:1020E0002091870630918806232BC1F4FC011082D1
:1020F00015C08091830690918406009711F00E948C
:10210000971F1092840610928306109288061092F0
:10211000870610928606109285060BC0D09388061B
:10212000C0938706B80180918306909184060E942F
:10213000AD2383E896E0DF91CF911F910F91089531
:10214000CF92DF92EF92FF920F931F93CF93DF9383
:102150006B01770FEE08FF08F7FE1BC0EC016DE284
:102160000E9457048C0144275527BA014C195D0978
:102170006E097F092AE0CE010E947304800F911F2F
:10218000DF91CF911F910F91FF90EF90DF90CF9053
:1021900008952AE0B701A601DF91CF911F910F9119
:1021A000FF90EF90DF90CF900C947304BC018AE411
:1021B00096E00C945E04009759F0FC010190002019
:1021C000E9F73197BF01681B790B0E944E1014C0CC
:1021D0008091830690918406009711F00E94971FCA
:1021E0001092840610928306109288061092870639
:1021F000109286061092850683E896E00895CF93A4
:10220000C82FF89460E0809159060E94E5048091FF
:102210005A0618161CF460E00E94E504CEBD0000CA
:102220000DB407FEFDCF8EB580915A0618161CF42A
:1022300061E00E94E5047894CF9108950F931F9375
:10224000CF93809156068F5F809356060AE813E07D
:10225000C0E08C2F80640E94FF1080E80E94FF1075
:1022600061E0809159060E94E50480915A06181693
:102270001CF460E00E94E504F80184E591919EBDA4
:1022800000000DB407FEFDCF9EB58150B9F78091D7
:102290005A0618161CF461E00E94E504CF5F0C5A40
:1022A0001F4FC630B1F680E4CF911F910F910C946F
:1022B000FF100F931F93CF93DF938C01C0E0D0E00A
:1022C000F801EC0FFD1F6491662371F0E0914A065E
:1022D000F0914B060190F081E02D8AE496E009959B
:1022E000892B11F02196ECCFCE01DF91CF911F9178
:1022F0000F910895AF92BF92CF92DF92EF92FF922B
:102300000F931F93CF93DF93182F062FC1E0D3E0D5
:102310008AEFD82E9EEFE92E842F8470C82E842F4A
:102320008270B82E842F8870A82E4170F42E8C2FC6
:10233000880F8F5FE80ECC2081F0402F4D0F612F6A
:102340006C0F8AE496E00E94B507402F4C0F6D2F6A
:10235000610F8AE496E00E94B507BB2081F0402F10
:102360004D1B612F6C0F8AE496E00E94B507402F49
:102370004C1B6D2F610F8AE496E00E94B507AA20DE
:1023800081F0402F4C0F612F6D1B8AE496E00E9474
:10239000B507402F4D0F612F6C1B8AE496E00E9419
:1023A000B507F1100AC0CD17CCF4E7FC04C0D1503A
:1023B000D394D394ED0CCF5FBACF402F4C1B612F39
:1023C0006D1B8AE496E00E94B507402F4D1B612FDC
:1023D0006C1B8AE496E00E94B507E5CFDF91CF91B0
:1023E0001F910F91FF90EF90DF90CF90BF90AF9033
:1023F00008959F92AF92BF92CF92DF92EF92FF9299
:102400000F931F93CF93DF93F82EE62EB22E13E097
:10241000120FD0E0C3E08AEFC82E0EEF842F817038
:10242000982EAA24A394A20E4270D42EDF5F812F8F
:102430008B19080F9920A1F02C2F220F2A0D4E2D59
:102440004C1B6D2F6F0D8AE496E00E942009212F0E
:102450004E2D4D1B6C2F6F0D8AE496E00E942009D3
:10246000D1100AC0DC17ECF407FD04C0C150C394BE
:10247000C3940C0D1E5FDACF2C2F220F2A0D4E2D88
:102480004C1B6F2D6D1B8AE496E00E942009212FC2
:102490004E2D4D1B6F2D6C1B8AE496E00E94200987
:1024A000E1CFDF91CF911F910F91FF90EF90DF90DF
:1024B000CF90BF90AF909F900895CF93DF93A82FB8
:1024C000B0E0ED01C657DA4F9DA1992309F43BC056
:1024D00099A5911138C0FE01E05CFF4F9081AA0FD1
:1024E000BB1FA657BA4FD8963C91D897D9962C9136
:1024F000D997E32FF22FE90FF11DE90FF11D259177
:1025000034912F3F9FEF390711F41DA21CC0FE012B
:10251000E45BFF4F30835F963327220F331F95967E
:10252000ED91FC919697E20FF31F659174918430C1
:1025300028F4482F8FEA95E00E948007C05CDF4FA7
:1025400088818F5F8883DF91CF910895DF92EF922A
:10255000FF920F931F93CF93DF93CAE8D5E001E971
:1025600015E0EE24EA9462E08A850E9414052A852B
:1025700030E0F901EC5BF94F8491F901E05DF94F2E
:10258000F490F901E45EF94FD490DD2071F08111EF
:102590000E94BC04ED2DF0E0EE0FFF1FEE5EF94F40
:1025A000A591B491EC91FE2299F489898F5F898B72
:1025B00060E08A850E94140521960C171D0799F684
:1025C000DF91CF911F910F91FF90EF90DF900895D1
:1025D0008989882389F38F3F11F4198AE9CFE98A21
:1025E000E7CFCF93DF930E945911EC016BE472E0C7
:1025F0008AE496E00E945E048C0F9D1FDF91CF91CC
:10260000089588EF91E0EAE8F3E0DF019C011D9274
:1026100021503040E1F710925306109254068AEE92
:1026200095E00E9459110E941E118CB583608CBDEB
:102630008DB58E7F8DBD8EE492E0EEEFFFE30995C0
:102640001092500685EC95E00E94F1120E941E1136
:102650000E94A61280919F05813039F062E370E0FC
:1026600080E090E00E94D405F3CF0895CF93C0910D
:10267000AE058C2F8F71E1F583E480937C0080910F
:102680007A00806480937A0080917A0086FDFCCF86
:10269000609178008091790070E0782B072E000C13
:1026A000880B990B0E94C42026EE3FE34EEC50E4C9
:1026B0000E94FF200E9457229B017093A505609302
:1026C000A405672B91F084E08093A305E6EAF5E08A
:1026D00080E0419151912417350718F48093A305A8
:1026E0000AC08F5F8430A9F703C08FEF8093A305E2
:1026F000CF5FC093AE05CF910895CF92DF92EF9256
:10270000FF920F931F93CF93DF93EC0181E08093AF
:10271000520610925106109250061092A205809314
:102720006A0680936B061CE00E94110A8823E1F37D
:10273000FE018491882319F000914F0601C000E04A
:1027400026E437E040E060E08AE496E00E940A0F69
:102750004CE0400F20E636E060E08AE496E00E941C
:102760000A0F1092530610935406CE010E9459117D
:1027700080914E06982F990F890F81958D5A8093DD
:10278000530680914F06982F990F890F8195835D8D
:102790008093540680916D0684FF03C082E497E025
:1027A00002C08EE397E00E94F11280914E06982FAE
:1027B000990F890F81958D5A809353068091540605
:1027C0008F5F809354068091C005882319F08AE3B7
:1027D00097E002C086E397E00E94F11280914E06D6
:1027E000982F990F890F81958D5A80935306809168
:1027F00054068F5F8093540682E397E00E94F112A3
:102800008091A0058130C9F48091C0058F5F6091EF
:10281000C10587FD09C0082E000C990B70E06F5FA1
:102820007F4F0E94A222682F6093C00540E06BEAB0
:1028300075E08FEA95E00E94800780919F058130C6
:10284000A9F080916C06482F50E060E070E0C090E5
:102850006D06D0906E06E0906F06F0907006C4167C
:10286000D506E606F706F8F08F3FE9F08FEF809384
:102870006C0660E08FEA95E00E9457071092B3055E
:1028800040E068E576E08FEA95E00E94800781E00D
:102890008093A205DF91CF911F910F91FF90EF9050
:1028A000DF90CF9008958091A105813009F03CCF51
:1028B0000E94011339CFFC01809187069091880610
:1028C000892B21F421E0309749F413C080918306CD
:1028D00090918406309731F421E0FC0180818823B7
:1028E00041F006C0BF010E94A42321E0892B09F01A
:1028F00020E0822F0895CF93DF93CDB7DEB72A97DC
:102900000FB6F894DEBF0FBECDBF789484B5826059
:1029100084BD84B5816084BD85B5826085BD85B583
:10292000816085BD80916E00816080936E00109201
:10293000810080918100826080938100809181007C
:10294000816080938100809180008160809380000D
:102950008091B10084608093B1008091B00081606B
:102960008093B00080917A00846080937A00809197
:102970007A00826080937A0080917A0081608093EF
:102980007A0080917A00806880937A001092C1006A
:1029900082E380937B0681E090E0A0E0B0E080934A
:1029A000770690937806A0937906B0937A068FEF16
:1029B00080936C06E0E8F7E7259134912130304CA4
:1029C00009F049C0E6E9F7E7E491E0935506E7E945
:1029D000F7E7E491E0938E05E8E9F7E7E491E09307
:1029E0008F05E9E9F7E7859194919093910580939C
:1029F0009005EBE9F7E78591949190939305809387
:102A0000920587E08093C105EEE9F7E7E491E09352
:102A1000C005EFE9F7E7E491E0936C06E0EAF7E739
:102A2000859194919093A7058093A605E2EAF7E734
:102A3000859194919093A9058093A805E4EAF7E71E
:102A4000859194919093AB058093AA05E6EAF7E708
:102A5000859194912CC09CE39093550610928E051D
:102A600080938F0580E293E0909391058093900589
:102A700084ED93E0909393058093920587E0809393
:102A8000C1058093C0058CEA9DE09093A7058093D3
:102A9000A6058EED9DE09093A9058093A80584E797
:102AA0009EE09093AB058093AA058CE39FE0909302
:102AB000AD058093AC056FEF70E08FEF0E9450057D
:102AC00088E08093940589E08093950587E0809362
:102AD000960586E08093970554E05093980582E030
:102AE0008093990585E080939A050E94A6128CE355
:102AF0009FE09093A5058093A40584E08093A305AF
:102B000081E08093AE059BE0909358069DE0909302
:102B1000570690E1909359069EE090935B069FE0E4
:102B200090935A068093520680936A0610926B0621
:102B300080935106EEEEF3E0E491EF5FE0934E06F2
:102B4000EFEEF3E0E491EF5FE0934F0680EF93E068
:102B500090936906809368069FB79983F894809153
:102B60005902811127C0E6E2F6E08491EAE3F6E03B
:102B70009491E82FF0E0EE0FFF1FEC58FF4FA59166
:102B8000B491EC91E92321F461E08AE00E94E5042C
:102B900061E08AE00E9414058CB580618CBD8CB523
:102BA00080648CBD61E08DE00E94140561E08BE0E3
:102BB0000E941405809159028F5F80935902E98128
:102BC000EFBF8CB58F7D8CBD8CB58C7F81608CBD4B
:102BD0008DB581608DBD8CB58C608CBD61E08091C0
:102BE00058060E94140561E0809157060E94140562
:102BF00061E0809159060E94140580915B061816C9
:102C00001CF461E00E94140580915A0618161CF409
:102C100061E00E94140580915B06181674F460E070
:102C20000E94E5046AE070E080E090E00E94D40534
:102C300061E080915B060E94E50480915706082EB2
:102C4000000C990BFC01E45EF94FE491F0E0EE0F0B
:102C5000FF1FE258FF4F2591349130935F06209378
:102C60005E06FC01E05DF94FE491E093650680911A
:102C70005806082E000C990BFC01E45EF94FE49114
:102C8000F0E0EE0FFF1FE258FF4F25913491309393
:102C90005D0620935C06FC01E05DF94FE491E09352
:102CA000640680915A06082E000C990BFC01E45E24
:102CB000F94FE491F0E0EE0FFF1FE258FF4F25912E
:102CC00034913093610620936006FC01E05DF94F7A
:102CD000E491E093660680915906082E000C990B4A
:102CE000FC01E45EF94FE491F0E0EE0FFF1FE258C3
:102CF000FF4F259134913093630620936206FC01C7
:102D0000E05DF94FE491E093670681E20E94FF10D5
:102D100084E10E94FF108091550687FF03C08FE772
:102D2000809355068091550680680E94FF1080E2CE
:102D30000E94FF108CE00E94FF100E941E1181E093
:102D40008093BF0536E4E32E36E0F32E02EE15E065
:102D5000198240E7C42E40E0D42EF70121E02193F0
:102D60007F01F801C192D1928F01498160E08FEA21
:102D700095E00E945806F981FF5FF983F43069F706
:102D800061E070E083E00E9450058091B100887F8F
:102D900081608093B100F8941092800010928100BD
:102DA000109285001092840088E191E09093890050
:102DB0008093880080918100886080938100809159
:102DC000810081608093810080916F008260809398
:102DD0006F0078948091A6059091A705892B11F03A
:102DE0000E9436138091A005813009F03FC51092F2
:102DF000C00582E380937B0681E08093BF058091CC
:102E00006C06882321F086E990E00E947D13C09033
:102E1000A405D090A505C094D094E12CF12C0E947B
:102E2000AF054B015C010E94AF05A50194012095FF
:102E300030954095509560957095809590950E943D
:102E400086229B01AC01C701B6010E9486226B015C
:102E50007C0160918B0570918C054B01A12CB12CEC
:102E60000E94AF05DC01CB01880D991DAA1DBB1D79
:102E7000BC01CD016C0D7D1D8E1D9F1D6115710561
:102E80008105910511F00E94B9208BE791E00E9425
:102E9000DB101092A2059AE0492E512C24E0C22E9C
:102EA000D12CE12CF12C0E94110A882309F4D6C4FC
:102EB00081E891E00E945B14882369F01092680316
:102EC0001092670383E0809358021092660389E8AA
:102ED00091E00E94DB1089E891E00E945B14882356
:102EE00009F456C022E1209354068AE080935306E9
:102EF00085E991E00E94D61082E4809353066091A8
:102F0000650370E06F5F7F4F8AE496E00E94A01037
:102F100084E28093540682E08093530683EA91E032
:102F20000E94D61032E1309353068AE28093540611
:102F300088EB91E00E94D61080919B058F3F79F03D
:102F400080FF0DC080916503882349F081508093F4
:102F5000650361E070E084E090E00E945A0980918E
:102F60009D058F3F79F080FF0DC08091650389300A
:102F700048F48F5F8093650361E070E084E090E047
:102F80000E945A098091A00581508E3F08F48BC49D
:102F900085EC91E00E945B14882309F45DC12091C7
:102FA0006503822F90E0B2010E94A2229C838B8352
:102FB000809364032A3018F081E0809366031092B6
:102FC0006A0610926B060CE025E140E060E08AE4BE
:102FD00096E00E94290881E080936A0680936B0640
:102FE00086E24B815C81849F9001859F300D112486
:102FF0002C5B3D4F40E060E08AE496E00E940A0FBF
:1030000051E05983612C712CC30188599D4F9C83D9
:103010008B8391E09A83812C912C6D82E981E2501F
:10302000EF8388866D81882D0E943C098E83611410
:10303000710439F06F81882D0E943C09A82EB12CB3
:1030400003C0AA24A394B12C8114910461F06D8172
:103050008A8182500E943C09282E312CF4E18F167F
:10306000910421F40AC022242394312C6D818A8199
:103070000E943C09082F10E002C001E010E02BE0A4
:103080006216710449F0698188850E943C09482FC5
:1030900050E05A87498704C081E090E09A87898789
:1030A0009E81913009F0A4C02114310449F40E949A
:1030B0006B20A70196010E94BD216E5F7F4F02C069
:1030C00061E070E00115110541F40E946B20A70139
:1030D00096010E94BD216A5F7F4FA114B10469F47B
:1030E0000E946B20E985FA85EF2B59F0A701960124
:1030F0000E94BD21665F7F4F0FC029853A85232B33
:1031000039F50E946B20A70196010E94BD21625FE4
:103110007F4FA114B104E1F42114310409F037C642
:103120000E946B20A70196010E94BD216E5E7F4F19
:103130000115110569F50E946B20A70196010E94F7
:10314000BD216A5E7F4F29853A85232BE1F41CC699
:1031500021143104A9F449855A85452B89F40E942C
:103160006B2001151105D1F40E946B20A114B1044C
:10317000F1F0A70196010E94BD21625E7F4F27C03A
:1031800001151105E9F489859A85892BC9F4ECCFDD
:1031900049855A85452BA1F70E946B20A70196010E
:1031A0000E94BD21665E7F4FA114B10481F40E948C
:1031B0006B20A70196010E94BD216E5C7F4F07C066
:1031C000A114B10421F4E985FA85EF2B81F32114D0
:1031D000310409F093C50115110509F094C50E9449
:1031E0006B20A70196010E94BD216A5C7F4F8BC5B1
:1031F00060E070E0EB81FC816083FFEF8F1A9F0A33
:103200002B813C81245F3F4F3C832B833A813F5F7E
:103210003A8345E18416910409F003CF5FEF651A04
:10322000750A89818F5F89838D3009F0EDCE109208
:103230006A0610926B060CE025E140E060E08AE44B
:1032400096E00E94290881E080936A0680936B06CD
:103250008EEC91E00E94DB108EEC91E00E945B14FA
:10326000882329F188E090E09093670280936602BA
:1032700010926502109264028AE080936302809348
:1032800062028FEF9FEF9093570280935602109245
:1032900061021092600210925F0284EF91E09093BD
:1032A0005E0280935D0286ED91E00E94DB1086ED68
:1032B00091E00E945B14882309F4FFC180919B0573
:1032C00081508E3F68F4809156029091570201968A
:1032D00039F480915F0290916002892B09F4EEC26B
:1032E00080919D0581508E3F68F4809156029091A7
:1032F0005702019639F480915F0290916002892B08
:1033000009F41AC380919F0581508E3F68F4809123
:10331000560290915702019639F480915F02909184
:103320006002892B09F447C38091A105813061F4C3
:1033300080916C06882321F084E392E00E947D1343
:103340008BE791E00E94DB1080915D0290915E021C
:1033500097FF04C010925E0210925D0280915C02A1
:103360008F5F80935C0290E02091660342E050E022
:10337000421B51094817590764F4809162028F5F1C
:103380008093620210925C02853118F084E1809390
:10339000620288E692E09C838B83B12C16E0912E2A
:1033A0000B811C81A12CF8018081882379F090E0A9
:1033B0000197989E9001999E300D112428523F4FFD
:1033C0004B2D6A2D8AE496E00E940A0F045F1F4F7E
:1033D000F4E0AF0E24E5A212E6CF4B815C814F5F93
:1033E0005F4F5C834B83BF0E50E3B512D9CF809102
:1033F000560290915702019609F0ACC080915F028D
:1034000090916002892B09F0A5C08091660290918D
:103410006702B2010E94A222862E809164029091DE
:103420006502B2010E94A222962EBB24B394B80C6E
:103430008B2D0E943C09182FAA24A394A90CF2E01A
:10344000F80DF9836A2D8F2F0E943C0990E09C01B2
:10345000210F311D890173E0672E680C6A2D862DBE
:103460000E943C09080F111DE4E0AE2EA80C692D46
:103470008A2D0E943C09080F111DF4E07F2E790C63
:10348000672D8B2D0E943C09282EA3E03A2E390C83
:10349000632D89810E943C09482F50E0420D511D47
:1034A0005C834B83632D862D0E943C09EB81FC815C
:1034B000E80FF11DFC83EB83672D8A2D0E943C09E8
:1034C0002B813C81280F311D3C832B83B2E07B2E66
:1034D000790C672D8B2D0E943C09B82E672D8A2D03
:1034E0000E943C0990E0AC014B0D511D5A018091A6
:1034F00062028B508230B0F4809163028950833035
:1035000088F455E0950E692D882D0E943C09782E8F
:10351000692D85E0880D0E943C09282F30E0270D99
:10352000311D02C020E030E08B819C81800F911F13
:10353000A80EB91E2A0D3B1D232B61F0EEE1F0E031
:10354000F0935702E093560261E070E081E090E072
:103550000E945A0920915602309157023C832B83D6
:10356000E0916402F0916502209166023091670259
:103570004B815C814F3F5F4F09F05BC200915F025E
:1035800010916002409162020115110561F5809170
:10359000630290E00A97280F391F30936702209347
:1035A0006602842F90E00A97E80FF91FF0936502F6
:1035B000E09364022D30334034F08CE093E090933C
:1035C000670280936602809166029091670297FF7E
:1035D00004C01092670210926602F7FF04C01092B6
:1035E0006502109264024B508091640290916502D2
:1035F0002091660230916702423008F032C3409158
:1036000063024950433008F02CC3B2010E94A22249
:103610007C836B83C901B2010E94A2225B0120EB73
:1036200030E04B818AE496E00E940A0F80916403A7
:1036300090E0FC01EB5EFE4F2081E4E02E9F9001C4
:103640001124A216B3060CF011C310926A06109250
:103650006B068091640390E0FC01E55FFE4F5081B2
:10366000550F550F5A83FC01EB5EFE4F8081880F8A
:10367000880F8983452F4F5F2CE0682F8AE496E0FE
:103680000E940D0881E080936A0680936B062CE00F
:103690004A8169818AE496E00E940D088091610266
:1036A000813009F427C20E94BE0980916402909182
:1036B00065028E3691050CF085C28BE791E00E9481
:1036C0005B14882309F47DC080916703909168039F
:1036D00020915A0230915B022817390724F4909305
:1036E0005B0280935A02109253061092540680EFA8
:1036F00091E00E94D61060916703709168036A3070
:1037000071052CF08CE06436710524F401C08EE064
:1037100090E001C092E0891B683EF3E07F0714F45B
:1037200090E001C092E0891B8093530686E080936D
:1037300054068AE496E00E94A01060915A027091AB
:103740005B026A3071052CF080E46436710524F464
:1037500001C082E490E001C092E0891B683E23E052
:10376000720714F490E001C092E0891B8093530625
:1037700086E0809354068AE496E00E94A01020E63A
:1037800036E04DE06AE08AE496E00E940A0F10926B
:1037900053068AE28093540684E092E00E94D61099
:1037A00080919F05813009F491C28091A1058130FB
:1037B00041F480916C06882321F081EA90E00E9418
:1037C0007D1389E192E00E945B14882309F446C0CE
:1037D00010926A0610926B0609E027E240E166E16A
:1037E0008AE496E00E94290881E080936A0680932B
:1037F0006B0688E18093530682E18093540682E24F
:1038000092E00E94D61027E240E166E18AE496E069
:103810000E940D0827E248E166E18AE496E00E94F2
:103820000D0829E040E166E18AE496E00E94200963
:1038300029E040E16CE38AE496E00E94200984E0FC
:10384000809353068AE2809354068CE292E00E94B1
:10385000D6108091A005813009F444C280E090E048
:10386000892B09F420CB0E9400001DCB40E068E8C2
:1038700070E08FEA95E00E94800741E068E870E020
:103880008FEA95E00E94800742E068E870E08FEAE6
:1038900095E00E94800743E068E870E08FEA95E0D9
:1038A0000E948007A6CA85EC91E00E94DB1061E0CF
:1038B00070E084E090E00E945A096ACB10916302A4
:1038C000115010936302E0915D02F0915E02319716
:1038D000FC83EB83F0935E02E0935D0260E070E0B6
:1038E00080E090E00E945A092B813C81223331050F
:1038F00034F461E070E083E090E00E945A09809126
:10390000640290916502B2010E94A22241E0460F3A
:103910008091660290916702B2010E94A2226A5FC2
:103920002FE332E08AE496E00E940A0F1F3F09F07D
:10393000D7CC10926302D4CC109163021F5F109316
:10394000630240915D0250915E02415051095C83D7
:103950004B8350935E0240935D0260E070E080E034
:1039600090E00E945A098B819C81C29734F461E0F7
:1039700070E083E090E00E945A0980916402909187
:103980006502B2010E94A22241E0460F80916602C8
:1039900090916702B2010E94A22264502FE332E0AC
:1039A0008AE496E00E940A0F153108F4ABCC84E15A
:1039B00080936302A7CC10916202125010936202AE
:1039C000E0915D02F0915E023197FC83EB83F0930E
:1039D0005E02E0935D0260E070E080E090E00E94B3
:1039E0005A092B813C812233310534F461E070E0C7
:1039F00083E090E00E945A098091640290916502F0
:103A0000B2010E94A22245E0460F80916602909189
:103A10006702B2010E94A2226F5F2FE332E08AE4C4
:103A200096E00E940A0F1B3F08F47ECC10926202BF
:103A30007BCC8B819C8166EF7FEF0E94A2228B0161
:103A400063E0000F111F6A95E1F700531F4FCF018C
:103A5000B2010E94A222B62EEB81FC81F7FD3396C3
:103A6000F595E795F595E7958E2F8B0D46EFA42EEE
:103A7000A80EC901B2010E94A222962EE60F56EFAF
:103A8000852E8E0E98014A2D682D8AE496E00E94BC
:103A90000A0F8B819C8197FF03C003969C838B83C5
:103AA000EB81FC81F595E795F595E795F195E19525
:103AB000F109FC83EB83EB0DE65FEA8398014E2F5F
:103AC000682D8AE496E00E940A0FFB81F90DF65FEB
:103AD000F98398014A2D6F2F8AE496E00E940A0F1D
:103AE00098014A8169818AE496E00E940A0F0E9447
:103AF000BE09ABCD80915F029091600201969093D8
:103B0000600280935F0280915D0290915E028A3034
:103B10009105D4F00A9790935E0280935D028091A4
:103B20006703909168030A969093680380936703F4
:103B30006EE170E00E94A222892B31F461E070E016
:103B400083E090E00E945A0910926A0610926B0678
:103B500007E02AE441E165E08AE496E00E94290852
:103B600081E080936A0680936B0686E0809353061B
:103B700082E1809354068EED91E00E94D61086E497
:103B8000809353066091650370E06E5F7F4F8AE417
:103B900096E00E94A01080915F0290916002C2970F
:103BA0000CF481CD809165038F5F8093650385EC74
:103BB00091E00E94DB1061E070E082E090E00E9402
:103BC0005A0971CD10926A0610926B0606E024E540
:103BD00040E060E08AE496E00E94290881E080935A
:103BE0006A0680936B061092540660916703709189
:103BF00068036A3071052CF08DE46436710524F495
:103C000001C081E590E001C094E0891B683E93E02B
:103C1000790714F490E001C094E0891B6031E7E279
:103C20007E0714F490E001C094E0891B8093530652
:103C30008AE496E00E94A010109253068EEE91E066
:103C40000E94D61080915D0290915E02B2010E94A6
:103C5000A222262F42E064E08AE496E00E940D084A
:103C60002CCD0115110509F0D0CC21C02A5F3F4FA2
:103C70002A153B050CF4E9CCFC01E55FFE4F808181
:103C80002B813C812A5F3F4F3C832B8334E0839F11
:103C9000C00111244B815C81481759070CF4D5CC25
:103CA000012B09F0D2CC81E080936102CECCB2012D
:103CB0000E94A222462FC901B2010E94A22228EA34
:103CC00030E08AE496E00E940A0FBFCC81E891E0E0
:103CD0000E94DB1040E068E576E08FEA95E00E9404
:103CE000800763CD8BE791E00E94DB1040E068E540
:103CF00076E08FEA95E00E948007B0CDA114B10470
:103D000009F456C077CAA114B10409F04DC0298541
:103D10003A85232B81F40E946B20012B71F50E94C0
:103D20006B20A70196010E94BD216A5D7F4F232869
:103D300009F060CA03C0012B09F05CCA0E946B2025
:103D4000A70196010E94BD21665D7F4F89859A85F6
:103D5000892B41F40E946B20A70196010E94BD218E
:103D6000625D7F4FAB2809F045CAE985FA85EF2BE4
:103D700009F040CA6AE370E03DCAA70196010E94BB
:103D8000BD216E5D7F4F36CA0E946B20EDC90115C3
:103D9000110509F015CA0E946B20A70196010E9427
:103DA000BD216A5E7F4FEFC9012B09F023CACECF38
:103DB000012B09F01FCA49855A85452B09F4AFCF5D
:103DC00019CA80918306909184060C94971F1092D3
:103DD0004D0610924C0683E791E090934B0680933A
:103DE0004A06E3E8F6E011821082138212821582FD
:103DF000148260E070E08DE492E00C944E100F931A
:103E00001F93CF93DF938230910510F482E090E00E
:103E1000E0918B06F0918C0620E030E0A0E0B0E06D
:103E2000309719F140815181028113814817590758
:103E3000C8F08417950769F4109731F012960C9327
:103E4000129713961C9327C000938B0610938C0631
:103E500022C02115310519F04217530718F49A01B1
:103E6000BD01EF01DF01F801DBCF21153105F9F0CC
:103E7000281B390B2430310580F48A819B81611520
:103E8000710521F0FB019383828304C090938C061B
:103E900080938B06FE01329644C0FE01E20FF31FB1
:103EA0008193919322503109398328833AC020911C
:103EB000890630918A06232B41F420910301309129
:103EC000040130938A0620938906209101013091E4
:103ED00002012115310541F42DB73EB7409105018E
:103EE00050910601241B350BE0918906F0918A065A
:103EF000E217F307A0F42E1B3F0B2817390778F0C1
:103F0000AC014E5F5F4F2417350748F04E0F5F1F1F
:103F100050938A06409389068193919302C0E0E012
:103F2000F0E0CF01DF91CF911F910F910895CF93D2
:103F3000DF93009709F481C0FC013297138212824B
:103F4000A0918B06B0918C06109781F4208131816D
:103F5000820F931F2091890630918A06281739070E
:103F600051F5F0938A06E093890667C0ED0120E0E1
:103F700030E0CE17DF0740F44A815B819E01411596
:103F80005105F1F0EA01F5CFD383C283408151811D
:103F9000840F951FC817D90759F488819981840F18
:103FA000951F0296918380838A819B81938382836C
:103FB0002115310529F4F0938C06E0938B063DC062
:103FC000E901FB83EA8349915991C40FD51FEC178E
:103FD000FD0761F480819181840F951F0296E901AC
:103FE00099838883828193819B838A83E0E0F0E0D8
:103FF00012968D919C911397009719F0FD01DC01A9
:10400000F7CF8D919C9111979D012E5F3F4F820FAD
:10401000931F2091890630918A062817390769F481
:10402000309729F410928C0610928B0602C01382EE
:104030001282B0938A06A0938906DF91CF910895EA
:104040008F929F92AF92BF92CF92DF92EF92FF92A8
:10405000CF93DF93EC01688179818A819B8161151F
:1040600071058105910521F464E279ED8BE597E016
:104070002DE133EF41E050E00E94BD2149015A019A
:104080009B01AC01A7EAB1E40E94DC216B017C0139
:10409000ACEEB4EFA50194010E94EA21DC01CB0152
:1040A0008C0D9D1DAE1DBF1DB7FF03C00197A1095B
:1040B000B04888839983AA83BB83BC01CD019F77D5
:1040C000DF91CF91FF90EF90DF90CF90BF90AF90B6
:1040D0009F908F9008958F929F92AF92BF92CF92B0
:1040E000DF92EF92FF926091070170910801809139
:1040F000090190910A01611571058105910521F46D
:1041000064E279ED8BE597E02DE133EF41E050E09B
:104110000E94BD2149015A019B01AC01A7EAB1E40B
:104120000E94DC216B017C01ACEEB4EFA50194018F
:104130000E94EA21DC01CB018C0D9D1DAE1DBF1D2F
:10414000B7FF03C00197A109B0488093070190937E
:104150000801A0930901B0930A01BC01CD019F772A
:10416000FF90EF90DF90CF90BF90AF909F908F9097
:10417000089560930701709308018093090190935B
:104180000A010895E89409C097FB3EF49095809544
:10419000709561957F4F8F4F9F4F9923A9F0F92F0D
:1041A00096E9BB279395F695879577956795B7958B
:1041B000F111F8CFFAF4BB0F11F460FF1BC06F5F71
:1041C0007F4F8F4F9F4F16C0882311F096E911C083
:1041D000772321F09EE8872F762F05C0662371F0A4
:1041E00096E8862F70E060E02AF09A95660F771FB8
:1041F000881FDAF7880F9695879597F908950E949A
:1042000012210C9483210E94752138F00E947C2198
:1042100020F0952311F00C946C210C947221112440
:104220000C94B7210E94942170F3959FC1F3950FD0
:1042300050E0551F629FF001729FBB27F00DB11D2A
:10424000639FAA27F00DB11DAA1F649F6627B00DBA
:10425000A11D661F829F2227B00DA11D621F739FA3
:10426000B00DA11D621F839FA00D611D221F749FB1
:104270003327A00D611D231F849F600D211D822FF8
:10428000762F6A2F11249F5750409AF0F1F088231F
:104290004AF0EE0FFF1FBB1F661F771F881F91504C
:1042A0005040A9F79E3F510580F00C946C210C946E
:1042B000B7215F3FE4F3983ED4F3869577956795F1
:1042C000B795F795E7959F5FC1F7FE2B880F911D76
:1042D0009695879597F9089597F99F6780E870E01C
:1042E00060E008959FEF80EC089500240A9416166C
:1042F000170618060906089500240A9412161306D4
:10430000140605060895092E0394000C11F4882361
:1043100052F0BB0F40F4BF2B11F460FF04C06F5F7D
:104320007F4F8F4F9F4F089557FD9058440F551F53
:1043300059F05F3F71F04795880F97FB991F61F027
:104340009F3F79F087950895121613061406551F9E
:10435000F2CF4695F1DF08C0161617061806991F0A
:10436000F1CF86957105610508940895E894BB27FF
:1043700066277727CB0197F90895052E97FB1EF442
:1043800000940E94D42157FD07D00E94262207FCEA
:1043900003D04EF40C94D42150954095309521953E
:1043A0003F4F4F4F5F4F0895909580957095619561
:1043B0007F4F8F4F9F4F08950E944822A59F900DD9
:1043C000B49F900DA49F800D911D11240895B7FFF7
:1043D0000C94DC210E94DC21821B930B08952F9208
:1043E0003F924F925F926F927F928F929F92AF9285
:1043F000BF92CF92DF92EF92FF920F931F93CF93D2
:10440000DF93CDB7DEB7CA1BDB0B0FB6F894DEBF68
:104410000FBECDBF09942A88398848885F846E848E
:104420007D848C849B84AA84B984C884DF80EE80D8
:10443000FD800C811B81AA81B981CE0FD11D0FB6E1
:10444000F894DEBF0FBECDBFED010895A1E21A2E94
:10445000AA1BBB1BFD010DC0AA1FBB1FEE1FFF1F28
:10446000A217B307E407F50720F0A21BB30BE40B78
:10447000F50B661F771F881F991F1A9469F76095BF
:104480007095809590959B01AC01BD01CF01089579
:10449000A29FB001B39FC001A39F700D811D112485
:1044A000911DB29F700D811D1124911D08950E94D0
:1044B0009C2188F09F5798F0B92F9927B751B0F0F9
:1044C000E1F0660F771F881F991F1AF0BA95C9F798
:1044D00014C0B13091F00E94B621B1E008950C945F
:1044E000B621672F782F8827B85F39F0B93FCCF312
:1044F000869577956795B395D9F73EF49095809515
:10450000709561957F4F8F4F9F4F0895DB018F937B
:104510009F930E94DC21BF91AF91A29F800D911DBE
:10452000A39F900DB29F900D11240895991B79E0DF
:1045300004C0991F961708F0961B881F7A95C9F733
:104540008095089597FB072E16F4009407D077FD09
:1045500009D00E94B62207FC05D03EF490958195C3
:104560009F4F0895709561957F4F0895AA1BBB1BBF
:1045700051E107C0AA1FBB1FA617B70710F0A61B63
:10458000B70B881F991F5A95A9F780959095BC0184
:10459000CD010895EE0FFF1F0590F491E02D0994D1
:1045A000A0E0B0E0E6EDF2E20C94F321EC0100971C
:1045B00021F4CB010E94FF1EB4C0FC01E60FF71FDF
:1045C0009C0122503109E217F30708F4A8C0D90171
:1045D0000D911C91119706171707B0F005301105C2
:1045E00008F49BC0C80104978617970708F495C084
:1045F00002501109061B170B019311936D937C93C5
:10460000CF010E94971F89C05B01A01AB10A4C011B
:10461000800E911EA0918B06B0918C06612C712C9E
:10462000E12CF12C109709F446C08D919C911197C3
:10463000A815B905B1F56C0142E0C40ED11CCA142D
:10464000DB0478F14C018A189B08640142E0C40E37
:10465000D11C1296BC9012971396AC91B5E0CB1674
:10466000D10440F0B282A38391828082D9016D93FC
:104670007C9309C00E5F1F4F800F911FF90191833A
:104680008083EB2DFA2FE114F10431F0D70113965A
:10469000FC93EE93129741C0F0938C06E0938B0647
:1046A0003CC06816790608F43C017D0112960D9015
:1046B000BC91A02DB7CF8091890690918A0688166B
:1046C0009906E1F466167706C8F48091010190918D
:1046D0000201009741F48DB79EB7409105015091BA
:1046E0000601841B950BE817F907C8F4F0938A06B6
:1046F000E0938906F901718360830FC0CB010E94AA
:10470000FF1E7C01009759F0A801BE010E949B2367
:10471000CE010E94971FC70104C0CE0102C080E0F5
:1047200090E0CDB7DEB7EEE00C940F2281E090E090
:10473000F8940C94B423FB01DC0102C001900D92AB
:1047400041505040D8F70895FB01DC018D91019054
:1047500080190110D9F3990B0895FB01DC01019038
:104760000D920020E1F7089513E0CCEDD3E004C0F2
:10477000FE010E94CA222196CD3DD107C9F7F894C7
:02478000FFCF69
:104782000100008D068000010000000B0B0B090BDD
:10479200050B0B040309080B0F0C0E0B120E0D0177
:1047A20000110035000000070000000700030001AF
:1047B200001A002900010001000300070014000094
:1047C2000000002A0001000100020007001400009E
:1047D2000036000000000000000000070001000099
:1047E2000000004100010001000100070005000077
:1047F20000000052080704520451047469746C6585
:10480200006E657767616D650073656C6563746CD6
:104812006576656C0053454C454354204C455645DE
:104822004C3A004C4546542F524947485420544F65
:104832002053454C454354004220544F20434F4E91
:104842004649524D006E65776C6576656C006E6503
:10485200776C6966650072756E6E696E67005245A7
:1048620041445920464F52204C4556454C00460083
:1048720020204C415354202020202020202020485A
:104882004947480020413A20504C415920202020DD
:1048920020433A20515549540067616D656F766532
:1048A200720047414D45204F5645520050524553E4
:1048B20053204220544F20434F4E54494E554500F9
:1048C2005348495053204C454654000D0A004C4F62
:0648D200414445520000C4
:00000001FF
