:100000000C9450020C9478020C9478020C947802B0
:100010000C9478020C9478020C9478020C94780278
:100020000C9478020C9478020C9478020C94150BC2
:100030000C9478020C9478020C9478020C94780258
:100040000C94CB0A0C9478020C9478020C947802ED
:100050000C9478020C9478020C9478020C94780238
:100060000C9478020C9478020101FF030101F7035C
:100070006C00680000000000240027002A00000037
:100080000000250028002B000500893008023802F6
:100090004978681400000500380168010000175312
:1000A00044001613780016131400151020001520B4
:1000B0001000540A03E181867F3E186D830F0F0EF6
:1000C0000183866033186DC3198F1803C38E6033A4
:1000D000186DE330CF1803C39E603630CDE360CF98
:1000E0003006C79E7E3E30CDB360CF300CC6F66082
:1000F0003330D9B660CF33CFCCF66061B0DB1E6051
:10010000CF30D86CE6C061B0DB1E618F19986CC629
:10011000C063B19B0E330F0FB078C6FF7E1F1B0666
:100120001E0F381A00000000000000000000000050
:1001300000000000000000000000000000000000BF
:1001400000000000000000000000000000000000AF
:1001500000000000000066006000600600660060AD
:100160000060060000000000000000000000000029
:1001700000060060606060600600606060606000B3
:1001800000000000000000000000000000006660A9
:100190006660660000666066606600000000000041
:1001A00000000000000000000000006000606060CF
:1001B00000006000606060000000000000000000BF
:1001C000000000000000660000606006006600009D
:1001D000606006000000000000004C6967687473EE
:1001E000204F757420414420627900050068013871
:1001F0000100000A0A153A49676E6F7265006D5674
:100200000A0A504C45415345205455524E204F4602
:100210004620004C4F57204241545445525921200A
:100220000003053F213F1208120A100A0E1C0E0C93
:100230001E0C141A14161F161E131E1E1B1E1E1F24
:100240001E3F213F3A2F3A173D173F213F181F020B
:10025000040A041F0E04040E1F0A1F0A0E0E1F04B8
:10026000110E2E252E2F2A2E262929021F02081FA5
:1002700008150E04040E150E15151B151B04060497
:10028000040C040000000017000300031F0A1F16DF
:10029000371A1904130A153A000300000E11110E43
:1002A000000A040A040E04003000040404001000D4
:1002B0001804031F111F121F101D151711151F07FA
:1002C000041F17151D1F151D01011F1F151F1715D1
:1002D0001F000A00003200040A110A0A0A110A0467
:1002E0000115020E11171E051E1F150A0E110A1FF9
:1002F000110E1F15111F05010E111D1F041F111FC7
:100300001108100F1F041B1F10101F061F1E040FC3
:100310000E110E1F09060E112E1F051A12150901C6
:100320001F011F101F0F180F1F0C1F1B041B031C86
:1003300003191513001F11030418111F00020102F5
:100340002020200001020C121E1F120C0C12120C95
:10035000121F0C1A14041E05242A1E1F021C141D31
:100360001020201D1F0814111F101E041E1E021C29
:100370000C120C3E0A040C123E1E040214160A0251
:100380000F120E101E0E100E1E081E120C12262822
:100390001E322A26041E21001F00211E0401020114
:1003A0003F213FF6E8DBCFC3B8AEA49B928A827BA5
:1003B000746E68625C57524E4945413E3A3734315B
:1003C0002E2C29272523211F1D1C1A191716151439
:1003D000131211100F0E0D0C0B0A09080706172B2C
:1003E000152010204C4F4144455200172B16201366
:1003F0001400040400606000040400000000040411
:10040000609090604500680100000A4E6F205344E0
:100410002063617264206F720A6E6F204C4F4144FA
:1004200045522E4845580A0A153A45786974001D08
:1004300020466C617368696E670A20206C6F616486
:1004400065722E2E2E0A0A444F4E275420545552C0
:100450004E204F46462100000000002300260029C0
:10046000000404040404040404020202020202035D
:100470000303030303010204081020408001020467
:1004800008102001020408102000000008000201EA
:100490000000030407000000000000000000911AA3
:1004A00011241FBECFEFD8E0DEBFCDBF11E0A0E02A
:1004B000B1E0E0E8FCE302C005900D92A23FB10775
:1004C000D9F725E0A2EFB1E001C01D92A131B2073A
:1004D000E1F712E0C0E5D2E004C02197FE010E94DE
:1004E000331ECF34D107C9F70E9403130C943E1E6C
:1004F0000C9400002F923F924F925F926F927F92E6
:100500008F929F92AF92BF92CF92DF92EF92FF9223
:100510000F931F93CF93DF93CDB7DEB72E970FB610
:10052000F894DEBF0FBECDBF409106055091070580
:1005300060910805709109052FB7F8948091070222
:1005400090910802A0910902B0910A022FBF481BA6
:10055000590B6A0B7B0B8091050590E0A0E0B0E0A1
:1005600000910105109102052091030530910405C9
:1005700084179507A607B70730F401151105210563
:10058000310509F038C4012B022B032B09F031C4CB
:1005900080912B0481508E3F18F580912A04813080
:1005A000F9F480914A048F5F60914B0487FD09C084
:1005B000082E000C990B70E06F5F7F4F0E940B1E9E
:1005C000682F60934A048BEE93E090930B05809321
:1005D0000A0588E480930C0589E394E00E94360CB8
:1005E00080912B0481508E3F70F4809129048130DA
:1005F00009F067C48EED93E090930B0580930A0594
:1006000088E480930C0580E00E94A81181E00E949C
:10061000A81182E00E94A81183E00E94A81124E1A1
:1006200034E038872F83B3E0CB2EB2E0DB2E08E72F
:1006300014E084E6E82E84E0F82E59013E872D87E9
:10064000512C44244394AD85BE8599968C919997FD
:10065000882309F4EDC04D01B0E78B0E911CF40125
:1006600080818111E5C0D7018D919C91D801ED91D8
:10067000FC91EE0FFF1FE80FF91F25913491211512
:10068000310521F5ED85FE85E05AFF4F20812223BB
:1006900029F0F80111821082FC0116C0AD85BE85DB
:1006A00099961C92999795968C918823C1F1852DE6
:1006B0000E94A811D801ED91FC91EE0FFF1FD70108
:1006C0008D919C91E80FF91F25913491ED85FE8560
:1006D000E058FF4FFE83ED838D859E858C579F4F9D
:1006E0009A838983AD85BE85A857BF4FBC83AB83F2
:1006F000ED85FE85E457FF4FFA87E9878D859E8556
:1007000080579F4F9C878B872D843E8494E9290EC8
:10071000311C6D847E84A4E76A0E711C2DC0652D8A
:1007200089E394E00E94D80B83C0C90156E09695F6
:1007300087955A95E1F78F71932F96959695969593
:1007400090514F704230A1F128F541111DC08B30FE
:1007500008F08AE0F3018083D801ED91FC911197B4
:100760003196ED93FC93EE0FFF1FD7018D919C9175
:10077000E80FF91F25913491A90156954795569593
:10078000479520FDD2CF2BC0413031F7652D0E9417
:10079000F111E2CF4330B9F04430F1F62091490431
:1007A000289F802D1124AB85BC858C93F10115C049
:1007B00020914904289F802D1124AD81BE818C9306
:1007C000E981FA810AC020914904289F802D1124D3
:1007D000AB81BC818C93E985FA859083BDCFED8593
:1007E000FE85E459FF4F4F73408380914904839FF6
:1007F000802D1124F4018083ED85FE85E055FF4FA7
:100800001082F501E855FF4F11821082ED85FE85BB
:10081000E858FF4F4082D6014C92ED85FE85E458A2
:10082000FF4F1082F801808191810196918380832E
:1008300053942D853E852F5F3F4F3E872D8732E0B5
:10084000A30EB11C8FEFC81AD80A0E5F1F4F92E09B
:10085000E90EF11CA4E05A12F6CEABEFAA2EA1E0ED
:10086000BA2EB7EFCB2EB1E0DB2E13EF612E11E0E5
:10087000712E04EC14E08CEBE82E84E0F82E9FEF50
:10088000492E91E0592EE4E1F4E0FA83E983312C1A
:10089000E981FA81E858FF4F8081882309F42EC14D
:1008A000E981FA81E059FF4F8081811106C0632DF3
:1008B00089E394E00E94D80B21C181508083D80144
:1008C0008C91E981FA81EC54FF4FFE83ED832981FD
:1008D0003A8128543F4F490181114EC0D7018D9173
:1008E0009C9101969C01220F331FEF81F885E856F9
:1008F000FF4F0190F081E02DE20FF31F45915491DD
:10090000242F2770ED81FE812083BA01E3E07695E4
:100910006795EA95E1F79B0136952795352F369532
:100920003695D4013C932F7330914904239F202D99
:100930001124F80120836170D2016C93F701918337
:100940008083E981FA81E056FF4F208130E08217F1
:10095000930790F0E981FA81EC55FF4F808188235D
:1009600031F0281B3109D7012D933C9305C0632D2D
:1009700089E394E00E94D80BF80180818150808344
:10098000E981FA81E458FF4F808121E0280F20831C
:10099000E981FA81E459FF4F4081D4013C91340F41
:1009A000E981FA81E45BFF4F8081380FE981FA81A8
:1009B00035A7E857FF4F6081662399F070E0822FDA
:1009C000022E000C990B0E940B1EE981FA81E4575C
:1009D000FF4F8081869F300D1124A981BA819D9699
:1009E0003C93E981FA8185A590E0CB966BE370E0BA
:1009F0000E940B1E85A7EC58FF4F3081A981BA8158
:100A0000D1963C93D197FD01E058FF4F608166235A
:100A1000A1F0062E000C770B822F022E000C990BF2
:100A20000E940B1EE981FA81EC57FF4F8081869F5F
:100A3000300D1124E981FA8131ABE981FA81E05767
:100A4000FF4F60816623D1F0822F220F990B70E057
:100A50000E940B1ECB0162E070E00E940B1EE98138
:100A6000FA81EC56FF4F2081A981BA81D1969C91E1
:100A7000D197289F900D1124D1969C93E981FA81FA
:100A80004F3359F081A98A300CF089E087FD80E06E
:100A9000A981BA81D1968C9301C011AAF894A98139
:100AA000BA819D96EC91F0E0ED55FC4FE491D501B3
:100AB000EC93E981FA8131A9E454FF4F2081AD81A3
:100AC000BE814C913203900111244203C001439F27
:100AD000900D112400904A0402C0880F991F0A94B7
:100AE000E2F797FF02C081589F4F880F892F881F18
:100AF000990BF6018083D3018C9378943394E98128
:100B0000FA813196FA83E983FFEFAF1ABF0A2FEF1C
:100B1000C21AD20A3FEF631A730A0F5F1F4F82E0B7
:100B2000E80EF11CAF81B8851296B887AF83BFEF8E
:100B30004B1A5B0AE4E03E12ABCE80910C05882391
:100B400009F49AC08C3020F4FCE0F81BF98301C052
:100B5000198281E08093DC041092F4041092F50471
:100B60002091D9042B83822F8D5F1981121B0DE2F6
:100B7000010FE82E880FFF08E00EF11C07FDFA9424
:100B8000802F002E000C990B8E159F054CF42EE43F
:100B9000402F63E084ED94E00E94660E0F5FF0CF7B
:100BA0003B8134503B83105D232F41E0612F80E572
:100BB0000E9444112B8142E0612F83E00E94441186
:100BC00081E08093F4048093F5040091D9041981A5
:100BD000101B8DE2810F8B832EE4482F63E084EDA0
:100BE00094E00E94660E83E0800F9B81980F9B83A8
:100BF000492F41502EE463E084ED94E00E94660E9C
:100C00000350105D202F412F60E084ED94E00E949E
:100C1000760F202F412F63E584ED94E00E94760F3C
:100C200041E0612F83E00E94C51042E0612F80E522
:100C30000E94C510AB81A450AB8344E06A2F80E5CD
:100C40000E94C51048E06B8183E00E94C51084E0DB
:100C50008093DD048091D904B981B81BB15DB09354
:100C6000DE0480910A0590910B050E94A4108091EA
:100C70000C05815080930C058091300490913104D3
:100C8000892B09F48EC081E08093F4041092F5045E
:100C90009091D80485E5891B8093DD041092DE04D1
:100CA00060912D04613009F45DC030F080912C0416
:100CB000653008F06FC06AC00DE314E019826981E5
:100CC00089E394E00E94D80BF80111928F01F98119
:100CD000FF5FF983F43099F781E08093DC04E1E26F
:100CE000F2E0E491EF5FE093D804E2E2F2E0E49115
:100CF000EF5FE093D90483E292E09093F304809352
:100D0000F20410923104109230041092DA0428EAAE
:100D100029830E947A028823E1F383E192E00E9412
:100D2000A41040912E0450912F0460E070E02AE05E
:100D300084ED94E00E9430098EEF91E00E94A410AF
:100D4000698162956F7070E084ED94E00E941410E8
:100D500083EF91E00E94A41080912904813009F072
:100D600094C01FC08091F7049091F804A091F904F9
:100D7000B091FA048F709927AA27BB270897A1057D
:100D8000B10510F467E009C068E707C0882349F09F
:100D90006B5F03C0882329F06FE284ED94E00E942A
:100DA00014090E9469108091DA0481110EC088EF45
:100DB00091E0E4E1F2E0DF019C011D92215030401E
:100DC000E1F71092DD041092DE040E946C0A609339
:100DD000010570930205809303059093040520910B
:100DE000FD043091FE04621B730B7093FC0460934E
:100DF000FB0480E06CC02FB7F894809107029091BB
:100E00000802A0910902B0910A022FBF20910505A6
:100E1000820F911DA11DB11D8093060590930705BA
:100E2000A0930805B09309058091F7049091F80408
:100E3000A091F904B091FA040196A11DB11D80930F
:100E4000F7049093F804A093F904B093FA04109275
:100E500001051092020510920305109204050E94EC
:100E60006C0A6093FD047093FE048093FF049093DA
:100E700000050E942C128091300490913104892B3E
:100E800011F00E94BC1281E022C0398131503983B7
:100E900031113FCF60E070E08FEF0E940D0A83B701
:100EA000817F846083BF83B7816083BF83B78160A4
:100EB00083BF889583B78E7F83BF83B78E7F83BFC1
:100EC00028CF893209F09FCB0E9487129CCB2E96A7
:100ED0000FB6F894DEBF0FBECDBFDF91CF911F914B
:100EE0000F91FF90EF90DF90CF90BF90AF909F90C9
:100EF0008F907F906F905F904F903F902F900895CC
:100F00002F923F925F926F927F928F929F92AF92B9
:100F1000BF92CF92DF92EF92FF920F931F93CF93E6
:100F2000DF93EC01F901E4903196849164350CF083
:100F300019C10E2C000CFF08062F062E000C110BF9
:100F4000F701E00FF11F1E161F060CF00BC1403316
:100F50000CF008C1A82FC42E042E000CDD08560189
:100F6000A80EB11C87FDBA941A141B040CF0FAC029
:100F70002E5F3F4F570197E0A90EB11CB7FE04C08A
:100F80005701BEE0AB0EB11CB3E0B594A794BA957F
:100F9000E1F747FF0AC0A42FA80FAC9CC001AD9C8D
:100FA000900D1124281B390B40E08A2F0A2E000CCB
:100FB000990B840F911D47FD9A95C19714F0A0E3FA
:100FC000A41BF8A067FD60E0E535F10514F0E4E549
:100FD000F0E09E2FCC85C427C62E062E000CDD081F
:100FE000F601E01BF10B8F014F01F7E08F229924EE
:100FF000E0E8F0E002C0F595E7958A94E2F77E2FED
:1010000017FF02C0095F1F4FF3E015950795FA958A
:10101000E1F7200F311F542F577081E001C0880F76
:101020005A95EAF7459545954595F601B4E54B0285
:10103000E00DF11D1124AF014C5E5D4FD0E02A2E72
:10104000AA0F3308EE24E394BB24ED2FF0E0E21561
:10105000F3050CF087C0F9015490F1E0FF121AC0BB
:10106000962E8A01E72F6901991608F072C08E2E1C
:10107000852021F0D8018C90882A8C92E69531F455
:10108000BFEFCB1ADB0AF6015490E0E893940F5FB0
:101090001F4FEACFF1101CC0782E7094962E8A0153
:1010A000E72F6901991608F054C08E2E852021F093
:1010B000D8018C9087208C92E69531F4BFEFCB1A43
:1010C000DB0AF6015490E0E893940F5F1F4FEACFDC
:1010D000F3E0FF1629F0962E8A01E72F690137C049
:1010E000682E6094862E8A01972E69018916D8F49D
:1010F000E92DE52159F0D801EC91782C7C2670FE81
:1011000002C0E82B02C0E621D801EC93969439F492
:10111000BFEFCB1ADB0AF6015490E0E89E2E8394D1
:101120000F5F1F4FE3CFCE2514C08E2E852021F0F8
:10113000D8018C9088268C92E69531F4BFEFCB1ABB
:10114000DB0AF6015490E0E893940F5F1F4F991665
:1011500060F3880F19F44C5A5F4F81E0DF5F2A0D6E
:101160003B1D73CFDF91CF911F910F91FF90EF90B7
:10117000DF90CF90BF90AF909F908F907F906F90B7
:101180005F903F902F900895CF92DF92EF92FF9261
:101190000F931F93CF93DF936C017A018B01C0E013
:1011A000D0E0CE15DF0581F0D8016D918D01D6011B
:1011B000ED91FC910190F081E02DC6010995892BFC
:1011C00011F02196EECF7E01C701DF91CF911F91E3
:1011D0000F91FF90EF90DF90CF90089580910302E0
:1011E000882319F08091F30101C080E090910402FE
:1011F000992319F09091F401890F90910502992398
:1012000019F09091F501890F90910602992319F038
:101210009091F601890F8093B4000895089580E0BD
:1012200090E008950E94391EDC01ED91FC9101903F
:10123000F081E02D09946115710579F0FB010190B1
:101240000020E9F73197AF01461B570BDC01ED9108
:10125000FC910280F381E02D099480E090E00895F4
:101260008F929F92AF92BF92EF92FF920F931F9334
:10127000CF93DF93CDB7DEB7A1970FB6F894DEBF5B
:101280000FBECDBF7C01FA01CB0119A2223008F4B8
:101290002AE08E010F5D1F4F822E912CA12CB12CC4
:1012A000BF01A50194010E94941CF901CA010150DB
:1012B00011096A3014F4605D01C0695CD8016C9357
:1012C000232B242B252B61F7B801C7010E941B0992
:1012D000A1960FB6F894DEBF0FBECDBFDF91CF91C0
:1012E0001F910F91FF90EF90BF90AF909F908F90C4
:1012F0000895833081F028F4813099F08230A1F094
:1013000008958730A9F08830B9F08430D1F4809105
:1013100080008F7D03C0809180008F778093800054
:10132000089584B58F7702C084B58F7D84BD0895FC
:101330008091B0008F7703C08091B0008F7D809343
:10134000B00008951F93CF93DF93282F30E0F90169
:10135000E757FB4F8491F901EB58FB4FD491F9010A
:10136000EF59FB4FC491CC23C1F0162F81110E947D
:101370007909EC2FF0E0EE0FFF1FE258FF4FA59127
:10138000B4919FB7F894111104C08C91D095D823D3
:1013900002C0EC91DE2BDC939FBFDF91CF911F91B8
:1013A0000895CF93DF9390E0FC01EB58FB4F24911D
:1013B000FC01EF59FB4F8491882361F190E0880F85
:1013C000991FFC01EC58FF4FC591D491FC01E258E4
:1013D000FF4FA591B491611109C09FB7F89488811E
:1013E000209582238883EC912E230BC0623061F418
:1013F0009FB7F8948881322F309583238883EC91AE
:101400002E2B2C939FBF06C08FB7F894E8812E2B0C
:1014100028838FBFDF91CF9108951F93CF93DF93E0
:10142000182FEB0161E00E94D109209711F460E0D0
:1014300004C0CF3FD10539F461E0812FDF91CF9116
:101440001F910C94A209E12FF0E0E757FB4FE491C4
:10145000E330F9F048F4E130B9F0E230A1F584B5B9
:10146000806284BDC8BD34C0E730E9F0E83019F1CE
:10147000E43049F580918000806280938000D093B1
:101480008B00C0938A0024C084B5806884BDC7BD2A
:101490001FC080918000806880938000D093890075
:1014A000C093880015C08091B00080688093B00020
:1014B000C093B3000DC08091B00080628093B000F3
:1014C000C093B40005C0C038D1050CF0B5CFAFCF84
:1014D000DF91CF911F9108953FB7F894809110024A
:1014E00090911102A0911202B091130226B5A89B0F
:1014F00005C02F3F19F00196A11DB11D3FBFBA2FA6
:10150000A92F982F8827820F911DA11DB11DBC0105
:10151000CD0142E0660F771F881F991F4A95D1F7CA
:1015200008958F929F92AF92BF92CF92DF92EF92E7
:10153000FF926B017C010E946C0A4B015C01C1149B
:10154000D104E104F104F1F00E946C0ADC01CB014A
:1015500088199909AA09BB09883E9340A105B105DC
:1015600070F321E0C21AD108E108F10888EE880E74
:1015700083E0981EA11CB11CC114D104E104F10444
:1015800019F7DDCFFF90EF90DF90CF90BF90AF9035
:101590009F908F9008951F920F920FB60F92112473
:1015A0002F933F938F939F93AF93BF9380910702A5
:1015B00090910802A0910902B0910A0230910F02A5
:1015C00023E0230F2D3720F40196A11DB11D05C086
:1015D00026E8230F0296A11DB11D20930F028093D0
:1015E000070290930802A0930902B0930A02809127
:1015F000100290911102A0911202B0911302019673
:10160000A11DB11D8093100290931102A0931202AC
:10161000B0931302BF91AF919F918F913F912F9102
:101620000F900FBE0F901F9018951F920F920FB63C
:101630000F9211242F933F934F935F936F937F9358
:101640008F939F93AF93BF93EF93FF936091F701B5
:10165000611102C080E023C080910B028F5F8093F4
:101660000B029091FB018917A8F39091030281E08E
:1016700089278093030210920B028091FF01882337
:1016800069F08091000193E4899F802D1124895B8A
:10169000809300010E94FF1D9093F30181E060910F
:1016A000F801662319F190910C029F5F90930C0250
:1016B0002091FC019217D0F09091040281E08927DB
:1016C0008093040210920C0280910002882369F03A
:1016D0008091000193E4899F802D1124895B809380
:1016E00000010E94FF1D9093F40181E06091F901D7
:1016F000662319F190910D029F5F90930D02209146
:10170000FD019217D0F09091050281E08927809326
:10171000050210920D0280910102882369F08091E8
:10172000000193E4899F802D1124895B809300013F
:101730000E94FF1D9093F50181E06091FA016623FC
:1017400019F190910E029F5F90930E022091FE017D
:101750009217D0F09091060281E0892780930602CB
:1017600010920E0280910202882379F0809100018C
:1017700093E4899F802D1124895B809300010E944E
:10178000FF1D9093F60101C081110E94EE08FF91A8
:10179000EF91BF91AF919F918F917F916F915F91E9
:1017A0004F913F912F910F900FBE0F901F90189562
:1017B000643030F570E09C01260F371FF901ED5AB7
:1017C000FF4F108238971082AB01440F551FFC0168
:1017D000E40FF51FED57FF4F11821082F901E95A0E
:1017E000FF4F1082FB01ED50FE4F1082FB01E950CC
:1017F000FE4F1082FB01ED5FFD4F10820C94EE084E
:101800000895EF92FF920F931F93CF93DF938C0174
:101810007B01C42FD0E0443038F4642F0E94D80BF1
:10182000F801EC0FFD1F1482FE01EE0FFF1FE00F09
:10183000F11FF4A6E3A6FF9611821082F801EC0FC7
:10184000FD1F81E08483DF01A15BBF4F89E08C93A2
:101850001C961C9218961C92E559FF4F1082DF913E
:10186000CF911F910F91FF90EF90089540E064E0B9
:1018700074E00C94010C5F926F927F928F929F9212
:10188000AF92BF92CF92DF92EF92FF920F931F938E
:10189000CF93DF93469FD001479FB00D569FB00D69
:1018A0001124FC01EF01C81BD90BCA17DB0764F434
:1018B000C081233031051CF4CC2321F09AC0C13003
:1018C00009F497C03196EECF4701C801E9017A01CA
:1018D0006B010091F7041091F804081B190B40E00C
:1018E00066E970E089E394E00E94010CC80164E1BC
:1018F00070E00E940B1E5B0125E0289F8001299F5C
:10190000100D112486E0782E95E0592ECC0FDD1FA6
:10191000CB5ADE4F0E947A02682E8823D9F3709248
:10192000DD045092DE0488EB91E00E940F1070926B
:10193000DD048091DE04885F8093DE04B60184EDCF
:1019400094E00E94141081EC91E00E940F10B70106
:1019500084ED94E00E94141080E991E00E940F1041
:10196000888199810E940F107092DD048091DE04BD
:10197000885F8093DE0483EC91E00E940F10B50134
:1019800084ED94E00E94141086EE91E00E940F1006
:10199000B80184ED94E00E9414108AEC91E00E945A
:1019A0000F107092DD048091DE04885F8093DE0466
:1019B0008DEC91E00E940F10B40184ED94E00E9440
:1019C00014107092DD048091DE04885F8093DE0441
:1019D00087ED91E00E940F1080912904813009F079
:1019E00099CF40E066E970E089E394E00E94010C41
:1019F00001C0612C862DDF91CF911F910F91FF9037
:101A0000EF90DF90CF90BF90AF909F908F907F909E
:101A10006F905F9008958F929F92AF92BF92CF92F6
:101A2000DF92EF92FF920F931F93CF93DF93EC011E
:101A30006B01CB0101974C01DA0111975D01B2E016
:101A4000EB16F1040CF060C01216130684F4069F26
:101A5000F001079FF00D169FF00D1124E20FF31F08
:101A60003197EC0FFD1F908181E089278083281535
:101A7000390584F40C9DF0010D9DF00D1C9DF00DB9
:101A80001124E20FF31F3196EC0FFD1F908181E0CE
:101A900089278083101611068CF4C80101978C9D4C
:101AA000F0018D9DF00D9C9DF00D1124E20FF31FB0
:101AB000EC0FFD1F908181E0892780830A151B05AB
:101AC0008CF4C80101968C9DF0018D9DF00D9C9DBC
:101AD000F00D1124E20FF31FEC0FFD1F908181E048
:101AE00089278083EF2809F08CC00C9DF0010D9DA3
:101AF000F00D1C9DF00D1124E20FF31FEC0FFD1FE4
:101B0000908181E089277CC0069FF001079FF00D3E
:101B1000169FF00D112412161306A4F47F01E20E95
:101B2000F31E81E0E81AF108EC0EFD1ED7018C913E
:101B3000082E000C990B019663E070E00E940B1ECA
:101B4000D7018C9328153905A4F47F01E20EF31E0A
:101B5000BFEFEB1AFB0AEC0EFD1ED7018C91082E8D
:101B6000000C990B019663E070E00E940B1ED701F8
:101B70008C9310161106CCF4C80101978C9D70014E
:101B80008D9DF00C9C9DF00C1124E20EF31EEC0ECA
:101B9000FD1ED7018C91082E000C990B019663E075
:101BA00070E00E940B1ED7018C930A151B05D4F41C
:101BB0000F5F1F4F0C9DC0010D9D900D1C9D900D42
:101BC00011248C01020F131F0C0F1D1FD8018C91C3
:101BD000082E000C990B019663E070E00E940B1E2A
:101BE000D8018C932E0F3F1FFE01E20FF31F80815F
:101BF000082E000C990B019663E070E00E940B1E0A
:101C00008083DF91CF911F910F91FF90EF90DF9034
:101C1000CF90BF90AF909F908F900895FC01643556
:101C200008F053C0403308F050C090A1742F759550
:101C300075957595262F062E000C330B542F577073
:101C40009230A1F4F90184E57802E00DF11D112430
:101C5000EC5EFD4F808190E0052E02C09595879542
:101C60000A94E2F78095982F91700AC0933041F45E
:101C700084858170462740954170841303C014C049
:101C8000911112C084E57802200D311D1124F90153
:101C9000EC5EFD4F81E090E001C0880F5A95EAF7B5
:101CA00080959081892310C084E57802200D311D34
:101CB0001124F901EC5EFD4F81E090E001C0880F36
:101CC0005A95EAF79081892B80830895EF92FF92CD
:101CD0000F931F93CF93DF938C01F62ED42FE22E18
:101CE000C0E0CE1544F46F2D6C0F4D2FC8010E943B
:101CF0000E0ECF5FF6CFDF91CF911F910F91FF9026
:101D0000EF9008952F923F924F925F926F927F9241
:101D10008F929F92AF92BF92CF92DF92EF92FF92FB
:101D20000F931F93CF93DF93EC016A3011F4288552
:101D3000C1C06D3009F4C5C0698483E586150CF413
:101D4000A3C07A848FE287150CF49EC008858C812D
:101D500090E00197089F9001099F300D1124C9015F
:101D6000860D911D67FC9A95181619060CF08CC00B
:101D70002D81872D072C000C990B029F800D911D42
:101D80001124181619060CF07FC038A0462CC62C5A
:101D9000E62EF12CA02E002E000CBB08EC2DE6192F
:101DA0000E2E000CFF0B8C8190E0E817F9070CF069
:101DB0006AC00197E817F90779F0E89E9001E99E5B
:101DC000300DF89E300D1124E20FF31F8E8D9F8D84
:101DD000E80FF91F149101C010E0D72C572C252DC6
:101DE0002719022E000C330B8D8190E0281739073C
:101DF0000CF046C010FF1DC0013031F4452D6C2D94
:101E0000CE010E940E0E38C02D2C45018D0C911C68
:101E1000D7FC9A94822D022C000C990B88159905F9
:101E20005CF5202F422D642DCE010E94660E239476
:101E3000F1CF89A198A18917F9F088A3013031F475
:101E4000452D6C2DCE010E940E0E15C02D2C450186
:101E50008D0C911CD7FC9A94822D022C000C990BAE
:101E60008815990544F4202F422D642DCE010E943F
:101E7000660E2394F1CF38A216955394D00EAFCFAF
:101E8000C394400E8BCF38A228853C818985239F3F
:101E9000800D112489879F81992399F0082E000CC9
:101EA000990B44E550E0239F40195109112448172C
:101EB00059073CF49D818A85299F800D11248A87CA
:101EC000198681E090E0DF91CF911F910F91FF90F3
:101ED000EF90DF90CF90BF90AF909F908F907F90CA
:101EE0006F905F904F903F902F900895EF92FF92E8
:101EF0000F931F93CF93DF938C01D62FF42EE22EF6
:101F0000C0E0CE1544F44F2D4C0F6D2FC8010E9438
:101F10000E0ECF5FF6CFDF91CF911F910F91FF9003
:101F2000EF9008955F926F927F928F929F92AF92FF
:101F3000BF92CF92DF92EF92FF920F931F93CF93B6
:101F4000DF935C017B014A01122FC42FCC0FCC0F11
:101F5000CC24CA94C00EDD24DA94D20E22E02C0FD9
:101F60004C2D6D2D84ED94E00E94760FDE2DDD0F5B
:101F7000DD0F22E02D0F4C2D6D2D84ED94E00E949D
:101F8000660E21E02C0F612F6D0F402F84ED94E041
:101F90000E94760F4C2F400F2D2F612F84ED94E07F
:101FA0000E94660EE501CC24DD24CA18DB08A12CB2
:101FB000B12CA814B9041CF5512E3E01C601860DA2
:101FC000971D8E159F0594F4F30121913F0146E082
:101FD0002403900111242E503C4F402F652D84ED99
:101FE00094E00E94800784E0580EE8CFEFEFAE1A2D
:101FF000BE0ACE0DDF1DCE18DF080C5FDACFDF91F1
:10200000CF911F910F91FF90EF90DF90CF90BF90F5
:10201000AF909F908F907F906F905F900895BC01DC
:1020200084ED94E00C941B09CF92DF92EF92FF9223
:102030000F931F93CF93DF936B01770FEE08FF0889
:10204000F7FE1BC0EC016DE20E9414098C014427CD
:102050005527BA014C195D096E097F092AE0CE01A6
:102060000E943009800F911FDF91CF911F910F9136
:10207000FF90EF90DF90CF9008952AE0B701A6017E
:10208000DF91CF911F910F91FF90EF90DF90CF9054
:102090000C943009CF93C82FF89460E08091E3044A
:1020A0000E94A2098091E40418161CF460E00E94CA
:1020B000A209CEBD00000DB407FEFDCF8EB5809104
:1020C000E40418161CF461E00E94A2097894CF91F0
:1020D00008950F931F93CF938091E0048F5F8093B7
:1020E000E00404E112E0C0E08C2F80640E944A10FA
:1020F00080E80E944A1061E08091E3040E94A209F6
:102100008091E40418161CF460E00E94A209F80112
:1021100084E591919EBD00000DB407FEFDCF9EB5F4
:102120008150B9F78091E40418161CF461E00E9414
:10213000A209CF5F0C5A1F4FC630B1F680E4CF9191
:102140001F910F910C944A100F931F93CF93DF931D
:102150008C01C0E0D0E0F801EC0FFD1F6491662314
:1021600071F0E091D404F091D5040190F081E02D5C
:1021700084ED94E00995892B11F02196ECCFCE01E6
:10218000DF91CF911F910F910895AF92BF92CF929F
:10219000DF92EF92FF920F931F93CF93DF93182F4D
:1021A000062FC1E0D3E08AEFD82E9EEFE92E842FD0
:1021B0008470C82E842F8270B82E842F8870A82E29
:1021C0004170F42E8C2F880F8F5FE80ECC2081F0A9
:1021D000402F4D0F612F6C0F84ED94E00E940E0E86
:1021E000402F4C0F6D2F610F84ED94E00E940E0E76
:1021F000BB2081F0402F4D1B612F6C0F84ED94E0CC
:102200000E940E0E402F4C1B6D2F610F84ED94E049
:102210000E940E0EAA2081F0402F4C0F612F6D1BE3
:1022200084ED94E00E940E0E402F4D0F612F6C1B29
:1022300084ED94E00E940E0EF1100AC0CD17CCF48C
:10224000E7FC04C0D150D394D394ED0CCF5FBACF48
:10225000402F4C1B612F6D1B84ED94E00E940E0EED
:10226000402F4D1B612F6C1B84ED94E00E940E0EDD
:10227000E5CFDF91CF911F910F91FF90EF90DF900D
:10228000CF90BF90AF9008959F92AF92BF92CF92A0
:10229000DF92EF92FF920F931F93CF93DF93F82E6D
:1022A000E62EB22E13E0120FD0E0C3E08AEFC82E64
:1022B0000EEF842F8170982EAA24A394A20E427050
:1022C000D42EDF5F812F8B19080F9920A1F02C2FBE
:1022D000220F2A0D4E2D4C1B6D2F6F0D84ED94E0B7
:1022E0000E94760F212F4E2D4D1B6C2F6F0D84ED0C
:1022F00094E00E94760FD1100AC0DC17ECF407FDC1
:1023000004C0C150C394C3940C0D1E5FDACF2C2FB0
:10231000220F2A0D4E2D4C1B6F2D6D1B84ED94E06A
:102320000E94760F212F4E2D4D1B6F2D6C1B84EDBF
:1023300094E00E94760FE1CFDF91CF911F910F9132
:10234000FF90EF90DF90CF90BF90AF909F90089557
:10235000CF93DF93A82FB0E0ED01CC5EDB4F9DA1C2
:10236000992309F43BC099A5911138C0FE01E05CA6
:10237000FF4F9081AA0FBB1FAC5EBB4FD8963C911C
:10238000D897D9962C91D997E32FF22FE90FF11D09
:10239000E90FF11D259134912F3F9FEF390711F47B
:1023A0001DA21CC0FE01E45BFF4F30835F96332704
:1023B000220F331F9596ED91FC919697E20FF31F34
:1023C00065917491843028F4482F89E394E00E9449
:1023D000010CC05CDF4F88818F5F8883DF91CF91D4
:1023E000089570E09B01220F331F2C5E3B4FF901D3
:1023F000F39645A196A1E42FF92FE80FF11DE80F00
:10240000F11D45915491F901ED58FF4F56A345A395
:10241000FA018591949190914904989F802D1124FF
:102420006C5E7B4FFB01E056FF4F8083FA01A59164
:10243000B4912B2F30E0E82FF0E02E173F0720F467
:10244000FA0125913491832FFB01EC55FF4F989FA2
:10245000802D112480830895DF92EF92FF920F93D5
:102460001F93CF93DF93C4E1D4E00BE114E0EE249B
:10247000EA9462E08A850E94D1092A8530E0F90158
:10248000E757FB4F8491F901EB58FB4FF490F901AA
:10249000EF59FB4FD490DD2071F081110E94790932
:1024A000ED2DF0E0EE0FFF1FE95AFB4FA591B4911F
:1024B000EC91FE2299F489898F5F898B60E08A858F
:1024C0000E94D10921960C171D0799F6DF91CF9133
:1024D0001F910F91FF90EF90DF90089589898823D5
:1024E00089F38F3F11F4198AE9CFE98AE7CFCF93B7
:1024F000DF930E94A410EC0168EE71E084ED94E09B
:102500000E941B098C0F9D1FDF91CF91089588EFCA
:1025100091E0E4E1F2E0DF019C011D9221503040A6
:10252000E1F71092DD041092DE048FE294E00E9445
:10253000A4100E9469108CB583608CBD8DB58E7F10
:102540008DBD8BEE91E0EEEFFFE309951092DA047A
:102550008AE094E00E9477120E9469100E942C1277
:1025600080912904813039F062E370E080E090E0EE
:102570000E94910AF3CF0895CF93C09138048C2F15
:102580008F71E1F583E480937C0080917A00806410
:1025900080937A0080917A0086FDFCCF609178006C
:1025A0008091790070E0782B072E000C880B990B36
:1025B0000E94F61C26EE3FE34EEC50E40E945A1DAA
:1025C0000E94C51C9B0170932F0460932E04672BFF
:1025D00091F084E080932D04E0E3F4E080E0419109
:1025E00051912417350718F480932D040AC08F5F8A
:1025F0008430A9F703C08FEF80932D04CF5FC09381
:102600003804CF910895CF93DF93CDB7DEB7EA9723
:102610000FB6F894DEBF0FBECDBF789484B582604C
:1026200084BD84B5816084BD85B5826085BD85B576
:10263000816085BD80916E00816080936E001092F4
:10264000810080918100826080938100809181006F
:102650008160809381008091800081608093800000
:102660008091B10084608093B1008091B00081605E
:102670008093B00080917A00846080937A0080918A
:102680007A00826080937A0080917A0081608093E2
:102690007A0080917A00806880937A001092C1005D
:1026A00082E38093050581E090E0A0E0B0E08093B4
:1026B000010590930205A0930305B09304058FEFE5
:1026C0008093F604E0E8F7E7259134912130304C0F
:1026D00009F049C0E6E9F7E7E491E093DF04E7E9B0
:1026E000F7E7E491E0931804E8E9F7E7E491E09371
:1026F0001904E9E9F7E78591949190931B0480937D
:102700001A04EBE9F7E78591949190931D04809367
:102710001C0487E080934B04EEE9F7E7E491E09333
:102720004A04EFE9F7E7E491E093F604E0EAF7E71B
:10273000859194919093310480933004E2EAF7E715
:10274000859194919093330480933204E4EAF7E7FF
:10275000859194919093350480933404E6EAF7E7E9
:10276000859194912CC09CE39093DF0410921804FF
:102770008093190480E293E090931B0480931A04E1
:1027800084ED93E090931D0480931C0487E0809374
:102790004B0480934A048CEA9DE09093310480932B
:1027A00030048EED9DE0909333048093320484E7EF
:1027B0009EE090933504809334048CE39FE09093E3
:1027C0003704809336046FEF70E08FEF0E940D0A9C
:1027D00088E080931E0489E080931F0487E0809343
:1027E000200486E08093210414E01093220482E008
:1027F0008093230485E0809324040E942C128CE3B0
:102800009FE090932F0480932E0410932D0481E079
:10281000809338049BE09093E2049DE09093E10460
:1028200090E19093E3049EE09093E5049FE0909301
:10283000E4048093DC048093F4041092F504809304
:10284000DB04E1E2F2E0E491EF5FE093D804E2E23E
:10285000F2E0E491EF5FE093D90483E292E0909399
:10286000F3048093F2041FB7F8948091F201811170
:1028700027C0EBE6F4E08491EFE7F4E09491E82FD1
:10288000F0E0EE0FFF1FEC58FF4FA591B491EC91D3
:10289000E92321F461E08AE00E94A20961E08AE074
:1028A0000E94D1098CB580618CBD8CB580648CBDD3
:1028B00061E08DE00E94D10961E08BE00E94D109C6
:1028C0008091F2018F5F8093F2011FBF8CB58F7DE5
:1028D0008CBD8CB58C7F81608CBD8DB581608DBDCC
:1028E0008CB58C608CBD61E08091E2040E94D109BE
:1028F00061E08091E1040E94D10961E08091E304EC
:102900000E94D1098091E50418161CF461E00E9430
:10291000D1098091E40418161CF461E00E94D109E9
:102920008091E504181674F460E00E94A2096AE040
:1029300070E080E090E00E94910A61E08091E504FF
:102940000E94A2098091E104082E000C990BFC0161
:10295000EF59FB4FE491F0E0EE0FFF1FE258FF4FFD
:10296000259134913093E9042093E804FC01EB585D
:10297000FB4FE491E093EF048091E204082E000CF9
:10298000990BFC01EF59FB4FE491F0E0EE0FFF1FB4
:10299000E258FF4F259134913093E7042093E604E9
:1029A000FC01EB58FB4FE491E093EE048091E404CA
:1029B000082E000C990BFC01EF59FB4FE491F0E05D
:1029C000EE0FFF1FE258FF4F259134913093EB0437
:1029D0002093EA04FC01EB58FB4FE491E093F004F0
:1029E0008091E304082E000C990BFC01EF59FB4F7A
:1029F000E491F0E0EE0FFF1FE258FF4F2591349174
:102A00003093ED042093EC04FC01EB58FB4FE49170
:102A1000E093F10481E20E944A1084E10E944A108E
:102A20008091DF0487FF03C08FE78093DF048091EC
:102A3000DF0480680E944A1080E20E944A108CE005
:102A40000E944A100E94691081E080934904B0ED11
:102A5000AB2EB4E0BB2E1CE6C12E14E0D12E10E04C
:102A600001E080E7882E80E0982ED5010D935D016E
:102A7000F601819291926F01612F80E00E94F11125
:102A80001F5F143091F761E070E083E00E940D0A4F
:102A90008091B100887F81608093B100F89410929A
:102AA000800010928100109285001092840088E1CD
:102AB00091E09093890080938800809181008860E4
:102AC000809381008091810081608093810080915A
:102AD0006F00826080936F007894809130049091B1
:102AE0003104892B11F00E94BC1280912A0481309C
:102AF00009F0D8C210924A0480902E0490902F04BE
:102B000080949094A12CB12C0E946C0A2B013C0162
:102B10000E946C0AA3019201209530954095509532
:102B200060957095809590950E94EF1D9B01AC017A
:102B3000C501B4010E94EF1D4B015C0160911504B9
:102B4000709116042B01612C712C0E946C0ADC011F
:102B5000CB01840D951DA61DB71DBC01CD01680DCF
:102B6000791D8A1D9B1D611571058105910511F067
:102B70000E94591C2DB73EB738AB2FA78CEF90E0C1
:102B80000E949F1A6C01FC0182589F4F21E0219303
:102B90008E179F07E1F74BE051E0F601E951FF4F37
:102BA00061E07C0120E030E08A01020F131FD801B0
:102BB0007C91D7017D937D012F5F3F4F2E303105F2
:102BC00099F7DC011E9620E030E06D932F5F3F4FB8
:102BD00027303105D1F74596425F5F4F8E179F072B
:102BE00001F7C60184509F4F21E021938E179F0764
:102BF000E1F7FE013196FCA7EBA71E01F5E12F0ED0
:102C0000311C3AA629A60E940B1C2EE030E040E0C1
:102C100050E00E94621C2B013C010E940B1C27E02B
:102C200030E040E050E00E94621C4B015C0125E076
:102C3000820E911CA11CB11CE12CF12C840192018B
:102C40004CE050E065E170E0C6010E940B0DABA5C1
:102C5000BCA54D925D92BCA7ABA7F1018192919268
:102C60001F0129A53AA5A217B30769F6812C912C5B
:102C7000A12CB12C3AE0A316B1041CF0A12CB12C6C
:102C80004CC00E947A028823A9F300E010E020E003
:102C900030E04CE050E065E170E0C6010E94920F28
:102CA000C4010196A3E08A169104FCF0F501EE0F31
:102CB000FF1F21E030E02C0F3D1FE20FF31F0489BE
:102CC000158920813181E12CF12C4CE050E065E147
:102CD00070E0C6010E940B0D89E394E00E94360C5F
:102CE0003FEFA31AB30A80E090E02091290421303D
:102CF00029F24C01BFCF0E947A02882371F000E0D4
:102D000010E020E030E04CE050E065E170E0C6010A
:102D10000E94920F9FEFA91AB90A83E0A816B10486
:102D200051F7C6010E94371B0FB6F894DEBF0FBEE5
:102D3000CDBF8091F604882309F4C7C081E0809359
:102D4000DC041092DB041092DA0410922C048093BD
:102D5000F4048093F5040AED11E07CE0F72E0E9464
:102D60007A028823E1F3F8018491882319F0D09046
:102D7000D90401C0D12C22EB30E040E060E084EDCA
:102D800094E00E9480074CE04D0D22E231E060E0CB
:102D900084ED94E00E9480071092DD04F092DE043E
:102DA0008AED91E00E94A4108091D804982F990F89
:102DB000890F81958D5A8093DD048091D904982FD5
:102DC000990F890F8195835D8093DE048091F704CC
:102DD00084FF03C08EEA90E002C08AEA90E00E947D
:102DE00077128091D804982F990F890F81958D5A69
:102DF0008093DD048091DE048F5F8093DE048091F8
:102E00004A04882319F086EA90E002C082EA90E042
:102E10000E9477128091D804982F990F890F81957D
:102E20008D5A8093DD048091DE048F5F8093DE04F1
:102E30008EE990E00E94771280912A048130B1F4EB
:102E400080914A048F5F60914B0487FD09C0082E72
:102E5000000C990B70E06F5F7F4F0E940B1E682F74
:102E600060934A0489E394E00E94360C809129041F
:102E70008130B9F08091F604482F50E060E070E0B6
:102E80008090F7049090F804A090F904B090FA04B0
:102E900084169506A606B70608F421C18F3F09F4EB
:102EA0001EC18FEF8093F60460E089E394E00E94F6
:102EB000D80B10923D0440E066E970E089E394E0AD
:102EC0000E94010C81E080932C04F1E0FFA7809127
:102ED0004A04811101C01FA61CA61BA6212C312C5F
:102EE00055E0C52ED12C65E0462E512C0E947A0269
:102EF0008823E1F3A22CAA0CAA0CAA0C27E0822EAC
:102F00008A0C49E04A0D66E084ED94E00E940E0EC2
:102F100045E04A0D66E084ED94E00E940E0E482DD7
:102F200068E084ED94E00E940E0E482D64E084ED8C
:102F300094E00E940E0EB12C12E03CEF632E992417
:102F40009A9446E0E42E0B2DB3948B2D880F8F5F5F
:102F5000980E27E0200F2DA7782C710E472D622F99
:102F600084ED94E00E940E0EFE2CFB18472D6F2D71
:102F700084ED94E00E940E0E782C711A472D6DA5F9
:102F800084ED94E00E940E0E472D6F2D84ED94E0A9
:102F90000E940E0E085F0A0D402F86E0F82EF10EFB
:102FA0006F2D84ED94E00E940E0E402F0E2D011B1C
:102FB000602F84ED94E00E940E0E97E0792E7B182E
:102FC0007A0C472D6F2D84ED94E00E940E0E472D54
:102FD000602F84ED94E00E940E0EB1164CF497FC25
:102FE00005C0115063946394960CADCF12E0ABCF43
:102FF0001CE01093DD0485E08093DE0489E691E017
:103000000E940F101093DD048091DE04885F80938E
:10301000DE048EE691E00E940F10B20184ED94E090
:103020000E9414101093DD048091DE04885F809369
:10303000DE0487E791E00E940F10B60184ED94E072
:103040000E9414101093DD048091DE04885F809349
:10305000DE0480E891E00E940F10EBA5FCA5EE0FC6
:10306000FF1FEB5AFE4F808191810E940F10109339
:10307000DD048091DE04885F8093DE0489E891E0BE
:103080000E940F103FA5E32FF0E0EE0FFF1FEF5A55
:10309000FE4F808191810E940F1080912904813020
:1030A00031F52FC040E068E870E089E394E00E94C9
:1030B000010C41E068E870E089E394E00E94010CB3
:1030C00042E068E870E089E394E00E94010C43E08C
:1030D00068E870E089E394E00E94010C0DCD8091D6
:1030E0002B04813009F03BCE0E94871238CE8091AC
:1030F00025048F3F09F475C18370813009F071C1D7
:1031000078C189E394E00E94360C2114310409F05F
:10311000D6C085E190E084199509DC01AA0FBB1F98
:10312000BAABA9AB8CE090E08C199D09FC01EE0FC5
:10313000FF1FFCABEBAB4C9C40014D9C900C5C9C8E
:10314000900C1124C4010E949F1A5C01FC01CF0164
:103150008A199B098815990514F41192F8CF2BA5AB
:103160003CA52330310519F0812C912C39C0850103
:10317000C8018A199B0988159905B4F70E940B1C90
:1031800023E030E040E050E00E94621C61307105B5
:103190008105910519F4E2E0D801EC930F5F1F4F10
:1031A000E7CF0E940B1C23E030E040E050E00E949B
:1031B000621C613071058105910549F4EBA4FCA402
:1031C00084019301A601B201C5010E940B0DFFEF1E
:1031D0006F1A7F0A6414750424F32FEF821A920A7F
:1031E0008C149D041CF4612C712CF4CF8091F70495
:1031F0009091F8049EAB8DABE12CF12C8C012BA5AA
:103200003CA5A601B201C5010E943B0C882321F018
:10321000C5010E94371B6ACE94E14916510434F06F
:10322000ABE0CA16D10414F010922C041EA61DA601
:10323000812C912C612C712CF2013197F8AFEFABFE
:103240009601215031093AAF29AF0E947A028823B2
:10325000E1F30BA91CA929A93AA9A601B201C5014C
:103260000E94920F182D110F110F3BA9130F062D5D
:10327000000F000F89A9080F412F602F84ED94E003
:103280000E940E0E53E0F52EF00E412F6F2D84EDAF
:1032900094E00E940E0E1D5F412F602F84ED94E09C
:1032A0000E940E0E412F6F2D84ED94E00E940E0EB1
:1032B00080912A048130E9F4812C912CC6CFE4E07E
:1032C0002E16310409F012CE3FA531110EC06091C7
:1032D0004B0470E06F5F7F4F87E090E00E940B1E11
:1032E00080934A0481E08FA701CE10924A041FA662
:1032F000FDCD80912904813041F5EBA4FCA484012B
:103300009301A601B201C5010E940B0D2DA53EA59A
:103310002F5F3F4F3EA72DA789E394E00E94360C14
:10332000EDA4FEA40DA91EA92BA53CA5A601B201E2
:10333000C5010E943B0C882309F487CFC5010E9478
:10334000371B81E080932C04D1CD809126048130FD
:1033500061F4181419042CF0460191E0891A9108BF
:1033600074CFA1E08A1A910870CF8091280481302F
:1033700051F489AD9AAD881699060CF09DCFBFEF38
:103380008B1A9B0A62CF80912504813029F08091AD
:1033900027048130C9F40CC0161417042CF0320134
:1033A000E1E06E1A710851CFF1E06F1A71084DCF4C
:1033B000AFA9B8AD6A167B0624F42FEF621A720A21
:1033C00044CF612C712C41CF80912B04813009F0C6
:1033D0003CCF40E06BEE71E089E394E00E94010C89
:1033E000ADCF809127048F3FE1F183708130C9F523
:1033F0003EC0B2E02B16310461F4B1E0CB16D1042B
:1034000021F0E1E0CE1AD10814C03CE0C32ED12C4B
:1034100010C0E3E02E16310489F0F1E02F163104DC
:1034200009F064CD91E049165104B9F0A1E04A1ABF
:10343000510889E394E00E94360C58CD2BA53CA599
:103440002115310529F0215031093CA72BA7F1CFD7
:1034500083E090E09CA78BA7ECCF45E1442E512C54
:10346000E8CF80912604813009F043C033C022E0C8
:103470002216310471F4C60101966DE070E00E94DD
:103480000B1E6C0118161906A4F2CC24C394D12C7F
:10349000D0CF33E02316310449F48BA59CA50196C7
:1034A000DC01A370BB27BCA7ABA7C3CF81E0281664
:1034B000310409F01BCDC201019666E170E00E9463
:1034C0000B1E2C01181619060CF4B3CF4424439498
:1034D000512CAFCF89E394E00E94360C21143104C3
:1034E00021F0B1E02B1A310801CD84E0282E312CD7
:1034F000FDCC80912804813061F489E394E00E943E
:10350000360CC101019665E070E00E940B1E1C01A3
:10351000EDCC80912B04813009F0E8CC0E94871219
:10352000E5CCE4E1F4E089EFDF011D928A95E9F74B
:1035300081E691E09093D5048093D40408950F938D
:103540001F93CF93DF938230910510F482E090E0D7
:10355000E0910F05F091100520E030E0A0E0B0E030
:10356000309719F140815181028113814817590721
:10357000C8F08417950769F4109731F012960C93F0
:10358000129713961C9327C000930F0510931005F4
:1035900022C02115310519F04217530718F49A017A
:1035A000BD01EF01DF01F801DBCF21153105F9F095
:1035B000281B390B2430310580F48A819B816115E9
:1035C000710521F0FB019383828304C09093100561
:1035D00080930F05FE01329644C0FE01E20FF31FF7
:1035E0008193919322503109398328833AC02091E5
:1035F0000D0530910E05232B41F4209103013091EC
:10360000040130930E0520930D05209101013091A6
:1036100002012115310541F42DB73EB74091050156
:1036200050910601241B350BE0910D05F0910E051C
:10363000E217F307A0F42E1B3F0B2817390778F089
:10364000AC014E5F5F4F2417350748F04E0F5F1FE8
:1036500050930E0540930D058193919302C0E0E0D5
:10366000F0E0CF01DF91CF911F910F910895CF939B
:10367000DF93009709F481C0FC0132971382128214
:10368000A0910F05B0911005109781F42081318130
:10369000820F931F20910D0530910E0528173907D1
:1036A00051F5F0930E05E0930D0567C0ED0120E0A4
:1036B00030E0CE17DF0740F44A815B819E0141155F
:1036C0005105F1F0EA01F5CFD383C28340815181E6
:1036D000840F951FC817D90759F488819981840FE1
:1036E000951F0296918380838A819B819383828335
:1036F0002115310529F4F0931005E0930F053DC025
:10370000E901FB83EA8349915991C40FD51FEC1756
:10371000FD0761F480819181840F951F0296E90174
:1037200099838883828193819B838A83E0E0F0E0A0
:1037300012968D919C911397009719F0FD01DC0171
:10374000F7CF8D919C9111979D012E5F3F4F820F76
:10375000931F20910D0530910E052817390769F444
:10376000309729F41092100510920F0502C01382B1
:103770001282B0930E05A0930D05DF91CF910895AD
:103780008F929F92AF92BF92CF92DF92EF92FF9271
:10379000CF93DF93EC01688179818A819B816115E8
:1037A00071058105910521F464E279ED8BE597E0DF
:1037B0002DE133EF41E050E00E94621C49015A01C3
:1037C0009B01AC01A7EAB1E40E94811C6B017C0162
:1037D000ACEEB4EFA50194010E948F1CDC01CB017B
:1037E0008C0D9D1DAE1DBF1DB7FF03C00197A10924
:1037F000B04888839983AA83BB83BC01CD019F779E
:10380000DF91CF91FF90EF90DF90CF90BF90AF907E
:103810009F908F9008958F929F92AF92BF92CF9278
:10382000DF92EF92FF926091070170910801809101
:10383000090190910A01611571058105910521F435
:1038400064E279ED8BE597E02DE133EF41E050E064
:103850000E94621C49015A019B01AC01A7EAB1E434
:103860000E94811C6B017C01ACEEB4EFA5019401B8
:103870000E948F1CDC01CB018C0D9D1DAE1DBF1D58
:10388000B7FF03C00197A109B04880930701909347
:103890000801A0930901B0930A01BC01CD019F77F3
:1038A000FF90EF90DF90CF90BF90AF909F908F9060
:1038B0000895609307017093080180930901909324
:1038C0000A010895052E97FB1EF400940E94791CAE
:1038D00057FD07D00E94941C07FC03D04EF40C94B3
:1038E000791C50954095309521953F4F4F4F5F4F34
:1038F000089590958095709561957F4F8F4F9F4F5C
:1039000008950E94B61CA59F900DB49F900DA49F92
:10391000800D911D11240895B7FF0C94811C0E9405
:10392000811C821B930B0895A1E21A2EAA1BBB1BBC
:10393000FD010DC0AA1FBB1FEE1FFF1FA217B3077B
:10394000E407F50720F0A21BB30BE40BF50B661F91
:10395000771F881F991F1A9469F760957095809555
:1039600090959B01AC01BD01CF010895A29FB001CC
:10397000B39FC001A39F700D811D1124911DB29FA3
:10398000700D811D1124911D08950E94391D88F02C
:103990009F5798F0B92F9927B751B0F0E1F0660F13
:1039A000771F881F991F1AF0BA95C9F714C0B13054
:1039B00091F00E94531DB1E008950C94531D672FA0
:1039C000782F8827B85F39F0B93FCCF38695779583
:1039D0006795B395D9F73EF490958095709561956C
:1039E0007F4F8F4F9F4F0895E89409C097FB3EF497
:1039F00090958095709561957F4F8F4F9F4F99233C
:103A0000A9F0F92F96E9BB279395F69587957795B9
:103A10006795B795F111F8CFFAF4BB0F11F460FF79
:103A20001BC06F5F7F4F8F4F9F4F16C0882311F0D1
:103A300096E911C0772321F09EE8872F762F05C0E5
:103A4000662371F096E8862F70E060E02AF09A9580
:103A5000660F771F881FDAF7880F9695879597F975
:103A6000089557FD9058440F551F59F05F3F71F06E
:103A70004795880F97FB991F61F09F3F79F08795D5
:103A80000895121613061406551FF2CF4695F1DF5E
:103A900008C0161617061806991FF1CF86957105EE
:103AA000610508940895E894BB2766277727CB0122
:103AB00097F908950E946D1D0C94DE1D0E94D01D83
:103AC00038F00E94D71D20F0952311F00C94C71DEB
:103AD0000C94CD1D11240C94541D0E94311D70F3C3
:103AE000959FC1F3950F50E0551F629FF001729FA3
:103AF000BB27F00DB11D639FAA27F00DB11DAA1FB2
:103B0000649F6627B00DA11D661F829F2227B00DFE
:103B1000A11D621F739FB00DA11D621F839FA00D89
:103B2000611D221F749F3327A00D611D231F849FD9
:103B3000600D211D822F762F6A2F11249F57504030
:103B40009AF0F1F088234AF0EE0FFF1FBB1F661FAB
:103B5000771F881F91505040A9F79E3F510580F074
:103B60000C94C71D0C94541D5F3FE4F3983ED4F3AE
:103B7000869577956795B795F795E7959F5FC1F718
:103B8000FE2B880F911D9695879597F9089597F9C3
:103B90009F6780E870E060E008959FEF80EC0895F3
:103BA00000240A941616170618060906089500241C
:103BB0000A9412161306140605060895092E039496
:103BC000000C11F4882352F0BB0F40F4BF2B11F40A
:103BD00060FF04C06F5F7F4F8F4F9F4F0895DB01E1
:103BE0008F939F930E94811CBF91AF91A29F800DE4
:103BF000911DA39F900DB29F900D11240895991BC4
:103C000079E004C0991F961708F0961B881F7A95D3
:103C1000C9F78095089597FB072E16F4009407D0F6
:103C200077FD09D00E941F1E07FC05D03EF4909539
:103C300081959F4F0895709561957F4F0895AA1BB8
:103C4000BB1B51E107C0AA1FBB1FA617B70710F087
:103C5000A61BB70B881F991F5A95A9F780959095B9
:103C6000BC01CD010895EE0FFF1F0590F491E02DEA
:103C7000099481E090E0F8940C943E1EF894FFCFF4
:103C80000100001105800001000000010100000199
:103C9000010001010100010100010001010001001A
:103CA000010001000100010101000000010000000D
:103CB00001000001010101010100010101000100F9
:103CC00001000101010000010101010001000101E9
:103CD00000920196019901A101A601AF0100000027
:103CE00000820EC4080F090E09506C6179005769F3
:103CF0006474683A2020004865696768743A200057
:103D000052756C65733A202000536F756E643A20CB
:103D100020004F6666004F6E00436C6173736963E9
:103D200000416C742E0054687265657761790053A8
:103D300075706572506F7300596F7520776F6E21C3
:103D400000780054696D653A2000207300546F6755
:103D5000676C65733A20005072657373204120745C
:103D60006F20657869742E000D0A004C4F41444560
:023D70005200FF
:00000001FF
