:100000000C940D050C9435050C9435050C943505B0
:100010000C9435050C9435050C9435050C94350578
:100020000C9435050C9435050C9435050C94440856
:100030000C9435050C9435050C9435050C94350558
:100040000C94BE070C9435050C9435050C943505BD
:100050000C9435050C9435050C9435050C94350538
:100060000C9435050C9435050101FF030101F703DC
:100070006C00680000000000240027002A00000037
:100080000000250028002B000500893008023802F6
:1000900049786814000020202020596F646127737C
:1000A00000596F6461277300050570F858F8A805BA
:1000B0000570F858F850050570F8D0F8A8050570D7
:1000C000F8D0F850050570A8F8F8A8050570A8F84C
:1000D000F850050570F8A8F8A8050570F8A8F850BC
:1000E000050570F8F8F8A8050500000000000505F2
:1000F00000505000000505000000000020202020D6
:10010000596F64612773001605EE4CA4A8EAACCEC3
:10011000AAE8A8EA40AEAC48050570F8C0F870053A
:100120000570F8F8F870050570F8C0F870050570EE
:10013000E0C0E070050570F8D8D850050570F8F8F3
:10014000F870050570F8D8D850050570F8D8880003
:10015000050570F818F870050570F8F8F8700505D1
:1001600070F818F87005057038183870050550D803
:10017000D8F870050570F8F8F870050550D8D8F86B
:100180007005050088D8F8700505000088F870052E
:10019000050000207070050500000020200505887E
:1001A0005000508805053848D0F858050570B0E86B
:1001B000702005051870F8D870050550F8F8E8505B
:1001C0000505F870B8E8700505A8F8D87020050591
:1001D0002050B8B870050570F85050705463000096
:1001E000000000000000000000000000000000000F
:1001F000000000007FFFFFFFFFFFFFFFFFFFE08029
:10020000000000000000000000103FFFFFFFFF0F94
:10021000FFFFFFFFC0400000000090000000002032
:10022000400000000090000000002040000000009E
:10023000900000000020400000000090000000003E
:1002400020400000000090000000002040FF01FF5F
:10025000C0903FF80FF02041008200209040041031
:1002600008204100820020904004100820410082B4
:10027000002090400410082041008200209040049B
:10028000100820410082002090400410082040FF08
:1002900001FFC0603FF80FF02040000000000000A8
:1002A000000000204000000000000000000020408E
:1002B00000000000000000000020400000000000DE
:1002C00000000000204000000000000000000020AE
:1002D00040FF0180FFFFF0180FF020410082410035
:1002E0000008241008204100824100000824100862
:1002F0002040FF0240FF0FF0240FF020400002409A
:1003000000900024000020400002400090002400E3
:100310000020400002400090002400002040000225
:100320004000900024000020400002400090002483
:100330000000203FFF023FC0903FC40FFFC080007D
:100340008200209040041000107FFE820020904028
:100350000417FFE00002823FC0603FC414000000A9
:1003600002824000000024140000000282400000CD
:100370000024140000000282400000002414000049
:1003800000028240000000241400000002824000AD
:1003900000002414000000028241FC03F824140031
:1003A00000FFFE824105FA082417FFF00000824199
:1003B0007C03E824100000FFFF0181400028180F93
:1003C000FFF00000000140002800000000000000D5
:1003D000014000280000000000000001400028004B
:1003E00000000000000001400028000000000000A4
:1003F000000140002800000000FFFF0181400028AC
:10040000180FFFF0000082417FFFE824100000FF7A
:10041000FE82410000082417FFF000028241FFFF26
:10042000F8241400000002824000000024140000A0
:1004300000028240000000241400000002824000FC
:100440000000241400000002824000000024140078
:1004500000000282400000002414000000028240DC
:10046000FFFFF0241400007FFE82410000082417E3
:10047000FFE080008241000008241000103FFF01CF
:1004800080FF0FF0180FFFC0400000000090000038
:10049000000020400000000090000000002040000C
:1004A00000000090000000002040000000009000CC
:1004B00000000020400000000090000000002040EC
:1004C000FF01FFC0903FF80FF02041008200209014
:1004D00040041008204100820020904004100820B1
:1004E00040FC81FFC0603FF813F020400480000012
:1004F00000000012002040048000000000001200F4
:100500002040048000000000001200204004800011
:1005100000000000120020400480000000000012D3
:1005200000203E048180FFFFF0181207C001048202
:100530004100000824120800010482410000082440
:100540001208003E030240FF0FF0240C07C04000D9
:100550000240009000240000204000024000900073
:1005600024000020400002400090002400002040B1
:100570000002400090002400002040000240009053
:10058000002400002040FFFC3FC0903FC3FFF0204C
:1005900041000000209040000008204100000020A1
:1005A00090400000082040FFFFFFC0603FFFFFF0C9
:1005B000204000000000000000000020400000007B
:1005C00000000000000020400000000000000000CB
:1005D000002040000000000000000000204000005B
:1005E00000000000000000203FFFFFFFFFFFFFFFB3
:1005F000FFFFC080000000000000000000107FFF2F
:10060000FFFFFFFFFFFFFFFFE00000000000000012
:100610000000000000000000000000000000000AD0
:100620000A153A49676E6F7265006D560A0A504C9A
:1006300045415345205455524E204F464620004CCC
:100640004F57204241545445525921200003053F41
:10065000213F1208120A100A0E1C0E0C1E0C141A4E
:1006600014161F161E131E1E1B1E1E1F1E3F213F8B
:100670003A2F3A173D173F213F181F02040A041F63
:100680000E04040E1F0A1F0A0E0E1F04110E2E2543
:100690002E2F2A2E262929021F02081F08150E04B4
:1006A000040E150E15151B151B040604040C04007E
:1006B00000000017000300031F0A1F16371A190451
:1006C000130A153A000300000E11110E000A040A65
:1006D000040E040030000404040010001804031F7A
:1006E000111F121F101D151711151F07041F1715B5
:1006F0001D1F151D01011F1F151F17151F000A00C3
:10070000003200040A110A0A0A110A040115020E35
:1007100011171E051E1F150A0E110A1F110E1F1597
:10072000111F05010E111D1F041F111F1108100FAD
:100730001F041B1F10101F061F1E040F0E110E1F7B
:1007400009060E112E1F051A121509011F011F108F
:100750001F0F180F1F0C1F1B041B031C031915135D
:10076000001F11030418111F0002010220202000A5
:1007700001020C121E1F120C0C12120C121F0C1A6A
:1007800014041E05242A1E1F021C141D1020201DE7
:100790001F0814111F101E041E1E021C0C120C3EFA
:1007A0000A040C123E1E040214160A020F120E1046
:1007B0001E0E100E1E081E120C1226281E322A268D
:1007C000041E21001F00211E040102013F213FF6EB
:1007D000E8DBCFC3B8AEA49B928A827B746E68625A
:1007E0005C57524E4945413E3A3734312E2C292729
:1007F0002523211F1D1C1A19171615141312111069
:100800000F0E0D0C0B0A09080706450068010000D1
:10081000172B152010204C4F4144455200172B1622
:10082000201314000A4E6F20534420636172642029
:100830006F720A6E6F204C4F414445522E48455806
:100840000A0A153A45786974001D20466C61736880
:10085000696E670A20206C6F616465722E2E2E0A05
:100860000A444F4E2754205455524E204F4646219D
:1008700000000000002300260029000404040404F2
:10088000040404020202020202030303030303013D
:100890000204081020408001020408102001020414
:1008A00008102000000008000201000003040700F7
:1008B0000000000000000005003801680100004051
:1008C0001AFFFFFFFFFFFFFFFF0000000000000016
:1008D00000FF0403E10040810FFF8407F180C08125
:1008E0008FFF8E0FF9C1C1C1CFF7CE0FF9E3C1C1A0
:1008F000EFFFDF1FFDF7C3E1FFFF5F1FFDFFC3E158
:10090000FFFE9F1FF5FF43E1FDE1BF9F75FF47F12C
:10091000FDEF3B9FF5FF4771FDE87F5FF5FF4FE976
:10092000FDE87F5FF5FF4FE9FDE87F5FF5FF4FE9E9
:10093000FDE8FFAFE9FF5FF5FDE8FFAFD1FF5FF531
:10094000FDC8FF2629FE5FE5F9F8FFE3DDFFDFFDC7
:10095000FF0000000000000000FFFFFFFFFFFFFF9F
:10096000FF0000000000000000A6C66AECE66E660C
:10097000CEAAAA8A4A8AAA8AA8AAAEEA4ACAEC8E4B
:10098000AC4AAA2A4A8AAA8AA84ECAE4ECEEAAEA83
:10099000CE175344001613780016131400151020B8
:1009A0000015201000540A03E181867F3E186D83F4
:1009B0000F0F0E0183866033186DC3198F1803C3A0
:1009C0008E6033186DE330CF1803C39E603630CD90
:1009D000E360CF3006C79E7E3E30CDB360CF300C93
:1009E000C6F6603330D9B660CF33CFCCF66061B095
:1009F000DB1E60CF30D86CE6C061B0DB1E618F19A2
:100A0000986CC6C063B19B0E330F0FB078C6FF7EE3
:100A10001F1B061E0F0098238C2311241FBECFEF2F
:100A2000D8E0DEBFCDBF13E0A0E0B1E0EAE1F2E53F
:100A300002C005900D92A635B107D9F727E0A6E5CB
:100A4000B3E001C01D92AB38B207E1F715E0CCE08E
:100A5000D5E004C02197FE010E941628CB30D107B3
:100A6000C9F70E942D150C9400290C940000CF9218
:100A7000DF92EF92FF920F931F93CF93DF936C015E
:100A80007A018B01C0E0D0E0CE15DF0581F0D801FE
:100A90006D918D01D601ED91FC910190F081E02DD9
:100AA000C6010995892B11F02196EECF7E01C70171
:100AB000DF91CF911F910F91FF90EF90DF90CF903A
:100AC000089580918604882319F08091760401C0EE
:100AD00080E090918704992319F090917704890F11
:100AE00090918804992319F090917804890F90913E
:100AF0008904992319F090917904890F8093B400A7
:100B00000895089580E090E008950E94E228EF9211
:100B1000FF920F931F93CF93DF93EC017B018A0128
:100B200088819981009729F02A813B812417350714
:100B3000F8F4B8016F5F7F4F0E941C28009759F0AE
:100B4000998388831B830A832C813D81232B81F425
:100B5000FC0110820DC088819981009711F00E94DC
:100B60005824198218821D821C821B821A8207C097
:100B70001D830C83B701888199810E94F928CE01D9
:100B8000DF91CF911F910F91FF90EF900895FC019D
:100B900024813581232B31F421E061157105A1F009
:100BA000FB0108C0FC01808191816115710531F460
:100BB00021E0FC018081882339F005C00E94F028E3
:100BC00021E0892B09F020E0822F0895CF93DF9355
:100BD000EC016115710559F0FB0101900020E9F766
:100BE0003197AF01461B570B0E9487050CC08881C7
:100BF0009981009711F00E945824198218821D8251
:100C00001C821B821A82CE01DF91CF910895DC01F4
:100C1000ED91FC910190F081E02D09946115710531
:100C200079F0FB0101900020E9F73197AF01461BF5
:100C3000570BDC01ED91FC910280F381E02D0994CA
:100C400080E090E008958F929F92AF92BF92EF92D2
:100C5000FF920F931F93CF93DF93CDB7DEB7A1978A
:100C60000FB6F894DEBF0FBECDBF7C01FA01CB01F9
:100C700019A2223008F42AE08E010F5D1F4F822E48
:100C8000912CA12CB12CBF01A50194010E94102729
:100C9000F901CA01015011096A3014F4605D01C004
:100CA000695CD8016C93232B242B252B61F7B801A9
:100CB000C7010E940E06A1960FB6F894DEBF0FBEC4
:100CC000CDBFDF91CF911F910F91FF90EF90BF901B
:100CD000AF909F908F900895833081F028F48130F9
:100CE00099F08230A1F008958730A9F08830B9F0EA
:100CF0008430D1F4809180008F7D03C0809180008A
:100D00008F7780938000089584B58F7702C084B573
:100D10008F7D84BD08958091B0008F7703C080914E
:100D2000B0008F7D8093B00008951F93CF93DF9321
:100D3000282F30E0F901ED55F74F8491F901E15783
:100D4000F74FD491F901E558F74FC491CC23C1F086
:100D5000162F81110E946C06EC2FF0E0EE0FFF1FA2
:100D6000E258FF4FA591B4919FB7F894111104C0B8
:100D70008C91D095D82302C0EC91DE2BDC939FBFE1
:100D8000DF91CF911F910895CF93DF9390E0FC0105
:100D9000E157F74F2491FC01E558F74F84918823E0
:100DA00061F190E0880F991FFC01EC58FF4FC5914D
:100DB000D491FC01E258FF4FA591B491611109C093
:100DC0009FB7F8948881209582238883EC912E2305
:100DD0000BC0623061F49FB7F8948881322F309550
:100DE00083238883EC912E2B2C939FBF06C08FB753
:100DF000F894E8812E2B28838FBFDF91CF9108953F
:100E00001F93CF93DF93182FEB0161E00E94C4067C
:100E1000209711F460E004C0CF3FD10539F461E0C0
:100E2000812FDF91CF911F910C949506E12FF0E077
:100E3000ED55F74FE491E330F9F048F4E130B9F0C3
:100E4000E230A1F584B5806284BDC8BD34C0E7300E
:100E5000E9F0E83019F1E43049F5809180008062D2
:100E600080938000D0938B00C0938A0024C084B507
:100E7000806884BDC7BD1FC080918000806880935A
:100E80008000D0938900C093880015C08091B00085
:100E900080688093B000C093B3000DC08091B00013
:100EA00080628093B000C093B40005C0C038D10503
:100EB0000CF0B5CFAFCFDF91CF911F9108953FB721
:100EC000F8948091720490917304A0917404B0918D
:100ED000750426B5A89B05C02F3F19F00196A11DEA
:100EE000B11D3FBFBA2FA92F982F8827820F911DC0
:100EF000A11DB11DBC01CD0142E0660F771F881F07
:100F0000991F4A95D1F708958F929F92AF92BF9201
:100F1000CF92DF92EF92FF926B017C010E945F07FC
:100F20004B015C01C114D104E104F104F1F00E9411
:100F30005F07DC01CB0188199909AA09BB09883E22
:100F40009340A105B10570F321E0C21AD108E10870
:100F5000F10888EE880E83E0981EA11CB11CC11414
:100F6000D104E104F10419F7DDCFFF90EF90DF9099
:100F7000CF90BF90AF909F908F9008951F920F9247
:100F80000FB60F9211242F933F938F939F93AF939C
:100F9000BF9380918A0490918B04A0918C04B091AE
:100FA0008D043091710423E0230F2D3720F4019636
:100FB000A11DB11D05C026E8230F0296A11DB11D7C
:100FC0002093710480938A0490938B04A0938C04E3
:100FD000B0938D048091720490917304A091740475
:100FE000B09175040196A11DB11D80937204909378
:100FF0007304A0937404B0937504BF91AF919F9153
:101000008F913F912F910F900FBE0F901F901895C9
:1010100050E0DA01AA0FBB1FA80FB91FD3963C916D
:10102000D397D4962C91D497E32FF22FE60FF11D8E
:10103000E60FF11D25913491AD58BF4F2D933C9390
:10104000F90165917491FC017089769F602D1124DE
:10105000840F951FFC01E558FF4F6083F901A591AE
:10106000B4914B2F50E0E62FF0E04E175F0720F4CD
:10107000F90125913491632FFC01E158FF4F769FD0
:10108000602D1124608308951F920F920FB60F9266
:1010900011242F933F934F935F936F937F938F937D
:1010A0009F93AF93BF93EF93FF9360917A04611185
:1010B00002C080E023C080916D048F5F80936D0437
:1010C00090917E048917A8F39091860481E0892786
:1010D0008093860410926D0480918204882369F0C5
:1010E0008091000193E4899F802D1124895B809376
:1010F00000010E94E2279093760481E060917B04D6
:10110000662319F190916E049F5F90936E04209175
:101110007F049217D0F09091870481E08927809313
:10112000870410926E0480918304882369F0809173
:10113000000193E4899F802D1124895B8093000135
:101140000E94E2279093770481E060917C046623FB
:1011500019F190916F049F5F90936F042091800428
:101160009217D0F09091880481E0892780938804B9
:1011700010926F0480918404882369F080910001AB
:1011800093E4899F802D1124895B809300010E9444
:10119000E2279093780481E060917D04662319F141
:1011A000909170049F5F9093700420918104921736
:1011B000D0F09091890481E089278093890410926E
:1011C000700480918504882379F08091000193E474
:1011D000899F802D1124895B809300010E94E22762
:1011E0009093790401C081110E946105FF91EF91F4
:1011F000BF91AF919F918F917F916F915F914F912F
:101200003F912F910F900FBE0F901F901895643053
:1012100030F570E09C01260F371FF901ED5AFF4FA2
:10122000108238971082AB01440F551FFC01E40F68
:10123000F51FED57FF4F11821082F901E95AFF4F58
:101240001082FB01EA58FB4F1082FB01E658FB4F6E
:101250001082FB01EA57FB4F10820C946105089540
:10126000EF92FF920F931F93CF93DF938C017B013B
:10127000C42FD0E0443038F4642F0E940709F801ED
:10128000EC0FFD1F1482FE01EE0FFF1FE00FF11F98
:10129000F4A6E3A6FF9611821082F801EC0FFD1F61
:1012A00081E08483DF01A15BBF4F89E08C931C96B2
:1012B0001C9218961C92E559FF4F1082DF91CF9136
:1012C0001F910F91FF90EF9008950F931F93CF936D
:1012D000DF93643008F058C08B011127F801EE5FEE
:1012E000FA4FEC0134E0CC0FDD1F3A95E1F7DE0157
:1012F000A55CBD4F1C969C9190839B3008F09AE0B2
:10130000AB019083C55CDD4F688183EB94E00E9464
:1013100008083885C80182579B4FFC01E058FF4FF1
:101320004A852091C304429F402D11244083349666
:10133000319530833C8134964E81429F402D11245B
:10134000408334963A5330833E85B0974A81408338
:101350003496239F202D11242083E05CFF4F1082C0
:10136000F801EE0FFF1FEF5EFA4F16A215A2FC0167
:10137000E858FF4F21E02083F801EA57FB4F208314
:10138000FC01E458FF4F1082DF91CF911F910F9124
:101390000895FC01643508F053C0403308F050C094
:1013A00090A1742F759575957595262F062E000CB6
:1013B000330B542F57709230A1F4F90184E5780271
:1013C000E00DF11D1124E957FA4F808190E0052EC0
:1013D00002C0959587950A94E2F78095982F9170B1
:1013E0000AC0933041F4848581704627409541704E
:1013F000841303C014C0911112C084E57802200D3B
:10140000311D1124F901E957FA4F81E090E001C044
:10141000880F5A95EAF780959081892310C084E55A
:101420007802200D311D1124F901E957FA4F81E0AE
:1014300090E001C0880F5A95EAF79081892B80834C
:101440000895EF92FF920F931F93CF93DF938C0138
:10145000F62ED42FE22EC0E0CE1544F46F2D6C0F83
:101460004D2FC8010E94C909CF5FF6CFDF91CF9100
:101470001F910F91FF90EF9008952F923F924F92FE
:101480005F926F927F928F929F92AF92BF92CF9214
:10149000DF92EF92FF920F931F93CF93DF93EC01B4
:1014A0006A3011F42885C1C06D3009F4C5C0698463
:1014B00083E586150CF4A3C07A848FE287150CF4BB
:1014C0009EC008858C8190E00197089F9001099F3C
:1014D000300D1124C901860D911D67FC9A951816CF
:1014E00019060CF08CC02D81872D072C000C990B50
:1014F000029F800D911D1124181619060CF07FC053
:1015000038A0462CC62CE62EF12CA02E002E000C66
:10151000BB08EC2DE6190E2E000CFF0B8C8190E021
:10152000E817F9070CF06AC00197E817F90779F096
:10153000E89E9001E99E300DF89E300D1124E20FD7
:10154000F31F8E8D9F8DE80FF91F149101C010E0DD
:10155000D72C572C252D2719022E000C330B8D81EB
:1015600090E0281739070CF046C010FF1DC001306D
:1015700031F4452D6C2DCE010E94C90938C02D2CA7
:1015800045018D0C911CD7FC9A94822D022C000CE5
:10159000990B881599055CF5202F422D642DCE01FD
:1015A0000E94210A2394F1CF89A198A18917F9F00B
:1015B00088A3013031F4452D6C2DCE010E94C9095C
:1015C00015C02D2C45018D0C911CD7FC9A94822DB1
:1015D000022C000C990B8815990544F4202F422DFC
:1015E000642DCE010E94210A2394F1CF38A21695D2
:1015F0005394D00EAFCFC394400E8BCF38A2288522
:101600003C818985239F800D112489879F8199239F
:1016100099F0082E000C990B44E550E0239F4019E7
:1016200051091124481759073CF49D818A85299F47
:10163000800D11248A87198681E090E0DF91CF9197
:101640001F910F91FF90EF90DF90CF90BF90AF90E0
:101650009F908F907F906F905F904F903F902F90D2
:101660000895EF92FF920F931F93CF93DF938C0116
:10167000D62FF42EE22EC0E0CE1544F44F2D4C0FA1
:101680006D2FC8010E94C909CF5FF6CFDF91CF91BE
:101690001F910F91FF90EF9008952F923F924F92DC
:1016A0005F926F927F928F929F92AF92BF92CF92F2
:1016B000DF92EF92FF920F931F93CF93DF93CDB7FB
:1016C000DEB72E970FB6F894DEBF0FBECDBF4091A8
:1016D00080055091810560918205709183052FB737
:1016E000F89480918A0490918B04A0918C04B0911D
:1016F0008D042FBF481B590B6A0B7B0B80917F0514
:1017000090E0A0E0B0E000917B0510917C05209175
:101710007D0530917E0584179507A607B70730F43D
:10172000011511052105310509F03CC4012B022BDF
:10173000032B09F035C48091A50481508E3F30F50C
:101740008091A404813011F58091C4048F5F609171
:10175000C50487FD09C0082E000C990B70E06F5F6F
:101760007F4F0E94EE27682F6093C4048DE198E0BC
:10177000909385058093840588E48093860540E0F6
:101780006AE078E083EB94E00E9430098091A50440
:1017900081508E3F70F48091A304813009F068C4B9
:1017A00080E198E0909385058093840588E4809398
:1017B000860580E00E942F1381E00E942F1382E0B3
:1017C0000E942F1383E00E942F132EE834E0388705
:1017D0002F8376E8C72E74E0D72E02EF14E0EEEDEB
:1017E000EE2EE4E0FE2E59013E872D87512C442435
:1017F0004394AD85BE8599968C919997882309F479
:10180000EEC04D01B0E78B0E911CF4018081811177
:10181000E6C0D7012D913C91D801ED91FC91EE0FDE
:10182000FF1FE20FF31F85919491009721F5ED853D
:10183000FE85E05AFF4F8081882329F0F80111824C
:101840001082F90116C0AD85BE8599961C929997B4
:1018500095968C918823C1F1852D0E942F13D80174
:10186000ED91FC91EE0FFF1FD7018D919C91E80F38
:10187000F91F85919491ED85FE85E058FF4FFE8319
:10188000ED832D853E852C573F4F3A832983AD85C7
:10189000BE85A857BF4FBC83AB83ED85FE85E4575B
:1018A000FF4FFA87E9872D853E8520573F4F3C87BC
:1018B0002B872D843E8434E9230E311C6D847E8475
:1018C000A4E76A0E711C2DC0652D83EB94E00E9485
:1018D000070985C0BC0136E0769567953A95E1F732
:1018E0006F71892F86958695869580512F7022304D
:1018F000B1F138F521111DC06B3008F06AE0F30139
:101900006083D801ED91FC9111973196ED93FC9392
:10191000EE0FFF1FD7018D919C91E80FF91F859164
:1019200094919C01369527953695279580FDD2CFC9
:101930002DC0213031F7452D83EB94E00E9408083B
:10194000E0CF2330B9F02430E1F69091C304969FA4
:10195000602D1124AB85BC856C93F10115C090916D
:10196000C304969F602D1124AD81BE816C93E981E3
:10197000FA810AC09091C304969F602D1124AB8117
:10198000BC816C93E985FA858083BBCFED85FE85AC
:10199000E459FF4F2F7320838091C304899F802DCA
:1019A0001124F4018083ED85FE85E055FF4F108200
:1019B000F501E855FF4F11821082ED85FE85E8584C
:1019C000FF4F4082D6014C92ED85FE85E458FF4FD3
:1019D0001082F801808191810196918380835394D4
:1019E0002D853E852F5F3F4F3E872D8732E0A30E2A
:1019F000B11C8FEFC81AD80A0E5F1F4F92E0E90E94
:101A0000F11CA4E05A12F5CEAEE7AA2EA4E0BA2E3D
:101A1000BAE7CB2EB4E0DB2E16E7612E14E0712E70
:101A20000EE315E086E3E82E85E0F82E92E8492ED5
:101A300094E0592EEEE8F4E0FA83E983312CE98151
:101A4000FA81E858FF4F8081882309F42EC1E9818B
:101A5000FA81E059FF4F8081811106C0632D83EB2D
:101A600094E00E94070921C181508083D8018C91A4
:101A7000E981FA81EC54FF4FFE83ED8329813A819D
:101A800028543F4F490181114EC0D7018D919C913F
:101A900001969C01220F331FEF81F885E856FF4F16
:101AA0000190F081E02DE20FF31F45915491242F16
:101AB0002770ED81FE812083BA01E3E0769567957A
:101AC000EA95E1F79B0136952795352F36953695A2
:101AD000D4013C932F733091C304239F202D1124F4
:101AE000F80120836170D2016C93F70191838083A8
:101AF000E981FA81E056FF4F208130E08217930799
:101B000090F0E981FA81EC55FF4F8081882331F014
:101B1000281B3109D7012D933C9305C0632D83EB1E
:101B200094E00E940709F801808181508083E98157
:101B3000FA81E458FF4F808121E0280F2083E9815A
:101B4000FA81E459FF4F4081D4013C91340FE9817F
:101B5000FA81E45BFF4F8081380FE981FA8135A774
:101B6000E857FF4F6081662399F070E0822F022EC4
:101B7000000C990B0E94EE27E981FA81E457FF4F90
:101B80008081869F300D1124A981BA819D963C9356
:101B9000E981FA8185A590E0CB966BE370E00E9425
:101BA000EE2785A7EC58FF4F3081A981BA81D196E5
:101BB0003C93D197FD01E058FF4F60816623A1F06F
:101BC000062E000C770B822F022E000C990B0E9420
:101BD000EE27E981FA81EC57FF4F8081869F300D17
:101BE0001124E981FA8131ABE981FA81E057FF4F95
:101BF00060816623D1F0822F220F990B70E00E9442
:101C0000EE27CB0162E070E00E94EE27E981FA81C5
:101C1000EC56FF4F2081A981BA81D1969C91D19732
:101C2000289F900D1124D1969C93E981FA814F331E
:101C300059F081A98A300CF089E087FD80E0A98104
:101C4000BA81D1968C9301C011AAF894A981BA8166
:101C50009D96EC91F0E0E153F84FE491D501EC93BF
:101C6000E981FA8131A9E454FF4F2081AD81BE8121
:101C70004C913203900111244203C001439F900D07
:101C800011240090C40402C0880F991F0A94E2F73F
:101C900097FF02C081589F4F880F892F881F990B8B
:101CA000F6018083D3018C9378943394E981FA818F
:101CB0003196FA83E983FFEFAF1ABF0A2FEFC21AFA
:101CC000D20A3FEF631A730A0F5F1F4F82E0E80EDC
:101CD000F11CAF81B8851296B887AF83BFEF4B1A5E
:101CE0005B0AE4E03E12ABCE80918605882309F4BE
:101CF0009AC08C3020F4FCE0F81BF98301C01982F3
:101D000081E08093560510926E0510926F05209128
:101D100053052B83822F8D5F1981121B0DE2010F5A
:101D2000E82E880FFF08E00EF11C07FDFA94802FC3
:101D3000002E000C990B8E159F054CF42EE4402FBD
:101D400063E08EE495E00E94210A0F5FF0CF3B81B3
:101D500034503B83105D232F41E0612F80E50E94CA
:101D6000CB122B8142E0612F83E00E94CB1281E0F5
:101D700080936E0580936F05009153051981101BA8
:101D80008DE2810F8B832EE4482F63E08EE495E093
:101D90000E94210A83E0800F9B81980F9B83492F2B
:101DA00041502EE463E08EE495E00E94210A035046
:101DB000105D202F412F60E08EE495E00E94310BF2
:101DC000202F412F63E58EE495E00E94310B41E026
:101DD000612F83E00E944C1242E0612F80E50E9457
:101DE0004C12AB81A450AB8344E06A2F80E50E9483
:101DF0004C1248E06B8183E00E944C1284E0809397
:101E0000570580915305B981B81BB15DB093580552
:101E100080918405909185050E94F5118091860539
:101E20008150809386058091AA049091AB04892B00
:101E300009F48EC081E080936E0510926F05909139
:101E4000520585E5891B80935705109258056091CE
:101E5000A704613009F45DC030F08091A6046530BC
:101E600008F06FC06AC007EB14E01982698183EB48
:101E700094E00E940709F80111928F01F981FF5F38
:101E8000F983F43099F781E080935605EDE4F6E0AC
:101E9000E491EF5FE0935205EEE4F6E0E491EF5F4A
:101EA000E09353058FE496E090936D0580936C0565
:101EB0001092AB041092AA041092540528EA2983C8
:101EC0000E944D0B8823E1F38FE396E00E94F51109
:101ED0004091A8045091A90460E070E02AE08EE4EB
:101EE00095E00E9423068AE296E00E94F51169813E
:101EF00062956F7070E08EE495E00E9416128FE19B
:101F000096E00E94F5118091A304813009F094C0FD
:101F10001FC08091710590917205A0917305B091D9
:101F200074058F709927AA27BB270897A105B105CB
:101F300010F467E009C068E707C0882349F06B5FC9
:101F400003C0882329F06FE28EE495E00E94070623
:101F50000E94BA118091540581110EC088EF91E062
:101F6000E7E8F5E0DF019C011D9221503040E1F7E8
:101F700010925705109258050E945F0760937B05E9
:101F800070937C0580937D0590937E052091770565
:101F900030917805621B730B70937605609375051D
:101FA00080E06CC02FB7F89480918A0490918B04E4
:101FB000A0918C04B0918D042FBF20917F05820FDA
:101FC000911DA11DB11D8093800590938105A09363
:101FD0008205B09383058091710590917205A0915F
:101FE0007305B09174050196A11DB11D8093710513
:101FF00090937205A0937305B093740510927B05BE
:1020000010927C0510927D0510927E050E945F075C
:1020100060937705709378058093790590937A059E
:102020000E9478138091AA049091AB04892B11F03F
:102030000E94081481E022C0398131503983311166
:102040003FCF60E070E08FEF0E94000783B7817F91
:10205000846083BF83B7816083BF83B7816083BFA0
:10206000889583B78E7F83BF83B78E7F83BF28CF4A
:10207000893209F09ECB0E94D3139BCB2E960FB6CC
:10208000F894DEBF0FBECDBFDF91CF911F910F91AE
:10209000FF90EF90DF90CF90BF90AF909F908F9088
:1020A0007F906F905F904F903F902F9008952F9268
:1020B0003F925F926F927F928F929F92AF92BF9268
:1020C000CF92DF92EF92FF920F931F93CF93DF9304
:1020D000EC01F901E4903196849164350CF019C15A
:1020E0000E2C000CFF08062F062E000C110BF7011A
:1020F000E00FF11F1E161F060CF00BC140330CF051
:1021000008C1A82FC42E042E000CDD085601A80E0D
:10211000B11C87FDBA941A141B040CF0FAC02E5F90
:102120003F4F570197E0A90EB11CB7FE04C05701FD
:10213000BEE0AB0EB11CB3E0B594A794BA95E1F73D
:1021400047FF0AC0A42FA80FAC9CC001AD9C900D06
:102150001124281B390B40E08A2F0A2E000C990B02
:10216000840F911D47FD9A95C19714F0A0E3A41B1D
:10217000F8A067FD60E0E535F10514F0E4E5F0E076
:102180009E2FCC85C427C62E062E000CDD08F60136
:10219000E01BF10B8F014F01F7E08F229924E0E85B
:1021A000F0E002C0F595E7958A94E2F77E2F17FFDD
:1021B00002C0095F1F4FF3E015950795FA95E1F707
:1021C000200F311F542F577081E001C0880F5A959E
:1021D000EAF7459545954595F601B4E54B02E00DC6
:1021E000F11D1124AF0149575A4FD0E02A2EAA0FF2
:1021F0003308EE24E394BB24ED2FF0E0E215F30561
:102200000CF087C0F9015490F1E0FF121AC0962E2D
:102210008A01E72F6901991608F072C08E2E852079
:1022200021F0D8018C90882A8C92E69531F4BFEF8A
:10223000CB1ADB0AF6015490E0E893940F5F1F4F2E
:10224000EACFF1101CC0782E7094962E8A01E72FE9
:102250006901991608F054C08E2E852021F0D8010E
:102260008C9087208C92E69531F4BFEFCB1ADB0A75
:10227000F6015490E0E893940F5F1F4FEACFF3E02C
:10228000FF1629F0962E8A01E72F690137C0682EC4
:102290006094862E8A01972E69018916D8F4E92D5B
:1022A000E52159F0D801EC91782C7C2670FE02C013
:1022B000E82B02C0E621D801EC93969439F4BFEFE5
:1022C000CB1ADB0AF6015490E0E89E2E83940F5F50
:1022D0001F4FE3CFCE2514C08E2E852021F0D801CC
:1022E0008C9088268C92E69531F4BFEFCB1ADB0AEE
:1022F000F6015490E0E893940F5F1F4F991660F336
:10230000880F19F44C5A5F4F81E0DF5F2A0D3B1DA7
:1023100073CFDF91CF911F910F91FF90EF90DF90DE
:10232000CF90BF90AF909F908F907F906F905F9075
:102330003F902F900895CF93C82FF89460E080913C
:102340005D050E94950680915E0518161CF460E0FC
:102350000E949506CEBD00000DB407FEFDCF8EB5E0
:1023600080915E0518161CF461E00E949506789431
:10237000CF9108950F931F93CF9380915A058F5F4C
:1023800080935A0507E815E0C0E08C2F80640E9416
:102390009B1180E80E949B1161E080915D050E9485
:1023A000950680915E0518161CF460E00E94950663
:1023B000F80184E591919EBD00000DB407FEFDCFAC
:1023C0009EB58150B9F780915E0518161CF461E046
:1023D0000E949506CF5F0C5A1F4FC630B1F680E4BD
:1023E000CF911F910F910C949B110F931F93CF933B
:1023F000DF938C01C0E0D0E0F801EC0FFD1F649189
:10240000662371F0E0914E05F0914F050190F08147
:10241000E02D8EE495E00995892B11F02196ECCF03
:10242000CE01DF91CF911F910F910895CF92DF924E
:10243000EF92FF920F931F93CF93DF936B01770F70
:10244000EE08FF08F7FE1BC0EC016DE20E940706D4
:102450008C0144275527BA014C195D096E097F0983
:102460002AE0CE010E942306800F911FDF91CF91B9
:102470001F910F91FF90EF90DF90CF9008952AE089
:10248000B701A601DF91CF911F910F91FF90EF90BF
:10249000DF90CF900C942306AF92BF92CF92DF9241
:1024A000EF92FF920F931F93CF93DF93182F062F76
:1024B000C1E0D3E08AEFD82E9EEFE92E842F8470FE
:1024C000C82E842F8270B82E842F8870A82E417059
:1024D000F42E8C2F880F8F5FE80ECC2081F0402FD8
:1024E0004D0F612F6C0F8EE495E00E94C909402FBB
:1024F0004C0F6D2F610F8EE495E00E94C909BB203F
:1025000081F0402F4D1B612F6C0F8EE495E00E94EF
:10251000C909402F4C1B6D2F610F8EE495E00E947E
:10252000C909AA2081F0402F4C0F612F6D1B8EE44A
:1025300095E00E94C909402F4D0F612F6C1B8EE45E
:1025400095E00E94C909F1100AC0CD17CCF4E7FC50
:1025500004C0D150D394D394ED0CCF5FBACF402FA9
:102560004C1B612F6D1B8EE495E00E94C909402F22
:102570004D1B612F6C1B8EE495E00E94C909E5CFCD
:10258000DF91CF911F910F91FF90EF90DF90CF904F
:10259000BF90AF9008959F92AF92BF92CF92DF927B
:1025A000EF92FF920F931F93CF93DF93F82EE62EB7
:1025B000B22E13E0120FD0E0C3E08AEFC82E0EEF68
:1025C000842F8170982EAA24A394A20E4270D42E38
:1025D000DF5F812F8B19080F9920A1F02C2F220F7C
:1025E0002A0D4E2D4C1B6D2F6F0D8EE495E00E9431
:1025F000310B212F4E2D4D1B6C2F6F0D8EE495E06E
:102600000E94310BD1100AC0DC17ECF407FD04C0A6
:10261000C150C394C3940C0D1E5FDACF2C2F220F30
:102620002A0D4E2D4C1B6F2D6D1B8EE495E00E94E4
:10263000310B212F4E2D4D1B6F2D6C1B8EE495E021
:102640000E94310BE1CFDF91CF911F910F91FF904D
:10265000EF90DF90CF90BF90AF909F900895CF9371
:10266000DF93A82FB0E0ED01C257DB4F9DA1992366
:1026700009F43BC099A5911138C0FE01E05CFF4F01
:102680009081AA0FBB1FA257BB4FD8963C91D897F9
:10269000D9962C91D997E32FF22FE90FF11DE90F6D
:1026A000F11D259134912F3F9FEF390711F41DA2A1
:1026B0001CC0FE01E45BFF4F30835F963327220F7F
:1026C000331F9596ED91FC919697E20FF31F65915C
:1026D0007491843028F4482F83EB94E00E943009F1
:1026E000C05CDF4F88818F5F8883DF91CF91089531
:1026F000DF92EF92FF920F931F93CF93DF93CEE879
:10270000D4E005E914E0EE24EA9462E08A850E94B0
:10271000C4062A8530E0F901ED55F74F8491F9019F
:10272000E157F74FF490F901E558F74FD490DD20C9
:1027300071F081110E946C06ED2DF0E0EE0FFF1F8D
:10274000EF58F74FA591B491EC91FE2299F4898945
:102750008F5F898B60E08A850E94C40621960C17E2
:102760001D0799F6DF91CF911F910F91FF90EF9088
:10277000DF9008958989882389F38F3F11F4198A9E
:10278000E9CFE98AE7CFCF93DF930E94F511EC01FF
:102790006CE473E08EE495E00E940E068C0F9D1FA2
:1027A000DF91CF91089588EF91E0E7E8F5E0DF0150
:1027B0009C011D9221503040E1F710925705109274
:1027C000580589E498E00E94F5110E94BA118CB571
:1027D00083608CBD8DB58E7F8DBD8FE493E0EEEF71
:1027E000FFE309951092540584E298E00E94C31318
:1027F0000E94BA110E9478138091A304813039F0AD
:1028000062E370E080E090E00E948407F3CF0895D7
:10281000CF93C091B2048C2F8F71E1F583E4809344
:102820007C0080917A00806480937A0080917A00A5
:1028300086FDFCCF609178008091790070E0782B64
:10284000072E000C880B990B0E948A2526EE3FE389
:102850004EEC50E40E94E9250E9448279B017093AA
:10286000A9046093A804672B91F084E08093A704E7
:10287000EAEAF4E080E0419151912417350718F419
:102880008093A7040AC08F5F8430A9F703C08FEF3D
:102890008093A704CF5FC093B204CF910895CF92E5
:1028A000DF92EF92FF920F931F93CF93DF93EC0190
:1028B00081E08093560510925505109254051092B0
:1028C000A60480936E0580936F051CE00E944D0B5B
:1028D0008823E1F3FE018491882319F000915305C8
:1028E00001C000E025EA39E040E060E08EE495E0D8
:1028F0000E9457104CE0400F2FEB38E060E08EE470
:1029000095E00E9457101092570510935805CE017C
:102910000E94F51180915205982F990F890F81958A
:102920008D5A8093570580915305982F990F890FE1
:102930008195835D809358058091710584FF03C064
:1029400081EA99E002C08DE999E00E94C313809169
:102950005205982F990F890F81958D5A80935705AD
:10296000809158058F5F809358058091C404882317
:1029700019F089E999E002C085E999E00E94C31342
:1029800080915205982F990F890F81958D5A8093C8
:102990005705809158058F5F8093580581E999E02C
:1029A0000E94C3138091A4048130C9F48091C404AF
:1029B0008F5F6091C50487FD09C0082E000C990B3C
:1029C00070E06F5F7F4F0E94EE27682F6093C40412
:1029D00040E06AE078E083EB94E00E943009809167
:1029E000A3048130A9F080917005482F50E060E089
:1029F00070E0C0907105D0907205E0907305F09082
:102A00007405C416D506E606F706F8F08F3FE9F020
:102A10008FEF8093700560E083EB94E00E940709DC
:102A20001092B70440E067EB78E083EB94E00E94FB
:102A3000300981E08093A604DF91CF911F910F911F
:102A4000FF90EF90DF90CF9008958091A5048130A2
:102A500009F03CCF0E94D31339CFCF93DF93CDB78A
:102A6000DEB7AB970FB6F894DEBF0FBECDBF78943C
:102A700084B5826084BD84B5816084BD85B5826083
:102A800085BD85B5816085BD80916E008160809334
:102A90006E0010928100809181008260809381009D
:102AA00080918100816080938100809180008160AD
:102AB000809380008091B10084608093B100809108
:102AC000B00081608093B00080917A008460809330
:102AD0007A0080917A00826080937A0080917A00F7
:102AE000816080937A0080917A00806880937A0078
:102AF0001092C10082E380937F0581E090E0A0E026
:102B0000B0E080937B0590937C05A0937D05B09306
:102B10007E058FEF80937005E0E8F7E7259134910B
:102B20002130304C09F049C0E6E9F7E7E491E09341
:102B30005905E7E9F7E7E491E0939204E8E9F7E75C
:102B4000E491E0939304E9E9F7E7859194919093F8
:102B5000950480939404EBE9F7E785919491909321
:102B600097048093960487E08093C504EEE9F7E725
:102B7000E491E093C404EFE9F7E7E491E093700592
:102B8000E0EAF7E7859194919093AB048093AA04CF
:102B9000E2EAF7E7859194919093AD048093AC04B9
:102BA000E4EAF7E7859194919093AF048093AE04A3
:102BB000E6EAF7E7859194912CC09CE39093590540
:102BC000109292048093930480E293E09093950492
:102BD0008093940484ED93E09093970480939604FB
:102BE00087E08093C5048093C4048CEA9DE09093B1
:102BF000AB048093AA048EED9DE09093AD04809386
:102C0000AC0484E79EE09093AF048093AE048CE321
:102C10009FE09093B1048093B0046FEF70E08FEF6A
:102C20000E94000788E08093980489E080939904CB
:102C300087E080939A0486E080939B0414E01093CD
:102C40009C0482E080939D0485E080939E040E9412
:102C500078138CE39FE09093A9048093A8041093C9
:102C6000A70481E08093B2049BE090935C059DE013
:102C700090935B0590E190935D059EE090935F05D6
:102C80009FE090935E058093560580936E051092A9
:102C90006F0580935505EDE4F6E0E491EF5FE09376
:102CA0005205EEE4F6E0E491EF5FE09353058FE424
:102CB00096E090936D0580936C050FB70983F894A7
:102CC00080916203811127C0E5E8F8E08491E9E989
:102CD000F8E09491E82FF0E0EE0FFF1FEC58FF4F63
:102CE000A591B491EC91E92321F461E08AE00E947E
:102CF000950661E08AE00E94C4068CB580618CBDB7
:102D00008CB580648CBD61E08DE00E94C40661E0FA
:102D10008BE00E94C406809162038F5F8093620300
:102D200019811FBF8CB58F7D8CBD8CB58C7F816068
:102D30008CBD8DB581608DBD8CB58C608CBD61E026
:102D400080915C050E94C40661E080915B050E9451
:102D5000C40661E080915D050E94C40680915F0514
:102D600018161CF461E00E94C40680915E051816D6
:102D70001CF461E00E94C40680915F05181674F48B
:102D800060E00E9495066AE070E080E090E00E94BA
:102D9000840761E080915F050E94950680915B0544
:102DA000082E000C990BFC01E558F74FE491F0E078
:102DB000EE0FFF1FE258FF4F2591349130936305CA
:102DC00020936205FC01E157F74FE491E093690518
:102DD00080915C05082E000C990BFC01E558F74F1B
:102DE000E491F0E0EE0FFF1FE258FF4F2591349180
:102DF0003093610520936005FC01E157F74FE491A2
:102E0000E093680580915E05082E000C990BFC018B
:102E1000E558F74FE491F0E0EE0FFF1FE258FF4F47
:102E2000259134913093650520936405FC01E157A9
:102E3000F74FE491E0936A0580915D05082E000C40
:102E4000990BFC01E558F74FE491F0E0EE0FFF1FFE
:102E5000E258FF4F25913491309367052093660522
:102E6000FC01E157F74FE491E0936B0581E20E948A
:102E70009B1184E10E949B118091590587FF03C03B
:102E80008FE7809359058091590580680E949B11B6
:102E900080E20E949B118CE00E949B110E94BA115B
:102EA00081E08093C304BAE4EB2EB5E0FB2E06EE7E
:102EB00014E0198280E7C82E80E0D82ED701E1E027
:102EC000ED937D01D801CD92DD928D01498160E0C5
:102ED00083EB94E00E940808B981BF5FB983B430E6
:102EE00069F761E070E083E00E9400078091B10023
:102EF000887F81608093B100F894109280001092D6
:102F00008100109285001092840088E191E09093F6
:102F1000890080938800809181008860809381007F
:102F20008091810081608093810080916F00826038
:102F300080936F0078948091AA049091AB04892BC0
:102F400011F00E9408148091A404813011F00C94B7
:102F500022231092C40481E280937F0581E0809354
:102F6000C30480917005882321F086E990E00E94D7
:102F70004F14C090A804D090A904C094D094E12C20
:102F8000F12C0E945F074B015C010E945F07A501C5
:102F90009401209530954095509560957095809559
:102FA00090950E94D2279B01AC01C701B6010E94F7
:102FB000D2276B017C0160918F04709190044B01CA
:102FC000A12CB12C0E945F07DC01CB01880D991D5B
:102FD000AA1DBB1DBC01CD016C0D7D1D8E1D9F1D4D
:102FE000611571058105910511F00E947A2567EC44
:102FF00072E08CE593E00E94E6051092A604A7E03B
:103000008A2E912C0E944D0B882311F40C941823C6
:103010006DEC72E08CE593E00E94C705882379F09F
:1030200010926C0410926B0483E080936A041092F7
:10303000690465ED72E08CE593E00E94E60565EDBC
:1030400072E08CE593E00E94C7058823D9F0E7EB96
:10305000F1E0A5EEB3E08BE392E021912D938E1782
:103060009F07D9F784EF8093E40380916904883047
:1030700008F087E08093E3036EED72E08CE593E067
:103080000E94E6056EED72E08CE593E00E94C705B4
:10309000882309F49EC01092E2031092E10310927B
:1030A000E0031092DF038FEF9FEF9093DE03809396
:1030B000DD035DE05093DC0328E12093DB0322E095
:1030C00030E03093DA032093D9031092D8031092A2
:1030D000D703E1E0F0E0F093D603E093D50310923C
:1030E000D4031092D303F093D203E093D103F0936F
:1030F000D003E093CF034CE04093CE0363E06093B2
:10310000CD031092CC036EE16093CB035093C703C1
:103110004093C303F093BC03E093BB031092B4034A
:103120001092B303F093AC03E093AB031092A403AB
:103130001092A3034093C8034FE04093C40310923E
:10314000BE031092BD031092B6031092B503F09324
:10315000AE03E093AD031092A6031092A503509323
:10316000C9034093C5033093C0032093BF0310925B
:10317000B8031092B703F093B003E093AF0310923B
:10318000A8031092A7034093CA034093C60310926A
:10319000C2031092C1031092BA031092B903909324
:1031A000B2038093B1031092AA031092A90366EEB2
:1031B00072E086E593E00E94E60501E010E01093DE
:1031C000A2030093A1036CEE72E08CE593E00E94F1
:1031D000E6056CEE72E08CE593E00E94C70588235B
:1031E00011F40C9437228091A0038F5F8370809339
:1031F000A003811106C080919F038F5F817080932F
:103200009F03F090DB030091D7031091D8031A833A
:1032100009838F2D90E007979C01220F331F820FA7
:10322000931F800F911F8B3F1FEF910714F48BEFBB
:103230009FEF90939E0380939D0380919D039091B7
:103240009E03C99734F088E390E090939E038093A7
:103250009D038091DF039091E003892B59F4409105
:103260009D0341952CED31E060E08EE495E00E94F5
:10327000571004C080919F03882389F38091CC0369
:10328000811109C08091E4038E3A11F08A3419F457
:1032900080E98093CC031091CC03112399F1209104
:1032A000E30347E0249F900111242C553E4F809169
:1032B0009D0345E3481B69E28EE495E00E945710A8
:1032C00011501093CC038091DC038D508230D0F4E8
:1032D00052E1F51217C01092CC032091690480913D
:1032E0006B0490916C0464E6269F800D911D11245F
:1032F00090936C0480936B0461E070E086E090E052
:103300000E9465090091DD031091DE03EF2CEE0CA5
:103310000F3F7FEF170729F52091CE038091CD0352
:1033200090E0820F911D47E0489F9001499F300D2A
:103330001124285E3E4F4E2D4F0D8981480F41507C
:1033400080919D03481B6091DC03862F880F680FD6
:103350008091D903680F61508EE495E00E94571068
:1033600050C0015011091093DE030093DD03C80122
:1033700065E070E00E94EE27892B39F440E06AE0B6
:1033800078E083EB94E00E943009C80166EF7FEF9C
:103390000E94EE276D5E7F4F87E0869F9001879F9A
:1033A000300D1124285E3E4F4E2D4F0D9981490F4F
:1033B000415080919D03481B6091DC03862F880F4C
:1033C000680F8091D903680F61508EE495E00E94E8
:1033D0005710012BB1F48FEF9FEF9093DE03809392
:1033E000DD0380916A04815080936A04811103C0D7
:1033F00064EF72E002C06EED72E08CE593E00E9433
:10340000E6050091CB030983002381F080919F039F
:10341000811108C027E031E042E060E28EE495E0EF
:103420000E945710198111501093CB038091A00472
:1034300081508E3F10F40C9440238091A20481505F
:103440008E3F10F40C944C2380919F0481508E3F4A
:1034500010F40C9458238091A10481508E3F10F4F5
:103460000C9464238091A504813071F480917005DF
:10347000882321F08CEF90E00E944F1467EC72E0FB
:103480008CE593E00E94E6058091CB03811132C068
:103490008091DF039091E003892B61F58091DD033A
:1034A0009091DE03019631F54091D5035091D603FA
:1034B0008091D9039091DA03840F951F9093DA03DA
:1034C0008093D9032091D3033091D4038091D70303
:1034D0009091D803820F931F9093D8038093D703C2
:1034E000452B11F4232B31F08091CD038F5F837036
:1034F0008093CD038091D9039091DA0302960597CA
:1035000058F01092DA031092D9039091DC03809165
:10351000D503890F8093DC038091D7039091D80362
:103520000296059758F01092D8031092D703909105
:10353000DB038091D303890F8093DB038091DC034D
:10354000811109C08091D5039091D603019619F499
:103550008BE18093DC038091DC038B3140F0809120
:10356000D5039091D603019711F41092DC0380915A
:10357000D9039091DA03892B09F00BC18091D7030D
:103580009091D803892B09F004C1C090DC03D0903E
:10359000DB038C2D90E040E2D49E800D911D112420
:1035A000BC01E3E075956795EA95E1F770939803A0
:1035B00060939703877099278401081B190B109358
:1035C0009603009395036B517C4F7A836983DB01EB
:1035D000EC908E2D90E0002E02C0959587950A9470
:1035E000E2F780FF4FC0F090E403FA94F092E40316
:1035F00061E070E0F0FC03C083E090E002C084E092
:1036000090E00E94650981E090E001C0880F0A9572
:10361000EAF7E81AE981FA81E08280916B049091DF
:103620006C04F1E0CF1619F00AE1C0121EC014E0DC
:10363000D11619F028E1D21218C0C29690936C04EA
:1036400080936B042091690431EF3203C00111248F
:103650008C549F4F9093E2038093E10388EC90E0B9
:10366000909394038093930305C00A9690936C04FF
:1036700080936B04F11006C08CE390E09093E0031C
:103680008093DF03E091DC03F0E0E0909903F09099
:103690009A034091DB03042F10E01A830983009101
:1036A0009B0310919C0389819A81800F911F55E0A3
:1036B000880F991F5A95E1F79F012E0D3F1D820F2C
:1036C000931F9C0163E0359527956A95E1F768E0C3
:1036D00070E00E94EE27A401481B590BD901AD5C94
:1036E000BE4F2C9130E002C0359527954A95E2F700
:1036F00020FD10C0F092D603E092D5031093D403BE
:103700000093D303F092D203E092D1031093D0033D
:103710000093CF038091D3039091D40309811A8140
:10372000080F191F85E0000F111F8A95E1F780919E
:10373000D5039091D603E80FF91FC8018E0F9F1F84
:103740009C0143E0359527954A95E1F7309398031E
:103750002093970368E070E00E94EE27A401481BC5
:10376000590B5093960340939503F901ED5CFE4F7E
:10377000808190E002C0959587954A95E2F780FF99
:1037800008C01092D6031092D5031092D403109261
:10379000D3038091D5039091D6038F3F1FEF9107FC
:1037A00021F488E08093CE0304C0019711F41092B5
:1037B000CE038091D3039091D4038130910511F40D
:1037C00084E003C0019619F48CE08093CE038091CD
:1037D000DF039091E0031816190694F40197909373
:1037E000E0038093DF03892B59F4809169048F5F94
:1037F0008093690465ED72E08CE593E00E94E60534
:1038000088E090E09093980380939703B0E4CB2EE8
:10381000D12C00919703109198030C3711050CF0EF
:1038200077C047E050E05093960340939503B8016A
:103830006B517C4F5B01E0909503F0909603F7FC91
:1038400060C0D5018C9190E00E2C02C095958795B3
:103850000A94E2F780FF4AC0C6018F71992796014A
:10386000F5E035952795FA95E1F7F901EE0FFF1F81
:10387000E20FF31F40919D0350919E03E41BF50B53
:10388000FA83E9838130910519F08A31910521F598
:103890002430310519F028313105F1F429813A81BC
:1038A00020333105C8F420919F032130F9F4382FDB
:1038B000330F380F3B8349814F5F23E0632F8EE442
:1038C00095E00E94210A6B816F5F23E049818EE4BD
:1038D00095E00E94310B0AC049814F5F682F660F47
:1038E000680F6F5F8EE495E00E94C9094FEFC41A1C
:1038F000D40A51E0E51AF108F0929603E09295039C
:103900009ACF0F5F1F4F109398030093970381CFB7
:103910008091A1039091A20301979093A2038093B9
:10392000A103181619064CF166EE72E086E593E0E5
:103930000E94C705882379F06DEF72E086E593E079
:103940000E94E6052091690464EC6203C001112421
:10395000845D9E4F0EC066EE72E086E593E00E94A5
:10396000E6058091690476E9879FC0011124885A91
:103970009D4F9093A2038093A1038091E1039091C6
:10398000E203181619060CF061C00E942C252CE1E8
:1039900030E040E050E00E94A72670938C036093D3
:1039A0008B030E942C2521E230E040E050E00E9491
:1039B000A72670938403609383030E942C252CE137
:1039C00030E040E050E00E94A72670938E036093A1
:1039D0008D030E942C2521E230E040E050E00E945F
:1039E000A72670938603609385030E942C252CE103
:1039F00030E040E050E00E94A7267093900360936F
:103A00008F030E942C2521E230E040E050E00E942C
:103A1000A72670938803609387030E942C252CE1CE
:103A200030E040E050E00E94A7267093920360933C
:103A300091030E942C2521E230E040E050E00E94FA
:103A4000A72670938A0360938903A2C06DEF72E08A
:103A500086E593E00E94C705882309F110928C0344
:103A600010928B0310928403109283032BE130E0B9
:103A700030938E0320938D0310928603109285035A
:103A80001092900310928F0380E290E0909388034D
:103A900080938703309392032093910375C06091C4
:103AA000DC0370E070938C0360938B034091DB0325
:103AB00050E050938403409383038091D10390910D
:103AC000D2039A8389839C01220F331F220F331F55
:103AD000260F371F30938E0320938D03A091CF03C1
:103AE000B091D003CD01880F991F880F991F840FC3
:103AF000951F9093860380938503E091C703F0E0C0
:103B000009811A81000F111F201B310B2E1B3F0B47
:103B1000220F331F2E0F3F1F3093900320938F03EC
:103B20002091C30330E0AA0FBB1F8A1B9B0B821B93
:103B3000930B880F991F280F391F30938803209308
:103B400087038091CA039B01281B3109C901209179
:103B5000C603DA01A21BB109889FF001899FF00D0D
:103B6000F00D1124AA9FC001AB9F900D900D112460
:103B70008E0F9F1F089734F58BE190E0909392038E
:103B80008093910380E290E090938A03809389036D
:103B90000BE713E018A30F8F0BE813E01E870D87C8
:103BA00003E813E01C870B8783E893E0D8010BE858
:103BB00013E0EBE7EE2EE3E0FE2E2DE030E04FE0E9
:103BC00050E00FC0709392036093910350938A0367
:103BD00040938903DDCF0E5F1F4F12968E159F0510
:103BE00071F0F701619171917F016130710599F771
:103BF000F8013183208311965C934E93ECCF809132
:103C00007A038F5F65E00E94E227292F90937A0361
:103C10008091E1039091E20318161906F4F40197DC
:103C20009093E2038093E103211135C08091DD037D
:103C30009091DE03019679F58091CB0381112BC021
:103C40008091DF039091E003892B29F560E070E01B
:103C500082E090E00E9465091EC021111CC0809185
:103C6000DD039091DE030196B1F48091CB038111C5
:103C700012C08091DF039091E003892B61F41091D1
:103C8000790360E070E0812F90E00E9465091F5F7A
:103C9000117010937903809177039091780318162F
:103CA00019060CF05DC20197909378038093770317
:103CB0008091CB0381115EC28091DF039091E0037C
:103CC000892B09F057C28091DD039091DE030196A4
:103CD00009F050C20BEA13E018870F8307EC13E0DA
:103CE0001A8B098B03EB13E0188B0F8703EC13E09F
:103CF0001A87098703EA13E01E830D830BEB13E099
:103D00001C8B0B8B83EBA82E83E0B82E380143EA83
:103D100053E023EC33E083EB93E0E7ECF3E06BEA72
:103D2000462E63E0562E0BE713E07BE1F72ED80119
:103D30006D917D918D01D3016130710591F41D92DA
:103D40001C92DC011D921C927081D2016C91670F54
:103D50006083D9017C91DA016C91670FD9016C9372
:103D600015C0CD90DC90D2016D917C916C0D7D1DC4
:103D7000D3016D937C93DC01CD90DC90DA016D91E1
:103D80007C916C0D7D1DDC016D937C93D3016D9155
:103D90007C9111976E5F7F4F6530710538F01D92F1
:103DA0001C927081D2016C91670F6083DC016D9170
:103DB0007C9111976E5F7F4F6530710548F01D92C1
:103DC0001C92D9017C91DA016C91670FD9016C9337
:103DD0006081611107C0D2016D917C916F3F7F4F6F
:103DE00009F4F08260816B3138F0D2016D917C91E1
:103DF0006130710509F41082B2E04B0E511C31960E
:103E000002962F5F3F4F4E5F5F4F62E0660E711C60
:103E1000A414B50409F08BCF009197031091980377
:103E20001E8B0D8B209095033090960300917503A7
:103E3000109176031BA70AA70BE713E0AB89BC8997
:103E40008D919D91BC8BAB8B892B09F039C1EF858E
:103E5000F88980819181892B09F032C1A989BA89B9
:103E6000BC91B9836B2E712CE985FA85F081FB83B7
:103E7000AF2EB12C230120E2F29F400C511C1124E3
:103E8000AF81B8850D90BC91A02DBCA3ABA3ED85EF
:103E9000FE850190F081E02DFEA3EDA3AB85BC85EE
:103EA0000D90BC91A02DB8A7AFA3EBE2F1E0FAA36F
:103EB000E9A323E131E03E8F2D8F4BE051E05C8F91
:103EC0004B8F65E673E07A8F698F83E291E0988F7C
:103ED0008F8B6B01E12CF12C99819D5099A7A9A1A1
:103EE000BAA18D919D91BAA3A9A3840D951DFC0142
:103EF000B3E0F595E795BA95E1F7FE8BED8B68E0B9
:103F000070E00E94EE271401281A390AED5CFE4F7A
:103F10002081422F50E0022C02C0559547950A940B
:103F2000E2F7417055275BA74AA769A5623080F484
:103F30007B817C3069F4D8018D919C91019741F08F
:103F4000B3E0EB16F10421F4E1E0F0E0FBA7EAA70F
:103F5000AF89B88D8D919D91B88FAF8BEBA1FCA1EE
:103F6000E817F907F9F4F701EE0FFF1FE55EFE4FC2
:103F7000AD81BE818D919C91208131818217930703
:103F800089F4BB81BF3051F4E981EC3059F0EF3056
:103F900049F021E030E03BA72AA704C041E050E00F
:103FA0005BA74AA7AD8DBE8D8D919D91BE8FAD8FC4
:103FB000860D971DEDA1FEA1E81BF90BCF01AB8D7E
:103FC000BC8D2D913D91BC8FAB8F2A0D3B1DEFA178
:103FD000F8A5E21BF30B889FB001899F700D700D4F
:103FE0001124EE9FC001EF9F900D900D1124680FDA
:103FF000791F072E000C880B990B0E948A250E94BE
:104000007D27D6016D937D938D939C931397EAA59D
:10401000FBA5319749F420E030E048EC52E42D93C1
:104020003D934D935C931397BFEFEB1AFB0AE4E0CB
:10403000CE0ED11CF4E0EF16F10409F050CFEE24BF
:10404000EA94FE2CF3E6AF2EB12CC12CD12CA98D15
:10405000BA8D4D905D906D907D90BA8FA98FB5010E
:104060000B2C000C880B990B0E948A259B01AC013C
:10407000C301B2010E948325181634F0C301B201B6
:104080000E9441275B017601BFEFCB1ADB0AE4E017
:10409000CE16D104E1F6C701880F991FFC01ED5E31
:1040A000FE4F20813181AF81B8852D933C93FC0177
:1040B000E55FFE4F80819181ED81FE819183808358
:1040C000A989BA898D91BA8BA98B8D3069F4E9855C
:1040D000FA8580818F3041F4D8018D919C911197A0
:1040E000019711F41D921C92E985FA853196FA87A1
:1040F000E9870E5F1F4F2F8538892E5F3F4F388B22
:104100002F874F8158854E5F5F4F58874F836D8152
:104110007E816E5F7F4F7E836D838D859E85029647
:104120009E878D87AB85BC851296BC87AB87E3ECF9
:10413000F3E02B893C89E217F30709F07FCE0D8964
:104140001E89109398030093970330929603209250
:1041500095030AA51BA510937603009375030AC067
:104160008091690490E00196880F991F90937803DD
:104170008093770307EC13E01C830B833BEB232E28
:1041800033E0332E03EC13E01A83098343EB442E10
:1041900043E0542E5BEC652E53E0752E72016801EE
:1041A0000BE713E01E830D83510107EC13E08091B0
:1041B000DC032091D9033091DA0343E0849F200D82
:1041C000311D1124D8014D918D01F50181919191FD
:1041D0005F01F3E04F9F800D911D1124AC014F5FF3
:1041E0005F4F421753070CF463C001972817390734
:1041F0000CF45EC08091DB032091D7033091D8038B
:1042000043E0849F200D311D1124D6014C91F7010C
:1042100080819181F3E04F9F800D911D1124AC01AD
:104220004F5F5F4F421753070CF442C001972817A6
:104230003907F4F1AD81BE818D919C91892BC1F537
:104240008091DD039091DE03019691F58091E10369
:104250009091E20318161906FCF480919303909153
:10426000940320916B0430916C04280F391F309314
:104270006C0420936B04880F991F90939403809390
:10428000930381E090E0ED81FE819183808361E082
:1042900070E085E090E00AC026E430E03093DE0371
:1042A0002093DD0361E070E087E090E00E94650903
:1042B0004D815E814E5F5F4F5E834D835FEFC51A18
:1042C000D50A62E0E60EF11C6016710609F06FCFA8
:1042D0008091DD039091DE038F3F7FEF970761F0C0
:1042E000CD9754F480919D0390919E038B3FAFEF47
:1042F0009A0709F071C076C00BEA13E01E830D83A4
:1043000003EA13E087E0F82EAD81BE818D919D9187
:10431000BE83AD83019719F080E090E002C082E097
:1043200090E0F801219131918F012F3FFFEF3F077E
:1043300031F02130310529F486E090E002C084E0BC
:1043400090E02091E1033091E2031216130614F479
:1043500088E090E0AF8DB8A12D913D91B8A3AF8FCB
:104360002130310511F48AE090E0E981FA81719100
:10437000FA83E983D2016C91B2E04B0E511CEB81C0
:10438000FC815191FC83EB83D101EC91B2E02B0EC7
:10439000311C20919F03820F911DF89E9001F99E80
:1043A000300D112428553F4F472F440F470F640FFE
:1043B00040919D034095460F652F660F650F6E0F68
:1043C00061508EE495E00E945710ED81FE81E35B21
:1043D000F34009F099CF86CFC89709F048C00BE2A7
:1043E000098301C0198210916A041B83123090F076
:1043F0002DE231E0498160E08EE495E00E945710A3
:10440000123041F02DE231E0498166E08EE495E022
:104410000E94571060916B0470916C046A307105B2
:1044200034F086E2643671051CF092E002C088E246
:1044300090E0891B683E23E0720714F092E001C00F
:1044400090E0891B809357050981009358058EE4FD
:1044500095E00E94161288E48093570560916904E4
:1044600070E06F5F7F4F8EE495E00E94161267EC5C
:1044700072E08CE593E00E94C705882309F47FC0B1
:1044800080916B0490916C042091630330916403DC
:104490002817390724F490936403809363031092E0
:1044A00057051092580565E073E08EE495E00E9490
:1044B0000E0660916B0470916C046A30710534F0E3
:1044C0008CE0643671051CF092E002C08EE090E052
:1044D000891B683E13E0710714F092E001C090E080
:1044E000891B8093570586E0809358058EE495E0FC
:1044F0000E94161260916303709164036A30710523
:1045000034F080E4643671051CF092E002C082E46D
:1045100090E0891B683E23E0720714F092E001C02E
:1045200090E0891B8093570586E0809358058EE4C0
:1045300095E00E9416122FEB38E04DE06AE08EE421
:1045400095E00E945710109257058AE28093580513
:1045500069E173E08EE495E00E940E068091A30469
:10456000813009F4BDC08091A504813041F480916F
:104570007005882321F081EA90E00E944F1464EFD7
:1045800072E08CE593E00E94C705882309F450C0CF
:1045900010926E0510926F0500E1098327E24981B0
:1045A00066E18EE495E00E94210A19811F5F19835C
:1045B0001931A1F781E080936E0580936F0588E142
:1045C0008093570582E1809358056EE273E08EE494
:1045D00095E00E940E0627E240E166E18EE495E058
:1045E0000E94210A27E248E166E18EE495E00E94FC
:1045F000210A29E040E166E18EE495E00E94310B5A
:1046000029E040E16CE38EE495E00E94310B84E008
:10461000809357058AE28093580568E373E08EE43F
:1046200095E00E940E068091A404813009F466C0D2
:1046300080E090E0892B11F40C9402180E94000095
:104640000C94021840E068E870E083EB94E00E946C
:10465000300941E068E870E083EB94E00E943009A3
:1046600042E068E870E083EB94E00E94300943E0A8
:1046700068E870E083EB94E00E9430090C94AB177B
:104680008FEF9FEF90939C0380939B0310929A036C
:10469000109299030C941D1A81E090E090939C0372
:1046A00080939B0310929A03109299030C94241AFE
:1046B0008FEF9FEF90939A038093990310929C033E
:1046C00010929B030C942B1A81E090E090939A0334
:1046D0008093990310929C0310929B030C94321ABE
:1046E0006DEC72E08CE593E00E94E60540E067EB3C
:1046F00078E083EB94E00E94300935CF67EC72E0FC
:104700008CE593E00E94E60540E067EB78E083EB00
:1047100094E00E9430098CCF80915603909157030A
:104720000E94582480915C0390915D030C9458245E
:1047300010925105109250058FEB92E090934F0527
:1047400080934E05ECE5F3E0118210821382128211
:104750001582148240E050E06EE473E0CF010E94C5
:104760008705E6E5F3E0118210821382128215823A
:10477000148240E050E06EE473E0CF010C948705B2
:104780000F931F93CF93DF938230910510F482E053
:1047900090E0E0918907F0918A0720E030E0A0E006
:1047A000B0E0309719F1408151810281138148179F
:1047B0005907C8F08417950769F4109731F01296DD
:1047C0000C93129713961C9327C00093890710939C
:1047D0008A0722C02115310519F04217530718F432
:1047E0009A01BD01EF01DF01F801DBCF2115310591
:1047F000F9F0281B390B2430310580F48A819B8124
:104800006115710521F0FB019383828304C09093AD
:104810008A0780938907FE01329644C0FE01E20FA9
:10482000F31F8193919322503109398328833AC031
:104830002091870730918807232B41F420910301B1
:10484000309104013093880720938707209101015C
:10485000309102012115310541F42DB73EB7409149
:10486000050150910601241B350BE0918707F0915B
:104870008807E217F307A0F42E1B3F0B2817390710
:1048800078F0AC014E5F5F4F2417350748F04E0FAC
:104890005F1F50938807409387078193919302C0CD
:1048A000E0E0F0E0CF01DF91CF911F910F910895EB
:1048B000CF93DF93009709F481C0FC0132971382F4
:1048C0001282A0918907B0918A07109781F4208104
:1048D0003181820F931F2091870730918807281715
:1048E000390751F5F0938807E093870767C0ED011A
:1048F00020E030E0CE17DF0740F44A815B819E0163
:1049000041155105F1F0EA01F5CFD383C28340810F
:104910005181840F951FC817D90759F4888199814F
:10492000840F951F0296918380838A819B81938354
:1049300082832115310529F4F0938A07E0938907D2
:104940003DC0E901FB83EA8349915991C40FD51F0A
:10495000EC17FD0761F480819181840F951F029609
:10496000E90199838883828193819B838A83E0E034
:10497000F0E012968D919C911397009719F0FD012C
:10498000DC01F7CF8D919C9111979D012E5F3F4FD8
:10499000820F931F209187073091880728173907C6
:1049A00069F4309729F410928A071092890702C09F
:1049B00013821282B0938807A0938707DF91CF916B
:1049C00008958F929F92AF92BF92CF92DF92EF9213
:1049D000FF92CF93DF93EC01688179818A819B817B
:1049E000611571058105910521F464E279ED8BE58E
:1049F00097E02DE133EF41E050E00E94A726490106
:104A00005A019B01AC01A7EAB1E40E94C6266B01E2
:104A10007C01ACEEB4EFA50194010E94D426DC0128
:104A2000CB018C0D9D1DAE1DBF1DB7FF03C00197AF
:104A3000A109B04888839983AA83BB83BC01CD01B7
:104A40009F77DF91CF91FF90EF90DF90CF90BF9055
:104A5000AF909F908F9008958F929F92AF92BF9248
:104A6000CF92DF92EF92FF9260910701709108015F
:104A70008091090190910A016115710581059105E7
:104A800021F464E279ED8BE597E02DE133EF41E02D
:104A900050E00E94A72649015A019B01AC01A7EAF8
:104AA000B1E40E94C6266B017C01ACEEB4EFA50117
:104AB00094010E94D426DC01CB018C0D9D1DAE1DFE
:104AC000BF1DB7FF03C00197A109B048809307013C
:104AD00090930801A0930901B0930A01BC01CD0194
:104AE0009F77FF90EF90DF90CF90BF90AF909F9017
:104AF0008F900895609307017093080180930901D6
:104B000090930A0108950E94C52508F481E0089554
:104B1000E89409C097FB3EF4909580957095619557
:104B20007F4F8F4F9F4F9923A9F0F92F96E9BB270D
:104B30009395F695879577956795B795F111F8CF89
:104B4000FAF4BB0F11F460FF1BC06F5F7F4F8F4FF4
:104B50009F4F16C0882311F096E911C0772321F0EA
:104B60009EE8872F762F05C0662371F096E8862F82
:104B700070E060E02AF09A95660F771F881FDAF7D9
:104B8000880F9695879597F90895990F0008550F06
:104B9000AA0BE0E8FEEF16161706E807F907C0F0C3
:104BA00012161306E407F50798F0621B730B840BCB
:104BB000950B39F40A2661F0232B242B252B21F4A5
:104BC00008950A2609F4A140A6958FEF811D811D45
:104BD00008950E94FC250C946D260E945F2638F0F3
:104BE0000E94662620F0952311F00C9456260C9412
:104BF0005C2611240C94A1260E947E2670F3959FBA
:104C0000C1F3950F50E0551F629FF001729FBB27C3
:104C1000F00DB11D639FAA27F00DB11DAA1F649F5F
:104C20006627B00DA11D661F829F2227B00DA11D12
:104C3000621F739FB00DA11D621F839FA00D611D98
:104C4000221F749F3327A00D611D231F849F600DB9
:104C5000211D822F762F6A2F11249F5750409AF0E2
:104C6000F1F088234AF0EE0FFF1FBB1F661F771F6E
:104C7000881F91505040A9F79E3F510580F00C9439
:104C800056260C94A1265F3FE4F3983ED4F3869514
:104C900077956795B795F795E7959F5FC1F7FE2BD9
:104CA000880F911D9695879597F9089597F99F67B5
:104CB00080E870E060E008959FEF80EC08950024A4
:104CC0000A941616170618060906089500240A9471
:104CD00012161306140605060895092E0394000CF7
:104CE00011F4882352F0BB0F40F4BF2B11F460FF86
:104CF00004C06F5F7F4F8F4F9F4F089557FD9058AF
:104D0000440F551F59F05F3F71F04795880F97FB8F
:104D1000991F61F09F3F79F0879508951216130649
:104D20001406551FF2CF4695F1DF08C01616170678
:104D30001806991FF1CF86957105610508940895AD
:104D4000E894BB2766277727CB0197F90895052EAE
:104D500097FB1EF400940E94BE2657FD07D00E94C8
:104D6000102707FC03D04EF40C94BE2650954095B6
:104D7000309521953F4F4F4F5F4F08959095809507
:104D8000709561957F4F8F4F9F4F08950E943227F6
:104D9000A59F900DB49F900DA49F800D911D11248F
:104DA0000895B7FF0C94C6260E94C626821B930B5B
:104DB00008952F923F924F925F926F927F928F92BF
:104DC0009F92AF92BF92CF92DF92EF92FF920F939A
:104DD0001F93CF93DF93CDB7DEB7CA1BDB0B0FB6A4
:104DE000F894DEBF0FBECDBF09942A883988488861
:104DF0005F846E847D848C849B84AA84B984C884F7
:104E0000DF80EE80FD800C811B81AA81B981CE0FED
:104E1000D11D0FB6F894DEBF0FBECDBFED010895D2
:104E2000A1E21A2EAA1BBB1BFD010DC0AA1FBB1FAE
:104E3000EE1FFF1FA217B307E407F50720F0A21B20
:104E4000B30BE40BF50B661F771F881F991F1A948D
:104E500069F760957095809590959B01AC01BD01B7
:104E6000CF010895A29FB001B39FC001A39F700D11
:104E7000811D1124911DB29F700D811D1124911D62
:104E800008950E9448276894B1110C94A1260895B2
:104E90000E94862688F09F5798F0B92F9927B7511E
:104EA000B0F0E1F0660F771F881F991F1AF0BA95CE
:104EB000C9F714C0B13091F00E94A026B1E0089566
:104EC0000C94A026672F782F8827B85F39F0B93F58
:104ED000CCF3869577956795B395D9F73EF4909581
:104EE0008095709561957F4F8F4F9F4F089519F46E
:104EF00016F40C945C260C94BD270E948626B8F309
:104F00009923C9F3B6F39F57550B87FF0E94CB2710
:104F10000024A0E640EA900180585695979528F421
:104F2000805C660F771F881F20F026173707480719
:104F300030F4621B730B840B202931294A2BA69570
:104F400017940794202531254A2758F7660F771FB5
:104F5000881F20F026173707480730F4620B730BC1
:104F6000840B200D311D411DA09581F7B901842FBF
:104F70009158880F9695879508959F3F31F09150ED
:104F800020F4879577956795B795880F911D96952D
:104F9000879597F9089591505040660F771F881FA5
:104FA000D2F70895DB018F939F930E94C626BF918D
:104FB000AF91A29F800D911DA39F900DB29F900D68
:104FC00011240895991B79E004C0991F961708F0E1
:104FD000961B881F7A95C9F78095089597FB072E31
:104FE00016F4009407D077FD09D00E94022807FC30
:104FF00005D03EF4909581959F4F089570956195E9
:105000007F4F0895AA1BBB1B51E107C0AA1FBB1FFE
:10501000A617B70710F0A61BB70B881F991F5A9544
:10502000A9F780959095BC01CD010895EE0FFF1F63
:105030000590F491E02D0994A0E0B0E0E2E2F8E2FE
:105040000C94DD26EC01009721F4CB010E94C023D3
:10505000B4C0FC01E60FF71F9C0122503109E21792
:10506000F30708F4A8C0D9010D911C9111970617F8
:105070001707B0F00530110508F49BC0C80104976C
:105080008617970708F495C002501109061B170BE5
:10509000019311936D937C93CF010E94582489C092
:1050A0005B01A01AB10A4C01800E911EA0918907E4
:1050B000B0918A07612C712CE12CF12C109709F426
:1050C00046C08D919C911197A815B905B1F56C0159
:1050D00042E0C40ED11CCA14DB0478F14C018A18DA
:1050E0009B08640142E0C40ED11C1296BC9012973A
:1050F0001396AC91B5E0CB16D10440F0B282A383F5
:1051000091828082D9016D937C9309C00E5F1F4FFD
:10511000800F911FF90191838083EB2DFA2FE11409
:10512000F10431F0D7011396FC93EE93129741C02E
:10513000F0938A07E09389073CC06816790608F463
:105140003C017D0112960D90BC91A02DB7CF8091AE
:1051500087079091880788169906E1F46616770606
:10516000C8F48091010190910201009741F48DB73C
:105170009EB74091050150910601841B950BE817DD
:10518000F907C8F4F0938807E0938707F901718362
:1051900060830FC0CB010E94C0237C01009759F0AF
:1051A000A801BE010E94E728CE010E945824C70131
:1051B00004C0CE0102C080E090E0CDB7DEB7EEE0E3
:1051C0000C94F92681E090E0F8940C940029FB01FE
:1051D000DC0102C001900D9241505040D8F7089573
:1051E000FB01DC018D91019080190110D9F3990B1D
:1051F0000895FB01DC0101900D920020E1F7089574
:1052000015E0CCE0D5E004C0FE010E9416282196EE
:0A521000CD30D107C9F7F894FFCFA5
:10521A000100008B0780000100000000000000FF71
:10522A00FF0100FFFF010000000000000000000174
:10523A0000FFFF0100FFFF00000000FFFF0100E088
:10524A00FF2000FFFFFFFFFFFFFFFF8006001FBDDB
:10525A00F6FBDFBDF6FBDFBDF6FBDF8000001FBDFE
:10526A00BFDBDFBDBFDBDF8186181FFDF6FBFFFD5D
:10527A00F6FBFFFD801BFFFDB9DBFFFDB9DBFE007E
:10528A0030C007FDBFDBFFFDBFDBFFFD801BFFFD5D
:10529A00BFDBFFFDBFDBFF8006001FBDF6FBDFBDE6
:1052AA00F6FBDF8C00031FEDBFDB7FEDBFDB7F81E9
:1052BA0086181FBFF6FFDFBFF6FFDF8000001FFF63
:1052CA00FFFFFFFFFFFFFF00000000000000007F5C
:1052DA00F9FFE0420904204209042042090420FFA0
:1052EA00FFFFFE42402420424024207E79E7E0026C
:1052FA00000400020004000200040002000400028C
:10530A00000400020004000200040002000400027B
:10531A0000040002000400020004007FF9FFE042DA
:10532A000904204209042073F9FCE0124024801287
:10533A004024807E79E7E040090020400900207F70
:10534A00FFFFE0000000000000000000001E003B1C
:10535A0000010007000000020005000000230039D8
:10536A000001000700000002000500000006003EE0
:10537A00000100000000000200050001000B0042CD
:10538A00000100000000000700030001002C0032A9
:10539A0000010000000000070003000000000002F6
:1053AA000001000000000007000500000000006C7A
:1053BA000001000000000007000500000036002C74
:1053CA000001000000000007003200000000003D5C
:1053DA000A3705820581057469746C65006E657704
:1053EA0067616D65006E65776C6576656C006E65E4
:1053FA00776C6966650063686173650072756E6EC5
:10540A00696E670067616D656F76657200736361C7
:10541A00747465720020204C4153542020202020AF
:10542A0020202020484947480020413A20504C413A
:10543A00592020202020433A205155495400474101
:10544A004D45204F56455200505245535320422055
:10545A00544F20434F4E54494E5545000D0A004CB7
:06546A004F4144455200D1
:00000001FF
