:100000000C9471050C9499050C9499050C94990520
:100010000C9499050C9499050C9499050C949905E8
:100020000C9499050C9499050C9499050C948313E0
:100030000C9499050C9499050C9499050C949905C8
:100040000C9439130C9499050C9499050C9499050A
:100050000C9499050C9499050C9499050C949905A8
:100060000C9499050C949905370637062706340633
:1000700027062706340627063706370637063406CE
:100080005F066B064A066B066E066206620662062D
:100090006B066E0662066E06820682068206C80639
:1000A000D406AC06D106AC069706A9068206BF06A2
:1000B000D406CB06CE06DC090D0A200A6A0ABC0962
:1000C000E9098E0AF509390A5E0ADC09450A510A6E
:1000D0001F302E302B303D301C3025304030283042
:1000E00031303A30223034303730D21CD21CCE1C62
:1000F000C21CDA1CC61CE11CC61CC61CCA1CD21CB5
:10010000CA1CD61CA52626275026842739278427D3
:100110006926F4268427D726E12684274627175305
:100120004400161378001613140015102000152033
:100130001000540A03E181867F3E186D830F0F0E75
:100140000183866033186DC3198F1803C38E603323
:10015000186DE330CF1803C39E603630CDE360CF17
:100160003006C79E7E3E30CDB360CF300CC6F66001
:100170003330D9B660CF33CFCCF66061B0DB1E60D0
:10018000CF30D86CE6C061B0DB1E618F19986CC6A9
:10019000C063B19B0E330F0FB078C6FF7E1F1B06E6
:1001A0001E0F00401E0000000000000000000000C4
:1001B000FFFFFFFFF0000000813204081000000084
:1001C0009F3264F990000000813204383000000052
:1001D000F9327CF99000000081027C099000000057
:1001E000FFFFFFFFF0000000810204081000000084
:1001F0009F326739F00000009F060738700000004A
:100200009F326739F000000081326738100000002B
:10021000FFFFFFFFF0000000604C932060600000D3
:10022000264C91264001F80020CC9226400DF82063
:10023000A64C932640810FE4204093204001BF80CC
:100240003FFFFFFFC001F80007FFFFFE0001F800BD
:1002500000FFFFF00001F800001FFF800001980080
:100260000003FC0000FFFFF0000060000000000839
:1002700000000000000000080000000000C30C089F
:10028000000000000034D3480000000000CB2CB870
:1002900000000000000806FC84ECDC84FC100A006E
:1002A000003FE03FE03DA03DA03FE03FE03FE038C1
:1002B000E038E0100A00003FE03FE03DA03DA03FF5
:1002C000E03FE03FE03FE001C0100A3FE03FE03D9B
:1002D000A03DA03FE03FE03FE03FE00F00070010FF
:1002E0000A3FE03FE03DA03DA03FE03FE03FE03F70
:1002F000E007800700100A3FE03FE03DA03DA03F3F
:10030000E03FE03FE03FE00F800E00100A3FE03F9B
:10031000E03DA03DA03FE03FE03FE03FE01DC01CCE
:10032000000808007E6C6C7E7E7E6608087E6C6C21
:100330007E7E3C3C0C08087E6C6C7E7E383818084B
:10034000087E6C6C7E7E1C1C180808007E6C6C7E1F
:100350007E3C30180300380000000000380018040C
:1003600000000000380000380000380018030000CA
:1003700000001E000008001802000000001C001809
:100380000501002001FFE001D7E001FFE0010020AE
:10039000180400C7E000FFE000C7E0007C0018057B
:1003A00000008000FFA800FFFC00FFA800008018EC
:1003B0000500002000FFF000FC0000FC0000FFF042
:1003C000180500001000C7F000C7F000C7C000FC0F
:1003D0000018040000100063F0007FF0007C00189B
:1003E000040000040021FC0037F000310018040074
:1003F00000C000FFFE00FFE000E3001804000080E2
:100400000000F80001F80001C018030000F000012E
:10041000E00001001806C00000F000007C00001F92
:1004200000000780000180000809007E7E7E7E7E3D
:100430007E7E6608097E7E7E7E7E7E3C3C0C0809C0
:100440007E7E7E7E7E7E3838180809007E7E7E7E27
:100450007E1C1C180809007E7E7E7E7E7E3C30015C
:1004600001FF030101F70363045F0400000000249F
:100470000027002A0000000000250028002B0005AE
:10048000008930080238024978681400004C415352
:1004900054204D415020554E4C4F434B4544210074
:1004A0004C4153455220554E4C4F434B454421003F
:1004B0004449534B20554E4C4F434B454421000576
:1004C000003801680100004E4557204D415020552D
:1004D0004E4C4F434B45442100414B494D424F2028
:1004E000554E4C4F434B454421004752454E4144E5
:1004F000455320554E4C4F434B454421004D4143FD
:1005000048494E4547554E20554E4C4F434B454468
:100510002100534E4950455220554E4C4F434B45B8
:100520004421004E4557204D415020554E4C4F43DD
:100530004B454421004D494E455320554E4C4F43A9
:100540004B454421005245564F4C56455220554E7E
:100550004C4F434B45442100434C554220554E4C93
:100560004F434B45442100524F434B455453205574
:100570004E4C4F434B454421004E4557204D415072
:1005800020554E4C4F434B4544210053484F544750
:10059000554E20554E4C4F434B45442100050040DD
:1005A0000150015C01700180016C01540160017413
:1005B0000184014C015C0168017C018C0100005246
:1005C00049464C4520554E4C4F434B454421004D28
:1005D000494E4500524F434B4554004752454E410A
:1005E0004445004C41534552004449534B004D4152
:1005F0004348494E4547554E005249464C450053E5
:10060000484F5447554E00534E49504552005245AD
:10061000564F4C56455200414B494D424F005049B0
:1006200053544F4C00434C554200433A20524553DB
:10063000554D4500423A20534156452026205155FC
:1006400049540047414D45205041555345440047CA
:10065000414D45204F56455221004E4557204849AF
:10066000474853434F524521000A0A153A49676EDD
:100670006F7265006D560A0A504C4541534520542F
:1006800055524E204F464620004C4F572042415471
:100690005445525921200003053F213F1208120AF8
:1006A000100A0E1C0E0C1E0C141A14161F161E1304
:1006B0001E1E1B1E1E1F1E3F213F3A2F3A173D17BD
:1006C0003F213F181F02040A041F0E04040E1F0AD4
:1006D0001F0A0E0E1F04110E2E252E2F2A2E26293C
:1006E00029021F02081F08150E04040E150E151509
:1006F0001B151B040604040C040000000017000373
:1007000000031F0A1F16371A1904130A153A0003AB
:1007100000000E11110E000A040A040E040030003D
:100720000404040010001804031F111F121F101DE1
:10073000151711151F07041F17151D1F151D010182
:100740001F1F151F17151F000A00003200040A1191
:100750000A0A0A110A040115020E11171E051E1FAE
:10076000150A0E110A1F110E1F15111F05010E117A
:100770001D1F041F111F1108100F1F041B1F101035
:100780001F061F1E040F0E110E1F09060E112E1F2D
:10079000051A121509011F011F101F0F180F1F0C3A
:1007A0001F1B041B031C03191513001F110304183E
:1007B000111F000201022020200001020C121E1F46
:1007C000120C0C12120C121F0C1A14041E05242AEF
:1007D0001E1F021C141D1020201D1F0814111F10A5
:1007E0001E041E1E021C0C120C3E0A040C123E1E9D
:1007F000040214160A020F120E101E0E100E1E080E
:100800001E120C1226281E322A26041E21001F004A
:10081000211E040102013F213FF6E8DBCFC3B8AE41
:10082000A49B928A827B746E68625C57524E4945E3
:10083000413E3A3734312E2C29272523211F1D1CF8
:100840001A1917161514131211100F0E0D0C0B0A8E
:1008500009080706172B152010204C4F414445521C
:1008600000172B1620131400058001804988200FE3
:10087000000045008401000045006801000005807B
:100880004D7849781803000005004D7849787006C6
:100890000000450049703403000045002C010000B1
:1008A00045004001418149788D782C050000458044
:1008B000018089885C3C00002018FFFE7FFF8000DB
:1008C000000180000001F007E00F800000018000BF
:1008D000000187FC3FE18000000180000001F0037F
:1008E000C0018003C1FF8003C03F8FFFC0038003AE
:1008F000FC0380000003FC000003C00C01FFC00CDF
:10090000003FCFFC030FC00F030FC003C00FFC005C
:10091000000FFFC0000FFFFFFF0F1810FFE7FF8061
:10092000000180000180000183FFC1800001800080
:1009300001F8001F8000018000018FC3F1800001D9
:10094000800001F03C0FF3FFCFF3FFCF1810FFE75B
:10095000FF800001800001803C01800001800001D7
:1009600087E7E1800001800001FC183FE00007E01C
:100970000007E0FF07E00007E00007FFC3FF1810D3
:10098000FFE7FF80000180000180000180000183FB
:10099000FFC1800001800001FC003F800001800059
:1009A0000187FFE1800001800001F8001FFFC3FF05
:1009B000100AFE7F800180018FF180018001FC3FE1
:1009C000800180019FF94C4F434B454421004E6507
:1009D000787420756E6C6F636B3A200053636F728E
:1009E000653A2000112053656C656374206D617059
:1009F00020100008067CE0C0E0FC7C0806FC00003B
:100A000000FCFC0806F4FCBCF8FCDC08067C8080DA
:100A10008094E80806FC000018A4580806FC10287A
:100A20004480FC0806FC24FC90FC48450049784DB5
:100A300078280A0000050049704D885403000057CB
:100A40004541504F4E204348454154000A4E6F20C7
:100A500053442063617264206F720A6E6F204C4FA2
:100A6000414445522E4845580A0A153A457869745A
:100A7000001D20466C617368696E670A20206C6FE8
:100A8000616465722E2E2E0A0A444F4E275420545C
:100A900055524E204F4646210000000000230026FC
:100AA00000290004040404040404040202020202F3
:100AB0000203030303030301020408102040800122
:100AC00002040810200102040810200000000800A1
:100AD0000201000003040700000000000000000005
:100AE000B83111241FBECFEFD8E0DEBFCDBF11E07B
:100AF000A0E0B1E0EEEBF9E602C005900D92AA3B52
:100B0000B107D9F727E0AAEBB1E001C01D92A133EC
:100B1000B207E1F715E0C1E7D5E004C02197FE0177
:100B20000E94BE34C037D107C9F70E94CA2A0C946C
:100B3000DD340C94000080E390E0089588E490E0B8
:100B4000089580E290E0089580E090E00895FC012F
:100B5000858518161CF08FEF9FEF089584E690E0CE
:100B60000895FC01858518161CF08AE090E0089530
:100B700084E090E00895FC018385882319F080E5E6
:100B800090E0089580E490E00895FC018385882337
:100B900019F088E490E0089580E390E00895FC0166
:100BA000818990E09195819591090895FC01818951
:100BB000811103C088E290E008958AE090E00895F2
:100BC00088E090E00895DC011B962C91293011F00B
:100BD0002E3039F4DC01ED91FC910684F785E02D8F
:100BE000099480E090E00895DC011B96EC91E350BD
:100BF000EC3040F4F0E0EF5EFE4F8081082E000CF8
:100C0000990B08958EE190E00895DC011B96EC911C
:100C1000E250EC3040F4F0E0EB5FFE4F8081082EB4
:100C2000000C990B089585E090E0089580E890E02D
:100C30000895DC011B96EC914E2F50E0FA0133979A
:100C4000EC30F10520F4EC5CFF4F0C94BE34FC0159
:100C50008681978197FF03C091958195910941976E
:100C600034F482E090E0089585E090E0089580E01B
:100C700090E00895CF93DF93DC011B96EC914E2F0B
:100C800050E0FA013397EC30F105E0F4E05CFF4FFF
:100C90000C94BE34EC01E881F9810280F381E02DEF
:100CA00009954297DCF0E881F9810280F381E02D1B
:100CB000CE01099597FD01969595879511C088E11C
:100CC00090E00EC0DC01ED91FC910280F381E02DFB
:100CD000DF91CF91099480E190E002C088E090E03C
:100CE000DF91CF910895DC011B96EC911B974E2F5D
:100CF00050E04F30510508F054C0FA01E45BFF4F5B
:100D00000C94BE3416968D919C9117979C01295F87
:100D10003F4F2F30310508F44AC097FF03C091952B
:100D200081959109813191050CF443C037C0169625
:100D30008D919C9117979C01295F3F4F2F30310572
:100D4000B0F197FF03C09195819591098931910583
:100D500084F188E190E0089516968D919C91179703
:100D60009C01295F3F4F2F30310508F197FF03C0E9
:100D700091958195910981329105DCF012C01C9604
:100D80008C9128E08202C0011124813391058CF0FE
:100D900080E390E0089580E091E0089580E190E0A4
:100DA000089580E290E0089580E690E0089588E05C
:100DB00090E00895EF92FF920F931F93CF93DF93EC
:100DC0008C01DC011296CD91DC911397CE01D7FDF9
:100DD0000796F3E095958795FA95E1F72091BD0187
:100DE0003091BE017C01E21AF30AD801ED91FC9129
:100DF0000280F381E02DC80109952091BD01309159
:100E0000BE018C0F9D1F97FD0796E3E09595879592
:100E1000EA95E1F7821B930B8E0D9F1D97FF02C091
:100E200081E050C0F8018281938197FD079673E0BD
:100E3000959587957A95E1F7821B930B85359105FA
:100E40007CF7D8011496CD91DC911597CE01D7FD92
:100E5000079663E0959587956A95E1F72091BB0128
:100E60003091BC017C01E21AF30AD801ED91FC91AA
:100E70000480F581E02DC80109952091BB013091D6
:100E8000BC018C0F9D1F97FD079653E095958795A4
:100E90005A95E1F7821B930B8E0D9F1D97FDC0CFD6
:100EA000F8018481958197FD079643E09595879594
:100EB0004A95E1F7AC01421B530B81E041335105E8
:100EC0000CF480E0DF91CF911F910F91FF90EF9094
:100ED000089584E690E0089585E090E0089580E02C
:100EE000089508952F923F924F925F926F927F9252
:100EF0008F929F92AF92BF92CF92DF92EF92FF922A
:100F00000F931F93CF93DF93CDB7DEB728970FB61C
:100F1000F894DEBF0FBECDBF8091BD019091BE01A0
:100F2000E6E0F0E0BF010E94AA34262F6C837D83A7
:100F30008091BB019091BC01BF010E94AA348B013A
:100F4000E0912F04F0913004A490B12C3196E491FB
:100F5000EE2EF12C862F880F860F880F8A83822F22
:100F6000880F280F220F2B83412C70E3872E912CA2
:100F7000702E2A81240D29833C813F838D818887AF
:100F8000312C9FEF900F9E83AF81B885B7FD49C08C
:100F9000AA15BB050CF045C017FD43C00E151F0573
:100FA0000CF03FC02F80472D622D80912F0490912F
:100FB00030040E9426238823A1F1C0903304D090EE
:100FC000340480912F04909130040E946416B4017F
:100FD0000E94AA34615071090617170774F40115AD
:100FE000110559F04E816F8180912F04909130044A
:100FF0000E942623882309F4A0C5C0903104D09014
:101000003204612C512C8091BB016981681B909145
:10101000BD018B81830D891B252DA60186190E9498
:101020002125EF81F8853196F887EF83F6E03F0EB2
:101030002AE53212A9CF0F5F1F4F4F0E36E343123E
:1010400097CF8EEE91E00E94DA0681112CC040917C
:10105000F2015091F30157FF02C0495F5F4F63E017
:10106000559547956A95E1F78091BB019091BC0138
:10107000481B590B6091F0017091F10177FF02C09C
:10108000695F7F4F53E0759567955A95E1F78091B9
:10109000BD019091BE01681B790B25E932E088EF14
:1010A00096E00E9453238AEF91E098878F8302E1B4
:1010B00013E086E0E82EF12C96E1592E25E0C22EB1
:1010C000D12C3AE0632EAF81B8851C968C911C9789
:1010D000882309F48AC0CD010E94DA06811185C0F7
:1010E000EF81F885428521E014160CF420E0AF81F1
:1010F000B8851B968C911B97A090BD01B090BE0146
:101100008090BB019090BC011296ED91FC911397D9
:10111000042E000C550B14963C91149715967C9058
:10112000811131C04E9FC0014F9F900D5E9F900D69
:10113000112497FD0F96B4E095958795BA95E1F740
:1011400081509F4FB6010E94AA34869DA0011124B0
:101150004F5D5C4F632F772D77FF02C0695F7F4F34
:10116000A3E075956795AA95E1F768197909F7FDE8
:10117000379673E0F595E7957A95E1F7CF018A19EF
:101180009B09815030C04E9FC0014F9F900D5E9FC4
:10119000900D112497FD0F9644E0959587954A95FB
:1011A000E1F781509F4FB7010E94AA34859DA001AD
:1011B000112443565D4F632F772D77FF02C0695F7F
:1011C0007F4FB3E075956795BA95E1F7681979098E
:1011D000F7FD3796A3E0F595E795AA95E1F7CF01DE
:1011E0008A199B0984500E942125EF81F8853E963B
:1011F000F887EF830E171F0709F065CF83E193E0AF
:101200000E94DA06811163C220911D03F1E0FA8386
:1012100012160CF41A820091150310911603809196
:10122000190390911A03892BA1F02003C001219F7B
:10123000900D112497FD4F96F5E095958795FA95B9
:10124000E1F781509F4F65E070E00E94AA348983E6
:1012500001C0198260911703709118036F5F7F4F6F
:1012600028E430E040E350E0C8010E949724811157
:101270000BC080911B0390911C0397FF03C024E0D7
:10128000298302C031E0398399818BE0989FA001C6
:101290001124485D5B4F609117037091180377FF2D
:1012A00002C0695F7F4FE3E075956795EA95E1F7C6
:1012B0008091BB019091BC01681B790B8091150353
:1012C0009091160397FD079673E0959587957A950B
:1012D000E1F72091BD013091BE01821B930B2A8161
:1012E00081500E942125E0912003F0912103A280EA
:1012F000B380B7FE03C0A7E0AA0EB11C53E0B594BB
:10130000A7945A95E1F78091BD019091BE01A81A6A
:10131000B90AB9E0AB1AB1082481358138872F8327
:1013200037FF04C0295F3F4F38872F838F8198850F
:1013300043E0959587954A95E1F798878F8380914B
:10134000BB019091BC01AF81B885A81BB90BB887D0
:10135000AF833285DD24D39413160CF4D12CE091A5
:101360001E038E2F90E08D30910508F0D7C0FC0150
:10137000E55AFF4F0C94BE3420911F03293070F4BE
:101380003203C001112497FD019695958795A80E0B
:10139000B91E34E1E32E34E0F32E02C0E12CF12C2F
:1013A000EF81F8853297F887EF8300E010E0E114D1
:1013B000F10409F4B7C099C02F8138852D5F3F4FE4
:1013C00038872F8300E010E089E0E82E84E0F82ED3
:1013D0008CC08F819885029698878F8300E010E0FB
:1013E000BBEFEB2EB3E0FB2E80C0AF81B885129629
:1013F000B887AF8380911F03853020F0832F330F90
:10140000990B02C080E090E0A81AB90A07E713E040
:10141000ADEEEA2EA3E0FA2E68C0EF81F885329691
:10142000F887EF8320911F033203C0011124A81A0B
:10143000B90A0CE613E0FFEDEF2EF3E0FF2E55C0E6
:101440008F819885039698878F8320911F0332039D
:10145000C001112497FD03969595879595958795DD
:10146000A81AB90A07E713E0E1EDEE2EE3E0FE2E3D
:101470003CC0AF81B8851396B887AF830EE513E003
:1014800060ECE62E63E0F62E30C0EF81F8853296F0
:10149000F887EF8300E010E05FEAE52E53E0F52ED9
:1014A00024C02F8138852E5F3F4F38872F8300E07F
:1014B00010E04EE9E42E43E0F42E17C08F819885AA
:1014C000049698878F8303E513E030E9E32E33E039
:1014D000F32E0BC0AF81B8851196B887AF8300E0BB
:1014E00010E02FE7E22E23E0F22E2D2DA7016F81D1
:1014F0008A2D0E94212501151105A1F010921807CF
:10150000109219072D2DA8016F818A2D0E94212587
:1015100081E0809318078093190704C0E12CF12C17
:1015200000E010E080911E038A3031F5E114F104EF
:1015300009F430C32D2D30E02F5F3F4F217033274A
:10154000A7016F818A2D0E94212501151105A1F0A7
:1015500010921807109219072D2D30E02F5F3F4F82
:1015600021703327A8016F818A2D0E94212581E0F7
:10157000809318078093190780911E038C30D9F54A
:101580001092180710921907E0912003F09121039F
:1015900080911F0365E00E949E3426E0281B448151
:1015A000558157FF02C0495F5F4F93E055954795BE
:1015B0009A95E1F78091BB019091BC01481B590BB2
:1015C0004C5F6281738177FF02C0695F7F4F83E068
:1015D000759567958A95E1F78091BD019091BE015F
:1015E000681B790B88EF96E00E94FC1481E08093E1
:1015F00018078093190780911E038B3019F08630ED
:1016000009F065C0A0912003B09121031A962C9196
:101610001A97E091BD01F091BE018091BB019091BC
:10162000BC0160911F0314963C9114973A83159660
:101630007C91159712963C911297398313963C91A1
:10164000121614F56695669524E0261B4A81572FDD
:1016500057FF02C0495F5F4F03E0559547950A95D4
:10166000E1F7481B590B4C5F6981732F77FF02C06C
:10167000695F7F4F13E0759567951A95E1F76E1BCB
:101680007F0B6A5F02E01FC04A81572F57FF02C0DD
:10169000495F5F4FB3E055954795BA95E1F7481B11
:1016A000590B4C5F8981932F97FD0796A3E0959581
:1016B0008795AA95E1F78E1B9F0B669566956450FA
:1016C000680F02E024E088EF96E00E9418158091F0
:1016D0002403882361F08BE293E098878F83EFE205
:1016E000EE2EE4E0FE2E12E0DD24D39428C180919A
:1016F0003704882381F3809015039090160320917E
:10170000F0013091F101285E3F4F28193909890114
:1017100008511109680117FF04C0690191E1C91A54
:10172000D10873E0D594C7947A95E1F7A090170398
:10173000B09018032091F2013091F301285E3F4FE1
:101740002A193B09D9019497B887AF837D01B7FF68
:1017500004C07901BDE1EB1AF10863E0F594E79468
:101760006A95E1F7CC9CB001CD9C700D700D1124F1
:10177000EE9CC001EF9C900D900D1124680F791F15
:10178000072E000C880B990B0E943A330E941134EB
:101790000E940233FB01653171050CF49CCF94016A
:1017A000285E3F4F37FF02C0295F3F4F43E035952A
:1017B00027954A95E1F78091BD019091BE01281BC4
:1017C000390BC60154E0880F991F5A95E1F7BF0104
:1017D0000E94AA34260F371FB5016C5D7F4F77FF3B
:1017E00002C0695F7F4F93E0759567959A95E1F721
:1017F0008091BB019091BC016B01C81AD90AC70145
:1018000034E0880F991F3A95E1F7BF010E94AA348E
:101810006C0D7D1D4F81588557FF02C0415C5F4FA5
:1018200086E0559547958A95E1F7E42FE60FEA8320
:10183000A80117FF02C0415C5F4FB6E05595479580
:10184000BA95E1F7F42FF20FF983B62E422F8A8171
:10185000E82E880FFF08E61AF10867FDF394F7FEFB
:1018600003C0F194E194F1089981C92E990FDD0824
:10187000C21AD10827FDD394D7FE03C0D194C194D6
:10188000D108CE14DF0434F08A81A981AA83898328
:10189000B22E462FBA81BB152CF089814983482F7F
:1018A000BA82BB2EAB2CEA81AE1A842F042E000C18
:1018B000990BF9818F1B9109F7FD939597FF03C051
:1018C000919581959109082F1A2DA7FE02C011E06C
:1018D0001A0D1595298124171CF49924939402C09C
:1018E00099249A943A81B3160CF4F5CECE14DF0401
:1018F0001CF4432F698102C049816A8188EF96E018
:101900000E94A414101B17FF04C08981890D8983CC
:101910001A0D9A819F5F9A83E5CFEF81F8859485B0
:10192000911118C0D0921807D0921907EF81F8854D
:101930003D96F887EF83EE16FF0609F470C0AF817D
:10194000B8851B968C918D3041F710931807109332
:101950001907E3CF8C3021F410931807109319075F
:101960008F8198850E94DA068111DCCFAF81B8851E
:10197000ED91FC9111970480F581E02DCD01099541
:10198000C82E092FAF81B885ED91FC911197028087
:10199000F381E02DCD010995EC2DF02FF7FD379661
:1019A000A3E0F595E795AA95E1F79C0197FF02C0A2
:1019B000295F3F4F73E0359527957A95E1F7AF8121
:1019C000B88514964D915C91159757FF02C0495FF9
:1019D0005F4F63E0559547956A95E1F78091BB01AC
:1019E0009091BC01481B590BAF81B88512966D913F
:1019F0007C91139777FF02C0695F7F4F33E0759545
:101A000067953A95E1F78091BD019091BE01681B01
:101A1000790B0E2F88EF96E00E94181583CF109255
:101A20001907409125035091260360E070E02AE0F9
:101A300088EF96E00E948A1160EB71E088EF96E0F3
:101A40000E9475111091D501112309F4A8C01C3012
:101A500010F41C5001C010E06091C9017091CA01DE
:101A6000072E000C880B990B0E94C02A909100074A
:101A7000F091FC069F9F902D1124989F802D11249A
:101A80008983FF24F394F0920007F0921807F092F4
:101A900019070091FD0692E0C92EC00EB82EB3942E
:101AA000B394EE24EA94E10ED82ED69428E22D19B0
:101AB0002A832B2D4E2D6A8188EF96E00E94FC141C
:101AC00041E0400F4E0D2B2D6A8188EF96E00E9479
:101AD000FC142C2D4E2D6A8188EF96E00E940F1683
:101AE00039813F5F3983632F8A81680F2C2D4E2DFA
:101AF00088EF96E00E940F161092180710921907AF
:101B00000091FD060F5F69E26D1929814E2D88EF66
:101B100096E00E941815F0921807F092190710939A
:101B200002078091C9019091CA010E946E168091AE
:101B3000D50181508093D50132C0809135049091B8
:101B40003604892B09F45DCA472D61E0620D80914E
:101B50002F04909130040E942623811109C0C09067
:101B60003504D090360482E0682E5524539402C088
:101B7000612C512C6FEF620D472D80912F049091B5
:101B800030040E94262381113ECAC0903504D090B3
:101B9000360439CA0115110509F0DACC98CD28961A
:101BA0000FB6F894DEBF0FBECDBFDF91CF911F916E
:101BB0000F91FF90EF90DF90CF90BF90AF909F90EC
:101BC0008F907F906F905F904F903F902F900895EF
:101BD00080E890E0909316038093150386E990E0E7
:101BE000909318038093170381E080931D03109254
:101BF0002603109225031092240310921F03EBE298
:101C0000F3E014863D9684E0EF32F807D1F783E1E4
:101C100093E090932103809320038AE08093F9015D
:101C2000EAEFF1E0148615863E9683E0E231F8078C
:101C3000C9F70E94431F10921E0310922A031092AC
:101C4000290308958F929F92AF92BF92CF92DF9215
:101C5000EF92FF920F931F93CF93DF9380911A0718
:101C6000882309F4D1C081E0809300071092FF0619
:101C70001092FE0610925006809318078093190761
:101C8000C2EAD1E01CE00E94FA168823E1F3FE01CB
:101C90008491882319F00091FD0601C000E022E341
:101CA00031E040E060E088EF96E00E9453234CE092
:101CB000400F23EA31E060E088EF96E00E94532372
:101CC000109201071093020762EA71E088EF96E034
:101CD0000E9451118091FC06982F990F890F8195D0
:101CE0008D5A809301078091FD06982F990F890FD7
:101CF0008195835D8093020780911B0784FF03C059
:101D00006EE271E002C06AE271E088EF96E00E9444
:101D1000D3118091FC06982F990F890F81958D5AC8
:101D200080930107809102078F5F80930207809163
:101D30006E06882319F066E271E002C062E271E08B
:101D400088EF96E00E94D3118091FC06982F990F9E
:101D5000890F81958D5A80930107809102078F5FCB
:101D6000809302076EE171E088EF96E00E94D31144
:101D700080914E068130C9F480916E068F5F60912C
:101D80006F0687FD09C0082E000C990B70E06F5F8D
:101D90007F4F0E94AA34682F60936E0640E068E788
:101DA00078E08DE596E00E946F1480914D068130B9
:101DB000B9F080911A07482F50E060E070E0C090C1
:101DC0001B07D0901C07E0901D07F0901E07C4165B
:101DD000D506E606F70608F464C08F3F09F461C033
:101DE0008FEF80931A0760E08DE596E00E9446141D
:101DF0001092610640E06FEB74E08DE596E00E9482
:101E00006F1481E080935006C0905206D090530624
:101E1000C094D094E12CF12C0E94DA124B015C01A9
:101E20000E94DA12A50194012095309540955095B5
:101E300060957095809590950E948E349B01AC01C1
:101E4000C701B6010E948E346B017C016091390696
:101E500070913A064B01A12CB12C0E94DA12DC01E0
:101E6000CB01880D991DAA1DBB1DBC01CD016C0DB8
:101E70007D1D8E1D9F1D611571058105910511F058
:101E80000E94803210925006DF91CF911F910F91E6
:101E9000FF90EF90DF90CF90BF90AF909F908F908A
:101EA000089580914F06813009F0EDCE0E94402ABE
:101EB000EACEEF92FF920F931F93CF93DF93EC0143
:101EC000E881F9810680F781E02D0995288539851B
:101ED000820F931F99878887EE80FF80E881F981C0
:101EE0000284F385E02DCE01099504E610E0980107
:101EF000281B390B2E9DC0012F9D900D3E9D900DEE
:101F00001124B8010E94AA347F836E83E884F98487
:101F1000E881F9810484F585E02DCE0109959801C9
:101F2000281B390B2E9DC0012F9D900D3E9D900DBD
:101F30001124B8010E94AA34798768870E811F8115
:101F4000E881F9810084F185E02DCE010995919514
:101F500081959109E881F981081719074CF40084EB
:101F6000F185E02DCE01099591958195910914C0D7
:101F70000E811F810084F185E02DCE010995801727
:101F8000910744F4E881F9810084F185E02DCE01C8
:101F9000099502C08E819F819F838E830885198554
:101FA000E881F9810084F185E02DCE0109959195B4
:101FB00081959109E881F981081719074CF400848B
:101FC000F185E02DCE01099591958195910914C077
:101FD000088519850084F185E02DCE0109958017CB
:101FE000910744F4E881F9810084F185E02DCE0168
:101FF000099502C088859985998788872A813B81C0
:102000008E819F81820F931F9B838A83E881F98150
:102010000684F785E02DCE01099597FF02C010E0F8
:102020005BC08E819F811816190614F00FEF01C056
:1020300001E0E881F9810480F581E02DCE01099568
:102040007C01E881F9810280F381E02DCE010995C0
:102050006C817D819701AC018A819B810E949724CC
:102060008823E9F2002E000C110B8A819B81801BD2
:10207000910B9B838A83E881F9810480F581E02DAF
:10208000CE0109957C01E881F9810280F381E02D80
:10209000CE0109956C817D819701AC018A819B817C
:1020A0000E9497248111E1CF0E811F81E881F9817F
:1020B0000684F785E02DCE0109959C01029FC001A1
:1020C000039F900D129F900D11246CE97FEF0E94E9
:1020D000AA347F836E8311E02C813D8188859985A8
:1020E000820F931F9D838C83E881F9810684F78595
:1020F000E02DCE01099597FD5BC08885998518165E
:10210000190614F00FEF01C001E0E881F9810480A5
:10211000F581E02DCE0109957C01E881F9810280ED
:10212000F381E02DCE0109956C817D819701AC0191
:102130008A819B810E9497248823D1F1002E000C74
:10214000110B8C819D81801B910B9D838C83E88179
:10215000F9810480F581E02DCE0109957C01E881AB
:10216000F9810280F381E02DCE0109956C817D819A
:102170009701AC018A819B810E9497248111E1CF54
:1021800008851985E881F9810088F189E02DCE0163
:1021900009959C01029FC001039F900D129F900D15
:1021A00011246CE97FEF0E94AA347987688711E0D7
:1021B0008E819F811816190614F481E003C0892BC3
:1021C00011F08FEF8A87812FDF91CF911F910F91AF
:1021D000FF90EF900895CF92DF92EF92FF920F93CE
:1021E0001F93CF93DF936C017A018B01C0E0D0E0A5
:1021F000CE15DF0581F0D8016D918D01D601ED91ED
:10220000FC910190F081E02DC6010995892B11F018
:102210002196EECF7E01C701DF91CF911F910F91E3
:10222000FF90EF90DF90CF9008958091E601882392
:1022300019F08091D60101C080E09091E7019923C7
:1022400019F09091D701890F9091E801992319F025
:102250009091D801890F9091E901992319F09091FB
:10226000D901890F8093B40008950E94D834CF9289
:10227000DF92EF92FF92611571058105910549F09A
:102280006B017C010E943232A70196010E949F32AD
:1022900003C060E070E0CB01FF90EF90DF90CF9043
:1022A0000895EF92FF920F931F93CF93DF938C01CA
:1022B0007B01C0E0D0E0F701EC0FFD1F64916623C5
:1022C00061F0D801ED91FC910190F081E02DC80101
:1022D0000995892B11F02196EECFCE01DF91CF9198
:1022E0001F910F91FF90EF9008956115710579F09E
:1022F000FB0101900020E9F73197AF01461B570B16
:10230000DC01ED91FC910280F381E02D099480E0E5
:1023100090E008958F929F92AF92BF92EF92FF92BA
:102320000F931F93CF93DF93CDB7DEB7A1970FB66F
:10233000F894DEBF0FBECDBF7C01FA01CB0119A21C
:10234000223008F42AE08E010F5D1F4F822E912C5F
:10235000A12CB12CBF01A50194010E94D132F90139
:10236000CA01015011096A3014F4605D01C0695C52
:10237000D8016C93232B242B252B61F7B801C701BF
:102380000E947511A1960FB6F894DEBF0FBECDBFA7
:10239000DF91CF911F910F91FF90EF90BF90AF9081
:1023A0009F908F9008950F931F93CF93DF93EC012D
:1023B0000E9451118C0160EB71E0CE010E947511F9
:1023C000800F911FDF91CF911F910F91089583305E
:1023D00081F028F4813099F08230A1F0089587309F
:1023E000A9F08830B9F08430D1F4809180008F7DDD
:1023F00003C0809180008F7780938000089584B51A
:102400008F7702C084B58F7D84BD08958091B00020
:102410008F7703C08091B0008F7D8093B0000895C6
:102420001F93CF93DF93282F30E0F901E553F54F49
:102430008491F901E954F54FD491F901ED55F54F27
:10244000C491CC23C1F0162F81110E94E711EC2F0B
:10245000F0E0EE0FFF1FEB58FB4FA591B4919FB733
:10246000F894111104C08C91D095D82302C0EC913E
:10247000DE2BDC939FBFDF91CF911F910895CF9307
:10248000DF9390E0FC01E954F54F2491FC01ED55F8
:10249000F54F8491882361F190E0880F991FFC012A
:1024A000E559FB4FC591D491FC01EB58FB4FA59129
:1024B000B491611109C09FB7F89488812095822357
:1024C0008883EC912E230BC0623061F49FB7F8949F
:1024D0008881322F309583238883EC912E2B2C9387
:1024E0009FBF06C08FB7F894E8812E2B28838FBF3B
:1024F000DF91CF9108951F93CF93DF93182FEB01B6
:1025000061E00E943F12209711F460E004C0CF3FC9
:10251000D10539F461E0812FDF91CF911F910C94A7
:102520001012E12FF0E0E553F54FE491E330F9F0BC
:1025300048F4E130B9F0E230A1F584B5806284BDA1
:10254000C8BD34C0E730E9F0E83019F1E43049F5AE
:1025500080918000806280938000D0938B00C09334
:102560008A0024C084B5806884BDC7BD1FC0809127
:102570008000806880938000D0938900C093880099
:1025800015C08091B00080688093B000C093B30004
:102590000DC08091B00080628093B000C093B40001
:1025A00005C0C038D1050CF0B5CFAFCFDF91CF91CA
:1025B0001F9108953FB7F8948091C5019091C6018D
:1025C000A091C701B091C80126B5A89B05C02F3FB7
:1025D00019F00196A11DB11D3FBFBA2FA92F982F49
:1025E0008827820F911DA11DB11DBC01CD0142E0C4
:1025F000660F771F881F991F4A95D1F708958F920C
:102600009F92AF92BF92CF92DF92EF92FF926B01B7
:102610007C010E94DA124B015C01C114D104E10477
:10262000F104F1F00E94DA12DC01CB01881999095A
:10263000AA09BB09883E9340A105B10570F321E0CA
:10264000C21AD108E108F10888EE880E83E0981ECE
:10265000A11CB11CC114D104E104F10419F7DDCFB0
:10266000FF90EF90DF90CF90BF90AF909F908F90B2
:1026700008951F920F920FB60F9211242F933F933C
:102680008F939F93AF93BF938091EA019091EB0159
:10269000A091EC01B091ED013091C40123E0230F32
:1026A0002D3720F40196A11DB11D05C026E8230F8A
:1026B0000296A11DB11D2093C4018093EA0190935D
:1026C000EB01A093EC01B093ED018091C5019091D5
:1026D000C601A091C701B091C8010196A11DB11D0D
:1026E0008093C5019093C601A093C701B093C80120
:1026F000BF91AF919F918F913F912F910F900FBEFE
:102700000F901F9018951F920F920FB60F921124E1
:102710002F933F934F935F936F937F938F939F93E9
:10272000AF93BF93EF93FF936091DA01611102C001
:1027300080E023C08091C0018F5F8093C0019091A1
:10274000DE018917A8F39091E60181E08927809343
:10275000E6011092C0018091E201882369F0809126
:10276000000193E4899F802D1124895B80930001EF
:102770000E949E349093D60181E06091DB01662334
:1027800019F19091C1019F5F9093C1012091DF01E8
:102790009217D0F09091E70181E089278093E701BB
:1027A0001092C1018091E301882369F080910001BA
:1027B00093E4899F802D1124895B809300010E94FE
:1027C0009E349093D70181E06091DC01662319F17A
:1027D0009091C2019F5F9093C2012091E0019217F6
:1027E000D0F09091E80181E089278093E801109270
:1027F000C2018091E401882369F08091000193E493
:10280000899F802D1124895B809300010E949E3452
:102810009093D80181E06091DD01662319F19091D8
:10282000C3019F5F9093C3012091E1019217D0F003
:102830009091E90181E089278093E9011092C30119
:102840008091E501882379F08091000193E4899FCC
:10285000802D1124895B809300010E949E34909307
:10286000D90101C081110E941511FF91EF91BF9113
:10287000AF919F918F917F916F915F914F913F9118
:102880002F910F900FBE0F901F901895643030F568
:1028900070E09C01260F371FF901ED5AFF4F10829F
:1028A00038971082AB01440F551FFC01E40FF51F50
:1028B000ED57FF4F11821082F901E95AFF4F108244
:1028C000FB01EA52FE4F1082FB01E652FE4F1082DE
:1028D000FB01EA51FE4F10820C9415110895EF92FE
:1028E000FF920F931F93CF93DF938C017B01C42F33
:1028F000D0E0443038F4642F0E944614F801EC0F05
:10290000FD1F1482FE01EE0FFF1FE00FF11FF4A662
:10291000E3A6FF9611821082F801EC0FFD1F81E003
:102920008483DF01A15BBF4F89E08C931C961C92CE
:1029300018961C92E559FF4F1082DF91CF911F919D
:102940000F91FF90EF900895FC01643508F053C09B
:10295000403308F050C090A1742F7595759575950A
:10296000262F062E000C330B542F57709230A1F4F3
:10297000F90184E57802E00DF11D1124E85CFB4FBC
:10298000808190E0052E02C0959587950A94E2F724
:102990008095982F91700AC0933041F4848581709E
:1029A000462740954170841303C014C0911112C092
:1029B00084E57802200D311D1124F901E85CFB4FFC
:1029C00081E090E001C0880F5A95EAF780959081E8
:1029D000892310C084E57802200D311D1124F901EE
:1029E000E85CFB4F81E090E001C0880F5A95EAF760
:1029F0009081892B80830895EF92FF920F931F930C
:102A0000CF93DF938C01F62ED42FE22EC0E0CE15AB
:102A100044F46F2D6C0F4D2FC8010E94A414CF5F9A
:102A2000F6CFDF91CF911F910F91FF90EF90089516
:102A3000DF92EF92FF920F931F93CF93DF937C016E
:102A4000D62FD22EC42F002E000C110B040F111DF7
:102A500047FD1A958C2F0C2E000C990B80179107AF
:102A600044F42D2D4C2F6D2FC7010E94FC14CF5F15
:102A7000F1CFDF91CF911F910F91FF90EF90DF90F9
:102A800008956F927F928F929F92AF92BF92CF9252
:102A9000DF92EF92FF920F931F93CF93DF93EC019E
:102AA0006A3011F42885A3C06D3009F4A7C0A98449
:102AB00083E58A150CF485C0BA848FE28B150CF47B
:102AC00080C0D8848C8190E00197D89E9001D99ED7
:102AD000300D1124C9018A0D911DA7FC9A95181675
:102AE00019060CF06EC02D818B2D0B2C000C990B50
:102AF000D29E800D911D1124181619060CF061C08C
:102B000088A09A2CCA2CE62EF12CEC2DEA190E2E58
:102B1000000CFF0B8C8190E0E817F9070CF050C017
:102B20000197E817F90779F0E89E9001E99E300DCA
:102B3000F89E300D1124E20FF31F8E8D9F8DE80F4C
:102B4000F91F149101C010E06B2C7B2C272D2B1941
:102B5000022E000C330B8D8190E0281739076CF59D
:102B600010FF11C081E0D81206C0472D6C2DCE0198
:102B70000E94A4141EC00D2D2D2D462D692DCE01B1
:102B80000E94181516C089A198A1891791F088A3F1
:102B900081E0D81206C0472D6C2DCE010E94A414EE
:102BA00007C00D2D2D2D462D692DCE010E94181523
:102BB00088A2169573946D0CC9CFC3949D0CA5CFB4
:102BC00088A228853C818985239F800D11248987CF
:102BD0009F81992399F0082E000C990B44E550E051
:102BE000239F401951091124481759073CF49D812E
:102BF0008A85299F800D11248A87198681E090E0BB
:102C0000DF91CF911F910F91FF90EF90DF90CF90C8
:102C1000BF90AF909F908F907F906F900895EF92AC
:102C2000FF920F931F93CF93DF938C01D62FF42E37
:102C3000E22EC0E0CE1544F44F2D4C0F6D2FC8018D
:102C40000E94A414CF5FF6CFDF91CF911F910F9117
:102C5000FF90EF900895EF92FF920F931F93CF9301
:102C6000DF939C018A01CB01049740E3E42EF12C11
:102C7000B7010E94AA34EB01F901849190E03196EA
:102C8000E49177FD19C068177907B4F4C801049777
:102C9000B7010E94AA3477FD0FC0F0E06E177F07DE
:102CA0005CF4462F6C2FC901DF91CF911F910F91DA
:102CB000FF90EF900C94262380E0DF91CF911F913D
:102CC0000F91FF90EF9008950196FC018491F0E33D
:102CD0008F9FC001112408950C948932CF93DF9304
:102CE000EC01BC01990F880B990B0E94C02A20911E
:102CF00000074091FC06249FA00111249C01429FE3
:102D0000C001439F900D529F900D11249C01369558
:102D100027958AE2821B80930107BE0188EF96E027
:102D2000DF91CF910C9451111F93CF93DF93EC015E
:102D300001960E946C16182FCE010E946C1690E02E
:102D4000982F8827810F911DDF91CF911F910895B2
:102D5000EF92FF920F931F93CF93DF9362EB81E08B
:102D600090E00E9491326AEC80E090E00E94913203
:102D70008BECE82E81E0F82EC0E2D0E0CE010E947C
:102D80009416F701019111917F018017910748F482
:102D9000602FCE0101960E949132612FCE010E94D8
:102DA00091322296CA32D10549F784E090E00E9420
:102DB0006C166091BA01861720F484E090E00E94BE
:102DC000913286E090E00E946C16609112038617A3
:102DD00050F486E090E0DF91CF911F910F91FF902A
:102DE000EF900C949132DF91CF911F910F91FF9052
:102DF000EF9008952F923F924F925F926F927F9241
:102E00008F929F92AF92BF92CF92DF92EF92FF92FA
:102E10000F931F93CF93DF93CDB7DEB72E970FB6E7
:102E2000F894DEBF0FBECDBF40912A0750912B070B
:102E300060912C0770912D072FB7F8948091EA01CB
:102E40009091EB01A091EC01B091ED012FBF481BD7
:102E5000590B6A0B7B0B8091290790E0A0E0B0E052
:102E60000091250710912607209127073091280708
:102E700084179507A607B70730F40115110521053A
:102E8000310509F033C4012B022B032B09F02CC4AC
:102E900080914F0681508E3F30F580914E068130F3
:102EA00011F580916E068F5F60916F0687FD09C0F6
:102EB000082E000C990B70E06F5F7F4F0E94AA34C0
:102EC000682F60936E0681E698E090932F078093B9
:102ED0002E0788E48093300740E068E778E08DE5CE
:102EE00096E00E946F1480914F0681508E3F70F4DF
:102EF00080914D06813009F05FC484E598E090939D
:102F00002F0780932E0788E48093300780E00E948B
:102F1000712981E00E94712982E00E94712983E079
:102F20000E94712928E336E038872F83B6EECB2E36
:102F3000B1E0DB2E0CE916E088E8E82E86E0F82EFA
:102F400059013E872D87512C44244394AD85BE857D
:102F500099968C919997882309F4EDC04D01B0E7BB
:102F60008B0E911CF40180818111E5C0D7018D91F8
:102F70009C91D801ED91FC91EE0FFF1FE80FF91F16
:102F8000259134912115310521F5ED85FE85E05A15
:102F9000FF4F2081222329F0F80111821082FC01C9
:102FA00016C0AD85BE8599961C92999795968C9181
:102FB0008823C1F1852D0E947129D801ED91FC91E2
:102FC000EE0FFF1FD7018D919C91E80FF91F2591FE
:102FD0003491ED85FE85E058FF4FFE83ED838D85AE
:102FE0009E858C579F4F9A838983AD85BE85A85750
:102FF000BF4FBC83AB83ED85FE85E457FF4FFA8757
:10300000E9878D859E8580579F4F9C878B872D8470
:103010003E8494E9290E311C6D847E84A4E76A0EF7
:10302000711C2DC0652D8DE596E00E94461483C06D
:10303000C90156E0969587955A95E1F78F71932FC0
:1030400096959695969590514F704230A1F128F53E
:1030500041111DC08B3008F08AE0F3018083D80154
:10306000ED91FC9111973196ED93FC93EE0FFF1FBC
:10307000D7018D919C91E80FF91F25913491A901F9
:10308000569547955695479520FDD2CF2BC0413098
:1030900031F7652D0E94BA29E2CF4330B9F04430B0
:1030A000F1F620916D06289F802D1124AB85BC85FB
:1030B0008C93F10115C020916D06289F802D11245D
:1030C000AD81BE818C93E981FA810AC020916D06A1
:1030D000289F802D1124AB81BC818C93E985FA85D2
:1030E0009083BDCFED85FE85E459FF4F4F7340833C
:1030F00080916D06839F802D1124F4018083ED85DE
:10310000FE85E055FF4F1082F501E855FF4F118213
:103110001082ED85FE85E858FF4F4082D6014C9223
:10312000ED85FE85E458FF4F1082F8018081918182
:1031300001969183808353942D853E852F5F3F4F69
:103140003E872D8732E0A30EB11C8FEFC81AD80A34
:103150000E5F1F4F92E0E90EF11CA4E05A12F6CE6A
:10316000AEEDAA2EA1E0BA2EBAEDCB2EB1E0DB2E49
:1031700016ED612E11E0712E08EE16E080EEE82EBD
:1031800086E0F82E92EE492E91E0592EE8E3F6E023
:10319000FA83E983312CE981FA81E858FF4F808175
:1031A000882309F42EC1E981FA81E059FF4F80811B
:1031B000811106C0632D8DE596E00E94461421C161
:1031C00081508083D8018C91E981FA81EC54FF4FC2
:1031D000FE83ED8329813A8128543F4F49018111B3
:1031E0004EC0D7018D919C9101969C01220F331FF7
:1031F000EF81F885E856FF4F0190F081E02DE20F56
:10320000F31F45915491242F2770ED81FE81208377
:10321000BA01E3E076956795EA95E1F79B0136956B
:103220002795352F36953695D4013C932F733091E1
:103230006D06239F202D1124F80120836170D20197
:103240006C93F70191838083E981FA81E056FF4F07
:10325000208130E08217930790F0E981FA81EC55E4
:10326000FF4F8081882331F0281B3109D7012D932E
:103270003C9305C0632D8DE596E00E944614F8014D
:10328000808181508083E981FA81E458FF4F8081F9
:1032900021E0280F2083E981FA81E459FF4F408122
:1032A000D4013C91340FE981FA81E45BFF4F8081C6
:1032B000380FE981FA8135A7E857FF4F608166230F
:1032C00099F070E0822F022E000C990B0E94AA3414
:1032D000E981FA81E457FF4F8081869F300D1124E8
:1032E000A981BA819D963C93E981FA8185A590E0F8
:1032F000CB966BE370E00E94AA3485A7EC58FF4F91
:103300003081A981BA81D1963C93D197FD01E058D3
:10331000FF4F60816623A1F0062E000C770B822FF1
:10332000022E000C990B0E94AA34E981FA81EC5715
:10333000FF4F8081869F300D1124E981FA8131ABE6
:10334000E981FA81E057FF4F60816623D1F0822F37
:10335000220F990B70E00E94AA34CB0162E070E06A
:103360000E94AA34E981FA81EC56FF4F2081A9819D
:10337000BA81D1969C91D197289F900D1124D19616
:103380009C93E981FA814F3359F081A98A300CF07E
:1033900089E087FD80E0A981BA81D1968C9301C034
:1033A00011AAF894A981BA819D96EC91F0E0E75EAC
:1033B000F74FE491D501EC93E981FA8131A9E45406
:1033C000FF4F2081AD81BE814C91320390011124C9
:1033D0004203C001439F900D112400906E0602C06D
:1033E000880F991F0A94E2F797FF02C081589F4FF8
:1033F000880F892F881F990BF6018083D3018C9346
:1034000078943394E981FA813196FA83E983FFEF66
:10341000AF1ABF0A2FEFC21AD20A3FEF631A730A1C
:103420000F5F1F4F82E0E80EF11CAF81B885129646
:10343000B887AF83BFEF4B1A5B0AE4E03E12ABCE16
:1034400080913007882309F48BC08C3020F4FCE095
:10345000F81BF98301C01982FF24F394F09200074E
:1034600010921807109219072091FD062B831981DD
:10347000121B022F0D5F4DE2410F2EE463E088EF37
:1034800096E00E9418153B8134503B83105D232F3A
:1034900041E0612F80E50E940D292B8142E0612FE0
:1034A00083E00E940D29F0921807F092190700910D
:1034B000FD061981101B8DE2810F8B832EE4482FAE
:1034C00063E088EF96E00E94FC1483E0800F9B810C
:1034D000980F9B83492F41502EE463E088EF96E0DC
:1034E0000E94FC140350105D202F412F60E088EFF4
:1034F00096E00E940F16202F412F63E588EF96E09B
:103500000E940F1641E0612F83E00E948E2842E066
:10351000612F80E50E948E28AB81A450AB8344E0EC
:103520006A2F80E50E948E2848E06B8183E00E942C
:103530008E2884E0809301078091FD06B981B81B35
:10354000B15DB093020760912E0770912F0788EF4D
:1035500096E00E945111809130078150809330078E
:103560008091540690915506892B09F495C081E00D
:1035700080931807109219079091FC0685E5891B26
:10358000809301071092020780915106813009F45F
:1035900066C030F090915006853008F078C073C056
:1035A00001E616E0198269818DE596E00E944614D5
:1035B000F80111928F01F981FF5FF983F43099F7D7
:1035C00081E080930007E7E9F6E0E491EF5FE093A4
:1035D000FC06E8E9F6E0E491EF5FE093FD0689E997
:1035E00096E0909317078093160710925506109255
:1035F00054061092FE0628EA29830E94FA168823B0
:10360000E1F369E876E088EF96E00E94511140917D
:1036100052065091530660E070E02AE088EF96E091
:103620000E948A1164E776E088EF96E00E945111CB
:10363000498142954F7050E060E070E02AE088EFE9
:1036400096E00E948A1169E676E088EF96E00E9493
:10365000511180914D06813009F092C01DC08091BA
:103660001B0790911C07A0911D07B0911E078F703A
:103670009927AA27BB270897A105B10510F487E071
:1036800009C088E707C0992339F08B5F03C09923ED
:1036900019F08FE20E9483280E9448288091FE063C
:1036A00081110EC088EF91E0E8E3F4E0DF019C01B6
:1036B0001D9221503040E1F710920107109202074D
:1036C0000E94DA12609325077093260780932707DC
:1036D000909328072091210730912207621B730BDA
:1036E0007093200760931F0780E06CC02FB7F89499
:1036F0008091EA019091EB01A091EC01B091ED0174
:103700002FBF20912907820F911DA11DB11D80930C
:103710002A0790932B07A0932C07B0932D07809135
:103720001B0790911C07A0911D07B0911E070196E1
:10373000A11DB11D80931B0790931C07A0931D072B
:10374000B0931E07109225071092260710922707A4
:10375000109228070E94DA126093210770932207C3
:1037600080932307909324070E94F52980915406A3
:1037700090915506892B11F00E94792A81E022C090
:10378000398131503983311138CF60E070E08FEFEB
:103790000E947B1283B7817F846083BF83B781607F
:1037A00083BF83B7816083BF889583B78E7F83BFD4
:1037B00083B78E7F83BF21CF893209F0A7CB0E94C8
:1037C000402AA4CB2E960FB6F894DEBF0FBECDBF15
:1037D000DF91CF911F910F91FF90EF90DF90CF90ED
:1037E000BF90AF909F908F907F906F905F904F9021
:1037F0003F902F90089521E02093240325E0880F27
:10380000991F2A95E1F790931A038093190380EE8C
:103810009FEF90931C0380931B031092D50180911E
:10382000250390912603E0913704F0E0EE0FFF1F8F
:10383000E553FE4F208131812817390758F49183D1
:1038400080838AE596E09093CA018093C90184E35E
:103850008093D5010C94A81620911E032D3030F4CE
:10386000E22FF0E0E357FE4F808101C085E08093B6
:103870001F03E0912003F09121034285042E000CE8
:10388000550B64817581828193810E94F12580911D
:103890001E03823009F03FC0E0912003F091210324
:1038A0004285042E000C550B6481758122E08281D3
:1038B00093810E94F125E0912003F091210342853C
:1038C000042E000C550B6481758120911E038281AA
:1038D00093810E94F125E0912003F091210342851C
:1038E000042E000C550B6481758120911E0382818A
:1038F00093810E94F125E0912003F09121034285FC
:10390000042E000C550B6481758120911E03828169
:1039100093810E94F12580911E038A3081F4E09109
:103920002003F09121034285552741950CF45095D1
:10393000648175812AE0828193810E94F1258091C2
:103940001E03813098F0833010F0873079F4E091D5
:103950002003F09121034285042E000C550B648155
:1039600075812EE0828193810E94F125E0911E03F2
:103970008E2F90E08D30910520F5FC01EB58FF4F24
:103980000C94BE3440E06EEA78E017C040E060EA94
:1039900078E013C040E06AE978E00FC040E062E9F7
:1039A00078E00BC040E068E778E007C040E068E8F6
:1039B00078E003C040E06EE778E08DE596E00C9497
:1039C0006F1408952F923F924F925F926F927F9261
:1039D0008F929F92AF92BF92CF92DF92EF92FF921F
:1039E0000F931F93CF93DF93CBE2D3E0B2E12B2E63
:1039F000B3E03B2E10ED412E55245A948C851816B9
:103A000034F02D9624E0CF32D207C1F7CCC00AEFB4
:103A100011E0D8011D968C9118160CF0BDC08E8156
:103A20009F814396879730F48B85863019F08B7F82
:103A3000893039F7E881F9810480F581E02DCE01E4
:103A400009955C01E881F9810280F381E02DCE01C6
:103A500009954C016C807D80EA80FB80D801ED9156
:103A6000FC910480F581E02DC80109956C01D80115
:103A7000ED91FC910280F381E02DC8010995F801D8
:103A800022813381820F931FE816F9060CF084C05F
:103A9000E80CF91C2E153F050CF07EC08481958141
:103AA000C80ED91E6C147D040CF076C0A60CB71C91
:103AB0008A159B050CF070C08B85863009F4BEC159
:103AC000893009F4BBC1833009F4B8C1843009F0EE
:103AD00066C19B85EDEFE90FEC3008F068C1F0E0BE
:103AE000EF57FE4F2081022E000C330BD8011D969C
:103AF0008C911D97821B1D968C931D9718160CF4A4
:103B000063C19D3009F056C11296CD90DC90139799
:103B1000ED91FC910280F381E02DC801099597FD9C
:103B20000196959587957C01EC0CFD1CCA80DB8085
:103B3000E881F9810280F381E02DCE01099597FD9E
:103B40000196959587958C0D9D1DE81AF90A1E140E
:103B50001F040CF035C1EE24E394F12C68E070E012
:103B600080E090E00E943711DC01CB014896A11D56
:103B7000B11DE89E9001E99E300DF89E300D112494
:103B8000F801378326835186408641E062E778E07A
:103B90008DE596E00E946F14025F1F4F20163106DC
:103BA00009F037CF2ECF8091F90181508093F90130
:103BB000811190C0A0912503B091260322EE3FEF22
:103BC0004FEF5FEF0E94BE3222E330E040E050E072
:103BD0000E949F32245C2A300CF42AE02093F901E1
:103BE000EAEFF1E0C0E0D0E08485811178C08EE09A
:103BF0008C9F80018D9F100D112406501E4FFF24B5
:103C0000F394F801F48666E070E080E090E00E94B2
:103C10003711672B682B692B09F02BC18091370472
:103C2000882309F426C1D8011B96FC922EE02C9F14
:103C3000C0012D9F900D112486509E4FDC011B96D4
:103C40002C91222311F02AE001C022E03EE03C9FAB
:103C500080013D9F100D112406501E4FF80125874D
:103C6000E0912F04F0913004F490D801ED91FC9193
:103C70000280F381E02D0995B0E3FB9EF001112451
:103C8000F595E79597FD019695958795E81BF90BB6
:103C9000D8011396FC93EE9312972EE02C9FC0014F
:103CA0002D9F900D1124EC01C650DE4F1D821C8209
:103CB00062E070E080E090E00E94371124E1269FEE
:103CC000A001279F500D1124CA010A979F838E835C
:103CD00019861886CAEFD1E002E113E007C02196E9
:103CE0003E96C431D10509F07FCFF4CF8C8588236F
:103CF00009F43DC0CE010E94590FEC80FD808091F7
:103D00002F04909130040E9464168E159F057CF557
:103D10008D8518165CF5E0912F04F0913004F49035
:103D2000E881F9810280F381E02DCE010995B0E3AD
:103D3000FB9EF0011124F595E79597FD0196959569
:103D40008795E81BF90BFB83EA831D821C828A8519
:103D5000E4E18E02C00111249F838E8342E068E675
:103D600078E08DE596E00E946F1401C01C862E96C7
:103D70000C171D0709F0BACFDF91CF911F910F915A
:103D8000FF90EF90DF90CF90BF90AF909F908F907B
:103D90007F906F905F904F903F902F900895843068
:103DA00008F44FC08B50843008F04BC092CE21E015
:103DB00030E09CCE8E819F81181619060CF4CBCE74
:103DC000EE24EA94FE2CCACE943009F0E5CED80158
:103DD0001296ED90FC901397ED91FC910280F38187
:103DE000E02DC801099597FD0196959587958E0D53
:103DF0009F1D2091150330911603285E3F4F821BB3
:103E0000930B181619061CF02FEF3FEF02C021E0AC
:103E100030E0F8018681978197FF03C091958195E5
:103E20009109829FA001839F500D929F500D1124F4
:103E3000D80117965C934E931697AECEF1E0FC87AF
:103E400045CEEE80FF80E881F9810684F785E02D7C
:103E5000CE0109959C01E29EC001E39E900DF29E69
:103E6000900D112464E670E00E94AA347F836E8373
:103E700030CE8EE08C9FF0018D9FF00D1124E65026
:103E8000FE4F1386D3CE1092F7011092F601E09107
:103E90002F04F0913004E49180E3E89FB0011124F5
:103EA000FB01E056F109E133F10594F0CF01FF0F7A
:103EB000AA0BBB0BBC01CD016053710981099109AB
:103EC0000E943711DC01CB01C096A11DB11D04C0B9
:103ED00080E390E0A0E0B0E09093F1018093F001E6
:103EE00080912F04909130040E94641680569109AD
:103EF000092E000CAA0BBB0B81339105A105B1055E
:103F000074F0BC01CD0160537109810991090E94CF
:103F10003711DC01CB01C096A11DB11D04C080E3A7
:103F200090E0A0E0B0E0AC019093F3018093F20147
:103F30002091F0013091F101E0911503F091160309
:103F4000E21BF30BE158FF4FEF3FF10570F0E091FA
:103F50001703F0911803BF01681B790BCB0181583F
:103F60009F4F61E08F3F910508F460E0E0912F04DE
:103F7000F0913004849170E3879FC00111249595DE
:103F800087958F5791092817390784F0E49180E3CA
:103F9000E89FF0011124F595E795E158FF4FE217EE
:103FA000F30724F0403551400CF471CF662309F437
:103FB0006ECF0895CF93C82FF89460E080910707E3
:103FC0000E9410128091080718161CF460E00E94ED
:103FD0001012CEBD00000DB407FEFDCF8EB580914E
:103FE000080718161CF461E00E9410127894CF9113
:103FF0000895AF92BF92CF92DF92EF92FF920F930C
:104000001F93CF93DF938091240381119FC08091F0
:10401000490681508E3F08F422C180914B068150A1
:104020008E3F08F429C180914A068F3FF9F06AE07B
:104030000E949E349130D1F480914C068952863D85
:10404000A8F480911E038F5F6DE00E949E349093D0
:104050001E0310922603109225038FE39AE090939B
:10406000CA018093C90180E28093D501C0911703F2
:10407000D091180380912F04909130040E9464160F
:104080008C179D073CF480911D03082E000C990BA2
:104090000E94FB1B60911703709118036F5F7F4FA5
:1040A00028E430E040E350E080911503909116033E
:1040B0000E949724811110922303C0914E06C130B3
:1040C00011F560911703709118036F5F7F4F28E41B
:1040D00030E040E350E080911503909116030E9478
:1040E0009724882309F4D5C080EE9FEF90931C039A
:1040F00080931B03C093220341E065E37AE08DE5E2
:1041000096E00E946F1480914E0681508430A8F48E
:1041100080911B0390911C0397FF0FC020912203F5
:10412000222359F020912303222311F0069701C086
:104130000C9790931C0380931B0380911B03909119
:104140001C031816190614F410922203CBE2D3E0D4
:104150000FE214E04DE0B42E58E0A52E6AE0E62E02
:10416000F12C72E0C72ED12C8C85882309F44AC02B
:10417000CE010E94590F9C8591509C879B8593305E
:1041800019F4813009F492C08C8581113BC09630BE
:1041900021F0993011F09330A9F5BB86E881F981BF
:1041A0000280F381E02DCE01099597FD019695954A
:1041B00087952A813B81A901481B590B5B834A8360
:1041C000E881F9810480F581E02DCE01099597FD04
:1041D0000196959587952C813D81A901481B590B26
:1041E0005D834C83AC86F0922A03E0922903D0923F
:1041F0002803C092270340E06BE27AE08DE596E069
:104200000E946F142D960C171D0709F0ADCF8091F9
:104210001F03882321F0815080931F030DC09091CC
:104220001E0380914D06913009F442C0983009F484
:104230003FC0813009F440C0C0911D0383E193E089
:104240000E94590FC0931D03DF91CF911F910F91D1
:10425000FF90EF90DF90CF90BF90AF9008958FEFD9
:1042600080931D038091190390911A0340979093B6
:104270001A0380931903D1CE81E080931D038091AE
:10428000190390911A03409690931A03809319038F
:10429000CACE80912303811136CF80EE9FEF909399
:1042A0001C0380931B03C093230324CF1C866CCF75
:1042B00081508E3F08F0C0CF0E942C1CBDCF2F92A2
:1042C0003F924F925F926F927F928F929F92AF92A6
:1042D000BF92CF92DF92EF92FF920F931F93CF93F3
:1042E000DF93C0913704D0E033E2432E3AE0532EFF
:1042F00043E1642E4AE0742E50EA252E33243A948A
:104300006AE0862E912CA12CB12C75E0E72EF12CC1
:104310000E94FA168823E1F38E01000F111FF801A5
:10432000E656FE4FC080D180D0923004C0922F0458
:10433000C0933704C230D105D9F0A4F42097C1F05E
:10434000C130D10591F550923204409231048BE195
:104350009AE09093340480933304109236041092C0
:10436000350423C0C330D10571F0C430D105E9F460
:1043700050923204409231047092340460923304BB
:104380008BE09AE00EC083E09AE090933204809331
:1043900031048BEF99E0909334048093330483EFDE
:1043A00099E090933604809335049FE1909302073F
:1043B00084EE99E00E946E1628E12093010785E2C1
:1043C000809302076CED79E088EF96E00E9451112E
:1043D000F801E553FE4F4081518160E070E02AE032
:1043E00088EF96E00E948A1180912F04909130040A
:1043F0000E946416E0912F04F0913004E491B10121
:104400000E94AA3443E1460F20E3E29FC001112439
:10441000B1010E94AA34665D960188EF96E00E9481
:10442000532396E0D92E209133043091340440E098
:104430006D2D88EF96E00E94532386E0D80E9EE40F
:10444000D912F1CF86E0D82E209131043091320478
:104450004D2D60E088EF96E00E94532320913104B7
:10446000309132044D2D6EE488EF96E00E94532384
:1044700026E0D20E80E3D812E7CF209135043091A8
:1044800036042115310581F040E060E088EF96E0C8
:104490000E945323409135045091360421E060E09E
:1044A0008CE40E94212514C02091330430913404FF
:1044B00040E060E088EF96E00E94532320913304AF
:1044C0003091340440E06EE488EF96E00E9453237C
:1044D0008091120390E08C179D0709F042C0F8010B
:1044E000E553FE4F808191818430910568F08830DA
:1044F000910560F08C30910558F08E30910550F0A8
:10450000409778F510E107C014E005C018E003C03B
:104510001CE001C01EE08BE2809302078CE08093D8
:10452000010760911B0770911C0780911D079091F6
:104530001E07A50194010E94D132643071058105E6
:10454000910578F06EEC79E088EF96E00E945111C9
:10455000412F50E060E070E02AE088EF96E00E9492
:104560008A118091120390E08C179D0774F5609179
:104570001B0770911C0780911D0790911E07A501D4
:1045800094010E94D1326430710581059105E8F0F3
:1045900081E0809318078093190707E02CE14FE032
:1045A0006CE188EF96E00E9418151092180710929F
:1045B00019078DE18093010780E18093020766EC83
:1045C00079E088EF96E00E94511180914D0681308C
:1045D00079F080914B06813029F180914906813034
:1045E00041F180914F06813059F50E94220E90CE04
:1045F0008091120390E08C179D075CF3DF91CF91BF
:104600001F910F91FF90EF90DF90CF90BF90AF90F0
:104610009F908F907F906F905F904F903F902F90E2
:104620000C94E80DCE010196B7010E94AA34EC016A
:10463000D4CFCE010496B7010E94AA34EC01D1CFA9
:1046400080914E06813009F063CECFCFFC01A4915A
:10465000B0E0179623E0B595A7952A95E1F74A9F14
:10466000F0014B9FF00D1124262F30E043E03595EB
:1046700027954A95E1F72E5F3F4F2E0F3F1FFC0114
:10468000E20FF31F84916770E0E8F0E002C0F59557
:10469000E7956A95E2F790E0E823F92381E0EF2BB4
:1046A00009F480E008952F923F925F926F927F927B
:1046B0008F929F92AF92BF92CF92DF92EF92FF9232
:1046C0000F931F93CF93DF93EC01F901E4903196A0
:1046D000849164350CF019C10E2C000CFF08062FD4
:1046E000062E000C110BF701E00FF11F1E161F061E
:1046F0000CF00BC140330CF008C1A82FC42E042EBF
:10470000000CDD085601A80EB11C87FDBA941A14DE
:104710001B040CF0FAC02E5F3F4F570197E0A90E23
:10472000B11CB7FE04C05701BEE0AB0EB11CB3E034
:10473000B594A794BA95E1F747FF0AC0A42FA80F34
:10474000AC9CC001AD9C900D1124281B390B40E09E
:104750008A2F0A2E000C990B840F911D47FD9A9504
:10476000C19714F0A0E3A41BF8A067FD60E0E53555
:10477000F10514F0E4E5F0E09E2FCC85C427C62EA9
:10478000062E000CDD08F601E01BF10B8F014F0136
:10479000F7E08F229924E0E8F0E002C0F595E79574
:1047A0008A94E2F77E2F17FF02C0095F1F4FF3E0E4
:1047B00015950795FA95E1F7200F311F542F577083
:1047C00081E001C0880F5A95EAF7459545954595D2
:1047D000F601B4E54B02E00DF11D1124AF01485C78
:1047E0005B4FD0E02A2EAA0F3308EE24E394BB24BB
:1047F000ED2FF0E0E215F3050CF087C0F9015490BD
:10480000F1E0FF121AC0962E8A01E72F690199166E
:1048100008F072C08E2E852021F0D8018C90882A55
:104820008C92E69531F4BFEFCB1ADB0AF601549077
:10483000E0E893940F5F1F4FEACFF1101CC0782E71
:104840007094962E8A01E72F6901991608F054C0DA
:104850008E2E852021F0D8018C9087208C92E695B1
:1048600031F4BFEFCB1ADB0AF6015490E0E89394E1
:104870000F5F1F4FEACFF3E0FF1629F0962E8A0153
:10488000E72F690137C0682E6094862E8A01972E23
:1048900069018916D8F4E92DE52159F0D801EC9188
:1048A000782C7C2670FE02C0E82B02C0E621D801DD
:1048B000EC93969439F4BFEFCB1ADB0AF6015490CF
:1048C000E0E89E2E83940F5F1F4FE3CFCE2514C0E8
:1048D0008E2E852021F0D8018C9088268C92E6952A
:1048E00031F4BFEFCB1ADB0AF6015490E0E8939461
:1048F0000F5F1F4F991660F3880F19F44C5A5F4FE2
:1049000081E0DF5F2A0D3B1D73CFDF91CF911F91B7
:104910000F91FF90EF90DF90CF90BF90AF909F905E
:104920008F907F906F905F903F902F9008958F921F
:104930009F92AF92BF92CF92DF92EF92FF920F932E
:104940001F93CF93DF938C01EB014A0179015B0147
:10495000A20EB31EA501BC0180912F0490913004DA
:104960000E942B16882311F091E05DC06801C80CED
:10497000D91CA501B60180912F04909130040E94AA
:104980002B168111F1CFAE01B60180912F049091C9
:1049900030040E942B168111E7CFAE01B80180913F
:1049A0002F04909130040E942B168111DDCF81E3FA
:1049B000881691042CF481E3E816F1049CF119C0E7
:1049C00095948794800E911EAE01B40180912F04BE
:1049D000909130040E942B168111C6CFA501B4011D
:1049E00080912F04909130040E942B16882319F394
:1049F000BBCFF594E794CE0DDF1DAE01B8018091D9
:104A00002F04909130040E942B168111ADCFAE017E
:104A1000B60180912F04909130040E942B1691E0F2
:104A2000811101C090E0892FDF91CF911F910F91EB
:104A3000FF90EF90DF90CF90BF90AF909F908F90BE
:104A400008952F923F924F925F926F927F928F9232
:104A50009F92AF92BF92CF92DF92EF92FF920F930D
:104A60001F93CF93DF9300D000D000D0CDB7DEB737
:104A7000382E262E8A0121111FC09A01462F682F39
:104A800088EF96E026960FB6F894DEBF0FBECDBF36
:104A9000DF91CF911F910F91FF90EF90DF90CF901A
:104AA000BF90AF909F908F907F906F905F904F904E
:104AB0003F902F900C945323FA0184913196949156
:104AC0009983E82EF12C3701E7E06E0E711C33E07C
:104AD000759467943A95E1F7512C40E8C42ED12C97
:104AE000A92EB12C81508C83852D052C000C990B9F
:104AF0008E159F050CF05CC05A8257FE03C0F7E08C
:104B0000F50DFA838A818595859585958A83852D0E
:104B1000877887FF03C08150886F8F5F460102C08E
:104B2000959487948A95E2F7412CEA810E2E000C29
:104B3000FF0B3296FE83ED83FC81F519FB83842DF8
:104B4000042C000C990B8A159B0584F5689EF001D6
:104B5000699EF00D789EF00D11248D819E81E80FE5
:104B6000F91FE00FF11FE491F0E0E821F921EF2BAC
:104B7000D9F0222369F0922F93709A8320FF02C00C
:104B80006B8101C0652D21FF07C04981441905C013
:104B9000442D652D1A8201C0442D630D420D88EF0E
:104BA00096E00E94A4142A814394C9CF53949CCFC9
:104BB00026960FB6F894DEBF0FBECDBFDF91CF9122
:104BC0001F910F91FF90EF90DF90CF90BF90AF902B
:104BD0009F908F907F906F905F904F903F902F901D
:104BE00008954F925F927F928F929F92AF92BF9261
:104BF000CF92DF92EF92FF920F931F93CF93DF93A9
:104C00008C016B017A01722EEBE2F3E0C0E0D0E0A0
:104C10008485811127C22DE02C9FC0012D9F900D0E
:104C200011249C01255D3C4F5901D9011B967C92B2
:104C3000EDEFE70DEC3040F4F0E0EC55FE4F8081F5
:104C4000082E000C990B02C089E190E09DE09C9F2A
:104C5000F0019D9FF00D1124E55DFC4F8487B5E0C8
:104C60007B1631F07B1680F089EF870D823060F47F
:104C700082E090E090932A038093290381E090E002
:104C80009093280380932703872D90E0FC013297AF
:104C9000ED30F10508F038C1EE57FF4F0C94BE34EB
:104CA0008DE08C9FF0018D9FF00D1124E55DFC4F90
:104CB000C70155E0880F991F5A95E1F797838683BE
:104CC000A0912003B091210318968D919C91199782
:104CD000BAC061E170E080E090E00E9437114DE0E1
:104CE0004C9F90014D9F300D1124F901E55DFC4F63
:104CF0004F0140E34E9D90014F9D300D1124DC018A
:104D0000CB010897A109B109B901680F791F778311
:104D1000668361E270E080E090E00E943711DC0180
:104D2000CB014097A109B109F40191878087E091F7
:104D30002003F091210322858681978130E22302AE
:104D40008019910911249783868361E170E080E0E6
:104D500090E00E9437114DE04C9F90014D9F300D27
:104D60001124A901455D5C4F4A0140E34E9D90012D
:104D70004F9D300D1124DC01CB010897A109B10929
:104D8000B901680F791FD40117967C936E9316971B
:104D900065E170E080E090E00E943711DC01CB011A
:104DA0000A97A109B109F40191878087DBC08DE0E2
:104DB0008C9FF0018D9FF00D1124E55DFC4F2AE1E1
:104DC00009C08DE08C9FF0018D9FF00D1124E55DF1
:104DD000FC4F22E32E9DC0012F9D900D112497833F
:104DE000868311861086CBC0A0912003B091210349
:104DF0008DE08C9FF0018D9FF00D1124E55DFC4F3F
:104E000016968D919C91179797FD0196959587958C
:104E1000970145E0220F331F4A95E1F7820F931F58
:104E2000978386838DE08C9FF0018D9FF00D112478
:104E3000E55DFC4F18968D919C91199797FD019611
:104E400095958795809791878087A1C08DE08C9FED
:104E5000F0018D9FF00D1124E55DFC4FC70154E07A
:104E6000880F991F5A95E1F79783868311861086DC
:104E70008AC08DE08C9FF0018D9FF00D1124E55DBF
:104E8000FC4F178216821186108681C068E070E0A0
:104E900080E090E00E9437112DE02C9FA0012D9F13
:104EA000500D11249A01255D3C4F490122273327DB
:104EB0002E193F09AB01BC01405F5F4F6F4F7F4F21
:104EC000C901849F9001859F300D949F300D11245E
:104ED000D40117963C932E931697E0912003F091FE
:104EE00021034084518468E070E080E090E00E94FB
:104EF0003711DC01CB014096A11DB11D481A590A9A
:104F0000F4015186408643C061E170E080E090E0AA
:104F10000E9437114DE04C9F90014D9F300D1124A0
:104F2000A901455D5C4F4A01DC01CB010897A1094D
:104F3000B109970146E0220F331F4A95E1F7B90105
:104F4000680F791FD40117967C936E9316976BE0C8
:104F500070E080E090E00E94371165507109F40123
:104F600071876087F3E07F1671F0F71520F022E07B
:104F7000721629F00CC085EF870D823040F430E2C4
:104F8000C30ED11C07C040E1C40ED11C12C058E1B1
:104F9000C50ED11C86E07816E9F0871528F08DEF54
:104FA000870D823078F405C0AEE07A120BC0005154
:104FB0001109C70125E0880F991F2A95E1F7081B01
:104FC000190B08C02EE22E9DC0012F9D900D1124BB
:104FD000080F191F1E141F0474F480912003909170
:104FE0002103DC01ED91FC910280F381E02D099514
:104FF000080F191F12C08DE08C9FF0018D9FF00DDE
:105000001124E55DFC4F0190F081E02D0280F381D9
:10501000E02DC5010995081B190B8DE08C9FF0014F
:105020008D9FF00D1124E55DFC4FA0912003B09100
:10503000210316962D913C91179737FF02C02F5FE1
:105040003F4F35952795200F311F338322838DE005
:105050008C9FF0018D9FF00D1124E55DFC4FD582F2
:10506000C48206C021963D96C431D10509F0D0CD49
:10507000DF91CF911F910F91FF90EF90DF90CF9034
:10508000BF90AF909F908F907F905F904F900895CA
:105090000F931F93CF93809104078F5F8093040732
:1050A00008E314E0C0E08C2F80640E94DA1F80E8DF
:1050B0000E94DA1F61E0809107070E941012809120
:1050C000080718161CF460E00E941012F80184E52D
:1050D00091919EBD00000DB407FEFDCF9EB581509D
:1050E000B9F78091080718161CF461E00E941012AD
:1050F000CF5F0C5A1F4FC630B1F680E4CF911F919D
:105100000F910C94DA1FE091F806F091F9060190E6
:10511000F081E02D682F88EF96E00994AF92BF925E
:10512000CF92DF92EF92FF920F931F93CF93DF9373
:10513000182F062FC1E0D3E08AEFD82E9EEFE92E7C
:10514000842F8470C82E842F8270B82E842F88708C
:10515000A82E4170F42E8C2F880F8F5FE80ECC2084
:1051600081F0402F4D0F612F6C0F88EF96E00E9469
:10517000A414402F4C0F6D2F610F88EF96E00E9412
:10518000A414BB2081F0402F4D1B612F6C0F88EFC2
:1051900096E00E94A414402F4C1B6D2F610F88EFE6
:1051A00096E00E94A414AA2081F0402F4C0F612F9A
:1051B0006D1B88EF96E00E94A414402F4D0F612FC5
:1051C0006C1B88EF96E00E94A414F1100AC0CD1762
:1051D000CCF4E7FC04C0D150D394D394ED0CCF5F52
:1051E000BACF402F4C1B612F6D1B88EF96E00E94B9
:1051F000A414402F4D1B612F6C1B88EF96E00E947A
:10520000A414E5CFDF91CF911F910F91FF90EF9004
:10521000DF90CF90BF90AF9008959F92AF92BF92D2
:10522000CF92DF92EF92FF920F931F93CF93DF9372
:10523000F82EE62EB22E13E0120FD0E0C3E08AEF74
:10524000C82E0EEF842F8170982EAA24A394A20E4C
:105250004270D42EDF5F812F8B19080F9920A1F0A7
:105260002C2F220F2A0D4E2D4C1B6D2F6F0D88EF0A
:1052700096E00E940F16212F4E2D4D1B6C2F6F0DA7
:1052800088EF96E00E940F16D1100AC0DC17ECF4EC
:1052900007FD04C0C150C394C3940C0D1E5FDACF48
:1052A0002C2F220F2A0D4E2D4C1B6F2D6D1B88EFBE
:1052B00096E00E940F16212F4E2D4D1B6F2D6C1B5B
:1052C00088EF96E00E940F16E1CFDF91CF911F91FA
:1052D0000F91FF90EF90DF90CF90BF90AF909F9095
:1052E0000895CF93DF93A82FB0E0ED01C85CD94FAC
:1052F0009DA1992309F43BC099A5911138C0FE01E5
:10530000E05CFF4F9081AA0FBB1FA85CB94FD896F5
:105310003C91D897D9962C91D997E32FF22FE90F8A
:10532000F11DE90FF11D259134912F3F9FEF3907B2
:1053300011F41DA21CC0FE01E45BFF4F30835F9699
:105340003327220F331F9596ED91FC919697E20F2C
:10535000F31F65917491843028F4482F8DE596E011
:105360000E946F14C05CDF4F88818F5F8883DF915C
:10537000CF91089570E09B01220F331F285C394FB5
:10538000F901F39645A196A1E42FF92FE80FF11D3D
:10539000E80FF11D45915491F901ED58FF4F56A3C7
:1053A00045A3FA018591949190916D06989F802D67
:1053B0001124685C794FFB01E056FF4F8083FA01AE
:1053C000A591B4912B2F30E0E82FF0E02E173F0786
:1053D00020F4FA0125913491832FFB01EC55FF4F06
:1053E000989F802D112480830895DF92EF92FF9281
:1053F0000F931F93CF93DF93C8E3D6E00FE316E03C
:10540000EE24EA9462E08A850E943F122A8530E009
:10541000F901E553F54F8491F901E954F54FF49002
:10542000F901ED55F54FD490DD2071F081110E9406
:10543000E711ED2DF0E0EE0FFF1FE756F54FA591B8
:10544000B491EC91FE2299F489898F5F898B60E099
:105450008A850E943F1221960C171D0799F6DF914D
:10546000CF911F910F91FF90EF90DF900895898960
:10547000882389F38F3F11F4198AE9CFE98AE7CFAE
:1054800088EF91E0E8E3F4E0DF019C011D922150F8
:105490003040E1F7109201071092020761E77AE0CD
:1054A00088EF96E00E9451110E9448288CB58360D5
:1054B0008CBD8DB58E7F8DBD83EB91E0EEEFFFE36C
:1054C00009951092FE066CE47AE088EF96E00E945F
:1054D000D3110E9448280E94F52980914D06813001
:1054E00039F062E370E080E090E00E94FF12F3CFB9
:1054F0000895CF93C0915C068C2F8F71E1F583E402
:1055000080937C0080917A00806480937A008091FF
:105510007A0086FDFCCF609178008091790070E080
:10552000782B072E000C880B990B0E943A3326EE3D
:105530003FE34EEC50E40E949E330E9409339B01EE
:105540007093530660935206672B91F084E080932A
:105550005106E4E5F6E080E04191519124173507CA
:1055600018F4809351060AC08F5F8430A9F703C0F6
:105570008FEF80935106CF5FC0935C06CF91089563
:10558000FB0105900020E9F7609570956E0F7F1F75
:10559000CB010895789484B5826084BD84B5816020
:1055A00084BD85B5826085BD85B5816085BD8091EE
:1055B0006E00816080936E00109281008091810066
:1055C000826080938100809181008160809381005E
:1055D000809180008160809380008091B100846020
:1055E0008093B1008091B00081608093B000809181
:1055F0007A00846080937A0080917A008260809340
:105600007A0080917A00816080937A0080917A009C
:10561000806880937A001092C10082E3809329070A
:1056200081E090E0A0E0B0E080932507909326070A
:10563000A0932707B09328078FEF80931A07E0E81D
:10564000F7E7259134912130304C09F049C0E6E963
:10565000F7E7E491E0930307E7E9F7E7E491E093E4
:105660003C06E8E9F7E7E491E0933D06E9E9F7E76E
:105670008591949190933F0680933E06EBE9F7E77E
:1056800085919491909341068093400687E08093A2
:105690006F06EEE9F7E7E491E0936E06EFE9F7E7CE
:1056A000E491E0931A07E0EAF7E7859194919093EB
:1056B000550680935406E2EAF7E78591949190931A
:1056C000570680935606E4EAF7E785919491909304
:1056D000590680935806E6EAF7E7859194912CC025
:1056E0009CE39093030710923C0680933D0680E272
:1056F00093E090933F0680933E0684ED93E0909371
:1057000041068093400687E080936F0680936E0683
:105710008CEA9DE090935506809354068EED9DE0B3
:10572000909357068093560684E79EE0909359061F
:10573000809358068CE39FE090935B0680935A0613
:105740006FEF70E08FEF0E947B1288E0809342063B
:1057500089E08093430687E08093440686E0809347
:105760004506C4E0C093460682E08093470685E084
:10577000809348060E94F5298CE39FE0909353069E
:1057800080935206C093510681E080935C069BE0B3
:10579000909306079DE09093050790E1909307078B
:1057A0009EE0909309079FE090930807809300077D
:1057B00080931807109219078093FF06E7E9F6E037
:1057C000E491EF5FE093FC06E8E9F6E0E491EF5F37
:1057D000E093FD0689E996E09093170780931607FA
:1057E000CFB7F8948091BF01811127C0EDEAFAE0AC
:1057F0008491E1ECFAE09491E82FF0E0EE0FFF1FC6
:10580000E559FB4FA591B491EC91E92321F461E0B6
:105810008AE00E94101261E08AE00E943F128CB57B
:1058200080618CBD8CB580648CBD61E08DE00E9490
:105830003F1261E08BE00E943F128091BF018F5FB9
:105840008093BF01CFBF8CB58F7D8CBD8CB58C7F15
:1058500081608CBD8DB581608DBD8CB58C608CBD3B
:1058600061E0809106070E943F1261E08091050788
:105870000E943F1261E0809107070E943F128091D1
:10588000090718161CF461E00E943F128091080776
:1058900018161CF461E00E943F1280910907181647
:1058A00074F460E00E9410126AE070E080E090E022
:1058B0000E94FF1261E0809109070E9410128091FE
:1058C0000507082E000C990BFC01ED55F54FE491EE
:1058D000F0E0EE0FFF1FEB58FB4F25913491309312
:1058E0000D0720930C07FC01E954F54FE491E09378
:1058F000130780910607082E000C990BFC01ED554B
:10590000F54FE491F0E0EE0FFF1FEB58FB4F2591B0
:10591000349130930B0720930A07FC01E954F54FAB
:10592000E491E093120780910807082E000C990B70
:10593000FC01ED55F54FE491F0E0EE0FFF1FEB5841
:10594000FB4F2591349130930F0720930E07FC01F4
:10595000E954F54FE491E093140780910707082E6E
:10596000000C990BFC01ED55F54FE491F0E0EE0FC2
:10597000FF1FEB58FB4F2591349130931107209373
:105980001007FC01E954F54FE491E093150781E21B
:105990000E94DA1F84E10E94DA1F8091030787FFCB
:1059A00003C08FE7809303078091030780680E94FC
:1059B000DA1F80E20E94DA1F8CE00E94DA1F0E9448
:1059C000482881E080936D0694EFE92E96E0F92E49
:1059D00000E916E0C0E0D1E027E6C22E24E0D22E96
:1059E000F701D1937F01F801C192D1928F016C2F01
:1059F00080E00E94BA29CF5FC43091F761E070E087
:105A000083E00E947B128091B100887F8160809347
:105A1000B100F894109280001092810010928500DD
:105A20001092840088E191E090938900809388002F
:105A300080918100886080938100809181008160E5
:105A40008093810080916F00826080936F007894D2
:105A50008091540690915506892B11F00E94792A65
:105A600080914E06813009F0C0C210926E0680E02F
:105A700090E00E949416823B9A4CF1F40BEC11E0FA
:105A8000C0E2D0E0CE010E949416F8018193919378
:105A90008F012296CA32D105A9F784E090E00E94D6
:105AA0006C168093BA0186E090E00E946C16809399
:105AB00012038093370410C0C0E0D0E0CE010E94F2
:105AC0008932882321F060E0CE010E949132219634
:105AD000C115F4E0DF0791F781E08093F6060E949C
