:100000000C9439060C9461060C9461060C946106FC
:100010000C9461060C9461060C9461060C946106C4
:100020000C9461060C9461060C9461060C94F6061F
:100030000C9461060C9461060C9461060C946106A4
:100040000C948C060C9461060C9461060C94610669
:100050000C9461060C9461060C9461060C94610684
:100060000C9461060C946106101000000060062AD2
:100070001A5EF7B4DFECCC1E6FE07F3C32861FB017
:100080002E3C05F801A41140000010100000006093
:1000900006200240F780CE04C8F865C07B0032C855
:1000A000130005C000900080000000001010000048
:1000B0000000400048008000D400A0001000C400F0
:1000C00040002000000000000000000000001010B0
:1000D0007F00FD80FF80FF802F803F8007C207E206
:1000E0000FF30BFF03FF03FF03FE03FC02100630B8
:1000F000101000FE01BF01FF01FF01F401FC43E00D
:1001000047E0CFF0FFD0FFC0FFC07FC03FC0084036
:100110000C6010107F00FD80FF80FF800F803F800B
:1001200007C107E11FF313FF03FF03FF01FE01FCFB
:1001300001100330101000FE01BF01FF01FF01F0AC
:1001400001FC83E087E0CFF8FFC8FFC0FFC07F80DD
:100150003F801100198010100000000020020200F2
:100160000020048000040002202A048001161400EC
:1001700008925601092A00041010000000006600D1
:100180002442346615A4156C17DAD7FE65A235BE75
:10019000798AAFBBEEAF7BBE3FFC101000000000C1
:1001A0000000000000000000000027C22FFE2FA268
:1001B0003FF87FFEFFFFEEEF7FFE3FFC10100000D8
:1001C00000000000000000000000000087C24FFE99
:1001D0006FA23FF87FFEFFFFFFFF77763FFC020232
:1001E000000000180A0FC000307E00486180A8603F
:1001F00040A5A0408DC340800040B80EC0EFFBC0BA
:100200007FFF80180E003000FFE800803C00803F38
:1002100000802D80D17C80800C8089B4809DB88046
:10022000880180B01C80A81580FFFF807FFF001828
:100230000C01800006C000793F80E9B7C0E833C0F8
:10024000E6D7C0EEEFC0910940F92FC0FD0FC0EF17
:10025000FDC07FFF80180C03E0000230007E3F00ED
:10026000823180BE3080BE3080BED18080E0808010
:100270000080B81D80EFF7807FFF00180A07E000BC
:100280007C3F808C3040EC3D40EBFD40873040FFB0
:10029000FFC0FFFFC0EFFDC07FFF80050038016891
:1002A00001000017534400161378001613140015AC
:1002B00010200015201000540A03E181867F3E18AB
:1002C0006D830F0F0E0183866033186DC3198F186D
:1002D00003C38E6033186DE330CF1803C39E6036BE
:1002E00030CDE360CF3006C79E7E3E30CDB360CFC9
:1002F000300CC6F6603330D9B660CF33CFCCF66061
:1003000061B0DB1E60CF30D86CE6C061B0DB1E612F
:100310008F19986CC6C063B19B0E330F0FB078C6AF
:10032000FF7E1F1B061E0F4024000000000000007F
:1003300000FFFFFFFFFFFFFFFE8000000000000046
:1003400002BF3E3B30E3673DFABF336DE1F36DB171
:10035000FA8C336CC31B6DB0628DBE78C31B6F1CEF
:10036000628DB661E31B6C6C628C373B31F1C73C2C
:100370006280000000F80000028000000000000021
:1003800002FFFFFFFFFFFFFFFE000001E000000093
:100390000000000618000000007676C4C81FFE00AA
:1003A00000556489247FF3C000764249E47FF3C09E
:1003B000004576C5287FFFC000000006187FFFC0FB
:1003C00000000001E07FFFC000000000007FFFC0D0
:1003D0000030FF01807FFFC00033FFFF8000FFC0BF
:1003E0000033FFFF8007FFC00033FEC18007FFC05E
:1003F0000033FEC180001FF0063FFFFC00001FF825
:10040000063FFFFC0001FFFF1E7FFFFF8001FFFF93
:100410001E7FFFFFE001FFFF1E7FFFFFE0010FFFD8
:10042000FE73E7CFE0000FFFFE73E7CFE912EF3373
:100430004E7FFFFF955547AD6E3FFFFE14E243939D
:1004400068000000000003FFF800582B00000000C7
:100450000000C00000000000000FFFFE0188020045
:1004600000000003FFFFFF0318C6800000001FFF0D
:10047000FFFF86318D801C00007FFFFFFF8E639B96
:1004800000600000FFFFFFFF8C472031C00000FF2D
:10049000FFFFFF983F00F6038001FC1FFFFF987FDE
:1004A000FFE40F0001FC1FFFFF80F3FFC07E60012F
:1004B000FC1FFFFF83E7C007F9F001FC1FFFFF0FE0
:1004C000CFFFFFFFF001FFFFFFFF3C3FFF80000079
:1004D00001FFFFFFFF3FFF03FFFFF001FFFFFFFEF4
:1004E0003BFFFFFFFFF001FFFFFFF86207FFFFFF89
:1004F000F001FFFFFF00FFFFFC00000001FFFFFC19
:100500001F8FFFFFFFFFF001FFFFF07FFFFFFFFFE7
:10051000FFF001FFFFF1FCFFC00000000001FFFF42
:10052000E78780000000000001FFFFE7FF80000078
:1005300000000003FFFFE1FEFE001FFFFFF003FFCE
:10054000FFE03F7FFFFFFFFFF007FFFFF81F9FFF68
:10055000FFFFFFF007FFFFFFEFFE00780000700FC6
:10056000FFFFFFE7FFFFFFFFFFF01FFFFFFFE3F3CA
:10057000FFFFFFFFF03FFFFFFC03F9F1E04FFB90AF
:10058000FFFFFF8001BE7E3F387FC0FFFFFF0001FD
:100590009E7FFF067EE0FFFFFF0001DF0FF7E38F86
:1005A000E0FFFFFF0001CF8B3BFCC660FFFFFF00B9
:1005B0000063C198FF0720FFFFFF000030F0C6076F
:1005C000C300FFFFFFFF801B386300E000FFFFFF59
:1005D000FFC0098C21C00000FFFFFFFFC00886108C
:1005E000400000FFFFFFFEC00CC200000000FFFF44
:1005F000FFE6C0046300000000FFFFE0660004188F
:1006000000000000FFFFC03000060C00000000FFEB
:10061000FFC00000000600000000FFFFC000000057
:1006200002000000004C4556454C3A200040240092
:1006300000000000000000FFFFFFFFFFFFFFFE8043
:1006400000000000000002807080380E45DC02804F
:10065000814520114512028883CAB015459E229C0F
:100660009A28A015291472888A28A011391222808C
:10067000FA28B80E11D202800000000000000280AB
:1006800000000000000002FFFFFFFFFFFFFFFE0071
:1006900000000000000000000001E0000000000079
:1006A000000618000000007676C508000001FC5521
:1006B0006489C4000001FC76424924000001FE4523
:1006C00076C5C8000001FE0000061800000DFE00FF
:1006D0000001E000000DFE0000000000000DFE0023
:1006E00000000000038FFE000000000001CFEA00C0
:1006F000000000380CCFF6000000003007FFEA00D1
:100700000000003CFFFFFE000000001FFFFFFE0096
:100710000000001FFFFFFE000000001FFFFFFC00A5
:100720000000000FFFFFFC0000000007FFFFF8249F
:100730004B999607FFFC0055550A520F8FF9F0535D
:10074000890D921FF87BFC0000000079FFF0005338
:10075000636F72653A2000180E1004003258001BB7
:100760003F004E7A0016D1805B33004FE7006CDF0C
:10077000003F7A002FEA808B9500E5278035EE0058
:1007800006680058100000000000001000000480FF
:100790000000000008420133266250000000000003
:1007A000001219818370FFFFFFFFFFFFFFFFFFFFB4
:1007B000F0000000002040080F8F8070F3CFEF9F03
:1007C0001801009838C7300000000200040401102E
:1007D00039F000000000001050010000700000001F
:1007E0000001000039CCD8309FEFBF8FF01004E03B
:1007F000764FF0000000000002403C1BF1F0FFFFCC
:10080000FFFFFFFFFFFFFFFFF000000000000048B8
:100810001E070FF000000000004800F03C7BA00025
:100820000002001000438460C2600000000100105C
:100830000401C000400808081C264349995A34089E
:10084000080076DFBFDF6E3C181009040008007F47
:1008500000FE80FE80FF80FF807F003E00100910B8
:100860000008001C003E003A003C001C001800304C
:10087000005812000000000000000000000000000E
:100880000000000000000000000000000000000068
:100890000000000000000000000000000000000058
:1008A0000000000000000000000000000000000048
:1008B0000000000000000000000000000000000038
:1008C0000000000000000000000000000000000028
:1008D0000000000000007C7C7C7C7C7C7C7C7C7C40
:1008E0007C0000000000000000000000000000008C
:1008F00000000000000000000000000000000000F8
:1009000000000700000000E00000000000020000FE
:1009100000004000000000000200008000400000D5
:100920000000100200008000400004000810FFFFDB
:10093000FFFFFFF77FFFFFE3FF580A000000000002
:1009400000F8001F0000000000001F010600E07B0F
:10095000BE3B8043DF20E157012A84414460A4204C
:10096000EAF1058160A6D56663B6AAE08B55772AC1
:1009700084414466B420EF85054960A6D544681ECD
:10098000AAF80555692A8441666A9C200A450549EA
:1009900060A6D544781EAA080555692A84414402F8
:1009A0009C200A45004820A4550101FF030101F7DE
:1009B00003AD09A90900000000240027002A000057
:1009C000000000250028002B0005008930080238AF
:1009D000024978681400000A0A153A49676E6F7276
:1009E00065006D560A0A504C4541534520545552F6
:1009F0004E204F464620004C4F572042415454450C
:100A0000525921200003053F213F1208120A100A03
:100A10000E1C0E0C1E0C141A14161F161E131E1E6E
:100A20001B1E1E1F1E3F213F3A2F3A173D173F2125
:100A30003F181F02040A041F0E04040E1F0A1F0A97
:100A40000E0E1F04110E2E252E2F2A2E26292902C6
:100A50001F02081F08150E04040E150E15151B1590
:100A60001B040604040C040000000017000300032C
:100A70001F0A1F16371A1904130A153A000300003B
:100A80000E11110E000A040A040E040030000404C2
:100A9000040010001804031F111F121F101D15174A
:100AA00011151F07041F17151D1F151D01011F1FFD
:100AB000151F17151F000A00003200040A110A0A48
:100AC0000A110A040115020E11171E051E1F150A30
:100AD0000E110A1F110E1F15111F05010E111D1FEA
:100AE000041F111F1108100F1F041B1F10101F06D9
:100AF0001F1E040F0E110E1F09060E112E1F051AC0
:100B0000121509011F011F101F0F180F1F0C1F1BAB
:100B1000041B031C03191513001F11030418111FD4
:100B2000000201022020200001020C121E1F120CE4
:100B30000C12120C121F0C1A14041E05242A1E1F5C
:100B4000021C141D1020201D1F0814111F101E044C
:100B50001E1E021C0C120C3E0A040C123E1E040245
:100B600014160A020F120E101E0E100E1E081E1270
:100B70000C1226281E322A26041E21001F00211EC8
:100B8000040102013F213FF6E8DBCFC3B8AEA49BCE
:100B9000928A827B746E68625C57524E4945413E30
:100BA0003A3734312E2C29272523211F1D1C1A19D1
:100BB00017161514131211100F0E0D0C0B0A09083D
:100BC0000706450068010000172B152010204C4F28
:100BD0004144455200172B16201314000A4E6F2073
:100BE00053442063617264206F720A6E6F204C4F11
:100BF000414445522E4845580A0A153A45786974C9
:100C0000001D20466C617368696E670A20206C6F56
:100C1000616465722E2E2E0A0A444F4E27542054CA
:100C200055524E204F46462100000000002300266A
:100C30000029000404040404040404020202020261
:100C40000203030303030301020408102040800190
:100C5000020408102001020408102000000008000F
:100C60000201000003040700000000000000000073
:100C7000BC1F11241FBECFEFD8E0DEBFCDBF11E0F7
:100C8000A0E0B1E0E2E3F5E402C005900D92A035EA
:100C9000B107D9F724E0A0E5B1E001C01D92A53865
:100CA000B207E1F716E0C9E3D6E004C02197FE01E0
:100CB0000E948C22C833D107C9F70E94C71F0C9429
:100CC00097220C940000089580E090E008953FB7CB
:100CD000F89480916F0190917001A0917101B09191
:100CE000720126B5A89B05C02F3F19F00196A11DE2
:100CF000B11D3FBFBA2FA92F982F8827820F911DB2
:100D0000A11DB11DBC01CD0142E0660F771F881FF8
:100D1000991F4A95D1F708951F920F920FB60F921F
:100D200011242F933F938F939F93AF93BF93809101
:100D30007C0190917D01A0917E01B0917F01309165
:100D40006E0123E0230F2D3720F40196A11DB11D64
:100D500005C026E8230F0296A11DB11D20936E0148
:100D600080937C0190937D01A0937E01B0937F01DD
:100D700080916F0190917001A0917101B091720109
:100D80000196A11DB11D80936F0190937001A093F6
:100D90007101B0937201BF91AF919F918F913F917B
:100DA0002F910F900FBE0F901F901895809180018A
:100DB000882319F08091880101C080E09091810121
:100DC000992319F090918901890F909182019923BB
:100DD00019F090918A01890F90918301992319F05C
:100DE00090918B01890F8093B40008951F920F9208
:100DF0000FB60F9211242F933F934F935F936F93EE
:100E00007F938F939F93AF93BF93EF93FF936091E3
:100E10008401611102C080E023C080916A018F5F6C
:100E200080936A01909174018917A8F390918001D1
:100E300081E089278093800110926A018091780176
:100E4000882369F08091120193E4899F802D1124F9
:100E5000895B809312010E9458229093880181E05F
:100E600060918501662319F190916B019F5F9093CA
:100E70006B01209175019217D0F09091810181E072
:100E800089278093810110926B01809179018823D9
:100E900069F08091120193E4899F802D1124895B70
:100EA000809312010E9458229093890181E0609101
:100EB0008601662319F190916C019F5F90936C01FC
:100EC000209176019217D0F09091820181E08927DC
:100ED0008093820110926C0180917A01882369F0DD
:100EE0008091120193E4899F802D1124895B809366
:100EF00012010E94582290938A0181E0609187013B
:100F0000662319F190916D019F5F90936D0120917F
:100F100077019217D0F09091830181E08927809327
:100F2000830110926D0180917B01882379F080917B
:100F3000120193E4899F802D1124895B8093120113
:100F40000E94582290938B0101C081110E94D60605
:100F5000FF91EF91BF91AF919F918F917F916F9191
:100F60005F914F913F912F910F900FBE0F901F9067
:100F7000189528EF31E0ECE8F1E0DF01A9011D92BE
:100F800041505040E1F7DC0119961C9219971A96CE
:100F90001C920895FC01643508F053C0403308F0FA
:100FA00050C090A1742F759575957595262F062EB6
:100FB000000C330B542F57709230A1F4F90184E5E3
:100FC0007802E00DF11D1124E457FE4F808190E07E
:100FD000052E02C0959587950A94E2F78095982F83
:100FE00091700AC0933041F4848581704627409502
:100FF0004170841303C014C0911112C084E57802BB
:10100000200D311D1124F901E457FE4F81E090E0DD
:1010100001C0880F5A95EAF780959081892310C006
:1010200084E57802200D311D1124F901E457FE4FAB
:1010300081E090E001C0880F5A95EAF79081892BF2
:1010400080830895EF92FF920F931F93CF93DF93C6
:101050008C01F62ED42FE22EC0E0CE1544F46F2D75
:101060006C0F4D2FC8010E94CA07CF5FF6CFDF91EA
:10107000CF911F910F91FF90EF900895DF92EF9223
:10108000FF920F931F93CF93DF937C01D62FD22E25
:10109000C42F002E000C110B040F111D47FD1A95D3
:1010A0008C2F0C2E000C990B8017910744F42D2DDA
:1010B0004C2F6D2FC7010E942208CF5FF1CFDF9127
:1010C000CF911F910F91FF90EF90DF9008956F9255
:1010D0007F928F929F92AF92BF92CF92DF92EF92C8
:1010E000FF920F931F93CF93DF93EC016A3011F4BB
:1010F0002885A3C06D3009F4A7C0A98483E58A15AB
:101100000CF485C0BA848FE28B150CF480C0D884AF
:101110008C8190E00197D89E9001D99E300D1124CA
:10112000C9018A0D911DA7FC9A95181619060CF095
:101130006EC02D818B2D0B2C000C990BD29E800D37
:10114000911D1124181619060CF061C088A09A2C64
:10115000CA2CE62EF12CEC2DEA190E2E000CFF0BFA
:101160008C8190E0E817F9070CF050C00197E81760
:10117000F90779F0E89E9001E99E300DF89E300D58
:101180001124E20FF31F8E8D9F8DE80FF91F14912C
:1011900001C010E06B2C7B2C272D2B19022E000C8C
:1011A000330B8D8190E0281739076CF510FF11C0C3
:1011B00081E0D81206C0472D6C2DCE010E94CA07CF
:1011C0001EC00D2D2D2D462D692DCE010E943E08ED
:1011D00016C089A198A1891791F088A381E0D8123F
:1011E00006C0472D6C2DCE010E94CA0707C00D2DE9
:1011F0002D2D462D692DCE010E943E0888A2169500
:1012000073946D0CC9CFC3949D0CA5CF88A228857B
:101210003C818985239F800D112489879F81992393
:1012200099F0082E000C990B44E550E0239F4019DB
:1012300051091124481759073CF49D818A85299F3B
:10124000800D11248A87198681E090E0DF91CF918B
:101250001F910F91FF90EF90DF90CF90BF90AF90D4
:101260009F908F907F906F900895EF92FF920F93D1
:101270001F93CF93DF938C01D62FF42EE22EC0E084
:10128000CE1544F44F2D4C0F6D2FC8010E94CA0794
:10129000CF5FF6CFDF91CF911F910F91FF90EF902D
:1012A00008958F929F92AF92BF92CF92DF92EF926A
:1012B000FF920F931F93CF93DF9380916E04882347
:1012C00009F4C5C081E08093540410925304109235
:1012D00052041092A40380936C0480936D04C9E4BB
:1012E000D4E01CE00E946D168823E1F3FE01849196
:1012F000882319F00091510401C000E027EB32E08F
:1013000040E060E08CE494E00E94591B4CE0400F08
:1013100027E233E060E08CE494E00E94591B1092D5
:1013200055041093560469E474E08CE494E00E9440
:10133000681280915004982F990F890F81958D5ACA
:101340008093550480915104982F990F890F8195AE
:10135000835D8093560480916F0484FF03C083EB08
:1013600092E002C08FEA92E00E94351F8091500403
:10137000982F990F890F81958D5A809355048091EC
:1013800056048F5F809356048091C203882319F01E
:101390008BEA92E002C087EA92E00E94351F8091BA
:1013A0005004982F990F890F81958D5A8093550479
:1013B000809156048F5F8093560483EA92E00E94E6
:1013C000351F8091A2038130B9F48091C2038F5FF1
:1013D0006091C30387FD09C0082E000C990B70E0D3
:1013E0006F5F7F4F0E946422682F6093C20360E0AA
:1013F00082EC9BE00E94361E8091A1038130B9F0FF
:1014000080916E04482F50E060E070E0C0906F045F
:10141000D0907004E0907104F0907204C416D50668
:10142000E606F70608F460C08F3F09F45DC08FEF51
:1014300080936E0480E00E94F71C1092B50360E078
:101440008BE992E00E94361E81E08093A403C09055
:10145000A603D090A703C094D094E12CF12C0E9455
:1014600067064B015C010E946706A5019401209567
:1014700030954095509560957095809590950E9417
:1014800048229B01AC01C701B6010E9448226B01B2
:101490007C0160918D0370918E034B01A12CB12CC6
:1014A0000E946706DC01CB01880D991DAA1DBB1D9A
:1014B000BC01CD016C0D7D1D8E1D9F1D611571053B
:1014C0008105910511F00E94B2201092A403DF91D2
:1014D000CF911F910F91FF90EF90DF90CF90BF9031
:1014E000AF909F908F9008958091A303813009F071
:1014F000F9CE0E94481FF6CE8AE290E090930D014B
:1015000080930C0110925B0110925A016CE170E023
:1015100080E090E00E944712DC01CB010A96A11DF9
:10152000B11D9093090180930801109261011092FE
:1015300060018BE090E090930B0180930A0181E0C1
:1015400090E090935101809350019093010180931A
:10155000000165E070E080E090E00E944712DC014D
:10156000CB018396A11DB11D909365018093640109
:1015700008952F923F924F925F926F927F928F9237
:101580009F92AF92BF92CF92DF92EF92FF920F9312
:101590001F93CF93DF9377247394CC24C394D12CDF
:1015A00043E0242E312C50EF452E55245A9464E606
:1015B000662E0E946D16882309F427C5C091680124
:1015C00029E339E048E06C2F8CE494E00E94591B39
:1015D00064E56C0F29E339E048E08CE494E00E9474
:1015E000591B6CEA6C0F29E339E048E08CE494E085
:1015F0000E94591BC0916601D091670121E738E034
:101600004EE16C2F8CE494E00E94591B6C2F6C5AB5
:1016100021E738E04EE18CE494E00E94591B6C2FE6
:10162000645521E738E04EE18CE494E00E94591BB8
:1016300010926C0410926D041091640141E0410F0E
:101640006C2F665A09E028E18CE494E00E943E0881
:1016500070926C0470926D04E0916201F0916301EC
:10166000EE0FFF1FE35DFE4F208131816C2F675A23
:10167000412F8CE494E00E94591BC835DF4FD9F507
:1016800010926701109266016CE070E080E090E0DB
:101690000E944712DC01CB018096A11DB11D9093E1
:1016A0006501809364016AE470E080E090E00E944C
:1016B0004712DC01CB010A96A11DB11D90931101C7
:1016C000809310016DE070E080E090E00E9447128E
:1016D000DC01CB014496A11DB11D90930F018093B5
:1016E0000E0164E070E080E090E00E944712709389
:1016F000630160936201809168019091690188356E
:101700009F4F21F4109269011092680180910C01A1
:1017100090910D01CC970CF0BCC28091A303813055
:1017200009F45CC322E144E562E180E00E944410D8
:1017300086E30E94BB10C4E580910A014C2F481B30
:1017400023E063E086E30E94441088E10E94BB101E
:1017500080910C014C2F481B23E063E088E10E943C
:1017600044107092550410925604409160015091BB
:1017700061014A01550FAA08BB08B7FE0EC06DE211
:101780008CE494E00E94611244275527BA0148195D
:1017900059096A097B092AE003C02AE0B501A401BE
:1017A0008CE494E00E94A11265E471E08CE494E082
:1017B0000E948C1280915E0190915F01059719F44F
:1017C0002DE538E002C029E438E040910E01609137
:1017D00010018CE494E00E94591BE0905A01F090B3
:1017E0005B01E0915C01F0915D01EE0FFF1FEB5D8D
:1017F000FE4F40815181609108018E2D0E94DB10C7
:101800002FE338E040E06FE08CE494E00E94591B45
:1018100025E338E040E06DE28CE494E00E94591B3F
:1018200010926C0410926D04C0915801D09159012E
:10183000CE018D7F009721F460910401695F05C09E
:10184000019759F4609104016D5F03E025E0409138
:1018500006018CE494E00E943E0870926C04709241
:101860006D04009106011091070180900401909091
:101870000501FE01EE0FFF1FE35EFE4F2081318167
:10188000402F682D8CE494E00E94591B1092570160
:101890001092560180919F0381508E3FB0F5809148
:1018A00068019091690101979093690180936801A3
:1018B00080916601909167010297909367018093F0
:1018C000660191E0E91AF108F0925B01E0925A0199
:1018D00080911001909111010197909311018093D3
:1018E00010012BE3821691043CF48FEF881A980ABA
:1018F00090920501809204012296C330D1050CF02C
:1019000074C2D0935901C093580180919D038150B6
:101910008E3FE8F58091680190916901019690935E
:101920006901809368018091660190916701029638
:10193000909367018093660180915A0190915B01B9
:10194000019690935B0180935A01809110019091D0
:10195000110101969093110180931001809104016F
:1019600090910501181619062CF401979093050122
:10197000809304018091580190915901029684301E
:1019800091050CF037C290935901809358018091D2
:10199000A00381508E3F48F40832110534F40F5FE4
:1019A0001F4F109307010093060180919E03815001
:1019B0008E3F60F480910601909107018730910578
:1019C0002CF0019790930701809306018091A10369
:1019D00081508E3FB8F480910A0190910B018E31B5
:1019E00091052CF4019690930B0180930A0180914C
:1019F0005801909159018D7F009709F400C2019719
:101A000009F425C200910E0110910F0120911001DF
:101A100030911101E0915801F0915901EE0FFF1F33
:101A2000E35EFE4F40815181609106017091070194
:101A3000E9E4EE2EE8E0FE2E80910401909105018C
:101A40000E947111882309F45EC080916001909119
:101A50006101059690936101809360016AE470E0F2
:101A600080E090E00E944712DC01CB010A96A11DA4
:101A7000B11D90931101809310016DE070E080E042
:101A800090E00E944712DC01CB014496A11DB11DDC
:101A900090930F0180930E0180915E0190915F0100
:101AA000059709F013C2D0925501C092540188E500
:101AB00090E090930301809302018BE090E090937B
:101AC0000B0180930A0169E070E080E090E00E94E1
:101AD0004712DC01CB010196A11DB11D90935F015E
:101AE00080935E0180910A0190910B018C309105E9
:101AF00054F004978B30910514F48BE090E09093B0
:101B00000B0180930A0180915A0190915B01209111
:101B10000601309107014091040150910501FA013D
:101B200070968E179F070CF5BC01685F7F4F4617B4
:101B30005707DCF46091640170916501D901129638
:101B40006A177B0794F46E5F7F4F261737076CF494
:101B500060910C0170910D016C33710534F46F5F6D
:101B60007F4F70930D0160930C016091080170919B
:101B700009018E179F07DCF4FC0170964E175F0772
:101B8000B4F4F90132966E177F078CF4FB0132969C
:101B90002E173F0764F4E0910C01F0910D01EC3336
:101BA000F1052CF43196F0930D01E0930C01E091D6
:101BB000A103E150EE3F30F5E0910A01F0910B01F5
:101BC0007E9704F54F5E5F4FE0910201F0910301B3
:101BD000E40FF51F8E179F070CF483C180915A0103
:101BE00090915B012091040130910501215131094F
:101BF0004091020150910301420F531F8417950732
:101C00000CF486C18091560190915701181619065F
:101C10000CF43FC080915A0190915B01813F2FEFFE
:101C2000920754F02091000130910101821B930B27
:101C300090935B0180935A0180915A0190915B01CE
:101C4000803F9F4FACF484E690E090935B018093DB
:101C50005A016CE170E080E090E00E944712DC01E4
:101C6000CB010A96A11DB11D909309018093080133
:101C700080915C0190915D010196823091052CF478
:101C800090935D0180935C0104C010925D011092FD
:101C90005C01C09164011091650180906601909093
:101CA0006701E0916201F0916301EE0FFF1FE35DB8
:101CB000FE4FE080F1809401275A3F4FE091580198
:101CC000F0915901EE0FFF1FE35EFE4F40815181FD
:101CD00060910601709107010C2F80910401909191
:101CE00005010E947111882379F069E5680D27E5E7
:101CF00037E04C2F8CE494E00E94591B84E490E080
:101D0000909365018093640180910C0190910D0185
:101D1000CC9704F18CE494E00E94B9076FE477E07B
:101D20008CE494E00E9468126091600170916101FE
:101D30008CE494E00E941D1D2DE236E04AE06AE04A
:101D40008CE494E00E94591B8091A20381508E3F45
:101D500008F458C18091500190915101689E900102
:101D6000699E300D1124809160019091610182176C
:101D700093070CF44AC18CE494E00E94B90765E231
:101D800076E08CE494E00E946812609150017091BA
:101D900051018CE494E00E941D1D2AE434E045E0EA
:101DA00060E08CE494E00E94591B8091A203815072
:101DB0008E3F08F02AC18091500190915101019607
:101DC0009093510180935001809100019091010105
:101DD00001969093010180930001EBCB0E947C0A55
:101DE0000E9417140E9451099DCC10925901109223
:101DF00058018BCDD0925901C0925801C8CD809125
:101E00000A0190910B014D970CF04EC08091540146
:101E100090915501009781F4E0915201F0915301A6
:101E2000EE0FFF1FE95EFE4F2081318160910401BA
:101E30006F5E4091060120C00197B1F560910601E7
:101E400064508091040143E857E0865F2BC0809185
:101E50000A0190910B014E973CF5809154019091AD
:101E600055018130910569F440910601445060911B
:101E70000401615523E837E08CE494E00E94591B8B
:101E800013C0892B89F4E0915201F0915301EE0FB8
:101E9000FF1FE95EFE4F40815181809104016091F6
:101EA000060181510E94DB108091520190915301F3
:101EB0000196833091052CF4909353018093520145
:101EC000A1CD10925301109252019CCD1092550158
:101ED0001092540180E190E09093030180930201FD
:101EE000F2CD4096481759070CF078CEA9014E5E06
:101EF0005F4FCB014096841795070CF06FCE205FA3
:101F00003F4F6E5E7F4F261737070CF067CE1FC01E
:101F10004096281739070CF075CE809108019091F2
:101F200009012091060130910701BC01605F7F4FDC
:101F3000A9014E5E5F4F641775070CF063CE205FFA
:101F40003F4F4296281739070CF05CCE2DC0809188
:101F50005801909159018D7F892B09F03FCED09285
:101F60005701C092560130925D0120925C0150925F
:101F70005B0140925A016CE170E080E090E00E94C9
:101F80004712DC01CB010A96A11DB11D90930901F6
:101F90008093080180916001909161010A9690936D
:101FA0006101809360011ACE80915801909159018E
:101FB0008D7F8130910509F025CE90935701809354
:101FC000560130925D0120925C0150925B0140927B
:101FD0005A016CE170E080E090E00E944712DC0161
:101FE000CB010A96A11DB11D9093090180930801B0
:101FF00080916001909161010A96909361018093B4
:10200000600100CE0E947C0AA5CEDF91CF911F9186
:102010000F91FF90EF90DF90CF90BF90AF909F9087
:102020008F907F906F905F904F903F902F9008958A
:10203000CF92DF92EF92FF920F931F93CF93DF9394
:102040006C017A018B01C0E0D0E0CE15DF0581F094
:10205000D8016D918D01D601ED91FC910190F08137
:10206000E02DC6010995892B11F02196EECF7E0156
:10207000C701DF91CF911F910F91FF90EF90DF90FB
:10208000CF9008950E9492229F92AF92BF92CF92DA
:10209000DF92EF92FF920F931F93CF93DF93C82F9E
:1020A000D62F042FE22E022E000CFF08E61AF108AC
:1020B00067FDF394F7FE03C0F194E194F108C02E9C
:1020C000002E000CDD08CC1AD108C7FDD394D7FE32
:1020D00003C0D194C194D108CE14DF0434F4802F0E
:1020E000022F282F8C2FCD2FD82F0C1734F48D2FA3
:1020F000D22F282F8C2FC02F082FA02EAC1A822F62
:10210000022E000C990B8D1B9109D7FD939597FF1B
:1021100003C0919581959109B82E1A2DA7FE02C092
:1021200011E01A0D1595D2171CF099249A9402C04B
:10213000992493940C179CF0CE14DF041CF44C2FBC
:102140006D2F02C04D2F6C2F8CE494E00E94CA07C3
:102150001B1917FF02C0D90D1A0DCF5FEBCFDF910E
:10216000CF911F910F91FF90EF90DF90CF90BF9094
:10217000AF909F900895CF93C82F24E142E0682F3D
:102180008CE494E00E94220824E144E06C2F8CE46B
:1021900094E00E94220823E042E06C2F8CE494E05B
:1021A0000E94350963E16C0F23E042E08CE494E087
:1021B000CF910C9435092F923F924F925F926F927C
:1021C0007F928F929F92AF92BF92CF92DF92EF92C7
:1021D000FF920F931F93CF93DF9300D000D0CDB722
:1021E000DEB7362E7A01FA0194913196E491C92E28
:1021F000D12C3601F7E06F0E711C23E075946794C3
:102200002A95E1F7512C30E8A32EB12C0E2F10E0C7
:102210008150890F8983852D052C000C990B8C1515
:102220009D050CF047C05A8257FE03C027E0250DDC
:102230002A838A818595859585958A83852D8778DA
:1022400087FF03C08150886F8F5F450102C095945E
:1022500087948A95E2F7412CEA810E2E000CFF0B41
:102260003296FC83EB8329802518842D042C000CE6
:10227000990B80179107E4F4689EF001699EF00DB8
:10228000789EF00D11248B819C81E80FF91FEE0DD3
:10229000FF1DE491F0E0E821F921EF2B39F0442D06
:1022A000430D622D8CE494E00E94CA074394DDCF75
:1022B0005394B1CF0F900F900F900F90DF91CF916B
:1022C0001F910F91FF90EF90DF90CF90BF90AF9054
:1022D0009F908F907F906F905F904F903F902F9046
:1022E00008954F925F926F927F928F929F92AF92DA
:1022F000BF92CF92DF92EF92FF920F931F93CF93F3
:10230000DF93FA01A490B12C3196A491F701B49116
:102310003196E4913501680E791E261537059CF437
:10232000E901CB0FD11D8C179D076CF4B0E04D0176
:10233000860E971E0815190534F46801CE0ED11CBF
:102340006C157D0514F080E091C0821793070CF0A6
:1023500088C02901481A590A6017710724F4F80146
:10236000E61BF70B02C0E0E0F0E06C167D061CF007
:102370005E01A81AB90A8C149D041CF0D601A61B94
:10238000B70BDE2EC0E8D0E0682E621A762E701AE7
:102390002D2D30E02A173B07B4F6C42C872C8D0C6A
:1023A000912C8C2D90E08A159B050CF058C0FA01F9
:1023B000649170E0695F7F4FE3E075956795EA95FA
:1023C000E1F7629F8001639F100D729F100D112431
:1023D000F3E095958795FA95E1F70296F801E80FF5
:1023E000F91FE40FF51FE4918C2D8770BE0102C028
:1023F000759567958A95E2F7F0E0E623F723EF2BD2
:1024000099F1F701649170E0695F7F4F83E0759502
:1024100067958A95E1F7869EC001879E900D969EEE
:10242000900D1124662D6C0DE62FF0E073E0F5950C
:10243000E7957A95E1F73296E80FF91FEE0DFF1D4B
:10244000E4916770CE0102C0959587956A95E2F791
:10245000F0E0E823F923EF2B39F081E007C0D394B3
:1024600097CF412C512C78CFC3949BCFDF91CF9144
:102470001F910F91FF90EF90DF90CF90BF90AF90A2
:102480009F908F907F906F905F904F900895CF9224
:10249000DF92EF92FF92611571058105910549F078
:1024A0006B017C010E946420A70196010E94BB2061
:1024B00003C060E070E0CB01FF90EF90DF90CF9021
:1024C0000895DC01ED91FC910190F081E02D0994DB
:1024D000EF92FF920F931F93CF93DF938C017B01B9
:1024E000C0E0D0E0F701EC0FFD1F6491662361F0BE
:1024F000D801ED91FC910190F081E02DC801099582
:10250000892B11F02196EECFCE01DF91CF911F9153
:102510000F91FF90EF9008956115710579F0FB011F
:1025200001900020E9F73197AF01461B570BDC0102
:10253000ED91FC910280F381E02D099480E090E020
:1025400008958F929F92AF92BF92EF92FF920F9356
:102550001F93CF93DF93CDB7DEB7A1970FB6F89453
:10256000DEBF0FBECDBF7C01FA01CB0119A2223024
:1025700008F42AE08E010F5D1F4F822E912CA12CB2
:10258000B12CBF01A50194010E94ED20F901CA01FF
:10259000015011096A3014F4605D01C0695CD80112
:1025A0006C93232B242B252B61F7B801C7010E94C4
:1025B0008C12A1960FB6F894DEBF0FBECDBFDF918F
:1025C000CF911F910F91FF90EF90BF90AF909F9090
:1025D0008F900895833081F028F4813099F0823013
:1025E000A1F008958730A9F08830B9F08430D1F493
:1025F000809180008F7D03C0809180008F778093D1
:102600008000089584B58F7702C084B58F7D84BD26
:1026100008958091B0008F7703C08091B0008F7DC6
:102620008093B00008951F93CF93DF93282F30E05D
:10263000F901E55AF34F8491F901E95BF34FD49125
:10264000F901ED5CF34FC491CC23C1F0162F811139
:102650000E94EA12EC2FF0E0EE0FFF1FE154F64F5C
:10266000A591B4919FB7F894111104C08C91D095A5
:10267000D82302C0EC91DE2BDC939FBFDF91CF917A
:102680001F910895CF93DF9390E0FC01E95BF34F36
:102690002491FC01ED5CF34F8491882361F190E07B
:1026A000880F991FFC01EB54F64FC591D491FC01A2
:1026B000E154F64FA591B491611109C09FB7F89408
:1026C0008881209582238883EC912E230BC0623071
:1026D00061F49FB7F8948881322F309583238883E3
:1026E000EC912E2B2C939FBF06C08FB7F894E881F6
:1026F0002E2B28838FBFDF91CF9108951F93CF9307
:10270000DF93182FEB0161E00E944213209711F430
:1027100060E004C0CF3FD10539F461E0812FDF9143
:10272000CF911F910C941313E12FF0E0E55AF34F72
:10273000E491E330F9F048F4E130B9F0E230A1F58A
:1027400084B5806284BDC8BD34C0E730E9F0E830AC
:1027500019F1E43049F58091800080628093800017
:10276000D0938B00C0938A0024C084B5806884BD58
:10277000C7BD1FC080918000806880938000D09387
:102780008900C093880015C08091B0008068809354
:10279000B000C093B3000DC08091B0008062809300
:1027A000B000C093B40005C0C038D1050CF0B5CF5F
:1027B000AFCFDF91CF911F9108958F929F92AF92EB
:1027C000BF92CF92DF92EF92FF926B017C010E9449
:1027D00067064B015C01C114D104E104F104F1F07E
:1027E0000E946706DC01CB0188199909AA09BB0977
:1027F000883E9340A105B10570F321E0C21AD108CB
:10280000E108F10888EE880E83E0981EA11CB11C37
:10281000C114D104E104F10419F7DDCFFF90EF906A
:10282000DF90CF90BF90AF909F908F900895CF9200
:10283000DF92EF92FF920F931F93CF93DF9382E388
:1028400080937D0481E090E0A0E0B0E08093790483
:1028500090937A04A0937B04B0937C048FEF8093D1
:102860006E04E0E8F7E7259134912130304C09F00F
:1028700049C0E6E9F7E7E491E0935704E7E9F7E7B1
:10288000E491E0939003E8E9F7E7E491E0939103A2
:10289000E9E9F7E7859194919093930380939203EC
:1028A000EBE9F7E7859194919093950380939403D6
:1028B00087E08093C303EEE9F7E7E491E093C20376
:1028C000EFE9F7E7E491E0936E04E0EAF7E785913A
:1028D00094919093A9038093A803E2EAF7E7859186
:1028E00094919093AB038093AA03E4EAF7E7859170
:1028F00094919093AD038093AC03E6EAF7E785915A
:1029000094912CC09CE39093570410929003809371
:10291000910380E293E0909393038093920384ED7C
:1029200093E0909395038093940387E08093C3038F
:102930008093C2038CEA9DE09093A9038093A8033F
:102940008EED9DE09093AB038093AA0384E79EE015
:102950009093AD038093AC038CE39FE09093AF031F
:102960008093AE036FEF70E08FEF0E947E1388E0DC
:102970008093960389E08093970387E08093980380
:1029800086E080939903C4E0C0939A0382E0809329
:102990009B0385E080939C030E94EA1E8CE39FE0EA
:1029A0009093A7038093A603C093A50381E080932F
:1029B000B0039BE090935A049DE09093590490E1FA
:1029C00090935B049EE090935D049FE090935C0481
:1029D0008093540480936C0410926D04809353048C
:1029E000E5E0FAE0E491EF5FE0935004E6E0FAE01E
:1029F000E491EF5FE093510487E09AE090936B04D9
:102A000080936A04CFB7F89480917301811127C035
:102A1000EDE3FCE08491E1E5FCE09491E82FF0E047
:102A2000EE0FFF1FEB54F64FA591B491EC91E92303
:102A300021F461E08AE00E94131361E08AE00E94C1
:102A400042138CB580618CBD8CB580648CBD61E017
:102A50008DE00E94421361E08BE00E94421380915E
:102A600073018F5F80937301CFBF8CB58F7D8CBD59
:102A70008CB58C7F81608CBD8DB581608DBD8CB532
:102A80008C608CBD61E080915A040E94421361E029
:102A9000809159040E94421361E080915B040E947E
:102AA000421380915D0418161CF461E00E944213E9
:102AB00080915C0418161CF461E00E94421380911E
:102AC0005D04181674F460E00E9413136AE070E06D
:102AD00080E090E00E94DD1361E080915D040E943F
:102AE000131380915904082E000C990BFC01ED5C26
:102AF000F34FE491F0E0EE0FFF1FE154F64F259104
:102B000034913093610420936004FC01E95BF34F3E
:102B1000E491E093670480915A04082E000C990B0D
:102B2000FC01ED5CF34FE491F0E0EE0FFF1FE15488
:102B3000F64F2591349130935F0420935E04FC019D
:102B4000E95BF34FE491E093660480915C04082E06
:102B5000000C990BFC01ED5CF34FE491F0E0EE0FFB
:102B6000FF1FE154F64F2591349130936304209375
:102B70006204FC01E95BF34FE491E0936804809107
:102B80005B04082E000C990BFC01ED5CF34FE49103
:102B9000F0E0EE0FFF1FE154F64F25913491309392
:102BA000650420936404FC01E95BF34FE491E09336
:102BB000690481E20E949D1C84E10E949D1C809119
:102BC000570487FF03C08FE7809357048091570411
:102BD00080680E949D1C80E20E949D1C8CE00E94E7
:102BE0009D1C0E94BC1C81E08093C10388E4E82EF8
:102BF00084E0F82E04EE13E0C0E0D1E091EBC92EA2
:102C000099E0D92EF701D1937F01F801C192D192B9
:102C10008F016C2F80E00E94AF1ECF5FC43091F710
:102C200061E070E083E00E947E138091B100887FB4
:102C300081608093B100F89410928000109281001E
:102C4000109285001092840088E191E090938900B1
:102C500080938800809181008860809381008091BA
:102C6000810081608093810080916F0082608093F9
:102C70006F0078948091A8039091A903892B11F09B
:102C80000E94751F8091A203813059F41092C203F3
:102C9000DF91CF911F910F91FF90EF90DF90CF9038
:102CA000089560E089EC99E00E94361E61E089ECAD
:102CB00099E00E94361E62E089EC99E00E94361E7F
:102CC00063E089EC99E0DF91CF911F910F91FF9024
:102CD000EF90DF90CF900C94361E2F923F924F9240
:102CE0005F926F927F928F929F92AF92BF92CF929C
:102CF000DF92EF92FF920F931F93CF93DF93CDB7A5
:102D0000DEB72E970FB6F894DEBF0FBECDBF409151
:102D10007E0450917F0460918004709181042FB7EC
:102D2000F89480917C0190917D01A0917E01B091F9
:102D30007F012FBF481B590B6A0B7B0B80917D04D1
:102D400090E0A0E0B0E00091790410917A04209125
:102D50007B0430917C0484179507A607B70730F4ED
:102D6000011511052105310509F01EC4012B022BA7
:102D7000032B09F017C48091A30381508E3F20F5E7
:102D80008091A203813001F58091C2038F5F609131
:102D9000C30387FD09C0082E000C990B70E06F5F1C
:102DA0007F4F0E946422682F6093C20385ED9BE0F1
:102DB000909383048093820488E48093840460E089
:102DC00082EC9BE00E94361E8091A30381508E3FCF
:102DD00070F48091A103813009F04CC488EC9BE031
:102DE000909383048093820488E48093840480E039
:102DF0000E94681E81E00E94681E82E00E94681E98
:102E000083E00E94681E2CE833E038872F83B0E807
:102E1000CB2EB1E0DB2E00EF13E08CEDE82E83E04B
:102E2000F82E59013E872D87512C44244394AD85BB
:102E3000BE8599968C919997882309F4EBC04D0132
:102E4000B0E78B0E911CF40180818111E3C0D701A2
:102E50008D919C91D801ED91FC91EE0FFF1FE80F31
:102E6000F91F259134912115310521F5ED85FE8558
:102E7000E05AFF4F2081222329F0F80111821082AD
:102E8000FC0116C0AD85BE8599961C9299979596C2
:102E90008C918823C1F1852D0E94681ED801ED9187
:102EA000FC91EE0FFF1FD7018D919C91E80FF91F48
:102EB00025913491ED85FE85E058FF4FFE83ED832B
:102EC0008D859E858C579F4F9A838983AD85BE855E
:102ED000A857BF4FBC83AB83ED85FE85E457FF4FFA
:102EE000FA87E9878D859E8580579F4F9C878B87C2
:102EF0002D843E8494E9290E311C6D847E84A4E7E0
:102F00006A0E711C2BC0852D0E94F71C83C0C9015D
:102F100056E0969587955A95E1F78F71932F969580
:102F20009695969590514F704230A1F128F5411138
:102F30001DC08B3008F08AE0F3018083D801ED9149
:102F4000FC9111973196ED93FC93EE0FFF1FD70183
:102F50008D919C91E80FF91F25913491A901569507
:102F600047955695479520FDD2CF2BC0413031F77C
:102F7000652D0E94AF1EE2CF4330B9F04430F1F628
:102F80002091C103289F802D1124AB85BC858C9393
:102F9000F10115C02091C103289F802D1124AD811E
:102FA000BE818C93E981FA810AC02091C103289FD8
:102FB000802D1124AB81BC818C93E985FA859083A7
:102FC000BDCFED85FE85E459FF4F4F73408380915F
:102FD000C103839F802D1124F4018083ED85FE853C
:102FE000E055FF4F1082F501E855FF4F1182108226
:102FF000ED85FE85E858FF4F4082D6014C92ED8565
:10300000FE85E458FF4F1082F8018081918101967E
:103010009183808353942D853E852F5F3F4F3E875C
:103020002D8732E0A30EB11C8FEFC81AD80A0E5FAD
:103030001F4F92E0E90EF11CA4E05A12F8CEA4E76B
:10304000AA2EA1E0BA2EB4E8CB2EB1E0DB2E18E810
:10305000612E11E0712E0CE314E084E3E82E84E08D
:10306000F82E98E7492E91E0592EECE8F3E0FA8328
:10307000E983312CE981FA81E858FF4F8081882368
:1030800009F42AC1E981FA81E059FF4F8081811159
:1030900004C0832D0E94F71C1FC181508083D8017A
:1030A0008C91E981FA81EC54FF4FFE83ED832981F5
:1030B0003A8128543F4F490181114CC0D7018D916D
:1030C0009C9101969C01220F331FEF81F885E856F1
:1030D000FF4F0190F081E02DE20FF31F45915491D5
:1030E000242F2770ED81FE812083BA01E3E07695DD
:1030F0006795EA95E1F79B0136952795352F36952B
:103100003695D4013C932F733091C103239F202D1A
:103110001124F80120836170D2016C93F70191832F
:103120008083E981FA81E056FF4F208130E08217E9
:10313000930780F0E981FA81EC55FF4F8081882365
:1031400031F0281B3109D7012D933C9303C0832D07
:103150000E94F71CF801808181508083E981FA8107
:10316000E458FF4F808121E0280F2083E981FA8114
:10317000E459FF4F4081D4013C91340FE981FA8139
:10318000E45BFF4F8081380FE981FA8135A7E8576A
:10319000FF4F6081662399F070E0822F022E000CB1
:1031A000990B0E946422E981FA81E457FF4F8081E4
:1031B000869F300D1124A981BA819D963C93E981A7
:1031C000FA8185A590E0CB966BE370E00E946422C3
:1031D00085A7EC58FF4F3081A981BA81D1963C93E5
:1031E000D197FD01E058FF4F60816623A1F0062EC4
:1031F000000C770B822F022E000C990B0E94642288
:10320000E981FA81EC57FF4F8081869F300D1124B0
:10321000E981FA8131ABE981FA81E057FF4F6081A2
:103220006623D1F0822F220F990B70E00E94642256
:10323000CB0162E070E00E946422E981FA81EC56E1
:10324000FF4F2081A981BA81D1969C91D197289F67
:10325000900D1124D1969C93E981FA814F3359F056
:1032600081A98A300CF089E087FD80E0A981BA81CC
:10327000D1968C9301C011AAF894A981BA819D9628
:10328000EC91F0E0E957F44FE491D501EC93E9813A
:10329000FA8131A9E454FF4F2081AD81BE814C9168
:1032A0003203900111244203C001439F900D112469
:1032B0000090C20302C0880F991F0A94E2F797FF9B
:1032C00002C081589F4F880F892F881F990BF601E4
:1032D0008083D3018C9378943394E981FA81319679
:1032E000FA83E983FFEFAF1ABF0A2FEFC21AD20A9F
:1032F0003FEF631A730A0F5F1F4F82E0E80EF11C65
:10330000AF81B8851296B887AF83BFEF4B1A5B0ABF
:10331000E4E03E12AFCE80918404882309F48BC090
:103320008C3020F4FCE0F81BF98301C01982FF24E3
:10333000F394F092540410926C0410926D04209156
:1033400051042B831981121B022F0D5F4DE2410F97
:103350002EE463E08CE494E00E943E083B8134500C
:103360003B83105D232F41E0612F80E50E94D21D39
:103370002B8142E0612F83E00E94D21DF0926C0409
:10338000F0926D04009151041981101B8DE2810FA0
:103390008B832EE4482F63E08CE494E00E942208A3
:1033A00083E0800F9B81980F9B83492F41502EE42F
:1033B00063E08CE494E00E9422080350105D202F0B
:1033C000412F60E08CE494E00E943509202F412FCA
:1033D00063E58CE494E00E94350941E0612F83E0CD
:1033E0000E94531D42E0612F80E50E94531DAB8176
:1033F000A450AB8344E06A2F80E50E94531D48E04F
:103400006B8183E00E94531D84E08093550480917A
:103410005104B981B81BB15DB09356046091820428
:10342000709183048CE494E00E946812809184047B
:103430008150809384048091A8039091A903892BE3
:1034400009F492C081E080936C0410926D04909115
:10345000500485E5891B80935504109256046091B1
:10346000A503613009F461C030F08091A403653098
:1034700008F073C06EC005EB13E0198289810E94C9
:10348000F71CF80111928F01F981FF5FF983F43085
:10349000A9F781E080935404E5E0FAE0E491EF5F5E
:1034A000E0935004E6E0FAE0E491EF5FE09351042A
:1034B00087E09AE090936B0480936A041092A903CA
:1034C0001092A8031092520428EA29830E946D16D4
:1034D0008823E1F367EF79E08CE494E00E946812BE
:1034E0004091A6035091A70360E070E02AE08CE4CD
:1034F00094E00E94A11262EE79E08CE494E00E94D4
:103500006812698162956F7070E08CE494E00E94AB
:103510001D1D67ED79E08CE494E00E9468128091B3
:10352000A103813009F08AC01FC080916F0490917F
:103530007004A0917104B09172048F709927AA272A
:10354000BB270897A105B10510F467E009C068E73B
:1035500007C0882349F06B5F03C0882329F06FE21E
:103560008CE494E00E9461120E94BC1C8091520481
:10357000811104C08CE494E00E94B9070E946706A0
:103580006093790470937A0480937B0490937C0415
:103590002091750430917604621B730B7093740450
:1035A0006093730480E06CC02FB7F89480917C0125
:1035B00090917D01A0917E01B0917F012FBF20915C
:1035C0007D04820F911DA11DB11D80937E049093F7
:1035D0007F04A0938004B093810480916F04909144
:1035E0007004A0917104B09172040196A11DB11DE7
:1035F00080936F0490937004A0937104B09372044D
:103600001092790410927A0410927B0410927C0438
:103610000E94670660937504709376048093770424
:10362000909378040E94EA1E8091A8039091A903C8
:10363000892B11F00E94751F81E022C03981315021
:103640003983311143CF60E070E08FEF0E947E1329
:1036500083B7817F846083BF83B7816083BF83B773
:10366000816083BF889583B78E7F83BF83B78E7F4A
:1036700083BF2CCF893209F0BACB0E94481FB7CB49
:103680002E960FB6F894DEBF0FBECDBFDF91CF915F
:103690001F910F91FF90EF90DF90CF90BF90AF9070
:1036A0009F908F907F906F905F904F903F902F9062
:1036B00008952F923F925F926F927F928F929F9286
:1036C000AF92BF92CF92DF92EF92FF920F931F9330
:1036D000CF93DF93EC01F901E49031968491643546
:1036E0000CF019C10E2C000CFF08062F062E000C42
:1036F000110BF701E00FF11F1E161F060CF00BC196
:1037000040330CF008C1A82FC42E042E000CDD0895
:103710005601A80EB11C87FDBA941A141B040CF0B4
:10372000FAC02E5F3F4F570197E0A90EB11CB7FEBC
:1037300004C05701BEE0AB0EB11CB3E0B594A79432
:10374000BA95E1F747FF0AC0A42FA80FAC9CC001AF
:10375000AD9C900D1124281B390B40E08A2F0A2EB6
:10376000000C990B840F911D47FD9A95C19714F099
:10377000A0E3A41BF8A067FD60E0E535F10514F0B7
:10378000E4E5F0E09E2FCC85C427C62E062E000C63
:10379000DD08F601E01BF10B8F014F01F7E08F22EE
:1037A0009924E0E8F0E002C0F595E7958A94E2F705
:1037B0007E2F17FF02C0095F1F4FF3E01595079595
:1037C000FA95E1F7200F311F542F577081E001C0A7
:1037D000880F5A95EAF7459545954595F601B4E564
:1037E0004B02E00DF11D1124AF0144575E4FD0E0B4
:1037F0002A2EAA0F3308EE24E394BB24ED2FF0E029
:10380000E215F3050CF087C0F9015490F1E0FF12C6
:103810001AC0962E8A01E72F6901991608F072C026
:103820008E2E852021F0D8018C90882A8C92E695E6
:1038300031F4BFEFCB1ADB0AF6015490E0E8939421
:103840000F5F1F4FEACFF1101CC0782E7094962E98
:103850008A01E72F6901991608F054C08E2E852041
:1038600021F0D8018C9087208C92E69531F4BFEF3F
:10387000CB1ADB0AF6015490E0E893940F5F1F4FD8
:10388000EACFF3E0FF1629F0962E8A01E72F6901AF
:1038900037C0682E6094862E8A01972E690189169A
:1038A000D8F4E92DE52159F0D801EC91782C7C264B
:1038B00070FE02C0E82B02C0E621D801EC9396947A
:1038C00039F4BFEFCB1ADB0AF6015490E0E89E2EE4
:1038D00083940F5F1F4FE3CFCE2514C08E2E85201B
:1038E00021F0D8018C9088268C92E69531F4BFEFB8
:1038F000CB1ADB0AF6015490E0E893940F5F1F4F58
:10390000991660F3880F19F44C5A5F4F81E0DF5F1E
:103910002A0D3B1D73CFDF91CF911F910F91FF9027
:10392000EF90DF90CF90BF90AF909F908F907F905F
:103930006F905F903F902F900895CF93C82FF89489
:1039400060E080915B040E94131380915C04181660
:103950001CF460E00E941313CEBD00000DB407FEFE
:10396000FDCF8EB580915C0418161CF461E00E94B6
:1039700013137894CF9108950F931F93CF93809151
:1039800058048F5F809358040CE811E0C0E08C2F3E
:1039900080640E949D1C80E80E949D1C61E08091D3
:1039A0005B040E94131380915C0418161CF460E001
:1039B0000E941313F80184E591919EBD00000DB49F
:1039C00007FEFDCF9EB58150B9F780915C041816B3
:1039D0001CF461E00E941313CF5F0C5A1F4FC630D6
:1039E000B1F680E4CF911F910F910C949D1C84300F
:1039F00018F590E09C0124573C4FF901E858FF4F1F
:103A0000108238971082FC01EE0FFF1FE15FFB4F21
:103A100016A215A2F901E458FF4F1082FC01E857E5
:103A2000FE4F1082FC01EC57FE4F1082FC01E05863
:103A3000FE4F10820C94D6060895CF92DF92EF923B
:103A4000FF920F931F93CF93DF936B01770FEE08D5
:103A5000FF08F7FE1BC0EC016DE20E9461128C01B1
:103A600044275527BA014C195D096E097F092AE0E0
:103A7000CE010E94A112800F911FDF91CF911F9163
:103A80000F91FF90EF90DF90CF9008952AE0B7015B
:103A9000A601DF91CF911F910F91FF90EF90DF90E2
:103AA000CF900C94A112AF92BF92CF92DF92EF927F
:103AB000FF920F931F93CF93DF93182F062FC1E030
:103AC000D3E08AEFD82E9EEFE92E842F8470C82E83
:103AD000842F8270B82E842F8870A82E4170F42E07
:103AE0008C2F880F8F5FE80ECC2081F0402F4D0F78
:103AF000612F6C0F8CE494E00E94CA07402F4C0F9A
:103B00006D2F610F8CE494E00E94CA07BB2081F006
:103B1000402F4D1B612F6C0F8CE494E00E94CA076C
:103B2000402F4C1B6D2F610F8CE494E00E94CA075C
:103B3000AA2081F0402F4C0F612F6D1B8CE494E084
:103B40000E94CA07402F4D0F612F6C1B8CE494E03C
:103B50000E94CA07F1100AC0CD17CCF4E7FC04C0DC
:103B6000D150D394D394ED0CCF5FBACF402F4C1BE0
:103B7000612F6D1B8CE494E00E94CA07402F4D1BFF
:103B8000612F6C1B8CE494E00E94CA07E5CFDF91A3
:103B9000CF911F910F91FF90EF90DF90CF90BF904A
:103BA000AF9008959F92AF92BF92CF92DF92EF9223
:103BB000FF920F931F93CF93DF93F82EE62EB22E32
:103BC00013E0120FD0E0C3E08AEFC82E0EEF842F6F
:103BD0008170982EAA24A394A20E4270D42EDF5F87
:103BE000812F8B19080F9920A1F02C2F220F2A0D5D
:103BF0004E2D4C1B6D2F6F0D8CE494E00E94350907
:103C0000212F4E2D4D1B6C2F6F0D8CE494E00E94E4
:103C10003509D1100AC0DC17ECF407FD04C0C1500F
:103C2000C394C3940C0D1E5FDACF2C2F220F2A0DE4
:103C30004E2D4C1B6F2D6D1B8CE494E00E943509BA
:103C4000212F4E2D4D1B6F2D6C1B8CE494E00E9498
:103C50003509E1CFDF91CF911F910F91FF90EF9048
:103C6000DF90CF90BF90AF909F9008950F931F93D8
:103C7000CF93DF938C01862FC62FD0E0643030F4D1
:103C80000E94F71CFE01E457FC4F11A6CE01880FDD
:103C9000991F84579C4FFC01BB9616A305A37496ED
:103CA00016A215A2FE01E457FC4F81E081A7DF01B7
:103CB000AC58BF4F89E08C931C961C9218961C92AE
:103CC000E057FF4F1082DF91CF911F910F91089520
:103CD000CF93DF93682FA82FB0E0ED01C457DC4FDE
:103CE0008DA1882309F438C089A5811135C0FE0152
:103CF000E05CFF4F8081AA0FBB1FA457BC4FD89632
:103D00002C91D897D9969C91D997E22FF92FE80F4B
:103D1000F11DE80FF11D259134912F3F8FEF3807EA
:103D200011F41DA219C0FE01E45BFF4F30835F96C2
:103D30003327220F331F9596ED91FC919697E20F52
:103D4000F31F85919491643010F40E94361EC05C7C
:103D5000DF4F88818F5F8883DF91CF91089570E076
:103D60009B01220F331F24573C4FF901F39645A1C5
:103D700096A1E42FF92FE80FF11DE80FF11D4591F1
:103D80005491F901ED58FF4F56A345A3FA018591CF
:103D900094919091C103989F802D112464577C4F7A
:103DA000FB01E056FF4F8083FA01A591B4912B2FC0
:103DB00030E0E82FF0E02E173F0720F4FA012591BC
:103DC0003491832FFB01EC55FF4F989F802D1124D8
:103DD00080830895DF92EF92FF920F931F93CF930A
:103DE000DF93CCE8D3E003E913E0EE24EA9462E049
:103DF0008A850E9442132A8530E0F901E55AF34F83
:103E00008491F901E95BF34FF490F901ED5CF34F14
:103E1000D490DD2071F081110E94EA12ED2DF0E0C6
:103E2000EE0FFF1FE75DF34FA591B491EC91FE22D9
:103E300099F489898F5F898B60E08A850E9442139B
:103E400021960C171D0799F6DF91CF911F910F91C5
:103E5000FF90EF90DF9008958989882389F38F3F41
:103E600011F4198AE9CFE98AE7CFCF93DF93BC0138
:103E70008CE494E00E946812EC0165E471E08CE44B
:103E800094E00E948C128C0F9D1FDF91CF910895BA
:103E90008CE494E00E94B90761E07CE08CE494E05B
:103EA0000E9468120E94BC1C8CB583608CBD8DB5CD
:103EB0008E7F8DBD88E491E0EEEFFFE309951092CF
:103EC00052048CED9BE00E94351F0E94BC1C0E9496
:103ED000EA1E8091A103813039F062E370E080E056
:103EE00090E00E94DD13F3CF0895CF93C091B0030B
:103EF0008C2F8F71E1F583E480937C0080917A00B0
:103F0000806480937A0080917A0086FDFCCF609176
:103F100078008091790070E0782B072E000C880BD8
:103F2000990B0E944F2126EE3FE34EEC50E40E9495
:103F3000B3210E941E219B017093A7036093A603E7
:103F4000672B91F084E08093A503E8EAF3E080E03A
:103F5000419151912417350718F48093A5030AC0A5
:103F60008F5F8430A9F703C08FEF8093A503CF5FE5
:103F7000C093B003CF91089510924F0410924E0455
:103F80008DE391E090934D0480934C0408957894D0
:103F900084B5826084BD84B5816084BD85B582604E
:103FA00085BD85B5816085BD80916E0081608093FF
:103FB0006E00109281008091810082608093810068
:103FC0008091810081608093810080918000816078
:103FD000809380008091B10084608093B1008091D3
:103FE000B00081608093B00080917A0084608093FB
:103FF0007A0080917A00826080937A0080917A00C2
:10400000816080937A0080917A00806880937A0042
:104010001092C1000E947C0A0E9417140E9451094C
:10402000C0E0D0E00E94B90A2097E1F30E940000AE
:10403000F9CF8F929F92AF92BF92CF92DF92EF9281
:10404000FF92CF93DF93EC01688179818A819B8114
:10405000611571058105910521F464E279ED8BE527
:1040600097E02DE133EF41E050E00E94BB20490191
:104070005A019B01AC01A7EAB1E40E94DA206B016E
:104080007C01ACEEB4EFA50194010E94E820DC01B4
:10409000CB018C0D9D1DAE1DBF1DB7FF03C0019749
:1040A000A109B04888839983AA83BB83BC01CD0151
:1040B0009F77DF91CF91FF90EF90DF90CF90BF90EF
:1040C000AF909F908F9008958F929F92AF92BF92E2
:1040D000CF92DF92EF92FF926091130170911401E1
:1040E0008091150190911601611571058105910569
:1040F00021F464E279ED8BE597E02DE133EF41E0C7
:1041000050E00E94BB2049015A019B01AC01A7EA83
:10411000B1E40E94DA206B017C01ACEEB4EFA501A2
:1041200094010E94E820DC01CB018C0D9D1DAE1D89
:10413000BF1DB7FF03C00197A109B04880931301C9
:1041400090931401A0931501B0931601BC01CD0109
:104150009F77FF90EF90DF90CF90BF90AF909F90B0
:104160008F9008956093130170931401809315014B
:10417000909316010895052E97FB1EF400940E945B
:10418000D22057FD07D00E94ED2007FC03D04EF44B
:104190000C94D22050954095309521953F4F4F4F2C
:1041A0005F4F089590958095709561957F4F8F4FE3
:1041B0009F4F08950E940F21A59F900DB49F900DD1
:1041C000A49F800D911D11240895B7FF0C94DA204F
:1041D0000E94DA20821B930B0895A1E21A2EAA1BDB
:1041E000BB1BFD010DC0AA1FBB1FEE1FFF1FA217A7
:1041F000B307E407F50720F0A21BB30BE40BF50BA4
:10420000661F771F881F991F1A9469F7609570952C
:10421000809590959B01AC01BD01CF010895A29FAF
:10422000B001B39FC001A39F700D811D1124911D8A
:10423000B29F700D811D1124911D08950E9492213D
:1042400088F09F5798F0B92F9927B751B0F0E1F057
:10425000660F771F881F991F1AF0BA95C9F714C007
:10426000B13091F00E94AC21B1E008950C94AC21E2
:10427000672F782F8827B85F39F0B93FCCF3869540
:1042800077956795B395D9F73EF49095809570959D
:1042900061957F4F8F4F9F4F0895E89409C097FB1A
:1042A0003EF490958095709561957F4F8F4F9F4F0D
:1042B0009923A9F0F92F96E9BB279395F695879551
:1042C00077956795B795F111F8CFFAF4BB0F11F414
:1042D00060FF1BC06F5F7F4F8F4F9F4F16C08823BB
:1042E00011F096E911C0772321F09EE8872F762FF1
:1042F00005C0662371F096E8862F70E060E02AF032
:104300009A95660F771F881FDAF7880F969587951D
:1043100097F9089557FD9058440F551F59F05F3F86
:1043200071F04795880F97FB991F61F09F3F79F0D7
:1043300087950895121613061406551FF2CF469559
:10434000F1DF08C0161617061806991FF1CF8695DB
:104350007105610508940895E894BB2766277727BF
:10436000CB0197F908950E94C6210C9437220E9430
:10437000292238F00E94302220F0952311F00C946D
:1043800020220C94262211240C94AD210E948A2113
:1043900070F3959FC1F3950F50E0551F629FF00198
:1043A000729FBB27F00DB11D639FAA27F00DB11DB1
:1043B000AA1F649F6627B00DA11D661F829F22273A
:1043C000B00DA11D621F739FB00DA11D621F839FC1
:1043D000A00D611D221F749F3327A00D611D231F97
:1043E000849F600D211D822F762F6A2F11249F57E5
:1043F00050409AF0F1F088234AF0EE0FFF1FBB1FE8
:10440000661F771F881F91505040A9F79E3F5105A6
:1044100080F00C9420220C94AD215F3FE4F3983E91
:10442000D4F3869577956795B795F795E7959F5F50
:10443000C1F7FE2B880F911D9695879597F90895E2
:1044400097F99F6780E870E060E008959FEF80EC47
:10445000089500240A9416161706180609060895EA
:1044600000240A9412161306140605060895092E50
:104470000394000C11F4882352F0BB0F40F4BF2BBF
:1044800011F460FF04C06F5F7F4F8F4F9F4F0895FF
:10449000DB018F939F930E94DA20BF91AF91A29F7F
:1044A000800D911DA39F900DB29F900D1124089532
:1044B000991B79E004C0991F961708F0961B881F76
:1044C0007A95C9F78095089597FB072E16F4009406
:1044D00007D077FD09D00E94782207FC05D03EF472
:1044E000909581959F4F0895709561957F4F0895A0
:1044F000AA1BBB1B51E107C0AA1FBB1FA617B7070A
:1045000010F0A61BB70B881F991F5A95A9F7809525
:104510009095BC01CD010895EE0FFF1F0590F49119
:10452000E02D099481E090E0F8940C949722F8949F
:02453000FFCFBB
:10453200010010000A000A0014000B002A001E00ED
:104542001E000101000000AC008A00680034011264
:1045520001F000CE00BC019A01780156017B0255A0
:10456200022F020302E301DE0100000000670818C7
:1045720010640663060D0A004C4F41444552000088
:00000001FF
