:100000000C9456060C947E060C947E060C947E0688
:100010000C947E060C947E060C947E060C947E0650
:100020000C947E060C947E060C947E060C940909B2
:100030000C947E060C947E060C947E060C947E0630
:100040000C94BF080C947E060C947E060C947E06DD
:100050000C947E060C947E060C947E060C947E0610
:100060000C947E060C947E0605A84CCDB2D44EB9F5
:100070003836A9020C50B9918688083CA6AAAA2A4B
:10008000BE000000803F0101FF030101F7031010D3
:1000900098181819981818199818181998181819DC
:1000A00098181819981818199818181998181819CC
:1000B0001010AAAA00000000FFFFFFFF00000000D0
:1000C0000000000000000000FFFFFFFF0000000034
:1000D00055551010AAAA000180000FF19FF81C3995
:1000E000981818199818181998181819981818198C
:1000F000981818191010AAAA000080000FFF9FFF7F
:100100001C0098001800980018009C001FFF8FFF2B
:1001100000008000555510109818181998181819D3
:100120009818181998181819981818199C381FF940
:100130008FF00001800055551010AAAA00010000A0
:10014000FFF1FFF8003900180019001800190038F5
:10015000FFF9FFF00001000055551010AAAA000198
:1001600080000FF19FF81C39981818199818181961
:100170009C381FF98FF00001800055551010AAAA75
:10018000000180000FF19FF81C3999981A599A586C
:1001900019999C381FF98FF00001800055551010F7
:1001A0000000000000001998199806600660199870
:1001B0001998066006601998199800000000000060
:1001C000101000000410082010402080410080081A
:1001D0000011002204400880100020100020004080
:1001E00000801010002020020480800800001044CD
:1001F0000200402200000888000142000040000880
:1002000084001080101000000180024004200810BB
:10021000100820043C3C0420042004200420042076
:1002200007E00000000010100000000003000500BF
:10023000090011FC200440044004200411FC0900C2
:10024000050003000000000010100000000007E09F
:10025000042004200420042004203C3C2004100836
:10026000081004200240018000001010000000006F
:1002700000C000A000903F8820042002200220043B
:100280003F88009000A000C0000000001010000097
:1002900020020000000000001040000000000000EC
:1002A00000800000400000000008040000004D61D4
:1002B000696E204D656E750053797374656D2049C4
:1002C0006E666F00486967682073636F72657300BC
:1002D000506C6179008A008600000000002400272D
:1002E000002A0000000000250028002B00050089DE
:1002F00030080238024978681400002F00566F6CED
:10030000756D653A004261636B6C696768743A00A9
:100310004C696768743A002F3400426174206C762F
:100320006C3A006D56004261743A00153A5361769A
:100330006520173A45786974000A576F7273742004
:1003400020202020000A42657374202020202020D5
:1003500000596F75722074696D6520004E455720F5
:100360004849474853434F5245000500400150015A
:100370005C01700180016C01540160017401840111
:100380004C015C0168017C018C01000017736176EF
:100390006500166261636B001574797065000A0A66
:1003A0000A153A6F6B617920163A656469740059D1
:1003B0006F7520656E74657265640A004E4557203E
:1003C0004C4150210005077F4141417F3E5B4F5B1F
:1003D0003E3E6B4F6B3E183C783C18183C7E3C18F8
:1003E0001C577D571C1C5E7F5E1C007E43437E00B5
:1003F0007E73737E007E7F7F7E7F4141417F3048E8
:100400003A060E06297929067F4141417F60703FF7
:1004100002042A1C361C2A7F3E1C080000081C3ED1
:100420007F14227F22143C3C3C7EFF18423C817E9C
:100430003E6375633E3E616B633E3E636B6B3E04A1
:10044000027F020410207F201008082A1C08081CC4
:100450002A0808143E554122637569756310181CFB
:100460001810040C1C0C04000000000000005F00C9
:10047000000007000700147F147F14042A7F2A104D
:100480002313086462364956205000080703000011
:100490001C2241000041221C002A1C3E1C2A080884
:1004A0003E080800E06000000808080808006060D6
:1004B000000060100804033E5149453E00427F4061
:1004C0000062514949462141494D331814127F10A9
:1004D00027454545393C4A494930412111090736EC
:1004E00049494936064949291E0000240000008078
:1004F0006400000814224100141414141400412252
:10050000140802015909063E415D594E7C12111230
:100510007C7F494949363E414141227F4141221C6D
:100520007F494949417F090909013E414151327FD3
:100530000808087F00417F41002041413F017F08BA
:100540001422417F404040407F020C027F7F020422
:10055000087F3E4141413E7F090909063E41614114
:10056000BE7F09192946264949493201017F010107
:100570003F4040403F1F2040201F3F4038403F63E6
:100580001408146303047804036151494543007F50
:1005900041410003040810600041417F0004020152
:1005A0000204808080808000030708002054547873
:1005B000407F284444383844444428384444287F01
:1005C0003854545418087E09090218A4A49C787F52
:1005D0000804047800447D4000006080847D7F1022
:1005E00010284400417F40007C047804787C080493
:1005F00004783844444438FC182424181824241857
:10060000FC7C080404080854545420043F4444204B
:100610003C4040207C1C2040201C3C4020403C446E
:10062000281028444C9090907C4464544C4400081A
:1006300036410000007F0000004136080018040821
:10064000100C7F4141417FD002C402B802AE024289
:100650004553542054494D455300DCEEEEEEEEEE8A
:10066000EEEEEEEEEEEEEEEEEEADF001710000001D
:1006700000D000000DD00000055FF00CEEEEEEEAB9
:1006800000F00D000FF00000005FF000D555005D98
:1006900000F00FD00FF00D50000FF080F500000FAC
:1006A00000F00FF00FF00FCA800FF000F000D00B39
:1006B00000F04FF00FF00F55000FF080F0D0F50074
:1006C00005F44FF00BB00F50005FF000F0B0F5559F
:1006D00055F46FF000000F00005FF080F000BCEEFA
:1006E000EAB66FF000000F008CAFF000F5000000DC
:1006F00066666FBCEEEEAF50005FF040B555000689
:1007000066666F0000000B55000FF5000CEEEEEE74
:10071000EEEEAB000000CEEA000FF55000CEEEEE9C
:10072000EEEEEEEEEEEEEEEA005FF55500000000B4
:1007300055CEEA5508888800005FF5555000000046
:100740000003300000000000055FBCEEEEEEEEEEB0
:10075000EEEEEEEEA88888CEEEAB000000000000C2
:100760000000000000000000000000000000000089
:100770000000000000000000000000000000000079
:100780000000000000000000000000000000000069
:100790000000000000000000000000000000000059
:1007A0000000000000000000000000000000000049
:1007B0000000000000000000000000000000000039
:1007C0000000000000000000000000000000000029
:1007D0000000000000000000000000000000000019
:1007E0000000000000000000000000000000000009
:1007F00000000000000000000000000000000000F9
:1008000000000000000000000000000000000000E8
:1008100000000000000000000000000000000000D8
:1008200000000000000000000000000000000000C8
:1008300000000000000000000000000000000000B8
:1008400000000000000000000000000000000000A8
:1008500000000000000000000000450068010000EA
:10086000050038016801000005006801380100003A
:100870000A0A153A49676E6F7265006D560A0A508A
:100880004C45415345205455524E204F464620007A
:100890004C4F5720424154544552592120000305E2
:1008A0003F213F1208120A100A0E1C0E0C1E0C14D7
:1008B0001A14161F161E131E1E1B1E1E1F1E3F215E
:1008C0003F3A2F3A173D173F213F181F02040A04F1
:1008D0001F0E04040E1F0A1F0A0E0E1F04110E2EF7
:1008E000252E2F2A2E262929021F02081F08150E41
:1008F00004040E150E15151B151B040604040C0428
:100900000000000017000300031F0A1F16371A1902
:1009100004130A153A000300000E11110E000A0418
:100920000A040E040030000404040010001804033C
:100930001F111F121F101D151711151F07041F1758
:10094000151D1F151D01011F1F151F17151F000A5B
:1009500000003200040A110A0A0A110A04011502F1
:100960000E11171E051E1F150A0E110A1F110E1F4C
:1009700015111F05010E111D1F041F111F11081055
:100980000F1F041B1F10101F061F1E040F0E110E39
:100990001F09060E112E1F051A121509011F011F2E
:1009A000101F0F180F1F0C1F1B041B031C0319150E
:1009B00013001F11030418111F0002010220202040
:1009C0000001020C121E1F120C0C12120C121F0C32
:1009D0001A14041E05242A1E1F021C141D10202098
:1009E0001D1F0814111F101E041E1E021C0C120CC9
:1009F0003E0A040C123E1E040214160A020F120EC6
:100A0000101E0E100E1E081E120C1226281E322A50
:100A100026041E21001F00211E040102013F213F68
:100A2000F6E8DBCFC3B8AEA49B928A827B746E6873
:100A3000625C57524E4945413E3A3734312E2C299B
:100A4000272523211F1D1C1A1917161514131211FF
:100A5000100F0E0D0C0B0A09080706172B15201096
:100A6000204C4F4144455200172B16201314000A06
:100A70004E6F2053442063617264206F720A6E6F60
:100A8000204C4F414445522E4845580A0A153A45D4
:100A9000786974001D20466C617368696E670A206E
:100AA000206C6F616465722E2E2E0A0A444F4E2709
:100AB00054205455524E204F46462100000000005D
:100AC0002300260029000404040404040404020290
:100AD00002020202030303030303010204081020BD
:100AE00040800102040810200102040810200000C8
:100AF00000080002010000030407000000000000DD
:100B000000004024FFFFFFFFFFFFFFFF8000000009
:100B100000304001800000000060E001819BE78020
:100B200000C1F001819BEFC001C1F801819B0CC0A5
:100B300003FDF001819B0CC003FCE401819B0CC010
:100B400007F84001819BECC00FF00001819BECC0D5
:100B50001818C201819B0CC0383CE601819B0CC077
:100B6000307FE701819B0CC07FFDFF01819B0CC0A2
:100B7000FF3DFF81819B0CC1FE18CF8181FB0FC11E
:100B8000FC00CE4180F3078304100621800000069C
:100B90000E38841F800000000F79843F9F060F3EAF
:100BA0001FFBCE3F9F861FBE1F7FDF7F998F19B02F
:100BB0000E7BFF01998F19B00633DE01998F19B0B2
:100BC00004218E019F8F1830020104119F9F99BE4E
:100BD000026007E19F1F9B3E00738FC19B199830F5
:100BE00001F7DFC19B1999B000FFFF819B1F99B0EE
:100BF00000F7C0019BBFD9B000E3800199B0DFBE10
:100C00000061040199B0CF3E0000000180000000A7
:100C10006533B3B980018000723AAA91FFFFFFFFEC
:100C2000722BB39300175344001613780016131455
:100C3000001510200015201000540A03E181867F62
:100C40003E186D830F0F0E0183866033186DC31934
:100C50008F1803C38E6033186DE330CF1803C39E23
:100C6000603630CDE360CF3006C79E7E3E30CDB3D8
:100C700060CF300CC6F6603330D9B660CF33CFCCFE
:100C8000F66061B0DB1E60CF30D86CE6C061B0DBCF
:100C90001E618F19986CC6C063B19B0E330F0FB0E5
:100CA00078C6FF7E1F1B061E0F00EE2411241FBEF8
:100CB000CFEFD8E0DEBFCDBF11E0A0E0B1E0E0E9CA
:100CC000F1E502C005900D92AC33B107D9F724E0ED
:100CD000ACE3B1E001C01D92A83BB207E1F716E01A
:100CE000C6E5D6E004C02197FE010E94B428C535B0
:100CF000D107C9F70E9413170C94C6280C94000062
:100D0000CF92DF92EF92FF920F931F93CF93DF93D7
:100D10006C017A018B01C0E0D0E0CE15DF0581F0D7
:100D2000D8016D918D01D601ED91FC910190F0817A
:100D3000E02DC6010995892B11F02196EECF7E0199
:100D4000C701DF91CF911F910F91FF90EF90DF903E
:100D5000CF9008958091B701882319F08091A70161
:100D600001C080E09091B801992319F09091A801F9
:100D7000890F9091B901992319F09091A901890FD8
:100D80009091BA01992319F09091AA01890F80934B
:100D9000B4000895089580E090E008950E94BA2874
:100DA000DC01ED91FC910190F081E02D0994EF922E
:100DB000FF920F931F93CF93DF938C017B01C0E0D1
:100DC000D0E0F701EC0FFD1F6491662361F0D801BC
:100DD000ED91FC910190F081E02DC8010995892BDE
:100DE00011F02196EECFCE01DF91CF911F910F919F
:100DF000FF90EF9008956115710579F0FB01019066
:100E00000020E9F73197AF01461B570BDC01ED914C
:100E1000FC910280F381E02D099480E090E0089538
:100E20008F929F92AF92BF92EF92FF920F931F9378
:100E3000CF93DF93CDB7DEB7A1970FB6F894DEBF9F
:100E40000FBECDBF7C01FA01CB0119A2223008F4FC
:100E50002AE08E010F5D1F4F822E912CA12CB12C08
:100E6000BF01A50194010E94E325F901CA010150C7
:100E700011096A3014F4605D01C0695CD8016C939B
:100E8000232B242B252B61F7B801C7010E94FB06F9
:100E9000A1960FB6F894DEBF0FBECDBFDF91CF9104
:100EA0001F910F91FF90EF90BF90AF909F908F9008
:100EB00008950F931F93CF93DF93EC010E94D70601
:100EC0008C0161E371E0CE010E94FB06800F911F4F
:100ED000DF91CF911F910F910895833081F028F415
:100EE000813099F08230A1F008958730A9F08830E0
:100EF000B9F08430D1F4809180008F7D03C080915F
:100F000080008F7780938000089584B58F7702C02A
:100F100084B58F7D84BD08958091B0008F7703C024
:100F20008091B0008F7D8093B00008951F93CF9380
:100F3000DF93282F30E0F901E251F54F8491F90158
:100F4000E652F54FD491F901EA53F54FC491CC2301
:100F5000C1F0162F81110E946D07EC2FF0E0EE0F0B
:100F6000FF1FED51FD4FA591B4919FB7F89411115A
:100F700004C08C91D095D82302C0EC91DE2BDC9379
:100F80009FBFDF91CF911F910895CF93DF9390E0A2
:100F9000FC01E652F54F2491FC01EA53F54F849190
:100FA000882361F190E0880F991FFC01E752FD4F03
:100FB000C591D491FC01ED51FD4FA591B491611102
:100FC00009C09FB7F8948881209582238883EC918B
:100FD0002E230BC0623061F49FB7F8948881322FC2
:100FE000309583238883EC912E2B2C939FBF06C0D2
:100FF0008FB7F894E8812E2B28838FBFDF91CF9194
:1010000008951F93CF93DF93182FEB0161E00E94A7
:10101000C507209711F460E004C0CF3FD10539F433
:1010200061E0812FDF91CF911F910C949607E12F02
:10103000F0E0E251F54FE491E330F9F048F4E130AB
:10104000B9F0E230A1F584B5806284BDC8BD34C07A
:10105000E730E9F0E83019F1E43049F5809180009B
:10106000806280938000D0938B00C0938A0024C05C
:1010700084B5806884BDC7BD1FC080918000806832
:1010800080938000D0938900C093880015C0809120
:10109000B00080688093B000C093B3000DC0809111
:1010A000B00080628093B000C093B40005C0C03827
:1010B000D1050CF0B5CFAFCFDF91CF911F9108953F
:1010C0003FB7F8948091A3019091A401A091A5014C
:1010D000B091A60126B5A89B05C02F3F19F0019637
:1010E000A11DB11D3FBFBA2FA92F982F8827820FAE
:1010F000911DA11DB11DBC01CD0142E0660F771FFE
:10110000881F991F4A95D1F708958F929F92AF92A9
:10111000BF92CF92DF92EF92FF926B017C010E940F
:1011200060084B015C01C114D104E104F104F1F049
:101130000E946008DC01CB0188199909AA09BB0942
:10114000883E9340A105B10570F321E0C21AD10891
:10115000E108F10888EE880E83E0981EA11CB11CFE
:10116000C114D104E104F10419F7DDCFFF90EF9031
:10117000DF90CF90BF90AF909F908F9008951F9277
:101180000F920FB60F9211242F933F938F939F933B
:10119000AF93BF938091BB019091BC01A091BD0121
:1011A000B091BE013091A20123E0230F2D3720F42E
:1011B0000196A11DB11D05C026E8230F0296A11DB1
:1011C000B11D2093A2018093BB019093BC01A09319
:1011D000BD01B093BE018091A3019091A401A091A3
:1011E000A501B091A6010196A11DB11D8093A30197
:1011F0009093A401A093A501B093A601BF91AF91D4
:101200009F918F913F912F910F900FBE0F901F9044
:1012100018951F920F920FB60F9211242F933F93A0
:101220004F935F936F937F938F939F93AF93BF93EE
:10123000EF93FF936091AB01611102C080E023C086
:1012400080919E018F5F80939E019091AF018917DD
:10125000A8F39091B70181E089278093B70110929C
:101260009E018091B301882369F08091000193E48D
:10127000899F802D1124895B809300010E94802822
:101280009093A70181E06091AC01662319F19091E0
:101290009F019F5F90939F012091B0019217D0F022
:1012A0009091B80181E089278093B80110929F0145
:1012B0008091B401882369F08091000193E4899FB3
:1012C000802D1124895B809300010E9480289093D7
:1012D000A80181E06091AD01662319F19091A00110
:1012E0009F5F9093A0012091B1019217D0F090914F
:1012F000B90181E089278093B9011092A001809102
:10130000B501882369F08091000193E4899F802DC5
:101310001124895B809300010E9480289093A90189
:1013200081E06091AE01662319F19091A1019F5F68
:101330009093A1012091B2019217D0F09091BA013F
:1013400081E089278093BA011092A1018091B601B2
:10135000882379F08091000193E4899F802D1124E6
:10136000895B809300010E9480289093AA0101C0AC
:1013700081110E94AA06FF91EF91BF91AF919F91B9
:101380008F917F916F915F914F913F912F910F902E
:101390000FBE0F901F901895643030F570E09C01DF
:1013A000260F371FF901ED5AFF4F10823897108230
:1013B000AB01440F551FFC01E40FF51FED57FF4F24
:1013C00011821082F901E95AFF4F1082FB01E955A1
:1013D000FE4F1082FB01E555FE4F1082FB01E954E0
:1013E000FE4F10820C94AA060895EF92FF920F937D
:1013F0001F93CF93DF938C017B01C42FD0E0443047
:1014000038F4642F0E94CC09F801EC0FFD1F148200
:10141000FE01EE0FFF1FE00FF11FF4A6E3A6FF96FB
:1014200011821082F801EC0FFD1F81E08483DF013F
:10143000A15BBF4F89E08C931C961C9218961C925E
:10144000E559FF4F1082DF91CF911F910F91FF90CF
:10145000EF90089540E06AE578E00C94F509DC012E
:10146000FB0184918F5F14968C9314973196E491CD
:10147000EF5F1596EC9315976E5F7F4F5F967C93A9
:101480006E935E970895E62FF0E0982F969524E0EE
:10149000EE0FFF1F2A95E1F7E90FF11DE65AF94F0C
:1014A00080FF02C0849102C0849182958F7008955C
:1014B000EDE7F1E083E0808F80E090E0A0EAB1E426
:1014C00080839183A283B38384839583A683B78328
:1014D0001086118612861386148615861686178640
:1014E000108A118A128A138A148A158A168A178A10
:1014F00008954F925F926F927F928F929F92AF92D8
:10150000BF92CF92DF92EF92FF920F931F93CF93F0
:1015100092E0492E512C612C712C25E1822E912CC8
:101520000E941E0D8823E1F30E944425A30192012D
:101530000E94B125675F609388040E944425A3013F
:1015400092010E94B125609389046FE476E08FE7F1
:1015500094E00E94590710928604109288048091AA
:1015600084048093890483E7A82E81E0B82E0CE3DD
:1015700011E0C1E0F50180819181892B31F46DE2A8
:101580008FE794E00E94D00605C0B8018FE794E091
:101590000E94FB06809183049401281B3109C90134
:1015A000880F880F80938804809184048C9F802DFD
:1015B000112480938904F501C190D1905F010D2C15
:1015C000000CEE08FF08F7FE0EC06DE28FE794E016
:1015D0000E94D00644275527BA014C195D096E09AF
:1015E0007F092AE003C02AE0B701A6018FE794E053
:1015F0000E94100761E371E08FE794E00E94FB0610
:10160000CF5F055F1F4FC63009F0B4CF8091D40380
:10161000813099F484EE93E0CF911F910F91FF9068
:10162000EF90DF90CF90BF90AF909F908F907F9082
:101630006F905F904F900C94E5118091D5038130AD
:1016400049F38091D603813009F06ACFE3CFFC01E2
:10165000643508F053C0403308F050C090A1742F97
:10166000759575957595262F062E000C330B542F06
:1016700057709230A1F4F90184E57802E00DF11D74
:101680001124E154FE4F808190E0052E02C0959513
:1016900087950A94E2F78095982F91700AC093304D
:1016A00041F484858170462740954170841303C0BE
:1016B00014C0911112C084E57802200D311D11244F
:1016C000F901E154FE4F81E090E001C0880F5A9586
:1016D000EAF780959081892310C084E57802200D77
:1016E000311D1124F901E154FE4F81E090E001C069
:1016F000880F5A95EAF79081892B80830895EF929D
:10170000FF920F931F93CF93DF938C01F62ED42F6C
:10171000E22EC0E0CE1544F46F2D6C0F4D2FC801A2
:101720000E94270BCF5FF6CFDF91CF911F910F91D2
:10173000FF90EF900895DF92EF92FF920F931F9327
:10174000CF93DF937C01D62FD22EC42F002E000C16
:10175000110B040F111D47FD1A958C2F0C2E000C38
:10176000990B8017910744F42D2D4C2F6D2FC70135
:101770000E947F0BCF5FF1CFDF91CF911F910F912F
:10178000FF90EF90DF9008956F927F928F929F92DB
:10179000AF92BF92CF92DF92EF92FF920F931F937F
:1017A000CF93DF93EC0164350CF084C040330CF030
:1017B00081C0EC81F0E031970E9FC0010F9F900D2A
:1017C0001124860F911D67FD9A95181619060CF0C5
:1017D00071C03D81842F042E000C990B039F800D56
:1017E000911D1124181619060CF064C0D02EB42EC9
:1017F000C62E88A0962EA62EE22EF12CEA2DEC19EC
:101800000E2E000CFF0B8C8190E0E817F9070CF00E
:1018100050C00197E817F90779F0E89E9001E99E1A
:10182000300DF89E300D1124E20FF31F8E8D9F8D29
:10183000E80FF91F149101C010E06B2C7B2C272DB1
:101840002B19022E000C330B8D8190E028173907DD
:101850006CF510FF11C081E0D81206C0472D6A2D2B
:10186000CE010E94270B1EC00D2D2D2D462D692D5A
:10187000CE010E949B0B16C089A198A1891791F0F7
:1018800088A381E0D81206C0472D6A2DCE010E94A0
:10189000270B07C00D2D2D2D462D692DCE010E9441
:1018A0009B0B88A2169573946D0CC9CFA3949D0CC5
:1018B000A5CF88A2DF91CF911F910F91FF90EF905C
:1018C000DF90CF90BF90AF909F908F907F906F9060
:1018D00008950F93CF93DF93EC016A3011F42885BC
:1018E0001EC06D3019F1262F08854A8569850E9432
:1018F000C40B28853C818985239F800D112489870D
:101900009F81992399F0082E000C990B44E550E033
:10191000239F401951091124481759073CF49D8110
:101920008A85299F800D11248A87198681E090E09D
:10193000DF91CF910F910895EF92FF920F931F9334
:10194000CF93DF938C01D62FF42EE22EC0E0CE157C
:1019500044F44F2D4C0F6D2FC8010E94270BCF5F11
:10196000F6CFDF91CF911F910F91FF90EF900895E7
:101970008F929F92AF92BF92CF92DF92EF92FF929F
:101980000F931F93CF93DF936C01A62E942EC22F3B
:1019900011E0121BF22EF194FF0C83E0B82EBE0C66
:1019A000D1E0802F8170882EE39402708FEF8D0F2D
:1019B0008C17BCF517FD04C0C150F394F3941F0DB0
:1019C0008D2F880F8F5F180F882091F02C2F220FFA
:1019D0002E0D492D4C1B6D2F6A0DC6010E949C0CCB
:1019E0002B2D492D4D1B6C2F6A0DC6010E949C0C9E
:1019F000011104C0DF5FB394B394D8CF2C2F220F12
:101A00002E0D492D4C1B6A2D6D1BC6010E949C0C8E
:101A10002B2D492D4D1B6A2D6C1BC6010E949C0C61
:101A2000E9CFDF91CF911F910F91FF90EF90DF9061
:101A3000CF90BF90AF909F908F9008952F923F923C
:101A40004F925F926F927F928F929F92AF92BF92CE
:101A5000CF92DF92EF92FF920F931F93CF93DF937A
:101A6000CDB7DEB72E970FB6F894DEBF0FBECDBF51
:101A70004091B1045091B2046091B3047091B404E8
:101A80002FB7F8948091BB019091BC01A091BD014A
:101A9000B091BE012FBF481B590B6A0B7B0B809185
:101AA000B00490E0A0E0B0E00091AC041091AD046F
:101AB0002091AE043091AF0484179507A607B707AD
:101AC00030F4011511052105310509F0F4C3012B8E
:101AD000022B032B09F0EDC38091D60381508E3F7A
:101AE00018F58091D5038130F9F48091F5038F5F6B
:101AF0006091F60387FD09C0082E000C990B70E079
:101B00006F5F7F4F0E948C28682F6093F50388E6F3
:101B10009AE09093B6048093B50488E48093B70468
:101B200084EE93E00E942A0A8091D60381508E3F72
:101B300070F48091D403813009F023C48BE59AE0DE
:101B40009093B6048093B50488E48093B70480E052
:101B50000E94E21481E00E94E21482E00E94E214FA
:101B600083E00E94E2142FEB33E038872F83B7EB3A
:101B7000CB2EB1E0DB2E03E214E08FE0E82E84E010
:101B8000F82E59013E872D87912C88248394AD85AA
:101B9000BE8599968C919997882309F4EDC02D0103
:101BA000B0E74B0E511CF20180818111E5C0D701D5
:101BB0008D919C91D801ED91FC91EE0FFF1FE80FE4
:101BC000F91F259134912115310521F5ED85FE850B
:101BD000E05AFF4F2081222329F0F8011182108260
:101BE000FC0116C0AD85BE8599961C929997959675
:101BF0008C918823C1F1892D0E94E214D801ED91C6
:101C0000FC91EE0FFF1FD7018D919C91E80FF91FFA
:101C100025913491ED85FE85E058FF4FFE83ED83DD
:101C20008D859E858C579F4F9A838983AD85BE8510
:101C3000A857BF4FBC83AB83ED85FE85E457FF4FAC
:101C4000FA87E9878D859E8580579F4F9C878B8774
:101C50006D847E8494E9690E711C2D843E84A4E712
:101C60002A0E311C2DC0692D84EE93E00E94CC0910
:101C700083C0C90156E0969587955A95E1F78F7113
:101C8000932F96959695969590514F704230A1F16D
:101C900028F541111DC08B3008F08AE0F1018083E6
:101CA000D801ED91FC9111973196ED93FC93EE0FD5
:101CB000FF1FD7018D919C91E80FF91F2591349159
:101CC000A901569547955695479520FDD2CF2BC033
:101CD000413031F7692D0E942B15E2CF4330B9F026
:101CE0004430F1F62091F403289F802D1124AB8518
:101CF000BC858C93F30115C02091F403289F802D9F
:101D00001124AD81BE818C93E981FA810AC02091B2
:101D1000F403289F802D1124AB81BC818C93E9852D
:101D2000FA859083BDCFED85FE85E459FF4F4F7353
:101D300040838091F403839F802D1124F2018083DE
:101D4000ED85FE85E055FF4F1082F501E855FF4F08
:101D500011821082ED85FE85E858FF4F8082D60102
:101D60008C92ED85FE85E458FF4F1082F80180814A
:101D7000918101969183808393942D853E852F5F79
:101D80003F4F3E872D8732E0A30EB11C8FEFC81A5C
:101D9000D80A0E5F1F4F92E0E90EF11CA4E09A12E0
:101DA000F6CEAFEAAA2EA1E0BA2EBBEACB2EB1E066
:101DB000DB2E17EA412E11E0512E0FE614E087E6E4
:101DC000E82E84E0F82E93EB292E91E0392EEFEBEC
:101DD000F3E0FA83E983712CE981FA81E858FF4F37
:101DE0008081882309F42EC1E981FA81E059FF4FEF
:101DF0008081811106C0672D84EE93E00E94CC099A
:101E000021C181508083D8018C91E981FA81EC5401
:101E1000FF4FFE83ED8329813A8128543F4F4901CA
:101E200081114FC0D7012D913C912F5F3F4FC901C8
:101E3000880F991FEF81F885E856FF4F0190F081D8
:101E4000E02DE80FF91F45915491842F8770ED81A3
:101E5000FE818083BA01E3E076956795EA95E1F724
:101E6000CB0196958795952F96959695D4019C9341
:101E70008F739091F403899F802D1124F801808342
:101E80006170D1016C93F70131832083E981FA817C
:101E9000E056FF4F808190E02817390790F0E981E4
:101EA000FA81EC55FF4F2081222331F0821B9109EA
:101EB000D7018D939C9305C0672D84EE93E00E941B
:101EC000CC09F801808181508083E981FA81E4584E
:101ED000FF4F20812F5F2083E981FA81E459FF4F72
:101EE0004081D4013C91340FE981FA81E45BFF4FDA
:101EF0008081380FE981FA8135A7E857FF4F60816B
:101F0000662399F070E0822F022E000C990B0E943C
:101F10008C28E981FA81E457FF4F8081869F300D3C
:101F20001124A981BA819D963C93E981FA8185A506
:101F300090E0CB966BE370E00E948C2885A7EC586C
:101F4000FF4F3081A981BA81D1963C93D197FD0191
:101F5000E058FF4F60816623A1F0062E000C770B3E
:101F6000822F022E000C990B0E948C28E981FA81A5
:101F7000EC57FF4F8081869F300D1124E981FA8153
:101F800031ABE981FA81E057FF4F60816623D1F0E0
:101F9000822F220F990B70E00E948C28CB0162E007
:101FA00070E00E948C28E981FA81EC56FF4F208175
:101FB000A981BA81D1969C91D197289F900D112427
:101FC000D1969C93E981FA814F3359F081A98A30E7
:101FD0000CF089E087FD80E0A981BA81D1968C93CD
:101FE00001C011AAF894A981BA819D96EC91F0E004
:101FF000E05EF54FE491D501EC93E981FA8121A9E6
:10200000E454FF4F3081AD81BE814C912303900198
:1020100011244203C001439F900D11240090F50349
:1020200002C0880F991F0A94E2F797FF02C08158F7
:102030009F4F880F892F881F990BF6018083D2014B
:102040008C9378947394E981FA813196FA83E983C9
:10205000FFEFAF1ABF0A2FEFC21AD20A3FEF431A9F
:10206000530A0F5F1F4F82E0E80EF11CAF81B88565
:102070001296B887AF83BFEF2B1A3B0AE4E07E12BB
:10208000ABCE8091B704882309F45AC08C3020F479
:10209000FCE0F81BF98301C01982FF24F394F0924D
:1020A000870410929F041092A004209184042B8333
:1020B0001981121B022F0D5F4DE2410F2EE463E0E8
:1020C0008FE794E00E949B0B3B8134503B83105D73
:1020D000E32E01E023E0412F60E58FE794E00E94CA
:1020E000B80CEB8002E023E0412F63E08FE794E03F
:1020F0000E94B80CF0929F04F092A0048091840496
:1021000023E0280F6981681B635D44E580E00E943D
:10211000901484E080938804809184049981981BB2
:10212000915D909389046091B5047091B6048FE736
:1021300094E00E94D7068091B70481508093B70441
:102140008091DB039091DC03892B09F48AC081E044
:1021500080939F041092A0049091830485E5891BCD
:1021600080938804109289046091D803613009F447
:1021700059C030F08091D703653008F06BC066C05D
:1021800008EE13E01982698184EE93E00E94CC0985
:10219000D8011D928D01B981BF5FB983B43099F721
:1021A00081E0809387046EE978E08FE794E00E94F5
:1021B0002F0A1092DC031092DB0310928504E8EAE8
:1021C000E9830E941E0D8823E1F360E978E08FE740
:1021D00094E00E94D7064091D9035091DA0360E061
:1021E00070E02AE08FE794E00E9410076BE778E048
:1021F0008FE794E00E94D706498142954F7050E0E6
:1022000060E070E08FE794E00E945E1460E778E0A1
:102210008FE794E00E94D7068091D403813009F0C3
:1022200094C01FC08091A2049091A304A091A40423
:10223000B091A5048F709927AA27BB270897A105FD
:10224000B10510F467E009C068E707C0882349F0CA
:102250006B5F03C0882329F06FE28FE794E00E9450
:10226000D0060E9423148091850481110EC088EF4E
:1022700091E0EFEBF1E0DF019C011D922150304035
:10228000E1F710928804109289040E94600860931C
:10229000AC047093AD048093AE049093AF0420918E
:1022A000A8043091A904621B730B7093A704609378
:1022B000A60480E06CC02FB7F8948091BB01909188
:1022C000BC01A091BD01B091BE012FBF2091B0040F
:1022D000820F911DA11DB11D8093B1049093B20492
:1022E000A093B304B093B4048091A2049091A3048A
:1022F000A091A404B091A5040196A11DB11D8093E5
:10230000A2049093A304A093A404B093A5041092F4
:10231000AC041092AD041092AE041092AF040E946F
:1023200060086093A8047093A9048093AA04909312
:10233000AB040E9466158091DB039091DC03892B2E
:1023400011F00E94EA1581E022C0398131503983B1
:10235000311137CF60E070E08FEF0E94010883B742
:10236000817F846083BF83B7816083BF83B78160CF
:1023700083BF889583B78E7F83BF83B78E7F83BFEC
:1023800020CF893209F0E3CB0E94B115E0CB2E9625
:102390000FB6F894DEBF0FBECDBFDF91CF911F9176
:1023A0000F91FF90EF90DF90CF90BF90AF909F90F4
:1023B0008F907F906F905F904F903F902F900895F7
:1023C00040E068E678E00C94F50940E060E678E0EB
:1023D0000C94F5098F929F92AF92BF92CF92DF92A9
:1023E000EF92FF92C090D903D090DA03C094D094BA
:1023F000E12CF12C0E9460084B015C010E946008F6
:10240000A501940120953095409550956095709563
:10241000809590950E9470289B01AC01C701B60180
:102420000E9470286B017C016091C0037091C10310
:102430004B01A12CB12C0E946008DC01CB01880D5E
:10244000991DAA1DBB1DBC01CD016C0D7D1D8E1DEE
:102450009F1D611571058105910551F0FF90EF9069
:10246000DF90CF90BF90AF909F908F900C9492256B
:10247000FF90EF90DF90CF90BF90AF909F908F90A4
:1024800008952F923F925F926F927F928F929F92C8
:10249000AF92BF92CF92DF92EF92FF920F931F9372
:1024A000CF93DF93EC01F901E49031968491643588
:1024B0000CF019C10E2C000CFF08062F062E000C84
:1024C000110BF701E00FF11F1E161F060CF00BC1D8
:1024D00040330CF008C1A82FC42E042E000CDD08D8
:1024E0005601A80EB11C87FDBA941A141B040CF0F7
:1024F000FAC02E5F3F4F570197E0A90EB11CB7FEFF
:1025000004C05701BEE0AB0EB11CB3E0B594A79474
:10251000BA95E1F747FF0AC0A42FA80FAC9CC001F1
:10252000AD9C900D1124281B390B40E08A2F0A2EF8
:10253000000C990B840F911D47FD9A95C19714F0DB
:10254000A0E3A41BF8A067FD60E0E535F10514F0F9
:10255000E4E5F0E09E2FCC85C427C62E062E000CA5
:10256000DD08F601E01BF10B8F014F01F7E08F2230
:102570009924E0E8F0E002C0F595E7958A94E2F747
:102580007E2F17FF02C0095F1F4FF3E015950795D7
:10259000FA95E1F7200F311F542F577081E001C0E9
:1025A000880F5A95EAF7459545954595F601B4E5A6
:1025B0004B02E00DF11D1124AF0141545E4FD0E0FC
:1025C0002A2EAA0F3308EE24E394BB24ED2FF0E06B
:1025D000E215F3050CF087C0F9015490F1E0FF1209
:1025E0001AC0962E8A01E72F6901991608F072C069
:1025F0008E2E852021F0D8018C90882A8C92E69529
:1026000031F4BFEFCB1ADB0AF6015490E0E8939463
:102610000F5F1F4FEACFF1101CC0782E7094962EDA
:102620008A01E72F6901991608F054C08E2E852083
:1026300021F0D8018C9087208C92E69531F4BFEF81
:10264000CB1ADB0AF6015490E0E893940F5F1F4F1A
:10265000EACFF3E0FF1629F0962E8A01E72F6901F1
:1026600037C0682E6094862E8A01972E69018916DC
:10267000D8F4E92DE52159F0D801EC91782C7C268D
:1026800070FE02C0E82B02C0E621D801EC939694BC
:1026900039F4BFEFCB1ADB0AF6015490E0E89E2E26
:1026A00083940F5F1F4FE3CFCE2514C08E2E85205D
:1026B00021F0D8018C9088268C92E69531F4BFEFFA
:1026C000CB1ADB0AF6015490E0E893940F5F1F4F9A
:1026D000991660F3880F19F44C5A5F4F81E0DF5F61
:1026E0002A0D3B1D73CFDF91CF911F910F91FF906A
:1026F000EF90DF90CF90BF90AF909F908F907F90A2
:102700006F905F903F902F900895AF92BF92CF92BD
:10271000DF92EF92FF920F931F93CF93DF93182FC7
:10272000062FC1E0D3E08AEFD82E9EEFE92E842F4A
:102730008470C82E842F8270B82E842F8870A82EA3
:102740004170F42E8C2F880F8F5FE80ECC2081F023
:10275000402F4D0F612F6C0F8FE794E00E94270BE5
:10276000402F4C0F6D2F610F8FE794E00E94270BD5
:10277000BB2081F0402F4D1B612F6C0F8FE794E041
:102780000E94270B402F4C1B6D2F610F8FE794E0A9
:102790000E94270BAA2081F0402F4C0F612F6D1B48
:1027A0008FE794E00E94270B402F4D0F612F6C1B89
:1027B0008FE794E00E94270BF1100AC0CD17CCF4EC
:1027C000E7FC04C0D150D394D394ED0CCF5FBACFC3
:1027D000402F4C1B612F6D1B8FE794E00E94270B4D
:1027E000402F4D1B612F6C1B8FE794E00E94270B3D
:1027F000E5CFDF91CF911F910F91FF90EF90DF9088
:10280000CF90BF90AF900895CF93C82FF89460E019
:1028100080918E040E94960780918F0418161CF4F4
:1028200060E00E949607CEBD00000DB407FEFDCF0C
:102830008EB580918F0418161CF461E00E949607F3
:102840007894CF9108950F931F93CF9380918B0429
:102850008F5F80938B040FEB11E0C0E08C2F8064BE
:102860000E94041480E80E94041461E080918E04A8
:102870000E94960780918F0418161CF460E00E9455
:102880009607F80184E591919EBD00000DB407FE06
:10289000FDCF9EB58150B9F780918F0418161CF4B6
:1028A00061E00E949607CF5F0C5A1F4FC630B1F609
:1028B00080E4CF911F910F910C940414CF92DF927A
:1028C000EF92FF920F931F93CF93DF9377FF1DC07B
:1028D0006A017B01EC016DE20E94D0068C01442765
:1028E0005527BA014C195D096E097F092AE0CE010E
:1028F0000E941007800F911FDF91CF911F910F91C0
:10290000FF90EF90DF90CF9008952AE0DF91CF9174
:102910001F910F91FF90EF90DF90CF900C941007D4
:10292000DF92EF92FF920F931F93CF93DF93C82F05
:10293000D62FE42E022F8AEFD82ED40E93E0F92E54
:10294000FC0E2D2D462F6F2D8FE794E00E947F0BFC
:102950001D2F100F4FEF410F2D2D6F2D8FE794E09E
:102960000E947F0B0650DD5F202F4D2F6C2F8FE7CD
:1029700094E00E949C0CCE0D6FEF6C0F202F4D2F1A
:102980008FE794E00E949C0C41E06D2F8F2D0E94F8
:102990008513C45042E06D2F8C2F0E948513DCEF0D
:1029A000D10F44E06D2F8C2F0E94851348E06D2FCE
:1029B0008F2DDF91CF911F910F91FF90EF90DF90BE
:1029C0000C948513CF93DF93A82FB0E0ED01C15491
:1029D000DC4F9DA1992309F43BC099A5911138C002
:1029E000FE01E05CFF4F9081AA0FBB1FA154BC4FBA
:1029F000D8963C91D897D9962C91D997E32FF22F5E
:102A0000E90FF11DE90FF11D259134912F3F9FEF43
:102A1000390711F41DA21CC0FE01E45BFF4F308397
:102A20005F963327220F331F9596ED91FC91969771
:102A3000E20FF31F65917491843028F4482F84EEDF
:102A400093E00E94F509C05CDF4F88818F5F888327
:102A5000DF91CF91089570E09B01220F331F215425
:102A60003C4FF901F39645A196A1E42FF92FE80F09
:102A7000F11DE80FF11D45915491F901ED58FF4FFB
:102A800056A345A3FA01859194919091F403989FE0
:102A9000802D112461547C4FFB01E056FF4F808351
:102AA000FA01A591B4912B2F30E0E82FF0E02E171A
:102AB0003F0720F4FA0125913491832FFB01EC5557
:102AC000FF4F989F802D112480830895DF92EF920D
:102AD000FF920F931F93CF93DF93CFEBD3E006ECDE
:102AE00013E0EE24EA9462E08A850E94C5072A85F5
:102AF00030E0F901E251F54F8491F901E652F54FCA
:102B0000F490F901EA53F54FD490DD2071F0811172
:102B10000E946D07ED2DF0E0EE0FFF1FE454F54F1E
:102B2000A591B491EC91FE2299F489898F5F898BEC
:102B300060E08A850E94C50721960C171D0799F64B
:102B4000DF91CF911F910F91FF90EF90DF9008954B
:102B50008989882389F38F3F11F4198AE9CFE98A9B
:102B6000E7CF88EF91E0EFEBF1E0DF019C011D92F0
:102B700021503040E1F7109288041092890464E9F2
:102B80007AE08FE794E00E94D7060E9423148CB568
:102B900083608CBD8DB58E7F8DBD84E391E0EEEFBB
:102BA000FFE30995109285046FE67AE08FE794E0E1
:102BB0000E9459070E9423140E9466158091D40335
:102BC000813039F062E370E080E090E00E94850897
:102BD000F3CF0895CF93C091E3038C2F8F71E1F56C
:102BE00083E480937C0080917A00806480937A00F3
:102BF00080917A0086FDFCCF609178008091790009
:102C000070E0782B072E000C880B990B0E94BE26D3
:102C100026EE3FE34EEC50E40E948E270E948D2664
:102C20009B017093DA036093D903672B91F084E0E2
:102C30008093D803EBEDF3E080E0419151912417AC
:102C4000350718F48093D8030AC08F5F8430A9F742
:102C500003C08FEF8093D803CF5FC093E303CF917E
:102C60000895CF92DF92EF92FF920F931F93CF932D
:102C7000DF9381E08093870410928604109285048C
:102C80001092D70380939F048093A004C4E2DCE0F9
:102C90001CE00E941E0D8823E1F3FE01849188232D
:102CA00019F00091840401C000E029E33CE040E019
:102CB00060E08FE794E00E9441124CE0400F22E078
:102CC0003BE060E08FE794E00E944112109288049C
:102CD0001093890464E27CE08FE794E00E94D706B9
:102CE00080918304982F990F890F81958D5A809335
:102CF000880480918404982F990F890F8195835DB2
:102D0000809389048091A20484FF03C065E37CE082
:102D100002C061E37CE08FE794E00E945907809154
:102D20008304982F990F890F81958D5A8093880479
:102D3000809189048F5F809389048091F5038823B3
:102D400019F06DE27CE002C069E27CE08FE794E07C
:102D50000E94590780918304982F990F890F8195BC
:102D60008D5A80938804809189048F5F80938904B1
:102D700065E27CE08FE794E00E9459078091D503DB
:102D80008130B1F48091F5038F5F6091F60387FD88
:102D900009C0082E000C990B70E06F5F7F4F0E94F6
:102DA0008C28682F6093F50384EE93E00E942A0A32
:102DB0008091D4038130A9F08091A104482F50E084
:102DC00060E070E0C090A204D090A304E090A4045E
:102DD000F090A504C416D506E606F706E0F08F3F8E
:102DE000D1F08FEF8093A10460E084EE93E00E9425
:102DF000CC091092E80384EE93E00E94E51181E093
:102E00008093D703DF91CF911F910F91FF90EF90A7
:102E1000DF90CF9008958091D603813009F039CFAB
:102E20000E94B11536CFCF93DF93CDB7DEB762974F
:102E30000FB6F894DEBF0FBECDBF789484B5826024
:102E400084BD84B5816084BD85B5826085BD85B54E
:102E5000816085BD80916E00816080936E001092CC
:102E60008100809181008260809381008091810047
:102E700081608093810080918000816080938000D8
:102E80008091B10084608093B1008091B000816036
:102E90008093B00080917A00846080937A00809162
:102EA0007A00826080937A0080917A0081608093BA
:102EB0007A0080917A00806880937A001092C10035
:102EC00082E38093B00481E090E0A0E0B0E08093E2
:102ED000AC049093AD04A093AE04B093AF048FEF15
:102EE0008093A104E0E8F7E7259134912130304C3C
:102EF00009F049C0E6E9F7E7E491E0938A04E7E9DD
:102F0000F7E7E491E093C303E8E9F7E7E491E0939E
:102F1000C403E9E9F7E7859194919093C603809300
:102F2000C503EBE9F7E7859194919093C8038093EB
:102F3000C70387E08093F603EEE9F7E7E491E093B7
:102F4000F503EFE9F7E7E491E093A104E0EAF7E79E
:102F5000859194919093DC038093DB03E2EAF7E799
:102F6000859194919093DE038093DD03E4EAF7E783
:102F7000859194919093E0038093DF03E6EAF7E76D
:102F8000859194912CC09CE390938A041092C30382
:102F90008093C40380E293E09093C6038093C503BB
:102FA00084ED93E09093C8038093C70387E08093F8
:102FB000F6038093F5038CEA9DE09093DC03809305
:102FC000DB038EED9DE09093DE038093DD0384E7C9
:102FD0009EE09093E0038093DF038CE39FE0909367
:102FE000E2038093E1036FEF70E08FEF0E9401082E
:102FF00088E08093C90389E08093CA0387E08093C7
:10300000CB0386E08093CC0314E01093CD0382E0E1
:103010008093CE0385E08093CF030E9466158CE3F6
:103020009FE09093DA038093D9031093D80381E053
:103030008093E3039BE090938D049DE090938C0438
:1030400090E190938E049EE0909390049FE0909383
:103050008F048093870480939F041092A004809330
:1030600086046EE978E08FE794E00E942F0A1FB78C
:10307000F89480919601811127C0E0EDFAE08491E7
:10308000E4EEFAE09491E82FF0E0EE0FFF1FE75234
:10309000FD4FA591B491EC91E92321F461E08AE020
:1030A0000E94960761E08AE00E94C5078CB58061A6
:1030B0008CBD8CB580648CBD61E08DE00E94C5073D
:1030C00061E08BE00E94C507809196018F5F80933D
:1030D00096011FBF8CB58F7D8CBD8CB58C7F8160B8
:1030E0008CBD8DB581608DBD8CB58C608CBD61E073
:1030F00080918D040E94C50761E080918C040E943C
:10310000C50761E080918E040E94C50780919004FC
:1031100018161CF461E00E94C50780918F041816F0
:103120001CF461E00E94C50780919004181674F4A5
:1031300060E00E9496076AE070E080E090E00E9404
:10314000850861E0809190040E94960780918C042C
:10315000082E000C990BFC01EA53F54FE491F0E0C6
:10316000EE0FFF1FED51FD4F2591349130939404E4
:1031700020939304FC01E652F54FE491E0939A0406
:1031800080918D04082E000C990BFC01EA53F54F39
:10319000E491F0E0EE0FFF1FED51FD4F25913491CA
:1031A0003093920420939104FC01E652F54FE49190
:1031B000E093990480918F04082E000C990BFC0178
:1031C000EA53F54FE491F0E0EE0FFF1FED51FD4F94
:1031D000259134913093960420939504FC01E65296
:1031E000F54FE491E0939B0480918E04082E000C2F
:1031F000990BFC01EA53F54FE491F0E0EE0FFF1F4D
:10320000ED51FD4F2591349130939804209397040C
:10321000FC01E652F54FE491E0939C0481E20E94A8
:10322000041484E10E94041480918A0487FF03C07F
:103230008FE780938A0480918A0480680E94041436
:1032400080E20E9404148CE00E9404140E94231463
:1032500081E08093F403EBE7CE2EE4E0DE2EF7E18D
:10326000EF2EF4E0FF2E10E001E0A5EDAA2EA2E083
:10327000BA2ED6010D936D01F701A192B1927F0193
:10328000612F80E00E942B151F5F143091F761E0E1
:1032900070E083E00E9401088091B100887F816026
:1032A0008093B100F89410928000109281001092E7
:1032B00085001092840088E191E0909389008093CA
:1032C00088008091810088608093810080918100D6
:1032D00081608093810080916F00826080936F0095
:1032E00078948091DB039091DC03892B11F00E948C
:1032F000EA158091D503813009F067C01092F5037B
:1033000065EC73E08FE794E00E942F0A5CE3C52E22
:1033100051E0D52E63E7A62E61E0B62E7AE0E72EC7
:10332000F12C00E010E04701FAE08F1A9108C40187
:10333000800F911F0E949B25F601E00FF11F8083F3
:103340000F5F1F4F0A30110591F7C7010E949B259F
:10335000082F10E0D5010D931C93C70101960E9420
:103360009B2590E0982F8827800F911F009711F4DC
:103370008FE097E2F501819391935F01FCE0EF0EFE
:10338000F11C2BE0C20ED11C36E4E316F10449F621
:103390008091A10481110E9431160E94EA111092BD
:1033A000850477247A94412C10E020E3622E00E01B
:1033B0005524539433E0332E0E941E0D8823E1F3ED
:1033C0008091D4038130F1F448C040E06DEE72E0AA
:1033D00084EE93E00E94F50941E06DEE72E084EE28
:1033E00093E00E94F50942E06DEE72E084EE93E016
:1033F0000E94F50943E06DEE72E084EE93E00E94D6
:10340000F5097ECF9091D503913039F18091D603A3
:10341000813011F40C94E62441102DC08091D30327
:103420008F3F21F08370813009F4F4C38091D10380
:103430008F3F21F08370813009F4F2C3043021F012
:1034400007FF03C003E001C000E08091840414E0A2
:10345000180F809F1019112435C010918404110F8A
:10346000110F11951250813011F40C94DF2484EE69
:1034700093E00E94E011862D062C000C990B811B15
:10348000910917FD93950297DCF441E0741609F455
:10349000AFC352E0751609F4F9C07110ACC31092B5
:1034A000D7030E94580A1092990110929801109225
:1034B00097016EE978E08FE794E00E942F0A88C3B5
:1034C00044244394E12E012E000CFF08E60CF11C6D
:1034D00067FCFA94F7FE03C08FEFE81AF80AF59438
:1034E000E7942E2C6E2C10928804E092890450925E
:1034F00087041092860497E4A92E96E0B92EC12C79
:10350000D12C802E002E000C99088C149D0451F4AF
:103510003092880480918404922D089F900D11248C
:1035200090938904F501659174918FE794E00E946E
:103530005907AFEFCA1ADA0AB2E0AB0EB11CE4E0E9
:10354000CE16D10411F710929F041092A00480911E
:1035500084044E2D089F400D1124415024E560E065
:103560008FE794E00E947F0B50929F045092A0043A
:103570008091840423E0280F6E2D089F600D112494
:10358000625044E580E00E94901416CF66E273E03A
:103590008FE794E00E94D7064091D9035091DA0357
:1035A00060E070E02AE08FE794E00E94100763E299
:1035B00073E08FE794E00E9459076AE173E08FE7B8
:1035C00094E00E94D7064091D80350E060E070E09C
:1035D0002AE08FE794E00E94100767E173E08FE72D
:1035E00094E00E94590760E173E08FE794E00E9445
:1035F000D7064091C0035091C10360E070E02AE01B
:103600008FE794E00E94100761E371E08FE794E098
:103610000E94FB0665E073E08FE794E00E94D70606
:103620004091C20350E060E070E02AE08FE794E050
:103630000E94100761E371E08FE794E00E94FB06AF
:103640006DEF72E08FE794E00E94D7064091F5039A
:1036500050E060E070E02AE08FE794E00E941007FD
:103660006BEF72E08FE794E00E94D7064091F6037B
:1036700050E060E070E02AE08FE794E00E941007DD
:1036800061E371E08FE794E00E94FB060E941E0D4B
:103690008823E1F38091D603813009F077CF84EE5F
:1036A00093E00E94E011AEC28091D20381508E3F20
:1036B00008F47BC68091D00381508E3F08F48CC6FD
:1036C0008091D40381508E3F08F49DC68091D5032C
:1036D00081508E3F08F4AEC620E030E040E85DE364
:1036E00060918101709182018091830190918401A8
:1036F0000E948E270E948D26162F20E030E040E8A1
:103700005DE360917D0170917E0180917F019091D8
:1037100080010E948E270E948D26862F612F0E9495
:10372000430A182F853009F4B4C2863009F07EC2EE
:1037300023E333E343E35FE3609185017091860106
:1037400080918701909188010E948E276093850166
:103750007093860180938701909388014090910136
:10376000509092016090930170909401C301B20156
:103770000E9481268090850190908601A09087010B
:10378000B0908801A50194010E948E2720918901A3
:1037900030918A0140918B0150918C010E94152635
:1037A0006B017C016093890170938A0180938B0186
:1037B00090938C01C301B2010E94FB279B01AC01D5
:1037C000C501B4010E948E279B01AC0160918D015F
:1037D00070918E0180918F01909190010E94152629
:1037E00060938D0170938E0180938F01909390016F
:1037F00020917D0130917E0140917F0150918001A7
:10380000C701B6010E9415262B013C0160937D0182
:1038100070937E0180937F019093800120E030E0DF
:1038200040E85DE3609181017091820180918301A4
:10383000909184010E948E270E948D26162F20E0F1
:1038400030E040E85DE3C301B2010E948E270E9490
:103850008D26862F612F0E94430A182F883008F08A
:10386000C8C2C0908D01D0908E01E0908F01F09081
:10387000900120918101309182014091830150910A
:103880008401C701B6010E9415264B015C016093BB
:10389000810170938201809383019093840120E0E1
:1038A00030E040E85DE30E948E270E948D26162FAF
:1038B00020E030E040E85DE360917D0170917E01A1
:1038C00080917F01909180010E948E270E948D2619
:1038D000862F612F0E94430A182F883008F0E5C216
:1038E00040907D0150907E0160907F01709080013A
:1038F0008090910190909201A0909301B0909401DA
:10390000C501B4010E9481266F87788B898B9A8BC1
:10391000C0908501D0908601E0908701F0908801E9
:103920002091810130918201409183015091840165
:103930002B873C874D875E87C501B4010E94FB271A
:103940004B015C01A70196016F85788989899A8965
:103950000E948E2720E030E040E852E40E948E274B
:10396000A30192010E94152620E030E048E252E4D3
:103970000E9414260E94862620919C0130919D0170
:10398000A901440F551F240F351F620F731F77FFC6
:1039900002C06D5F7F4F75956795759567957093BC
:1039A0009D0160939C01A5019401C701B6010E948D
:1039B0008E2720E030E040E852E40E948E272B85DD
:1039C0003C854D855E850E94152620E030E040EC68
:1039D00051E40E9414260E94862620919A0130917B
:1039E0009B01A901440F551F240F351F620F731F40
:1039F00077FF02C06D5F7F4F7595679575956795E9
:103A000070939B0160939A0120E030E040E85DE311
:103A10006B857C858D859E850E948E270E948D26D4
:103A2000162F20E030E040E85DE3C301B2010E94C0
:103A30008E270E948D26862F612F0E94430A873091
:103A400009F495C280919701882349F080919801EB
:103A50009091990101969093990180939801C0905B
:103A60009A01D0909B0131EFC3163FEFD3060CF4BF
:103A700029C3C601D7FC0F96B4E095958795BA95F2
:103A8000E1F7182F40EDC41641E0D4060CF01CC33A
:103A9000560150E3A50EB11CB7FE04C056018FE3DA
:103AA000A80EB11CA4E0B594A794AA95E1F79FEFE6
:103AB000A91AB90A812F90E08A159B050CF408C356
:103AC00002E122E140E060E08FE794E00E949B0B7E
:103AD00010929F041092A00400E010E0E12CF12C61
:103AE0004801012E000CAA08BB08CC24C394C00EC8
:103AF00020E030E040E85DE360917D0170917E015F
:103B000080917F01909180010E948E272B013C01C2
:103B1000B7010F2C000C880B990B0E94BE269B014D
:103B2000AC01C301B2010E94152620E030E040E064
:103B300051E40E9414260E948626D62E30E23617C3
:103B400008F01FC34FEFE41AF40A50E1E516F10440
:103B500079F60F5F1F4F0031110509F0BFCF11E05B
:103B600010939F041093A00449E069E08FE794E06C
:103B70000E94270B109288049091840480E3891B93
:103B80008093890410939F041092A004409198019F
:103B90005091990160E070E02AE08FE794E00E9484
:103BA000100760917D0170917E0180917F0190915D
:103BB00080010E94862620919C0130919D011B016D
:103BC000221A330AC10140968536910508F40CC3C8
:103BD0000E941E0D8823E1F38091D603813009F005
:103BE00063CD65EC73E08FE794E00E942F0A0AC072
:103BF0000E94790A07C08091A10481110E943116A8
:103C00000E94EA1180E090E0892B09F4C8CB0E9461
:103C10000000C5CB0F5F84EE93E00E942A0A06CC19
:103C2000015084EE93E00E942A0A08CC23E333E398
:103C300043E75FE360918501709186018091870180
:103C400090918801111160C00E948E2760938501B8
:103C500070938601809387019093880126E636E66B
:103C600046E65FE36091890170918A0180918B0142
:103C700090918C010E948E276093890170938A0134
:103C800080938B0190938C0126E636E646E65FE34F
:103C900030C026E636E646E65FE360918501709126
:103CA000860180918701909188010E948E27609300
:103CB00085017093860180938701909388012DEC94
:103CC0003CEC4CE45FE36091890170918A01809142
:103CD0008B0190918C010E948E27609389017093D3
:103CE0008A0180938B0190938C012DEC3CEC4CE489
:103CF0005FE360918D0170918E0180918F019091B1
:103D000090010E948E276CC00E948E2760938501CF
:103D100070938601809387019093880126E636E6AA
:103D200046E65FE36091890170918A0180918B0181
:103D300090918C010E948E276B017C016093890118
:103D400070938A0180938B0190938C0126E636E66E
:103D500046E65FE360918D0170918E0180918F0145
:103D6000909190010E948E2760938D0170938E0137
:103D700080938F01909390011330D9F060F411304B
:103D800079F0123009F0EACC20E030E040E85FE35F
:103D90000E94152625C01430E9F0173009F0DECC5A
:103DA00020E030E040E85FE3C701B6010E9415263D
:103DB00008C020E030E040E85FE3C701B6010E94A0
:103DC00014266093890170938A0180938B019093EC
:103DD0008C01C4CC20E030E040E85FE30E94142670
:103DE00060938D0170938E0180938F019093900169
:103DF000B5CCA7019601C301B2010E9414266093BD
:103E00007D0170937E0180937F0190938001183033
:103E100039F520E030E0A901C701B6010E948927E9
:103E200087FD0DC020E030E040EC50EC209389018C
:103E300030938A0140938B0150938C010CC080E039
:103E400090E0A0ECB0E48093890190938A01A09364
:103E50008B01B0938C0184EE93E00E94E51114C0B5
:103E600020E030E040E05FEBC701B6010E948E2702
:103E70006093890170938A0180938B0190938C01E8
:103E800084EE93E00E942A0A20E030E040E05FE305
:103E9000C501B4010E948E2760938501709386014D
:103EA0008093870190938801DCCCA7019601C5011E
:103EB000B4010E9414266093810170938201809363
:103EC000830190938401183039F520E030E0A90196
:103ED000C701B6010E94892787FD0DC020E030E0B0
:103EE00040EC50EC20938D0130938E0140938F0174
:103EF000509390010CC080E090E0A0ECB0E480937F
:103F00008D0190938E01A0938F01B093900184EE68
:103F100093E00E94E51114C020E030E040E05FEB48
:103F2000C701B6010E948E2760938D0170938E01A8
:103F300080938F019093900184EE93E00E942A0A6F
:103F400020E030E040E05FE3609185017091860100
:103F500080918701909188010E948E27609385014E
:103F6000709386018093870190938801B9CC8091EA
:103F70009701811108C081E0809397011092990107
:103F8000109298015FCD409098015090990135E6CC
:103F90004316510408F456CD65EC73E08FE794E0C6
:103FA0000E942F0A80917B0190917C01481659064E
:103FB00008F070C040E06AE673E084EE93E00E948F
:103FC000F5096201E12CF12C0E941E0D8823E1F31A
:103FD0000E94442522E030E040E050E00E94B125FC
:103FE0006E5F609388040E94442522E030E040E048
:103FF00050E00E94B125609389046CE573E08FE77F
:1040000094E00E94D706109288044CE04093890403
:1040100061E573E08FE794E00E94D7062AE0B701DC
:10402000A6018FE794E00E94100765E473E08FE734
:1040300094E00E94D7064091730150917401052EBF
:10404000000C660B770B8FE794E00E945E1469E327
:1040500073E08FE794E00E94D70640917B01509176
:104060007C01052E000C660B770B8FE794E00E9415
:104070005E141092880458E2509389046BE273E056
:104080008FE794E00E94D7068091D403813009F035
:10409000E2C313C22CEB33E03093B6042093B50493
:1040A00080E28093B7046EE978E08FE794E00E94A5
:1040B0002F0A1092990110929801109297010E9474
:1040C000580AC0CC10E0DECCF0E2AF2EB12CF2CC1E
:1040D00080909C0190909D01A1EF8A16AFEF9A0607
:1040E00064F0940197FE02C0215F3F4FE4E03595F4
:1040F0002795EA95E1F7022F01C000E0BCEA8B1694
:10410000B1E09B0694F47401E4E5EE0EF11CF7FEB9
:1041100003C0FFE0EF0EF11C74E0F594E7947A958C
:10412000E1F72FEFE21AF20A03C060E2E62EF12C6B
:1041300054E0880F991F5A95E1F7582E5C18602EAD
:10414000712C6E147F04DCF4612F802F0E94430ACF
:10415000E82FF0E0EE0FFF1FEB5FFE4F2081318173
:10416000B30144E0660F771F4A95E1F768197909B2
:10417000452D8FE794E00E9441120F5FE0CF1F5F53
:1041800099CC20E030E040E85DE3609181017091DE
:10419000820180918301909184010E948E272B01DE
:1041A0003C01C501B4010E94BE269B01AC01C301C4
:1041B000B2010E94152620E030E040E051E40E9468
:1041C00014260E948626613208F0BCCC8D2D0E94F8
:1041D000430A883008F0B6CC4C2D61E06E0D8FE7B5
:1041E00094E00E94270BAECC609181017091820116
:1041F00080918301909184010E94862620919A01EA
:1042000030919B01DB01A21BB30BBC87AB87CD01B7
:1042100040968134910508F0DBCC10919501FB8428
:10422000D22C212F220F2F5F4A2F411B622D8FE7A7
:1042300094E00E949C0CE12C03E0212F4B85622D21
:104240008FE794E00E94B80C10929F041092A00493
:104250008090910190909201A0909301B090940170
:10426000C501B4010E94FB276F87788B898B9A8BDD
:10427000EB85FC85BF01FF0F880B990B0E94BE26C2
:104280002B013C0120E030E040E850E46F85788964
:1042900089899A890E948E279B01AC01C301B201D2
:1042A0000E9415260E948626E62EC501B4010E94B2
:1042B00081262B013C01B101032C000C880B990BCA
:1042C0000E94BE264B015C0120E030E040E850E453
:1042D000C301B2010E948E279B01AC01C501B4014C
:1042E0000E9415260E948626C62E0E2D0E2C000C2E
:1042F000110B2B853C85021B130B17FF03C0119577
:1043000001951109AC2C0C2C000CBB08A218B308A9
:10431000B7FE03C0B194A194B108A016B1062CF069
:104320008E2DEC2CC82EF22CDB84EF1434F08C2D67
:10433000CD2CD82E8E2DEF2CF82E7F2C7E188D2C88
:104340000D2C000C99088C189108C7FC939497FECB
:1043500003C0919481949108972C77FE03C099240F
:104360009394970C9594CD141CF4DD24D39402C03F
:10437000DD24DA94FE149CF0A016B1061CF44E2D38
:104380006C2D02C04C2D6E2D8FE794E00E94270B00
:10439000981897FE02C0CD0C970CE394EBCF81E008
:1043A00080939F048093A00413CC25E438ED40E271
:1043B0005EE36091910170919201809193019091DF
:1043C00094010E941526609391017093920180934D
:1043D0009301909394016EC925E438ED40E25EE3C9
:1043E000609191017091920180919301909194015B
:1043F0000E9414266093910170939201809393011F
:10440000909394015DC92AE037ED43EA5CE3609143
:1044100085017091860180918701909188010E94A9
:104420001526609385017093860180938701909390
:1044300088014CC92DEC3CEC4CE45FE360918501B4
:104440007091860180918701909188010E948E274A
:104450006093850170938601809387019093880112
:104460002DEC3CEC4CE45FE36091890170918A0192
:1044700080918B0190918C010E948E27609389011D
:1044800070938A0180938B0190938C012DEC3CEC0E
:104490004CE45FE360918D0170918E0180918F01FA
:1044A000909190010E948E2760938D0170938E01F0
:1044B00080938F01909390010FC984EE93E00E9446
:1044C000E511E0E8F7E7859194918130904C59F43B
:1044D000A8E6B1E0EBE8F7E784918D933196E539F2
:1044E00087E7F807C9F7109285041092720140E33C
:1044F000B42E94E59F8712E0F12CE12C5AEF652E43
:104500000E941E0D8823E1F38091D3038F3F21F099
:104510008370813009F4A9C18091D1038F3F21F0CC
:104520008370813009F4A7C18091D2038F3F21F0BD
:104530008370813009F4A5C18091D0038F3F21F0B1
:104540008370813009F4A3C1A0E1FA1629F0F7FEC7
:1045500004C03FE0F32E01C0F12C183021F017FF0A
:1045600003C017E001C010E090918404809183049F
:1045700080958F9D802D1124895DBF85CB2EBB0F2B
:10458000DD08C80ED11C87FDDA94D7FE03C0EFEF1B
:10459000CE1ADE0AD594C7943C2CCF86292F2095BD
:1045A00084E1891B219F800D11248B2CBB0C990861
:1045B000880E911C87FD9A9497FE03C0FFEF8F1A17
:1045C0009F0A95948794282CB82C8091D40381302D
:1045D00039F549E04E15D4F02F2D30E1139F200D11
:1045E0001124222309F48CCF2A3009F489CF2D30ED
:1045F00009F486CF8E2D0E2C000C990BFC01E85986
:10460000FE4F2083FC01E759FE4F1082E39484EEB5
:1046100093E00E94E5114BE04E1510F48BE0E82E7C
:104620008091D503813081F4EA9484EE93E00E9476
:10463000E0115FEFE51609F430C1EE2D0E2C000CF1
:10464000FF0BE859FE4F10828091D603813051F460
:1046500026C18091D503813009F025C184EE93E015
:104660000E94E0111B86712CA12C2B852A0D8091B4
:104670008404472D789E400D1124420D80918304BF
:104680006A2DA89E600D1124630D01E08FE794E070
:104690000E94C40BA39450E1A512E7CF73948B85BD
:1046A000805F8B8798E07912DFCF80918304AC2DF7
:1046B000869DA00D11248A2F8250809388048091BA
:1046C00084048F5F880D8093890468E973E08FE725
:1046D00094E00E94D70680918304BC2D869DB00D86
:1046E00011248B2F82508093880480918404880F3A
:1046F0008E5F880D8093890462E973E08FE794E010
:104700000E94D70680918304EC2D869DE00D112434
:104710008E2F8250809388048091840490E00196CB
:10472000982F990F890F880D809389046CE873E0A6
:104730008FE794E00E94D70610929F041092A00485
:1047400080918404412F189F400D11244250480D40
:10475000809183046F2DF89E600D112461506C0DC3
:1047600027E08FE794E00E947F0BDD24D394D09262
:104770009F04D092A0040091840430918304E32F1D
:10478000F0E025E0200FCF01019762E070E00E9489
:104790008C283E5F432F480F612F109F600D11241E
:1047A0006350680D8F2DFE9E800D112482508C0D5C
:1047B0000E949014809184044EE2481B24E560E03E
:1047C0008FE794E00E947F0B10929F041092A00448
:1047D0008091840401E0080F4FE2481B24E560E06B
:1047E0008FE794E00E949B0B1092880480918404D0
:1047F000F0E3F81BF0938904D0929F04D092A004B8
:1048000068E671E08FE794E00E94FB068091A204C5
:104810009091A304A091A404B091A5048770992756
:10482000AA27BB270497A105B10508F069CE29E0A6
:104830002E150CF465CE8091840440E3481B6091F2
:104840008304E69E602D112401E02FE58FE794E0BC
:104850000E94C40B55CE8091D603813009F0B4CBB1
:1048600084EE93E00E94E0111ECC1F5F84EE93E083
:104870000E942A0A51CE115084EE93E00E942A0A27
:1048800053CEF39484EE93E00E942A0A55CEFA9414
:1048900084EE93E00E942A0A57CEE12CD5CE84EE16
:1048A00093E00E94E5110E941E0D8823E1F36FEA58
:1048B00073E08FE794E00E94590768E671E08FE7A4
:1048C00094E00E94FB066EE973E08FE794E00E949B
:1048D00059078091D403813009F0BBCE84EE93E078
:1048E0000E94E51150927C0140927B018BE7E82EFB
:1048F00081E0F82E08E611E0D701BE90AE907D0170
:1049000012968D909C9013978A149B045CF01CE384
:10491000A12E11E0B12E03E7C02E01E0D02E0AE057
:1049200010E01EC06801BBE0CB1AD108B601CE0171
:1049300001960E94BF28B801C6010E94BF28BE018F
:104940006F5F7F4FC8010E94BF28F701918280826C
:10495000B382A2828601F1E00C331F0769F6D7CF3C
:10496000E12CF12C48012AE0821A9108F501EE0DA4
:10497000FF1D6081C4018E0D9F1D0E94A3253FEF86
:10498000E31AF30A4AE0E416F10481F7D6016C91C8
:10499000C8010E94A325F6016181B2E0CB0ED11CB3
:1049A000C80101960E94A325045F1F4FEBE0AE0EE5
:1049B000B11C06341105A1F60E94790A74CB84EE6D
:1049C00093E00E94E511702E0C943B1A1091840420
:1049D000110F110F119512500C94371A1092820476
:1049E0001092810489E291E09093800480937F0487
:1049F00008958F929F92AF92BF92CF92DF92EF92E3
:104A0000FF92CF93DF93EC01688179818A819B814A
:104A1000611571058105910521F464E279ED8BE55D
:104A200097E02DE133EF41E050E00E94B1254901CC
:104A30005A019B01AC01A7EAB1E40E94D0256B01A9
:104A40007C01ACEEB4EFA50194010E94DE25DC01EF
:104A5000CB018C0D9D1DAE1DBF1DB7FF03C001977F
:104A6000A109B04888839983AA83BB83BC01CD0187
:104A70009F77DF91CF91FF90EF90DF90CF90BF9025
:104A8000AF909F908F9008958F929F92AF92BF9218
:104A9000CF92DF92EF92FF9260910101709102013B
:104AA00080910301909104016115710581059105C3
:104AB00021F464E279ED8BE597E02DE133EF41E0FD
:104AC00050E00E94B12549015A019B01AC01A7EABF
:104AD000B1E40E94D0256B017C01ACEEB4EFA501DE
:104AE00094010E94DE25DC01CB018C0D9D1DAE1DC5
:104AF000BF1DB7FF03C00197A109B0488093010112
:104B000090930201A0930301B0930401BC01CD0175
:104B10009F77FF90EF90DF90CF90BF90AF909F90E6
:104B20008F900895609301017093020180930301B7
:104B3000909304010895F999FECF92BD81BDF89A32
:104B4000992780B50895262FF999FECF1FBA92BDF7
:104B500081BD20BD0FB6F894FA9AF99A0FBE01965E
:104B60000895052E97FB1EF400940E94C82557FD5A
:104B700007D00E94E32507FC03D04EF40C94C8250F
:104B800050954095309521953F4F4F4F5F4F089579
:104B900090958095709561957F4F8F4F9F4F0895A9
:104BA0000E940526A59F900DB49F900DA49F800D97
:104BB000911D11240895B7FF0C94D0250E94D02593
:104BC000821B930B0895A1E21A2EAA1BBB1BFD01A9
:104BD0000DC0AA1FBB1FEE1FFF1FA217B307E407DC
:104BE000F50720F0A21BB30BE40BF50B661F771F34
:104BF000881F991F1A9469F7609570958095909514
:104C00009B01AC01BD01CF010895A29FB001B39FEC
:104C1000C001A39F700D811D1124911DB29F700DC5
:104C2000811D1124911D08955058BB27AA270E9469
:104C30002C260C943B270E94022738F00E9409275B
:104C400020F039F49F3F19F426F40C94FF260EF45B
:104C5000E095E7FB0C94F926E92F0E94602758F3B2
:104C6000BA17620773078407950720F079F4A6F551
:104C70000C9482270EF4E0950B2EBA2FA02D0B0179
:104C8000B90190010C01CA01A0011124FF27591B91
:104C900099F0593F50F4503E68F11A16F040A22F97
:104CA000232F342F4427585FF3CF46953795279508
:104CB000A795F0405395C9F77EF41F16BA0B620B07
:104CC000730B840BBAF09150A1F0FF0FBB1F661F4E
:104CD000771F881FC2F70EC0BA0F621F731F841F91
:104CE00048F4879577956795B795F7959E3F08F0B7
:104CF000B0CF9395880F08F09927EE0F9795879579
:104D000008950E941227E3950C944C270E948D264B
:104D10006894B1110C94832708950E94682788F045
:104D20009F5798F0B92F9927B751B0F0E1F0660F6F
:104D3000771F881F991F1AF0BA95C9F714C0B130B0
:104D400091F00E948227B1E008950C948227672F8A
:104D5000782F8827B85F39F0B93FCCF386957795DF
:104D60006795B395D9F73EF49095809570956195C8
:104D70007F4F8F4F9F4F0895E89409C097FB3EF4F3
:104D800090958095709561957F4F8F4F9F4F992398
:104D9000A9F0F92F96E9BB279395F6958795779516
:104DA0006795B795F111F8CFFAF4BB0F11F460FFD6
:104DB0001BC06F5F7F4F8F4F9F4F16C0882311F02E
:104DC00096E911C0772321F09EE8872F762F05C042
:104DD000662371F096E8862F70E060E02AF09A95DD
:104DE000660F771F881FDAF7880F9695879597F9D2
:104DF000089597F99F6780E870E060E008959FEF5D
:104E000080EC089500240A94161617061806090661
:104E1000089500240A941216130614060506089530
:104E20000C94FF260E946827D8F3E894E0E0BB27A3
:104E30009F57F0F02AED3FE049EC06C0EE0FBB0FA4
:104E4000661F771F881F28F0B23A6207730784072E
:104E500028F0B25A620B730B840BE3959A9572F7A4
:104E6000803830F49A95BB0F661F771F881FD2F7E2
:104E700090480C942928092E0394000C11F48823DF
:104E800052F0BB0F40F4BF2B11F460FF04C06F5F02
:104E90007F4F8F4F9F4F0895EF93E0FF07C0A2EA27
:104EA0002AED3FE049EC5FEB0E942C260E943B2755
:104EB0000F90039401FC9058E8E6F0E00C9435283C
:104EC00057FD9058440F551F59F05F3F71F04795BB
:104ED000880F97FB991F61F09F3F79F087950895A0
:104EE000121613061406551FF2CF4695F1DF08C0BF
:104EF000161617061806991FF1CF869571056105DC
:104F000008940895E894BB2766277727CB0197F983
:104F100008950E94032808F48FEF08950E94A127A6
:104F20000C943B270E94022738F00E94092720F0AA
:104F3000952311F00C94F9260C94FF2611240C945F
:104F400083270E94602770F3959FC1F3950F50E06F
:104F5000551F629FF001729FBB27F00DB11D639F2B
:104F6000AA27F00DB11DAA1F649F6627B00DA11DD1
:104F7000661F829F2227B00DA11D621F739FB00D77
:104F8000A11D621F839FA00D611D221F749F3327E7
:104F9000A00D611D231F849F600D211D822F762F80
:104FA0006A2F11249F5750409AF0F1F088234AF05D
:104FB000EE0FFF1FBB1F661F771F881F91505040C9
:104FC000A9F79E3F510580F00C94F9260C94832795
:104FD0005F3FE4F3983ED4F3869577956795B79550
:104FE000F795E7959F5FC1F7FE2B880F911D96956A
:104FF000879597F908959F930E9412270F9007FCB9
:10500000EE5F0C944C27990F0008550FAA0BE0E8AF
:10501000FEEF16161706E807F907C0F0121613067A
:10502000E407F50798F0621B730B840B950B39F4BA
:105030000A2661F0232B242B252B21F408950A2620
:1050400009F4A140A6958FEF811D811D08959F3F12
:1050500031F0915020F4879577956795B795880F33
:10506000911D9695879597F908959F938F937F93B8
:105070006F93FF93EF939B01AC010E948E27EF91FA
:10508000FF910E9449282F913F914F915F910C947D
:105090008E27DF93CF931F930F93FF92EF92DF92B0
:1050A0007B018C01689406C0DA2EEF010E94A127D3
:1050B000FE01E894A5912591359145915591A6F36E
:1050C000EF010E942C26FE019701A801DA9469F7EE
:1050D000DF90EF90FF900F911F91CF91DF91089596
:1050E000DB018F939F930E94D025BF91AF91A29F28
:1050F000800D911DA39F900DB29F900D11240895D6
:10510000991B79E004C0991F961708F0961B881F19
:105110007A95C9F78095089597FB072E16F40094A9
:1051200007D077FD09D00E94A02807FC05D03EF4E7
:10513000909581959F4F0895709561957F4F089543
:10514000AA1BBB1B51E107C0AA1FBB1FA617B707AD
:1051500010F0A61BB70B881F991F5A95A9F78095C9
:105160009095BC01CD010895EE0FFF1F0590F491BD
:10517000E02D099481E090E0F8940C94C628FB019E
:10518000DC0101900D920020E1F70895F894FFCF23
:1051900001010000008C026A02480226020402E2B9
:1051A00001C0019E017C015A0138011601F400D2B0
:1051B00000B0008E0000000000690C8006CB06CA1B
:0C51C000060D0A004C4F4144455200000F
:00000001FF
