:100000000C94BF040C94E7040C94E7040C94E704EC
:100010000C94E7040C94E7040C94E7040C94E704B4
:100020000C94E7040C94E7040C94E7040C94460E3B
:100030000C94E7040C94E7040C94E7040C94E70494
:100040000C94A00D0C94E7040C94E7040C94E704C2
:100050000C94E7040C94E7040C94E7040C94E70474
:100060000C94E7040C94E70465207D213023C4231D
:10007000B2262F27B02A0A21342A5C235E2A052BB8
:10008000082B0B2B0E2B112B142B172B1A2B1D2B84
:100090000101FF030101F70394009000000000003C
:1000A000240027002A0000000000250028002B0063
:1000B00005008930080238024978681400000404F9
:1000C00060F06090040490F060900404F0F06090A0
:1000D000040460606090150C000000000000000047
:1000E00000C00018F00038F80078C1FC78FB06F872
:1000F000FC01F8F800F8F800F8F800F8150C00001A
:100100000030000044D30052AA0076A9000000008D
:100110001800001D56301555501D9560000000AAAE
:10012000AAA8150C007FF80013F80001F8000138A8
:100130000400386C0018FE0038FF80B8FF01F8FE9C
:1001400001F8FF00F8FFFFF8150C000000000000A8
:1001500000010001030001960000BC1000F81080AF
:100160007010807838C07878E47878FFFFF8150C44
:1001700000000000000000450081FF80C7FFC0E3D1
:10018000FFE0C1FFC0F09380F80000FC0000FE001B
:1001900000FFFFF8150C00000000000099F000655A
:1001A000D800F07E0048CF00400F804017C05003B9
:1001B00060E00638FFFFF8FFFFF8150C00000006AE
:1001C0000A000F84000700F000001020007070008B
:1001D000F0F80190200290FC0490F8FFF8F3FFF88B
:1001E000150C0000000001C00003E00002A00203A3
:1001F000E00601C04580804783E03D0C803CF1C0B3
:10020000240140FFFFF8150C000000000000000072
:1002100000800008C0009880DBF881FFF8807FF83C
:10022000802FF8C007F8F80FF8FFFFF8150C07C08B
:100230003807E01807801803000803800003040053
:10024000810400C00C00E00E00F01E00E0FF80FF03
:10025000FFF8150C00000000000000000000000086
:10026000000008400018E00078E00038C00038E0E6
:100270000078F109F8FFFFF8150C000000000000FD
:1002800001C060E00000000E000700000060C03008
:1002900000300007001E0000001C18E00000150CD4
:1002A000000000FF9FF8FFCFF880E608EFF3D8C00A
:1002B0007008FDE4F880CE78DF9F38C03FB8FFFFBC
:1002C00088FFFFB8150C000000000000000000F0DF
:1002D0000000F80000F80000FC0018FC0078FC0F9B
:1002E000F8FE1FF8FFFFF8FFFFF8150C00000000F4
:1002F00000701F00302880702840307FF070FFF8B9
:1003000030CF38104F301030C010FFFFF8FFFFF82B
:10031000150C0000000000000FFFF8800800F0FF3F
:1003200000CFE4804FE64030FFE0007FC0001110B6
:10033000007FE0000000150C00000000000001C07C
:100340000000E00007FC0001FE0002ABF01FFFE030
:100350001FFFC01FFF80AFFFA8555550150C0000B0
:1003600000000000801000C01800C00808C01C3841
:10037000C21C78C61C78E61C78F61C78FF3FF8FF94
:10038000FFF8150C01E03800F018487808FC3F88A9
:10039000FC3FC0F87F80F07F00F0F600D04008906E
:1003A0000018800078FFFFF8150C00000000000026
:1003B0000000400001C09001E8FC03E8FE07F8F0EF
:1003C0000FF8E007F8C003F8F807F8FFFFF8150C7E
:1003D000000000002000002000002000007000004D
:1003E0005000445110EEFBB8EEDBB8458D10FFFF16
:1003F000F8FFFFF8150C00028000AB8000710000D0
:100400007100007300002600007C0000F80000F07E
:100410000000700000F000FFFFF8150C0000000065
:10042000000000A8000050001FFFC01FFFC00A8A84
:1004300080FA8AF8AA8AA8AA8AA8AA8AA8FFFFF836
:10044000150C0000000000001808203C04407E0F3E
:10045000E0DB1BB0FF3FF8242FE85A2828A506C090
:10046000000000FFFFF8150C0000001F00003F8394
:10047000C07B07E07E0FF07C0C907E0DB07F0FF00C
:100480003F8FF01F0A50000000FFFFF8150C00001E
:10049000380000104011383004007AAA00300400FF
:1004A000401170000020000870801C00C03E08FF52
:1004B000FF78180A30900078F0003060C048902033
:1004C0000000400000007860407860003060004824
:1004D00090000404F0F0F0F00404E0F0F0F0040404
:1004E00060F0F0F0040470F0F0E0040460F0F070EC
:1004F000040460F0F0600404000000000404100034
:1005000000000404900000000404800000100404B3
:10051000900000800404900000900A0A153A496790
:100520006E6F7265006D560A0A504C454153452066
:100530005455524E204F464620004C4F57204241C2
:10054000545445525921200003053F213F120812FF
:100550000A100A0E1C0E0C1E0C141A14161F161E5E
:10056000131E1E1B1E1E1F1E3F213F3A2F3A173D12
:10057000173F213F181F02040A041F0E04040E1F18
:100580000A1F0A0E0E1F04110E2E252E2F2A2E26AC
:100590002929021F02081F08150E04040E150E1546
:1005A000151B151B040604040C04000000001700B2
:1005B0000300031F0A1F16371A1904130A153A00FD
:1005C0000300000E11110E000A040A040E0400308C
:1005D000000404040010001804031F111F121F1050
:1005E0001D151711151F07041F17151D1F151D01B8
:1005F000011F1F151F17151F000A00003200040AF3
:10060000110A0A0A110A040115020E11171E051E0D
:100610001F150A0E110A1F110E1F15111F05010EBD
:10062000111D1F041F111F1108100F1F041B1F1085
:10063000101F061F1E040F0E110E1F09060E112E8D
:100640001F051A121509011F011F101F0F180F1F78
:100650000C1F1B041B031C03191513001F1103049B
:1006600018111F000201022020200001020C121E9E
:100670001F120C0C12120C121F0C1A14041E05244B
:100680002A1E1F021C141D1020201D1F0814111FDC
:10069000101E041E1E021C0C120C3E0A040C123EFC
:1006A0001E040214160A020F120E101E0E100E1E49
:1006B000081E120C1226281E322A26041E21001F94
:1006C00000211E040102013F213FF6E8DBCFC3B841
:1006D000AEA49B928A827B746E68625C57524E49CC
:1006E00045413E3A3734312E2C29272523211F1D21
:1006F0001C1A1917161514131211100F0E0D0C0BCE
:100700000A09080706450068010000172B1520108C
:10071000204C4F4144455200172B16201314000A59
:100720004E6F2053442063617264206F720A6E6FB3
:10073000204C4F414445522E4845580A0A153A4527
:10074000786974001D20466C617368696E670A20C1
:10075000206C6F616465722E2E2E0A0A444F4E275C
:1007600054205455524E204F4646210000000000B0
:1007700023002600290004040404040404040202E3
:100780000202020203030303030301020408102010
:10079000408001020408102001020408102000001B
:1007A0000008000201000003040700000000000030
:1007B00000000500380168010000175344001613BB
:1007C0007800161314001510200015201000540A8C
:1007D00003E181867F3E186D830F0F0E01838660D3
:1007E00033186DC3198F1803C38E6033186DE3304F
:1007F000CF1803C39E603630CDE360CF3006C79E6E
:100800007E3E30CDB360CF300CC6F6603330D9B603
:1008100060CF33CFCCF66061B0DB1E60CF30D86CD8
:10082000E6C061B0DB1E618F19986CC6C063B19BD6
:100830000E330F0FB078C6FF7E1F1B061E0F482316
:100840000000008254000000000000015B15B500AC
:100850000000000001D255250000000000015154A5
:10086000A300000000000000000100000000000FD5
:10087000FFFFFA6000000000000000000000000020
:10088000140000000128000000155A4C14C2A36097
:1008900000001D552A1483AA50000015956A09828C
:1008A000A95000000000000000000000000000004F
:1008B000000000FF8000000000000003FFE0000EC9
:1008C0000000000007FFE00031800000000FFFF093
:1008D0000040400000000FFFF0008F200000000FDC
:1008E000FFF00090A00000000FFFE0013FD00000EB
:1008F000000FFFC0013FD0000000027F8001655063
:100900000000000FFE0003E0500000000FFC000597
:1009100066900000000FFE0006B0A00000000A8FE5
:1009200080055F600000000007C003AAA00000006F
:10093000003FF00475600001F001FFF8050FC010E2
:10094000011BC1FFF808C3FFF8000FFCFEF80837D1
:10095000FCF8007FFCFDE80A0FFFF00007BF67D836
:1009600011803FF0021E53FF781078148003F3EFDC
:10097000FDF02007F3000000FFF7F000AA2B112480
:100980001FBECFEFD8E0DEBFCDBF12E0A0E0B1E0E8
:10099000EEE4FDE502C005900D92A43AB107D9F747
:1009A00027E0A4EAB2E001C01D92AC37B207E1F73C
:1009B00014E0CFEBD4E004C02197FE010E94862E04
:1009C000CE3BD107C9F70E94A61D0C94A52E0C940E
:1009D0000000089580E090E008955091A90390E010
:1009E00070E04091AB032091AE033091AD035C33D6
:1009F00008F094C05CE0589FF001599FF00D11245D
:100A0000EB55FD4FE60FF71F10824C3340F050912D
:100A1000AC035C3320F02C3310F05AE050833C33AD
:100A2000A0F05091AF035C3380F05091B0035C3381
:100A300060F05CE0589FF001599FF00D1124EB55D8
:100A4000FD4FE60FF71F5BE050832C3398F0509179
:100A5000B0035C3378F05091B1035C3358F05CE044
:100A6000589FF001599FF00D1124EB55FD4FE60FF3
:100A7000F71F5083A091AA03AC3390F04C3380F061
:100A80003C3308F45EC15CE0589FF001599FF00DC3
:100A90001124EB55FD4FE60FF71F5DE0508351C168
:100AA0003C33D0F02C33C0F05091AF035C33A0F056
:100AB0005091B0035C3380F05091B1035C3360F02F
:100AC0005CE0589FF001599FF00D1124EB55FD4F4C
:100AD000E60FF71F55E150834C3308F4A0C1509145
:100AE000AC035C3308F4BBC02C3308F4B8C0E0910D
:100AF000B003EC3308F4B3C0E091B103EC3308F475
:100B0000AEC0BCE0B89FF001B99FF00D1124EB55C9
:100B1000FD4FE60FF71FB6E1B083A1C05CE0589F20
:100B2000F001599FF00D1124EB55FD4FE60FF71F13
:100B30005CE350834C3320F42C3310F456E45083A0
:100B40003C3380F45091B0035C3360F45CE0589F18
:100B5000F001599FF00D1124EB55FD4FE60FF71FE3
:100B600057E450832C3380F45091B0035C3360F42D
:100B70005CE0589FF001599FF00D1124EB55FD4F9B
:100B8000E60FF71F58E450834C3390F43C3350F594
:100B90002C3308F055C05CE0589FF001599FF00DD0
:100BA0001124EB55FD4FE60FF71F50E5508306C0AB
:100BB0003C3308F008952C3308F031C15091B00354
:100BC0005C3308F0BAC05CE0589FF001599FF00D0B
:100BD0001124EB55FD4FE60FF71F51E550834C33C1
:100BE00048F008952C3308F01AC14091B0034C33FB
:100BF00008F09FC04CE0489FF001499FF00D112480
:100C0000EB55FD4FE60FF71F42E540833C3308F0FC
:100C100006C13CE0389FF001399FF00D1124EB55DF
:100C2000FD4FE60FF71F83E580832C3308F008950E
:100C30008091B0038C3308F0F2C08EE68083089573
:100C40003CE0389FF001399FF00D1124EB55FD4F2A
:100C5000E60FF71F39E430833091B003D7CFAC33C0
:100C6000B8F03C33C0F0E091AF03EC33A0F0E0917A
:100C7000B003EC3380F0BCE0B89FF001B99FF00DF9
:100C80001124EB55FD4FE60FF71FB7E1B08303C00A
:100C90004C3330F408955C3318F03C3308F06CC0EA
:100CA0005C33E0F03C33D0F02C33C0F0E091AF0384
:100CB000EC33A0F0E091B003EC3380F0E091B103AD
:100CC000EC3360F0BCE0B89FF001B99FF00D112447
:100CD000EB55FD4FE60FF71FB9E2B083AC3308F4D4
:100CE0009EC04C3308F49BC05C33E8F03C3308F4FE
:100CF00075C02C3308F472C04091B0034C3308F433
:100D000055C04091B1034C3308F450C04CE0489FAB
:100D1000F001499FF00D1124EB55FD4FE60FF71F31
:100D20004AE2408343C03C3308F458C02C33F0F50A
:100D300055C03C3308F490CF08954C3308F455CF98
:100D400008955091AC035C3398F03C3308F4C7CE5F
:100D50002C3308F4C4CE5CE0589FF001599FF00D8D
:100D60001124EB55FD4FE60FF71F54E150839CCE45
:100D70003C3308F097CEB3CE2C3308F491CFE091FA
:100D8000AF03EC3308F48CCFE091B003EC3308F4FC
:100D900087CFBCE0B89FF001B99FF00D1124EB554F
:100DA000FD4FE60FF71FB8E2B0837ACF4091AF0353
:100DB0004C33A0F04091B0034C3380F04091B1032C
:100DC0004C3360F04CE0489FF001499FF00D112436
:100DD000EB55FD4FE60FF71F4BE240835C33F0F01D
:100DE0003C33E8F02C33D8F02091AF032C33B8F02B
:100DF0002091B0032C3398F02091B1032C3378F07C
:100E00004CE0489F9001499F300D1124C9018B553A
:100E10009D4FFC01E60FF71F82E310CF0895089560
:100E20003091A30343E0832F642F0E94642E90919E
:100E3000A103890F8093A1032091A403822F642F23
:100E40000E94642E9091A203890F8093A203809147
:100E5000B303280F2093A403632F032E000C770BFA
:100E600077FF03C07195619571096D30710544F08C
:100E70004CE03402C00111240E94722E6093A3033F
:100E8000622F022E000C770B77FF03C071956195DE
:100E900071096D30710544F03CE02302C00111245A
:100EA0000E94722E6093A40308952091590480E05B
:100EB00090E0821758F4E82FF0E0EE0FFF1FE754A0
:100EC000FC4F308131119F5F8F5FF3CF8093C2035E
:100ED000923018F487E080935B0408951F93CF93BA
:100EE000DF9390915504C0915904D0E0892F90E090
:100EF0000196BE010E94722E9C01982FF901FF27D6
:100F0000EE0FFF1FDF01A754BC4F8C91882371F3B4
:100F100020935504C091C1039C9F202D112411964C
:100F20009C91D0E019E0892F90E00196BE010E94CB
:100F3000722E982F322F380F139FD0011124AD53EA
:100F4000BC4F13964C9113974111EDCFE754FC4FD2
:100F50008183309354048091530418968C9310929B
:100F6000580484E08093570482E08093A6038AE0CB
:100F70008093A7031092A80380935B04DF91CF9125
:100F80001F910C9455072F923F924F925F926F9250
:100F90007F928F929F92AF92BF92CF92DF92EF9209
:100FA000FF920F931F93CF93DF93CDB7DEB72797B1
:100FB0000FB6F894DEBF0FBECDBF1092B80390916C
:100FC000C10380915904989F3001112439E0432EC8
:100FD0002090B803022D10E0061517050CF0C2C0D2
:100FE000409EC001419E900D11248D539C4F9F83C4
:100FF0008E837C019FEFE91AF90AAE81BF811196B9
:101000008C91119724E0D22ED80E3C906D2D832D1B
:101010000E944A10811109C0B3E0B30DB9836D2D50
:101020008B2F0E944A10882399F1409EF001419E27
:10103000F00D1124ED53FC4F1582409EC001419EDE
:10104000900D11248D539C4F9D838C83DC01119650
:10105000FC90119783E0D82EDF0CEC906D2D82E090
:101060008E0D0E944A10813009F471C06D2D81E00F
:101070008E0D0E944A10813031F4EC81FD81838114
:10108000882309F464C081E0820D8093B803A0CF67
:101090001092A5038E809F806401F5E0CF0ED11CD5
:1010A000540183E0A80EB11CD4011496BD83AC8317
:1010B000B7E08B0E911CF6018081F091A503FA83B5
:1010C000482F50E02F2F30E0421753078CF1D70103
:1010D0005C90B4E0B50DBB836B2F832D0E944A104A
:1010E000811121C06B8189810E944A1081111BC02E
:1010F000E0E3E51544F5F5018081811114C0AC8170
:10110000BD81EC91F0E0EE0FFF1FE754FC4F8081B2
:101110008150808310925804F4011082D6011C92F1
:1011200081E0F50180838A818F5F8093A503C3CF1F
:10113000843008F082CFEE81FF81938191117DCFC1
:101140008F5F85837ACF5394D7015C92ECCF409E1A
:10115000F001419EF00D1124ED53FC4FFA94F18201
:10116000158291CF27960FB6F894DEBF0FBECDBF84
:10117000DF91CF911F910F91FF90EF90DF90CF9073
:10118000BF90AF909F908F907F906F905F904F90A7
:101190003F902F9008951F93CF93DF9380915B042E
:1011A000843009F4F0C030F4813081F0833009F4E8
:1011B000AEC08EC2883009F44CC08A3009F4D4C065
:1011C000873009F085C280919806C9C08091970642
:1011D000813079F480915A04482F50E04E5F5F4F80
:1011E0002091B60330E0421753071CF48D5F8093C3
:1011F0005A0480919506813051F480915A04282F29
:1012000030E0233031051CF0835080935A048091E4
:101210009606813069F480915A04482F50E020915D
:10122000B60330E0421753071CF48F5F80935A04D3
:1012300080919406813039F480915A04882319F002
:10124000815080935A0480919806813009F055C0EE
:1012500037C180919706813041F48091B203853087
:1012600008F044C18F5F8093B2038091950681306E
:1012700041F48091B203882309F43BC181508093EB
:10128000B203909196069130A1F48091B20382301E
:1012900009F431C108F048C1882309F437C181300D
:1012A00041F49091C103943008F058C19F5F90932E
:1012B000C103809194068130C1F48091B2038230E1
:1012C00009F460C108F06AC181117BC180915904A1
:1012D000833008F461C18150809359048091B40334
:1012E00090915904891709F468C180919906813059
:1012F00009F084C181E080935B0480919A0681307B
:1013000009F0E6C10E94331B10929B06E1C1809157
:101310009706813031F49091B20391117AC1809394
:10132000B20390919506913041F48091B2038823E5
:1013300009F472C181508093B20380919906813083
:1013400009F46DC1809198068F3F39F48091B20302
:10135000811169C184E080935B0480919A06813099
:1013600009F0B6C181E0B2C180919406813009F0E4
:101370005EC1E091540489E0E89FF0011124ED532F
:10138000FC4F1086A5C18091980681502091580489
:101390008E3F08F457C12223E1F1E091540499E013
:1013A000E99FF0011124ED53FC4FB28140915704A5
:1013B00050E0EA01CB5FDE4F8881AAE06A2F0E94ED
:1013C000642E6B2F70E0660F771F61507109869F46
:1013D000302D112490819B0F9F5F930F9093A10359
:1013E000EA01C25FDE4F88816A2F0E94642E9181DC
:1013F0009F5F980F9093A2032695329F302D112462
:101400003093A303829F802D11248093A40385E051
:101410005DC18091950681508E3F38F480915704CC
:10142000882319F08150809357048091970681504A
:101430008E3F38F480915704883018F48F5F809382
:10144000570480919606813009F003C1E09154045D
:1014500099E0E99FF0011124ED53FC4F82838091C4
:101460009406813009F00DC1E091540499E0E99FA0
:10147000F0011124ED53FC4F1282809199068130C6
:10148000B1F480915604811112C0E091540489E0B6
:10149000E89FF0011124ED53FC4FC181C350D0816E
:1014A0006C2F8D2F0E944A10882309F401C180916E
:1014B0009A06813009F00CC11092B20383E006C194
:1014C00080915A04811106C088E080935B041092D9
:1014D000B20313CF0E94002C25E130E040E050E041
:1014E0000E94572C6093A40282E005CF1092B203B1
:1014F000BCCE85E0C4CE8091B503833020F48F5FED
:101500008093B503D6CE9093B503D3CE8091590482
:10151000843010F48F5F01C082E080935904809181
:10152000B4039091590414C08330F1F49091B40342
:1015300080915904492F50E0282F30E02150310983
:101540004217530774F49F5F9093B4039091B403D0
:101550008913AFCE81508093B403ABCE8093C10387
:10156000A8CE1092B403F2CF843009F0A2CE8091BD
:10157000B303833020F48F5F8093B3039ACE9093AC
:10158000B30397CE8091B503823010F0815001C033
:1015900083E08093B503A9CE84E09ECE833009F525
:1015A0009091B403809159049923C1F09150909384
:1015B000B4039091B403981398CE81508093B403F0
:1015C00094CE813009F091CE8091C103823010F029
:1015D000815001C084E08093C10387CE8093B4031F
:1015E000E8CF843009F081CE8091B303823010F0CF
:1015F000815001C083E08093B30377CE8091980639
:10160000813009F07ACE8091B203853009F075CE31
:1016100071CE1092B20385CE9093B2038ECE84E049
:1016200080935B048FCE813009F495CE96CE809165
:101630009606813009F49DCE80919906813009F09B
:1016400047C097CE2A3008F0A6CE2F5F20935804CB
:101650003FC081508E3F08F002CFC091540489E012
:10166000C89FE0011124CD53DC4F188169816D5F63
:1016700084E0810F0E944A108111F1CE1F5F188310
:10168000EECE81508E3F08F0F8CEC091540489E030
:10169000C89FE0011124CD53DC4F1881115069819E
:1016A0006D5F812F0E944A108111E7CE1883E5CE2D
:1016B0006C2F83E08D0F0E944A108111F8CE85E0D7
:1016C0000E94681086E080935604F1CE80935B04FC
:1016D000DF91CF911F9108950F931F93CF93DF93C5
:1016E000FC01643508F044C0403308F041C090A1CB
:1016F000042F059505950595C62F062E000CDD0BCC
:10170000142F1770923039F4862F642F0E944A10DC
:101710008823F1F00CC0933041F484858170462712
:1017200040954170841303C013C0911111C084E52A
:101730000802C00DD11D1124CD57DB4F81E090E090
:1017400001C0880F1A95EAF78095988189230FC008
:1017500084E50802C00DD11D1124CD57DB4F81E077
:1017600090E001C0880F1A95EAF79881892B888349
:10177000DF91CF911F910F910895CF92DF92EF9259
:10178000FF920F931F93CF93DF936C017A018B012C
:10179000C0E0D0E0CE15DF0581F0D8016D918D015C
:1017A000D601ED91FC910190F081E02DC6010995E3
:1017B000892B11F02196EECF7E01C701DF91CF91E9
:1017C0001F910F91FF90EF90DF90CF9008950E94AE
:1017D000A02EDC01ED91FC910190F081E02D0994A7
:1017E0006115710579F0FB0101900020E9F731974F
:1017F000AF01461B570BDC01ED91FC910280F38198
:10180000E02D099480E090E008958F929F92AF922E
:10181000BF92EF92FF920F931F93CF93DF93CDB7B9
:10182000DEB7A1970FB6F894DEBF0FBECDBF7C0127
:10183000FA01CB0119A2223008F42AE08E010F5DD3
:101840001F4F822E912CA12CB12CBF01A501940118
:101850000E94892CF901CA01015011096A3014F45F
:10186000605D01C0695CD8016C93232B242B252B70
:1018700061F7B801C7010E94F00BA1960FB6F8946A
:10188000DEBF0FBECDBFDF91CF911F910F91FF90B3
:10189000EF90BF90AF909F908F900895833081F02C
:1018A00028F4813099F08230A1F008958730A9F0B2
:1018B0008830B9F08430D1F4809180008F7D03C0EE
:1018C000809180008F7780938000089584B58F7712
:1018D00002C084B58F7D84BD08958091B0008F775C
:1018E00003C08091B0008F7D8093B00008951F9356
:1018F000CF93DF93282F30E0F901E256F84F84911F
:10190000F901E657F84FD491F901EA58F84FC4911C
:10191000CC23C1F0162F81110E944E0CEC2FF0E069
:10192000EE0FFF1FEA55FF4FA591B4919FB7F894B2
:10193000111104C08C91D095D82302C0EC91DE2BFC
:10194000DC939FBFDF91CF911F910895CF93DF93D9
:1019500090E0FC01E657F84F2491FC01EA58F84F5B
:101960008491882361F190E0880F991FFC01E4566F
:10197000FF4FC591D491FC01EA55FF4FA591B49159
:10198000611109C09FB7F8948881209582238883CC
:10199000EC912E230BC0623061F49FB7F8948881DC
:1019A000322F309583238883EC912E2B2C939FBF6D
:1019B00006C08FB7F894E8812E2B28838FBFDF9164
:1019C000CF9108951F93CF93DF93182FEB0161E020
:1019D0000E94A60C209711F460E004C0CF3FD1050F
:1019E00039F461E0812FDF91CF911F910C94770C36
:1019F000E12FF0E0E256F84FE491E330F9F048F4DB
:101A0000E130B9F0E230A1F584B5806284BDC8BD93
:101A100034C0E730E9F0E83019F1E43049F580915D
:101A20008000806280938000D0938B00C0938A00F6
:101A300024C084B5806884BDC7BD1FC0809180006C
:101A4000806880938000D0938900C093880015C07F
:101A50008091B00080688093B000C093B3000DC047
:101A60008091B00080628093B000C093B40005C044
:101A7000C038D1050CF0B5CFAFCFDF91CF911F911A
:101A800008953FB7F8948091670490916804A091FD
:101A90006904B0916A0426B5A89B05C02F3F19F0D0
:101AA0000196A11DB11D3FBFBA2FA92F982F8827DE
:101AB000820F911DA11DB11DBC01CD0142E0660F39
:101AC000771F881F991F4A95D1F708958F929F928B
:101AD000AF92BF92CF92DF92EF92FF926B017C01A7
:101AE0000E94410D4B015C01C114D104E104F104D9
:101AF000F1F00E94410DDC01CB0188199909AA0976
:101B0000BB09883E9340A105B10570F321E0C21ADC
:101B1000D108E108F10888EE880E83E0981EA11C28
:101B2000B11CC114D104E104F10419F7DDCFFF9019
:101B3000EF90DF90CF90BF90AF909F908F900895DF
:101B40001F920F920FB60F9211242F933F938F93F2
:101B50009F93AF93BF938091730490917404A0916D
:101B60007504B09176043091660423E0230F2D377D
:101B700020F40196A11DB11D05C026E8230F029691
:101B8000A11DB11D20936604809373049093740487
:101B9000A0937504B09376048091670490916804D3
:101BA000A0916904B0916A040196A11DB11D8093B2
:101BB000670490936804A0936904B0936A04BF918A
:101BC000AF919F918F913F912F910F900FBE0F90EA
:101BD0001F90189550E0DA01AA0FBB1FA80FB91F7C
:101BE000D3963C91D397D4962C91D497E32FF22F90
:101BF000E60FF11DE60FF11D25913491AD58BF4F51
:101C00002D933C93F90165917491FC017089769F45
:101C1000602D1124840F951FFC01E558FF4F608350
:101C2000F901A591B4914B2F50E0E62FF0E04E174B
:101C30005F0720F4F90125913491632FFC01E158ED
:101C4000FF4F769F602D1124608308958091770463
:101C5000882319F080917F0401C080E0909178047E
:101C6000992319F090918004890F90917904992318
:101C700019F090918104890F90917A04992319F0B9
:101C800090918204890F8093B40008951F920F925F
:101C90000FB60F9211242F933F934F935F936F933F
:101CA0007F938F939F93AF93BF93EF93FF93609135
:101CB0007B04611102C080E023C0809162048F5FC9
:101CC0008093620490916B048917A8F39091770434
:101CD00081E08927809377041092620480916F04D9
:101CE000882369F08091000193E4899F802D11245D
:101CF000895B809300010E94582E90937F0481E0BD
:101D000060917C04662319F1909163049F5F909326
:101D1000630420916C049217D0F09091780481E0D4
:101D2000892780937804109263048091700488233B
:101D300069F08091000193E4899F802D1124895BD3
:101D4000809300010E94582E9093800481E060915E
:101D50007D04662319F1909164049F5F909364045D
:101D600020916D049217D0F09091790481E0892739
:101D7000809379041092640480917104882369F03F
:101D80008091000193E4899F802D1124895B8093C9
:101D900000010E94582E9093810481E060917E049E
:101DA000662319F1909165049F5F909365042091DB
:101DB0006E049217D0F090917A0481E08927809385
:101DC0007A041092650480917204882379F08091DE
:101DD000000193E4899F802D1124895B8093000189
:101DE0000E94582E9093820401C081110E94260EF9
:101DF000FF91EF91BF91AF919F918F917F916F91E3
:101E00005F914F913F912F910F900FBE0F901F90B8
:101E10001895EF92FF920F931F93CF93DF938C014E
:101E2000F62ED42FE22EC0E0CE1544F46F2D6C0FA9
:101E30004D2FC8010E946C0BCF5FF6CFDF91CF9181
:101E40001F910F91FF90EF900895DF92EF92FF9214
:101E50000F931F93CF93DF937C01D62FD22EC42FE5
:101E6000002E000C110B040F111D47FD1A958C2F2D
:101E70000C2E000C990B8017910744F42D2D4C2F3C
:101E80006D2FC7010E94090FCF5FF1CFDF91CF9176
:101E90001F910F91FF90EF90DF9008956F927F92C6
:101EA0008F929F92AF92BF92CF92DF92EF92FF926A
:101EB0000F931F93CF93DF93EC016A3011F42885C1
:101EC000A3C06D3009F4A7C0A98483E58A150CF47A
:101ED00085C0BA848FE28B150CF480C0D8848C81C5
:101EE00090E00197D89E9001D99E300D1124C90130
:101EF0008A0D911DA7FC9A95181619060CF06EC054
:101F00002D818B2D0B2C000C990BD29E800D911DD9
:101F10001124181619060CF061C088A09A2CCA2C3E
:101F2000E62EF12CEC2DEA190E2E000CFF0B8C8105
:101F300090E0E817F9070CF050C00197E817F9078F
:101F400079F0E89E9001E99E300DF89E300D112445
:101F5000E20FF31F8E8D9F8DE80FF91F149101C0C2
:101F600010E06B2C7B2C272D2B19022E000C330B31
:101F70008D8190E0281739076CF510FF11C081E0C2
:101F8000D81206C0472D6C2DCE010E946C0B1EC0CE
:101F90000D2D2D2D462D692DCE010E94250F16C029
:101FA00089A198A1891791F088A381E0D81206C071
:101FB000472D6C2DCE010E946C0B07C00D2D2D2DD1
:101FC000462D692DCE010E94250F88A21695739487
:101FD0006D0CC9CFC3949D0CA5CF88A228853C81E8
:101FE0008985239F800D112489879F81992399F0EA
:101FF000082E000C990B44E550E0239F401951092D
:102000001124481759073CF49D818A85299F800D2A
:1020100011248A87198681E090E0DF91CF911F918A
:102020000F91FF90EF90DF90CF90BF90AF909F9077
:102030008F907F906F900895EF92FF920F931F9370
:10204000CF93DF938C01D62FF42EE22EC0E0CE1575
:1020500044F44F2D4C0F6D2FC8010E946C0BCF5FC5
:10206000F6CFDF91CF911F910F91FF90EF900895E0
:1020700087E992E00E9424184091550450E04F5F98
:102080005F4F052E000C660B770B2AE083E497E088
:102090000C94050C8435D0F46033C0F4E62FE5953C
:1020A000E595E59594E5E902F0011124ED57FB4F24
:1020B000E80FF11D87FDFA95808190E0677002C0FE
:1020C000959587956A95E2F78170089580E0089567
:1020D000CF93DF9398E0899FE0011124FE01E95E30
:1020E000FE4F96819B3008F09AE09093F706C95E08
:1020F000DE4F40E0688188EA96E00E94EA0D8C811C
:1021000081959091B8062D81299F202D112420932F
:102110000307809307078A818A532B81299F202DEB
:10212000112420930B0780930F078F81298120931F
:10213000EF06899F802D11248093F30610923307B8
:1021400010922C0710922B0781E08093FB0680935E
:1021500077041092FF06DF91CF910895CF93DF931C
:102160001092B703C9E0D1E04091B703842F90E00B
:102170002091C10330915904239F900111248217AB
:102180009307BCF5C89FF001C99FF00D1124ED53D2
:10219000FC4F2381211127C02581211124C02091CA
:1021A0005404421304C02091560421111CC0D09342
:1021B0006307D0936407C89FF001C99FF00D1124F5
:1021C000ED53FC4F8781823031F0833061F44181DF
:1021D000435024E003C04181435022E0608183E406
:1021E00097E00E94090F8091B7038F5F8093B70338
:1021F000BBCFDF91CF910895CF93DF931092B703B8
:10220000C9E0D6E08091B70390E02091C1033091FE
:102210005904239F90011124821793070CF076C074
:10222000C89FF001C99FF00D1124ED53FC4F83812D
:1022300081110DC02481D29F9001112422543F4F5F
:102240004181608183E497E00E94E01659C060817B
:102250006F5F24E0418183E497E00E941C10E091CD
:10226000B703CE9FF0011124ED53FC4F84818130E0
:10227000D9F0B8F0823079F1833009F041C0418162
:102280004F5F608183E497E00E946C0BE091B7039D
:10229000CE9FF0011124ED53FC4F60816E5F4181B0
:1022A0002BC041814F5F10C023E04181608183E4F6
:1022B00097E00E94090FE091B703CE9FF00111242F
:1022C000ED53FC4F41814E5F23E0608183E497E052
:1022D0000E94090F15C04181608183E497E00E944C
:1022E0006C0BE091B703CE9FF0011124ED53FC4F2E
:1022F00041814F5F60816E5F83E497E00E946C0BC9
:102300008091B7038F5F8093B7037CCFDF91CF912C
:1023100008950F931F93CF93DF931092B7031CE0A0
:102320000AE0D6E08091B7038C3008F055C01092D7
:102330006104C0916104E091B703C53108F048C061
:102340001C9FD0011124AB55BD4FAE0FB11D8C9118
:10235000602F0E94582E9130F9F070F0923031F1D8
:10236000933091F5D89FA00111244E525B4F6E2FF0
:10237000660F660F21E023C0D89F900111242E52D2
:102380003B4F4E2F440F440F6C2F660F660F83E4B4
:1023900097E00E94E01618C0D89FA00111244E5269
:1023A0005B4F6E2F660F660F22E009C0D89FA00119
:1023B00011244E525B4F6E2F660F660F23E08C2F59
:1023C000880F880F0E94481CCF5FC0936104B1CF73
:1023D000EF5FE093B703A6CFDF91CF911F910F91ED
:1023E00008952F923F924F925F926F927F928F92B9
:1023F0009F92AF92BF92CF92DF92EF92FF920F9394
:102400001F93CF93DF93CDB7DEB72E970FB6F89417
:10241000DEBF0FBECDBF409175075091760760912A
:102420007707709178072FB7F89480917304909193
:102430007404A0917504B09176042FBF481B590B0A
:102440006A0B7B0B8091740790E0A0E0B0E00091F4
:1024500070071091710720917207309173078417EC
:102460009507A607B70730F40115110521053105B9
:1024700009F021C4012B022B032B09F01AC480910F
:102480009A0681508E3F20F580919906813001F5A2
:102490008091B9068F5F6091BA0687FD09C0082E4A
:1024A000000C990B70E06F5F7F4F0E94722E682FB7
:1024B0006093B90688E197E090937A078093790753
:1024C00088E480937B0760E085E097E00E94E31951
:1024D00080919A0681508E3F70F4809198068130E9
:1024E00009F04FC48BE097E090937A0780937907C7
:1024F00088E480937B0780E00E94151A81E00E94A7
:10250000151A82E00E94151A83E00E94151A23E82A
:1025100036E038872F8377E7C72E74E0D72E07EE93
:1025200016E0E3EDEE2EE6E0FE2E59013E872D8704
:10253000512C44244394AD85BE8599968C919997EE
:10254000882309F4ECC04D01B0E78B0E911CF40117
:1025500080818111E4C0D7012D913C91D801ED918A
:10256000FC91EE0FFF1FE20FF31F859194910097EE
:1025700021F5ED85FE85E05AFF4F8081882329F003
:10258000F80111821082F90116C0AD85BE859996B9
:102590001C92999795968C918823C1F1852D0E9464
:1025A000151AD801ED91FC91EE0FFF1FD7018D9107
:1025B0009C91E80FF91F85919491ED85FE85E05877
:1025C000FF4FFE83ED832D853E852C573F4F3A8389
:1025D0002983AD85BE85A857BF4FBC83AB83ED85EE
:1025E000FE85E457FF4FFA87E9872D853E85205702
:1025F0003F4F3C872B872D843E8434E9230E311CCA
:102600006D847E84A4E76A0E711C2BC0852D0E9408
:10261000B91885C0BC0136E0769567953A95E1F723
:102620006F71892F86958695869580512F702230FF
:10263000B1F138F521111DC06B3008F06AE0F301EB
:102640006083D801ED91FC9111973196ED93FC9345
:10265000EE0FFF1FD7018D919C91E80FF91F859117
:1026600094919C01369527953695279580FDD2CF7C
:102670002DC0213031F7452D88EA96E00E94EA0D01
:10268000E0CF2330B9F02430E1F69091B806969F60
:10269000602D1124AB85BC856C93F10115C0909120
:1026A000B806969F602D1124AD81BE816C93E9819F
:1026B000FA810AC09091B806969F602D1124AB81D3
:1026C000BC816C93E985FA858083BBCFED85FE855F
:1026D000E459FF4F2F7320838091B806899F802D86
:1026E0001124F4018083ED85FE85E055FF4F1082B3
:1026F000F501E855FF4F11821082ED85FE85E858FF
:10270000FF4F4082D6014C92ED85FE85E458FF4F85
:102710001082F80180819181019691838083539486
:102720002D853E852F5F3F4F3E872D8732E0A30EDC
:10273000B11C8FEFC81AD80A0E5F1F4F92E0E90E46
:10274000F11CA4E05A12F7CEABE6AA2EA4E0BA2EF2
:10275000BBE7CB2EB4E0DB2E1FE7612E14E0712E19
:1027600003E317E08BE2E82E87E0F82E9FE6492E80
:1027700094E0592EE3E8F6E0FA83E983312CE9810D
:10278000FA81E858FF4F8081882309F42AC1E98142
:10279000FA81E059FF4F8081811104C0832D0E948E
:1027A000B9181FC181508083D8018C91E981FA81C9
:1027B000EC54FF4FFE83ED8329813A8128543F4F2B
:1027C000490181114CC0D7018D919C9101969C01CA
:1027D000220F331FEF81F885E856FF4F0190F081FB
:1027E000E02DE20FF31F45915491242F2770ED81C6
:1027F000FE812083BA01E3E076956795EA95E1F7DB
:102800009B0136952795352F36953695D4013C9307
:102810002F733091B806239F202D1124F8012083B7
:102820006170D2016C93F70191838083E981FA8111
:10283000E056FF4F208130E08217930780F0E98156
:10284000FA81EC55FF4F8081882331F0281B310934
:10285000D7012D933C9303C0832D0E94B918F80132
:10286000808181508083E981FA81E458FF4F808123
:1028700021E0280F2083E981FA81E459FF4F40814C
:10288000D4013C91340FE981FA81E45BFF4F8081F0
:10289000380FE981FA8135A7E857FF4F6081662339
:1028A00099F070E0822F022E000C990B0E94722E7C
:1028B000E981FA81E457FF4F8081869F300D112412
:1028C000A981BA819D963C93E981FA8185A590E022
:1028D000CB966BE370E00E94722E85A7EC58FF4FF9
:1028E0003081A981BA81D1963C93D197FD01E058FE
:1028F000FF4F60816623A1F0062E000C770B822F1C
:10290000022E000C990B0E94722EE981FA81EC577D
:10291000FF4F8081869F300D1124E981FA8131AB10
:10292000E981FA81E057FF4F60816623D1F0822F61
:10293000220F990B70E00E94722ECB0162E070E0D2
:102940000E94722EE981FA81EC56FF4F2081A98105
:10295000BA81D1969C91D197289F900D1124D19640
:102960009C93E981FA814F3359F081A98A300CF0A8
:1029700089E087FD80E0A981BA81D1968C9301C05E
:1029800011AAF894A981BA819D96EC91F0E0E653E2
:10299000F94FE491D501EC93E981FA8131A9E4542E
:1029A000FF4F2081AD81BE814C91320390011124F3
:1029B0004203C001439F900D11240090B90602C04C
:1029C000880F991F0A94E2F797FF02C081589F4F22
:1029D000880F892F881F990BF6018083D3018C9370
:1029E00078943394E981FA813196FA83E983FFEF91
:1029F000AF1ABF0A2FEFC21AD20A3FEF631A730A47
:102A00000F5F1F4F82E0E80EF11CAF81B885129670
:102A1000B887AF83BFEF4B1A5B0AE4E03E12AFCE3C
:102A200080917B07882309F489C08C3020F4FCE076
:102A3000F81BF98301C01982FF24F394F0924B072D
:102A40001092630710926407209148072B83198125
:102A5000121B022F0D5F4DE2410F2EE463E083E471
:102A600097E00E94250F3B8134503B83105D232F5C
:102A700041E0612F80E50E947F192B8142E0612FA8
:102A800083E00E947F19F0926307F092640700913F
:102A900048071981101B8DE2810F8B832EE4482F8C
:102AA00063E083E497E00E94090F83E0800F9B813D
:102AB000980F9B83492F41502EE463E083E497E015
:102AC0000E94090F0350105D202F412F60E083E426
:102AD00097E00E941C10202F412F63E583E497E0CC
:102AE0000E941C1041E0612F83E00E94001942E027
:102AF000612F80E50E940019AB81A450AB8344E0B4
:102B00006A2F80E50E94001948E06B8183E00E94F3
:102B1000001984E080934C0780914807B981B81B65
:102B2000B15DB0934D078091790790917A070E942B
:102B3000DF1880917B07815080937B0780919F06EF
:102B40009091A006892B09F48CC081E080936307E3
:102B5000109264079091470785E5891B80934C0785
:102B600010924D0760919C06613009F45BC030F013
:102B700080919B06653008F06DC068C00CEA16E0D5
:102B8000198289810E94B918F80111928F01F98187
:102B9000FF5FF983F430A9F781E080934B07E8E405
:102BA000F5E0E491EF5FE0934707E9E4F5E0E491B5
:102BB000EF5FE09348078AE495E090936207809383
:102BC00061071092A00610929F061092490728EA0A
:102BD00029830E94F1118823E1F38AE395E00E94A2
:102BE000DF1840919D0650919E0660E070E02AE05B
:102BF00083E497E00E94050C85E295E00E94DF18CF
:102C0000698162956F7070E083E497E00E942918F3
:102C10008AE195E00E94DF1880919806813009F0E2
:102C200094C01FC08091660790916707A0916807C4
:102C3000B09169078F709927AA27BB270897A1052C
:102C4000B10510F467E009C068E707C0882349F0C0
:102C50006B5F03C0882329F06FE283E497E00E9452
:102C6000E90B0E947E188091490781110EC088EF00
:102C700091E0E3E8F4E0DF019C011D922150304037
:102C8000E1F710924C0710924D070E94410D60939E
:102C90007007709371078093720790937307209168
:102CA0006C0730916D07621B730B70936B07609319
:102CB0006A0780E06CC02FB7F894809173049091FC
:102CC0007404A0917504B09176042FBF209174070D
:102CD000820F911DA11DB11D8093750790937607FA
:102CE000A0937707B0937807809166079091670764
:102CF000A0916807B09169070196A11DB11D80934D
:102D0000660790936707A0936807B09369071092CE
:102D100070071092710710927207109273070E9449
:102D2000410D60936C0770936D0780936E079093CD
:102D30006F070E945C1A80919F069091A006892BD4
:102D400011F00E94EC1A81E022C0398131503983A0
:102D500031113FCF60E070E08FEF0E94E20C83B74B
:102D6000817F846083BF83B7816083BF83B78160C5
:102D700083BF889583B78E7F83BF83B78E7F83BFE2
:102D800028CF893209F0B7CB0E94B71AB4CB2E9660
:102D90000FB6F894DEBF0FBECDBFDF91CF911F916C
:102DA0000F91FF90EF90DF90CF90BF90AF909F90EA
:102DB0008F907F906F905F904F903F902F900895ED
:102DC0002F923F925F926F927F928F929F92AF92DB
:102DD000BF92CF92DF92EF92FF920F931F93CF9308
:102DE000DF93EC01F901E4903196849164350CF0A5
:102DF00019C10E2C000CFF08062F062E000C110B1B
:102E0000F701E00FF11F1E161F060CF00BC1403337
:102E10000CF008C1A82FC42E042E000CDD085601AA
:102E2000A80EB11C87FDBA941A141B040CF0FAC04A
:102E30002E5F3F4F570197E0A90EB11CB7FE04C0AB
:102E40005701BEE0AB0EB11CB3E0B594A794BA95A0
:102E5000E1F747FF0AC0A42FA80FAC9CC001AD9CAE
:102E6000900D1124281B390B40E08A2F0A2E000CEC
:102E7000990B840F911D47FD9A95C19714F0A0E31B
:102E8000A41BF8A067FD60E0E535F10514F0E4E56A
:102E9000F0E09E2FCC85C427C62E062E000CDD0840
:102EA000F601E01BF10B8F014F01F7E08F2299240F
:102EB000E0E8F0E002C0F595E7958A94E2F77E2F0E
:102EC00017FF02C0095F1F4FF3E015950795FA95AC
:102ED000E1F7200F311F542F577081E001C0880F98
:102EE0005A95EAF7459545954595F601B4E54B02A7
:102EF000E00DF11D1124AF014D575B4FD0E02A2E9C
:102F0000AA0F3308EE24E394BB24ED2FF0E0E21582
:102F1000F3050CF087C0F9015490F1E0FF121AC0DC
:102F2000962E8A01E72F6901991608F072C08E2E3D
:102F3000852021F0D8018C90882A8C92E69531F476
:102F4000BFEFCB1ADB0AF6015490E0E893940F5FD1
:102F50001F4FEACFF1101CC0782E7094962E8A0174
:102F6000E72F6901991608F054C08E2E852021F0B4
:102F7000D8018C9087208C92E69531F4BFEFCB1A64
:102F8000DB0AF6015490E0E893940F5F1F4FEACFFD
:102F9000F3E0FF1629F0962E8A01E72F690137C06A
:102FA000682E6094862E8A01972E69018916D8F4BE
:102FB000E92DE52159F0D801EC91782C7C2670FEA2
:102FC00002C0E82B02C0E621D801EC93969439F4B4
:102FD000BFEFCB1ADB0AF6015490E0E89E2E8394F3
:102FE0000F5F1F4FE3CFCE2514C08E2E852021F01A
:102FF000D8018C9088268C92E69531F4BFEFCB1ADD
:10300000DB0AF6015490E0E893940F5F1F4F991686
:1030100060F3880F19F44C5A5F4F81E0DF5F2A0D8F
:103020003B1D73CFDF91CF911F910F91FF90EF90D8
:10303000DF90CF90BF90AF909F908F907F906F90D8
:103040005F903F902F900895BC0183E497E00C942B
:10305000F00BCF92DF92EF92FF920F931F93CF93DB
:10306000DF936B01770FEE08FF08F7FE1BC0EC0142
:103070006DE20E94E90B8C0144275527BA014C19D7
:103080005D096E097F092AE0CE010E94050C800FC0
:10309000911FDF91CF911F910F91FF90EF90DF90E3
:1030A000CF9008952AE0B701A601DF91CF911F913B
:1030B0000F91FF90EF90DF90CF900C94050CCF9381
:1030C000C82FF89460E0809152070E94770C80919D
:1030D000530718161CF460E00E94770CCEBD000068
:1030E0000DB407FEFDCF8EB58091530718161CF462
:1030F00061E00E94770C7894CF9108950F931F930D
:10310000CF9380914F078F5F80934F0703E814E0C0
:10311000C0E08C2F80640E945F1880E80E945F18D6
:1031200061E0809152070E94770C80915307181636
:103130001CF460E00E94770CF80184E591919EBD3B
:1031400000000DB407FEFDCF9EB58150B9F7809108
:10315000530718161CF461E00E94770CCF5F0C5ADD
:103160001F4FC630B1F680E4CF911F910F910C94A0
:103170005F18843018F590E09C012D57394FF90104
:10318000E858FF4F108238971082FC01EE0FFF1FA6
:10319000EA5FF84F16A215A2F901E458FF4F10821A
:1031A000FC01E158FB4F1082FC01E558FB4F1082F7
:1031B000FC01E958FB4F10820C94260E08950F93E2
:1031C0001F93CF93DF938C01C0E0D0E0F801EC0FA8
:1031D000FD1F6491662371F0E0914307F09144076D
:1031E0000190F081E02D83E497E00995892B11F09F
:1031F0002196ECCFCE01DF91CF911F910F910895D1
:10320000AF92BF92CF92DF92EF92FF920F931F93F4
:10321000CF93DF93182F062FC1E0D3E08AEFD82E8B
:103220009EEFE92E842F8470C82E842F8270B82ED2
:10323000842F8870A82E4170F42E8C2F880F8F5FFA
:10324000E80ECC2081F0402F4D0F612F6C0F83E4EE
:1032500097E00E946C0B402F4C0F6D2F610F83E4A1
:1032600097E00E946C0BBB2081F0402F4D1B612F1B
:103270006C0F83E497E00E946C0B402F4C1B6D2F6A
:10328000610F83E497E00E946C0BAA2081F0402F2D
:103290004C0F612F6D1B83E497E00E946C0B402F55
:1032A0004D0F612F6C1B83E497E00E946C0BF110B3
:1032B0000AC0CD17CCF4E7FC04C0D150D394D3940A
:1032C000ED0CCF5FBACF402F4C1B612F6D1B83E4F9
:1032D00097E00E946C0B402F4D1B612F6C1B83E409
:1032E00097E00E946C0BE5CFDF91CF911F910F917A
:1032F000FF90EF90DF90CF90BF90AF9008959F9296
:10330000AF92BF92CF92DF92EF92FF920F931F93F3
:10331000CF93DF93F82EE62EB22E13E0120FD0E0FB
:10332000C3E08AEFC82E0EEF842F8170982EAA2456
:10333000A394A20E4270D42EDF5F812F8B19080F49
:103340009920A1F02C2F220F2A0D4E2D4C1B6D2FF2
:103350006F0D83E497E00E941C10212F4E2D4D1B12
:103360006C2F6F0D83E497E00E941C10D1100AC0EF
:10337000DC17ECF407FD04C0C150C394C3940C0DDA
:103380001E5FDACF2C2F220F2A0D4E2D4C1B6F2DD6
:103390006D1B83E497E00E941C10212F4E2D4D1BC6
:1033A0006F2D6C1B83E497E00E941C10E1CFDF912E
:1033B000CF911F910F91FF90EF90DF90CF90BF9032
:1033C000AF909F9008950F931F93CF93DF938C013D
:1033D000862FC62FD0E0643030F40E94B918FE0169
:1033E000ED57F94F11A6CE01880F991F8D57994FB0
:1033F000FC01BB9616A305A3749616A215A2FE01A6
:10340000ED57F94F81E081A7DF01AC58BF4F89E04C
:103410008C931C961C9218961C92E057FF4F1082BA
:10342000DF91CF911F910F910895CF93DF93682F74
:10343000A82FB0E0ED01CD57D94F8DA1882309F415
:1034400038C089A5811135C0FE01E05CFF4F808145
:10345000AA0FBB1FAD57B94FD8962C91D897D996C4
:103460009C91D997E22FF92FE80FF11DE80FF11D7C
:10347000259134912F3F8FEF380711F41DA219C009
:10348000FE01E45BFF4F30835F963327220F331F2B
:103490009596ED91FC919697E20FF31F859194918B
:1034A000643010F40E94E319C05CDF4F88818F5FA5
:1034B0008883DF91CF910895DF92EF92FF920F936F
:1034C0001F93CF93DF93C3E8D6E00AE816E0EE241B
:1034D000EA9462E08A850E94A60C2A8530E0F90110
:1034E000E256F84F8491F901E657F84FF490F9014C
:1034F000EA58F84FD490DD2071F081110E944E0CF3
:10350000ED2DF0E0EE0FFF1FE459F84FA591B491B7
:10351000EC91FE2299F489898F5F898B60E08A851E
:103520000E94A60C21960C171D0799F6DF91CF91EA
:103530001F910F91FF90EF90DF9008958989882364
:1035400089F38F3F11F4198AE9CFE98AE7CFCF9346
:10355000DF930E94DF18EC0169E972E083E497E0F1
:103560000E94F00B8C0F9D1FDF91CF91089588EF83
:1035700091E0E3E8F4E0DF019C011D92215030402E
:10358000E1F710924C0710924D0784E497E00E94F7
:10359000DF180E947E188CB583608CBD8DB58E7F40
:1035A0008DBD8CE992E0EEEFFFE30995109249079B
:1035B0008FE197E00E94A71A0E947E180E945C1A71
:1035C00080919806813039F062E370E080E090E00D
:1035D0000E94660DF3CF0895CF93C091A7068C2F5C
:1035E0008F71E1F583E480937C0080917A008064A0
:1035F00080937A0080917A0086FDFCCF60917800FC
:103600008091790070E0782B072E000C880B990BC5
:103610000E945F2D26EE3FE34EEC50E40E94EB2D1E
:103620000E942E2D9B0170939E0660939D06672B32
:1036300091F084E080939C06EFE9F6E080E0419110
:1036400051912417350718F480939C060AC08F5FA8
:103650008430A9F703C08FEF80939C06CF5FC0939F
:10366000A706CF910895CF92DF92EF92FF920F932A
:103670001F93CF93DF9380916507882309F4CAC015
:1036800081E080934B0710924A07109249071092ED
:103690009B068093630780936407CBE7D9E01CE027
:1036A0000E94F1118823E1F3FE018491882319F02F
:1036B0000091480701C000E02EEC37E040E060E0F8
:1036C00083E497E00E94E0164CE0400F2EE338E0E0
:1036D00060E083E497E00E94E01610924C0710939C
:1036E0004D078BE799E00E94DF1880914707982FDC
:1036F000990F890F81958D5A80934C0780914807C7
:10370000982F990F890F8195835D80934D07809144
:10371000660784FF03C08AEC97E002C086EC97E05E
:103720000E94A71A80914707982F990F890F8195BA
:103730008D5A80934C0780914D078F5F80934D0782
:103740008091B906882319F082EC97E002C08EEBD5
:1037500097E00E94A71A80914707982F990F890F29
:1037600081958D5A80934C0780914D078F5F809390
:103770004D078AEB97E00E94A71A80919906813045
:10378000B9F48091B9068F5F6091BA0687FD09C0D0
:10379000082E000C990B70E06F5F7F4F0E94722E15
:1037A000682F6093B90660E085E097E00E94E31916
:1037B000809198068130A9F080916507482F50E0EC
:1037C00060E070E0C0906607D0906707E0906807FF
:1037D000F0906907C416D506E606F70698F08F3F05
:1037E00089F08FEF8093650780E00E94B9181092EE
:1037F000AC0660E082EB97E00E94E31981E08093E1
:103800009B0608C080919A06813009F049CF0E943A
:10381000B71A46CFDF91CF911F910F91FF90EF9094
:10382000DF90CF9008950F931F93CF93DF93C82F0E
:10383000162FD42F022F242F462F682F83E497E0D2
:103840000E94090F4FEF400F410F2D2F6C2F83E483
:1038500097E00E94090F202F412F6C2F83E497E0FF
:103860000E941C106FEF6D0F6C0F202F412F83E40F
:1038700097E0DF91CF911F910F910C941C10482F6E
:1038800050E060E070E02AE083E497E00C94050CDF
:103890002F923F924F925F926F927F928F929F9260
:1038A000AF92BF92CF92DF92EF92FF920F931F934E
:1038B000CF93DF93CDB7DEB727970FB6F894DEBF6F
:1038C0000FBECDBF21111FC09A01462F682F83E480
:1038D00097E027960FB6F894DEBF0FBECDBFDF91FD
:1038E000CF911F910F91FF90EF90DF90CF90BF90FD
:1038F000AF909F908F907F906F905F904F903F9090
:103900002F900C94E0168A016C838B83FA016490EB
:10391000319684918A83E62CF12C170197E0290EC9
:10392000311C93E0359427949A95E1F7237029830D
:103930006A94712C20E8C22ED12CA82EB12C872D90
:10394000072C000C990B8E159F050CF05CC07D8236
:1039500077FE03C0E7E0E70DED83FD81F595F59572
:10396000F595FD83872D877887FF03C08150886F89
:103970008F5F460102C0959487948A95E2F74A804A
:103980004A94512C8D81082E000C990B02969F832E
:103990008E83852D052C000C990B8A159B0584F5CB
:1039A000289EF001299EF00D389EF00D11248E8185
:1039B0009F81E80FF91FE00FF11FE491F0E0E8218B
:1039C000F921EF2BD1F09981923039F0933041F009
:1039D000913049F4462D652D08C0662D442D05C053
:1039E000642D472D02C0452D672DEB816E0FFC81A4
:1039F0004F0F83E497E00E946C0B53944A94C9CF15
:103A000073946A949CCF27960FB6F894DEBF0FBECE
:103A1000CDBFDF91CF911F910F91FF90EF90DF907D
:103A2000CF90BF90AF909F908F907F906F905F905E
:103A30004F903F902F9008959F92AF92BF92CF9258
:103A4000DF92EF92FF920F931F93CF93DF93C82FD4
:103A5000D62F042FE22E022E000CFF08E61AF108E2
:103A600067FDF394F7FE03C0F194E194F108C02ED2
:103A7000002E000CDD08CC1AD108C7FDD394D7FE68
:103A800003C0D194C194D108CE14DF0434F4802F44
:103A9000022F282F8C2FCD2FD82F0C1734F48D2FD9
:103AA000D22F282F8C2FC02F082FA02EAC1A822F98
:103AB000022E000C990B8D1B9109D7FD939597FF52
:103AC00003C0919581959109B82E1A2DA7FE02C0C9
:103AD00011E01A0D1595D2171CF099249A9402C082
:103AE000992493940C179CF0CE14DF041CF44C2FF3
:103AF0006D2F02C04D2F6C2F83E497E00E946C0B5A
:103B00001B1917FF02C0D90D1A0DCF5FEBCFDF9144
:103B1000CF911F910F91FF90EF90DF90CF90BF90CA
:103B2000AF909F900895CF93DF93BC0183E497E01B
:103B30000E94F00BEC0169E972E083E497E00E94D7
:103B4000F00B8C0F9D1FDF91CF910895CF93DF93E2
:103B5000CDB7DEB76D970FB6F894DEBF0FBECDBF01
:103B6000789484B5826084BD84B5816084BD85B558
:103B7000826085BD85B5816085BD80916E00816064
:103B800080936E001092810080918100826080930A
:103B9000810080918100816080938100809180000C
:103BA0008160809380008091B10084608093B10037
:103BB0008091B00081608093B00080917A00846031
:103BC00080937A0080917A00826080937A0080915D
:103BD0007A00816080937A0080917A008068809377
:103BE0007A001092C10082E38093740781E090E034
:103BF000A0E0B0E08093700790937107A0937207E4
:103C0000B09373078FEF80936507E0E8F7E725919E
:103C100034912130304C09F049C0E6E9F7E7E491EE
:103C2000E0934E07E7E9F7E7E491E0938706E8E9D8
:103C3000F7E7E491E0938806E9E9F7E78591949145
:103C400090938A0680938906EBE9F7E78591949132
:103C500090938C0680938B0687E08093BA06EEE9FA
:103C6000F7E7E491E093B906EFE9F7E7E491E09331
:103C70006507E0EAF7E7859194919093A006809319
:103C80009F06E2EAF7E7859194919093A2068093CC
:103C9000A106E4EAF7E7859194919093A4068093B6
:103CA000A306E6EAF7E7859194912CC09CE39093F4
:103CB0004E07109287068093880680E293E09093E7
:103CC0008A068093890684ED93E090938C06809316
:103CD0008B0687E08093BA068093B9068CEA9DE054
:103CE0009093A00680939F068EED9DE09093A20690
:103CF0008093A10684E79EE09093A4068093A30698
:103D00008CE39FE09093A6068093A5066FEF70E08A
:103D10008FEF0E94E20C88E080938D0689E080930B
:103D20008E0687E080938F0686E08093900614E0ED
:103D30001093910682E08093920685E0809393062B
:103D40000E945C1A8CE39FE090939E0680939D06F0
:103D500010939C0681E08093A7069BE09093510707
:103D60009DE09093500790E1909352079EE09093CE
:103D700054079FE09093530780934B07809363070A
:103D80001092640780934A07E8E4F5E0E491EF5F5E
:103D9000E0934707E9E4F5E0E491EF5FE09348073B
:103DA0008AE495E090936207809361071FB7F894C7
:103DB00080915C04811127C0E0E8F7E08491E4E998
:103DC000F7E09491E82FF0E0EE0FFF1FE456FF4F6D
:103DD000A591B491EC91E92321F461E08AE00E947D
:103DE000770C61E08AE00E94A60C8CB580618CBDE6
:103DF0008CB580648CBD61E08DE00E94A60C61E012
:103E00008BE00E94A60C80915C048F5F80935C0421
:103E10001FBF8CB58F7D8CBD8CB58C7F81608CBDB8
:103E20008DB581608DBD8CB58C608CBD61E080915D
:103E300051070E94A60C61E0809150070E94A60CD9
:103E400061E0809152070E94A60C809154071816D9
:103E50001CF461E00E94A60C8091530718161CF414
:103E600061E00E94A60C80915407181674F460E07B
:103E70000E94770C6AE070E080E090E00E94660D9E
:103E800061E0809154070E94770C80915007082EC2
:103E9000000C990BFC01EA58F84FE491F0E0EE0FAA
:103EA000FF1FEA55FF4F2591349130935807209317
:103EB0005707FC01E657F84FE491E0935E078091C5
:103EC0005107082E000C990BFC01EA58F84FE491B9
:103ED000F0E0EE0FFF1FEA55FF4F2591349130932C
:103EE000560720935507FC01E657F84FE491E093FD
:103EF0005D0780915307082E000C990BFC01EA58CE
:103F0000F84FE491F0E0EE0FFF1FEA55FF4F2591C7
:103F1000349130935A0720935907FC01E657F84F24
:103F2000E491E0935F0780915207082E000C990BF3
:103F3000FC01EA58F84FE491F0E0EE0FFF1FEA555C
:103F4000FF4F2591349130935C0720935B07FC0170
:103F5000E657F84FE491E093600781E20E945F1812
:103F600084E10E945F1880914E0787FF03C08FE7AE
:103F700080934E0780914E0780680E945F1880E210
:103F80000E945F188CE00E945F180E947E1881E0FA
:103F90008093B806FFE3CF2EF7E0DF2EABEDEA2EDD
:103FA000A6E0FA2E10E001E0B8E9AB2EB0E0BB2E9F
:103FB000D6010D936D01F701A192B1927F01412FBE
:103FC00060E088EA96E00E94EA0D1F5F143081F7F6
:103FD00061E070E083E00E94E20C8091B100887F94
:103FE00081608093B100F89410928000109281005B
:103FF000109285001092840088E191E090938900EE
:1040000080938800809181008860809381008091F6
:10401000810081608093810080916F008260809335
:104020006F00789480919F069091A006892B11F0E3
:104030000E94EC1A80919906813011F00C942D2B7E
:104040001092B9060E94331B10929B0611E0109348
:104050005B0410925A048AE18093B60384E1809352
:1040600053041092B20310925F040E94002C25E1C9
:1040700030E040E050E00E94572C6093A40282E0C0
:104080008093590483E08093C1031093B403809319
:10409000B5031093B303E9E02E2E1CE00E94F1114A
:1040A000882311F40C94232B10929B06E0915B045F
:1040B0008E2F90E0FC013197EB30F10510F00C945D
:1040C000232BEC5CFF4F0C94862E0E94CB08709043
:1040D0005A048BEA789E812D11248695F1E18F9FF9
:1040E000C00111244D9764F0872D90E0039763E0A1
:1040F00070E00E94722E81E1689F602C11240FC035
:104100002EE047E167E083E00E94131C22EB34E0DD
:1041100049E064E083E497E00E94E016612C10928D
:10412000B70361E1462E7BE1372E872C912CF0906E
:10413000B7038091B603F816F0F5AF2CB12C6501EA
:104140002FEFC21AD20AC60163E070E00E94722EFD
:10415000649D002D1124061958E0552E500E33E6AB
:10416000351528F1839DE02C11242EE047E167E00E
:10417000600F83E08E0D0E94131C46E24A9D900161
:104180004B9D300D11242A523F4F64E06E0D452D9A
:1041900083E497E00E94E016C814D90441F466E075
:1041A000600F20E149E182E08E0D0E94131CF39420
:1041B000F092B703BCCF109263071092640706E039
:1041C00024E540E060E083E497E00E94250F81E071
:1041D000809363078093640771100FC08BE1809315
:1041E0004C0783E591E00E94241820E149E166E054
:1041F00082E00E94131C0C94232B8CE180934C07CB
:104200008CE591E00E94241880915A040E943F1C82
:104210000C94232B81E080939B0610924D078CE138
:1042200080934C0783E591E00E9424186CE0609332
:104230004D0700E100934C0783E691E00E942418AB
:10424000809159040E943F1C8EE691E00E94241840
:1042500082E180934D0700934C0780E791E00E9434
:1042600024188091C1030E943F1C8EE691E00E94B9
:10427000241888E180934D0700934C078BE791E069
:104280000E9424188091B5030E943F1C8EE691E0A5
:104290000E9424188EE180934D0700934C0786E816
:1042A00091E00E9424188091B4030E943F1C8EE686
:1042B00091E00E94241884E280934D0700934C07FC
:1042C00081E991E00E9424188091B3030E943F1C71
:1042D0008EE691E00E9424188AE280934D070093B5
:1042E0004C078CE991E00E9424188091B203482F7A
:1042F000440F480F440F435FD7C120915A04FF2455
:10430000FA94F20EF0926004109263071092640720
:104310000CE025E140E060E083E497E00E94250F97
:1043200081E080936307809364072EE047E160E0BB
:1043300080E00E94131C76E2F79E900111242A521D
:104340003F4F41E061E083E497E00E94E01620E007
:10435000822F90E0E1E0F0E0EC0FFD1FE80FF91F85
:10436000880F991F880F991F65E170E00E94722ED7
:1043700080832F5F253161F72093C2030E94002CB8
:1043800025E130E040E050E00E94572C1092C2033B
:1043900020E070E045E150E0461B570B822F90E093
:1043A0002F5F841795079CF4E1E0F0E0EC0FFD1F10
:1043B000E80FF91F3081860F971FA1E0B0E0AC0F26
:1043C000BD1FA80FB91F8C9180833C93E7CF10923B
:1043D000C203992493942AE0522E3BE0632E8090EE
:1043E000C203A82CB12CF090C103E09059042E2DEB
:1043F00030E0FE9CC0011124A816B9060CF072C072
:104400002A9CF0012B9CF00D1124ED53FC4F1382DC
:104410008091B5038783882D6F2D0E94582E848349
:104420001582168290E04091B403241B3109821753
:1044300093070CF096822A9CC0012B9C900D1124AE
:10444000DC01AD53BC4F7D0118961C921897E1E03A
:10445000F0E0EC0FFD1FEA0DFB1D7080872D880F2B
:10446000880FFD01819301E0070D70FC1FC01196BC
:104470001C926F01F6014080FAE0F41514F40C94DC
:104480005D2B33243394340C632D802F0E944A100B
:1044900081110C94432B62E0640D802F0E944A101E
:1044A000813011F00C94432B0C94472B11965C92A5
:1044B0006F01F6014080141414F00C94742B61E029
:1044C000640D802F0E944A1081110C94692B62E0C8
:1044D000640D802F0E944A10813011F00C94692BDA
:1044E0000C946E2B81E08093C203772473940CE3C9
:1044F000D090C203FCE0FD1508F481C07092B803AF
:10450000BB24B394BD0C88248A948D0CC090B8034E
:1045100025E12C1508F470C06D2D8C2D0E944A10D9
:10452000882319F01092A90302C00093A9039924CB
:104530009A949C0C682D892D0E944A10882319F0AA
:104540001092AA0302C00093AA03682D8C2D0E942A
:104550004A10882319F01092AB0302C00093AB03FA
:10456000AA24A394AC0C682D8A2D0E944A1088239B
:1045700019F01092AC0302C00093AC036D2D892D8D
:104580000E944A10882319F01092AD0302C00093D4
:10459000AD036D2D8A2D0E944A10882319F01092C8
:1045A000AE0302C00093AE036B2D892D0E944A100A
:1045B000882319F01092AF0302C00093AF036B2D54
:1045C0008C2D0E944A10882319F01092B00302C06B
:1045D0000093B0036B2D8A2D0E944A10882319F096
:1045E0001092B10302C00093B103682D892D0E947F
:1045F000ED04A092B8038ACFB092C20379CF109293
:104600006307109264070EE027E140E060E083E476
:1046100097E00E94250F81E08093630780936407F1
:104620001092580484E0809357041092560410921C
:10463000550410925404809153048093CB0380E07E
:104640008E1550F4E82FF0E0EE0FFF1FE754FC4FFB
:10465000F08211828F5FF4CF8093C2038AE02BC770
:1046600010924D078CE180934C0781EA91E00E9403
:1046700024188FE080934D0700E100934C0787EAF0
:1046800091E00E94241889E180934D0700934C0724
:1046900084EB91E00E9424184091B203440F842FD0
:1046A000880F880F480F405F2EEB30E06BE083E40B
:1046B00097E00E94E016C5C70E9489110E94FC1075
:1046C0000E94AE1080915804811102C00E943810DF
:1046D00010925E041092B70388248394B090B703BD
:1046E0002B2D30E08091C10390915904899FC00126
:1046F0001124281739070CF041C0229EC001239EC7
:10470000900D1124BC016D537C4F7B01DB01189689
:10471000DC901897DD2071F180925E048D2D8370FE
:1047200011960C911197081BCC90992493949C0C92
:104730004AEF400F22E0692D83E497E00E941C10AD
:104740008DEFA82EA00E4A2D6C2D83E497E00E94D9
:104750006C0B4EEF400F692D83E497E00E946C0BC9
:1047600062E06C0D4A2D83E497E00E946C0BDA94B2
:10477000F701D086B394B092B703B0CF80915E04B6
:10478000811161C784E097C60E9489110E94FC10C4
:10479000E09154042E9EF0011124ED53FC4F8681CC
:1047A000811103C00E94CB0877C180915F048823E8
:1047B00011F081502BC18091A80381110BC110927F
:1047C000C2032F013F01F4E06F0E711C92012E5FB6
:1047D0003F4F3D8F2C8F0091C203023008F0F2C092
:1047E00088E08093B803902E990C9A94B2016F5F81
:1047F0007F4F7B8F6A8FD090B803DD2009F4DEC035
:104800001092A5038D2D90E0DC01A25FBE4FBF8BFF
:10481000AE8BFC01EB5FFE4FF98FE88FF090A503A4
:10482000F9E0FF1508F4C6C010925D04AE89BF8997
:104830008C913AE0632F0E94642E282FF201808130
:1048400091E0900F890F299D800D11248093A10381
:10485000AA8DBB8D8C918F5F820F8093A203E88D10
:10486000F98D8081632F0E94642E9F2D9695899FDC
:10487000802D1124899D802D11248093A303299FCD
:10488000202D11242093A403F02FF1708F2EEE24FD
:10489000E39480915D04811189C01092B703B4E163
:1048A0003B2EA090B7032A2D30E08091C103909158
:1048B0005904899FC00111242817390754F7229EF3
:1048C000F001239EF00D1124ED53FC4F2081022EA8
:1048D000000C330BC090A1036C2D70E0C90104974C
:1048E000B090A203681779070CF440C00C968617A5
:1048F0009707E4F18181082E000C990B4B2D50E0B5
:10490000DC0114974A175B078CF11C96A417B507B6
:104910006CF1A381A1112AC0F481D301EC91FE179F
:1049200029F1E091A803E1111FC0EC8DFD8D80827B
:10493000D092A603F092A703F90132976E177F0772
:104940009CF02A5F3F4F2617370774F09C012250D6
:1049500031094217530744F006968417950724F04F
:10496000E092A80330925F04E0925D04F4E5FC1548
:1049700010F4E0925D0420E32B1510F4E0925D0446
:10498000C694C694B694B6941C9DF0011124EB55C0
:10499000FD4FEB0DF11D80818C3310F4E0925D042E
:1049A0000E941007A394A092B7037BCFF394F092D8
:1049B000A50334CFDA94D092B8031DCF0F5F0093D4
:1049C000C20309CF8091A803811161C081E0809367
:1049D000A8031BC080915704482F50E02091A603E4
:1049E000022E000C330B4217530799F0241735079A
:1049F00024F48150809357044AC08F5F80935704FA
:104A000090E02817390709F042C084E180935F04E1
:104A10003EC0209158048091A703281720F42F5FEF
:104A20002093580434C00281CA018B5F9E4FDC0181
:104A30008C913AE0632F0E94642E602F70E0660F25
:104A4000771F61507109869FF02C11249081A02F4F
:104A5000A90FAF5FAF0DA093A103425F5E4FDA01D4
:104A60008C91632F0E94642E91819F5F980F909389
:104A7000A2032695F29E602D11246093A303829FCA
:104A8000202D11242093A40385E080935B04809162
:104A90009A06813009F456C6809156048530C1F0DB
:104AA000863061F08430F9F4E09154042E9EF001D8
:104AB0001124ED53FC4F9181915013C0E0915404A7
:104AC0002E9EF0011124ED53FC4F9181935009C0AB
:104AD000E09154042E9EF0011124ED53FC4F91817E
:104AE0009250918333C6811131C680915604833030
:104AF00068F40E94C307E09154042E9EF001112433
:104B0000ED53FC4F838181110E946E07E0905804A1
:104B1000EE2009F444C0109263071092640704E089
:104B20002CE040E060E083E497E00E94250F01E084
:104B3000009363070093640740E060E083E497E03C
:104B40000E946C0B43E060E083E497E00E946C0BF2
:104B500040E06BE083E497E00E946C0B43E06BE085
:104B600083E497E00E946C0B0093B703F12C009153
:104B7000B703802F90E0E816F9069CF041E0602F23
:104B800083E497E00E946C0B42E0602F83E497E09F
:104B90000E946C0B61E0600F6093B703E8CF0E9446
:104BA00038100E94AE108091580481114CC580913C
:104BB0005604811148C51092630710926407E09172
:104BC00054042E9EF0011124ED53FC4FF18000811E
:104BD000E28041E04F0D602F6E0D6F5F83E497E040
:104BE0000E946C0BC0905704D12CF601E25FFE4F7F
:104BF00080813AE0732E672D0E94642E682F880F03
:104C0000770B880B990B0E945F2D20E030E040EC81
:104C10005FE30E94EB2D4B015C016F2DFF0C770BC6
:104C20006F5F7F4F072E000C880B990B0E945F2D42
:104C30009B01AC01C501B4010E94BB2C4B015C017E
:104C4000F12CF601EB5FFE4F8081672D0E94642EF0
:104C50009701220F331F21503109482F4203B00121
:104C6000439F700D1124072E000C880B990B0E9496
:104C70005F2D20E030E040EC5FE30E94EB2D2B0144
:104C80003C01B701600F711D07FD7A956F5F7F4F83
:104C9000072E000C880B990B0E945F2D9B01AC0125
:104CA000C301B2010E94BB2C6B017C01C501B401A0
:104CB0000E94272D062FC701B6010E94272D402FE5
:104CC00083E497E00E946C0B81E0809363078093FC
:104CD000640720E030E0A901C701B6010E94BB2CA7
:104CE0000E94272D762E20E030E0A901C501B401F5
:104CF0000E94BB2C0E94272D062F20E030E040E8C8
:104D00005FE3C501B4010E94BA2C0E94272D662ED4
:104D100020E030E040E85FE3C701B6010E94BA2C12
:104D20000E94272D862F262D472D602F0E941C1DA7
:104D300020E030E040E85FE3C501B4010E94BB2CF5
:104D40000E94272DB62E20E030E040E85FE3C70147
:104D5000B6010E94BB2C0E94272D862F2B2D472D9C
:104D6000602F27C180E00E9468100E9489110E9474
:104D7000FC100E9410070091A103053530F48091CA
:104D8000A2039FEC980F933318F40E946E074CC057
:104D9000E02FE695E6951E9FF0011124EB55FD4F9F
:104DA000982F96959695E90FF11D90819C3318F4F4
:104DB00096E090935B046091C10390915904699FC0
:104DC000B001112450915B0440E0E02FF0E090E04E
:104DD000242F30E0261737071CF5229ED001239E92
:104DE000B00D1124AD53BC4F2C91022E000C330B8F
:104DF000E217F3079CF02C5F3F4F2E173F0774F02C
:104E000011962C91022E000C330B8217930734F06D
:104E10002C5F3F4F281739070CF056E04F5FD8CF73
:104E20004093C20350935B04F090A2034F2D602F78
:104E300083E497E00E946C0BEE24E394E00E4F2D88
:104E40006E2D83E497E00E946C0BFA944F2D602F37
:104E500083E497E00E946C0B4F2D6E2DB6C081E06D
:104E60000E9468100E9489110E94FC1000915F044A
:104E70000F5F00935F04023009F453C038F400233D
:104E800009F443C0013009F440C0A4C0053009F45E
:104E90006FC0063009F490C0033009F09BC0109237
:104EA000630710926407F090A203CC24CA94CF0C3D
:104EB000E090A103DD24DA94DE0C02E022E04C2D28
:104EC0006D2D83E497E00E94250F82E080936307B5
:104ED000809364076EEF6F0D262F4E2D8D2D0E944F
:104EE0001C1D81E08E0D2F2D482F6C2D0E941C1D46
:104EF0008EEF8E0D2F2D482F6C2D0E941C1D61E012
:104F00006F0D262F4E2D8D2D54C082E080936307A8
:104F1000809364074091A20341506091A1036150C6
:104F200054C01092630710926407C090A203EE244D
:104F3000EA94EC0CF090A103DD24DA94DF0C4E2D02
:104F40006D2D83E497E00E946C0B00936307009340
:104F500064072EEF2C0D4D2D6E2D8EEF8F0D0E94C0
:104F60001C1D2C2D4D2D6E2D8F2D0E941C1D4EC0F5
:104F70001092630710926407F090A2030091A103BE
:104F80004F2D602F83E497E00E946C0B82E08093AA
:104F90006307809364072FEF2F0D402F6F2D8FEF46
:104FA000800F0E941C1D41E0400F61E06F0D2F2D0E
:104FB000802F0E941C1D47C382E08093630780936B
:104FC00064074091A2036091A10383E497E00E94EB
:104FD0006C0B39C30230D1F0073009F034C31092A2
:104FE0005F046091C10380915904689FB00111244E
:104FF0002091A10330E04091A20350E000915304BE
:10500000B0915804A0E0FF24F394F6C12091A303CB
:105010005091A1034091A2038091A40327FD79C080
:1050200087FD37C0352F36953695E32EF12CF701E5
:105030003197942F96959695692F70E01E9FD00119
:105040001F9FB00D1124AB55BD4FA60FB71FEC919C
:10505000EC3308F0DEC01E9DF0011F9DF00D112401
:10506000E60FF71FEC55FD4F00810C3308F0D1C05F
:10507000E22E220FFF08682F880F770B7595679532
:105080006E157F050CF07FC03150363108F0D1C06D
:10509000B6C0952F96959695E92EF12CF70131978C
:1050A000342F36953695632F70E01E9FD0011F9FD9
:1050B000B00D1124AB55BD4FA60FB71FEC91EC33CB
:1050C00008F0A7C01E9DF0011F9DF00D1124E60FF2
:1050D000F71FEA55FD4F00810C3308F09AC0E22E0D
:1050E000220FFF08C82EDD24C1940CF4D094B60121
:1050F000759567956E157F052CF49150963108F0E3
:1051000098C07DC0583508F094C03C3008F091C07C
:105110008EC087FD40C0352F36953695E32EF12C95
:10512000F7013196942F96959695692F70E01E9F02
:10513000D0011F9FB00D1124AB55BD4FA60FB71F57
:10514000EC91EC3308F065C01E9DF0011F9DF00D41
:105150001124E60FF71FEC55FD4F00810C3308F0CA
:1051600058C0622F772761950CF470957B01682FEA
:10517000880F770B759567956E157F0524F435318B
:1051800008F057C03CC0583508F053C091509D30CE
:1051900008F44DC04EC0D52ED694D694ED2CF12CEB
:1051A000F7013196042F06950695602F70E01E9F3B
:1051B000D0011F9FB00D1124AB55BD4FA60FB71FD7
:1051C0009C919C3330F51E9DF0011F9DF00D112424
:1051D000E60FF71FEA55FD4F90819C33D0F433273B
:1051E00021950CF43095992781950CF4909595951F
:1051F00087958217930744F474E17D15D0F044330A
:10520000C0F48CE38C9315C0583598F40C3088F4B6
:105210000EC0583570F4443360F41E9DC0011F9DCC
:10522000900D11248B559D4FFC01E60FF71F8CE369
:1052300080831092C2030091C2030C3008F003C2B5
:105240001092B803E02EF12C670181E0C81AD10852
:1052500057019FEFA91AB90A9090B803A4E1A915C4
:1052600008F4BBC0892D90E0189FF001199FF00D44
:105270001124EB55FD4FEE0DFF1D20812093A90356
:10528000992091F0002381F09C0121503109129F57
:10529000F001139FF00D1124EE0DFF1DEC55FD4F95
:1052A00020812093AA0304C01092AA03002381F056
:1052B000189FF001199FF00D1124EB55FD4FEC0DD7
:1052C000FD1D20812093AB03B4E19B1204C015C0E7
:1052D0001092AB0312C0002381F09C012F5F3F4F5F
:1052E000129FF001139FF00D1124EB55FD4FEC0DB3
:1052F000FD1D20812093AC0302C01092AC039920C5
:1053000099F09C0121503109129FF001139FF00D7B
:105310001124EB55FD4FEE0DFF1D20812093AD03B1
:10532000E4E19E16A9F002C01092AD039C012F5F2C
:105330003F4F129FF001139FF00D1124EB55FD4FCD
:10534000EE0DFF1D20812093AE039920A9F002C02D
:105350001092AE030B3081F09C0121503109129F55
:10536000F001139FF00D1124EB55FD4FEE0DFF1DC5
:1053700021812093AF0304C01092AF030B3081F062
:10538000189FF001199FF00D1124EB55FD4FEA0D08
:10539000FB1D20812093B003F4E19F1204C013C0D1
:1053A0001092B00310C00B3071F00196189FF001FD
:1053B000199FF00D1124EB55FD4FEA0DFB1D808167
:1053C0008093B10302C01092B103602F892D0E9417
:1053D000ED0493949092B8033FCF0F5F0093C20304
:1053E0002ACF289EF001299EF00D1124ED53FC4F89
:1053F0008381882339F0AF5F8A2F90E08617970763
:1054000084F329C08081082E000C990B28173907D6
:1054100094F304968217930774F38181082E000C8D
:10542000990B481759073CF30496841795071CF30A
:1054300087818150878381110CC0F382E481F0E081
:10544000EE0FFF1FE754FC4F808181508083B0E056
:10545000D2CF0087D0CFA093C203B093580499E075
:10546000C92EC0925B04EFC00E9489110E94FC10FB
:105470000E94C3072091C10380915904289F900185
:10548000112480E090E0482F50E04217530764F465
:10549000249EF001259EF00D1124ED53FC4F458113
:1054A000411191E08F5FEFCF9093C2038093B803D7
:1054B0009111C9C08BE080935B04C5C010925E045B
:1054C0000E94FC101092B70383E0A82EBB24B39473
:1054D000C090B703EC2CF12C8091C103909159043A
:1054E000899FC0011124E816F9067CF52E9CF00175
:1054F0002F9CF00D1124ED53FC4FD0848D2D6A2D7F
:105500000E94582E923081F4109263071092640723
:1055100004E024E04181608183E497E00E94250F4C
:10552000B0926307B0926407DD2059F02E9CF00121
:105530002F9CF00D1124ED53FC4FDA94D086B092DD
:105540005E04C394C092B703C3CF0E9489118091B7
:105550005E04811102C00E946E070E94550773C04D
:105560000E9489110E94FC10109263071092640738
:1055700008E12CE445E064E083E497E00E94250F15
:1055800081E0809363078093640726E14AE466E044
:1055900085E00E94131C8BE080934D0781E180938E
:1055A0004C07E09154042E9EF0011124ED53FC4F62
:1055B0008681811103C084EC91E002C08CEC91E003
:1055C0000E9424186091550470E06F5F7F4F83E460
:1055D00097E00E94291883ED91E00E94931D87E0D7
:1055E00080934C078091A4026AE00E94582E892F74
:1055F00090E0FC013197E930F10520F4E15CFF4FC8
:105600000C94862E89ED91E01AC08CEE91E017C0C3
:105610008FEF91E014C082E192E011C085E292E048
:105620000EC088E392E00BC08BE492E008C08EE5E8
:1056300092E005C081E792E002C084E892E00E9417
:10564000931D0E94CB0880E090E0892B11F40C940C
:105650004E200E9400000C944D2060E080EB90E012
:105660000E94E31961E080EB90E00E94E31962E0A0
:1056700080EB90E00E94E31963E080EB90E00E94F1
:10568000E3190C942220D6013C920C943A22440C4B
:10569000440CF70141822A9CF0012B9CF00D11244F
:1056A000ED53FC4F8081893214F0128201C0928246
:1056B00083948092C2030C94EF21872D662D0E9463
:1056C000582ED92E892F880F880FD70111968C93C9
:1056D00015C04A94F60140820C945922440C440CA3
:1056E000D70111964C92D7CF872D662D0E94582E48
:1056F000D92E892F880F880FF7018183FF24F39417
:10570000FD0C6F2D802F0E944A1081110CC09092C9
:1057100063079092640742E04D0D602F83E497E0A9
:105720000E946C0BB8CF10926307109264074F2D44
:10573000602F83E497E00E946C0B90926307909235
:105740006407A9CF83E080935B04A6C9815080934E
:105750005604CBC910924607109245078BE491E09E
:10576000909344078093430708958F929F92AF923E
:10577000BF92CF92DF92EF92FF92CF93DF93EC0133
:10578000688179818A819B81611571058105910507
:1057900021F464E279ED8BE597E02DE133EF41E010
:1057A00050E00E94572C49015A019B01AC01A7EA25
:1057B000B1E40E94762C6B017C01ACEEB4EFA50144
:1057C00094010E94842CDC01CB018C0D9D1DAE1D2B
:1057D000BF1DB7FF03C00197A109B0488883998313
:1057E000AA83BB83BC01CD019F77DF91CF91FF904E
:1057F000EF90DF90CF90BF90AF909F908F900895E3
:105800008F929F92AF92BF92CF92DF92EF92FF92D0
:105810006091010170910201809103019091040156
:10582000611571058105910521F464E279ED8BE53F
:1058300097E02DE133EF41E050E00E94572C490101
:105840005A019B01AC01A7EAB1E40E94762C6B01DE
:105850007C01ACEEB4EFA50194010E94842CDC0124
:10586000CB018C0D9D1DAE1DBF1DB7FF03C0019761
:10587000A109B0488093010190930201A093030114
:10588000B0930401BC01CD019F77FF90EF90DF90B2
:10589000CF90BF90AF909F908F900895609301013B
:1058A0007093020180930301909304010895052EE3
:1058B00097FB1EF400940E946E2C57FD07D00E94A7
:1058C000892C07FC03D04EF40C946E2C5095409517
:1058D000309521953F4F4F4F5F4F0895909580959C
:1058E000709561957F4F8F4F9F4F08950E94AB2C0D
:1058F000A59F900DB49F900DA49F800D911D112424
:105900000895B7FF0C94762C0E94762C821B930B83
:105910000895A1E21A2EAA1BBB1BFD010DC0AA1FF0
:10592000BB1FEE1FFF1FA217B307E407F50720F008
:10593000A21BB30BE40BF50B661F771F881F991F83
:105940001A9469F760957095809590959B01AC01CC
:10595000BD01CF010895A29FB001B39FC001A39FD5
:10596000700D811D1124911DB29F700D811D112498
:10597000911D08955058BB27AA270E94D22C0C9441
:10598000B12D0E94A32D38F00E94AA2D20F039F4E9
:105990009F3F19F426F40C94A02D0EF4E095E7FB3C
:1059A0000C949A2DE92F0E94C22D58F3BA17620762
:1059B00073078407950720F079F4A6F50C94E42D7D
:1059C0000EF4E0950B2EBA2FA02D0B01B90190011A
:1059D0000C01CA01A0011124FF27591B99F0593F5E
:1059E00050F4503E68F11A16F040A22F232F342FA6
:1059F0004427585FF3CF469537952795A795F040F4
:105A00005395C9F77EF41F16BA0B620B730B840B08
:105A1000BAF09150A1F0FF0FBB1F661F771F881FC0
:105A2000C2F70EC0BA0F621F731F841F48F4879518
:105A300077956795B795F7959E3F08F0B0CF93950A
:105A4000880F08F09927EE0F9795879508950E9483
:105A50002E2D6894B1110C94E52D08950E94CA2D45
:105A600088F09F5798F0B92F9927B751B0F0E1F01F
:105A7000660F771F881F991F1AF0BA95C9F714C0CF
:105A8000B13091F00E94E42DB1E008950C94E42D22
:105A9000672F782F8827B85F39F0B93FCCF3869508
:105AA00077956795B395D9F73EF490958095709565
:105AB00061957F4F8F4F9F4F0895E89409C097FBE2
:105AC0003EF490958095709561957F4F8F4F9F4FD5
:105AD0009923A9F0F92F96E9BB279395F695879519
