:10780000112455985D9A4D9BACD384B714BE81FF6B
:1078100089D385E08093810082E08093C00088E175
:107820008093C10096E09093C20090E19093C400D1
:10783000809360008EE08093600086E020E33CEF60
:1078400091E0309385002093840096BBB09BFECFDF
:10785000A8958150B1F7C0E0D0E028E1F22E38E0E1
:10786000E32E3AD3813481F437D3182F41D3123821
:1078700019F484E01FD362C0113819F484E01AD3DC
:107880005DC083E017D35AC0823419F484E13DD33C
:1078900055C0853419F485E038D350C0853549F496
:1078A0001BD3C82F19D3D0E0D82BCC0FDD1F20D38A
:1078B00045C0863529F484E028D380E0FBD23EC061
:1078C000843691F409D308D3182F06D384E2C82E46
:1078D00083E0D82E01D3F60181936F011150D1F7C7
:1078E00007D3CE01DFD22AC08437A9F4F5D2F4D26F
:1078F000182FF2D2FDD2012FFE016F018FEFC81AAF
:10790000D80A8491D7D20150F601B9F721961150C7
:10791000C10FD11D13C0853741F4EAD28EE1CAD21E
:1079200085E9C8D28FE0C6D209C0813531F4F09222
:107930006000E0926000DCD201C0DAD280E1BAD20D
:1079400090CF8EBD0DB407FEFDCF0895CF93DF938A
:107950008FEFF7DF2A98C5E1D1E08991F2DF81E06E
:10796000CB31D807D1F7CFEF8FEFEBDF8EB587FFA5
:1079700002C0C150C9F7DF91CF910895EF92FF92F5
:107980000F931F93CF93DC01CB01880F991FAA1F80
:10799000BB1F21E520931501A093160190931701B9
:1079A000809318011092190180E58CBDCFDFC82F9C
:1079B000882319F02A9AC3E01DC01FEF8FEFC1DFA3
:1079C0008EB58E3F19F01150C9F7F4CF02E211E0E5
:1079D00082E2E82E83E0F82E8FEFB3DF8EB5F80158
:1079E00081938F01EE16FF06B9F78FEFAADF8FEFB5
:1079F000A8DF2A9A8C2FCF911F910F91FF90EF90C3
:107A000008958F929F92AF92BF92CF92DF92EF92A2
:107A1000FF920F931F93CF93DF9300910801109172
:107A2000090183E00232180708F460C0E090000109
:107A3000F0900101C0910201D0910301D0900C019E
:107A4000CC24CA94CD0CCC22D6948D2D5E018823F3
:107A500021F0B694A7948695FACF8FEFA114B104C4
:107A6000D1F08F2C9924881549F060910A0170910A
:107A70000B01680D791D80E090E080DFF701FF27A2
:107A8000EE0FFF1FEE5DFE4FE080F18081E0A81A4F
:107A9000B108882DE3CFC7010297A0E0B0E0DD2058
:107AA00031F0880F991FAA1FBB1FD694F8CF4091C1
:107AB0000F015091100160911101709112014C0D54
:107AC000511D611D711D6A017B01C80ED91EEA1E80
:107AD000FB1EC701B60152DF2196D0930301C0936C
:107AE00002011250109309010093080180910401D2
:107AF00090910501A0910601B09107010197A1099C
:107B0000B1098093040190930501A0930601B093FD
:107B10000701E0910801F0910901CF0101969093CE
:107B20000901809308018081DF91CF911F910F910E
:107B3000FF90EF90DF90CF90BF90AF909F908F908D
:107B40000895CF935EDF813614F0875507C08134E6
:107B500014F0875303C080330CF08053C82FC295B4
:107B6000C07F4FDF813614F0875507C0813414F091
:107B7000875303C080330CF080538C0FCF9108954E
:107B8000EF92FF920F931F93CF93DF932A9A84B1C2
:107B90008C6284B9229A83E58CBD8DB58E7F8DBDB4
:107BA000CAE08FEFCEDEC150E1F780E4809315018B
:107BB00010921601109217011092180110921901DB
:107BC00085E980931A01C0E1C1DED82F2A9A8FEF90
:107BD000B8DED13019F0C150B9F72CC181E48093DF
:107BE0001501B4DE882321F02A9A8FEFAADEF9CF9F
:107BF00060E070E0CB01C2DE80915801863449F428
:107C000080915C01863329F410920B0110920A01D5
:107C100017C06091E8027091E9028091EA029091A8
:107C2000EB0270930B0160930A01A8DE809158016A
:107C3000863409F0FFC080915C01863309F0FAC0F8
:107C400080912F0180930C012091300130913101FE
:107C500080910A0190910B01820F931F90930B0169
:107C600080930A01609132014091380150913901AD
:107C7000649F9001659F300D1124820F931F909394
:107C800014018093130140913301509134019A0102
:107C900044E0369527954A95E1F730930E012093FD
:107CA0000D01820F931FA0E0B0E080930F0190932D
:107CB0001001A0931101B0931201C0E0D0E002E2E4
:107CC00013E0BE0184E0769567958A95E1F780918F
:107CD0000D0190910E016817790708F0AEC08091F0
:107CE000130190911401680F791F80E090E046DE47
:107CF000EC2FEF7080E2E89FF0011124EE5DFE4F63
:107D00008081882309F499C0828D938D009709F4AE
:107D100094C09093010180930001848D958DA68D70
:107D2000B78D8093040190930501A0930601B09351
:107D300007011092030110920201109309010093B0
:107D4000080191E080E0282F30E0D901A950B74F19
:107D50004C91442351F0DF01A20FB31F51E02C914D
:107D6000241350E095238F5FEECF992309F465C06B
:107D7000882309F462C08185853409F05EC080855E
:107D8000883409F05AC08285883509F056C01092AF
:107D9000230310922203C4E2D3E010E08091040197
:107DA00090910501A0910601B0910701892B8A2BC2
:107DB0008B2B91F11123F1F07E018FEFE81AF80A75
:107DC000C0DE8883115084EAE81683E0F80669F57E
:107DD000809122039091230365D08091220390919A
:107DE000230380589F4F9093230380932203C4E280
:107DF000D3E0D4CF06DE8A3389F6A3DE182F809134
:107E0000080190910901049690930901809308015B
:107E100098DE882309F4C2CFC452D34041F0809148
:107E20002203909123033ED002C0E701B7CF80E048
:107E300090E00BC082E090E008C02196C11582E07E
:107E4000D80709F03ECF81E090E0DF91CF911F91FC
:107E50000F91FF90EF900895F999FECF23E0FC0178
:107E600027BFE89507B600FCFDCFDB0120E030E03E
:107E700041E06D917D91FC01E20FF31F0B0147BFC3
:107E8000E89511242E5F3F4F2038310591F725E00A
:107E9000FC0127BFE89507B600FCFDCF81E187BF55
:107EA000E8950895813027E7920718F464E273E0BB
:107EB000D3CF08959091C00095FFFCCF8093C6006A
:107EC0000895CF93DF93EC018991882311F0F2DFBD
:107ED000FBCFDF91CF9108958091C00087FFFCCF49
:107EE0008091C00084FD01C0A8958091C6000895CE
:107EF000F3DF803241F088E18093600088E0809376
:107F000060007894FFCF84E1D5CFCF93C82FE4DF12
:107F1000C150E9F7CF91ECCFE0E6F0E098E1908333
:107F200080830895E0E6F0E088E180831082EE2708
:107F3000FF270994FC01F894112499E0A7EFB8E019
:107F400001900D929A95E1F786EF98E09EBF8DBF64
:107F500017DE88E18093600088E080936000789469
:107F6000FFCFE0E6F0E088E180831082EBE1F1E012
:107F70008CE480838FE4818381E4828384E483833F
:0E7F800085E4848382E585831682CF01D3DFFA
:047FFA002ECF9BCF1C
:027FFE00040479
:040000030000780081
:00000001FF
